S00C0000546573742E7372656378
S113000020C100003FC100003DC100000C94A315B5
S11300100C9492150C94B41535C1000033C1000042
S113002031C100002FC100002DC100002BC1000010
S113003029C1000027C1000025C1000023C1000020
S113004021C100001FC100001DC100001BC1000030
S113005019C1000017C1000015C1000013C1000040
S113006011C100000FC100000DC100000BC1000050
S113007009C1000007C1000005C1000003C1000060
S11300800C945D19FFC00000FDC00000FBC000001F
S1130090F9C00000F7C00000F5C00000F3C0000084
S11300A0F1C00000EFC00000EDC00000EBC0000094
S11300B0E9C00000E7C00000E5C00000E3C00000A4
S11300C0E1C00000DFC00000DDC000000C94F22F8E
S11300D0D9C00000D7C00000D5C00000D3C00000C4
S11300E0D1C00000084AD73B3BCE016E84BCBFFDA3
S11300F0C12F3D6C74319ABD56833DDA3D00C77FF4
S113010011BED9E4BB4C3E916BAAAABE000000808C
S11301103F05A84CCDB2D44EB93836A9020C50B91B
S1130120918688083CA6AAAA2ABE000000803F0047
S11301306E616E00696E660000407A10F35A00A08A
S1130140724E18090010A5D4E80000E8764817009C
S113015000E40B54020000CA9A3B000000E1F505DC
S1130160000080969800000040420F000000A08626
S113017001000000102700000000E8030000000058
S11301806400000000000A000000000001000000FC
S113019000002C76D888DC674F0823DFC1DFAE5916
S11301A0E1B1B796E5E3E453C63AE651997696E8A9
S11301B0E6C28426EB898C9B62ED407C6FFCEFBC2D
S11301C09C9F40F2BAA56FA5F490055A2AF75C9358
S11301D06B6CF9676DC11BFCE0E40D47FEF520E68E
S11301E0B500D0ED902E0300943577050080841E71
S11301F0080000204E0A000000C80C333333330FCC
S1130200986E12831141EF8D2114893BE65516CF68
S1130210FEE6DB18D1844B381BF77C1D901DA4BB74
S1130220E424203284725E228100C9F124ECA1E529
S11302303D27CDE9DAE188818230F0F30E94841809
S1130240FACF11241FBECFEFD1E2DEBFCDBF00E055
S11302500CBF17E0A0E0B2E0ECE5F2E700E00BBF72
S113026002C007900D92AA34B107D9F72CE1AAE491
S1130270B7E001C01D92A031B207E1F70E94EB1470
S11302800C942C39BDCECF93DF936BE374E081E003
S11302900E944D1710924B0710924A07CCE4D7E006
S11302A08DE8FE0111928A95E9F781E00E94B11967
S11302B09093D6078093D5071882DF91CF91089544
S11302C080914C07811116C0ECE4F7E0168E158E70
S11302D0168A158A14A213A212A211A2178E148EC2
S11302E0128E118E138E1092D8071092D70791E0B8
S11302F0908308958FEF0895CF92DF92EF92FF924B
S11303000F931F93CF93DF931F92CDB7DEB769018D
S1130310E82EF12C9DE8899F80011124045B184F7D
S113032083E0F8018083508F478B60A382E0898348
S11303300E946D2BF801E557FF4F918380830E9443
S1130340A82E21E030E0AE014F5F5F4F61E0F8017D
S113035080A10E945817B60181E00E94262C672BC9
S1130360682B692B61F48DE88E9DF0018F9DF00D53
S11303701124E45BF84F81E0808380E02EC080E0AC
S113038091E0A7D6009731F14DE84E9D90014F9D25
S1130390300D112440E051E0BC01C901835B984F4A
S11303A05BD384E190E095D60097B1F02DE82E9DC3
S11303B080012F9D100D112444E150E0BC01C801BF
S11303C0895A984F49D3F801E45BF84F82E080835F
S11303D081E003C08FEF01C08FEF0F90DF91CF91C9
S11303E01F910F91FF90EF90DF90CF900895CF93DE
S11303F0DF93811134C020E04FEF5FEF60E070E0E5
S11304008091D5079091D6070E949F1E80914C073A
S1130410823051F060E070E08091D5079091D6076A
S11304200E94031D80E01CC0CCE4D7E089819A813E
S11304305AD78B859C8557D781E08883EF89F88DBF
S113044060E070E080E090E0199560E070E08091F9
S1130450D5079091D6070E94031D81E001C080E07A
S1130460DF91CF910895EF92FF920F931F93CF9353
S1130470DF9300D01F92CDB7DEB75C834B8381112D
S11304807BC07B0120E04FEF5FEF60E070E0809184
S1130490D5079091D6070E949F1E80914C07823009
S11304A051F4E114F10439F00B811C81C801019766
S11304B08436910550F060E070E08091D50790910A
S11304C0D6070E94031D80E058C00E5F1F4F209185
S11304D055073091560780E091E0821B930B081773
S11304E0190708F03FC020915F073091600784E14D
S11304F090E0821B930B0297A8F18AE290E09A8322
S1130500898342E050E0BE016D5F7F4F8DE497E048
S1130510B5D24B815C81B7018DE497E0AFD2011570
S11305201105B1F0902F812F0B32110510F09AE2D2
S113053080E099838A8342E050E0BE016F5F7F4F81
S113054087E597E09BD289819A81081B190B51F7A3
S113055060E070E08091D5079091D6070E94031D5A
S11305608B810BC060E070E08091D5079091D60735
S11305700E94031D80E001C080E00F900F900F9057
S11305800F90DF91CF911F910F91FF90EF900895FD
S1130590CF93DF931F921F92CDB7DEB7811114C0A2
S11305A080914C07823091F4662394F081E0898332
S11305B06A8322E030E0AE014F5F5F4F61E08091DB
S11305C06C070E94581705C080E003C080E001C09A
S11305D080E00F900F90DF91CF910895AF92BF927A
S11305E0CF92DF92EF92FF920F931F93CF93DF93FB
S11305F0CDB7DEB7AE970FB6F894DEBF0FBECDBF52
S11306008111DBC080914C07882309F4D6C020E017
S11306104FEF5FEF60E070E08091D5079091D607CF
S11306200E949F1E80914C07823049F060E070E088
S11306308091D5079091D6070E94031DBEC080917A
S11306406B07882309F462C0ECE4F7E0858D968D8E
S11306500A96968F858F248D265F248F893E93403A
S113066058F060E070E08091D5079091D6070E9421
S1130670031D80E0BCDEA1C0293C08F447C0ECE4C3
S1130680F7E0078110851EA61DA6A18C838DA81AEC
S11306908A2D8F77A82EC1F1C12CD12CB12C7F01CA
S11306A01982F701838D8B0D8F778A834189528953
S11306B04C0D5D1D22E030E0BE01635D7F4F87E598
S11306C097E08BD22DA53EA5A801BE016D5F7F4F9B
S11306D08DE497E082D22DA53EA5020F131FF701EA
S11306E0838194810197082319232E5F3F4FAE0124
S11306F04F5F5F4F61E080A10E945817B394F2E00E
S1130700CF0ED11CAB10CCCF10926807ECE4F7E00D
S1130710818D482F50E0938D491B51094F77552700
S1130720443051050CF041C06581768125893689B4
S113073062177307D1F119828A838F01440F551F01
S113074081899289480F591F22E030E0BE01635D20
S11307507F4F87E597E041D22DA53EA5F801458955
S11307605689BE016D5F7F4F8DE497E036D22DA58B
S11307703EA5F80185899689A901480F591F8381EF
S11307809481019784239523968B858B81E0878FB1
S1130790818D8F5F8F77818F2E5F3F4FAE014F5FCB
S11307A05F4F61E080A10E94581760E070E0809183
S11307B0D5079091D6070E94031DAE960FB6F89404
S11307C0DEBF0FBECDBFDF91CF911F910F91FF9080
S11307D0EF90DF90CF90BF90AF9008950F931F9349
S11307E0CF93DF93EA01811141C080916F0790910B
S11307F07007892B99F4DB0111968C91119790E085
S1130800982F88272C91822B9093700780936F07E1
S11308108536910558F522976E5F7F4F0CE417E0FB
S1130820F80181A192A1AE018F58984F0E945638C9
S1130830D80191966D917C9192976C0F7D1F929641
S11308407C936E93919793968D919C91949768174E
S1130850790761F45796ED91FC91589781E797E0F9
S11308601995F80114A213A212A211A2DF91CF913B
S11308701F910F9108959F92AF92BF92CF92DF92F2
S1130880EF92FF920F931F93CF93DF931F92CDB7F5
S1130890DEB78B015A0190916C079813B8C0909100
S11308A04C07992309F4B3C0FB01D0800F2EFCE45C
S11308B0EF2EF7E0FF2EF02D13C0E0914A07F091E0
S11308C04B07309759F0482F50E060E070E000E0AB
S11308D010E023E0CF010E949C2DAAC0E12CF12C52
S11308E020E04FEF5FEF60E070E0F701E757FF4F64
S11308F0808191810E949F1EF7018081823030F0B7
S1130900A114B10419F00115110551F4F701E757C9
S1130910FF4F60E070E0808191810E94031D88C0D8
S1130920833021F5F3E0DF1221C0F701E557FF4FD3
S113093080819181009781F000E010E022E040E0A6
S113094050E0BA010E949C2DF701E557FF4F118238
S1130950108260E080E01CDEF701E757FF4F60E0A3
S113096070E0808191810E94031D62C0F801C18002
S1130970DD2009F452C0F4E0DF1213C053C0A50116
S113098042505109B8016E5F7F4F80E027DFF701C5
S1130990828D8F5F8F77828FF701628D80E0F8DD23
S11309A02CC0F1E0DF1229C0F701838DFC2DF81B68
S11309B08F2F8F77982E09F1D12C57018BE0A80E39
S11309C0B11C87010F5F1F4F42E050E0BE016F5F13
S11309D07F4FC50150D1498150E060E070E0C8010B
S11309E04AD1D3949D10F0CFF701C38E148E168E86
S11309F0158E818DC81201C0178EF701E757FF4F7E
S1130A0060E070E0808191810E94031D11C0F801B3
S1130A10D080F2E0DF120CC050CFF701828DC812F3
S1130A20BBCFADCFF701828DC81609F4B0CFB4CFD8
S1130A300F90DF91CF911F910F91FF90EF90DF9076
S1130A40CF90BF90AF909F90089580E0C7DD8AE07B
S1130A5090E00E948325F9CFFC016115710561F0D6
S1130A6071836083538342831186108617821682B2
S1130A701582148281E0089580E00895EF92FF9238
S1130A800F931F93CF93DF93EC012A813B818885D9
S1130A909985F901E81BF90BE417F50708F449C037
S1130AA08A017B018C819D81A901481B590B041784
S1130AB01507A8F428813981A801820F931F0E9489
S1130AC056388C819D81800F911F9D838C832A8150
S1130AD03B818217930721F51D821C8221C0288146
S1130AE03981820F931F0E9456388C819D816A81BF
S1130AF07B81AC01461B570B400F511F681B790BC0
S1130B006E0D7F1D888199810E9456388C819D814C
S1130B102A813B81821B930B800F911F9D838C83C1
S1130B2048855985040F151F1987088781E090E0CF
S1130B3002C080E090E0DF91CF911F910F91FF9070
S1130B40EF9008950F931F93CF93DF93FC0121152A
S1130B503105C9F1A681B78184819581A817B907A8
S1130B60A9F1C62FD72F80E090E007C0A681B781F6
S1130B7064817581A617B70759F160817181A60F49
S1130B80B71F5C918E015883668177816F5F7F4FB9
S1130B9077836683A085B1851197B187A087A281E9
S1130BA0B3816A177B0711F4178216822196D80144
S1130BB05C91541302C001960BC0019628173907A3
S1130BC0A9F6C90105C080E090E002C080E090E091
S1130BD0DF91CF911F910F910895CF92DF92EF9201
S1130BE0FF920F931F93CF93DF937C016B01EA0174
S1130BF08901672BA9F1FC0142815381C417D507F0
S1130C0010F0C41BD50B4C1B5D0B4017510760F053
S1130C10F701608171816C0F7D1FA801C6010E94DC
S1130C205638802F912F1EC0F701608171816C0F9F
S1130C307D1FC6010E945638F70122813381C90104
S1130C408C1B9D0BA801421B530B4C0F5D1F608135
S1130C5071818C0D9D1D0E945638802F912F02C0EA
S1130C6080E090E0DF91CF911F910F91FF90EF9082
S1130C70DF90CF900895EF92FF920F931F93CF933D
S1130C80DF93EC017B01088519854017510708F4AF
S1130C908A018E819F814A815B81481B590B4017D1
S1130CA05107C8F0E114F10441F068817981680FBB
S1130CB0791FA801C7010E9456388E819F81800F39
S1130CC0911F9F838E832A813B818217930741F56D
S1130CD01F821E8225C0E114F104C1F0688179816C
S1130CE0680F791FC7010E9456384E815F812A819F
S1130CF03B81C901841B950B421B530B400F511FB1
S1130D00688179818E0D9F1D0E9456388E819F8146
S1130D102A813B81821B930B800F911F9F838E83BB
S1130D2088859985801B910B99878887C801DF91F5
S1130D30CF911F910F91FF90EF900895EF92FF9242
S1130D400F931F93CF93DF937C01680F791FFC01EE
S1130D503196009719F04115510521F460E070E0D7
S1130D6081E04BC02115310559F1E617F70760F50D
S1130D708A01020F131FDA01EC0191E02FEF04C086
S1130D80FA01E617F70720F53D9131110AC098835F
S1130D90CF010196A017B107E8F4EF01FC0191E03F
S1130DA0F0CFAF014F5F5F4F30839F5FA017B10754
S1130DB0B0F49F3F29F728833296EA0191E0E1CF0E
S1130DC0EC0180E091E00DC0EC0182E091E009C00B
S1130DD082E007C0EF01FC0180E091E002C0FA016B
S1130DE080E0C617D70718F49883BF0101C082E0DA
S1130DF09B012E193F09622F732FDF91CF911F9111
S1130E000F91FF90EF900895AF92BF92CF92DF922F
S1130E10EF92FF920F931F93CF93DF937C01DA013C
S1130E20009711F0109721F460E070E081E05FC05A
S1130E302115310509F44BC06A01C20ED31E5C01B1
S1130E40A60EB71E8C0150E001C08F01ED01219662
S1130E507C91711103C05460F8013DC07150C6010A
S1130E608C1B9D0B272F30E08217930710F4782FEB
S1130E705860C501801B910B272F30E08217930720
S1130E8010F4782F5260772361F1DE01F801972F77
S1130E903D91311101C0546031939150C9F7EFEF86
S1130EA0E70FF0E03196DE01AE0FBF1FE00FF11F38
S1130EB0AC15BD0580F47E3F41F2EA15FB0510F048
S1130EC0526009C08F010F5F1F4F1082BFCFFC011A
S1130ED050E001C0F801EE19FF096E2F7F2F852F16
S1130EE006C0CC15DD05B0F7F801DE01E6CFDF91D1
S1130EF0CF911F910F91FF90EF90DF90CF90BF9013
S1130F00AF900895EF92FF920F931F93CF93DF93C7
S1130F107C01EB018A018CE30E94BC2E83E00E94D9
S1130F20E12E0E94092F8DE30E94BC2E0E94F32E15
S1130F30F701108281830E94F32EF7012081318111
S1130F40282B318320830E94F32EF80110828183A1
S1130F500E94F32EF80120813181282B31832083D4
S1130F600E94F32E188289830E94FE2E28813981E3
S1130F70282B398328830E94092FDF91CF911F9159
S1130F800F91FF90EF900895862798E02CE880FF5A
S1130F9003C08695822701C086959150C1F70895B4
S1130FA00F931F93CF93DF93662359F08C01EC01C9
S1130FB0060F111D80E06991E7DFC017D107D9F74B
S1130FC001C080E0DF91CF911F910F91089580B30C
S1130FD080BBECE7F0E08081806C8083EAE7F0E09E
S1130FE08081806880838081846080830895ECE7B9
S1130FF0F0E080839081906C9083EAE7F0E0908148
S113100090649083908196FDFDCF2091780090911B
S11310107900E82FF0E02695269530E4939FC001EF
S11310201124822BFE2FEE27E050FF4FE80FF11D15
S113103080810895CF92DF92EF92FF92CF93DF9356
S1131040EC01C880D980EA80FB802BED3FE049E4C5
S113105050E4C701B6010E94D53218166CF42BED8A
S11310603FE049EC50E4C701B6010E945E3068835A
S113107079838A839B8316C02BED3FE049E450ECCF
S1131080C701B6010E942531882364F42BED3FE0AB
S113109049EC50E4C701B6010E945F30688379834C
S11310A08A839B8388819981AA81BB81BC01CD01FC
S11310B09F772BED3FE049E450E40E94D5321816A7
S11310C00CF4BFCFDF91CF91FF90EF90DF90CF90E2
S11310D00895EF92FF920F931F93CF93DF93EC0148
S11310E00E94EC278091DF079091E007892B41F55E
S11310F0E1EEF7E0A5EEB7E0B183A083138212829C
S1131100E1EEF9E1F093E007E093DF071382128246
S1131110118210828CEF91E113969C938E93129717
S1131120ED93FC939093DC078093DB079093DE07A9
S11311308093DD0780E090E89093DA078093D907E5
S11311408091D9079091DA078C239D23892B09F08C
S1131150B2C0209709F4B2C0AE014C5F5F4F09F4EE
S1131160B0C08091DD079091DE078417950708F4DD
S1131170ABC0E091E107F091E207A1EEB7E002C055
S1131180DF01F901228133812417350728F42081F6
S1131190318121153105A1F76091DF077091E007D6
S11311A0E617F70709F493C0CD91DC9111977E01FE
S11311B084E0E80EF11C808191818D939C9382815F
S11311C09381841B950B8930910508F452C09F01CB
S11311D0240F351FD90113969C938E931297538332
S11311E04283A1EEB7E001C0DC018D919C9111977F
S11311F082179307C8F312964D915C9113978D0152
S1131200040F151F2017310751F4E9012A813B818E
S1131210420F531F13965C934E9312979D01E9015D
S11312204A815B818901040F151F80179107C9F456
S11312306017710791F0E8018A819B81480F591F5B
S1131240E9015B834A838D919C911197EC0188811C
S11312509981E9019983888307C0E90179836883C7
S113126003C0E90199838883A217B30711F02D9372
S11312703C93228133818091DD079091DE07821BAC
S1131280930B9093DE078093DD074091DB07509129
S1131290DC078417950720F49093DC078093DB0721
S11312A08091D9079091DA07282B392B3383228335
S11312B0118210820EC0E12CF12C0BC0E12CF12C18
S11312C008C0E12CF12C05C0E12CF12C02C0E12C6A
S11312D0F12C0E94F227C701DF91CF911F910F914A
S11312E0FF90EF900895CF93DF93009709F468C0BF
S11312F0FC013497228133814091D9075091DA0758
S1131300B90164237523672B09F45AC06081718184
S1131310672B09F055C0EF014095509524233523E0
S1131320338322830E94EC274A815B818091DD070D
S11313309091DE07840F951F9093DE078093DD075D
S1131340E1EEF7E001C0FC01808191818C179D07DB
S1131350D0F322813381BF01620F731FC617D707F1
S113136029F4240F351F33832283EF012A813B8123
S1131370DE01A20FB31F8A179B07C9F48091DF0710
S11313809091E007A817B90779F012968D919C9176
S11313901397280F391F3B832A83A081B1818D9134
S11313A09C919983888305C0B983A88302C09983DB
S11313B08883EC17FD0711F0D183C0830E94F227C4
S11313C0DF91CF910895EF92FF920F931F93CF93E4
S11313D0DF93EC01E42E2898862F80680E94C522B2
S11313E0EE20B1F00FEF0E0D10E00F5F1F4F0C0F4A
S11313F01D1FF12C80E00E94C5228F3F09F4F39455
S113140089930C171D07B1F7FE1004C085E003C0D3
S113141085E001C080E0289ADF91CF911F910F9160
S1131420FF90EF900895CF93DF93EC012898862FD7
S113143080680E94C52280E00E94C522289A8F3FBE
S113144011F495E001C090E08883892FDF91CF915A
S11314500895CF93DF931F921F92CDB7DEB7EDE3CC
S1131460FBE181E0808324EF31E03283218322E8B1
S113147036E03483238320E931E0368325831782E1
S113148010868187828720E130E0348723872DE02E
S113149030E03687258722E330E0308B2787118AB6
S11314A0128A838B848B88EB9BE0968B858B8AE0F6
S11314B090E0908F878B118E1092581B1092571BBF
S11314C010925A1B1092591B0E94B722209A289AF4
S11314D0198220E137E289818F5F898321503109A4
S11314E0D1F76FE0CE0102969EDF8A818936C9F773
S11314F080E00F900F90DF91CF9108950F931F9389
S1131500CF93DF931F921F92CDB7DEB78C0142E0D9
S1131510CE01019658DF2A8130E0322F22279981AB
S1131520292BF801318320830F900F90DF91CF9105
S11315301F910F910895CF93C62F28980E94C5221A
S11315408C2F0E94C522289A80E0CF9108951F9382
S1131550CF93DF931F921F92CDB7DEB7198279DF45
S1131560182F19828091461B813009F083C0809125
S11315704C1B90914D1B8436910541F0883C91059C
S113158041F0C29741F483E0898305C082E08983F6
S113159002C081E089838091481B9091491B84306B
S11315A0910531F08830910539F0029749F40BC068
S11315B089818860898307C089818C60898303C09D
S11315C089818460898380914A1B90914B1B803A66
S11315D021E09207C1F170F48A31910521F118F4E8
S11315E00D97E9F028C08433910509F1803D9105F8
S11315F031F121C082302DE0920789F140F4813429
S113160023E0920721F18C37964029F114C08430ED
S11316102AE1920741F18231944349F10CC0898156
S11316208061898327C089818062898323C08981FD
S1131630806389831FC08981806489831BC08981F9
S11316408065898317C089818066898313C08981F5
S1131650806789830FC08981806889830BC08981F1
S11316608069898307C08981806A898303C08981ED
S1131670806B8983698180E15EDF63E1CE0101963D
S1131680D2DE89818F7789839091471B913011F441
S113169080688983698183E14EDF198280913D1BD3
S11316A0813009F05BC080913E1B90913F1B853FC8
S11316B09105C1F020F48D37910549F011C0843FA4
S11316C021E0920739F0883E934039F009C082E066
S11316D0898308C084E0898305C088E0898302C0C7
S11316E08CE089838091401B9091411B803D910542
S11316F031F148F48A319105B1F084339105B9F0A0
S11317000D97C9F40CC0813423E0920701F18C37A2
S113171026E0920701F1803A914069F414C089816E
S1131720806189831BC089818062898317C0898114
S11317308063898313C08981806489830FC0898110
S1131740806589830BC089818066898307C089810C
S11317508067898303C0898180688983698181E185
S1131760EADE6FE0CE0102965EDE812F0F900F90CD
S1131770DF91CF911F910895CF93DF931F921F9212
S1131780CDB7DEB766E2CE010196B8DE8823A9F0B4
S1131790853051F48091571B9091581B019690937A
S11317A0581B8093571B09C08091591B90915A1B59
S11317B0019690935A1B8093591B89819A810F90AB
S11317C00F90DF91CF910895CF92DF92EF92FF9225
S11317D0CF93FC0140913E1B50913F1B453F510567
S11317E0B1F09A01A5E2B6E00E945037481B590BAC
S11317F056954795840F951F0024880F991F001C48
S1131800880F991F001C892F902DC82F01C0C2E09A
S1131810BF01FF0F880B990B0E94C73120E030E015
S11318204CE850E40E94E0326B017C016C2F70E0C4
S113183080E090E00E94C7319B01AC01C701B60172
S11318400E94E03220E030E04AE754E40E942C3168
S1131850CF91FF90EF90DF90CF9008958DDFB4CFBC
S11318600895EAE0F1E08081876080830895823002
S1131870910531F4EBE0F1E0808184608083089588
S11318808130910531F4EBE0F1E080818260808366
S11318900895892B29F4EBE0F1E080818160808355
S11318A008958230910531F4EBE0F1E080818B7F83
S11318B0808308958130910531F4EBE0F1E080817B
S11318C08D7F80830895892B29F4EBE0F1E08081FA
S11318D08E7F808308958230910539F4EBE0F1E046
S11318E0908184E08927808308958130910539F4BB
S11318F0EBE0F1E0908182E0892780830895892BD1
S113190031F4EBE0F1E0908181E089278083089550
S1131910FC010396928381832FEF3FEF348323836B
S1131920968385839087878310820895FC011186AE
S113193010860895CF93DF939C01FB01DC0111967F
S1131940CD91DC911297D383C2838C819D81958341
S113195084838C819D81DC0113967C936E93129712
S11319607D836C8331872087F90180818F5F808339
S1131970DF91CF910895CF93DF93EB014881598193
S11319804F3F2FEF520721F4FC01A781B0850DC012
S1131990DC01139601C0DF011296ED91FC911397BF
S11319A02081318142175307B0F71296ED91FC91D3
S11319B01397FB83EA83D583C483BD83AC831396D7
S11319C0DC93CE93129799878887FC0120812F5F3F
S11319D02083DF91CF910895CF93DF93FC01A085FD
S11319E0B185C281D381848195819D838C83C48197
S11319F0D581828193819B838A8311968D919C9159
S1131A001297E817F90731F48481958112969C9313
S1131A108E931197118610868C9181508C93DF914F
S1131A20CF910895CF93DF9300D000D0CDB7DEB728
S1131A30FE01319686E0DF011D928A95E9F70E9446
S1131A405120A12CB12CC12CD12CE12CF12C03E080
S1131A5020E030E048EC50E06BE076E085E295E091
S1131A600E94CC22813019F080E090E000DF0E94D7
S1131A705A20182F88EE93E00E94832582E090E09C
S1131A802ADF1123A1F30E9466200F2EF7E6CF2E42
S1131A90FBE1DF2EF02D0F2EFFE08F2EF6E09F2EC0
S1131AA0F02D0F2EF3E2AF2EF6E0BF2EF02D0F2E09
S1131AB0F3E36F2EF6E07F2EF02D22242394689416
S1131AC0442446F85524539420E04FEF5FEF60E040
S1131AD070E08091631B9091641B0E949F1E813073
S1131AE099F70E94EC270FB6F8940F92F601308014
S1131AF001811281E380F4800F900FBE0E94F227CF
S1131B009F928F920E9432211F930F93BF92AF92A4
S1131B100E943221FF92EF927F926F920E943221B3
S1131B200FB6F894DEBF0FBECDBF35E0331609F40F
S1131B306DC0331540F082E03816D1F094E03916C8
S1131B4009F44AC0C1CFA7E03A1609F467C03A16AF
S1131B5020F0B8E03B1649F0B7CF0FB6F8940F92D7
S1131B602092F2190F900FBEAFCF0E946F21ACCF1D
S1131B70B801110F880B990B0E94C731E1E4EE16EE
S1131B80E1E0FE061CF05E824D820CC0F0ECEF1624
S1131B90FEEFFF061CF0FE82ED8204C020EC3EEF57
S1131BA03E832D8325E33AEF4EE85CE30E94E03266
S1131BB069837A838B839C83CE0101963BDA20E090
S1131BC044E650E0BE016F5F7F4F8091F919909118
S1131BD0FA190E94331B78CF0FB6F8940F92209213
S1131BE0F1190F900FBE1E821D8219821A821B8268
S1131BF01C8220E044E650E0BE016F5F7F4F80917D
S1131C00F9199091FA190E94331B5ECF0FB6F8941C
S1131C100F921092F1190F900FBE56CF0FB6F89491
S1131C200F921092F2190F900FBE4ECFCF93DF9305
S1131C301F921F92CDB7DEB70E942D299A83898304
S1131C4064E170E0CE0101960E94E023F9CFCF93C6
S1131C50DF93CDB7DEB72F970FB6F894DEBF0FBE74
S1131C60CDBF1982F12C3324339410E06894DD2421
S1131C70D2F86894222422F80EC00F2EF3E0DF2E4F
S1131C80F02D09C00F2EF3E0DF2EF02D04C00F2E2F
S1131C90F3E0DF2EF02D8091F219813009F006C1B6
S1131CA08091F119811102C10E942D299B838A839D
S1131CB020E046E950E0BE016F5F7F4F8091F71945
S1131CC09091F8190E949F1E8130D9F4898188234C
S1131CD019F08330A8F408C0139D102D1124FF249B
S1131CE0F394332433940DC08DEC189F112D1124DB
S1131CF016951695F12C0F2EF5E03F2EF02D01C010
S1131D00F12C139D802D11240E94932168EC70E026
S1131D10CE0102960E94E02380E069D98E8781E09B
S1131D2066D9E82E83E063D9C82E82E060D98F8714
S1131D3020E048E250E060E070E08091651B909103
S1131D40661B0E949F1E8091ED199091EE19A0913F
S1131D50EF19B091F0198A879B87AC87BD87A09053
S1131D60EB19B090EC196090E9197090EA1960E0F1
S1131D7070E08091651B9091661B0E94031D9AE0A0
S1131D809F1540F48981811105C00E940E21FF2412
S1131D90F39406C0FF2021F08981811101C0F394DE
S1131DA0432C512C149D4001159D900C112420E0CE
S1131DB030E044E353E46A857B858C859D850E94ED
S1131DC0E0322BED3FE049E450E40E942C310E94C4
S1131DD094316A877B878C879D87C3016AE070E0B2
S1131DE00E943D37FB01C5016AE070E00E943D3767
S1131DF0CB01AF840E8594014A855B85BF010E94A7
S1131E00CC20AFE18A16910434F0BCE38B16910424
S1131E10C4F0AF84AE868E858150833190F41C82E9
S1131E201D821E821F821986188620E044E650E037
S1131E30BE016C5F7F4F8091F9199091FA190E944D
S1131E40331B8BE5881691049CF494E0D91210C0DE
S1131E508981833008F040C01F5F149D4001159DA7
S1131E60900C1124AAE58A1691040CF006CF15C033
S1131E701814190434F5B3E0DB1228C089818330C7
S1131E8008F009CF1150149D4001159D900C1124A8
S1131E9004C084E0D81609F4F5CE181419040CF41F
S1131EA0FACE93E0D912F7CED22CF5CE80E00E9480
S1131EB0932184E690E00E948325F12C10E0D22C3B
S1131EC0EACEAAE58A16910464F30AC0BAE58B1631
S1131ED091040CF4E0CEDDCF18141904BCF3F1CF57
S1131EE084E0D81609F4D3CEDCCFCF93DF93CDB7FB
S1131EF0DEB7AB970FB6F894DEBF0FBECDBFFE01C1
S1131F00319686E0DF011D928A95E9F71F821986D2
S1131F1018861B861A861C861D861A8EB1E0BBA7FE
S1131F201FA218A619A61AA61BA21CA21DA21EA2B5
S1131F301F8E18A219A21AA21B8E1C8E1D8E1E8E15
S1131F408091F2198823E1F3F8944091F3191092E7
S1131F50F3191091F4191092F4197894BE01685F82
S1131F607F4F8C8510D7412FBE01665F7F4F8D85D3
S1131F7021D720E041E050E060E070E080915F1BF9
S1131F809091601B0E949F1E888599859093E61905
S1131F908093E5198A859B859093E8198093E719C6
S1131FA060E070E080915F1B9091601B0E94031DB4
S1131FB020E04FEF5FEF60E070E080915D1B909157
S1131FC05E1B0E949F1E813009F0BACF20E04FEFC4
S1131FD05FEF60E070E08091651B9091661B0E944A
S1131FE09F1E4090ED195090EE196090EF1970907B
S1131FF0F0190091EB191091EC192090E919309027
S1132000EA1960E070E08091651B9091661B0E9464
S1132010031D20E040E050E0BE016F5F7F4F8091E0
S1132020F9199091FA190E949F1E813009F073C02A
S113203020E044E150E0BE016F5F7F4F8091F919C9
S11320409091FA190E949F1E8D819E81BC01660F9A
S1132050771F880F991F880F991F880F991F680F82
S1132060791F7E836D83072E000C880B990B0E94C9
S1132070C7316A8B7B8B8C8B9D8B29813A814B81F9
S11320805C81C301B2010E945F306B017C010E943C
S113209029316E8B7F8B888F998FB801012E000CAC
S11320A0880B990B0E94C7314B015C012E893F8933
S11320B0488D598D6A897B898C899D890E94E0327B
S11320C09B01AC01C501B4010E945F306B8F7C8F12
S11320D08D8F9E8FC701B6010E9443334B015C0173
S11320E0B101032C000C880B990B0E94C7316B01C2
S11320F07C01A50194016A897B898C899D890E9450
S1132100E0329B01AC01C701B6010E945F306F8FC2
S113211078A389A39AA3B801110F880B990B0E9485
S1132120C7319B01AC016B8D7C8D8D8D9E8D0E9482
S11321305E306A8B7B8B8C8B9D8BB101330C880B4F
S1132140990B0E94C7319B01AC016F8D78A189A1C5
S11321509AA10E945E306B017C012A893B894C89DB
S11321605D89CA01B9010E94E0324B015C01A701FB
S11321709601C701B6010E94E0326E8B7F8B888F77
S1132180998F2E893F89488D598DC501B4010E94CC
S11321905F300E944D334B015C0120E030E04AEF98
S11321A053E40E9425318823C4F420E030E048E859
S11321B052E4C501B4010E94E03220E030E04AEF6D
S11321C053E40E942C3120E030E040E052E40E94CD
S11321D05F300E949931062F01C004E620E030E010
S11321E040E751E4C501B4010E94D53218160CF041
S11321F04EC12A893B894C895D89C701B6010E9479
S1132200D230A30192010E945E306E877F87888B53
S1132210998BCE010E960E941A084E845F846888BA
S1132220798853014201E894B7F829E134E046E0A3
S11322305FE3C501B4010E94D53218160CF4ACC09A
S113224022E73AE84EE85CE3C501B4010E94253177
S1132250882324F08BA5811103C09EC0A1E0ABA705
S113226020E030E0A901C301B2010E94D5328823E5
S1132270BCF110E0B801012E000C880B990B0E94F0
S1132280C7316B017C0120E030E046E154E4C50134
S1132290B4010E94E0329B01AC01C701B6010E9467
S11322A05E306B017C0120E030E040E251E46BA140
S11322B07CA18DA19EA10E94E0329B01AC01C701CB
S11322C0B6010E945E300E949431061717070CF481
S11322D041C07B0177230CF040C0E12CF12C3DC0C0
S11322E0E02EF12CB7010F2C000C880B990B0E94E7
S11322F0C7316A8B7B8B8C8B9D8B20E030E046E171
S113230054E4C501B4010E94E0329B01AC016A8926
S11323107B898C899D890E945E304B015C0120E0A1
S113232030E040E251E46FA178A589A59AA50E9406
S1132330E0329B01AC01C501B4010E945E300E94F1
S11323409431E616F70644F08B01772334F400E069
S113235010E003C0780101C08701A30192016BA1C1
S11323607CA18DA19EA10E945F306BA37CA38DA351
S11323709EA3A30192016FA178A589A59AA50E94A5
S11323805E306FA378A789A79AA7B6E0BD8784E0DB
S11323908C87A1E0AF8370C020E030E0A901C301C5
S11323A0B2010E94D5328823A4F12EEA37E441E633
S11323B05EE3C501B4010E94E0322AE939E949E942
S11323C05EE30E945F304B015C0120E030E046E9AF
S11323D052EC0E94E0320E9494317B01B5E0BC874C
S11323E020E030E046E952E4C501B4010E94E03245
S11323F00E9494318B0186E08D87A4E0AF831BA6F5
S11324001FA218A619A61AA61BA21CA21DA21EA2D0
S113241033C02EEA37E441E65EE3C501B4010E940D
S1132420E0322AE939E949E95EE30E945F304B0171
S11324305C0120E030E046E952E40E94E0320E9470
S113244094317B01B4E0BC8720E030E046E952ECF3
S1132450C501B4010E94E0320E9494318B0185E0F1
S11324608D87A3E0AF831BA61FA218A619A61AA6E0
S11324701BA21CA21DA21EA29E01235F3F4FAE0100
S1132480445F5F4FB801C70157D41A8E0AC0BA8D92
S1132490B11104C00E940E2181E08A8F39D43DD449
S11324A01F8220E040E050E0BE01695F7F4F8091D1
S11324B0F7199091F8190E94331B42CDCF93DF9303
S11324C0CDB7DEB7E1970FB6F894DEBF0FBECDBF30
S11324D019821A821B821C820E942D299E838D835D
S11324E01DA61EA61FA618AA19A21AA21BA21CA2E8
S11324F01D8E1E8E1F8E18A21D8A1E8A1F8A188E7C
S1132500198A1A8A1B8A1C8A612C712C1A8E198EBC
S1132510412C312C212C512C68E270E0CE0105961F
S11325200E94E0238091F219882309F4F0C120E08D
S11325304FE050E060E070E080915F1B9091601B81
S11325400E949F1E8091E5199091E6199EA38DA388
S11325508091E7199091E81998A78FA360E070E043
S113256080915F1B9091601B0E94031D6DA17EA151
S1132570898D9A8D681B790B072E000C880B990B9B
S11325800E94C73128EF33E543E25FE30E94E03263
S11325904B015C016FA178A566197709072E000C21
S11325A0880B990B0E94C73128EF33E543E25FE3C0
S11325B00E94E0326B017C019B01AC01C501B401B6
S11325C00E945F3020E030E040E05FE30E94E032B0
S11325D0698F7A8F8B8F9C8FA5019401C701B601F7
S11325E00E945E3020E030E043E153E40E942C314D
S11325F04B015C0133D92D8D3E8D4F8D58A10E9426
S11326005E306B017C019F7720E030E040E251E4D2
S11326100E94253188236CF091E099AB1AE909E90D
S11326200F2EF9E57F2EF02D0F2EFFE36F2EF02DE8
S113263005C019AA142D032D722C652C212F302FBF
S1132640472D562D60E070E080E89FE30E945E30E5
S1132650A50194010E94E0324B015C0124ED32E0BB
S113266047E35AE3C701B6010E94E032212F302F1D
S1132670472D562D0E94E032A50194010E945F303F
S113268069A77AA78BA79CA7C980DA80EB80FC8016
S113269020E030E040E05FE30E94E032A7019601D1
S11326A00E945F304B015C010E9429319B01AC0107
S11326B0698D7A8D8B8D9C8D0E94E0329B01AC01DB
S11326C069897A898B899C890E945F30698B7A8BAE
S11326D08B8B9C8BC501B4010E9443339B01AC01DD
S11326E0698D7A8D8B8D9C8D0E94E0329B01AC01AB
S11326F06D897E898F89988D0E945F306D8B7E8B6A
S11327008F8B988FA701960169A57AA58BA59CA5A7
S11327100E945F3069837A838B839C832FEE3CED28
S11327204BE25BE36DA57EA58FA598A90E945F305F
S11327304B015C01AE01455F5F4FBE01635F7F4F9C
S1132740CE010F960E9482076F857889655F7F4F5F
S1132750788B6F870D851E850E5411091E870D8792
S1132760072E000C880B990B0E94C7316B017C016A
S1132770B801110F880B990B0E94C731A70196016C
S11327800E94D23029A13AA14BA15CA10E945E30E3
S113279029813A814B815C810E945E306F83788706
S11327A089879A87CE0107960E941A088F81988597
S11327B0A985BA85BC01CD019F7720EB3BEF4EE0A4
S11327C05DE30E94D532181644F481E090E069D8A4
S11327D0142D032DF22CE52C2CC089A9811122C0C3
S11327E0242D332D422D552D698D7A8D8B8D9C8D05
S11327F00E942531811116C021E230EB42EB5EE3E9
S1132800C501B4010E945F309B01AC01C501B40154
S11328100E942C31162F072FF82EE92E81E090E02C
S113282026D807C081E090E03CD8142D032DF22C6B
S1132830E52C2F81388549855A85612F702F8F2D7E
S11328409E2D0E94E0329B01AC0169817A818B81CB
S11328509C810E945F3069837A838B839C83CE0141
S113286001960E941A08212F302F4F2D5E2D60E013
S113287070E080E89FE30E945E30A50194010E940D
S1132880E0326DA77EA78FA798AB20E04FE050E021
S113289060E070E08091651B9091661B0E949F1E12
S11328A089819A81AB81BC818093ED199093EE1953
S11328B0A093EF19B093F01969897A898B899C895F
S11328C00E9494317093EC196093EB196D897E89A1
S11328D08F89988D0E9494317093EA196093E91955
S11328E060E070E08091651B9091661B0E94031D5F
S11328F060E070E080915D1B90915E1B0E94031D5F
S11329006FA078A48DA19EA19A8F898F05CE05E62C
S113291010E0C42CD32CE22CF52C0E942E0C9B012D
S1132920AC016C2D7D2D8E2D9F2D0E945F30C62E07
S1132930D72EE82EF92E0150110979F7AE01495F1F
S11329405F4FBE01655F7F4FCE010D960E948207E7
S11329506D857E85655F7F4F0B851C850E5411093F
S1132960842D932DA22DB52D89839A83AB83BC83AB
S1132970072E000C880B990B0E94C7314B015C0198
S1132980B801110F880B990B0E94C731A50194015E
S11329900E94D23069A37AA38BA39CA320E030E0E9
S11329A04AEC52E46C2D7D2D8E2D9F2D0E942C31EE
S11329B06D8F7E8F8F8F98A34D8A3E8A2F8A588E73
S11329C0498A3A8A2B8A5C8AA7CDF89480E090E001
S11329D00E946B0CFBCF0E94310C80E090E00E94BF
S11329E0370C0E947C2F54D20E9443018FE390E263
S11329F00E942B2280E00E94A3210E94E70705D1B8
S1132A000E94A70A40E061E082E059D49093FC1947
S1132A108093FB1940E066E081E051D49093FA1969
S1132A208093F91940E061E081E049D49093F8196A
S1132A308093F71940E061E082E041D49093F61965
S1132A408093F51981E08DD49093661B8093651B68
S1132A5081E087D49093621B8093611B81E081D4D1
S1132A609093601B80935F1B43E060E081E027D478
S1132A7090935E1B80935D1B43E060E081E01FD474
S1132A809093641B8093631BA12CB12CC12CD12C7B
S1132A90E12CF12C04E020E030E04CE251E060E471
S1132AA076E086E19EE00E94CC2203E020E030E064
S1132AB04CE251E069E476E082E19DE00E94CC22A0
S1132AC002E020E030E04CE251E06EE476E085E79D
S1132AD09FE00E94CC2205E020E030E04CE251E08F
S1132AE066E576E08EE592E10E94CC2201E020E0EA
S1132AF030E04CE251E06EE576E087E29EE00E9431
S1132B00CC22789480E090E00E94510C0E94082727
S1132B10C4E6D6E0F894DF93CF930E9432210F905D
S1132B200F90F8CF1F920F920FB60F9211248F932C
S1132B308091F3198F5F8093F3198F910F900FBEDB
S1132B400F901F9018951F920F920FB60F92112499
S1132B508F938091F4198F5F8093F4198F910F9064
S1132B600FBE0F901F9018951F920F920FB60F92E1
S1132B7011240BB60F922F933F934F935F936F9350
S1132B807F938F939F93AF93BF93EF93FF93649936
S1132B9009C082E090E00E94370C81E090E00E943E
S1132BA0370C18C01092F2191092F11982E090E0DB
S1132BB00E94510C81E090E00E94510C80E090E072
S1132BC00E94510C60E070E08091631B9091641B43
S1132BD00E94741E60E070E080915D1B90915E1B0A
S1132BE00E94741EFF91EF91BF91AF919F918F91BD
S1132BF07F916F915F914F913F912F910F900BBEF9
S1132C000F900FBE0F901F901895279A84B1806380
S1132C1084B9269AE1E0F1E08081806680832F9870
S1132C202E98E2E0F1E080818F79808385B18F7CFA
S1132C3085B98AB18AB98BB18C608BB96C988DB324
S1132C408DBBE9E6F0E08081806F8083EAE6F0E006
S1132C508081816080838CE18CBB8DB38C618DBB62
S1132C6084B5806884BDE0E8F0E080818062808380
S1132C7085B585BD84B5836084BDA1E8B0E08C9141
S1132C8088608C9380818160808385B5826085BDF6
S1132C908C9182608C9380818083E0EBF0E0808172
S1132CA0808380818083E0EAF0E0808180830895DE
S1132CB087BD2C9A2D9884E0FB018083089590E0D1
S1132CC090938B0080938A00E2E0F1E0808180643D
S1132CD0808380818F7D808386E0FB0180830895DB
S1132CE087BD2C982D9A85E0FB018083089590E0A0
S1132CF090938B0080938A00E2E0F1E080818F7BE7
S1132D00808380818062808385E0FB0180830895D5
S1132D108FEF87BD2C982D9808958FEF90E09093B6
S1132D208B0080938A00E2E0F1E080818F7B8083D6
S1132D3080818F7D808308950F931F93CF93DF93BA
S1132D40EB018901181619061CF4BA01B1DF07C09A
S1132D50992324F4BA018195C3DF01C0D9DF1C167D
S1132D601D0624F4B8018C2FAADF08C0DD232CF43F
S1132D70B8018C2F8195BBDF01C0CFDFDF91CF91EC
S1132D801F910F910895843019F0853051F0089502
S1132D904695FB0180819181840F911D91838083ED
S1132DA008954695FB0180819181841B910991834B
S1132DB080830895853059F0863089F44695FB0167
S1132DC080819181840F911D91838083089546951C
S1132DD0FB0180819181841B9109918380830895F3
S1132DE0EF92FF920F931F93CF93DF937C018B019C
S1132DF0CB010E946908EC01980121503109A70117
S1132E00B8010E940407882349F08091FE198F5F5E
S1132E108093FE19CE010E94730933C0862F972F29
S1132E208C01FE01E80FF91F3197F0806FEF680FF6
S1132E30CE010E94D007F81649F08091FD198F5FEA
S1132E408093FD19CE010E9473091BC088818330D1
S1132E5021F0CE010E94730914C0A8014450510905
S1132E60BE016D5F7F4FEA81F0E0EE0FFF1FEB576D
S1132E70F44E0190F081E02D89811995CE010E94D4
S1132E807309DF91CF911F910F91FF90EF900895F7
S1132E9080EF96E10C94ED2F0895823040F4E82FF2
S1132EA0F0E0EE0FFF1FEB57F44E7183608308953B
S1132EB08F929F92AF92BF92CF92DF92EF92FF9246
S1132EC00F931F93CF93DF93882E962E5A01890177
S1132ED0690184E0C80ED11CC6010E946908EC0196
S1132EE0C80106960E9469087C01209711F0892B7D
S1132EF041F4CE010E947309C7010E94730980E066
S1132F003CC0888283E089839A82A801B501CE01FE
S1132F1003960E9456385801E3E0AE0EB11CAC0E85
S1132F20BD1E63E0600FCE010E94D007F5018083CF
S1132F30B8016B5F7F4F9601AE01C7010E949E06E8
S1132F40882341F0CE010E947309C7010E947309CE
S1132F5080E013C0862F972FF701E80FF91F108226
S1132F60BC016F5F7F4FC7010E94C92FCE010E9431
S1132F707309C7010E94730981E0DF91CF911F910A
S1132F800F91FF90EF90DF90CF90BF90AF909F9004
S1132F908F90089531E1FC013083319722E2208340
S1132FA03197A3E3A083319760833197708331977E
S1132FB0108231971082319760E8608331971082D4
S1132FC03197108231971082319762E06083319794
S1132FD063E06083319764E06083319765E06083E8
S1132FE0319766E06083319767E06083319768E0EA
S1132FF06083319769E06083319760E16083319742
S11330003083319732E13083319733E13083319724
S113301034E13083319735E13083319736E13083C1
S1133020319737E13083319738E13083319739E193
S11330303083319730E23083319731E230833197F6
S11330402083319723E22083319740833197508343
S1133050319726E22083319727E22083319728E2B3
S11330602083319729E22083319720E3208331970D
S113307021E320838997089588EE93E090939A1B27
S11330808093991B90939C1B80939B1B1092990097
S113309089EF809398008BE080939100E1E7F0E062
S11330A0808182608083A091D31AB091D41ACD918B
S11330B0CDBFDD91DEBFFF91EF91DF91CF91BF9145
S11330C0AF919F918F917F916F915F914F913F91BC
S11330D02F911F910F91FF90EF90DF90CF90BF90B1
S11330E0AF909F908F907F906F905F904F903F90A4
S11330F02F901F900F900CBE0F900BBE0F900FBE21
S11331000F90089581E008950F920FB6F8940F92EE
S11331100BB60F920CB60F921F9211242F923F926E
S11331204F925F926F927F928F929F92AF92BF92D3
S1133130CF92DF92EF92FF920F931F932F933F93BF
S11331404F935F936F937F938F939F93AF93BF93AB
S1133150CF93DF93EF93FF93A091D31AB091D41A36
S11331600DB60D920EB60D920E94F829A091D31AB5
S1133170B091D41ACD91CDBFDD91DEBFFF91EF9117
S1133180DF91CF91BF91AF919F918F917F916F917B
S11331905F914F913F912F911F910F91FF90EF906D
S11331A0DF90CF90BF90AF909F908F907F906F9063
S11331B05F904F903F902F901F900F900CBE0F90F8
S11331C00BBE0F900FBE0F9008950F920FB6F89498
S11331D00F920BB60F920CB60F921F9211242F92DE
S11331E03F924F925F926F927F928F929F92AF9293
S11331F0BF92CF92DF92EF92FF920F931F932F9380
S11332003F934F935F936F937F938F939F93AF936A
S1133210BF93CF93DF93EF93FF93A091D31AB09111
S1133220D41A0DB60D920EB60D9213BE80919B1B4F
S113323090919C1B019790939C1B80939B1B892BC3
S113324041F48091991B90919A1B90939C1B8093BD
S11332509B1B0E94372981110E94F829A091D31A3F
S1133260B091D41ACD91CDBFDD91DEBFFF91EF9126
S1133270DF91CF91BF91AF919F918F917F916F918A
S11332805F914F913F912F911F910F91FF90EF907C
S1133290DF90CF90BF90AF909F908F907F906F9072
S11332A05F904F903F902F901F900F900CBE0F9007
S11332B00BBE0F900FBE0F90089587DF18950F93E4
S11332C01F93CF93DF93082F162F662309F43BC077
S11332D0869FC001112480960E946908EC01009722
S11332E021F439C0D983C88303C04F969983888356
S11332F00B8F1C8F0FB6F8940F92488159812C8D37
S113330030E06B8D629FC001639F900D1124BA0160
S1133310680F791F7B836A831A8E5D834C83821BBB
S1133320930B840F951F9F838E838FEF8D8F8E8FCA
S1133330CE0108960E94880CCE0141960E94880C0A
S11333400F900FBE08C08FE190E00E946908EC0165
S1133350892B09F0C7CFCE01DF91CF911F910F9137
S113336008959F92AF92BF92CF92DF92EF92FF9215
S11333700F931F93CF93DF9300D01F921F92CDB76B
S1133380DEB78FE190E00E9469088C01009709F490
S113339058C1FC0113821282118210821582148298
S11333A017821682128E81E0838F148E8FEF858FA1
S11333B0868F7801F8E0EF0EF11CC7010E94880C9B
S11333C0680181E1C80ED11CC6010E94880C1D82CF
S11333D01C82A12C99249394BB24BA940FB6F8941C
S11333E00F92F801928D838D9817F0F4808191816A
S11333F0892B09F01DC1828193810E94D42BF8018D
S113340013821282928D9F5F928F9189992339F052
S1133410C6010E94DB2A813021F476DE02C08111CC
S113342073DE0F900FBE0DC18C819D81892B19F421
S11334300F900FBE06C1A11005C0CE0101960E94D7
S1133440232BA92C0F900FBE0E94EC270FB6F894E3
S11334500F92F801858D8F3F09F4158EF801868D42
S11334608F3F09F4168E0F900FBEBE016C5F7F4F25
S1133470CE0101960E942E2B811196C00FB6F894AE
S11334800F92F801928D838D0F900FBE98134AC04E
S11334906C817D81C7010E94802A0FB6F8940F9237
S11334A0F801868D1816ACF48189811105C011C00C
S11334B0F8018189882369F0C6010E94DB2A811101
S11334C00E94692BF801868D8150868F868D18168F
S11334D07CF3F801B68E0F900FBE0FB6F8940F92DE
S11334E0858D1816ACF48085811105C011C0F801D2
S11334F08085882369F0C7010E94DB2A81110E941C
S1133500692BF801858D8150858F858D18167CF384
S1133510F801B58E0F900FBE0E94F22781115ECF85
S1133520F3DD5CCF0FB6F8940F92F801868D181670
S1133530ACF48189811105C011C0F8018189882307
S113354069F0C6010E94DB2A81110E94692BF801EF
S1133550868D8150868F868D18167CF3F801B68E81
S11335600F900FBE0FB6F8940F92858D1816ACF419
S11335708085811105C011C0F8018085882369F018
S1133580C7010E94DB2A81110E94692BF801858DF5
S11335908150858F858D18167CF3F801B58E0F90B8
S11335A00FBE0E94F2271ACF0FB6F8940F92F801BB
S11335B0868D1816ACF48189811105C011C0F801FB
S11335C08189882369F0C6010E94DB2A81110E9447
S11335D0692BF801868D8150868F868D18167CF3B1
S11335E08FEFF801868F0F900FBE0FB6F8940F92ED
S11335F0858D1816ACF48085811105C011C0F801C1
S11336008085882369F0C7010E94DB2A81110E940A
S1133610692BF801858D8150858F858D18167CF373
S11336208FEFF801858F0F900FBE0E94F22709C01B
S1133630F801828D8F5F828F8189882309F4F1CE0E
S1133640E7CEC8010F900F900F900F900F90DF916D
S1133650CF911F910F91FF90EF90DF90CF90BF908B
S1133660AF909F9008956F927F928F929F92AF92A6
S1133670BF92CF92DF92EF92FF920F931F93CF935B
S1133680DF9300D01F921F92CDB7DEB78C015B0190
S11336905D834C83722E812C6624639499249A94BE
S11336A07C0188E0E80EF11C6801E1E1CE0ED11C3A
S11336B00FB6F8940F92F801928D838D981720F02D
S11336C0F2E07F126EC07DC1F801448D411115C036
S11336D0F80180819181892B09F079C182819381DC
S11336E00E94D42BF80113821282928D9F5F928FD5
S11336F09189992309F44FC046C071101AC050E053
S1133700B501F801848195810E945638F801248D11
S113371084819581820F911D9583848322813381D5
S11337208217930708F453C1808191819583848320
S11337304EC150E0B501F801868197810E94563848
S1133740F801848D90E091958195910926813781C6
S1133750280F391F37832683408151812417350769
S113376030F422813381820F931F97838683F2E0A2
S11337707F122DC1F801828D882309F428C1828D1E
S11337808150828F24C1C80141960E94DB2A813076
S113379021F4BADC02C08111B7DC0F900FBE81E0C6
S11337A01EC18C819D81892B21F40F900FBE80E076
S11337B016C1811005C0CE0101960E94232B862CD0
S11337C00F900FBE0E94EC270FB6F8940F92F801E9
S11337D0858D8F3F09F4158EF801868D8F3F09F48E
S11337E0168E0F900FBEBE016C5F7F4FCE01019607
S11337F00E942E2B811196C00FB6F8940F92F801F7
S1133800928D838D0F900FBE98134AC06C817D8179
S1133810C7010E94802A0FB6F8940F92F801868D92
S11338201816ACF48189811105C011C0F801818991
S1133830882369F0C6010E94DB2A81110E94692B4A
S1133840F801868D8150868F868D18167CF3F801D9
S1133850968E0F900FBE0FB6F8940F92858D1816A2
S1133860ACF48085811105C011C0F80180858823DE
S113387069F0C7010E94DB2A81110E94692BF801BB
S1133880858D8150858F858D18167CF3F801958E72
S11338900F900FBE0E94F22781110ACF35DC08CFAA
S11338A00FB6F8940F92F801868D1816ACF481893E
S11338B0811105C011C0F8018189882369F0C6010E
S11338C00E94DB2A81110E94692BF801868D8150A8
S11338D0868F868D18167CF3F801968E0F900FBE96
S11338E00FB6F8940F92858D1816ACF4808581116B
S11338F005C011C0F8018085882369F0C7010E94C2
S1133900DB2A81110E94692BF801858D8150858FF6
S1133910858D18167CF3F801958E0F900FBE0E94CA
S1133920F227C6CE0FB6F8940F92F801868D1816BA
S1133930D4F48189811106C016C0F80181898111EE
S113394005C011C07801F1E1EF0EF11CC7010E941E
S1133950DB2A81110E94692BF801868D8150868FA4
S1133960868D181654F38FEFF801868F0F900FBED3
S11339700FB6F8940F92858D1816D4F480858111B2
S113398006C016C0F8018085811105C011C07801F8
S1133990F8E0EF0EF11CC7010E94DB2A81110E949E
S11339A0692BF801858D8150858F858D181654F308
S11339B08FEFF801858F0F900FBE0E94F22780E0F1
S11339C00EC0F801448D442309F482CEB2CEF8012E
S11339D0828D8F5F828F81898111D5CEDECE0F904B
S11339E00F900F900F900F90DF91CF911F910F9137
S11339F0FF90EF90DF90CF90BF90AF909F908F900B
S1133A007F906F9008959F92AF92BF92CF92DF9272
S1133A10EF92FF920F931F93CF93DF9300D01F92E7
S1133A201F92CDB7DEB78C017D836C83A12C9924C2
S1133A309394BB24BA947C0188E0E80EF11C6801DD
S1133A40E1E1CE0ED11C0FB6F8940F92F801928DDD
S1133A50838D981700F580819181892B09F02BC102
S1133A60828193810E94D42BF80113821282928D59
S1133A709F5F928F9189992341F0C80141960E94DA
S1133A80DB2A813021F440DB02C081113DDB0F9041
S1133A900FBE81E018C18C819D81892B21F40F9088
S1133AA00FBE80E010C1A11005C0CE0101960E9496
S1133AB0232BA92C0F900FBE0E94EC270FB6F8946D
S1133AC00F92F801858D8F3F09F4158EF801868DCC
S1133AD08F3F09F4168E0F900FBEBE016C5F7F4FAF
S1133AE0CE0101960E942E2B811196C00FB6F89438
S1133AF00F92F801928D838D0F900FBE98134AC0D8
S1133B006C817D81C7010E94802A0FB6F8940F92C0
S1133B10F801868D1816ACF48189811105C011C095
S1133B20F8018189882369F0C6010E94DB2A81118A
S1133B300E94692BF801868D8150868F868D181618
S1133B407CF3F801B68E0F900FBE0FB6F8940F9267
S1133B50858D1816ACF48085811105C011C0F8015B
S1133B608085882369F0C7010E94DB2A81110E94A5
S1133B70692BF801858D8150858F858D18167CF30E
S1133B80F801B58E0F900FBE0E94F22781115BCF12
S1133B90BBDA59CF0FB6F8940F92F801868D181638
S1133BA0ACF48189811105C011C0F8018189882391
S1133BB069F0C6010E94DB2A81110E94692BF80179
S1133BC0868D8150868F868D18167CF3F801B68E0B
S1133BD00F900FBE0FB6F8940F92858D1816ACF4A3
S1133BE08085811105C011C0F8018085882369F0A2
S1133BF0C7010E94DB2A81110E94692BF801858D7F
S1133C008150858F858D18167CF3F801B58E0F9041
S1133C100FBE0E94F22717CF0FB6F8940F92F80147
S1133C20868D1816D4F48189811106C016C0F80156
S1133C308189811105C011C07801F1E1EF0EF11CF9
S1133C40C7010E94DB2A81110E94692BF801868D2D
S1133C508150868F868D181654F38FEFF801868F66
S1133C600F900FBE0FB6F8940F92858D1816D4F4EA
S1133C708085811106C016C0F8018085811105C0B8
S1133C8011C07801F8E0EF0EF11CC7010E94DB2A95
S1133C9081110E94692BF801858D8150858F858D56
S1133CA0181654F38FEFF801858F0F900FBE0E9402
S1133CB0F22780E008C0F801828D8F5F828F8189AE
S1133CC08111DBCEE4CE0F900F900F900F900F90E8
S1133CD0DF91CF911F910F91FF90EF90DF90CF90E4
S1133CE0BF90AF909F900895CF93DF93FC01928D86
S1133CF0838D9817D0F4828D8F5F828F868D8F3F4E
S1133D0079F48189882399F0EB01CF0141960E94CF
S1133D10DB2A882371F0209771F081E088830CC03E
S1133D20868D8F5F868F81E007C080E005C081E0CB
S1133D3003C081E001C081E0DF91CF9108956F92CB
S1133D407F928F929F92AF92BF92CF92DF92EF9227
S1133D50FF920F931F93CF93DF9300D01F921F9274
S1133D60CDB7DEB78C015B015D834C83622E812C61
S1133D707724739499249A946C0188E0C80ED11C1A
S1133D807801E1E1EE0EF11C0FB6F8940F92F80100
S1133D90828D882309F445C0E680F780448D44234E
S1133DA0A9F050E0C701840F951F97838683228171
S1133DB033818217930720F08081918197838683D2
S1133DC0F80166817781C5010E945638611019C0D7
S1133DD0F801828D8150828F80819181892B29F411
S1133DE00E94142CF80193838283F8018085882330
S1133DF0A1F0C80108960E94DB2A813071F484D9AD
S1133E000CC0F801F782E6828189882331F0C80169
S1133E1041960E94DB2A811177D90F900FBE81E071
S1133E201AC18C819D81892B21F40F900FBE80E0F3
S1133E3012C1811005C0CE0101960E94232B872C4C
S1133E400F900FBE0E94EC270FB6F8940F92F80162
S1133E50858D8F3F09F4158EF801868D8F3F09F407
S1133E60168E0F900FBEBE016C5F7F4FCE01019680
S1133E700E942E2B8111A2C00FB6F8940F92F80164
S1133E80828D0F900FBE811157C080819181892B43
S1133E9049F40FB6F8940F92828193810E94722B99
S1133EA00F900FBE6C817D81C7010E94802A0FB6DE
S1133EB0F8940F92F801868D1816ACF4818981115B
S1133EC005C011C0F8018189882369F0C7010E94E7
S1133ED0DB2A81110E94692BF801868D8150868F1F
S1133EE0868D18167CF3F801968E0F900FBE0FB6D0
S1133EF0F8940F92858D1816ACF48085811105C055
S1133F0011C0F8018085882369F0C6010E94DB2A6C
S1133F1081110E94692BF801858D8150858F858DD3
S1133F2018167CF3F801958E0F900FBE0E94F227AD
S1133F3081112ACFE9D828CF0FB6F8940F92F8014F
S1133F40868D1816ACF48189811105C011C0F80161
S1133F508189882369F0C7010E94DB2A81110E94AC
S1133F60692BF801868D8150868F868D18167CF317
S1133F70F801968E0F900FBE0FB6F8940F92858DB0
S1133F801816ACF48085811105C011C0F801808534
S1133F90882369F0C6010E94DB2A81110E94692BE3
S1133FA0F801858D8150858F858D18167CF3F80175
S1133FB0958E0F900FBE0E94F227E6CE0FB6F894AE
S1133FC00F92F801868D1816D4F48189811106C0E8
S1133FD016C0F8018189811105C011C07801F1E191
S1133FE0EF0EF11CC7010E94DB2A81110E94692B8C
S1133FF0F801868D8150868F868D181654F38FEFC5
S1134000F801868F0F900FBE0FB6F8940F92858D2E
S11340101816D4F48085811106C016C0F801808575
S1134020811105C011C07801F8E0EF0EF11CC70141
S11340300E94DB2A81110E94692BF801858D815031
S1134040858F858D181654F38FEFF801858F0F90A7
S11340500FBEC8D780E00F900F900F900F900F9075
S1134060DF91CF911F910F91FF90EF90DF90CF9050
S1134070BF90AF909F908F907F906F900895AB0109
S1134080009711F41092F219BC0187E69BE10E949B
S1134090563860E070E08091631B9091641BB3CC50
S11340A008958091FF19811104C00E9460018093DA
S11340B09D1B089528EE33E04FE350E260E08091C9
S11340C09D1B0E947C018093FF190895CF93DF9379
S11340D0CDB7DEB7EC970FB6F894DEBF0FBECDBFF9
S11340E08091FF19882309F44EC0198287E08A83DE
S11340F088E0EEE6F6E0DE01139601900D928A95D3
S1134100E1F724EB30E03B872A8785EF90E09D8739
S11341108C8788E3888B8E871F8685E1898B8A8BC1
S11341208B8B8C8B1E8A1D8A8AE590E0988F8F8BEF
S11341303A8F298F8EE091E09C8F8B8F88EC90E0F2
S11341409E8F8D8F8EE1FE013196DE015F96019088
S11341500D928A95E1F780910006882359F04EE18B
S113416050E0BE01615E7F4F80919D1B0E9433022F
S113417081E009C04EE150E0BE01615E7F4F809155
S11341809D1B76D181E0EC960FB6F894DEBF0FBE8E
S1134190CDBFDF91CF910895AF92CF92EF920F935D
S11341A0CF93DF93CDB7DEB72D970FB6F894DEBF6C
S11341B00FBECDBFE091FF19EE2319F1E1E0E983D1
S11341C09B838A837D836C835F834E8339872887AF
S11341D00A87EB86CC86AD8680910106882351F050
S11341E04DE050E0BE016F5F7F4F80919D1B0E94A8
S11341F0330207C04DE050E0BE016F5F7F4F80E0A7
S113420037D12D960FB6F894DEBF0FBECDBFDF9128
S1134210CF910F91EF90CF90AF900895CF93DF930C
S11342201F92CDB7DEB78091FF198823B9F083E0E0
S1134230898380910306882351F041E050E0BE0158
S11342406F5F7F4F80919D1B0E94330207C041E046
S113425050E0BE016F5F7F4F80E00AD10F90DF9185
S1134260CF910895CF93DF93CDB7DEB7C456D1096C
S11342700FB6F894DEBF0FBECDBFAE0146595F4FF7
S1134280FA0161917191AF018AE08983CE010296AE
S11342900E94A6388823C9F020910A06222361F0DF
S11342A09927AC014F5F5F4FBE016F5F7F4F8091D5
S11342B09D1B0E94330209C09927AC014F5F5F4FD9
S11342C0BE016F5F7F4F80E0D3D0CC59DF4F0FB674
S11342D0F894DEBF0FBECDBFDF91CF910895CF9389
S11342E0DF931F92CDB7DEB78091FF198823B9F011
S11342F089E0898380910906882351F041E050E0E8
S1134300BE016F5F7F4F80919D1B0E94330207C0E7
S113431041E050E0BE016F5F7F4F80E0A9D00F9075
S1134320DF91CF9108958A3508F08AE5E82FF0E00F
S1134330EE0FFF1FEA58F94F808191819093AB00F3
S11343408093AA000895A0EAB0E09C9190629C93A7
S1134350E1EAF0E09081986190839C9192609C9353
S11343609081926090832FE33CE93093A7002093DF
S1134370A600E1E0F1E0908190619083D4CF0895AC
S1134380EF92FF920F931F93CF93DF939091011AB3
S11343909F3F11F0981358C0FB018081811105C023
S11343A01092031A1092021A0CC09091041A8917E1
S11343B041F0E0E0FAE11482138212828FEF8183EC
S11343C043C08091021A9091031A0297840F951F9B
S11343D08536910540F0E0E0FAE1138212821482FE
S11343E08FEF818331C08A01EB010F2EF0E0EF2EB5
S11343F0FAE1FF2EF02DF70184818F5F848382819F
S11344009381425051096E5F7F4F8B5F954E0E949E
S11344105638F7014281538142505109BA01600F65
S1134420711F738362839881898198130DC0E09111
S11344309E1BF0919F1B85E09AE11995F701148268
S1134440138212828FEF8183DF91CF911F910F919D
S1134450FF90EF90089590939F1B80939E1B60ECB8
S113446071E280E00E944D178FEF8093011A089546
S11344705F926F927F928F929F92AF92BF92CF92F0
S1134480DF92EF92FF920F931F93CF93DF93582EF7
S11344905B018A018CE290E00E9469087C0198012A
S11344A036952795ADE0B3EC0E94503792958295EE
S11344B08F7089279F7089274AE2489F9001499FFE
S11344C0300D112441E00217130709F440E098016C
S11344D036952795ADE0B3EC0E94503792958295BE
S11344E08F7089279F708927840F0115110559F151
S11344F090E0C12CD12C66246A94680E470182E0B6
S1134500880E911CE8010B32110510F0CAE2D0E0CC
S113451077247394790EF70190836182B5016C0D51
S11345207D1DAE01C4010E9456389E012E5F3F4F8F
S1134530A70160E0852D0E945817CC0EDD1E0C1BD0
S11345401D0B972DF9F6C7010E94730981E0DF91D5
S1134550CF911F910F91FF90EF90DF90CF90BF907C
S1134560AF909F908F907F906F905F90089584B1EB
S1134570876084B923988CB581608CBD8CB58C65BB
S11345808CBD8CB58F7D8CBD08958EBD00000DB49F
S113459007FEFDCF8EB508954F925F926F927F9282
S11345A08F929F92AF92BF92CF92DF92EF92FF923F
S11345B00F931F93CF93DF933C015B014A012901C1
S11345C0C114D10439F4CA010E9469086C01892B11
S11345D009F4E4C088E290E00E946908EC01892BA8
S11345E071F0D88ECF8A81E0881A9108C80CD91C42
S11345F0D5018C91898F8C91811105C018C0C60199
S11346000E947309CBC0AE01465E5F4FF50131963F
S1134610B8E0AB0EB11CCF012191DA012D93AD01AD
S1134620DC018C91882319F0AE16BF06A1F718A2FD
S1134630102F063008F015E01E8B19A31AA25E0194
S1134640B2E0AB0EB11CC5010E94960CCE010C96D3
S11346500E94960CD987C88786E090E0811B910957
S11346609D878C87DB8BCA8B1BA21CA21DA21EA25A
S11346701FA2A201B301C6010E94CA1799838883AD
S1134680E114F10419F0F701D183C0830FB6F89453
S11346900F928091741A8F5F8093741A8091D31A49
S11346A09091D41A892BD9F5D093D41AC093D31AE4
S11346B08091741A813009F041C00F2EFDE9EF2E6C
S11346C0FAE1FF2EF02D0F2EF3EDCF2EFAE1DF2EBF
S11346D0F02DC7010E94880CF9E0EF0EF11CEC14D8
S11346E0FD04B9F784E99AE10E94880C8BE89AE109
S11346F00E94880C8EE79AE10E94880C85E79AE173
S11347000E94880C84E99AE190938A1A8093891A0A
S11347108BE89AE19093881A8093871A0FC080914E
S1134720701A81110BC0E091D31AF091D41A8689C2
S1134730081720F0D093D41AC093D31A80916C1A1E
S11347408F5F80936C1A8E899091711A981710F468
S11347508093711A90E09C01220F331F220F331FA4
S1134760220F331F820F931FB5018356954E0E946B
S11347709A0C0F900FBE8091701A882359F0E09123
S1134780D31AF091D41A8689801730F40E948418C1
S113479081E005C081E003C081E001C08FEFDF91BB
S11347A0CF911F910F91FF90EF90DF90CF90BF902A
S11347B0AF909F908F907F906F905F904F900895EF
S11347C09F92AF92BF92CF92DF92EF92FF920F939C
S11347D01F93CF93DF93FC019091691A9F5F90938D
S11347E0691A8091721A9091731A20813181E901BA
S11347F0C60FD71F8217930758F4C217D30708F0C0
S11348006EC1D183C0838C179D0708F042C009C0D4
S1134810C217D30708F460C18C179D0708F45CC164
S11348205EC18091D31A9091D41A02960E94EC0C26
S1134830E091D31AF091D41AD383C2838091721A6F
S11348409091731AC817D90768F46091D31A7091BC
S1134850D41A8091871A9091881A6E5F7F4F0E94B4
S1134860BB0C17C06091D31A7091D41A8091891A25
S113487090918A1A6E5F7F4F0E94BB0C80916A1AD6
S113488090916B1AC817D90720F4D0936B1AC09370
S11348906A1A0FB6F8940F928091691A8150809326
S11348A0691A8091691A81110DC18091741A81115C
S11348B033C00BC1D7011596ED91FC911697C681B3
S11348C0D781CE010C960E94EC0C8E010E5F1F4F17
S11348D0C8010E94EC0C8E899091711A981710F4FB
S11348E08093711A90E09C01220F331F220F331F13
S11348F0220F331F820F931FB8018356954E0E94D7
S11349009A0CE091D31AF091D41A9E89868998174B
S113491058F0D0926E1A08C00F2EFEE7EF2EFAE17F
S1134920FF2EF02DDD24D394F70180818111C2CFB5
S113493080916F1A882309F4BDC080916F1A88236F
S113494009F4B8C0912CBB24B394CC24CA94DC2CB5
S11349508091691A811198C08091721A9091731A8A
S113496001969093731A8093721AE090721AF090E1
S1134970731AE114F10489F58091891A90918A1AC5
S11349802091871A3091881A30938A1A2093891AB1
S11349909093881A8093871A80916D1A8F5F809301
S11349A06D1AE091891AF0918A1A8081811105C0EB
S11349B0D0926B1AC0926A1A10C0E091891AF091D1
S11349C08A1A0580F681E02D0680F781E02D828128
S11349D0938190936B1A80936A1A80916A1A9091CA
S11349E06B1AE816F90608F47DC0A92CE091891A1F
S11349F0F0918A1A8081811105C0D0926B1AC092FD
S1134A006A1A48C0E091891AF0918A1A0580F681E1
S1134A10E02DC681D7818A819B81E816F90628F4A6
S1134A2090936B1A80936A1A35C08E010E5F1F4FE4
S1134A30C8010E94EC0C8C899D89892B21F0CE0140
S1134A400C960E94EC0C8E899091711A981710F4B0
S1134A508093711A90E09C01220F331F220F331FA1
S1134A60220F331F820F931FB8018356954E0E9465
S1134A709A0CE091D31AF091D41A9E8986899817DA
S1134A8008F4B4CFAB2CB2CF80916F1A8F5F8093B0
S1134A906F1A28C080916E1A811101C0A110B092C2
S1134AA06E1A80916F1A815080936F1A80916F1AD9
S1134AB081114ECF80916E1A813031F40E94841896
S1134AC081E003C080E001C080E00F900FBE81113F
S1134AD00EC00E9484180BC0D183C083A2CED183A0
S1134AE0C083D7CE80916E1A8111D9CFDACFDF91EE
S1134AF0CF911F910F91FF90EF90DF90CF90BF90D7
S1134B00AF909F9008959F92AF92BF92CF92DF9201
S1134B10EF92FF920F931F93CF93DF93009709F4C3
S1134B2063C12091691A2F5F2093691AC091721A88
S1134B30D091731AC80FD91F8091D31A9091D41AA7
S1134B4002960E94EC0CE091D31AF091D41AD3830C
S1134B50C2838091721A9091731AC817D90768F4A6
S1134B606091D31A7091D41A8091871A9091881AFF
S1134B706E5F7F4F0E94BB0C17C06091D31A709177
S1134B80D41A8091891A90918A1A6E5F7F4F0E947D
S1134B90BB0C80916A1A90916B1AC817D90720F43C
S1134BA0D0936B1AC0936A1A0FB6F8940F9280913F
S1134BB0691A81508093691A8091691A81110DC113
S1134BC08091741A811133C00BC1D7011596ED91F0
S1134BD0FC911697C681D781CE010C960E94EC0CED
S1134BE08E010E5F1F4FC8010E94EC0C8E899091BC
S1134BF0711A981710F48093711A90E09C01220F97
S1134C00331F220F331F220F331F820F931FB8014C
S1134C108356954E0E949A0CE091D31AF091D41ABF
S1134C209E898689981758F0D0926E1A08C00F2E64
S1134C30FEE7EF2EFAE1FF2EF02DDD24D394F701E9
S1134C4080818111C2CF80916F1A882309F4BDC07D
S1134C5080916F1A882309F4B8C0912CBB24B394B3
S1134C60CC24CA94DC2C8091691A811198C080915B
S1134C70721A9091731A01969093731A8093721A10
S1134C80E090721AF090731AE114F10489F580919E
S1134C90891A90918A1A2091871A3091881A309330
S1134CA08A1A2093891A9093881A8093871A80917C
S1134CB06D1A8F5F80936D1AE091891AF0918A1AA8
S1134CC08081811105C0D0926B1AC0926A1A10C0FB
S1134CD0E091891AF0918A1A0580F681E02D068008
S1134CE0F781E02D8281938190936B1A80936A1AE5
S1134CF080916A1A90916B1AE816F90608F477C045
S1134D00A92CE091891AF0918A1A8081811105C039
S1134D10D0926B1AC0926A1A48C0E091891AF09135
S1134D208A1A0580F681E02DC681D7818A819B810C
S1134D30E816F90628F490936B1A80936A1A35C022
S1134D408E010E5F1F4FC8010E94EC0C8C899D8957
S1134D50892B21F0CE010C960E94EC0C8E89909147
S1134D60711A981710F48093711A90E09C01220F25
S1134D70331F220F331F220F331F820F931FB801DB
S1134D808356954E0E949A0CE091D31AF091D41A4E
S1134D909E898689981708F4B4CFAB2CB2CF809142
S1134DA06F1A8F5F80936F1A22C080916E1A8111DF
S1134DB001C0A110B0926E1A80916F1A8150809335
S1134DC06F1A80916F1A81114ECF80916E1A8130C3
S1134DD031F40E94841881E003C080E001C080E0C7
S1134DE00F900FBE811108C00E94841805C08091E5
S1134DF06E1A8111DFCFE0CFDF91CF911F910F9118
S1134E00FF90EF90DF90CF90BF90AF909F90089568
S1134E10CF92DF92EF92FF920F931F93CF93DF9382
S1134E2085E590E00E9469088C01892B09F4CBC0C8
S1134E3088E290E00E946908EC01892B69F0188FE0
S1134E400F8B0C5A1F4F89E4898FEDE2F7E0DE01E6
S1134E505A9624E337E004C0C8010E947309B3C022
S1134E6091919D93992319F02E173F07C9F718A222
S1134E701E8A19A21AA27E0182E0E80EF11CC70163
S1134E800E94960CCE010C960E94960CD987C88776
S1134E9086E090E09D878C87DB8BCA8B1BA21CA2CB
S1134EA01DA21EA21FA240E050E069E171E0C8010A
S1134EB00E94CA17998388830FB6F8940F92809141
S1134EC0741A8F5F8093741A8091D31A9091D41AB4
S1134ED0892BA9F5D093D41AC093D31A8091741A4C
S1134EE08130E1F50DE91AE10F2EF3EDCF2EFAE151
S1134EF0DF2EF02DC8010E94880C075F1F4F0C1590
S1134F001D05C1F784E99AE10E94880C8BE89AE1B7
S1134F100E94880C8EE79AE10E94880C85E79AE14A
S1134F200E94880C84E99AE190938A1A8093891AE2
S1134F308BE89AE19093881A8093871A0FC0809126
S1134F40701A81110BC0E091D31AF091D41A86899A
S1134F50811104C0D093D41AC093D31A80916C1ACF
S1134F608F5F80936C1A8E899091711A981710F440
S1134F708093711A90E09C01220F331F220F331F7C
S1134F80220F331F820F931FB7018356954E0E9441
S1134F909A0C0F900FBE8091701A882321F0809193
S1134FA0D31A9091D41AF8948FEF9FEF90936B1AC1
S1134FB080936A1A81E08093701A1092731A109287
S1134FC0721A0E943C18DF91CF911F910F91FF90AC
S1134FD0EF90DF90CF9008958091691A8F5F80934E
S1134FE0691A08959F92AF92BF92CF92DF92EF9287
S1134FF0FF920F931F93CF93DF930FB6F8940F9202
S11350008091691A81508093691A8091691A81117B
S11350100DC18091741A811133C00BC1D70115964B
S1135020ED91FC911697C681D781CE010C960E9412
S1135030EC0C8E010E5F1F4FC8010E94EC0C8E8990
S11350409091711A981710F48093711A90E09C0152
S1135050220F331F220F331F220F331F820F931F80
S1135060B8018356954E0E949A0CE091D31AF091A0
S1135070D41A9E898689981758F0D0926E1A08C05F
S11350800F2EFEE7EF2EFAE1FF2EF02DDD24D39450
S1135090F70180818111C2CF80916F1A882309F4AE
S11350A0BDC080916F1A882309F4B8C0912CBB2429
S11350B0B394CC24CA94DC2C8091691A811198C0D1
S11350C08091721A9091731A01969093731A809337
S11350D0721AE090721AF090731AE114F10489F5CF
S11350E08091891A90918A1A2091871A3091881A8E
S11350F030938A1A2093891A9093881A8093871A76
S113510080916D1A8F5F80936D1AE091891AF091E6
S11351108A1A8081811105C0D0926B1AC0926A1AD2
S113512010C0E091891AF0918A1A0580F681E02D69
S11351300680F781E02D8281938190936B1A80938E
S11351406A1A80916A1A90916B1AE816F90608F4A3
S113515073C0A92CE091891AF0918A1A8081811177
S113516005C0D0926B1AC0926A1A48C0E091891A9D
S1135170F0918A1A0580F681E02DC681D7818A8153
S11351809B81E816F90628F490936B1A80936A1AA7
S113519035C08E010E5F1F4FC8010E94EC0C8C8934
S11351A09D89892B21F0CE010C960E94EC0C8E89EE
S11351B09091711A981710F48093711A90E09C01E1
S11351C0220F331F220F331F220F331F820F931F0F
S11351D0B8018356954E0E949A0CE091D31AF0912F
S11351E0D41A9E898689981708F4B4CFAB2CB2CF11
S11351F080916F1A8F5F80936F1A1EC080916E1A10
S1135200811101C0A110B0926E1A80916F1A815061
S113521080936F1A80916F1A81114ECF80916E1A0C
S1135220813031F40E94841881E003C080E001C021
S113523080E00F900FBE05C080916E1A8111E3CFFC
S1135240E4CFDF91CF911F910F91FF90EF90DF900A
S1135250CF90BF90AF909F9008950FB6F8940F929F
S11352608091721A9091731A0F900FBE0895CF9285
S1135270DF92EF92FF920F931F93CF93DF9380916E
S1135280691A81119FC08091721A9091731A0196C4
S11352909093731A8093721AE090721AF090731AB2
S11352A0E114F10499F58091891A90918A1A209158
S11352B0871A3091881A30938A1A2093891A909306
S11352C0881A8093871A80916D1A8F5F80936D1A64
S11352D0E091891AF0918A1A8081811107C08FEFB9
S11352E09FEF90936B1A80936A1A10C0E091891A09
S11352F0F0918A1A0580F681E02D0680F781E02D71
S11353008281938190936B1A80936A1A80916A1AAE
S113531090916B1AE816F90610F4D12C59C0D12CCF
S1135320CC24C394E091891AF0918A1A8081811166
S113533007C08FEF9FEF90936B1A80936A1A48C04F
S1135340E091891AF0918A1A0580F681E02DC681D0
S1135350D7818A819B81E816F90628F490936B1A09
S113536080936A1A35C08E010E5F1F4FC8010E94D8
S1135370EC0C8C899D89892B21F0CE010C960E941E
S1135380EC0C8E899091711A981710F48093711A0D
S113539090E09C01220F331F220F331F220F331F73
S11353A0820F931FB8018356954E0E949A0CE09188
S11353B0D31AF091D41A9E898689981708F4B2CF2B
S11353C0DC2CB0CF80916F1A8F5F80936F1AD12C31
S11353D080916E1A882311F0DD24D3948D2DDF91F2
S11353E0CF911F910F91FF90EF90DF90CF90089590
S11353F08091691A882321F081E080936E1A0895C0
S113540010926E1AA091D31AB091D41AE091D31AC3
S1135410F091D41A2D913C918789908D821793072E
S113542060F06091D31A7091D41A8091D31A90913C
S1135430D41A675E7F4F0E94E5148091711A90E040
S1135440FC01EE0FFF1FEE0FFF1FEE0FFF1F8E0F6D
S11354509F1FFC01E356F54E8081811117C0809196
S1135460711A81508093711A8091711A90E0FC0135
S1135470EE0FFF1FEE0FFF1FEE0FFF1F8E0F9F1F7C
S1135480FC01E356F54E8081882349F38091711A1B
S113549090E09C01220F331F220F331F220F331F72
S11354A0280F391FD901A356B54E1196ED91FC91E1
S11354B012970280F381E02D1296FC93EE931197DC
S11354C02056354EE217F30729F422813381FD017A
S11354D032832183FC01EE0FFF1FEE0FFF1FEE0F3F
S11354E0FF1F8E0F9F1FFC01E356F54E0180F281D2
S11354F0E02D868197819093D41A8093D31A0895CE
S1135500CF93DF93EB016091D31A7091D41A645F47
S11355107F4F0E94BB0C8091D31A9091D41A0296AB
S11355200E94EC0CCF3F8FEFD80759F46091D31A47
S11355307091D41A6E5F7F4F85E79AE10E949A0CAE
S113554037C08091721A9091731AC80FD91FE091D5
S1135550D31AF091D41AD383C2838091721A909192
S1135560731AC817D90768F46091D31A7091D41AC2
S11355708091871A9091881A6E5F7F4F0E94BB0CAE
S113558017C06091D31A7091D41A8091891A90919E
S11355908A1A6E5F7F4F0E94BB0C80916A1A9091A9
S11355A06B1AC817D90720F4D0936B1AC0936A1AE0
S11355B0DF91CF9108950F931F93CF93DF93DC0175
S11355C01596ED91FC911697C681D7818E01045FE3
S11355D01F4FC8010E94EC0C8091691A81111CC0F4
S11355E00A501109C8010E94EC0C8E899091711A1D
S11355F0981710F48093711A90E09C01220F331FC6
S1135600220F331F220F331F820F931FB8018356BB
S1135610954E0E949A0C05C0B8018EE79AE10E944B
S11356209A0CE091D31AF091D41A9E89868989172D
S113563020F481E080936E1A01C080E0DF91CF9165
S11356401F910F91089520916D1AFC0120832091E0
S1135650721A3091731A328321830895FC010FB6B4
S1135660F8940F922091721A3091731ADB018D9184
S11356709C918F3FBFEF9B0721F140916D1A5081A0
S1135680541729F04181528124173507E0F44181F0
S11356905281D901A41BB50BA817B907B0F4421B5A
S11356A0530B840F951FDB018D939C9380916D1A8E
S11356B080838091721A9091731A9283818380E01F
S11356C005C080E003C081E001C081E00F900FBEFF
S11356D0089581E080936E1A08958091D31A909171
S11356E0D41A08950F931F93CF93DF93FC01892B52
S11356F009F455C02689A091D31AB091D41A5696AC
S11357008C91281708F04BC084859585992364F003
S1135710A091D31AB091D41A56963C9186E090E0A9
S1135720831B91099587848730E0C901880F991FED
S1135730880F991F880F991F280F391F2356354E3C
S1135740828593858217930719F58F01EF012296BD
S1135750CE010E94EC0CE091D31AF091D41A868900
S1135760F801868B9091711A981710F48093711A2E
S113577090E09C01220F331F220F331F220F331F8F
S1135780820F931FBE018356954E0E949A0C07C048
S1135790A091D31AB091D41A56968C91868BDF912E
S11357A0CF911F910F9108950F931F93CF93DF9380
S11357B0FC01892B79F182A1815082A3268991A1D0
S11357C0291751F181112AC0EF018F010E5F1F4F7C
S11357D0C8010E94EC0C89A18E8B26E030E0281BC6
S11357E031093D872C879091711A981710F4809392
S11357F0711A90E09C01220F331F220F331F220FD6
S1135800331F820F931FB8018356954E0E949A0C42
S113581081E005C080E003C080E001C080E0DF914A
S1135820CF911F910F9108958091D31A9091D41A1A
S1135830892B39F0E091D31AF091D41A82A18F5FA9
S113584082A38091D31A9091D41A08950F931F9331
S1135850CF93DF93182FEB010FB6F8940F92E091DA
S1135860D31AF091D41A83A194A1A5A1B6A1892B2E
S11358708A2B8B2B09F058C0E091D31AF091D41ADB
S113588081E087A3209709F44FC08091D31A9091A7
S1135890D41A02960E94EC0CCF3F8FEFD80759F42C
S11358A06091D31A7091D41A6E5F7F4F85E79AE1A5
S11358B00E949A0C37C08091721A9091731AC80F83
S11358C0D91FE091D31AF091D41AD383C283809163
S11358D0721A9091731AC817D90768F46091D31A91
S11358E07091D41A8091871A9091881A6E5F7F4FB5
S11358F00E94BB0C17C06091D31A7091D41A809186
S1135900891A90918A1A6E5F7F4F0E94BB0C809116
S11359106A1A90916B1AC817D90720F4D0936B1A9E
S1135920C0936A1A0E9484180F900FBE0FB6F894A1
S11359300F92E091D31AF091D41A63A174A185A1B6
S113594096A16115710581059105D9F0112349F0DE
S1135950E091D31AF091D41A13A214A215A216A29C
S113596010C0E091D31AF091D41A03A114A125A177
S113597036A1015011092109310903A314A325A358
S113598036A3E091D31AF091D41A17A20F900FBE48
S1135990DF91CF911F910F9108954F925F926F9273
S11359A07F928F929F92AF92BF92EF92FF920F934A
S11359B01F9349015A010FB6F8940F92E091D31A3C
S11359C0F091D41A27A1223009F46FC0E091D31AC0
S11359D0F091D41A43A054A065A076A0DC01CB01B9
S11359E080959095A095B09584219521A621B72105
S11359F083A394A3A5A3B6A3E091D31AF091D41AD8
S1135A0081E087A3E114F10409F44FC08091D31A13
S1135A109091D41A02960E94EC0C8FEFE816F806C7
S1135A2059F46091D31A7091D41A6E5F7F4F85E751
S1135A309AE10E949A0C37C08091721A9091731A5D
S1135A40E80EF91EE091D31AF091D41AF382E2829F
S1135A508091721A9091731AE816F90668F46091AD
S1135A60D31A7091D41A8091871A9091881A6E5F14
S1135A707F4F0E94BB0C17C06091D31A7091D41A47
S1135A808091891A90918A1A6E5F7F4F0E94BB0C95
S1135A9080916A1A90916B1AE816F90620F4F09234
S1135AA06B1AE0926A1A0E9484180F900FBE0FB608
S1135AB0F8940F920115110569F0E091D31AF09151
S1135AC0D41A83A194A1A5A1B6A1F80180839183DE
S1135AD0A283B383E091D31AF091D41A87A18130C1
S1135AE0B1F0E091D31AF091D41A83A194A1A5A1A5
S1135AF0B6A180949094A094B09488229922AA226A
S1135B00BB2283A294A2A5A2B6A281E001C080E038
S1135B10E091D31AF091D41A17A20F900FBE1F91DF
S1135B200F91FF90EF90BF90AF909F908F907F90D8
S1135B306F905F904F9008950F931F93CF93DF93CF
S1135B40FC010FB6F8940F920115110549F083A1D9
S1135B5094A1A5A1B6A1E80188839983AA83BB83F4
S1135B6087A192E097A32230B1F018F4213031F0EC
S1135B702AC02330E9F0243001F125C003A114A187
S1135B8025A136A1402B512B622B732B43A354A385
S1135B9065A376A318C043A154A165A176A14F5F64
S1135BA05F4F6F4F7F4F43A354A365A376A30BC0EE
S1135BB043A354A365A376A306C0823079F143A31B
S1135BC054A365A376A3813059F5EF018F010E5FCD
S1135BD01F4FC8010E94EC0C8E899091711A98177E
S1135BE010F48093711A90E09C01220F331F220F4E
S1135BF0331F220F331F820F931FB8018356954E14
S1135C000E949A0CE091D31AF091D41A9E89868945
S1135C10891740F40E94841881E005C080E003C025
S1135C2081E001C081E00F900FBEDF91CF911F9101
S1135C300F910895EF92FF920F931F93CF93DF93E9
S1135C40FC010115110549F083A194A1A5A1B6A1F8
S1135C50E80188839983AA83BB8387A192E097A3F1
S1135C602230B1F018F4213031F02AC02330E9F0A9
S1135C70243001F125C003A114A125A136A1402B94
S1135C80512B622B732B43A354A365A376A318C093
S1135C9043A154A165A176A14F5F5F4F6F4F7F4F22
S1135CA043A354A365A376A30BC043A354A365A342
S1135CB076A306C08230F1F143A354A365A376A36F
S1135CC08130D1F5EF018091691A81111DC08F01D6
S1135CD00E5F1F4FC8010E94EC0C8E899091711ABF
S1135CE0981710F48093711A90E09C01220F331FCF
