S00C0000546573742E7372656378
S1130000FAC0000019C1000017C100000C94500D83
S11300100C943F0D0C94610D0FC100000DC1000044
S11300200BC1000009C1000007C1000005C10000A8
S113003003C1000001C10000FFC00000FDC00000BA
S1130040FBC00000F9C00000F7C00000F5C00000CC
S1130050F3C00000F1C00000EFC00000EDC00000DC
S1130060EBC00000E9C00000E7C00000E5C00000EC
S1130070E3C00000E1C00000DFC00000DDC00000FC
S11300800C945B10D9C00000D7C00000D5C000009C
S1130090D3C00000D1C00000CFC00000CDC000001C
S11300A0CBC00000C9C00000C7C00000C5C000002C
S11300B0C3C00000C1C00000BFC00000BDC000003C
S11300C0BBC00000B9C00000B7C000000C943326C8
S11300D0B3C00000B1C00000AFC00000ADC000005C
S11300E0ABC000006E616E00696E660000407A105D
S11300F0F35A00A0724E18090010A5D4E80000E8D5
S11301007648170000E40B54020000CA9A3B000032
S113011000E1F505000080969800000040420F00C1
S11301200000A08601000000102700000000E80382
S1130130000000006400000000000A00000000004D
S11301400100000000002C76D888DC674F0823DF0C
S1130150C1DFAE59E1B1B796E5E3E453C63AE651DF
S1130160997696E8E6C28426EB898C9B62ED407C06
S11301706FFCEFBC9C9F40F2BAA56FA5F490055AA2
S11301802AF75C936B6CF9676DC11BFCE0E40D47C7
S1130190FEF520E6B500D0ED902E030094357705EA
S11301A00080841E080000204E0A000000C80C33A2
S11301B03333330F986E12831141EF8D2114893B31
S11301C0E65516CFFEE6DB18D1844B381BF77C1DB1
S11301D0901DA4BBE424203284725E228100C9F104
S11301E024ECA1E53D27CBE4D6E188818230F0F30D
S11301F00E94820FFACF11241FBECFEFD1E2DEBFDF
S1130200CDBF00E00CBF13E0A0E0B2E0E6EEFAE5FB
S113021000E00BBF02C007900D92A430B107D9F7DC
S113022027E1A4E0B3E001C01D92AE3BB207E1F7C1
S11302300E94B20C0C94712DE3CECF93DF9365E151
S113024074E081E00E94540E10920503109204039E
S1130250C6E0D3E08DE8FE0111928A95E9F781E0CA
S11302600E94AD109093900380938F031882DF91C6
S1130270CF91089580910603811116C0E6E0F3E062
S1130280168E158E168A158A14A213A212A211A212
S1130290178E148E128E118E138E1092920310925A
S11302A0910391E0908308958FEF0895CF92DF92A8
S11302B0EF92FF920F931F93CF93DF931F92CDB7CB
S11302C0DEB76901E82EF12C9DE8899F8001112495
S11302D00A5F1C4F83E0F8018083508F478B60A333
S11302E082E089830E94FF21F801E557FF4F918343
S11302F080830E943A2521E030E0AE014F5F5F4FDA
S113030061E0F80180A10E945F0EB60181E00E94C5
S1130310B822672B682B692B61F48DE88E9DF00160
S11303208F9DF00D1124EA5FFC4F81E0808380E013
S11303302EC080E091E042D6009731F14DE84E9D09
S113034090014F9D300D112440E051E0BC01C901E2
S1130350895F9C4F5BD384E190E030D60097B1F085
S11303602DE82E9D80012F9D100D112444E150E0B5
S1130370BC01C8018F5E9C4F49D3F801EA5FFC4F72
S113038082E0808381E003C08FEF01C08FEF0F9084
S1130390DF91CF911F910F91FF90EF90DF90CF905D
S11303A00895CF93DF93811134C020E04FEF5FEFC6
S11303B060E070E080918F03909190030E94991502
S11303C080910603823051F060E070E080918F03E9
S11303D0909190030E94FD1380E01CC0C6E0D3E01E
S11303E089819A81F5D68B859C85F2D681E08883B4
S11303F0EF89F88D60E070E080E090E0199560E0AE
S113040070E080918F03909190030E94FD1381E02E
S113041001C080E0DF91CF910895EF92FF920F9396
S11304201F93CF93DF9300D01F92CDB7DEB75C83C9
S11304304B8381117BC07B0120E04FEF5FEF60E0D5
S113044070E080918F03909190030E9499158091A0
S11304500603823051F4E114F10439F00B811C815C
S1130460C80101978436910550F060E070E08091F6
S11304708F03909190030E94FD1380E058C00E5F9B
S11304801F4F20910F033091100380E091E0821BF5
S1130490930B0817190708F03FC0209119033091F6
S11304A01A0384E190E0821B930B0297A8F18AE27D
S11304B090E09A83898342E050E0BE016D5F7F4FF4
S11304C087E093E0B5D24B815C81B70187E093E08C
S11304D0AFD201151105B1F0902F812F0B32110508
S11304E010F09AE280E099838A8342E050E0BE01F2
S11304F06F5F7F4F81E193E09BD289819A81081BD2
S1130500190B51F760E070E080918F039091900394
S11305100E94FD138B810BC060E070E080918F031B
S1130520909190030E94FD1380E001C080E00F9041
S11305300F900F900F90DF91CF911F910F91FF902B
S1130540EF900895CF93DF931F921F92CDB7DEB73C
S1130550811114C080910603823091F4662394F0D3
S113056081E089836A8322E030E0AE014F5F5F4F10
S113057061E0809126030E945F0E05C080E003C005
S113058080E001C080E00F900F90DF91CF9108953B
S1130590AF92BF92CF92DF92EF92FF920F931F938D
S11305A0CF93DF93CDB7DEB7AE970FB6F894DEBF27
S11305B00FBECDBF8111DBC080910603882309F4EF
S11305C0D6C020E04FEF5FEF60E070E080918F03D2
S11305D0909190030E94991580910603823049F00E
S11305E060E070E080918F03909190030E94FD136E
S11305F0BEC080912503882309F462C0E6E0F3E0DD
S1130600858D968D0A96968F858F248D265F248FEF
S1130610893E934058F060E070E080918F039091A0
S113062090030E94FD1380E0BCDEA1C0293C08F4C5
S113063047C0E6E0F3E0078110851EA61DA6A18C45
S1130640838DA81A8A2D8F77A82EC1F1C12CD12CA5
S1130650B12C7F011982F701838D8B0D8F778A83EB
S1130660418952894C0D5D1D22E030E0BE01635D7D
S11306707F4F81E193E08BD22DA53EA5A801BE0159
S11306806D5F7F4F87E093E082D22DA53EA5020FD8
S1130690131FF701838194810197082319232E5F87
S11306A03F4FAE014F5F5F4F61E080A10E945F0E3C
S11306B0B394F2E0CF0ED11CAB10CCCF1092220336
S11306C0E6E0F3E0818D482F50E0938D491B5109FA
S11306D04F775527443051050CF041C06581768130
S11306E02589368962177307D1F119828A838F01AC
S11306F0440F551F81899289480F591F22E030E029
S1130700BE01635D7F4F81E193E041D22DA53EA5FB
S1130710F80145895689BE016D5F7F4F87E093E0FC
S113072036D22DA53EA5F80185899689A901480FE1
S1130730591F83819481019784239523968B858BFC
S113074081E0878F818D8F5F8F77818F2E5F3F4F01
S1130750AE014F5F5F4F61E080A10E945F0E60E0D9
S113076070E080918F03909190030E94FD13AE96E8
S11307700FB6F894DEBF0FBECDBFDF91CF911F91AE
S11307800F91FF90EF90DF90CF90BF90AF900895BE
S11307900F931F93CF93DF93EA01811141C080919E
S11307A0290390912A03892B99F4DB0111968C91EA
S11307B0119790E0982F88272C91822B90932A03ED
S11307C0809329038536910558F522976E5F7F4FF4
S11307D006E013E0F80181A192A1AE01855D9C4F72
S11307E00E949B2CD80191966D917C9192976C0FED
S11307F07D1F92967C936E93919793968D919C9185
S113080094976817790761F45796ED91FC9158977E
S11308108BE293E01995F80114A213A212A211A27B
S1130820DF91CF911F910F9108959F92AF92BF9244
S1130830CF92DF92EF92FF920F931F93CF93DF93A8
S11308401F92CDB7DEB78B015A01909126039813FE
S1130850B8C090910603992309F4B3C0FB01D0807A
S11308600F2EF6E0EF2EF3E0FF2EF02D13C0E091F3
S11308700403F0910503309759F0482F50E060E0ED
S113088070E000E010E023E0CF010E942E24AAC013
S1130890E12CF12C20E04FEF5FEF60E070E0F70116
S11308A0E757FF4F808191810E949915F70180815C
S11308B0823030F0A114B10419F00115110551F47E
S11308C0F701E757FF4F60E070E0808191810E945B
S11308D0FD1388C0833021F5F3E0DF1221C0F70156
S11308E0E557FF4F80819181009781F000E010E08F
S11308F022E040E050E0BA010E942E24F701E557BF
S1130900FF4F1182108260E080E01CDEF701E757A0
S1130910FF4F60E070E0808191810E94FD1362C00E
S1130920F801C180DD2009F452C0F4E0DF1213C0E5
S113093053C0A50142505109B8016E5F7F4F80E05A
S113094027DFF701828D8F5F8F77828FF701628DAA
S113095080E0F8DD2CC0F1E0DF1229C0F701838DBF
S1130960FC2DF81B8F2F8F77982E09F1D12C57016E
S11309708BE0A80EB11C87010F5F1F4F42E050E0CF
S1130980BE016F5F7F4FC50150D1498150E060E0E7
S113099070E0C8014AD1D3949D10F0CFF701C38E03
S11309A0148E168E158E818DC81201C0178EF70114
S11309B0E757FF4F60E070E0808191810E94FD1352
S11309C011C0F801D080F2E0DF120CC050CFF70163
S11309D0828DC812BBCFADCFF701828DC81609F442
S11309E0B0CFB4CF0F90DF91CF911F910F91FF90B3
S11309F0EF90DF90CF90BF90AF909F90089580E0EC
S1130A00C7DD8AE090E00E94151CF9CFFC01611556
S1130A10710561F07183608353834283118610866C
S1130A20178216821582148281E0089580E0089569
S1130A30EF92FF920F931F93CF93DF93EC012A81E0
S1130A403B8188859985F901E81BF90BE417F507C3
S1130A5008F449C08A017B018C819D81A901481B4E
S1130A60590B04171507A8F428813981A801820FAE
S1130A70931F0E949B2C8C819D81800F911F9D83CD
S1130A808C832A813B818217930721F51D821C8266
S1130A9021C028813981820F931F0E949B2C8C8155
S1130AA09D816A817B81AC01461B570B400F511F0E
S1130AB0681B790B6E0D7F1D888199810E949B2C88
S1130AC08C819D812A813B81821B930B800F911F16
S1130AD09D838C8348855985040F151F19870887C2
S1130AE081E090E002C080E090E0DF91CF911F911F
S1130AF00F91FF90EF9008950F931F93CF93DF937F
S1130B00FC0121153105C9F1A681B7818481958144
S1130B10A817B907A9F1C62FD72F80E090E007C026
S1130B20A681B78164817581A617B70759F16081E1
S1130B307181A60FB71F5C918E01588366817781FE
S1130B406F5F7F4F77836683A085B1851197B187E7
S1130B50A087A281B3816A177B0711F417821682DA
S1130B602196D8015C91541302C001960BC00196E2
S1130B7028173907A9F6C90105C080E090E002C032
S1130B8080E090E0DF91CF911F910F910895CF9273
S1130B90DF92EF92FF920F931F93CF93DF937C0129
S1130BA06B01EA018901672BA9F1FC0142815381A0
S1130BB0C417D50710F0C41BD50B4C1B5D0B401795
S1130BC0510760F0F701608171816C0F7D1FA801EE
S1130BD0C6010E949B2C802F912F1EC0F7016081BB
S1130BE071816C0F7D1FC6010E949B2CF70122812D
S1130BF03381C9018C1B9D0BA801421B530B4C0F65
S1130C005D1F608171818C0D9D1D0E949B2C802F26
S1130C10912F02C080E090E0DF91CF911F910F915E
S1130C20FF90EF90DF90CF900895EF92FF920F9393
S1130C301F93CF93DF93EC017B010885198540173F
S1130C40510708F48A018E819F814A815B81481B88
S1130C50590B40175107C8F0E114F10441F06881C1
S1130C607981680F791FA801C7010E949B2C8E818E
S1130C709F81800F911F9F838E832A813B818217DE
S1130C80930741F51F821E8225C0E114F104C1F0CF
S1130C9068817981680F791FC7010E949B2C4E815E
S1130CA05F812A813B81C901841B950B421B530B35
S1130CB0400F511F688179818E0D9F1D0E949B2CCE
S1130CC08E819F812A813B81821B930B800F911F10
S1130CD09F838E8388859985801B910B998788874C
S1130CE0C801DF91CF911F910F91FF90EF9008956C
S1130CF0EF92FF920F931F93CF93DF937C01680FC2
S1130D00791FFC013196009719F04115510521F422
S1130D1060E070E081E04BC02115310559F1E61720
S1130D20F70760F58A01020F131FDA01EC0191E065
S1130D302FEF04C0FA01E617F70720F53D913111B2
S1130D400AC09883CF010196A017B107E8F4EF0118
S1130D50FC0191E0F0CFAF014F5F5F4F30839F5FA5
S1130D60A017B107B0F49F3F29F728833296EA0110
S1130D7091E0E1CFEC0180E091E00DC0EC0182E074
S1130D8091E009C082E007C0EF01FC0180E091E03E
S1130D9002C0FA0180E0C617D70718F49883BF0190
S1130DA001C082E09B012E193F09622F732FDF914E
S1130DB0CF911F910F91FF90EF900895AF92BF9242
S1130DC0CF92DF92EF92FF920F931F93CF93DF9313
S1130DD07C01DA01009711F0109721F460E070E0D3
S1130DE081E05FC02115310509F44BC06A01C20ED0
S1130DF0D31E5C01A60EB71E8C0150E001C08F010A
S1130E00ED0121967C91711103C05460F8013DC03D
S1130E107150C6018C1B9D0B272F30E0821793075E
S1130E2010F4782F5860C501801B910B272F30E0F8
S1130E308217930710F4782F5260772361F1DE0153
S1130E40F801972F3D91311101C0546031939150B5
S1130E50C9F7EFEFE70FF0E03196DE01AE0FBF1FE9
S1130E60E00FF11FAC15BD0580F47E3F41F2EA1599
S1130E70FB0510F0526009C08F010F5F1F4F1082F5
S1130E80BFCFFC0150E001C0F801EE19FF096E2F3D
S1130E907F2F852F06C0CC15DD05B0F7F801DE01E4
S1130EA0E6CFDF91CF911F910F91FF90EF90DF90EC
S1130EB0CF90BF90AF900895862798E02CE880FFEC
S1130EC003C08695822701C086959150C1F7089585
S1130ED00F931F93CF93DF93662359F08C01EC019A
S1130EE0060F111D80E06991E7DF0C171D07D9F784
S1130EF001C080E0DF91CF911F910F91089580B3DD
S1130F0080BBECE7F0E08081806C8083EAE7F0E06E
S1130F108081806880838081846080830895CF92FB
S1130F20DF92EF92FF92CF93DF93EC01C880D980D8
S1130F30EA80FB802BED3FE049E450E4C701B601B1
S1130F400E94B92718166CF42BED3FE049EC50E4ED
S1130F50C701B6010E949E26688379838A839B8396
S1130F6016C02BED3FE049E450ECC701B6010E94E6
S1130F700327882364F42BED3FE049EC50E4C701D8
S1130F80B6010E949F26688379838A839B83888124
S1130F909981AA81BB81BC01CD019F772BED3FE0F4
S1130FA049E450E40E94B92718160CF4BFCFDF912E
S1130FB0CF91FF90EF90DF90CF900895EF92FF9242
S1130FC00F931F93CF93DF93EC010E947E1E8091B9
S1130FD0990390919A03892B41F5EBE9F3E0AFE98A
S1130FE0B3E0B183A08313821282EBE9F5E1F093BD
S1130FF09A03E093990313821282118210828CEF78
S113100091E113969C938E931297ED93FC93909396
S1131010960380939503909398038093970380E0BD
S113102090E8909394038093930380919303909119
S113103094038C239D23892B09F0B2C0209709F4D3
S1131040B2C0AE014C5F5F4F09F4B0C0809197030A
S1131050909198038417950708F4ABC0E0919B0323
S1131060F0919C03ABE9B3E002C0DF01F9012281F6
S113107033812417350728F4208131812115310566
S1131080A1F76091990370919A03E617F70709F4A1
S113109093C0CD91DC9111977E0184E0E80EF11CA0
S11310A0808191818D939C9382819381841B950B84
S11310B08930910508F452C09F01240F351FD901CE
S11310C013969C938E93129753834283ABE9B3E0B8
S11310D001C0DC018D919C91119782179307C8F38D
S11310E012964D915C9113978D01040F151F2017D3
S11310F0310751F4E9012A813B81420F531F1396B2
S11311005C934E9312979D01E9014A815B818901A9
S1131110040F151F80179107C9F46017710791F028
S1131120E8018A819B81480F591FE9015B834A8347
S11311308D919C911197EC0188819981E9019983A2
S1131140888307C0E9017983688303C0E90199832F
S11311508883A217B30711F02D933C932281338126
S11311608091970390919803821B930B909398031B
S113117080939703409195035091960384179507A4
S113118020F4909396038093950380919303909118
S11311909403282B392B33832283118210820EC0AF
S11311A0E12CF12C0BC0E12CF12C08C0E12CF12C2A
S11311B005C0E12CF12C02C0E12CF12C0E94841E0C
S11311C0C701DF91CF911F910F91FF90EF90089588
S11311D0CF93DF93009709F468C0FC013497228110
S11311E033814091930350919403B901642375238F
S11311F0672B09F45AC060817181672B09F055C0CF
S1131200EF014095509524233523338322830E9494
S11312107E1E4A815B818091970390919803840F8D
S1131220951F9093980380939703EBE9F3E001C033
S1131230FC01808191818C179D07D0F32281338139
S1131240BF01620F731FC617D70729F4240F351F78
S113125033832283EF012A813B81DE01A20FB31F76
S11312608A179B07C9F48091990390919A03A81750
S1131270B90779F012968D919C911397280F391F15
S11312803B832A83A081B1818D919C91998388832A
S113129005C0B983A88302C099838883EC17FD072E
S11312A011F0D183C0830E94841EDF91CF910895F1
S11312B0CF93DF93EC012898862F80680E945719FA
S11312C080E00E945719289A8F3F11F495E001C0DD
S11312D090E08883892FDF91CF910895CF93DF9396
S11312E01F921F92CDB7DEB7EBEEF6E181E080836B
S11312F024EF31E03283218322E836E034832383F0
S113130020E931E03683258317821086818782871E
S113131020E130E0348723872DE030E036872587CD
S113132022E330E0308B2787118A128A838B848BE7
S113133088EB9BE0968B858B8AE090E0908F878B7F
S1131340118E10920617109205171092081710921A
S113135007170E944919209A289A198220E137E236
S113136089818F5F898321503109D1F76FE0CE01E4
S113137002969EDF8A818936C9F780E00F900F902C
S1131380DF91CF910895CF93C62F28980E945719C3
S11313908C2F0E945719289A80E0CF9108951F93AB
S11313A0CF93DF931F921F92CDB7DEB7198296DFDA
S11313B0182F19828091F416813009F083C080912E
S11313C0FA169091FB168436910541F0883C9105FC
S11313D041F0C29741F483E0898305C082E08983A8
S11313E002C081E089838091F6169091F7168430CB
S11313F0910531F08830910539F0029749F40BC01A
S113140089818860898307C089818C60898303C04E
S11314108981846089838091F8169091F916803AC5
S113142021E09207C1F170F48A31910521F118F499
S11314300D97E9F028C08433910509F1803D9105A9
S113144031F121C082302DE0920789F140F48134DA
S113145023E0920721F18C37964029F114C084309F
S11314602AE1920741F18231944349F10CC0898108
S11314708061898327C089818062898323C08981AF
S1131480806389831FC08981806489831BC08981AB
S11314908065898317C089818066898313C08981A7
S11314A0806789830FC08981806889830BC08981A3
S11314B08069898307C08981806A898303C089819F
S11314C0806B8983698180E15EDF63E1CE010196EF
S11314D0EFDE89818F7789839091F516913011F42D
S11314E080688983698183E14EDF19828091EB16DC
S11314F0813009F05BC08091EC169091ED16853F28
S11315009105C1F020F48D37910549F011C0843F55
S113151021E0920739F0883E934039F009C082E017
S1131520898308C084E0898305C088E0898302C078
S11315308CE089838091EE169091EF16803D9105A1
S113154031F148F48A319105B1F084339105B9F051
S11315500D97C9F40CC0813423E0920701F18C3754
S113156026E0920701F1803A914069F414C0898120
S1131570806189831BC089818062898317C08981C6
S11315808063898313C08981806489830FC08981C2
S1131590806589830BC089818066898307C08981BE
S11315A08067898303C0898180688983698181E137
S11315B0EADE6FE0CE0102967BDE812F0F900F9062
S11315C0DF91CF911F910895EAE0F1E08081876077
S11315D0808308958230910531F4EBE0F1E080815D
S11315E08460808308958130910531F4EBE0F1E06B
S11315F08081826080830895892B29F4EBE0F1E0F7
S113160080818160808308958230910531F4EBE01C
S1131610F1E080818B7F808308958130910531F4DE
S1131620EBE0F1E080818D7F80830895892B29F49C
S1131630EBE0F1E080818E7F808308958230910514
S113164039F4EBE0F1E0908184E089278083089508
S11316508130910539F4EBE0F1E0908182E0892753
S113166080830895892B31F4EBE0F1E0908181E0EF
S1131670892780830895FC010396928381832FEF49
S11316803FEF3483238396838583908787831082F7
S11316900895FC01118610860895CF93DF939C0171
S11316A0FB01DC011196CD91DC911297D383C283A7
S11316B08C819D81958384838C819D81DC0113962B
S11316C07C936E9312977D836C8331872087F90115
S11316D080818F5F8083DF91CF910895CF93DF93D3
S11316E0EB01488159814F3F2FEF520721F4FC0150
S11316F0A781B0850DC0DC01139601C0DF011296ED
S1131700ED91FC9113972081318142175307B0F773
S11317101296ED91FC911397FB83EA83D583C483DE
S1131720BD83AC831396DC93CE93129799878887F5
S1131730FC0120812F5F2083DF91CF910895CF9307
S1131740DF93FC01A085B185C281D3818481958119
S11317509D838C83C481D581828193819B838A8379
S113176011968D919C911297E817F90731F48481B1
S1131770958112969C938E931197118610868C9165
S113178081508C93DF91CF910895CF93DF9300D054
S113179000D0CDB7DEB7FE01319686E0DF011D92A1
S11317A08A95E9F70E944917A12CB12CC12CD12CA0
S11317B0E12CF12C03E020E030E048EC50E06BE059
S11317C072E08FEF94E00E945E19813019F080E09E
S11317D090E000DF0E945217182F88EE93E00E94D9
S11317E0151C82E090E02ADF1123A1F30E945E170A
S11317F00F2EF5E1EF2EF7E1FF2EF02D01E00F2E75
S1131800F0EC6F2EFEEF7F2EF02D6894882486F87E
S11318109924939420E04FEF5FEF60E070E08091B3
S11318201117909112170E949915813099F70E940F
S11318307E1E0FB6F8940F92F7011081C180D280FA
S1131840A380B4800F900FBE0E94841E153009F44B
S113185063C030F41230B1F0143009F444C0DACF6C
S1131860173009F461C018F0183049F0D3CF0FB61F
S1131870F8940F920093A0150F900FBECBCF0E9447
S11318800118C8CFB601DD0C880B990B0E940927FB
S1131890F1E4AF16F1E0BF061CF09E828D820AC00F
S11318A020ECA2162EEFB2061CF0BE82AD8202C05E
S11318B07E826D8225E33AEF4EE85CE30E94BD2709
S11318C069837A838B839C83CE01019628DB20E095
S11318D044E650E0BE016F5F7F4F8091A715909161
S11318E0A815BBD597CF0FB6F8940F9200939F1508
S11318F00F900FBE1E821D8219821A821B821C82C7
S113190020E044E650E0BE016F5F7F4F8091A71551
S11319109091A815A2D57ECF0FB6F8940F9210928D
S11319209F150F900FBE76CF0FB6F8940F921092BA
S1131930A0150F900FBE6ECFCF93DF931F921F920F
S1131940CDB7DEB70E94BF1F9A83898364E170E03C
S1131950CE0101960E94721AF9CFF89480E090E0CB
S11319606DDEFCCF31DE80E090E034DE0E94BD25E8
S113197096D10E941D0187E397E10E94BD1880E083
S11319800E943518BCDAE7D082E090E023DE07DD60
S113199082E090E039DE81E090E01CDE81E090E0BE
S11319A033DE40E061E082E088D39093AA1580930F
S11319B0A91540E066E081E080D39093A815809358
S11319C0A71540E061E081E078D39093A615809359
S11319D0A51540E061E082E070D39093A415809354
S11319E0A31581E0BAD3909314178093131781E061
S11319F0B4D39093101780930F1781E0AED39093D4
S1131A000E1780930D1743E060E081E056D3909366
S1131A100C1780930B1743E060E081E04ED3909362
S1131A20121780931117A12CB12CC12CD12CE12CAD
S1131A30F12C04E020E030E04CE251E06FE072E091
S1131A408CE99CE00E945E1903E020E030E04CE267
S1131A5051E068E172E085EC9BE00E945E197894A5
S1131A6080E090E0D1DD0E949A1DCDE1D2E0F894AF
S1131A70DF93CF930E94C4170F900F90F8CF1F925B
S1131A800F920FB60F9211248F938091A1158F5F3F
S1131A908093A1158F910F900FBE0F901F901895F2
S1131AA01F920F920FB60F9211248F938091A2155B
S1131AB08F5F8093A2158F910F900FBE0F901F9090
S1131AC018951F920F920FB60F9211240BB60F9216
S1131AD02F933F934F935F936F937F938F939F9332
S1131AE0AF93BF93EF93FF93649907C082E090E0B4
S1131AF071DD81E090E06EDD14C01092A0151092AB
S1131B009F1582E090E080DD81E090E07DDD80E063
S1131B1090E07ADD60E070E08091111790911217E7
S1131B20DDD760E070E080910B1790910C17D6D749
S1131B30FF91EF91BF91AF919F918F917F916F91A1
S1131B405F914F913F912F910F900BBE0F900FBE5D
S1131B500F901F901895279A84B1806384B9269AB0
S1131B60E1E0F1E08081806680832F982E98E2E0A6
S1131B70F1E080818F79808385B18F7C85B98AB1CA
S1131B808AB98BB18C608BB96C988DB38DBBE9E647
S1131B90F0E08081806F8083EAE6F0E080818160FC
S1131BA080838CE18CBB8DB38C618DBB84B58068E4
S1131BB084BDE0E8F0E080818062808385B585BDE6
S1131BC084B5836084BDA1E8B0E08C9188608C9377
S1131BD080818160808385B5826085BD8C918260BF
S1131BE08C9380818083E0EBF0E08081808380812E
S1131BF08083E0EAF0E0808180830895EF92FF9291
S1131C000F931F93CF93DF937C018B01CB01D6D924
S1131C10EC01980121503109A701B801CFD88823DC
S1131C2041F08091AC158F5F8093AC15CE01D0DA72
S1131C302FC0862F972F8C01FE01E80FF91F3197D3
S1131C40F0806FEF680FCE0143D9F81641F0809110
S1131C50AB158F5F8093AB15CE01BADA19C08881BA
S1131C60833019F0CE01B4DA13C0A80144505109ED
S1131C70BE016D5F7F4FEA81F0E0EE0FFF1FED5C68
S1131C80F84E0190F081E02D89811995CE01A0DAFA
S1131C90DF91CF911F910F91FF90EF9008958EEFF8
S1131CA09DE00C942E260895823040F4E82FF0E055
S1131CB0EE0FFF1FED5CF84E7183608308958F92E1
S1131CC09F92AF92BF92CF92DF92EF92FF920F93C7
S1131CD01F93CF93DF93882E962E5A0189016901B1
S1131CE084E0C80ED11CC60169D9EC01C80106966E
S1131CF065D97C01209711F0892B31F4CE0168DA83
S1131D00C70166DA80E037C0888283E089839A82DB
S1131D10A801B501CE0103960E949B2C5801E3E073
S1131D20AE0EB11CAC0EBD1E63E0600FCE01D0D868
S1131D30F5018083B8016B5F7F4F9601AE01C70147
S1131D400E947806882331F0CE0142DAC70140DAD6
S1131D5080E011C0862F972FF701E80FF91F10823A
S1131D60BC016F5F7F4FC7010E940A26CE0130DAA3
S1131D70C7012EDA81E0DF91CF911F910F91FF907F
S1131D80EF90DF90CF90BF90AF909F908F90089589
S1131D9031E1FC013083319722E220833197A3E3C0
S1131DA0A083319760833197708331971082319784
S1131DB01082319760E860833197108231971082E6
S1131DC031971082319762E06083319763E06083DA
S1131DD0319764E06083319765E06083319766E012
S1131DE06083319767E06083319768E0608331975F
S1131DF069E06083319760E1608331973083319784
S1131E0032E13083319733E13083319734E13083E9
S1131E10319735E13083319736E13083319737E1BB
S1131E203083319738E13083319739E1308331970A
S1131E3030E23083319731E2308331972083319718
S1131E4023E220833197408331975083319726E2F0
S1131E502083319727E22083319728E2208331972A
S1131E6029E22083319720E32083319721E32083E3
S1131E708997089588EE93E09093481780934717C5
S1131E8090934A17809349171092990089EF809391
S1131E9098008BE080939100E1E7F0E0808182601C
S1131EA08083A0918116B0918216CD91CDBFDD9132
S1131EB0DEBFFF91EF91DF91CF91BF91AF919F91E1
S1131EC08F917F916F915F914F913F912F911F91CE
S1131ED00F91FF90EF90DF90CF90BF90AF909F90C5
S1131EE08F907F906F905F904F903F902F901F90B6
S1131EF00F900CBE0F900BBE0F900FBE0F90089565
S1131F0081E008950F920FB6F8940F920BB60F92DA
S1131F100CB60F921F9211242F923F924F925F9210
S1131F206F927F928F929F92AF92BF92CF92DF92E5
S1131F30EF92FF920F931F932F933F934F935F93CF
S1131F406F937F938F939F93AF93BF93CF93DF93BD
S1131F50EF93FF93A0918116B09182160DB60D9266
S1131F600EB60D920E948A20A0918116B09182161D
S1131F70CD91CDBFDD91DEBFFF91EF91DF91CF9188
S1131F80BF91AF919F918F917F916F915F914F918D
S1131F903F912F911F910F91FF90EF90DF90CF9081
S1131FA0BF90AF909F908F907F906F905F904F9075
S1131FB03F902F901F900F900CBE0F900BBE0F9070
S1131FC00FBE0F9008950F920FB6F8940F920BB6B0
S1131FD00F920CB60F921F9211242F923F924F92A0
S1131FE05F926F927F928F929F92AF92BF92CF92A5
S1131FF0DF92EF92FF920F931F932F933F934F9390
S11320005F936F937F938F939F93AF93BF93CF937C
S1132010DF93EF93FF93A0918116B09182160DB6D2
S11320200D920EB60D9213BE8091491790914A17E6
S1132030019790934A1780934917892B41F4809113
S113204047179091481790934A17809349170E9415
S1132050C91F81110E948A20A0918116B091821615
S1132060CD91CDBFDD91DEBFFF91EF91DF91CF9197
S1132070BF91AF919F918F917F916F915F914F919C
S11320803F912F911F910F91FF90EF90DF90CF9090
S1132090BF90AF909F908F907F906F905F904F9084
S11320A03F902F901F900F900CBE0F900BBE0F907F
S11320B00FBE0F90089587DF18950F931F93CF934A
S11320C0DF93082F162F662309F439C0869FC001B9
S11320D0112480960E94DE07EC01009721F437C09A
S11320E0D983C88303C04F96998388830B8F1C8F31
S11320F00FB6F8940F92488159812C8D30E06B8D86
S1132100629FC001639F900D1124BA01680F791F6B
S11321107B836A831A8E5D834C83821B930B840FAB
S1132120951F9F838E838FEF8D8F8E8FCE010896A0
S1132130A2DACE0141969FDA0F900FBE08C08FE15C
S113214090E00E94DE07EC01892B09F0C9CFCE0193
S1132150DF91CF911F910F9108959F92AF92BF92FB
S1132160CF92DF92EF92FF920F931F93CF93DF935F
S113217000D01F921F92CDB7DEB78FE190E00E948E
S1132180DE078C01009709F456C1FC011382128208
S1132190118210821582148217821682128E81E0B7
S11321A0838F148E8FEF858F868F7801F8E0EF0E82
S11321B0F11CC70160DA680181E1C80ED11CC601B7
S11321C05ADA1D821C82A12C99249394BB24BA94BC
S11321D00FB6F8940F92F801928D838D9817F0F44E
S11321E080819181892B09F01DC1828193810E9494
S11321F06622F80113821282928D9F5F928F9189D9
S1132200992339F0C6010E946D21813021F47ADED0
S113221002C0811177DE0F900FBE0DC18C819D81AC
S1132220892B19F40F900FBE06C1A11005C0CE0171
S113223001960E94B521A92C0F900FBE0E947E1E0C
S11322400FB6F8940F92F801858D8F3F09F4158E1F
S1132250F801868D8F3F09F4168E0F900FBEBE01D4
S11322606C5F7F4FCE0101960E94C021811196C000
S11322700FB6F8940F92F801928D838D0F900FBED4
S113228098134AC06C817D81C7010E9412210FB648
S1132290F8940F92F801868D1816ACF48189811197
S11322A005C011C0F8018189882369F0C6010E9424
S11322B06D2181110E94FB21F801868D8150868F4A
S11322C0868D18167CF3F801B68E0F900FBE0FB6EC
S11322D0F8940F92858D1816ACF48085811105C091
S11322E011C0F8018085882369F0C7010E946D211F
S11322F081110E94FB21F801858D8150858F858D88
S113230018167CF3F801B58E0F900FBE0E94841E40
S113231081115ECFF7DD5CCF0FB6F8940F92F80110
S1132320868D1816ACF48189811105C011C0F8019D
S11323308189882369F0C6010E946D2181110E9460
S1132340FB21F801868D8150868F868D18167CF3CB
S1132350F801B68E0F900FBE0FB6F8940F92858DCC
S11323601816ACF48085811105C011C0F801808570
S1132370882369F0C7010E946D2181110E94FB210D
S1132380F801858D8150858F858D18167CF3F801B1
S1132390B58E0F900FBE0E94841E1ACF0FB6F8940C
S11323A00F92F801868D1816ACF48189811105C04D
S11323B011C0F8018189882369F0C6010E946D214A
S11323C081110E94FB21F801868D8150868F868DB4
S11323D018167CF38FEFF801868F0F900FBE0FB69F
S11323E0F8940F92858D1816ACF48085811105C080
S11323F011C0F8018085882369F0C7010E946D210E
S113240081110E94FB21F801858D8150858F858D76
S113241018167CF38FEFF801858F0F900FBE0E9482
S1132420841E09C0F801828D8F5F828F8189882381
S113243009F4F1CEE7CEC8010F900F900F900F90E2
S11324400F90DF91CF911F910F91FF90EF90DF904C
S1132450CF90BF90AF909F9008956F927F928F928C
S11324609F92AF92BF92CF92DF92EF92FF920F931F
S11324701F93CF93DF9300D01F921F92CDB7DEB787
S11324808C015B015D834C83722E812C66246394E2
S113249099249A947C0188E0E80EF11C6801E1E13A
S11324A0CE0ED11C0FB6F8940F92F801928D838D45
S11324B0981720F0F2E07F126EC07DC1F801448DC0
S11324C0411115C0F80180819181892B09F079C1EE
S11324D0828193810E946622F80113821282928D76
S11324E09F5F928F9189992309F44FC046C0711060
S11324F01AC050E0B501F801848195810E949B2C9B
S1132500F801248D84819581820F911D95838483A4
S1132510228133818217930708F453C1808191810A
S1132520958384834EC150E0B501F801868197817B
S11325300E949B2CF801848D90E0919581959109DE
S113254026813781280F391F3783268340815181A3
S11325502417350730F422813381820F931F978328
S11325608683F2E07F122DC1F801828D882309F45D
S113257028C1828D8150828F24C1C80141960E9456
S11325806D21813021F4BEDC02C08111BBDC0F90CF
S11325900FBE81E01EC18C819D81892B21F40F9097
S11325A00FBE80E016C1811005C0CE0101960E94C5
S11325B0B521862C0F900FBE0E947E1E0FB6F89494
S11325C00F92F801858D8F3F09F4158EF801868DE1
S11325D08F3F09F4168E0F900FBEBE016C5F7F4FC4
S11325E0CE0101960E94C021811196C00FB6F894C5
S11325F00F92F801928D838D0F900FBE98134AC0ED
S11326006C817D81C7010E9412210FB6F8940F924C
S1132610F801868D1816ACF48189811105C011C0AA
S1132620F8018189882369F0C6010E946D21811116
S11326300E94FB21F801868D8150868F868D1816A5
S11326407CF3F801968E0F900FBE0FB6F8940F929C
S1132650858D1816ACF48085811105C011C0F80170
S11326608085882369F0C7010E946D2181110E9431
S1132670FB21F801858D8150858F858D18167CF39B
S1132680F801958E0F900FBE0E94841E81110ACF0F
S113269039DC08CF0FB6F8940F92F801868D18161E
S11326A0ACF48189811105C011C0F80181898823A6
S11326B069F0C6010E946D2181110E94FB21F8017D
S11326C0868D8150868F868D18167CF3F801968E40
S11326D00F900FBE0FB6F8940F92858D1816ACF4B8
S11326E08085811105C011C0F8018085882369F0B7
S11326F0C7010E946D2181110E94FB21F801858D83
S11327008150858F858D18167CF3F801958E0F9076
S11327100FBE0E94841EC6CE0FB6F8940F92F80125
S1132720868D1816D4F48189811106C016C0F8016B
S11327308189811105C011C07801F1E1EF0EF11C0E
S1132740C7010E946D2181110E94FB21F801868D31
S11327508150868F868D181654F38FEFF801868F7B
S11327600F900FBE0FB6F8940F92858D1816D4F4FF
S11327708085811106C016C0F8018085811105C0CD
S113278011C07801F8E0EF0EF11CC7010E946D2121
S113279081110E94FB21F801858D8150858F858DE3
S11327A0181654F38FEFF801858F0F900FBE0E9417
S11327B0841E80E00EC0F801448D442309F482CEC7
S11327C0B2CEF801828D8F5F828F81898111D5CE3F
S11327D0DECE0F900F900F900F900F90DF91CF915E
S11327E01F910F91FF90EF90DF90CF90BF90AF902B
S11327F09F908F907F906F9008959F92AF92BF9219
S1132800CF92DF92EF92FF920F931F93CF93DF93B8
S113281000D01F921F92CDB7DEB78C017D836C83ED
S1132820A12C99249394BB24BA947C0188E0E80EEB
S1132830F11C6801E1E1CE0ED11C0FB6F8940F92A1
S1132840F801928D838D981700F580819181892BF1
S113285009F02BC1828193810E946622F8011382C0
S11328601282928D9F5F928F9189992341F0C801C2
S113287041960E946D21813021F444DB02C0811114
S113288041DB0F900FBE81E018C18C819D81892BA3
S113289021F40F900FBE80E010C1A11005C0CE013D
S11328A001960E94B521A92C0F900FBE0E947E1E96
S11328B00FB6F8940F92F801858D8F3F09F4158EA9
S11328C0F801868D8F3F09F4168E0F900FBEBE015E
S11328D06C5F7F4FCE0101960E94C021811196C08A
S11328E00FB6F8940F92F801928D838D0F900FBE5E
S11328F098134AC06C817D81C7010E9412210FB6D2
S1132900F8940F92F801868D1816ACF48189811120
S113291005C011C0F8018189882369F0C6010E94AD
S11329206D2181110E94FB21F801868D8150868FD3
S1132930868D18167CF3F801B68E0F900FBE0FB675
S1132940F8940F92858D1816ACF48085811105C01A
S113295011C0F8018085882369F0C7010E946D21A8
S113296081110E94FB21F801858D8150858F858D11
S113297018167CF3F801B58E0F900FBE0E94841ECA
S113298081115BCFBFDA59CF0FB6F8940F92F801DB
S1132990868D1816ACF48189811105C011C0F80127
S11329A08189882369F0C6010E946D2181110E94EA
S11329B0FB21F801868D8150868F868D18167CF355
S11329C0F801B68E0F900FBE0FB6F8940F92858D56
S11329D01816ACF48085811105C011C0F8018085FA
S11329E0882369F0C7010E946D2181110E94FB2197
S11329F0F801858D8150858F858D18167CF3F8013B
S1132A00B58E0F900FBE0E94841E17CF0FB6F89498
S1132A100F92F801868D1816D4F48189811106C0AD
S1132A2016C0F8018189811105C011C07801F1E156
S1132A30EF0EF11CC7010E946D2181110E94FB2140
S1132A40F801868D8150868F868D181654F38FEF8A
S1132A50F801868F0F900FBE0FB6F8940F92858DF4
S1132A601816D4F48085811106C016C0F80180853B
S1132A70811105C011C07801F8E0EF0EF11CC70107
S1132A800E946D2181110E94FB21F801858D8150E6
S1132A90858F858D181654F38FEFF801858F0F906D
S1132AA00FBE0E94841E80E008C0F801828D8F5FF3
S1132AB0828F81898111DBCEE4CE0F900F900F902D
S1132AC00F900F90DF91CF911F910F91FF90EF9096
S1132AD0DF90CF90BF90AF909F900895CF93DF93F6
S1132AE0FC01928D838D9817D0F4828D8F5F828F35
S1132AF0868D8F3F79F48189882399F0EB01CF018A
S1132B0041960E946D21882371F0209771F081E035
S1132B1088830CC0868D8F5F868F81E007C080E03C
S1132B2005C081E003C081E001C081E0DF91CF9165
S1132B3008956F927F928F929F92AF92BF92CF929D
S1132B40DF92EF92FF920F931F93CF93DF9300D006
S1132B501F921F92CDB7DEB78C015B015D834C835E
S1132B60622E812C7724739499249A946C0188E0C2
S1132B70C80ED11C7801E1E1EE0EF11C0FB6F894F9
S1132B800F92F801828D882309F445C0E680F7800E
S1132B90448D4423A9F050E0C701840F951F978307
S1132BA08683228133818217930720F0808191816B
S1132BB097838683F80166817781C5010E949B2CE7
S1132BC0611019C0F801828D8150828F80819181BA
S1132BD0892B29F40E94A622F80193838283F801A9
S1132BE080858823A1F0C80108960E946D21813058
S1132BF071F488D90CC0F801F782E68281898823B0
S1132C0031F0C80141960E946D2181117BD90F904A
S1132C100FBE81E018C18C819D81892B21F40F9016
S1132C200FBE80E010C1811005C0CE0101960E9444
S1132C30B521872C0F900FBE0E947E1E0FB6F8940C
S1132C400F92F801858D8F3F09F4158EF801868D5A
S1132C508F3F09F4168E0F900FBEBE016C5F7F4F3D
S1132C60CE0101960E94C0218111A0C00FB6F89434
S1132C700F92F801828D0F900FBE811156C0808192
S1132C809181892B49F40FB6F8940F928281938134
S1132C900E9404220F900FBE6C817D81C7010E94A7
S1132CA012210FB6F8940F92F801868D1816ACF421
S1132CB08189811105C011C0F8018189882369F0D7
S1132CC0C7010E946D2181110E94FB21F801868DAC
S1132CD08150868F868D18167CF3F801968E0F909E
S1132CE00FBE0FB6F8940F92858D1816ACF480853C
S1132CF0811105C011C0F8018085882369F0C601DF
S1132D000E946D2181110E94FB21F801858D815063
S1132D10858F858D18167CF3F801958E0F900FBE64
S1132D20F3D781112BCFEED829CF0FB6F8940F9299
S1132D30F801868D1816ACF48189811105C011C083
S1132D40F8018189882369F0C7010E946D218111EE
S1132D500E94FB21F801868D8150868F868D18167E
S1132D607CF3F801968E0F900FBE0FB6F8940F9275
S1132D70858D1816ACF48085811105C011C0F80149
S1132D808085882369F0C6010E946D2181110E940B
S1132D90FB21F801858D8150858F858D18167CF374
S1132DA0F801958E0F900FBEAFD7E8CE0FB6F8940A
S1132DB00F92F801868D1816D4F48189811106C00A
S1132DC016C0F8018189811105C011C07801F1E1B3
S1132DD0EF0EF11CC7010E946D2181110E94FB219D
S1132DE0F801868D8150868F868D181654F38FEFE7
S1132DF0F801868F0F900FBE0FB6F8940F92858D51
S1132E001816D4F48085811106C016C0F801808597
S1132E10811105C011C07801F8E0EF0EF11CC70163
S1132E200E946D2181110E94FB21F801858D815042
S1132E30858F858D181654F38FEFF801858F0F90C9
S1132E400FBE62D780E00F900F900F900F900F90FD
S1132E50DF91CF911F910F91FF90EF90DF90CF9072
S1132E60BF90AF909F908F907F906F900895AB012B
S1132E70009711F41092A015BC0185E197E10E941E
S1132E809B2C60E070E08091111790911217B5CCE3
S1132E9008958091AD15811104C00E943A01809378
S1132EA04B17089528EE33E047E357E160E0809143
S1132EB04B170E9456018093AD150895CF93DF936D
S1132EC0CDB7DEB7EC970FB6F894DEBF0FBECDBF1B
S1132ED08091AD15882309F44EC0198287E08A8356
S1132EE088E0E7E2F2E0DE01139601900D928A9504
S1132EF0E1F724EB30E03B872A8785EF90E09D875C
S1132F008C8788E3888B8E871F8685E1898B8A8BE3
S1132F108B8B8C8B1E8A1D8A8AE590E0988F8F8B11
S1132F203A8F298F8EE091E09C8F8B8F88EC90E014
S1132F309E8F8D8F8EE1FE013196DE015F960190AA
S1132F400D928A95E1F780910002882359F04EE1B1
S1132F5050E0BE01615E7F4F80914B170E940D02CD
S1132F6081E009C04EE150E0BE01615E7F4F809177
S1132F704B1710D181E0EC960FB6F894DEBF0FBE6C
S1132F80CDBFDF91CF910895CF93DF93CDB7DEB757
S1132F90C456D1090FB6F894DEBF0FBECDBFAE0143
S1132FA046595F4FFA0161917191AF018AE08983BB
S1132FB0CE0102960E94EB2C8823C9F020910A02CC
S1132FC0222361F09927AC014F5F5F4FBE016F5F11
S1132FD07F4F80914B170E940D0209C09927AC01C5
S1132FE04F5F5F4FBE016F5F7F4F80E0D3D0CC59FE
S1132FF0DF4F0FB6F894DEBF0FBECDBFDF91CF9188
S11330000895CF93DF931F92CDB7DEB78091AD15AE
S11330108823B9F089E0898380910902882351F0DB
S113302041E050E0BE016F5F7F4F80914B170E94DB
S11330300D0207C041E050E0BE016F5F7F4F80E0AA
S1133040A9D00F90DF91CF9108958A3508F08AE5D1
S1133050E82FF0E0EE0FFF1FE15DFD4F80819181CD
S11330609093AB008093AA000895A0EAB0E09C91ED
S113307090629C93E1EAF0E09081986190839C9146
S113308092609C939081926090832FE33CE930930B
S1133090A7002093A600E1E0F1E090819061908385
S11330A0D4CF0895EF92FF920F931F93CF93DF93A2
S11330B09091AF159F3F11F0981358C0FB01808188
S11330C0811105C01092B1151092B0150CC09091E9
S11330D0B215891741F0EEEAF5E1148213821282E7
S11330E08FEF818343C08091B0159091B1159C01FD
S11330F022503109240F351F2536310540F0EEEA00
S1133100F5E11382128214828FEF81832FC08A012A
S1133110EB010F2EFEEAEF2EF5E1FF2EF02DF70165
S113312024812F5F2483425051096E5F7F4F8D5459
S11331309A4E0E949B2CF7014281538142505109BF
S1133140BA01600F711F7383628398818981981318
S11331500DC0E0914C17F0914D1783EB95E1199553
S1133160F7011482138212828FEF8183DF91CF9152
S11331701F910F91FF90EF90089590934D178093B6
S11331804C1762E578E180E00E94540E8FEF809343
S1133190AF1508955F926F927F928F929F92AF9234
S11331A0BF92CF92DF92EF92FF920F931F93CF9330
S11331B0DF93582E5B018A018CE290E00E94DE07C7
S11331C07C01980136952795ADE0B3EC0E94A92BBC
S11331D0929582958F7089279F7089274AE2489F2C
S11331E09001499F300D112441E00217130709F49F
S11331F040E0980136952795ADE0B3EC0E94A92BE9
S1133200929582958F7089279F708927840F011565
S1133210110559F190E0C12CD12C66246A94680EF2
S1133220470182E0880E911CE8010B32110510F071
S1133230CAE2D0E077247394790EF7019083618217
S1133240B5016C0D7D1DAE01C4010E949B2C9E0135
S11332502E5F3F4FA70160E0852D0E945F0ECC0ECC
S1133260DD1E0C1B1D0B972DF9F6C7010E94E80803
S113327081E0DF91CF911F910F91FF90EF90DF904C
S1133280CF90BF90AF909F908F907F906F905F9002
S1133290089584B1876084B923988CB581608CBD0E
S11332A08CB58C658CBD8CB58F7D8CBD08958EBD21
S11332B000000DB407FEFDCF8EB508954F925F92C6
S11332C06F927F928F929F92AF92BF92CF92DF9232
S11332D0EF92FF920F931F93CF93DF933C015B0117
S11332E04A012901C114D10439F4CA010E94DE073C
S11332F06C01892B09F4E4C088E290E00E94DE07A7
S1133300EC01892B71F0D88ECF8A81E0881A91085C
S1133310C80CD91CD5018C91898F8C91811105C061
S113332018C0C6010E94E808CBC0AE01465E5F4FDC
S1133330F5013196B8E0AB0EB11CCF012191DA0151
S11333402D93AD01DC018C91882319F0AE16BF06D4
S1133350A1F718A2102F063008F015E01E8B19A350
S11333601AA25E01B2E0AB0EB11CC5010E94490B6A
S1133370CE010C960E94490BD987C88786E090E05D
S1133380811B91099D878C87DB8BCA8B1BA21CA296
S11333901DA21EA21FA2A201B301C6010E94C80E53
S11333A099838883E114F10419F0F701D183C08370
S11333B00FB6F8940F92809122168F5F8093221695
S11333C08091811690918216892BD9F5D09382161B
S11333D0C093811680912216813009F041C00F2ECE
S11333E0FBE4EF2EF6E1FF2EF02D0F2EF1E8CF2EA9
S11333F0F6E1DF2EF02DC7010E943B0BF9E0EF0E42
S1133400F11CEC14FD04B9F782E496E10E943B0B35
S113341089E396E10E943B0B8CE296E10E943B0B10
S113342083E296E10E943B0B82E496E19093381686
S11334308093371689E396E1909336168093351678
S11334400FC080911E1681110BC0E0918116F0917E
S113345082168689081720F0D0938216C0938116AD
S113346080911A168F5F80931A168E8990911F1679
S1133470981710F480931F1690E09C01220F331FBD
S1133480220F331F220F331F820F931FB501855B59
S1133490994E0E944D0B0F900FBE80911E168823EB
S11334A059F0E0918116F09182168689801730F4E4
S11334B00E94820F81E005C081E003C081E001C069
S11334C08FEFDF91CF911F910F91FF90EF90DF90DD
S11334D0CF90BF90AF909F908F907F906F905F90B0
S11334E04F9008959F92AF92BF92CF92DF92EF9246
S11334F0FF920F931F93CF93DF93FC0190911716C4
S11335009F5F909317168091201690912116208129
S11335103181E901C60FD71F8217930758F4C217E8
S1133520D30708F06EC1D183C0838C179D0708F0C0
S113353042C009C0C217D30708F460C18C179D07A5
S113354008F45CC15EC18091811690918216029646
S11335500E949F0BE0918116F0918216D383C2835F
S11335608091201690912116C817D90768F46091AC
S113357081167091821680913516909136166E5F81
S11335807F4F0E946E0B17C0609181167091821656
S113359080913716909138166E5F7F4F0E946E0BA4
S11335A08091181690911916C817D90720F4D09352
S11335B01916C09318160FB6F8940F928091171627
S11335C08150809317168091171681110DC1809137
S11335D02216811133C00BC1D7011596ED91FC91D0
S11335E01697C681D781CE010C960E949F0B8E013F
S11335F00E5F1F4FC8010E949F0B8E8990911F166A
S1133600981710F480931F1690E09C01220F331F2B
S1133610220F331F220F331F820F931FB801855BC4
S1133620994E0E944D0BE0918116F09182169E896D
S11336308689981758F0D0921C1608C00F2EFCE209
S1133640EF2EF6E1FF2EF02DDD24D394F7018081D7
S11336508111C2CF80911D16882309F4BDC08091C9
S11336601D16882309F4B8C0912CBB24B394CC2430
S1133670CA94DC2C80911716811198C08091201671
S11336809091211601969093211680932016E09034
S11336902016F0902116E114F10489F58091371673
S11336A0909138162091351630913616309338168D
S11336B020933716909336168093351680911B16F7
S11336C08F5F80931B16E0913716F0913816808136
S11336D0811105C0D0921916C092181610C0E0913D
S11336E03716F09138160580F681E02D0680F781B3
S11336F0E02D8281938190931916809318168091FE
S1133700181690911916E816F90608F47DC0A92C2C
S1133710E0913716F09138168081811105C0D0925E
S11337201916C092181648C0E0913716F091381651
S11337300580F681E02DC681D7818A819B81E816B8
S1133740F90628F4909319168093181635C08E0143
S11337500E5F1F4FC8010E949F0B8C899D89892B86
S113376021F0CE010C960E949F0B8E8990911F161A
S1133770981710F480931F1690E09C01220F331FBA
S1133780220F331F220F331F820F931FB801855B53
S1133790994E0E944D0BE0918116F09182169E89FC
S11337A08689981708F4B4CFAB2CB2CF80911D163C
S11337B08F5F80931D1628C080911C16811101C053
S11337C0A110B0921C1680911D16815080931D1675
S11337D080911D1681114ECF80911C16813031F4D9
S11337E00E94820F81E003C080E001C080E00F905E
S11337F00FBE81110EC00E94820F0BC0D183C08303
S1133800A2CED183C083D7CE80911C168111D9CF8B
S1133810DACFDF91CF911F910F91FF90EF90DF905E
S1133820CF90BF90AF909F9008959F92AF92BF9218
S1133830CF92DF92EF92FF920F931F93CF93DF9378
S1133840009709F463C1209117162F5F2093171670
S1133850C0912016D0912116C80FD91F80918116CE
S11338609091821602960E949F0BE0918116F0912E
S11338708216D383C2838091201690912116C81793
S1133880D90768F46091811670918216809135167B
S1133890909136166E5F7F4F0E946E0B17C0609139
S11338A081167091821680913716909138166E5F4A
S11338B07F4F0E946E0B8091181690911916C817AD
S11338C0D90720F4D0931916C09318160FB6F8949C
S11338D00F928091171681508093171680911716B6
S11338E081110DC180912216811133C00BC1D70102
S11338F01596ED91FC911697C681D781CE010C9651
S11339000E949F0B8E010E5F1F4FC8010E949F0BE8
S11339108E8990911F16981710F480931F1690E0CB
S11339209C01220F331F220F331F220F331F820FDC
S1133930931FB801855B994E0E944D0BE09181164F
S1133940F09182169E898689981758F0D0921C1699
S113395008C00F2EFCE2EF2EF6E1FF2EF02DDD2441
S1133960D394F70180818111C2CF80911D168823E1
S113397009F4BDC080911D16882309F4B8C0912CA8
S1133980BB24B394CC24CA94DC2C809117168111E7
S113399098C080912016909121160196909321163B
S11339A080932016E0902016F0902116E114F10483
S11339B089F58091371690913816209135163091FB
S11339C03616309338162093371690933616809314
S11339D0351680911B168F5F80931B16E091371666
S11339E0F09138168081811105C0D0921916C092C9
S11339F0181610C0E0913716F09138160580F6813C
S1133A00E02D0680F781E02D828193819093191631
S1133A10809318168091181690911916E816F906D5
S1133A2008F477C0A92CE0913716F09138168081FC
S1133A30811105C0D0921916C092181648C0E091A1
S1133A403716F09138160580F681E02DC681D781AE
S1133A508A819B81E816F90628F4909319168093BD
S1133A60181635C08E010E5F1F4FC8010E949F0BB0
S1133A708C899D89892B21F0CE010C960E949F0B85
S1133A808E8990911F16981710F480931F1690E05A
S1133A909C01220F331F220F331F220F331F820F6B
S1133AA0931FB801855B994E0E944D0BE0918116DE
S1133AB0F09182169E898689981708F4B4CFAB2CAE
S1133AC0B2CF80911D168F5F80931D1622C0809106
S1133AD01C16811101C0A110B0921C1680911D16F4
S1133AE0815080931D1680911D1681114ECF8091B7
S1133AF01C16813031F40E94820F81E003C080E003
S1133B0001C080E00F900FBE811108C00E94820F97
S1133B1005C080911C168111DFCFE0CFDF91CF91DA
S1133B201F910F91FF90EF90DF90CF90BF90AF90D7
S1133B309F900895CF92DF92EF92FF920F931F937D
S1133B40CF93DF9385E590E00E94DE078C01892BFB
S1133B5009F4CBC088E290E00E94DE07EC01892BD7
S1133B6069F0188F0F8B0C5A1F4F89E4898FE6EE8A
S1133B70F2E0DE015A962DEE32E004C0C8010E9444
S1133B80E808B3C091919D93992319F02E173F072C
S1133B90C9F718A21E8A19A21AA27E0182E0E80EB1
S1133BA0F11CC7010E94490BCE010C960E94490BDF
S1133BB0D987C88786E090E09D878C87DB8BCA8B8A
S1133BC01BA21CA21DA21EA21FA240E050E063EF94
S1133BD070E0C8010E94C80E998388830FB6F894D8
S1133BE00F92809122168F5F809322168091811606
S1133BF090918216892BA9F5D0938216C0938116D1
S1133C00809122168130E1F50BE416E10F2EF1E8E4
S1133C10CF2EF6E1DF2EF02DC8010E943B0B075F8B
S1133C201F4F0C151D05C1F782E496E10E943B0B62
S1133C3089E396E10E943B0B8CE296E10E943B0BE8
S1133C4083E296E10E943B0B82E496E1909338165E
S1133C508093371689E396E1909336168093351650
S1133C600FC080911E1681110BC0E0918116F09156
S1133C7082168689811104C0D0938216C09381165E
S1133C8080911A168F5F80931A168E8990911F1651
S1133C90981710F480931F1690E09C01220F331F95
S1133CA0220F331F220F331F820F931FB701855B2F
S1133CB0994E0E944D0B0F900FBE80911E168823C3
S1133CC021F08091811690918216F8948FEF9FEFE6
S1133CD0909319168093181681E080931E16109203
S1133CE02116109220160E943A0FDF91CF911F9156
S1133CF00F91FF90EF90DF90CF9008958091171669
S1133D008F5F8093171608959F92AF92BF92CF92C0
S1133D10DF92EF92FF920F931F93CF93DF930FB62F
S1133D20F8940F9280911716815080931716809102
S1133D30171681110DC180912216811133C00BC158
S1133D40D7011596ED91FC911697C681D781CE01C6
S1133D500C960E949F0B8E010E5F1F4FC8010E949C
S1133D609F0B8E8990911F16981710F480931F163D
S1133D7090E09C01220F331F220F331F220F331FA9
S1133D80820F931FB801855B994E0E944D0BE09101
S1133D908116F09182169E898689981758F0D092E0
S1133DA01C1608C00F2EFCE2EF2EF6E1FF2EF02DBC
S1133DB0DD24D394F70180818111C2CF80911D1637
S1133DC0882309F4BDC080911D16882309F4B8C066
S1133DD0912CBB24B394CC24CA94DC2C8091171668
S1133DE0811198C08091201690912116019690938C
S1133DF0211680932016E0902016F0902116E114ED
S1133E00F10489F580913716909138162091351672
S1133E103091361630933816209337169093361611
S1133E208093351680911B168F5F80931B16E0914B
S1133E303716F09138168081811105C0D092191679
S1133E40C092181610C0E0913716F091381605800C
S1133E50F681E02D0680F781E02D82819381909395
S1133E601916809318168091181690911916E81651
S1133E70F90608F473C0A92CE0913716F0913816AE
S1133E808081811105C0D0921916C092181648C0BD
S1133E90E0913716F09138160580F681E02DC68141
S1133EA0D7818A819B81E816F90628F49093191624
S1133EB08093181635C08E010E5F1F4FC8010E94F3
S1133EC09F0B8C899D89892B21F0CE010C960E9431
S1133ED09F0B8E8990911F16981710F480931F16CC
S1133EE090E09C01220F331F220F331F220F331F38
S1133EF0820F931FB801855B994E0E944D0BE09190
S1133F008116F09182169E898689981708F4B4CF99
S1133F10AB2CB2CF80911D168F5F80931D161EC0EF
S1133F2080911C16811101C0A110B0921C168091C1
S1133F301D16815080931D1680911D1681114ECF40
S1133F4080911C16813031F40E94820F81E003C0FD
S1133F5080E001C080E00F900FBE05C080911C1668
S1133F608111E3CFE4CFDF91CF911F910F91FF90A7
S1133F70EF90DF90CF90BF90AF909F9008950FB6D1
S1133F80F8940F9280912016909121160F900FBEF5
S1133F900895CF92DF92EF92FF920F931F93CF93E6
S1133FA0DF938091171681119FC080912016909104
S1133FB0211601969093211680932016E0902016E6
S1133FC0F0902116E114F10499F58091371690913F
S1133FD038162091351630913616309338162093C2
S1133FE03716909336168093351680911B168F5F83
S1133FF080931B16E0913716F09138168081811159
S113400007C08FEF9FEF909319168093181610C076
S1134010E0913716F09138160580F681E02D068080
S1134020F781E02D8281938190931916809318165D
S11340308091181690911916E816F90610F4D12CEF
S113404059C0D12CCC24C394E0913716F091381682
S11340508081811107C08FEF9FEF90931916809391
S1134060181648C0E0913716F09138160580F6818D
S1134070E02DC681D7818A819B81E816F90628F450
S1134080909319168093181635C08E010E5F1F4F3A
S1134090C8010E949F0B8C899D89892B21F0CE0138
S11340A00C960E949F0B8E8990911F16981710F4FE
S11340B080931F1690E09C01220F331F220F331FA1
S11340C0220F331F820F931FB801855B994E0E9404
S11340D04D0BE0918116F09182169E89868998177E
S11340E008F4B2CFDC2CB0CF80911D168F5F809383
S11340F01D16D12C80911C16882311F0DD24D39435
S11341008D2DDF91CF911F910F91FF90EF90DF9054
S1134110CF90089580911716882321F081E0809331
S11341201C16089510921C16A0918116B091821647
S1134130E0918116F09182162D913C918789908DA2
S11341408217930760F060918116709182168091B6
S1134150811690918216675E7F4F0E94AD0C80910C
S11341601F1690E0FC01EE0FFF1FEE0FFF1FEE0F76
S1134170FF1F8E0F9F1FFC01E55BF94E80818111AB
S113418017C080911F16815080931F1680911F16AF
S113419090E0FC01EE0FFF1FEE0FFF1FEE0FFF1F5D
S11341A08E0F9F1FFC01E55BF94E8081882349F344
S11341B080911F1690E09C01220F331F220F331FA2
S11341C0220F331F280F391FD901A55BB94E119651
S11341D0ED91FC9112970280F381E02D1296FC93ED
S11341E0EE931197225B394EE217F30729F42281EB
S11341F03381FD0132832183FC01EE0FFF1FEE0F9B
S1134200FF1FEE0FFF1F8E0F9F1FFC01E55BF94E92
S11342100180F281E02D86819781909382168093AC
S113422081160895CF93DF93EB016091811670910D
S11342308216645F7F4F0E946E0B8091811690916D
S1134240821602960E949F0BCF3F8FEFD80759F436
S113425060918116709182166E5F7F4F83E296E1C2
S11342600E944D0B37C08091201690912116C80FE3
S1134270D91FE0918116F0918216D383C283809175
S1134280201690912116C817D90768F460918116F9
S11342907091821680913516909136166E5F7F4F1D
S11342A00E946E0B17C060918116709182168091E6
S11342B03716909138166E5F7F4F0E946E0B809177
S11342C0181690911916C817D90720F4D093191607
S11342D0C0931816DF91CF9108950F931F93CF9336
S11342E0DF93DC011596ED91FC911697C681D78179
S11342F08E01045F1F4FC8010E949F0B8091171607
S113430081111CC00A501109C8010E949F0B8E899B
S113431090911F16981710F480931F1690E09C013B
S1134320220F331F220F331F220F331F820F931FBD
S1134330B801855B994E0E944D0B05C0B8018CE213
S113434096E10E944D0BE0918116F09182169E89B0
S11343508689891720F481E080931C1601C080E0CF
S1134360DF91CF911F910F91089520911B16FC01AD
S113437020832091201630912116328321830895C1
S1134380FC010FB6F8940F9220912016309121165B
S1134390DB018D919C918F3FBFEF9B0721F14091F1
S11343A01B165081541729F0418152812417350777
S11343B0E0F441815281D901A41BB50BA817B907B8
S11343C0B0F4421B530B840F951FDB018D939C9318
S11343D080911B16808380912016909121169283E0
S11343E0818380E005C080E003C081E001C081E0FA
S11343F00F900FBE089581E080931C16089580915C
S113440081169091821608950F931F93CF93DF9393
S1134410FC01892B09F455C02689A0918116B0911D
S1134420821656968C91281708F04BC08485958582
S1134430992364F0A0918116B091821656963C910E
S113444086E090E0831B91099587848730E0C90159
S1134450880F991F880F991F880F991F280F391FDC
S1134460255B394E828593858217930719F58F0151
S1134470EF012296CE010E949F0BE0918116F091EC
S113448082168689F801868B90911F16981710F46E
S113449080931F1690E09C01220F331F220F331FBD
S11344A0220F331F820F931FBE01855B994E0E941A
S11344B04D0B07C0A0918116B091821656968C912F
S11344C0868BDF91CF911F910F9108950F931F93C6
S11344D0CF93DF93FC01892B79F182A1815082A3D0
S11344E0268991A1291751F181112AC0EF018F0169
S11344F00E5F1F4FC8010E949F0B89A18E8B26E07F
S113450030E0281B31093D872C8790911F1698179E
S113451010F480931F1690E09C01220F331F220F8A
S1134520331F220F331F820F931FB801855B994EEF
S11345300E944D0B81E005C080E003C080E001C013
S113454080E0DF91CF911F910F91089580918116A2
S113455090918216892B39F0E0918116F0918216A0
S113456082A18F5F82A38091811690918216089513
S11345700F931F93CF93DF93182FEB010FB6F8948B
S11345800F92E0918116F091821683A194A1A5A1C6
S1134590B6A1892B8A2B8B2B09F058C0E091811688
S11345A0F091821681E087A3209709F44FC080918F
S11345B081169091821602960E949F0BCF3F8FEF37
S11345C0D80759F460918116709182166E5F7F4FFF
S11345D083E296E10E944D0B37C0809120169091A2
S11345E02116C80FD91FE0918116F0918216D3834A
S11345F0C2838091201690912116C817D90768F4B8
S113460060918116709182168091351690913616BC
S11346106E5F7F4F0E946E0B17C060918116709180
S1134620821680913716909138166E5F7F4F0E94E4
S11346306E0B8091181690911916C817D90720F49B
S1134640D0931916C09318160E94820F0F900FBEB4
S11346500FB6F8940F92E0918116F091821663A13F
S113466074A185A196A16115710581059105D9F003
S1134670112349F0E0918116F091821613A214A23D
S113468015A216A210C0E0918116F091821603A122
S113469014A125A136A1015011092109310903A34F
S11346A014A325A336A3E0918116F091821617A2D4
S11346B00F900FBEDF91CF911F910F9108954F92EC
S11346C05F926F927F928F929F92AF92BF92EF927E
S11346D0FF920F931F9349015A010FB6F8940F925A
S11346E0E0918116F091821627A1223009F46FC05F
S11346F0E0918116F091821643A054A065A076A0A3
S1134700DC01CB0180959095A095B09584219521ED
S1134710A621B72183A394A3A5A3B6A3E0918116F0
S1134720F091821681E087A3E114F10409F44FC0EB
S1134730809181169091821602960E949F0B8FEFB2
S1134740E816F80659F460918116709182166E5F2E
S11347507F4F83E296E10E944D0B37C08091201673
S113476090912116E80EF91EE0918116F0918216BF
S1134770F382E2828091201690912116E816F906C0
S113478068F460918116709182168091351690912B
S113479036166E5F7F4F0E946E0B17C060918116B4
S11347A07091821680913716909138166E5F7F4F04
S11347B00E946E0B8091181690911916E816F9064E
S11347C020F4F0921916E09218160E94820F0F90AE
S11347D00FBE0FB6F8940F920115110569F0E09120
S11347E08116F091821683A194A1A5A1B6A1F80126
S11347F080839183A283B383E0918116F091821622
S113480087A18130B1F0E0918116F091821683A1E5
S113481094A1A5A1B6A180949094A094B094882268
S11348209922AA22BB2283A294A2A5A2B6A281E0C5
S113483001C080E0E0918116F091821617A20F90DA
S11348400FBE1F910F91FF90EF90BF90AF909F907C
S11348508F907F906F905F904F9008950F931F9368
S1134860CF93DF93FC010FB6F8940F920115110555
S113487049F083A194A1A5A1B6A1E80188839983F5
S1134880AA83BB8387A192E097A32230B1F018F4E6
S1134890213031F02AC02330E9F0243001F125C061
S11348A003A114A125A136A1402B512B622B732BFC
S11348B043A354A365A376A318C043A154A165A13F
S11348C076A14F5F5F4F6F4F7F4F43A354A365A300
S11348D076A30BC043A354A365A376A306C082307A
S11348E079F143A354A365A376A3813059F5EF016D
S11348F08F010E5F1F4FC8010E949F0B8E899091FC
S11349001F16981710F480931F1690E09C01220F35
S1134910331F220F331F220F331F820F931FB8013F
S1134920855B994E0E944D0BE0918116F0918216A1
S11349309E898689891740F40E94820F81E005C010
S113494080E003C081E001C081E00F900FBEDF91E1
S1134950CF911F910F910895EF92FF920F931F93A0
S1134960CF93DF93FC010115110549F083A194A1B4
S1134970A5A1B6A1E80188839983AA83BB8387A1F3
S113498092E097A32230B1F018F4213031F02AC01C
S11349902330E9F0243001F125C003A114A125A19D
S11349A036A1402B512B622B732B43A354A365A335
S11349B076A318C043A154A165A176A14F5F5F4FB0
S11349C06F4F7F4F43A354A365A376A30BC043A3A8
S11349D054A365A376A306C08230F1F143A354A384
S11349E065A376A38130D1F5EF018091171681116B
S11349F01DC08F010E5F1F4FC8010E949F0B8E893F
S1134A0090911F16981710F480931F1690E09C0144
S1134A10220F331F220F331F220F331F820F931FC6
S1134A20B801855B994E0E944D0B07C0BF01645FBE
S1134A307F4F8CE296E10E944D0BE0918116F0913C
S1134A4082169E898689891758F4E114F10451F07D
S1134A5081E0F701808307C080E005C081E003C0E6
S1134A6081E001C081E0DF91CF911F910F91FF9010
S1134A70EF900895009721F4809181169091821609
S1134A800FB6F8940F92FC0127A1223019F417A253
S1134A9081E001C080E00F900FBE0895CF93DF93B3
S1134AA000D01F92CDB7DEB7AADC9093EA168093AC
S1134AB0E91619821A821B821C82EE24EA94FE2CC7
S1134AC08E010F5F1F4F2FEF3FEFA9016FEF7FEFB5
S1134AD0CB01F5DDE0914E17F0914F17309769F354
S1134AE069817A8180E597E11995E7CFCF93DF93C8
S1134AF0CDB7DEB7C456D1090FB6F894DEBF0FBEEA
S1134B00CDBF00ED10E00F2EF6EDEF2EF12CF02DC1
S1134B1020E04FEF5FEF60E070E080910F1790911D
S1134B2010170E94991524E630E040E0BE016F5F43
S1134B307F4F84EB97E10E947C056C0160E070E09C
S1134B4080910F17909110170E94FD13C114D10486
S1134B5079F0FE0131969F012C0D3D1DD8018C91F9
S1134B6085FFFCCF8191D7018C932E173F07B1F7B6
S1134B708AE090E00E94151CCBCFAF92BF92CF92F7
S1134B80DF92EF92FF920F931092D50089E1809308
S1134B90D40080EE8093D00088E98093D100E2EDC8
S1134BA0F0E086E080838081808384E690E00E9448
S1134BB0DE0744E650E0BC0184EB97E10E94060561
S1134BC0A12CB12CC12CD12CE12CF12C04E020E03F
S1134BD030E04CE251E06AEE72E08EE495E20E942D
S1134BE05E1920E030E04CE251E066EF72E086E7C7
S1134BF095E20E945E1981E00E94AD109093101717
S1134C0080930F170F91FF90EF90DF90CF90BF909C
S1134C10AF9008950F931F93CF93DF93EC018B0113
S1134C2020E04FEF5FEF60E070E080910F1790910C
S1134C3010170E949915A801BE0184EB97E10E9408
S1134C40180560E070E080910F17909110170E9492
S1134C50FD13DF91CF911F910F91089590934F17FA
S1134C6080934E1708951F920F920FB60F9211243E
S1134C700BB60F92CF92DF92EF92FF920F931F9396
S1134C802F933F934F935F936F937F938F939F9350
S1134C90AF93BF93CF93DF93EF93FF938091E71686
S1134CA09091E816EC012196D093E816C093E7168C
S1134CB02091D600FC01ED57F94E208321111CC030
S1134CC0C090E916D090EA16C114D10481F0AE0167
S1134CD063E876E180E597E12ED6AE0160E070E00E
S1134CE0E12CF12C00E010E024E0C60135DE109246
S1134CF0E8161092E71607C0C536D10520F01092C9
S1134D00E8161092E716FF91EF91DF91CF91BF91D2
S1134D10AF919F918F917F916F915F914F913F914F
S1134D202F911F910F91FF90EF90DF90CF900F90F4
S1134D300BBE0F900FBE0F901F9018955058BB27B5
S1134D40AA270ED0DCC0CDD030F0D2D020F031F480
S1134D509F3F11F41EF4C2C00EF4E095E7FBB8C007
S1134D60E92FDED080F3BA1762077307840795072B
S1134D7018F071F49EF5F6C00EF4E0950B2EBA2FE0
S1134D80A02D0B01B90190010C01CA01A00111244D
S1134D90FF27591B99F0593F50F4503E68F11A16F9
S1134DA0F040A22F232F342F4427585FF3CF46958A
S1134DB037952795A795F0405395C9F77EF41F16AC
S1134DC0BA0B620B730B840BBAF09150A1F0FF0F76
S1134DD0BB1F661F771F881FC2F70EC0BA0F621F62
S1134DE0731F841F48F4879577956795B795F79552
S1134DF09E3F08F0B3CF9395880F08F09927EE0FE4
S1134E0097958795089540D008F481E00895E89433
S1134E1009C097FB3EF490958095709561957F4FFE
S1134E208F4F9F4F9923A9F0F92F96E9BB279395AC
S1134E30F695879577956795B795F111F8CFFAF4BC
S1134E40BB0F11F460FF1BC06F5F7F4F8F4F9F4FED
S1134E5016C0882311F096E911C0772321F09EE84B
S1134E60872F762F05C0662371F096E8862F70E0B1
S1134E7060E02AF09A95660F771F881FDAF7880F8B
S1134E809695879597F90895990F0008550FAA0BE1
S1134E90E0E8FEEF16161706E807F907C0F0121649
S1134EA01306E407F50798F0621B730B840B950B4C
S1134EB039F40A2661F0232B242B252B21F40895A1
S1134EC00A2609F4A140A6958FEF811D811D08953E
S1134ED097F99F6780E870E060E008959FEF80ECA9
S1134EE0089500240A94161617061806090608954C
S1134EF000240A9412161306140605060895092EB2
S1134F000394000C11F4882352F0BB0F40F4BF2B20
S1134F1011F460FF04C06F5F7F4F8F4F9F4F089560
S1134F2057FD9058440F551F59F05F3F71F0479556
S1134F30880F97FB991F61F09F3F79F0879508953B
S1134F40121613061406551FF2CF4695F1DF08C05A
S1134F50161617061806991FF1CF86957105610577
S1134F6008940895E894BB2766277727CB0197F91F
S1134F7008958ADF08F48FEF08950BD0C0CFB1DF16
S1134F8028F0B6DF18F0952309F0A2CFA7CF11249B
S1134F90EACFC6DFA0F3959FD1F3950F50E0551FDC
S1134FA0629FF001729FBB27F00DB11D639FAA277A
S1134FB0F00DB11DAA1F649F6627B00DA11D661FC9
S1134FC0829F2227B00DA11D621F739FB00DA11DEA
S1134FD0621F839FA00D611D221F749F3327A00DA4
S1134FE0611D231F849F600D211D822F762F6A2F40
S1134FF011249F5750408AF0E1F088234AF0EE0FC5
S1135000FF1FBB1F661F771F881F91505040A9F7D1
S11350109E3F510570F05CCFA6CF5F3FECF3983E06
S1135020DCF3869577956795B795F795E7959F5F38
S1135030C1F7FE2B880F911D9695879597F90895D2
S11350402F923F924F925F926F927F928F929F9294
S1135050AF92BF92CF92DF92EF92FF920F931F9382
S1135060CF93DF93CDB7DEB760970FB6F894DEBF6A
S11350700FBECDBF7C011B016A01FC0117821682A1
S1135080838181FF2AC39E012F5F3F4F3901F701BE
S11350909381F10193FD859193FF81911F018823F1
S11350A009F417C3853239F493FD859193FF8191F7
S11350B01F01853231F4B70190E051D456016501E6
S11350C0E6CF10E0512C912CFFE1F915D8F08B328A
S11350D079F038F4803279F08332A1F4F92DF0615B
S11350E02EC08D3261F0803369F4292D21602DC0EA
S11350F0392D3260932E892D8460982E2AC0E92D93
S1135100E86015C097FC2DC020ED280F2A3088F4E4
S113511096FE06C03AE0139F200D1124122F19C0E9
S11351208AE0589E200D1124522EE92DE0629E2E15
S113513010C08E3231F496FCCCC2F92DF0649F2E4F
S113514008C08C3621F4292D2068922E02C088369E
S113515041F4F10193FD859193FF81911F01811128
S1135160B3CF9BEB980F933020F4992D9061805E20
S113517007C09BE9980F933008F059C1992D9F7E81
S113518096FF16E09F73992E853619F49064992E34
S113519008C0863621F4392F3068932E02C01111CD
S11351A0115097FE07C01C3350F444244394410E1D
S11351B027E00BC0183038F027E017E005C027E0DF
S11351C09CE3492E02C0212F412C560184E0A80EF5
S11351D0B11CF6016081718182819381042DA30148
S11351E0C7D26C01F981FC87F0FF02C0F3FF06C04F
S11351F091FC06C092FE06C000E205C00DE203C0A9
S11352000BE201C000E08C858C7019F0011143C2DF
S113521080C297FE10C04C0CFC85F4FF04C08A8148
S1135220813309F44A94141474F528E0241578F5AC
S113523088E0482E2CC096FC2AC0812F90E08C1563
S11352409D059CF03CEFC3163FEFD30674F0892D07
S11352508068982E0AC0E2E0F0E0EC0FFD1FE10F39
S1135260F11D8081803319F411501111F4CF97FE90
S11352700EC044244394410E812F90E0C816D906F1
S11352802CF41C1904C04424439401C010E097FE7C
S113529006C01C141D0434F4C601019605C085E043
S11352A090E002C081E090E001110196112331F0F9
S11352B0212F30E02F5F3F4F820F931F252D30E0C9
S11352C08217930714F4581A01C0512C892D897040
S11352D041F4552031F0B70180E290E040D35A9474
S11352E0F8CF002321F0B701802F90E038D393FC4E
S11352F008C0552031F0B70180E390E030D35A94D0
S1135300F8CF97FE4AC04601D7FE02C0812C912CEB
S1135310C60188199909F301E80FF91FFE87ED8783
S1135320960124193109388B2F87012F10E011952C
S1135330019511093FEF8316930621F4B7018EE21C
S113534090E00DD3C814D9044CF08F859889881542
S1135350990524F4ED85FE85818101C080E3F1E0A7
S11353608F1A91082D853E852F5F3F4F3E872D87ED
S11353708016910624F0B70190E0F1D2DBCFC81477
S1135380D90441F49A81963320F4953319F43C8579
S113539034FF81E3B70190E048C08A81813319F07A
S11353A09C859F7E9C87B70190E0D9D2111105C0DE
S11353B094FC16C085E690E015C0B7018EE290E03B
S11353C0CED21E5F82E001E0080FF301E80FF11D69
S11353D08081B70190E0C3D2802F0113F4CFE8CFCE
S11353E085E490E0B701BBD2D7FC06C0C114D10458
S11353F041F4EC85E4FF05C0D194C194D1088DE259
S113540001C08BE2B70190E0AAD280E32AE0C21681
S1135410D1042CF08F5FFAE0CF1AD108F7CFB7018F
S113542090E09DD2B701C601C09699D249C1833696
S113543031F0833779F0833509F052C01FC056012B
S113544032E0A30EB11CF6018081898301E010E0F3
S1135450630111C05601F2E0AF0EB11CF601C08029
S1135460D18096FE03C0612F70E002C06FEF7FEF22
S1135470C6016AD28C01F92DFF7713C0560122E0D0
S1135480A20EB11CF601C080D18096FE03C0612F2C
S113549070E002C06FEF7FEFC60142D28C01F92D9C
S11354A0F0689F2EF3FD18C0852D90E008171907AA
S11354B098F4B70180E290E052D25A94F5CFF60105
S11354C097FC859197FE81916F01B70190E047D2D7
S11354D051105A94015011090115110581F7F0C0BA
S11354E0843611F0893659F5560197FE09C024E037
S11354F0A20EB11CF60160817181828193810AC080
S1135500F2E0AF0EB11CF60160817181072E000C30
S1135510880B990BF92DFF769F2E97FF09C0909564
S11355208095709561957F4F8F4F9F4FF0689F2EA8
S11355302AE030E0A30177D2C82EC6183EC0092D58
S1135540853721F40F7E2AE030E01DC0097F8F36B5
S113555091F018F4883559F0BCC0803719F08837B9
S113556011F0B7C0006104FF09C0046007C094FED5
S113557008C0066006C028E030E005C020E130E045
S113558002C020E132E0560107FF09C084E0A80E02
S1135590B11CF601608171818281938108C0F2E0BF
S11355A0AF0EB11CF6016081718180E090E0A3012F
S11355B03AD2C82EC6180F77902E96FE0BC0092D2E
S11355C00E7FC11650F494FE0AC092FC08C0092D47
S11355D00E7E05C0DC2C092D03C0DC2C01C0D12EAD
S11355E004FF0DC0FE01EC0DF11D8081803311F428
S11355F0097E09C002FF06C0D394D39404C0802F4F
S1135600867809F0D39403FD10C000FF06C01C2D5A
S1135610D51478F4150D1D190CC0D51450F4B70128
S113562080E290E09CD1D394F8CFD51410F45D18A7
S113563001C0512C04FF0FC0B70180E390E08FD16B
S113564002FF16C001FD03C088E790E002C088E5B0
S113565090E0B7010CC0802F867851F001FF02C0A2
S11356608BE201C080E207FD8DE2B70190E077D1C3
S1135670C11630F4B70180E390E071D11150F8CF36
S1135680CA94F301EC0DF11D8081B70190E067D15C
S1135690C110F6CF15C0F4E0F51550F584E0581AA2
S11356A093FE1EC0011125C02C8523FF27C004EEE4
S11356B010E0392D3071932EF8018491811121C0AD
S11356C0552009F4FCCCB70180E290E048D15A940B
S11356D0F7CFF7018681978123C08FEF9FEF20C01A
S11356E0B70180E290E03BD15A945110F9CFDACF60
S11356F0512CB701802F90E032D1D6CF08EE10E0C4
S1135700D8CF91108052B70190E029D10F5F1F4F7D
S1135710D3CF23E0251510F483E0C1CF512CC4CF9F
S113572060960FB6F894DEBF0FBECDBFDF91CF9168
S11357301F910F91FF90EF90DF90CF90BF90AF90AB
S11357409F908F907F906F905F904F903F902F909D
S11357500895A29FB001B39FC001A39F700D811D46
S11357601124911DB29F700D811D1124911D089566
S1135770283008F027E03327DA01990F311D87FD1F
S1135780916000966105710539F432602E5F3D9396
S113579030E32A95E1F708959F3F30F08038710592
S11357A0610509F03C5F3C5F3D93913008F08068EF
S11357B0911DDF93CF931F930F93FF92EF92192FB5
S11357C0987F9695E92F96959695E90FFF27EA5BC2
S11357D0FE4F99273327EE24FF24A701E701059004
S11357E00894079428F4360FE71EF81E491F511D2C
S11357F0660F771F881F991F0694A1F705900794D9
S113580028F4E70EF81E491F561FC11D770F881F85
S1135810991F661F0694A1F70590079428F4F80EC3
S1135820491F561FC71FD11D880F991F661F771F59
S11358300694A1F70590079420F4490F561FC71F3B
S1135840D81F990F661F771F881F0694A9F78491A4
S11358501095177041F0D695C79557954795F794CD
S1135860E7941A95C1F7ECEEF0E068941590159161
S113587035916591959105907FE27395E118F10A50
S1135880430B560BC90BD009C0F7E10CF11E431FA3
S1135890561FC91FD01D7EF4703311F48A95E6CFCC
S11358A0E894015030F0080F0AF40027021708F4B6
S11358B0202F2395022F7A3328F079E37D932A95BC
S11358C0E9F710C07D932A9589F606949795679514
S11358D0379517951794E118F10A430B560BC90B2A
S11358E0D00998F023957E9173957A3308F070E38C
S11358F07C932013B8F77E9170617D9330F083958B
S113590071E37D9370E32A95E1F71124EF90FF9002
S11359100F911F91CF91DF91992787FD909508955D
S1135920FC010590615070400110D8F78095909566
S11359308E0F9F1F0895FB01DC0102C001900D92A0
S113594041505040D8F70895FC01615070400190D7
S11359500110D8F7809590958E0F9F1F08950F938F
S11359601F93CF93DF93FB01238121FD03C08FEFAE
S11359709FEF2CC022FF16C04681578124813581B8
S11359804217530744F4A081B1819D012F5F3F4F1B
S1135990318320838C93268137812F5F3F4F378358
S11359A0268314C08B01EC01FB010084F185E02DFA
S11359B01995892BE1F6D80116968D919C9117972C
S11359C0019617969C938E931697CE01DF91CF91F3
S11359D01F910F9108950F931F93CF93DF93CDB72A
S11359E0DEB72E970FB6F894DEBF0FBECDBF8C0185
S11359F086E08C831A8309838FEF9FE79E838D83D0
S1135A00CE0101961DDBEF81F885E00FF11F1082B6
S1135A102E960FB6F894DEBF0FBECDBFDF91CF91A7
S1135A201F910F910895FA01AA27283051F12031CE
S1135A3081F1E8946F936E7F6E5F7F4F8F4F9F4F1E
S1135A40AF4FB1E03ED0B4E03CD0670F781F891F60
S1135A509A1FA11D680F791F8A1F911DA11D6A0F2E
S1135A60711D811D911DA11D20D009F468943F91E1
S1135A702AE0269F11243019305D3193DEF6CF01E0
S1135A800895462F4770405D4193B3E00FD0C9F7A6
S1135A90F6CF462F4F70405D4A3318F0495D31FD13
S1135AA04052419302D0A9F7EACFB4E0A695979566
S1135AB0879577956795BA95C9F70097610571053C
S1135AC008959B01AC010A2E069457954795379586
S1135AD02795BA95C9F7620F731F841F951FA01DE0
S1095AE00895F894FFCFC5
S1135AE60100000100000000000100415251004D78
S1135AF66F76656D656E7400436F6D6D0052414D32
S1135B06206661696C0A0041726475696E6F0041B2
S1135B16055305660578058A059C05AF05C105D3B9
S1135B2605E605F8050A061C062F06410653066512
S1135B360678068A069C06AF06C106D306E506F86D
S1135B46060A071C072F0741075307650778078AC4
S1135B56079C07AE07C107D307E507F8070A081C21
S1135B66082E0841085308650878088A089C08AE78
S1135B7608C108D308E508F7080A091C092F0941D2
S1135B86095309650978098A099C09AF09C109D32A
S1135B9609E509F8090A0A1C0A2E0A410A530A6584
S1135BA60A780A8A0A9C0AAE0AC10AD30AE50AF8DE
S1135BB60A0A0B1C0B2E0B410B530B650B770B8A36
S1135BC60B9C0BAE0B49444C45004672616D655205
S1135BD66561646572005561727453656E645461DF
S1075BE6736B0000D9
S9030000FC
