S00C0000546573742E7372656378
S113000020C100003FC100003DC100000C947815E0
S11300100C9467150C94891535C1000033C1000098
S113002031C100002FC100002DC100002BC1000010
S113003029C1000027C1000025C1000023C1000020
S113004021C100001FC100001DC100001BC1000030
S113005019C1000017C1000015C1000013C1000040
S113006011C100000FC100000DC100000BC1000050
S113007009C1000007C1000005C1000003C1000060
S11300800C943219FFC00000FDC00000FBC000004A
S1130090F9C00000F7C00000F5C00000F3C0000084
S11300A0F1C00000EFC00000EDC00000EBC0000094
S11300B0E9C00000E7C00000E5C00000E3C00000A4
S11300C0E1C00000DFC00000DDC000000C94C72FB9
S11300D0D9C00000D7C00000D5C00000D3C00000C4
S11300E0D1C00000084AD73B3BCE016E84BCBFFDA3
S11300F0C12F3D6C74319ABD56833DDA3D00C77FF4
S113010011BED9E4BB4C3E916BAAAABE000000808C
S11301103F05A84CCDB2D44EB93836A9020C50B91B
S1130120918688083CA6AAAA2ABE000000803F0047
S11301306E616E00696E660000407A10F35A00A08A
S1130140724E18090010A5D4E80000E8764817009C
S113015000E40B54020000CA9A3B000000E1F505DC
S1130160000080969800000040420F000000A08626
S113017001000000102700000000E8030000000058
S11301806400000000000A000000000001000000FC
S113019000002C76D888DC674F0823DFC1DFAE5916
S11301A0E1B1B796E5E3E453C63AE651997696E8A9
S11301B0E6C28426EB898C9B62ED407C6FFCEFBC2D
S11301C09C9F40F2BAA56FA5F490055A2AF75C9358
S11301D06B6CF9676DC11BFCE0E40D47FEF520E68E
S11301E0B500D0ED902E0300943577050080841E71
S11301F0080000204E0A000000C80C333333330FCC
S1130200986E12831141EF8D2114893BE65516CF68
S1130210FEE6DB18D1844B381BF77C1D901DA4BB74
S1130220E424203284725E228100C9F124ECA1E529
S11302303D27CDE6DAE188818230F0F30E94591837
S1130240FACF11241FBECFEFD1E2DEBFCDBF00E055
S11302500CBF17E0A0E0B2E0E6E0F2E700E00BBF7D
S113026002C007900D92AA31B107D9F72BE1AAE198
S1130270B7E001C01D92A03EB207E1F70E94C0148E
S11302800C940139BDCECF93DF936BE374E081E02E
S11302900E94221710921B0710921A07CCE1D7E094
S11302A08DE8FE0111928A95E9F781E00E94861992
S11302B09093A6078093A5071882DF91CF910895A4
S11302C080911C07811116C0ECE1F7E0168E158EA3
S11302D0168A158A14A213A212A211A2178E148EC2
S11302E0128E118E138E1092A8071092A70791E018
S11302F0908308958FEF0895CF92DF92EF92FF924B
S11303000F931F93CF93DF931F92CDB7DEB769018D
S1130310E82EF12C9DE8899F80011124045E184F7A
S113032083E0F8018083508F478B60A382E0898348
S11303300E94422BF801E557FF4F918380830E946E
S11303407D2E21E030E0AE014F5F5F4F61E0F801A8
S113035080A10E942D17B60181E00E94FB2B672B20
S1130360682B692B61F48DE88E9DF0018F9DF00D53
S11303701124E45EF84F81E0808380E02EC080E0A9
S113038091E0A7D6009731F14DE84E9D90014F9D25
S1130390300D112440E051E0BC01C901835E984F47
S11303A05BD384E190E095D60097B1F02DE82E9DC3
S11303B080012F9D100D112444E150E0BC01C801BF
S11303C0895D984F49D3F801E45EF84F82E0808359
S11303D081E003C08FEF01C08FEF0F90DF91CF91C9
S11303E01F910F91FF90EF90DF90CF900895CF93DE
S11303F0DF93811134C020E04FEF5FEF60E070E0E5
S11304008091A5079091A6070E94741E80911C07F5
S1130410823051F060E070E08091A5079091A607CA
S11304200E94D81C80E01CC0CCE1D7E089819A816D
S11304305AD78B859C8557D781E08883EF89F88DBF
S113044060E070E080E090E0199560E070E08091F9
S1130450A5079091A6070E94D81C81E001C080E006
S1130460DF91CF910895EF92FF920F931F93CF9353
S1130470DF9300D01F92CDB7DEB75C834B8381112D
S11304807BC07B0120E04FEF5FEF60E070E0809184
S1130490A5079091A6070E94741E80911C078230C4
S11304A051F4E114F10439F00B811C81C801019766
S11304B08436910550F060E070E08091A50790913A
S11304C0A6070E94D81C80E058C00E5F1F4F2091E1
S11304D025073091260780E091E0821B930B0817D3
S11304E0190708F03FC020912F073091300784E1AD
S11304F090E0821B930B0297A8F18AE290E09A8322
S1130500898342E050E0BE016D5F7F4F8DE197E04B
S1130510B5D24B815C81B7018DE197E0AFD2011573
S11305201105B1F0902F812F0B32110510F09AE2D2
S113053080E099838A8342E050E0BE016F5F7F4F81
S113054087E297E09BD289819A81081B190B51F7A6
S113055060E070E08091A5079091A6070E94D81CE6
S11305608B810BC060E070E08091A5079091A60795
S11305700E94D81C80E001C080E00F900F900F9083
S11305800F90DF91CF911F910F91FF90EF900895FD
S1130590CF93DF931F921F92CDB7DEB7811114C0A2
S11305A080911C07823091F4662394F081E0898362
S11305B06A8322E030E0AE014F5F5F4F61E08091DB
S11305C03C070E942D1705C080E003C080E001C0F5
S11305D080E00F900F90DF91CF910895AF92BF927A
S11305E0CF92DF92EF92FF920F931F93CF93DF93FB
S11305F0CDB7DEB7AE970FB6F894DEBF0FBECDBF52
S11306008111DBC080911C07882309F4D6C020E047
S11306104FEF5FEF60E070E08091A5079091A6072F
S11306200E94741E80911C07823049F060E070E0E3
S11306308091A5079091A6070E94D81CBEC0809106
S11306403B07882309F462C0ECE1F7E0858D968DC1
S11306500A96968F858F248D265F248F893E93403A
S113066058F060E070E08091A5079091A6070E9481
S1130670D81C80E0BCDEA1C0293C08F447C0ECE1F2
S1130680F7E0078110851EA61DA6A18C838DA81AEC
S11306908A2D8F77A82EC1F1C12CD12CB12C7F01CA
S11306A01982F701838D8B0D8F778A834189528953
S11306B04C0D5D1D22E030E0BE01635D7F4F87E29B
S11306C097E08BD22DA53EA5A801BE016D5F7F4F9B
S11306D08DE197E082D22DA53EA5020F131FF701ED
S11306E0838194810197082319232E5F3F4FAE0124
S11306F04F5F5F4F61E080A10E942D17B394F2E039
S1130700CF0ED11CAB10CCCF10923807ECE1F7E040
S1130710818D482F50E0938D491B51094F77552700
S1130720443051050CF041C06581768125893689B4
S113073062177307D1F119828A838F01440F551F01
S113074081899289480F591F22E030E0BE01635D20
S11307507F4F87E297E041D22DA53EA5F801458958
S11307605689BE016D5F7F4F8DE197E036D22DA58E
S11307703EA5F80185899689A901480F591F8381EF
S11307809481019784239523968B858B81E0878FB1
S1130790818D8F5F8F77818F2E5F3F4FAE014F5FCB
S11307A05F4F61E080A10E942D1760E070E08091AE
S11307B0A5079091A6070E94D81CAE960FB6F89490
S11307C0DEBF0FBECDBFDF91CF911F910F91FF9080
S11307D0EF90DF90CF90BF90AF9008950F931F9349
S11307E0CF93DF93EA01811141C080913F0790913B
S11307F04007892B99F4DB0111968C91119790E0B5
S1130800982F88272C91822B9093400780933F0741
S11308108536910558F522976E5F7F4F0CE117E0FE
S1130820F80181A192A1AE018F5B984F0E942B38F1
S1130830D80191966D917C9192976C0F7D1F929641
S11308407C936E93919793968D919C91949768174E
S1130850790761F45796ED91FC91589781E497E0FC
S11308601995F80114A213A212A211A2DF91CF913B
S11308701F910F9108959F92AF92BF92CF92DF92F2
S1130880EF92FF920F931F93CF93DF931F92CDB7F5
S1130890DEB78B015A0190913C079813B8C0909130
S11308A01C07992309F4B3C0FB01D0800F2EFCE18F
S11308B0EF2EF7E0FF2EF02D13C0E0911A07F09110
S11308C01B07309759F0482F50E060E070E000E0DB
S11308D010E023E0CF010E94712DAAC0E12CF12C7D
S11308E020E04FEF5FEF60E070E0F701E757FF4F64
S11308F0808191810E94741EF7018081823030F0E2
S1130900A114B10419F00115110551F4F701E757C9
S1130910FF4F60E070E0808191810E94D81C88C004
S1130920833021F5F3E0DF1221C0F701E557FF4FD3
S113093080819181009781F000E010E022E040E0A6
S113094050E0BA010E94712DF701E557FF4F118263
S1130950108260E080E01CDEF701E757FF4F60E0A3
S113096070E0808191810E94D81C62C0F801C1802E
S1130970DD2009F452C0F4E0DF1213C053C0A50116
S113098042505109B8016E5F7F4F80E027DFF701C5
S1130990828D8F5F8F77828FF701628D80E0F8DD23
S11309A02CC0F1E0DF1229C0F701838DFC2DF81B68
S11309B08F2F8F77982E09F1D12C57018BE0A80E39
S11309C0B11C87010F5F1F4F42E050E0BE016F5F13
S11309D07F4FC50150D1498150E060E070E0C8010B
S11309E04AD1D3949D10F0CFF701C38E148E168E86
S11309F0158E818DC81201C0178EF701E757FF4F7E
S1130A0060E070E0808191810E94D81C11C0F801DF
S1130A10D080F2E0DF120CC050CFF701828DC812F3
S1130A20BBCFADCFF701828DC81609F4B0CFB4CFD8
S1130A300F90DF91CF911F910F91FF90EF90DF9076
S1130A40CF90BF90AF909F90089580E0C7DD8AE07B
S1130A5090E00E945825F9CFFC016115710561F001
S1130A6071836083538342831186108617821682B2
S1130A701582148281E0089580E00895EF92FF9238
S1130A800F931F93CF93DF93EC012A813B818885D9
S1130A909985F901E81BF90BE417F50708F449C037
S1130AA08A017B018C819D81A901481B590B041784
S1130AB01507A8F428813981A801820F931F0E9489
S1130AC02B388C819D81800F911F9D838C832A817B
S1130AD03B818217930721F51D821C8221C0288146
S1130AE03981820F931F0E942B388C819D816A81EA
S1130AF07B81AC01461B570B400F511F681B790BC0
S1130B006E0D7F1D888199810E942B388C819D8177
S1130B102A813B81821B930B800F911F9D838C83C1
S1130B2048855985040F151F1987088781E090E0CF
S1130B3002C080E090E0DF91CF911F910F91FF9070
S1130B40EF9008950F931F93CF93DF93FC0121152A
S1130B503105C9F1A681B78184819581A817B907A8
S1130B60A9F1C62FD72F80E090E007C0A681B781F6
S1130B7064817581A617B70759F160817181A60F49
S1130B80B71F5C918E015883668177816F5F7F4FB9
S1130B9077836683A085B1851197B187A087A281E9
S1130BA0B3816A177B0711F4178216822196D80144
S1130BB05C91541302C001960BC0019628173907A3
S1130BC0A9F6C90105C080E090E002C080E090E091
S1130BD0DF91CF911F910F910895CF92DF92EF9201
S1130BE0FF920F931F93CF93DF937C016B01EA0174
S1130BF08901672BA9F1FC0142815381C417D507F0
S1130C0010F0C41BD50B4C1B5D0B4017510760F053
S1130C10F701608171816C0F7D1FA801C6010E94DC
S1130C202B38802F912F1EC0F701608171816C0FCA
S1130C307D1FC6010E942B38F70122813381C9012F
S1130C408C1B9D0BA801421B530B4C0F5D1F608135
S1130C5071818C0D9D1D0E942B38802F912F02C015
S1130C6080E090E0DF91CF911F910F91FF90EF9082
S1130C70DF90CF900895EF92FF920F931F93CF933D
S1130C80DF93EC017B01088519854017510708F4AF
S1130C908A018E819F814A815B81481B590B4017D1
S1130CA05107C8F0E114F10441F068817981680FBB
S1130CB0791FA801C7010E942B388E819F81800F64
S1130CC0911F9F838E832A813B818217930741F56D
S1130CD01F821E8225C0E114F104C1F0688179816C
S1130CE0680F791FC7010E942B384E815F812A81CA
S1130CF03B81C901841B950B421B530B400F511FB1
S1130D00688179818E0D9F1D0E942B388E819F8171
S1130D102A813B81821B930B800F911F9F838E83BB
S1130D2088859985801B910B99878887C801DF91F5
S1130D30CF911F910F91FF90EF900895EF92FF9242
S1130D400F931F93CF93DF937C01680F791FFC01EE
S1130D503196009719F04115510521F460E070E0D7
S1130D6081E04BC02115310559F1E617F70760F50D
S1130D708A01020F131FDA01EC0191E02FEF04C086
S1130D80FA01E617F70720F53D9131110AC098835F
S1130D90CF010196A017B107E8F4EF01FC0191E03F
S1130DA0F0CFAF014F5F5F4F30839F5FA017B10754
S1130DB0B0F49F3F29F728833296EA0191E0E1CF0E
S1130DC0EC0180E091E00DC0EC0182E091E009C00B
S1130DD082E007C0EF01FC0180E091E002C0FA016B
S1130DE080E0C617D70718F49883BF0101C082E0DA
S1130DF09B012E193F09622F732FDF91CF911F9111
S1130E000F91FF90EF900895AF92BF92CF92DF922F
S1130E10EF92FF920F931F93CF93DF937C01DA013C
S1130E20009711F0109721F460E070E081E05FC05A
S1130E302115310509F44BC06A01C20ED31E5C01B1
S1130E40A60EB71E8C0150E001C08F01ED01219662
S1130E507C91711103C05460F8013DC07150C6010A
S1130E608C1B9D0B272F30E08217930710F4782FEB
S1130E705860C501801B910B272F30E08217930720
S1130E8010F4782F5260772361F1DE01F801972F77
S1130E903D91311101C0546031939150C9F7EFEF86
S1130EA0E70FF0E03196DE01AE0FBF1FE00FF11F38
S1130EB0AC15BD0580F47E3F41F2EA15FB0510F048
S1130EC0526009C08F010F5F1F4F1082BFCFFC011A
S1130ED050E001C0F801EE19FF096E2F7F2F852F16
S1130EE006C0CC15DD05B0F7F801DE01E6CFDF91D1
S1130EF0CF911F910F91FF90EF90DF90CF90BF9013
S1130F00AF900895EF92FF920F931F93CF93DF93C7
S1130F107C01EB018A018CE30E94912E83E00E9404
S1130F20B62E0E94DE2E8DE30E94912E0E94C82EC2
S1130F30F701108281830E94C82EF701208131813C
S1130F40282B318320830E94C82EF80110828183CC
S1130F500E94C82EF80120813181282B31832083FF
S1130F600E94C82E188289830E94D32E2881398139
S1130F70282B398328830E94DE2EDF91CF911F9185
S1130F800F91FF90EF900895862798E02CE880FF5A
S1130F9003C08695822701C086959150C1F70895B4
S1130FA00F931F93CF93DF93662359F08C01EC01C9
S1130FB0060F111D80E06991E7DFC017D107D9F74B
S1130FC001C080E0DF91CF911F910F91089580B30C
S1130FD080BBECE7F0E08081806C8083EAE7F0E09E
S1130FE08081806880838081846080830895ECE7B9
S1130FF0F0E080839081906C9083EAE7F0E0908148
S113100090649083908196FDFDCF2091780090911B
S11310107900E82FF0E02695269530E4939FC001EF
S11310201124822BFE2FEE27E050FF4FE80FF11D15
S113103080810895CF92DF92EF92FF92CF93DF9356
S1131040EC01C880D980EA80FB802BED3FE049E4C5
S113105050E4C701B6010E94AA3218166CF42BEDB5
S11310603FE049EC50E4C701B6010E943330688385
S113107079838A839B8316C02BED3FE049E450ECCF
S1131080C701B6010E94FA30882364F42BED3FE0D7
S113109049EC50E4C701B6010E9434306883798377
S11310A08A839B8388819981AA81BB81BC01CD01FC
S11310B09F772BED3FE049E450E40E94AA321816D2
S11310C00CF4BFCFDF91CF91FF90EF90DF90CF90E2
S11310D00895EF92FF920F931F93CF93DF93EC0148
S11310E00E94C1278091AF079091B007892B41F5E9
S11310F0E1EBF7E0A5EBB7E0B183A08313821282A2
S1131100E1EBF9E1F093B007E093AF0713821282A9
S1131110118210828CEF91E113969C938E93129717
S1131120ED93FC939093AC078093AB079093AE0739
S11311308093AD0780E090E89093AA078093A90775
S11311408091A9079091AA078C239D23892B09F0EC
S1131150B2C0209709F4B2C0AE014C5F5F4F09F4EE
S1131160B0C08091AD079091AE078417950708F43D
S1131170ABC0E091B107F091B207A1EBB7E002C0B8
S1131180DF01F901228133812417350728F42081F6
S1131190318121153105A1F76091AF077091B00736
S11311A0E617F70709F493C0CD91DC9111977E01FE
S11311B084E0E80EF11C808191818D939C9382815F
S11311C09381841B950B8930910508F452C09F01CB
S11311D0240F351FD90113969C938E931297538332
S11311E04283A1EBB7E001C0DC018D919C91119782
S11311F082179307C8F312964D915C9113978D0152
S1131200040F151F2017310751F4E9012A813B818E
S1131210420F531F13965C934E9312979D01E9015D
S11312204A815B818901040F151F80179107C9F456
S11312306017710791F0E8018A819B81480F591F5B
S1131240E9015B834A838D919C911197EC0188811C
S11312509981E9019983888307C0E90179836883C7
S113126003C0E90199838883A217B30711F02D9372
S11312703C93228133818091AD079091AE07821B0C
S1131280930B9093AE078093AD074091AB075091B9
S1131290AC078417950720F49093AC078093AB07B1
S11312A08091A9079091AA07282B392B3383228395
S11312B0118210820EC0E12CF12C0BC0E12CF12C18
S11312C008C0E12CF12C05C0E12CF12C02C0E12C6A
S11312D0F12C0E94C727C701DF91CF911F910F9175
S11312E0FF90EF900895CF93DF93009709F468C0BF
S11312F0FC013497228133814091A9075091AA07B8
S1131300B90164237523672B09F45AC06081718184
S1131310672B09F055C0EF014095509524233523E0
S1131320338322830E94C1274A815B818091AD0768
S11313309091AE07840F951F9093AE078093AD07ED
S1131340E1EBF7E001C0FC01808191818C179D07DE
S1131350D0F322813381BF01620F731FC617D707F1
S113136029F4240F351F33832283EF012A813B8123
S1131370DE01A20FB31F8A179B07C9F48091AF0740
S11313809091B007A817B90779F012968D919C91A6
S11313901397280F391F3B832A83A081B1818D9134
S11313A09C919983888305C0B983A88302C09983DB
S11313B08883EC17FD0711F0D183C0830E94C727EF
S11313C0DF91CF910895EF92FF920F931F93CF93E4
S11313D0DF93EC01E42E2898862F80680E949A22DD
S11313E0EE20B1F00FEF0E0D10E00F5F1F4F0C0F4A
S11313F01D1FF12C80E00E949A228F3F09F4F39480
S113140089930C171D07B1F7FE1004C085E003C0D3
S113141085E001C080E0289ADF91CF911F910F9160
S1131420FF90EF900895CF93DF93EC012898862FD7
S113143080680E949A2280E00E949A22289A8F3F14
S113144011F495E001C090E08883892FDF91CF915A
S11314500895CF93DF931F921F92CDB7DEB7EDE0CF
S1131460FBE181E0808324EF31E03283218322E8B1
S113147036E03483238320E931E0368325831782E1
S113148010868187828720E130E0348723872DE02E
S113149030E03687258722E330E0308B2787118AB6
S11314A0128A838B848B88EB9BE0968B858B8AE0F6
S11314B090E0908F878B118E1092281B1092271B1F
S11314C010922A1B1092291B0E948C22209A289A7F
S11314D0198220E137E289818F5F898321503109A4
S11314E0D1F76FE0CE0102969EDF8A818936C9F773
S11314F080E00F900F90DF91CF9108950F931F9389
S1131500CF93DF931F921F92CDB7DEB78C0142E0D9
S1131510CE01019658DF2A8130E0322F22279981AB
S1131520292BF801318320830F900F90DF91CF9105
S11315301F910F910895CF93C62F28980E949A2245
S11315408C2F0E949A22289A80E0CF9108951F93AD
S1131550CF93DF931F921F92CDB7DEB7198279DF45
S1131560182F19828091161B813009F083C0809155
S11315701C1B90911D1B8436910541F0883C9105FC
S113158041F0C29741F483E0898305C082E08983F6
S113159002C081E089838091181B9091191B8430CB
S11315A0910531F08830910539F0029749F40BC068
S11315B089818860898307C089818C60898303C09D
S11315C089818460898380911A1B90911B1B803AC6
S11315D021E09207C1F170F48A31910521F118F4E8
S11315E00D97E9F028C08433910509F1803D9105F8
S11315F031F121C082302DE0920789F140F4813429
S113160023E0920721F18C37964029F114C08430ED
S11316102AE1920741F18231944349F10CC0898156
S11316208061898327C089818062898323C08981FD
S1131630806389831FC08981806489831BC08981F9
S11316408065898317C089818066898313C08981F5
S1131650806789830FC08981806889830BC08981F1
S11316608069898307C08981806A898303C08981ED
S1131670806B8983698180E15EDF63E1CE0101963D
S1131680D2DE89818F7789839091171B913011F471
S113169080688983698183E14EDF198280910D1B03
S11316A0813009F05BC080910E1B90910F1B853F28
S11316B09105C1F020F48D37910549F011C0843FA4
S11316C021E0920739F0883E934039F009C082E066
S11316D0898308C084E0898305C088E0898302C0C7
S11316E08CE089838091101B9091111B803D9105A2
S11316F031F148F48A319105B1F084339105B9F0A0
S11317000D97C9F40CC0813423E0920701F18C37A2
S113171026E0920701F1803A914069F414C089816E
S1131720806189831BC089818062898317C0898114
S11317308063898313C08981806489830FC0898110
S1131740806589830BC089818066898307C089810C
S11317508067898303C0898180688983698181E185
S1131760EADE6FE0CE0102965EDE812F0F900F90CD
S1131770DF91CF911F910895CF93DF931F921F9212
S1131780CDB7DEB766E2CE010196B8DE8823A9F0B4
S1131790853051F48091271B9091281B01969093DA
S11317A0281B8093271B09C08091291B90912A1B19
S11317B0019690932A1B8093291B89819A810F900B
S11317C00F90DF91CF910895CF92DF92EF92FF9225
S11317D0CF93FC0140910E1B50910F1B453F5105C7
S11317E0B1F09A01A5E2B6E00E942537481B590BD7
S11317F056954795840F951F0024880F991F001C48
S1131800880F991F001C892F902DC82F01C0C2E09A
S1131810BF01FF0F880B990B0E949C3120E030E040
S11318204CE850E40E94B5326B017C016C2F70E0EF
S113183080E090E00E949C319B01AC01C701B6019D
S11318400E94B53220E030E04AE754E40E940131BE
S1131850CF91FF90EF90DF90CF9008958DDFB4CFBC
S11318600895EAE0F1E08081876080830895823002
S1131870910531F4EBE0F1E0808184608083089588
S11318808130910531F4EBE0F1E080818260808366
S11318900895892B29F4EBE0F1E080818160808355
S11318A008958230910531F4EBE0F1E080818B7F83
S11318B0808308958130910531F4EBE0F1E080817B
S11318C08D7F80830895892B29F4EBE0F1E08081FA
S11318D08E7F808308958230910539F4EBE0F1E046
S11318E0908184E08927808308958130910539F4BB
S11318F0EBE0F1E0908182E0892780830895892BD1
S113190031F4EBE0F1E0908181E089278083089550
S1131910FC010396928381832FEF3FEF348323836B
S1131920968385839087878310820895FC011186AE
S113193010860895CF93DF939C01FB01DC0111967F
S1131940CD91DC911297D383C2838C819D81958341
S113195084838C819D81DC0113967C936E93129712
S11319607D836C8331872087F90180818F5F808339
S1131970DF91CF910895CF93DF93EB014881598193
S11319804F3F2FEF520721F4FC01A781B0850DC012
S1131990DC01139601C0DF011296ED91FC911397BF
S11319A02081318142175307B0F71296ED91FC91D3
S11319B01397FB83EA83D583C483BD83AC831396D7
S11319C0DC93CE93129799878887FC0120812F5F3F
S11319D02083DF91CF910895CF93DF93FC01A085FD
S11319E0B185C281D381848195819D838C83C48197
S11319F0D581828193819B838A8311968D919C9159
S1131A001297E817F90731F48481958112969C9313
S1131A108E931197118610868C9181508C93DF914F
S1131A20CF910895CF93DF9300D000D0CDB7DEB728
S1131A30FE01319686E0DF011D928A95E9F70E9446
S1131A402620A12CB12CC12CD12CE12CF12C03E0AB
S1131A5020E030E048EC50E06BE076E085E295E091
S1131A600E94A122813019F080E090E000DF0E9402
S1131A702F20182F88EE93E00E94582582E090E0F2
S1131A802ADF1123A1F30E943B200F2EF7E3EF2E50
S1131A90FBE1FF2EF02D01E00F2EF0EC6F2EFEEF98
S1131AA07F2EF02D6894882486F89924939420E05E
S1131AB04FEF5FEF60E070E08091331B9091341B37
S1131AC00E94741E813099F70E94C1270FB6F894C2
S1131AD00F92F7011081C180D280A380B4800F904F
S1131AE00FBE0E94C727153009F465C030F41230C8
S1131AF0B1F0143009F445C0DACF173009F463C0EB
S1131B0018F0183049F0D3CF0FB6F8940F92009321
S1131B10C2190F900FBECBCF0E944421C8CFB6018B
S1131B20DD0C880B990B0E949C31F1E4AF16F1E0B7
S1131B30BF061CF09E828D820AC020ECA2162EEFF6
S1131B40B2061CF0BE82AD8202C07E826D8225E3A5
S1131B503AEF4EE85CE30E94B53269837A838B8363
S1131B609C83CE01019666DA20E044E650E0BE0193
S1131B706F5F7F4F8091C9199091CA190E94081B09
S1131B8096CF0FB6F8940F920093C1190F900FBE21
S1131B901E821D8219821A821B821C8220E044E666
S1131BA050E0BE016F5F7F4F8091C9199091CA19AF
S1131BB00E94081B7CCF0FB6F8940F921092C119A3
S1131BC00F900FBE74CF0FB6F8940F921092C219F3
S1131BD00F900FBE6CCFCF93DF931F921F92CDB7A0
S1131BE0DEB70E9402299A83898364E170E0CE0102
S1131BF001960E94B523F9CFCF93DF93CDB7DEB71B
S1131C002F970FB6F894DEBF0FBECDBF1982F12C0B
S1131C103324339410E06894DD24D2F868942224A9
S1131C2022F80EC00F2EF3E0DF2EF02D09C00F2E88
S1131C30F3E0DF2EF02D04C00F2EF3E0DF2EF02DA5
S1131C408091C219813009F006C18091C1198111B6
S1131C5002C10E9402299B838A8320E046E950E066
S1131C60BE016F5F7F4F8091C7199091C8190E9480
S1131C70741E8130D9F48981882319F08330A8F443
S1131C8008C0139D102D1124FF24F394332433949E
S1131C900DC08DEC189F112D112416951695F12C5D
S1131CA00F2EF5E03F2EF02D01C0F12C139D802D59
S1131CB011240E94682168EC70E0CE0102960E9413
S1131CC0B52380E094D98E8781E091D9E82E83E012
S1131CD08ED9C82E82E08BD98F8720E048E250E06D
S1131CE060E070E08091351B9091361B0E94741E59
S1131CF08091BD199091BE19A091BF19B091C019DE
S1131D008A879B87AC87BD87A090BB19B090BC190C
S1131D106090B9197090BA1960E070E08091351B39
S1131D209091361B0E94D81C9AE09F1540F489813B
S1131D30811105C00E94E320FF24F39406C0FF2014
S1131D4021F08981811101C0F394432C512C149DFD
S1131D504001159D900C112420E030E044E353E44D
S1131D606A857B858C859D850E94B5322BED3FE08D
S1131D7049E450E40E9401310E9469316A877B87FB
S1131D808C879D87C3016AE070E00E941237FB01D3
S1131D90C5016AE070E00E941237CB01AF840E8562
S1131DA094014A855B85BF010E94A120AFE18A1698
S1131DB0910434F0BCE38B169104C4F0AF84AE8676
S1131DC08E858150833190F41C821D821E821F8275
S1131DD01986188620E044E650E0BE016C5F7F4F10
S1131DE08091C9199091CA190E94081B8BE5881625
S1131DF091049CF494E0D91210C08981833008F0D6
S1131E0040C01F5F149D4001159D900C1124AAE54C
S1131E108A1691040CF006CF15C01814190434F571
S1131E20B3E0DB1228C08981833008F009CF115058
S1131E30149D4001159D900C112404C084E0D81613
S1131E4009F4F5CE181419040CF4FACE93E0D9125F
S1131E50F7CED22CF5CE80E00E94682184E690E093
S1131E600E945825F12C10E0D22CEACEAAE58A165D
S1131E70910464F30AC0BAE58B1691040CF4E0CE25
S1131E80DDCF18141904BCF3F1CF84E0D81609F49B
S1131E90D3CEDCCFCF93DF93CDB7DEB7AB970FB6FE
S1131EA0F894DEBF0FBECDBFFE01319686E0DF01A0
S1131EB01D928A95E9F71F82198618861B861A8651
S1131EC01C861D861A8EB1E0BBA71FA218A619A6F0
S1131ED01AA61BA21CA21DA21EA21F8E18A219A222
S1131EE01AA21B8E1C8E1D8E1E8E8091C2198823F1
S1131EF0E1F3F8944091C3191092C3191091C419D5
S1131F001092C4197894BE01685F7F4F8C8510D7F6
S1131F10412FBE01665F7F4F8D8521D720E041E0D0
S1131F2050E060E070E080912F1B9091301B0E9484
S1131F30741E888599859093B6198093B5198A85FE
S1131F409B859093B8198093B71960E070E08091F5
S1131F502F1B9091301B0E94D81C20E04FEF5FEFA5
S1131F6060E070E080912D1B90912E1B0E94741EE6
S1131F70813009F0BACF20E04FEF5FEF60E070E00E
S1131F808091351B9091361B0E94741E4090BD19A0
S1131F905090BE196090BF197090C0190091BB1980
S1131FA01091BC192090B9193090BA1960E070E012
S1131FB08091351B9091361B0E94D81C20E040E094
S1131FC050E0BE016F5F7F4F8091C9199091CA198B
S1131FD00E94741E813009F073C020E044E150E097
S1131FE0BE016F5F7F4F8091C9199091CA190E94F9
S1131FF0741E8D819E81BC01660F771F880F991F07
S1132000880F991F880F991F680F791F7E836D832E
S1132010072E000C880B990B0E949C316A8B7B8BDA
S11320208C8B9D8B29813A814B815C81C301B201E8
S11320300E9434306B017C010E94FE306E8B7F8BDA
S1132040888F998FB801012E000C880B990B0E9480
S11320509C314B015C012E893F89488D598D6A89D9
S11320607B898C899D890E94B5329B01AC01C50195
S1132070B4010E9434306B8F7C8F8D8F9E8FC7018B
S1132080B6010E9418334B015C01B101032C000C12
S1132090880B990B0E949C316B017C01A501940172
S11320A06A897B898C899D890E94B5329B01AC0128
S11320B0C701B6010E9434306F8F78A389A39AA315
S11320C0B801110F880B990B0E949C319B01AC0144
S11320D06B8D7C8D8D8D9E8D0E9433306A8B7B8BB6
S11320E08C8B9D8BB101330C880B990B0E949C3116
S11320F09B01AC016F8D78A189A19AA10E94333014
S11321006B017C012A893B894C895D89CA01B9012B
S11321100E94B5324B015C01A7019601C701B601CB
S11321200E94B5326E8B7F8B888F998F2E893F8961
S1132130488D598DC501B4010E9434300E94223368
S11321404B015C0120E030E04AEF53E40E94FA3096
S11321508823C4F420E030E048E852E4C501B40127
S11321600E94B53220E030E04AEF53E40E9401318E
S113217020E030E040E052E40E9434300E946E31AE
S1132180062F01C004E620E030E040E751E4C50139
S1132190B4010E94AA3218160CF04EC12A893B8958
S11321A04C895D89C701B6010E94A730A301920141
S11321B00E9433306E877F87888B998BCE010E9671
S11321C00E941A084E845F8468887988530142010A
S11321D0E894B7F829E134E046E05FE3C501B401CF
S11321E00E94AA3218160CF4ACC022E73AE84EE872
S11321F05CE3C501B4010E94FA30882324F08BA566
S1132200811103C09EC0A1E0ABA720E030E0A9018A
S1132210C301B2010E94AA328823BCF110E0B801C4
S1132220012E000C880B990B0E949C316B017C01E0
S113223020E030E046E154E4C501B4010E94B53227
S11322409B01AC01C701B6010E9433306B017C01D4
S113225020E030E040E251E46BA17CA18DA19EA17D
S11322600E94B5329B01AC01C701B6010E94333014
S11322700E946931061717070CF441C07B017723CC
S11322800CF040C0E12CF12C3DC0E02EF12CB70144
S11322900F2C000C880B990B0E949C316A8B7B8B52
S11322A08C8B9D8B20E030E046E154E4C501B40101
S11322B00E94B5329B01AC016A897B898C899D8916
S11322C00E9433304B015C0120E030E040E251E4F5
S11322D06FA178A589A59AA50E94B5329B01AC018E
S11322E0C501B4010E9433300E946931E616F70635
S11322F044F08B01772334F400E010E003C078014C
S113230001C08701A30192016BA17CA18DA19EA1B3
S11323100E9434306BA37CA38DA39EA3A3019201DE
S11323206FA178A589A59AA50E9433306FA378A7D9
S113233089A79AA7B6E0BD8784E08C87A1E0AF8324
S113234070C020E030E0A901C301B2010E94AA32AA
S11323508823A4F12EEA37E441E65EE3C501B40123
S11323600E94B5322AE939E949E95EE30E94343032
S11323704B015C0120E030E046E952EC0E94B532AA
S11323800E9469317B01B5E0BC8720E030E046E97A
S113239052E4C501B4010E94B5320E9469318B0137
S11323A086E08D87A4E0AF831BA61FA218A619A6FA
S11323B01AA61BA21CA21DA21EA233C02EEA37E439
S11323C041E65EE3C501B4010E94B5322AE939E968
S11323D049E95EE30E9434304B015C0120E030E0C7
S11323E046E952E40E94B5320E9469317B01B4E0AF
S11323F0BC8720E030E046E952ECC501B4010E94FC
S1132400B5320E9469318B0185E08D87A3E0AF83EB
S11324101BA61FA218A619A61AA61BA21CA21DA2BF
S11324201EA29E01235F3F4FAE01445F5F4FB80180
S1132430C70157D41A8E0AC0BA8DB11104C00E94C4
S1132440E32081E08A8F39D43DD41F8220E040E02C
S113245050E0BE01695F7F4F8091C7199091C81900
S11324600E94081B42CDCF93DF93CDB7DEB7E1972F
S11324700FB6F894DEBF0FBECDBF19821A821B823D
S11324801C820E9402299E838D831DA61EA61FA660
S113249018AA19A21AA21BA21CA21D8E1E8E1F8E80
S11324A018A21D8A1E8A1F8A188E198A1A8A1B8AE4
S11324B01C8A612C712C1A8E198E412C312C212CE2
S11324C0512C68E270E0CE0105960E94B5238091FC
S11324D0C219882309F4F0C120E04FE050E060E025
S11324E070E080912F1B9091301B0E94741E80918C
S11324F0B5199091B6199EA38DA38091B7199091A7
S1132500B81998A78FA360E070E080912F1B909179
S1132510301B0E94D81C6DA17EA1898D9A8D681BE9
S1132520790B072E000C880B990B0E949C3128EF25
S113253033E543E25FE30E94B5324B015C016FA1D6
S113254078A566197709072E000C880B990B0E9451
S11325509C3128EF33E543E25FE30E94B5326B011F
S11325607C019B01AC01C501B4010E94343020E020
S113257030E040E05FE30E94B532698F7A8F8B8F41
S11325809C8FA5019401C701B6010E94333020E05D
S113259030E043E153E40E9401314B015C015ED918
S11325A02D8D3E8D4F8D58A10E9433306B017C01DF
S11325B09F7720E030E040E251E40E94FA30882323
S11325C06CF091E099AB1AE909E90F2EF9E57F2E39
S11325D0F02D0F2EFFE36F2EF02D05C019AA142D38
S11325E0032D722C652C212F302F472D562D60E0A2
S11325F070E080E89FE30E943330A50194010E94BB
S1132600B5324B015C0124ED32E047E35AE3C701E4
S1132610B6010E94B532212F302F472D562D0E942E
S1132620B532A50194010E94343069A77AA78BA71B
S11326309CA7C980DA80EB80FC8020E030E040E099
S11326405FE30E94B532A70196010E9434304B012A
S11326505C010E94FE309B01AC01698D7A8D8B8DEB
S11326609C8D0E94B5329B01AC0169897A898B8962
S11326709C890E943430698B7A8B8B8B9C8BC5012F
S1132680B4010E9418339B01AC01698D7A8D8B8D46
S11326909C8D0E94B5329B01AC016D897E898F8926
S11326A0988D0E9434306D8B7E8B8F8B988FA70111
S11326B0960169A57AA58BA59CA50E9434306983EF
S11326C07A838B839C832FEE3CED4BE25BE36DA519
S11326D07EA58FA598A90E9434304B015C01AE0100
S11326E0455F5F4FBE01635F7F4FCE010F960E942F
S11326F082076F857889655F7F4F788B6F870D853B
S11327001E850E5411091E870D87072E000C880B99
S1132710990B0E949C316B017C01B801110F880B4D
S1132720990B0E949C31A70196010E94A73029A110
S11327303AA14BA15CA10E94333029813A814B819B
S11327405C810E9433306F83788789879A87CE01B2
S113275007960E941A088F819885A985BA85BC01BD
S1132760CD019F7720EB3BEF4EE05DE30E94AA3260
S1132770181644F481E090E094D8142D032DF22C23
S1132780E52C2CC089A9811122C0242D332D422D82
S1132790552D698D7A8D8B8D9C8D0E94FA30811117
S11327A016C021E230EB42EB5EE3C501B4010E94A6
S11327B034309B01AC01C501B4010E940131162FD4
S11327C0072FF82EE92E81E090E051D807C081E070
S11327D090E067D8142D032DF22CE52C2F81388539
S11327E049855A85612F702F8F2D9E2D0E94B532F9
S11327F09B01AC0169817A818B819C810E94343078
S113280069837A838B839C83CE0101960E941A0884
S1132810212F302F4F2D5E2D60E070E080E89FE384
S11328200E943330A50194010E94B5326DA77EA7A2
S11328308FA798AB20E04FE050E060E070E080911B
S1132840351B9091361B0E94741E89819A81AB813D
S1132850BC818093BD199093BE19A093BF19B09306
S1132860C01969897A898B899C890E94693170931E
S1132870BC196093BB196D897E898F89988D0E94DC
S113288069317093BA196093B91960E070E080916E
S1132890351B9091361B0E94D81C60E070E080913B
S11328A02D1B90912E1B0E94D81C6FA078A48DA183
S11328B09EA19A8F898F05CE05E610E0C42CD32CF7
S11328C0E22CF52C0E942E0C9B01AC016C2D7D2D6D
S11328D08E2D9F2D0E943430C62ED72EE82EF92E31
S11328E00150110979F7AE01495F5F4FBE01655F81
S11328F07F4FCE010D960E9482076D857E85655FB0
S11329007F4F0B851C850E541109842D932DA22D08
S1132910B52D89839A83AB83BC83072E000C880B67
S1132920990B0E949C314B015C01B801110F880B7B
S1132930990B0E949C31A50194010E94A73069A3C0
S11329407AA38BA39CA320E030E04AEC52E46C2DE4
S11329507D2D8E2D9F2D0E9401316D8F7E8F8F8F47
S113296098A34D8A3E8A2F8A588E498A3A8A2B8A9E
S11329705C8AA7CDF89480E090E00E946B0CFBCFBA
S11329800E94310C80E090E00E94370C0E94512F8D
S113299054D20E94430184E190E20E94002280E02C
S11329A00E9478210E94E70705D10E94A70A40E00F
S11329B061E082E059D49093CC198093CB1940E024
S11329C066E081E051D49093CA198093C91940E01C
S11329D061E081E049D49093C8198093C71940E01D
S11329E061E082E041D49093C6198093C51981E0D7
S11329F08DD49093361B8093351B81E087D49093BC
S1132A00321B8093311B81E081D49093301B8093DF
S1132A102F1B43E060E081E027D490932E1B80932A
S1132A202D1B43E060E081E01FD49093341B80931E
S1132A30331BA12CB12CC12CD12CE12CF12C04E0A2
S1132A4020E030E04CE251E06FE076E08BEE9DE078
S1132A500E94A12203E020E030E04CE251E068E172
S1132A6076E082E19DE00E94A12202E020E030E0D5
S1132A704CE251E06DE176E08AE49FE00E94A122FD
S1132A8005E020E030E04CE251E065E276E083E3EB
S1132A9092E10E94A12201E020E030E04CE251E00A
S1132AA06DE276E08CEF9DE00E94A122789480E0B4
S1132AB090E00E94510C0E94DD26C3E3D6E0F89416
S1132AC0DF93CF930E9407210F900F90F8CF1F92AE
S1132AD00F920FB60F9211248F938091C3198F5FB9
S1132AE08093C3198F910F900FBE0F901F9018956C
S1132AF01F920F920FB60F9211248F938091C419D5
S1132B008F5F8093C4198F910F900FBE0F901F9009
S1132B1018951F920F920FB60F9211240BB60F92B5
S1132B202F933F934F935F936F937F938F939F93D1
S1132B30AF93BF93EF93FF93649909C082E090E051
S1132B400E94370C81E090E00E94370C18C010926C
S1132B50C2191092C11982E090E00E94510C81E0E8
S1132B6090E00E94510C80E090E00E94510C60E0E3
S1132B7070E08091331B9091341B0E94491E60E0E9
S1132B8070E080912D1B90912E1B0E94491EFF9195
S1132B90EF91BF91AF919F918F917F916F915F91D1
S1132BA04F913F912F910F900BBE0F900FBE0F903E
S1132BB01F901895279A84B1806384B9269AE1E01E
S1132BC0F1E08081806680832F982E98E2E0F1E026
S1132BD080818F79808385B18F7C85B98AB18AB9E8
S1132BE08BB18C608BB96C988DB38DBBE9E6F0E04A
S1132BF08081806F8083EAE6F0E080818160808359
S1132C008CE18CBB8DB38C618DBB84B5806884BD35
S1132C10E0E8F0E080818062808385B585BD84B57D
S1132C20836084BDA1E8B0E08C9188608C9380813E
S1132C308160808385B5826085BD8C9182608C9330
S1132C4080818083E0EBF0E08081808380818083D9
S1132C50E0EAF0E080818083089587BD2C9A2D9866
S1132C6084E0FB018083089590E090938B0080932F
S1132C708A00E2E0F1E080818064808380818F7D3E
S1132C80808386E0FB018083089587BD2C982D9A6C
S1132C9085E0FB018083089590E090938B008093FE
S1132CA08A00E2E0F1E080818F7B80838081806212
S1132CB0808385E0FB01808308958FEF87BD2C9886
S1132CC02D9808958FEF90E090938B0080938A0065
S1132CD0E2E0F1E080818F7B808380818F7D80833F
S1132CE008950F931F93CF93DF93EB018901181677
S1132CF019061CF4BA01B1DF07C0992324F4BA0100
S1132D008195C3DF01C0D9DF1C161D0624F4B80168
S1132D108C2FAADF08C0DD232CF4B8018C2F8195F9
S1132D20BBDF01C0CFDFDF91CF911F910F910895D9
S1132D30843019F0853051F008954695FB01808167
S1132D409181840F911D9183808308954695FB01A1
S1132D5080819181841B91099183808308958530BA
S1132D6059F0863089F44695FB0180819181840F66
S1132D70911D9183808308954695FB018081918103
S1132D80841B9109918380830895EF92FF920F939E
S1132D901F93CF93DF937C018B01CB010E946908C1
S1132DA0EC01980121503109A701B8010E940407E0
S1132DB0882349F08091CE198F5F8093CE19CE017C
S1132DC00E94730933C0862F972F8C01FE01E80FF0
S1132DD0F91F3197F0806FEF680FCE010E94D00782
S1132DE0F81649F08091CD198F5F8093CD19CE01EB
S1132DF00E9473091BC08881833021F0CE010E9498
S1132E00730914C0A80144505109BE016D5F7F4F7E
S1132E10EA81F0E0EE0FFF1FEB5AF44E0190F081CF
S1132E20E02D89811995CE010E947309DF91CF911C
S1132E301F910F91FF90EF90089585EC96E10C940B
S1132E40C22F0895823040F4E82FF0E0EE0FFF1F08
S1132E50EB5AF44E7183608308958F929F92AF92E0
S1132E60BF92CF92DF92EF92FF920F931F93CF9373
S1132E70DF93882E962E5A018901690184E0C80ED9
S1132E80D11CC6010E946908EC01C80106960E9483
S1132E9069087C01209711F0892B41F4CE010E942E
S1132EA07309C7010E94730980E03CC0888283E0F3
S1132EB089839A82A801B501CE0103960E942B381A
S1132EC05801E3E0AE0EB11CAC0EBD1E63E0600F12
S1132ED0CE010E94D007F5018083B8016B5F7F4F5C
S1132EE09601AE01C7010E949E06882341F0CE01DF
S1132EF00E947309C7010E94730980E013C0862FE2
S1132F00972FF701E80FF91F1082BC016F5F7F4F05
S1132F10C7010E949E2FCE010E947309C7010E941F
S1132F20730981E0DF91CF911F910F91FF90EF9092
S1132F30DF90CF90BF90AF909F908F90089531E134
S1132F40FC013083319722E220833197A3E3A083ED
S1132F503197608331977083319710823197108253
S1132F60319760E8608331971082319710823197EE
S1132F701082319762E06083319763E06083319718
S1132F8064E06083319765E06083319766E0608335
S1132F90319767E06083319768E06083319769E037
S1132FA06083319760E1608331973083319732E1F8
S1132FB03083319733E13083319734E13083319773
S1132FC035E13083319736E13083319737E130830F
S1132FD0319738E13083319739E13083319730E2EA
S1132FE03083319731E2308331972083319723E264
S1132FF020833197408331975083319726E2208391
S1133000319727E22083319728E22083319729E200
S11330102083319720E32083319721E3208389970C
S1133020089588EE93E090936A1B8093691B9093B4
S11330306C1B80936B1B1092990089EF809398000E
S11330408BE080939100E1E7F0E0808182608083EF
S1133050A091A31AB091A41ACD91CDBFDD91DEBF8A
S1133060FF91EF91DF91CF91BF91AF919F918F919C
S11330707F916F915F914F913F912F911F910F918C
S1133080FF90EF90DF90CF90BF90AF909F908F9084
S11330907F906F905F904F903F902F901F900F9074
S11330A00CBE0F900BBE0F900FBE0F90089581E0E1
S11330B008950F920FB6F8940F920BB60F920CB6B8
S11330C00F921F9211242F923F924F925F926F9210
S11330D07F928F929F92AF92BF92CF92DF92EF92A4
S11330E0FF920F931F932F933F934F935F936F938D
S11330F07F938F939F93AF93BF93CF93DF93EF937C
S1133100FF93A091A31AB091A41A0DB60D920EB616
S11331100D920E94CD29A091A31AB091A41ACD9129
S1133120CDBFDD91DEBFFF91EF91DF91CF91BF91D4
S1133130AF919F918F917F916F915F914F913F914B
S11331402F911F910F91FF90EF90DF90CF90BF9040
S1133150AF909F908F907F906F905F904F903F9033
S11331602F901F900F900CBE0F900BBE0F900FBEB0
S11331700F9008950F920FB6F8940F920BB60F921A
S11331800CB60F921F9211242F923F924F925F928E
S11331906F927F928F929F92AF92BF92CF92DF9263
S11331A0EF92FF920F931F932F933F934F935F934D
S11331B06F937F938F939F93AF93BF93CF93DF933B
S11331C0EF93FF93A091A31AB091A41A0DB60D9298
S11331D00EB60D9213BE80916B1B90916C1B0197E0
S11331E090936C1B80936B1B892B41F48091691B1A
S11331F090916A1B90936C1B80936B1B0E940C290B
S113320081110E94CD29A091A31AB091A41ACD9145
S1133210CDBFDD91DEBFFF91EF91DF91CF91BF91E3
S1133220AF919F918F917F916F915F914F913F915A
S11332302F911F910F91FF90EF90DF90CF90BF904F
S1133240AF909F908F907F906F905F904F903F9042
S11332502F901F900F900CBE0F900BBE0F900FBEBF
S11332600F90089587DF18950F931F93CF93DF93E3
S1133270082F162F662309F43BC0869FC001112432
S113328080960E946908EC01009721F439C0D98323
S1133290C88303C04F96998388830B8F1C8F0FB606
S11332A0F8940F92488159812C8D30E06B8D629F88
S11332B0C001639F900D1124BA01680F791F7B83AD
S11332C06A831A8E5D834C83821B930B840F951F34
S11332D09F838E838FEF8D8F8E8FCE0108960E94F1
S11332E0880CCE0141960E94880C0F900FBE08C036
S11332F08FE190E00E946908EC01892B09F0C7CFA7
S1133300CE01DF91CF911F910F9108959F92AF92BB
S1133310BF92CF92DF92EF92FF920F931F93CF93BE
S1133320DF9300D01F921F92CDB7DEB78FE190E0FC
S11333300E9469088C01009709F458C1FC011382AA
S11333401282118210821582148217821682128EC2
S113335081E0838F148E8FEF858F868F7801F8E05C
S1133360EF0EF11CC7010E94880C680181E1C80EB0
S1133370D11CC6010E94880C1D821C82A12C992498
S11333809394BB24BA940FB6F8940F92F801928DDB
S1133390838D9817F0F480819181892B09F01DC1E8
S11333A0828193810E94A92BF80113821282928D4B
S11333B09F5F928F9189992339F0C6010E94B02AA8
S11333C0813021F476DE02C0811173DE0F900FBECE
S11333D00DC18C819D81892B19F40F900FBE06C1FC
S11333E0A11005C0CE0101960E94F82AA92C0F90C5
S11333F00FBE0E94C1270FB6F8940F92F801858D75
S11334008F3F09F4158EF801868D8F3F09F4168ECF
S11334100F900FBEBE016C5F7F4FCE0101960E94DC
S1133420032B811196C00FB6F8940F92F801928D78
S1133430838D0F900FBE98134AC06C817D81C701A4
S11334400E94552A0FB6F8940F92F801868D18162B
S1133450ACF48189811105C011C0F80181898823E8
S113346069F0C6010E94B02A81110E943E2BF80126
S1133470868D8150868F868D18167CF3F801B68E62
S11334800F900FBE0FB6F8940F92858D1816ACF4FA
S11334908085811105C011C0F8018085882369F0F9
S11334A0C7010E94B02A81110E943E2BF801858D2C
S11334B08150858F858D18167CF3F801B58E0F9099
S11334C00FBE0E94C72781115ECFF3DD5CCF0FB61C
S11334D0F8940F92F801868D1816ACF48189811145
S11334E005C011C0F8018189882369F0C6010E94D2
S11334F0B02A81110E943E2BF801868D8150868F5F
S1133500868D18167CF3F801B68E0F900FBE0FB699
S1133510F8940F92858D1816ACF48085811105C03E
S113352011C0F8018085882369F0C7010E94B02A80
S113353081110E943E2BF801858D8150858F858DE8
S113354018167CF3F801B58E0F900FBE0E94C727A2
S11335501ACF0FB6F8940F92F801868D1816ACF4B2
S11335608189811105C011C0F8018189882369F01E
S1133570C6010E94B02A81110E943E2BF801868D5B
S11335808150868F868D18167CF38FEFF801868F15
S11335900F900FBE0FB6F8940F92858D1816ACF4E9
S11335A08085811105C011C0F8018085882369F0E8
S11335B0C7010E94B02A81110E943E2BF801858D1B
S11335C08150858F858D18167CF38FEFF801858FD8
S11335D00F900FBE0E94C72709C0F801828D8F5F2C
S11335E0828F8189882309F4F1CEE7CEC8010F9038
S11335F00F900F900F900F90DF91CF911F910F912B
S1133600FF90EF90DF90CF90BF90AF909F90089580
S11336106F927F928F929F92AF92BF92CF92DF92DE
S1133620EF92FF920F931F93CF93DF9300D01F92DB
S11336301F92CDB7DEB78C015B015D834C83722E84
S1133640812C6624639499249A947C0188E0E80E82
S1133650F11C6801E1E1CE0ED11C0FB6F8940F9273
S1133660F801928D838D981720F0F2E07F126EC0DE
S11336707DC1F801448D411115C0F801808191810B
S1133680892B09F079C1828193810E94A92BF801C9
S113369013821282928D9F5F928F9189992309F4EC
S11336A04FC046C071101AC050E0B501F8018481C2
S11336B095810E942B38F801248D84819581820F95
S11336C0911D95838483228133818217930708F4A3
S11336D053C180819181958384834EC150E0B501AB
S11336E0F801868197810E942B38F801848D90E03F
S11336F091958195910926813781280F391F378348
S11337002683408151812417350730F42281338187
S1133710820F931F97838683F2E07F122DC1F801F5
S1133720828D882309F428C1828D8150828F24C11F
S1133730C80141960E94B02A813021F4BADC02C04B
S11337408111B7DC0F900FBE81E01EC18C819D8179
S1133750892B21F40F900FBE80E016C1811005C0A3
S1133760CE0101960E94F82A862C0F900FBE0E946B
S1133770C1270FB6F8940F92F801858D8F3F09F495
S1133780158EF801868D8F3F09F4168E0F900FBEAB
S1133790BE016C5F7F4FCE0101960E94032B811105
S11337A096C00FB6F8940F92F801928D838D0F9006
S11337B00FBE98134AC06C817D81C7010E94552AAF
S11337C00FB6F8940F92F801868D1816ACF481891F
S11337D0811105C011C0F8018189882369F0C601EF
S11337E00E94B02A81110E943E2BF801868D8150DF
S11337F0868F868D18167CF3F801968E0F900FBE77
S11338000FB6F8940F92858D1816ACF4808581114B
S113381005C011C0F8018085882369F0C7010E94A2
S1133820B02A81110E943E2BF801858D8150858F2D
S1133830858D18167CF3F801958E0F900FBE0E94AB
S1133840C72781110ACF35DC08CF0FB6F8940F9241
S1133850F801868D1816ACF48189811105C011C058
S1133860F8018189882369F0C6010E94B02A811178
S11338700E943E2BF801868D8150868F868D181606
S11338807CF3F801968E0F900FBE0FB6F8940F924A
S1133890858D1816ACF48085811105C011C0F8011E
S11338A08085882369F0C7010E94B02A81110E9493
S11338B03E2BF801858D8150858F858D18167CF3FC
S11338C0F801958E0F900FBE0E94C727C6CE0FB683
S11338D0F8940F92F801868D1816D4F48189811119
S11338E006C016C0F8018189811105C011C0780194
S11338F0F1E1EF0EF11CC7010E94B02A81110E9470
S11339003E2BF801868D8150868F868D181654F3D0
S11339108FEFF801868F0F900FBE0FB6F8940F92B9
S1133920858D1816D4F48085811106C016C0F8015F
S11339308085811105C011C07801F8E0EF0EF11CFB
S1133940C7010E94B02A81110E943E2BF801858D87
S11339508150858F858D181654F38FEFF801858F6C
S11339600F900FBE0E94C72780E00EC0F801448D5F
S1133970442309F482CEB2CEF801828D8F5F828F08
S113398081898111D5CEDECE0F900F900F900F90CC
S11339900F90DF91CF911F910F91FF90EF90DF90E7
S11339A0CF90BF90AF909F908F907F906F9008952D
S11339B09F92AF92BF92CF92DF92EF92FF920F93BA
S11339C01F93CF93DF9300D01F921F92CDB7DEB722
S11339D08C017D836C83A12C99249394BB24BA9489
S11339E07C0188E0E80EF11C6801E1E1CE0ED11CF7
S11339F00FB6F8940F92F801928D838D981700F505
S1133A0080819181892B09F02BC1828193810E944D
S1133A10A92BF80113821282928D9F5F928F918954
S1133A20992341F0C80141960E94B02A813021F4C3
S1133A3040DB02C081113DDB0F900FBE81E018C155
S1133A408C819D81892B21F40F900FBE80E010C1E1
S1133A50A11005C0CE0101960E94F82AA92C0F904E
S1133A600FBE0E94C1270FB6F8940F92F801858DFE
S1133A708F3F09F4158EF801868D8F3F09F4168E59
S1133A800F900FBEBE016C5F7F4FCE0101960E9466
S1133A90032B811196C00FB6F8940F92F801928D02
S1133AA0838D0F900FBE98134AC06C817D81C7012E
S1133AB00E94552A0FB6F8940F92F801868D1816B5
S1133AC0ACF48189811105C011C0F8018189882372
S1133AD069F0C6010E94B02A81110E943E2BF801B0
S1133AE0868D8150868F868D18167CF3F801B68EEC
S1133AF00F900FBE0FB6F8940F92858D1816ACF484
S1133B008085811105C011C0F8018085882369F082
S1133B10C7010E94B02A81110E943E2BF801858DB5
S1133B208150858F858D18167CF3F801B58E0F9022
S1133B300FBE0E94C72781115BCFBBDA59CF0FB6E6
S1133B40F8940F92F801868D1816ACF481898111CE
S1133B5005C011C0F8018189882369F0C6010E945B
S1133B60B02A81110E943E2BF801868D8150868FE8
S1133B70868D18167CF3F801B68E0F900FBE0FB623
S1133B80F8940F92858D1816ACF48085811105C0C8
S1133B9011C0F8018085882369F0C7010E94B02A0A
S1133BA081110E943E2BF801858D8150858F858D72
S1133BB018167CF3F801B58E0F900FBE0E94C7272C
S1133BC017CF0FB6F8940F92F801868D1816D4F417
S1133BD08189811106C016C0F8018189811105C04F
S1133BE011C07801F1E1EF0EF11CC7010E94B02A67
S1133BF081110E943E2BF801868D8150868F868D1F
S1133C00181654F38FEFF801868F0F900FBE0FB67E
S1133C10F8940F92858D1816D4F48085811106C00E
S1133C2016C0F8018085811105C011C07801F8E043
S1133C30EF0EF11CC7010E94B02A81110E943E2B95
S1133C40F801858D8150858F858D181654F38FEF7B
S1133C50F801858F0F900FBE0E94C72780E008C02F
S1133C60F801828D8F5F828F81898111DBCEE4CE52
S1133C700F900F900F900F900F90DF91CF911F91A5
S1133C800F91FF90EF90DF90CF90BF90AF909F90F7
S1133C900895CF93DF93FC01928D838D9817D0F410
S1133CA0828D8F5F828F868D8F3F79F481898823FF
S1133CB099F0EB01CF0141960E94B02A882371F05C
S1133CC0209771F081E088830CC0868D8F5F868F8A
S1133CD081E007C080E005C081E003C081E001C04D
S1133CE081E0DF91CF9108956F927F928F929F929E
S1133CF0AF92BF92CF92DF92EF92FF920F931F93F6
S1133D00CF93DF9300D01F921F92CDB7DEB78C0103
S1133D105B015D834C83622E812C772473949924F8
S1133D209A946C0188E0C80ED11C7801E1E1EE0E92
S1133D30F11C0FB6F8940F92F801828D882309F4D0
S1133D4045C0E680F780448D4423A9F050E0C701C4
S1133D50840F951F9783868322813381821793076B
S1133D6020F08081918197838683F8016681778131
S1133D70C5010E942B38611019C0F801828D815051
S1133D80828F80819181892B29F40E94E92BF8018B
S1133D9093838283F80180858823A1F0C801089663
S1133DA00E94B02A813071F484D90CC0F801F782E2
S1133DB0E6828189882331F0C80141960E94B02AA5
S1133DC0811177D90F900FBE81E01AC18C819D813A
S1133DD0892B21F40F900FBE80E012C1811005C021
S1133DE0CE0101960E94F82A872C0F900FBE0E94E4
S1133DF0C1270FB6F8940F92F801858D8F3F09F40F
S1133E00158EF801868D8F3F09F4168E0F900FBE24
S1133E10BE016C5F7F4FCE0101960E94032B81117E
S1133E20A2C00FB6F8940F92F801828D0F900FBEC6
S1133E30811157C080819181892B49F40FB6F89480
S1133E400F92828193810E94472B0F900FBE6C8149
S1133E507D81C7010E94552A0FB6F8940F92F8018C
S1133E60868D1816ACF48189811105C011C0F80142
S1133E708189882369F0C7010E94B02A81110E94B8
S1133E803E2BF801868D8150868F868D18167CF323
S1133E90F801968E0F900FBE0FB6F8940F92858D91
S1133EA01816ACF48085811105C011C0F801808515
S1133EB0882369F0C6010E94B02A81110E943E2B1A
S1133EC0F801858D8150858F858D18167CF3F80156
S1133ED0958E0F900FBE0E94C72781112ACFE9D873
S1133EE028CF0FB6F8940F92F801868D1816ACF40B
S1133EF08189811105C011C0F8018189882369F085
S1133F00C7010E94B02A81110E943E2BF801868DC0
S1133F108150868F868D18167CF3F801968E0F904B
S1133F200FBE0FB6F8940F92858D1816ACF48085E9
S1133F30811105C011C0F8018085882369F0C6018C
S1133F400E94B02A81110E943E2BF801858D815078
S1133F50858F858D18167CF3F801958E0F900FBE12
S1133F600E94C727E6CE0FB6F8940F92F801868D0B
S1133F701816D4F48189811106C016C0F80181890C
S1133F80811105C011C07801F1E1EF0EF11CC701E8
S1133F900E94B02A81110E943E2BF801868D815027
S1133FA0868F868D181654F38FEFF801868F0F9045
S1133FB00FBE0FB6F8940F92858D1816D4F4808531
S1133FC0811106C016C0F8018085811105C011C099
S1133FD07801F8E0EF0EF11CC7010E94B02A8111AC
S1133FE00E943E2BF801858D8150858F858D181692
S1133FF054F38FEFF801858F0F900FBEC8D780E080
S11340000F900F900F900F900F90DF91CF911F9111
S11340100F91FF90EF90DF90CF90BF90AF909F9063
S11340208F907F906F900895AB01009711F41092D8
S1134030C219BC0187E39BE10E942B3860E070E069
S11340408091331B9091341BB3CC08958091CF1988
S1134050811104C00E94600180936D1B089528EEB5
S113406033E044E150E260E080916D1B0E947C01EA
S11340708093CF190895CF93DF93CDB7DEB7EC9734
S11340800FB6F894DEBF0FBECDBF8091CF19882341
S113409009F44EC0198287E08A8388E0EDE3F6E0F4
S11340A0DE01139601900D928A95E1F724EB30E03E
S11340B03B872A8785EF90E09D878C8788E3888BF0
S11340C08E871F8685E1898B8A8B8B8B8C8B1E8ACE
S11340D01D8A8AE590E0988F8F8B3A8F298F8EE026
S11340E091E09C8F8B8F88EC90E09E8F8D8F8EE17A
S11340F0FE013196DE015F9601900D928A95E1F7FB
S113410080910006882359F04EE150E0BE01615EC3
S11341107F4F80916D1B0E94330281E009C04EE104
S113412050E0BE01615E7F4F80916D1B76D181E0CE
S1134130EC960FB6F894DEBF0FBECDBFDF91CF91E2
S11341400895AF92CF92EF920F93CF93DF93CDB7B1
S1134150DEB72D970FB6F894DEBF0FBECDBFE0914A
S1134160CF19EE2319F1E1E0E9839B838A837D83F0
S11341706C835F834E83398728870A87EB86CC86D6
S1134180AD8680910106882351F04DE050E0BE01D8
S11341906F5F7F4F80916D1B0E94330207C04DE01B
S11341A050E0BE016F5F7F4F80E037D12D960FB690
S11341B0F894DEBF0FBECDBFDF91CF910F91EF908A
S11341C0CF90AF900895CF93DF931F92CDB7DEB712
S11341D08091CF198823B9F083E089838091030605
S11341E0882351F041E050E0BE016F5F7F4F809122
S11341F06D1B0E94330207C041E050E0BE016F5FB7
S11342007F4F80E00AD10F90DF91CF910895CF9333
S1134210DF93CDB7DEB7C456D1090FB6F894DEBF2D
S11342200FBECDBFAE0146595F4FFA016191719146
S1134230AF018AE08983CE0102960E947B388823ED
S1134240C9F020910A06222361F09927AC014F5F3F
S11342505F4FBE016F5F7F4F80916D1B0E943302E1
S113426009C09927AC014F5F5F4FBE016F5F7F4F5D
S113427080E0D3D0CC59DF4F0FB6F894DEBF0FBE29
S1134280CDBFDF91CF910895CF93DF931F92CDB728
S1134290DEB78091CF198823B9F089E089838091B2
S11342A00906882351F041E050E0BE016F5F7F4F63
S11342B080916D1B0E94330207C041E050E0BE01B3
S11342C06F5F7F4F80E0A9D00F90DF91CF91089569
S11342D08A3508F08AE5E82FF0E0EE0FFF1FEB5B6C
S11342E0F94F808191819093AB008093AA00089547
S11342F0A0EAB0E09C9190629C93E1EAF0E09081A6
S1134300986190839C9192609C9390819260908339
S11343102FE33CE93093A7002093A600E1E0F1E00D
S1134320908190619083D4CF0895EF92FF920F9380
S11343301F93CF93DF939091D1199F3F11F098135E
S113434058C0FB018081811105C01092D3191092CD
S1134350D2190CC09091D419891741F0E0EDF9E11C
S11343601482138212828FEF818343C08091D21909
S11343709091D3190297840F951F8536910540F0CB
S1134380E0EDF9E11382128214828FEF818331C050
S11343908A01EB010F2EF0EDEF2EF9E1FF2EF02D47
S11343A0F70184818F5F8483828193814250510914
S11343B06E5F7F4F8B52964E0E942B38F7014281DD
S11343C0538142505109BA01600F711F7383628394
S11343D09881898198130DC0E0916E1BF0916F1B39
S11343E085ED99E11995F7011482138212828FEFFA
S11343F08183DF91CF911F910F91FF90EF900895EA
S113440090936F1B80936E1B65E971E280E00E94BC
S113441022178FEF8093D11908955F926F927F9244
S11344208F929F92AF92BF92CF92DF92EF92FF92C0
S11344300F931F93CF93DF93582E5B018A018CE275
S113444090E00E9469087C01980136952795ADE0BB
S1134450B3EC0E942537929582958F7089279F70BF
S113446089274AE2489F9001499F300D112441E079
S11344700217130709F440E0980136952795ADE03B
S1134480B3EC0E942537929582958F7089279F708F
S11344908927840F0115110559F190E0C12CD12C05
S11344A066246A94680E470182E0880E911CE80134
S11344B00B32110510F0CAE2D0E077247394790E20
S11344C0F70190836182B5016C0D7D1DAE01C401BD
S11344D00E942B389E012E5F3F4FA70160E0852D7F
S11344E00E942D17CC0EDD1E0C1B1D0B972DF9F60B
S11344F0C7010E94730981E0DF91CF911F910F9151
S1134500FF90EF90DF90CF90BF90AF909F908F90EF
S11345107F906F905F90089584B1876084B92398E9
S11345208CB581608CBD8CB58C658CBD8CB58F7D54
S11345308CBD08958EBD00000DB407FEFDCF8EB571
S113454008954F925F926F927F928F929F92AF9253
S1134550BF92CF92DF92EF92FF920F931F93CF936C
S1134560DF933C015B014A012901C114D10439F4F0
S1134570CA010E9469086C01892B09F4E4C088E22D
S113458090E00E946908EC01892B71F0D88ECF8AE3
S113459081E0881A9108C80CD91CD5018C91898FA7
S11345A08C91811105C018C0C6010E947309CBC04B
S11345B0AE01465E5F4FF5013196B8E0AB0EB11C1B
S11345C0CF012191DA012D93AD01DC018C91882377
S11345D019F0AE16BF06A1F718A2102F063008F086
S11345E015E01E8B19A31AA25E01B2E0AB0EB11C3A
S11345F0C5010E94960CCE010C960E94960CD98798
S1134600C88786E090E0811B91099D878C87DB8BAE
S1134610CA8B1BA21CA21DA21EA21FA2A201B3012F
S1134620C6010E949F1799838883E114F10419F04D
S1134630F701D183C0830FB6F8940F928091441A86
S11346408F5F8093441A8091A31A9091A41A892BA6
S1134650D9F5D093A41AC093A31A8091441A813037
S113466009F041C00F2EFDE6EF2EFAE1FF2EF02DEA
S11346700F2EF3EACF2EFAE1DF2EF02DC7010E94B0
S1134680880CF9E0EF0EF11CEC14FD04B9F784E694
S11346909AE10E94880C8BE59AE10E94880C8EE4D2
S11346A09AE10E94880C85E49AE10E94880C84E6D1
S11346B09AE190935A1A8093591A8BE59AE1909350
S11346C0581A8093571A0FC08091401A81110BC059
S11346D0E091A31AF091A41A8689081720F0D093C8
S11346E0A41AC093A31A80913C1A8F5F80933C1A3A
S11346F08E899091411A981710F48093411A90E092
S11347009C01220F331F220F331F220F331F820FEE
S1134710931FB5018359954E0E949A0C0F900FBEBA
S11347208091401A882359F0E091A31AF091A41AB9
S11347308689801730F40E94591881E005C081E011
S113474003C081E001C08FEFDF91CF911F910F91E2
S1134750FF90EF90DF90CF90BF90AF909F908F909D
S11347607F906F905F904F9008959F92AF92BF9209
S1134770CF92DF92EF92FF920F931F93CF93DF9329
S1134780FC019091391A9F5F9093391A8091421AD3
S11347909091431A20813181E901C60FD71F8217F6
S11347A0930758F4C217D30708F06EC1D183C083AE
S11347B08C179D0708F042C009C0C217D30708F43C
S11347C060C18C179D0708F45CC15EC18091A31A77
S11347D09091A41A02960E94EC0CE091A31AF09115
S11347E0A41AD383C2838091421A9091431AC817A2
S11347F0D90768F46091A31A7091A41A8091571A8A
S11348009091581A6E5F7F4F0E94BB0C17C0609145
S1134810A31A7091A41A8091591A90915A1A6E5F32
S11348207F4F0E94BB0C80913A1A90913B1AC81793
S1134830D90720F4D0933B1AC0933A1A0FB6F894D0
S11348400F928091391A81508093391A8091391AC4
S113485081110DC18091441A811133C00BC1D7015C
S11348601596ED91FC911697C681D781CE010C96D1
S11348700E94EC0C8E010E5F1F4FC8010E94EC0CCD
S11348808E899091411A981710F48093411A90E000
S11348909C01220F331F220F331F220F331F820F5D
S11348A0931FB8018359954E0E949A0CE091A31A64
S11348B0F091A41A9E898689981758F0D0923E1ACE
S11348C008C00F2EFEE4EF2EFAE1FF2EF02DDD24BA
S11348D0D394F70180818111C2CF80913F1A88233C
S11348E009F4BDC080913F1A882309F4B8C0912C03
S11348F0BB24B394CC24CA94DC2C8091391A811142
S113490098C08091421A9091431A01969093431A49
S11349108093421AE090421AF090431AE114F10491
S113492089F58091591A90915A1A2091571A309109
S1134930581A30935A1A2093591A9093581A8093FC
S1134940571A80913D1A8F5F80933D1AE091591A4E
S1134950F0915A1A8081811105C0D0923B1AC092FD
S11349603A1A10C0E091591AF0915A1A0580F6814A
S1134970E02D0680F781E02D8281938190933B1A8C
S113498080933A1A80913A1A90913B1AE816F906E4
S113499008F47DC0A92CE091591AF0915A1A80812B
S11349A0811105C0D0923B1AC0923A1A48C0E091D6
S11349B0591AF0915A1A0580F681E02DC681D781E3
S11349C08A819B81E816F90628F490933B1A809318
S11349D03A1A35C08E010E5F1F4FC8010E94EC0CBD
S11349E08C899D89892B21F0CE010C960E94EC0CB8
S11349F08E899091411A981710F48093411A90E08F
S1134A009C01220F331F220F331F220F331F820FEB
S1134A10931FB8018359954E0E949A0CE091A31AF2
S1134A20F091A41A9E898689981708F4B4CFAB2C08
S1134A30B2CF80913F1A8F5F80933F1A28C0809134
S1134A403E1A811101C0A110B0923E1A80913F1A02
S1134A50815080933F1A80913F1A81114ECF8091EB
S1134A603E1A813031F40E94591881E003C080E07D
S1134A7001C080E00F900FBE81110EC00E94591832
S1134A800BC0D183C083A2CED183C083D7CE809103
S1134A903E1A8111D9CFDACFDF91CF911F910F91B7
S1134AA0FF90EF90DF90CF90BF90AF909F900895CC
S1134AB09F92AF92BF92CF92DF92EF92FF920F93A9
S1134AC01F93CF93DF93009709F463C12091391AA0
S1134AD02F5F2093391AC091421AD091431AC80FFC
S1134AE0D91F8091A31A9091A41A02960E94EC0CEB
S1134AF0E091A31AF091A41AD383C2838091421A3D
S1134B009091431AC817D90768F46091A31A709159
S1134B10A41A8091571A9091581A6E5F7F4F0E9481
S1134B20BB0C17C06091A31A7091A41A8091591AF2
S1134B3090915A1A6E5F7F4F0E94BB0C80913A1A73
S1134B4090913B1AC817D90720F4D0933B1AC0930D
S1134B503A1A0FB6F8940F928091391A81508093C3
S1134B60391A8091391A81110DC18091441A811129
S1134B7033C00BC1D7011596ED91FC911697C681F0
S1134B80D781CE010C960E94EC0C8E010E5F1F4F54
S1134B90C8010E94EC0C8E899091411A981710F468
S1134BA08093411A90E09C01220F331F220F331F80
S1134BB0220F331F820F931FB8018359954E0E9411
S1134BC09A0CE091A31AF091A41A9E8986899817E9
S1134BD058F0D0923E1A08C00F2EFEE4EF2EFAE1F0
S1134BE0FF2EF02DDD24D394F70180818111C2CFF3
S1134BF080913F1A882309F4BDC080913F1A88230D
S1134C0009F4B8C0912CBB24B394CC24CA94DC2CF2
S1134C108091391A811198C08091421A9091431A57
S1134C2001969093431A8093421AE090421AF090AE
S1134C30431AE114F10489F58091591A90915A1A92
S1134C402091571A3091581A30935A1A2093591AAE
S1134C509093581A8093571A80913D1A8F5F8093CE
S1134C603D1AE091591AF0915A1A8081811105C0B8
S1134C70D0923B1AC0923A1A10C0E091591AF0919E
S1134C805A1A0580F681E02D0680F781E02D828195
S1134C90938190933B1A80933A1A80913A1A909197
S1134CA03B1AE816F90608F477C0A92CE091591AC2
S1134CB0F0915A1A8081811105C0D0923B1AC0929A
S1134CC03A1A48C0E091591AF0915A1A0580F681AF
S1134CD0E02DC681D7818A819B81E816F90628F4E4
S1134CE090933B1A80933A1A35C08E010E5F1F4F82
S1134CF0C8010E94EC0C8C899D89892B21F0CE017E
S1134D000C960E94EC0C8E899091411A981710F41D
S1134D108093411A90E09C01220F331F220F331F0E
S1134D20220F331F820F931FB8018359954E0E949F
S1134D309A0CE091A31AF091A41A9E898689981777
S1134D4008F4B4CFAB2CB2CF80913F1A8F5F80931D
S1134D503F1A22C080913E1A811101C0A110B09265
S1134D603E1A80913F1A815080933F1A80913F1AD6
S1134D7081114ECF80913E1A813031F40E9459182E
S1134D8081E003C080E001C080E00F900FBE81117C
S1134D9008C00E94591805C080913E1A8111DFCFC6
S1134DA0E0CFDF91CF911F910F91FF90EF90DF90B3
S1134DB0CF90BF90AF909F900895CF92DF92EF92E3
S1134DC0FF920F931F93CF93DF9385E590E00E94AA
S1134DD069088C01892B09F4CBC088E290E00E9419
S1134DE06908EC01892B69F0188F0F8B0C5A1F4F3F
S1134DF089E4898FECEFF6E0DE015A9623E037E090
S1134E0004C0C8010E947309B3C091919D93992372
S1134E1019F02E173F07C9F718A21E8A19A21AA261
S1134E207E0182E0E80EF11CC7010E94960CCE01BF
S1134E300C960E94960CD987C88786E090E09D87DF
S1134E408C87DB8BCA8B1BA21CA21DA21EA21FA2D5
S1134E5040E050E069E171E0C8010E949F17998326
S1134E6088830FB6F8940F928091441A8F5F8093D1
S1134E70441A8091A31A9091A41A892BA9F5D0936E
S1134E80A41AC093A31A8091441A8130E1F50DE667
S1134E901AE10F2EF3EACF2EFAE1DF2EF02DC8012E
S1134EA00E94880C075F1F4F0C151D05C1F784E68F
S1134EB09AE10E94880C8BE59AE10E94880C8EE4AA
S1134EC09AE10E94880C85E49AE10E94880C84E6A9
S1134ED09AE190935A1A8093591A8BE59AE1909328
S1134EE0581A8093571A0FC08091401A81110BC031
S1134EF0E091A31AF091A41A8689811104C0D09379
S1134F00A41AC093A31A80913C1A8F5F80933C1A11
S1134F108E899091411A981710F48093411A90E069
S1134F209C01220F331F220F331F220F331F820FC6
S1134F30931FB7018359954E0E949A0C0F900FBE90
S1134F408091401A882321F08091A31A9091A41A89
S1134F50F8948FEF9FEF90933B1A80933A1A81E075
S1134F608093401A1092431A1092421A0E94111808
S1134F70DF91CF911F910F91FF90EF90DF90CF9031
S1134F8008958091391A8F5F8093391A08959F92FA
S1134F90AF92BF92CF92DF92EF92FF920F931F9343
S1134FA0CF93DF930FB6F8940F928091391A815002
S1134FB08093391A8091391A81110DC18091441A54
S1134FC0811133C00BC1D7011596ED91FC91169751
S1134FD0C681D781CE010C960E94EC0C8E010E5F27
S1134FE01F4FC8010E94EC0C8E899091411A9817AA
S1134FF010F48093411A90E09C01220F331F220F7A
S1135000331F220F331F820F931FB8018359954E0C
S11350100E949A0CE091A31AF091A41A9E898689A1
S1135020981758F0D0923E1A08C00F2EFEE4EF2EC7
S1135030FAE1FF2EF02DDD24D394F7018081811154
S1135040C2CF80913F1A882309F4BDC080913F1AD2
S1135050882309F4B8C0912CBB24B394CC24CA94FB
S1135060DC2C8091391A811198C08091421A909158
S1135070431A01969093431A8093421AE090421A7D
S1135080F090431AE114F10489F58091591A909132
S11350905A1A2091571A3091581A30935A1A209359
S11350A0591A9093581A8093571A80913D1A8F5F1A
S11350B080933D1AE091591AF0915A1A8081811116
S11350C005C0D0923B1AC0923A1A10C0E091591A06
S11350D0F0915A1A0580F681E02D0680F781E02DC3
S11350E08281938190933B1A80933A1A80913A1A61
S11350F090913B1AE816F90608F473C0A92CE091C4
S1135100591AF0915A1A8081811105C0D0923B1A24
S1135110C0923A1A48C0E091591AF0915A1A05807F
S1135120F681E02DC681D7818A819B81E816F90634
S113513028F490933B1A80933A1A35C08E010E5F7F
S11351401F4FC8010E94EC0C8C899D89892B21F08A
S1135150CE010C960E94EC0C8E899091411A9817FE
S113516010F48093411A90E09C01220F331F220F08
S1135170331F220F331F820F931FB8018359954E9B
S11351800E949A0CE091A31AF091A41A9E89868930
S1135190981708F4B4CFAB2CB2CF80913F1A8F5F2D
S11351A080933F1A1EC080913E1A811101C0A11044
S11351B0B0923E1A80913F1A815080933F1A809199
S11351C03F1A81114ECF80913E1A813031F40E94F2
S11351D0591881E003C080E001C080E00F900FBE49
S11351E005C080913E1A8111E3CFE4CFDF91CF91C6
S11351F01F910F91FF90EF90DF90CF90BF90AF90F1
S11352009F9008950FB6F8940F928091421A90914E
S1135210431A0F900FBE0895CF92DF92EF92FF9240
S11352200F931F93CF93DF938091391A81119FC0FD
S11352308091421A9091431A01969093431A809355
S1135240421AE090421AF090431AE114F10499F5DD
S11352508091591A90915A1A2091571A3091581ADC
S113526030935A1A2093591A9093581A8093571AC4
S113527080913D1A8F5F80933D1AE091591AF09105
S11352805A1A8081811107C08FEF9FEF90933B1AC8
S113529080933A1A10C0E091591AF0915A1A058075
S11352A0F681E02D0680F781E02D82819381909331
S11352B03B1A80933A1A80913A1A90913B1AE81655
S11352C0F90610F4D12C59C0D12CCC24C394E0910C
S11352D0591AF0915A1A8081811107C08FEF9FEFFC
S11352E090933B1A80933A1A48C0E091591AF0916E
S11352F05A1A0580F681E02DC681D7818A819B8167
S1135300E816F90628F490933B1A80933A1A35C0AC
S11353108E010E5F1F4FC8010E94EC0C8C899D8981
S1135320892B21F0CE010C960E94EC0C8E89909171
S1135330411A981710F48093411A90E09C01220FAF
S1135340331F220F331F220F331F820F931FB80105
S11353508359954E0E949A0CE091A31AF091A41AD5
S11353609E898689981708F4B2CFDC2CB0CF80913F
S11353703F1A8F5F80933F1AD12C80913E1A882365
S113538011F0DD24D3948D2DDF91CF911F910F91D6
S1135390FF90EF90DF90CF9008958091391A882381
S11353A021F081E080933E1A089510923E1AA09154
S11353B0A31AB091A41AE091A31AF091A41A2D9102
S11353C03C918789908D8217930760F06091A31AAE
S11353D07091A41A8091A31A9091A41A675E7F4FCA
S11353E00E94BA148091411A90E0FC01EE0FFF1F55
S11353F0EE0FFF1FEE0FFF1F8E0F9F1FFC01E359DF
S1135400F54E8081811117C08091411A815080939B
S1135410411A8091411A90E0FC01EE0FFF1FEE0F3C
S1135420FF1FEE0FFF1F8E0F9F1FFC01E359F54E68
S11354308081882349F38091411A90E09C01220FD6
S1135440331F220F331F220F331F280F391FD90197
S1135450A359B54E1196ED91FC9112970280F381F8
S1135460E02D1296FC93EE9311972059354EE217D6
S1135470F30729F422813381FD0132832183FC0166
S1135480EE0FFF1FEE0FFF1FEE0FFF1F8E0F9F1F6C
S1135490FC01E359F54E0180F281E02D868197816C
S11354A09093A41A8093A31A0895CF93DF93EB01EA
S11354B06091A31A7091A41A645F7F4F0E94BB0C81
S11354C08091A31A9091A41A02960E94EC0CCF3FEB
S11354D08FEFD80759F46091A31A7091A41A6E5FE4
S11354E07F4F85E49AE10E949A0C37C08091421A5A
S11354F09091431AC80FD91FE091A31AF091A41AEE
S1135500D383C2838091421A9091431AC817D90752
S113551068F46091A31A7091A41A8091571A90911B
S1135520581A6E5F7F4F0E94BB0C17C06091A31A7C
S11355307091A41A8091591A90915A1A6E5F7F4FF4
S11355400E94BB0C80913A1A90913B1AC817D90754
S113555020F4D0933B1AC0933A1ADF91CF91089567
S11355600F931F93CF93DF93DC011596ED91FC917C
S11355701697C681D7818E01045F1F4FC8010E9410
S1135580EC0C8091391A81111CC00A501109C80110
S11355900E94EC0C8E899091411A981710F4809314
S11355A0411A90E09C01220F331F220F331F220F58
S11355B0331F820F931FB8018359954E0E949A0C92
S11355C005C0B8018EE49AE10E949A0CE091A31AF6
S11355D0F091A41A9E898689891720F481E080932A
S11355E03E1A01C080E0DF91CF911F910F91089581
S11355F020913D1AFC0120832091421A3091431AD4
S1135600328321830895FC010FB6F8940F92209100
S1135610421A3091431ADB018D919C918F3FBFEF69
S11356209B0721F140913D1A5081541729F0418183
S1135630528124173507E0F441815281D901A41B1A
S1135640B50BA817B907B0F4421B530B840F951F71
S1135650DB018D939C9380913D1A80838091421A43
S11356609091431A9283818380E005C080E003C057
S113567081E001C081E00F900FBE089581E0809326
S11356803E1A08958091A31A9091A41A08950F9335
S11356901F93CF93DF93FC01892B09F455C026890E
S11356A0A091A31AB091A41A56968C91281708F0C9
S11356B04BC084859585992364F0A091A31AB09179
S11356C0A41A56963C9186E090E0831B9109958735
S11356D0848730E0C901880F991F880F991F880FAC
S11356E0991F280F391F2359354E828593858217B8
S11356F0930719F58F01EF012296CE010E94EC0C5D
S1135700E091A31AF091A41A8689F801868B9091EE
S1135710411A981710F48093411A90E09C01220FCB
S1135720331F220F331F220F331F820F931FBE011B
S11357308359954E0E949A0C07C0A091A31AB09168
S1135740A41A56968C91868BDF91CF911F910F915D
S113575008950F931F93CF93DF93FC01892B79F165
S113576082A1815082A3268991A1291751F1811127
S11357702AC0EF018F010E5F1F4FC8010E94EC0C7D
S113578089A18E8B26E030E0281B31093D872C87C8
S11357909091411A981710F48093411A90E09C015B
S11357A0220F331F220F331F220F331F820F931F29
S11357B0B8018359954E0E949A0C81E005C080E09F
S11357C003C080E001C080E0DF91CF911F910F9171
S11357D008958091A31A9091A41A892B39F0E0912D
S11357E0A31AF091A41A82A18F5F82A38091A31AB5
S11357F09091A41A08950F931F93CF93DF93182FBA
S1135800EB010FB6F8940F92E091A31AF091A41A49
S113581083A194A1A5A1B6A1892B8A2B8B2B09F076
S113582058C0E091A31AF091A41A81E087A32097AD
S113583009F44FC08091A31A9091A41A02960E9471
S1135840EC0CCF3F8FEFD80759F46091A31A7091F5
S1135850A41A6E5F7F4F85E49AE10E949A0C37C0C8
S11358608091421A9091431AC80FD91FE091A31A4C
S1135870F091A41AD383C2838091421A9091431A5F
S1135880C817D90768F46091A31A7091A41A80917B
S1135890571A9091581A6E5F7F4F0E94BB0C17C025
S11358A06091A31A7091A41A8091591A90915A1A6E
S11358B06E5F7F4F0E94BB0C80913A1A90913B1A05
S11358C0C817D90720F4D0933B1AC0933A1A0E9400
S11358D059180F900FBE0FB6F8940F92E091A31AC7
S11358E0F091A41A63A174A185A196A16115710513
S11358F081059105D9F0112349F0E091A31AF091A3
S1135900A41A13A214A215A216A210C0E091A31AFD
S1135910F091A41A03A114A125A136A101501109E3
S11359202109310903A314A325A336A3E091A31AE3
S1135930F091A41A17A20F900FBEDF91CF911F917F
S11359400F9108954F925F926F927F928F929F92E0
S1135950AF92BF92EF92FF920F931F9349015A01A6
S11359600FB6F8940F92E091A31AF091A41A27A10C
S1135970223009F46FC0E091A31AF091A41A43A055
S113598054A065A076A0DC01CB0180959095A095EC
S1135990B09584219521A621B72183A394A3A5A31F
S11359A0B6A3E091A31AF091A41A81E087A3E114AD
S11359B0F10409F44FC08091A31A9091A41A02969D
S11359C00E94EC0C8FEFE816F80659F46091A31AC4
S11359D07091A41A6E5F7F4F85E49AE10E949A0C3D
S11359E037C08091421A9091431AE80EF91EE09153
S11359F0A31AF091A41AF382E2828091421A909140
S1135A00431AE816F90668F46091A31A7091A41A6F
S1135A108091571A9091581A6E5F7F4F0E94BB0C69
S1135A2017C06091A31A7091A41A8091591A909189
S1135A305A1A6E5F7F4F0E94BB0C80913A1A909164
S1135A403B1AE816F90620F4F0923B1AE0923A1A4F
S1135A500E9459180F900FBE0FB6F8940F920115BB
S1135A60110569F0E091A31AF091A41A83A194A1FD
S1135A70A5A1B6A1F80180839183A283B383E091A9
S1135A80A31AF091A41A87A18130B1F0E091A31A6E
S1135A90F091A41A83A194A1A5A1B6A18094909495
S1135AA0A094B09488229922AA22BB2283A294A211
S1135AB0A5A2B6A281E001C080E0E091A31AF09112
S1135AC0A41A17A20F900FBE1F910F91FF90EF9091
S1135AD0BF90AF909F908F907F906F905F904F900A
S1135AE008950F931F93CF93DF93FC010FB6F8949F
S1135AF00F920115110549F083A194A1A5A1B6A1A6
S1135B00E80188839983AA83BB8387A192E097A342
S1135B102230B1F018F4213031F02AC02330E9F0FA
S1135B20243001F125C003A114A125A136A1402BE5
S1135B30512B622B732B43A354A365A376A318C0E4
S1135B4043A154A165A176A14F5F5F4F6F4F7F4F73
S1135B5043A354A365A376A30BC043A354A365A393
S1135B6076A306C0823079F143A354A365A376A338
S1135B70813059F5EF018F010E5F1F4FC8010E945C
S1135B80EC0C8E899091411A981710F48093411A65
S1135B9090E09C01220F331F220F331F220F331F6B
S1135BA0820F931FB8018359954E0E949A0CE0917D
S1135BB0A31AF091A41A9E898689891740F40E9439
S1135BC0591881E005C080E003C081E001C081E094
S1135BD00F900FBEDF91CF911F910F910895EF9217
S1135BE0FF920F931F93CF93DF93FC0101151105CF
S1135BF049F083A194A1A5A1B6A1E8018883998362
S1135C00AA83BB8387A192E097A32230B1F018F452
S1135C10213031F02AC02330E9F0243001F125C0CD
S1135C2003A114A125A136A1402B512B622B732B68
S1135C3043A354A365A376A318C043A154A165A1AB
S1135C4076A14F5F5F4F6F4F7F4F43A354A365A36C
S1135C5076A30BC043A354A365A376A306C08230E6
S1135C60F1F143A354A365A376A38130D1F5EF01E9
S1135C708091391A81111DC08F010E5F1F4FC80119
S1135C800E94EC0C8E899091411A981710F480931D
S1135C90411A90E09C01220F331F220F331F220F61
S1135CA0331F820F931FB8018359954E0E949A0C9B
S1135CB007C0BF01645F7F4F8EE49AE10E949A0C93
S1135CC0E091A31AF091A41A9E898689891758F441
S1135CD0E114F10451F081E0F701808307C080E012
S1135CE005C081E003C081E001C081E0DF91CF9174
