S00C0000546573742E7372656378
S113000020C100003FC100003DC100000C94E61572
S11300100C94F7150C94081635C1000033C1000088
S113002031C100002FC100002DC100002BC1000010
S113003029C1000027C1000025C1000023C1000020
S113004021C100001FC100001DC100001BC1000030
S113005019C1000017C1000015C1000013C1000040
S113006011C100000FC100000DC100000BC1000050
S113007009C1000007C1000005C1000003C1000060
S11300800C94A919FFC00000FDC00000FBC00000D3
S1130090F9C00000F7C00000F5C00000F3C0000084
S11300A0F1C00000EFC00000EDC00000EBC0000094
S11300B0E9C00000E7C00000E5C00000E3C00000A4
S11300C0E1C00000DFC00000DDC000000C94FF2F81
S11300D0D9C00000D7C00000D5C00000D3C00000C4
S11300E0D1C00000084AD73B3BCE016E84BCBFFDA3
S11300F0C12F3D6C74319ABD56833DDA3D00C77FF4
S113010011BED9E4BB4C3E916BAAAABE000000808C
S11301103F05A84CCDB2D44EB93836A9020C50B91B
S1130120918688083CA6AAAA2ABE000000803F0047
S11301306E616E00696E660000407A10F35A00A08A
S1130140724E18090010A5D4E80000E8764817009C
S113015000E40B54020000CA9A3B000000E1F505DC
S1130160000080969800000040420F000000A08626
S113017001000000102700000000E8030000000058
S11301806400000000000A000000000001000000FC
S113019000002C76D888DC674F0823DFC1DFAE5916
S11301A0E1B1B796E5E3E453C63AE651997696E8A9
S11301B0E6C28426EB898C9B62ED407C6FFCEFBC2D
S11301C09C9F40F2BAA56FA5F490055A2AF75C9358
S11301D06B6CF9676DC11BFCE0E40D47FEF520E68E
S11301E0B500D0ED902E0300943577050080841E71
S11301F0080000204E0A000000C80C333333330FCC
S1130200986E12831141EF8D2114893BE65516CF68
S1130210FEE6DB18D1844B381BF77C1D901DA4BB74
S1130220E424203284725E228100C9F124ECA1E529
S11302303D27C7E8DAE188818230F0F30E94D018C4
S1130240FACF11241FBECFEFD1E2DEBFCDBF00E055
S11302500CBF17E0A0E0B2E0E6E7F2E700E00BBF76
S113026002C007900D92A633B107D9F72BE1A6E39C
S1130270B7E001C01D92A63FB207E1F70E945215F4
S11302800C943939BDCECF93DF936BE374E081E0F6
S11302900E9499171092370710923607C8E3D7E0E7
S11302A08DE8FE0111928A95E9F781E00E94FD191B
S11302B09093C2078093C1071882DF91CF9108956C
S11302C080913807811116C0E8E3F7E0168E158E89
S11302D0168A158A14A213A212A211A2178E148EC2
S11302E0128E118E138E1092C4071092C30791E0E0
S11302F0908308958FEF0895CF92DF92EF92FF924B
S11303000F931F93CF93DF931F92CDB7DEB769018D
S1130310E82EF12C9DE8899F80011124085C184F78
S113032083E0F8018083508F478B60A382E0898348
S11303300E94CB2BF801E557FF4F918380830E94E5
S1130340062F21E030E0AE014F5F5F4F61E0F8011E
S113035080A10E94A417B60181E00E94842C672B1F
S1130360682B692B61F48DE88E9DF0018F9DF00D53
S11303701124E85CF84F81E0808380E02EC080E0A7
S113038091E065D6009731F14DE84E9D90014F9D67
S1130390300D112440E051E0BC01C901875C984F45
S11303A05BD384E190E053D60097B1F02DE82E9D05
S11303B080012F9D100D112444E150E0BC01C801BF
S11303C08D5B984F49D3F801E85CF84F82E0808355
S11303D081E003C08FEF01C08FEF0F90DF91CF91C9
S11303E01F910F91FF90EF90DF90CF900895CF93DE
S11303F0DF93811134C020E04FEF5FEF60E070E0E5
S11304008091C1079091C2070E94EB1E809138072A
S1130410823051F060E070E08091C1079091C20792
S11304200E944F1D80E01CC0C8E3D7E089819A81F7
S113043018D78B859C8515D781E08883EF89F88D43
S113044060E070E080E090E0199560E070E08091F9
S1130450C1079091C2070E944F1D81E001C080E056
S1130460DF91CF910895EF92FF920F931F93CF9353
S1130470DF9300D01F92CDB7DEB75C834B8381112D
S11304807BC07B0120E04FEF5FEF60E070E0809184
S1130490C1079091C2070E94EB1E809138078230F9
S11304A051F4E114F10439F00B811C81C801019766
S11304B08436910550F060E070E08091C10790911E
S11304C0C2070E944F1D80E058C00E5F1F4F20914D
S11304D041073091420780E091E0821B930B08179B
S11304E0190708F03FC020914B0730914C0784E175
S11304F090E0821B930B0297A8F18AE290E09A8322
S1130500898342E050E0BE016D5F7F4F89E397E04D
S1130510B5D24B815C81B70189E397E0AFD2011575
S11305201105B1F0902F812F0B32110510F09AE2D2
S113053080E099838A8342E050E0BE016F5F7F4F81
S113054083E497E09BD289819A81081B190B51F7A8
S113055060E070E08091C1079091C2070E944F1D36
S11305608B810BC060E070E08091C1079091C2075D
S11305700E944F1D80E001C080E00F900F900F900B
S11305800F90DF91CF911F910F91FF90EF900895FD
S1130590CF93DF931F921F92CDB7DEB7811114C0A2
S11305A080913807823091F4662394F081E0898346
S11305B06A8322E030E0AE014F5F5F4F61E08091DB
S11305C058070E94A41705C080E003C080E001C062
S11305D080E00F900F90DF91CF910895AF92BF927A
S11305E0CF92DF92EF92FF920F931F93CF93DF93FB
S11305F0CDB7DEB7AE970FB6F894DEBF0FBECDBF52
S11306008111DBC080913807882309F4D6C020E02B
S11306104FEF5FEF60E070E08091C1079091C207F7
S11306200E94EB1E80913807823049F060E070E050
S11306308091C1079091C2070E944F1DBEC0809156
S11306405707882309F462C0E8E3F7E0858D968DA7
S11306500A96968F858F248D265F248F893E93403A
S113066058F060E070E08091C1079091C2070E9449
S11306704F1D80E0BCDEA1C0293C08F447C0E8E37C
S1130680F7E0078110851EA61DA6A18C838DA81AEC
S11306908A2D8F77A82EC1F1C12CD12CB12C7F01CA
S11306A01982F701838D8B0D8F778A834189528953
S11306B04C0D5D1D22E030E0BE01635D7F4F83E49D
S11306C097E08BD22DA53EA5A801BE016D5F7F4F9B
S11306D089E397E082D22DA53EA5020F131FF701EF
S11306E0838194810197082319232E5F3F4FAE0124
S11306F04F5F5F4F61E080A10E94A417B394F2E0C2
S1130700CF0ED11CAB10CCCF10925407E8E3F7E026
S1130710818D482F50E0938D491B51094F77552700
S1130720443051050CF041C06581768125893689B4
S113073062177307D1F119828A838F01440F551F01
S113074081899289480F591F22E030E0BE01635D20
S11307507F4F83E497E041D22DA53EA5F80145895A
S11307605689BE016D5F7F4F89E397E036D22DA590
S11307703EA5F80185899689A901480F591F8381EF
S11307809481019784239523968B858B81E0878FB1
S1130790818D8F5F8F77818F2E5F3F4FAE014F5FCB
S11307A05F4F61E080A10E94A41760E070E0809137
S11307B0C1079091C2070E944F1DAE960FB6F894E0
S11307C0DEBF0FBECDBFDF91CF911F910F91FF9080
S11307D0EF90DF90CF90BF90AF9008950F931F9349
S11307E0CF93DF93EA01811141C080915B0790911F
S11307F05C07892B99F4DB0111968C91119790E099
S1130800982F88272C91822B90935C0780935B0709
S11308108536910558F522976E5F7F4F08E317E000
S1130820F80181A192A1AE01835A984F0E946338C6
S1130830D80191966D917C9192976C0F7D1F929641
S11308407C936E93919793968D919C91949768174E
S1130850790761F45796ED91FC9158978DE597E0EF
S11308601995F80114A213A212A211A2DF91CF913B
S11308701F910F9108959F92AF92BF92CF92DF92F2
S1130880EF92FF920F931F93CF93DF931F92CDB7F5
S1130890DEB78B015A01909158079813B8C0909114
S11308A03807992309F4B3C0FB01D0800F2EF8E375
S11308B0EF2EF7E0FF2EF02D13C0E0913607F091F4
S11308C03707309759F0482F50E060E070E000E0BF
S11308D010E023E0CF010E94FA2DAAC0E12CF12CF4
S11308E020E04FEF5FEF60E070E0F701E757FF4F64
S11308F0808191810E94EB1EF7018081823030F06B
S1130900A114B10419F00115110551F4F701E757C9
S1130910FF4F60E070E0808191810E944F1D88C08C
S1130920833021F5F3E0DF1221C0F701E557FF4FD3
S113093080819181009781F000E010E022E040E0A6
S113094050E0BA010E94FA2DF701E557FF4F1182DA
S1130950108260E080E01CDEF701E757FF4F60E0A3
S113096070E0808191810E944F1D62C0F801C180B6
S1130970DD2009F452C0F4E0DF1213C053C0A50116
S113098042505109B8016E5F7F4F80E027DFF701C5
S1130990828D8F5F8F77828FF701628D80E0F8DD23
S11309A02CC0F1E0DF1229C0F701838DFC2DF81B68
S11309B08F2F8F77982E09F1D12C57018BE0A80E39
S11309C0B11C87010F5F1F4F42E050E0BE016F5F13
S11309D07F4FC50150D1498150E060E070E0C8010B
S11309E04AD1D3949D10F0CFF701C38E148E168E86
S11309F0158E818DC81201C0178EF701E757FF4F7E
S1130A0060E070E0808191810E944F1D11C0F80167
S1130A10D080F2E0DF120CC050CFF701828DC812F3
S1130A20BBCFADCFF701828DC81609F4B0CFB4CFD8
S1130A300F90DF91CF911F910F91FF90EF90DF9076
S1130A40CF90BF90AF909F90089580E0C7DD8AE07B
S1130A5090E00E94E125F9CFFC016115710561F078
S1130A6071836083538342831186108617821682B2
S1130A701582148281E0089580E00895EF92FF9238
S1130A800F931F93CF93DF93EC012A813B818885D9
S1130A909985F901E81BF90BE417F50708F449C037
S1130AA08A017B018C819D81A901481B590B041784
S1130AB01507A8F428813981A801820F931F0E9489
S1130AC063388C819D81800F911F9D838C832A8143
S1130AD03B818217930721F51D821C8221C0288146
S1130AE03981820F931F0E9463388C819D816A81B2
S1130AF07B81AC01461B570B400F511F681B790BC0
S1130B006E0D7F1D888199810E9463388C819D813F
S1130B102A813B81821B930B800F911F9D838C83C1
S1130B2048855985040F151F1987088781E090E0CF
S1130B3002C080E090E0DF91CF911F910F91FF9070
S1130B40EF9008950F931F93CF93DF93FC0121152A
S1130B503105C9F1A681B78184819581A817B907A8
S1130B60A9F1C62FD72F80E090E007C0A681B781F6
S1130B7064817581A617B70759F160817181A60F49
S1130B80B71F5C918E015883668177816F5F7F4FB9
S1130B9077836683A085B1851197B187A087A281E9
S1130BA0B3816A177B0711F4178216822196D80144
S1130BB05C91541302C001960BC0019628173907A3
S1130BC0A9F6C90105C080E090E002C080E090E091
S1130BD0DF91CF911F910F910895CF92DF92EF9201
S1130BE0FF920F931F93CF93DF937C016B01EA0174
S1130BF08901672BA9F1FC0142815381C417D507F0
S1130C0010F0C41BD50B4C1B5D0B4017510760F053
S1130C10F701608171816C0F7D1FA801C6010E94DC
S1130C206338802F912F1EC0F701608171816C0F92
S1130C307D1FC6010E946338F70122813381C901F7
S1130C408C1B9D0BA801421B530B4C0F5D1F608135
S1130C5071818C0D9D1D0E946338802F912F02C0DD
S1130C6080E090E0DF91CF911F910F91FF90EF9082
S1130C70DF90CF900895EF92FF920F931F93CF933D
S1130C80DF93EC017B01088519854017510708F4AF
S1130C908A018E819F814A815B81481B590B4017D1
S1130CA05107C8F0E114F10441F068817981680FBB
S1130CB0791FA801C7010E9463388E819F81800F2C
S1130CC0911F9F838E832A813B818217930741F56D
S1130CD01F821E8225C0E114F104C1F0688179816C
S1130CE0680F791FC7010E9463384E815F812A8192
S1130CF03B81C901841B950B421B530B400F511FB1
S1130D00688179818E0D9F1D0E9463388E819F8139
S1130D102A813B81821B930B800F911F9F838E83BB
S1130D2088859985801B910B99878887C801DF91F5
S1130D30CF911F910F91FF90EF900895EF92FF9242
S1130D400F931F93CF93DF937C01680F791FFC01EE
S1130D503196009719F04115510521F460E070E0D7
S1130D6081E04BC02115310559F1E617F70760F50D
S1130D708A01020F131FDA01EC0191E02FEF04C086
S1130D80FA01E617F70720F53D9131110AC098835F
S1130D90CF010196A017B107E8F4EF01FC0191E03F
S1130DA0F0CFAF014F5F5F4F30839F5FA017B10754
S1130DB0B0F49F3F29F728833296EA0191E0E1CF0E
S1130DC0EC0180E091E00DC0EC0182E091E009C00B
S1130DD082E007C0EF01FC0180E091E002C0FA016B
S1130DE080E0C617D70718F49883BF0101C082E0DA
S1130DF09B012E193F09622F732FDF91CF911F9111
S1130E000F91FF90EF900895AF92BF92CF92DF922F
S1130E10EF92FF920F931F93CF93DF937C01DA013C
S1130E20009711F0109721F460E070E081E05FC05A
S1130E302115310509F44BC06A01C20ED31E5C01B1
S1130E40A60EB71E8C0150E001C08F01ED01219662
S1130E507C91711103C05460F8013DC07150C6010A
S1130E608C1B9D0B272F30E08217930710F4782FEB
S1130E705860C501801B910B272F30E08217930720
S1130E8010F4782F5260772361F1DE01F801972F77
S1130E903D91311101C0546031939150C9F7EFEF86
S1130EA0E70FF0E03196DE01AE0FBF1FE00FF11F38
S1130EB0AC15BD0580F47E3F41F2EA15FB0510F048
S1130EC0526009C08F010F5F1F4F1082BFCFFC011A
S1130ED050E001C0F801EE19FF096E2F7F2F852F16
S1130EE006C0CC15DD05B0F7F801DE01E6CFDF91D1
S1130EF0CF911F910F91FF90EF90DF90CF90BF9013
S1130F00AF900895862798E02CE880FF03C086956B
S1130F10822701C086959150C1F708950F931F93BE
S1130F20CF93DF93662359F08C01EC01060F111D5A
S1130F3080E06991E7DFC017D107D9F701C080E0ED
S1130F40DF91CF911F910F91089580B380BBECE79F
S1130F50F0E08081806C8083EAE7F0E08081806843
S1130F6080838081846080830895ECE7F0E080834F
S1130F709081906C9083EAE7F0E090819064908394
S1130F80908196FDFDCF2091780090917900E82F13
S1130F90F0E02695269530E4939FC0011124822B1E
S1130FA0FE2FEE27E050FE4FE80FF11D80810895DB
S1130FB0CF92DF92EF92FF92CF93DF93EC01C88040
S1130FC0D980EA80FB802BED3FE049E450E4C7017F
S1130FD0B6010E94E23218166CF42BED3FE049ECA6
S1130FE050E4C701B6010E946B30688379838A8319
S1130FF09B8316C02BED3FE049E450ECC701B601DA
S11310000E943231882364F42BED3FE049EC50E434
S1131010C701B6010E946C30688379838A839B83FD
S113102088819981AA81BB81BC01CD019F772BED79
S11310303FE049E450E40E94E23218160CF4BFCFBA
S1131040DF91CF91FF90EF90DF90CF900895EF92D2
S1131050FF920F931F93CF93DF93EC010E944A28D2
S11310608091CB079091CC07892B41F5EDECF7E00B
S1131070A1EDB7E0B183A08313821282EDECF9E114
S1131080F093CC07E093CB07138212821182108273
S11310908CEF91E113969C938E931297ED93FC93AE
S11310A09093C8078093C7079093CA078093C90792
S11310B080E090E89093C6078093C5078091C507A8
S11310C09091C6078C239D23892B09F0B2C02097E9
S11310D009F4B2C0AE014C5F5F4F09F4B0C0809117
S11310E0C9079091CA078417950708F4ABC0E0912B
S11310F0CD07F091CE07ADECB7E002C0DF01F901F6
S1131100228133812417350728F420813181211568
S11311103105A1F76091CB077091CC07E617F7076B
S113112009F493C0CD91DC9111977E0184E0E80E1F
S1131130F11C808191818D939C9382819381841B86
S1131140950B8930910508F452C09F01240F351F77
S1131150D90113969C938E93129753834283ADECDB
S1131160B7E001C0DC018D919C9111978217930720
S1131170C8F312964D915C9113978D01040F151FBE
S11311802017310751F4E9012A813B81420F531F93
S113119013965C934E9312979D01E9014A815B81FA
S11311A08901040F151F80179107C9F4601771078F
S11311B091F0E8018A819B81480F591FE9015B8303
S11311C04A838D919C911197EC0188819981E90161
S11311D09983888307C0E9017983688303C0E9019F
S11311E099838883A217B30711F02D933C9322812E
S11311F033818091C9079091CA07821B930B909306
S1131200CA078093C9074091C7075091C80784173C
S1131210950720F49093C8078093C7078091C5076A
S11312209091C607282B392B338322831182108295
S11312300EC0E12CF12C0BC0E12CF12C08C0E12CE8
S1131240F12C05C0E12CF12C02C0E12CF12C0E9400
S11312505028C701DF91CF911F910F91FF90EF901C
S11312600895CF93DF93009709F468C0FC01349785
S1131270228133814091C5075091C607B901642387
S11312807523672B09F45AC060817181672B09F0BB
S113129055C0EF0140955095242335233383228391
S11312A00E944A284A815B818091C9079091CA07AC
S11312B0840F951F9093CA078093C907EDECF7E05C
S11312C001C0FC01808191818C179D07D0F322819C
S11312D03381BF01620F731FC617D70729F4240F88
S11312E0351F33832283EF012A813B81DE01A20F64
S11312F0B31F8A179B07C9F48091CB079091CC0741
S1131300A817B90779F012968D919C911397280F1D
S1131310391F3B832A83A081B1818D919C9199834C
S1131320888305C0B983A88302C099838883EC1796
S1131330FD0711F0D183C0830E945028DF91CF9123
S11313400895EF92FF920F931F93CF93DF93EC01D5
S1131350E42E2898862F80680E942323EE20B1F083
S11313600FEF0E0D10E00F5F1F4F0C0F1D1FF12C20
S113137080E00E9423238F3F09F4F39489930C1790
S11313801D07B1F7FE1004C085E003C085E001C06D
S113139080E0289ADF91CF911F910F91FF90EF90F9
S11313A00895CF93DF93EC012898862F80680E94DC
S11313B0232380E00E942323289A8F3F11F495E091
S11313C001C090E08883892FDF91CF910895CF9356
S11313D0DF931F921F92CDB7DEB7E7E2FBE181E016
S11313E0808324EF31E03283218322E836E03483A2
S11313F0238320E931E03683258317821086818791
S1131400828720E130E0348723872DE030E036877F
S1131410258722E330E0308B2787118A128A838B59
S1131420848B88EB9BE0968B858B8AE090E0908F91
S1131430878B118E1092421B1092411B1092441BF9
S11314401092431B0E941523209A289A198220E1A6
S113145037E289818F5F898321503109D1F76FE0A9
S1131460CE0102969EDF8A818936C9F780E00F900B
S11314700F90DF91CF9108950F931F93CF93DF9334
S11314801F921F92CDB7DEB78C0142E0CE010196C8
S113149058DF2A8130E0322F22279981292BF80145
S11314A0318320830F900F90DF91CF911F910F9183
S11314B00895CF93C62F28980E9423238C2F0E942F
S11314C02323289A80E0CF9108951F93CF93DF932D
S11314D01F921F92CDB7DEB7198279DF182F1982B8
S11314E08091301B813009F083C08091361B90912C
S11314F0371B8436910541F0883C910541F0C29731
S113150041F483E0898305C082E0898302C081E0DD
S113151089838091321B9091331B8430910531F083
S11315208830910539F0029749F40BC089818860AD
S1131530898307C089818C60898303C08981846021
S113154089838091341B9091351B803A21E0920766
S1131550C1F170F48A31910521F118F40D97E9F085
S113156028C08433910509F1803D910531F121C0F2
S113157082302DE0920789F140F4813423E0920710
S113158021F18C37964029F114C084302AE1920766
S113159041F18231944349F10CC08981806189838E
S11315A027C089818062898323C08981806389837C
S11315B01FC08981806489831BC089818065898378
S11315C017C089818066898313C089818067898374
S11315D00FC08981806889830BC089818069898370
S11315E007C08981806A898303C08981806B89836C
S11315F0698180E15EDF63E1CE010196D2DE8981FB
S11316008F7789839091311B913011F4806889839D
S1131610698183E14EDF19828091271B813009F0B3
S11316205BC08091281B9091291B853F9105C1F0D7
S113163020F48D37910549F011C0843F21E09207D1
S113164039F0883E934039F009C082E0898308C0AC
S113165084E0898305C088E0898302C08CE08983A3
S113166080912A1B90912B1B803D910531F148F408
S11316708A319105B1F084339105B9F00D97C9F41D
S11316800CC0813423E0920701F18C3726E09207E5
S113169001F1803A914069F414C0898180618983A1
S11316A01BC089818062898317C089818063898393
S11316B013C08981806489830FC08981806589838F
S11316C00BC089818066898307C08981806789838B
S11316D003C0898180688983698181E1EADE6FE0E2
S11316E0CE0102965EDE812F0F900F90DF91CF9195
S11316F01F910895CF93DF931F921F92CDB7DEB74A
S113170066E2CE010196B8DE8823A9F0853051F453
S11317108091411B9091421B01969093421B8093B0
S1131720411B09C08091431B9091441B01969093E7
S1131730441B8093431B89819A810F900F90DF9102
S1131740CF910895CF92DF92EF92FF92CF93FC0155
S11317504091281B5091291B453F5105B1F09A0136
S1131760A5E2B6E00E945D37481B590B5695479594
S1131770840F951F0024880F991F001C880F991F40
S1131780001C892F902DC82F01C0C2E0BF01FF0F9C
S1131790880B990B0E94D43120E030E04CE850E4EF
S11317A00E94ED326B017C016C2F70E080E090E0D0
S11317B00E94D4319B01AC01C701B6010E94ED32F5
S11317C020E030E04AE754E40E943931CF91FF90A1
S11317D0EF90DF90CF9008958DDFB4CF0895EAE0C5
S11317E0F1E080818760808308958230910531F42F
S11317F0EBE0F1E08081846080830895813091057D
S113180031F4EBE0F1E08081826080830895892BDC
S113181029F4EBE0F1E080818160808308958230D7
S1131820910531F4EBE0F1E080818B7F80830895B2
S11318308130910531F4EBE0F1E080818D7F80838C
S11318400895892B29F4EBE0F1E080818E7F808379
S113185008958230910539F4EBE0F1E0908184E061
S11318608927808308958130910539F4EBE0F1E014
S1131870908182E0892780830895892B31F4EBE0FD
S1131880F1E0908181E0892780830895FC0103962B
S1131890928381832FEF3FEF348323839683858361
S11318A09087878310820895FC011186108608951D
S11318B0CF93DF939C01FB01DC011196CD91DC9168
S11318C01297D383C2838C819D81958384838C8179
S11318D09D81DC0113967C936E9312977D836C83B8
S11318E031872087F90180818F5F8083DF91CF91D9
S11318F00895CF93DF93EB01488159814F3F2FEF38
S1131900520721F4FC01A781B0850DC0DC011396B8
S113191001C0DF011296ED91FC9113972081318172
S113192042175307B0F71296ED91FC911397FB837E
S1131930EA83D583C483BD83AC831396DC93CE93AF
S1131940129799878887FC0120812F5F2083DF917C
S1131950CF910895CF93DF93FC01A085B185C28117
S1131960D381848195819D838C83C481D581828137
S113197093819B838A8311968D919C911297E8178A
S1131980F90731F48481958112969C938E93119773
S1131990118610868C9181508C93DF91CF9108959C
S11319A0CF93DF93CDB7DEB728970FB6F894DEBF99
S11319B00FBECDBF19821A821B821C821D821E8219
S11319C01F8218860E949D20A12CB12CC12CD12CE1
S11319D0E12CF12C03E020E030E048EC50E06BE037
S11319E076E085E295E00E942A23813019F080E0B8
S11319F090E0FBDE0E94A620182F88EE93E00E9460
S1131A00E12582E090E025DF1123A1F30E94B220BA
S1131A100F2EF1E5EF2EFBE1FF2EF02D01E020E08B
S1131A204FEF5FEF60E070E080914D1B90914E1B93
S1131A300E94EB1E813099F70E944A280FB6F89451
S1131A400F92F7011081A180B280C380D4800F90DF
S1131A500FBE0E945028153009F455C028F41230E6
S1131A60A9F01430A1F1DBCF173009F454C018F0F9
S1131A70183049F0D4CF0FB6F8940F920093DE19C2
S1131A800F900FBECCCF0E94BA21C9CFB501BB0CB9
S1131A90880B990B0E94D43169837A838B839C834E
S1131AA0B601DD0C880B990B0E94D4316D837E83C3
S1131AB08F83988720E044E650E0BE016F5F7F4F3C
S1131AC08091E5199091E6190E947F1BA8CF0FB66B
S1131AD0F8940F920093DD190F900FBE19821A82A9
S1131AE01B821C821D821E821F82188620E044E60F
S1131AF050E0BE016F5F7F4F8091E5199091E61928
S1131B000E947F1B8CCF0FB6F8940F921092DD19B0
S1131B100F900FBE84CF0FB6F8940F921092DE1977
S1131B200F900FBE7CCFCF93DF93CDB7DEB7639713
S1131B300FB6F894DEBF0FBECDBF198210E021E0CE
S1131B40288BF12C6894222422F86894332432F8E8
S1131B500EC00F2EF3E02F2EF02D09C00F2EF3E050
S1131B602F2EF02D04C00F2EF3E02F2EF02D809198
S1131B70DE19813009F020C18091DD1981111CC169
S1131B800E948B299B838A8320E046E950E0BE01B2
S1131B906F5F7F4F8091E3199091E4190E94EB1ECF
S1131BA08130C9F48981882319F0833098F408C0FE
S1131BB03889F39EF02C112411E081E0888B0BC04E
S1131BC09DECF99EF12C1124F694F69410E025E096
S1131BD0288B01C010E03889F39E802D11240E94C7
S1131BE0DE2168EC70E0CE0102960E943E2480E083
S1131BF0BCD9D82E81E0B9D9E82E83E0B6D9C82E55
S1131C0082E0B3D9898B20E048E250E060E070E0E4
S1131C1080914F1B9091501B0E94EB1E4090D9194C
S1131C205090DA196090DB197090DC19A090D719E4
S1131C30B090D8198091D5199091D6199D878C8729
S1131C4060E070E080914F1B9091501B0E944F1DEB
S1131C501B3038F08981811104C00E94592111E0A0
S1131C6006C0112321F08981811101C01F5F3889C9
S1131C70232F30E03B8B2A8BF29E4001F39E900C85
S1131C8011248C859D856AE070E00E944A377D8727
S1131C906C87C5016AE070E00E944A377F876E87CF
S1131CA020E030E044E353E4C301B2010E94ED328A
S1131CB02BED3FE049E450E40E9439310E94A13108
S1131CC0A9880D2D9401AB016C857D858E859F853A
S1131CD00E9417218FE1881691042CF09CE3891649
S1131CE091048CF1D9888FEF8D0D833160F52E85A9
S1131CF03F85B901330F880B990B0E94D4316C8353
S1131D007D838E839F832C853D85B901330F880B9A
S1131D10990B0E94D431688779878A879B878FE0E3
S1131D2096E09F938F930E947D2120E044E650E04B
S1131D30BE016C5F7F4F8091E5199091E6190E9476
S1131D407F1B0F900F903BE583169104ACF484E065
S1131D50281212C08981833008F044C0F3942A8980
S1131D603B89F29E4001F39E900C11243AE58316C0
S1131D7091040CF0EECE17C01814190444F583E056
S1131D8028122AC08981833008F0F1CEFA942A8976
S1131D903B89F29E4001F39E900C112404C034E070
S1131DA0231609F4DBCE181419040CF4E0CE83E0F6
S1131DB02812DDCE232CDBCE80E00E94DE2184E6D7
S1131DC090E00E94E12510E0F12C232CD0CE9AE57E
S1131DD08916910464F30AC02AE5821691040CF46E
S1131DE0C6CEDDCF18141904BCF3F1CF34E02316AA
S1131DF009F4B9CEDCCFCF93DF93CDB7DEB7C154AE
S1131E00D1090FB6F894DEBF0FBECDBF19821A8276
S1131E101B821C821D821E821F82188619861A86C6
S1131E201B861C861D861F861E86198A188A1A8A96
S1131E301B8A1C8A1D8A1E8A1F8A1AAE1BAE1CAE00
S1131E401DAE1EAA1FAA18AE19AE1EAE1FAE219655
S1131E501FAE219722961FAE22971DA621E02CA724
S1131E601AAA1BAA1CAA1DAA1EA61FA618AA19AA4A
S1131E7018A219A21AA21BA218A619A61AA61BA672
S1131E801CA21DA21EA21FA28091DE198823E1F3C9
S1131E90F8944091DF191092DF191091E019109213
S1131EA0E0197894BE01625F7F4F8A89BCD7412FC5
S1131EB0BE01605F7F4F8B89CBD720E041E050E0CB
S1131EC060E070E08091491B90914A1B0E94EB1ED8
S1131ED08E859F859093D2198093D1198889998989
S1131EE09093D4198093D31960E070E08091491BDA
S1131EF090914A1B0E944F1D20E04FEF5FEF60E07E
S1131F0070E08091471B9091481B0E94EB1E81302A
S1131F1009F0BACF20E04FEF5FEF60E070E080910E
S1131F204F1B9091501B0E94EB1E3090D9192090AA
S1131F30DA194090DB195090DC19E090D719F09031
S1131F40D8190091D5191091D61960E070E08091EC
S1131F504F1B9091501B0E944F1D20E040E050E029
S1131F60BE016F5F7F4F8091E5199091E6190E9441
S1131F70EB1E813009F063C020E030E040E251E420
S1131F8069817A818B819C810E94ED32662E772E45
S1131F90882E992E6CA37DA38EA39FA320E030E00E
S1131FA040E251E46D817E818F8198850E94ED32FB
S1131FB0D62EC72EB82EA92E68A779A78AA79BA7C5
S1131FC0B7010F2C000C880B990B0E94D4316EAB17
S1131FD07FAB88AF99AFB801012E000C880B990B29
S1131FE00E94D4316AAF7BAF8CAF9DAF232D322DCD
S1131FF0442D552D68A179A18AA19BA10E946B3023
S11320006C8B7D8B8E8B9F8BAF92BF92CF92DF9226
S11320109F928F927F926F928EE196E09F938F931F
S11320200E947D210FB6F894DEBF0FBECDBF3EAE39
S11320302FAE21964FAE219722965FAE2297B7011D
S1132040FF0C880B990B0E94D4319B01AC01BCA1FD
S1132050ADA1FEA1EFA16B2F7A2F8F2F9E2F0E948F
S11320606B304B015C01B801110F880B990B0E9476
S1132070D4319B01AC01B8A5A9A5FAA5EBA56B2F9A
S11320807A2F8F2F9E2F0E946B306B017C01A5014C
S11320909401C501B4010E94ED32688F798F8A8F53
S11320A09B8FA7019601C701B6010E94ED326C8F88
S11320B07D8F8E8F9F8F2C8D3D8D4E8D5F8D688D86
S11320C0798D8A8D9B8D0E946C300E945A33162F15
S11320D0072F888F9C8FA5019401C701B6010E9428
S11320E0DF3068A379A38AA39BA3CA84DB84EC842E
S11320F0FD84232D322D442D552D0E946B302B0150
S11321003C016A877B878C879D87CE010A960E9453
S1132110D8072A853B854C855D85C701B6010E9499
S11321206B304B015C012BED3FE049EC5FE30E9417
S1132130E232181654F02BED3FE049EC5FEBC50199
S1132140B4010E94323188232CF44C8A5D8A6E8A51
S11321507F8A12C02EAD3FAD21964FAD21972296B6
S11321605FAD229768A179A18AA19BA10E946B30DF
S11321706C8B7D8B8E8B9F8BCE0144960E94D807EF
S11321808C899D89AE89BF89BF778C8B9D8BAE8BE3
S1132190BF8B4A845B846C847D8453014201E89440
S11321A0B7F829E134E046E05FE3C501B4010E94D9
S11321B0E23218166CF022E73AE84EE85CE3C50117
S11321C0B4010E943231882324F491E09CA701C019
S11321D01CA6A3019201C701B6010E946B306B01DA
S11321E07C012BED3FE049EC5FE30E94E2321816DC
S11321F00CF446C02BED3FE049EC5FEBC701B601A0
S11322000E94323188230CF440C02EA93FA948AD66
S113221059ADBCA1ADA1FEA1EFA16B2F7A2F8F2FD9
S11322209E2F0E946B302B013C012AAD3BAD4CAD7F
S11322305DADB8A5A9A5FAA5EBA56B2F7A2F8F2FB5
S11322409E2F0E946B306B017C01A3019201C3019C
S1132250B2010E94ED322B013C01A7019601C70196
S1132260B6010E94ED329B01AC01C301B2010E9490
S11322706C300E945A33962E872E782E692E09C010
S1132280912E802E788C6C8C04C0912E802E788CAC
S11322906C8C20E030E0A901692D782D872D962DD6
S11322A00E94E23218161CF520E030E048E453E4C2
S11322B0692D782D872D962D0E94323188234CF577
S11322C020E030E040E05FE3692D782D872D962DE6
S11322D00E94ED326B017C0120E030E048EC52E4D6
S11322E00E943931362E272EA82EB92E23C0312C28
S11322F0212C6894AA24A7F80F2EFFE3BF2EF02DFB
S11323000F2EC12CD12CF8ECEF2EF2E4FF2EF02D81
S113231011C0312C212C6894AA24A7F80F2EFFE3B6
S1132320BF2EF02D0F2EC12CD12CF8ECEF2EF2E4A1
S1132330FF2EF02D20E030E040E751E4612F702FB4
S1132340888D9C8D0E94E23218160CF0A7C1212FB3
S1132350302F488D5C8D692D782D872D962D0E9408
S11323606B302B013C0120E030E0A9010E94E232F5
S1132370882354F1A3019201C701B6010E94E232FD
S1132380882314F120E030E048EC52E4632D722DF0
S11323908A2D9B2D0E94ED322BE734E14EE25FE360
S11323A00E94ED32A30192010E94ED32A701960131
S11323B00E94393120E030E04CE052E40E946C305D
S11323C00E94A631962E4AC020E030E046E953E44C
S11323D0612F702F888D9C8D0E943231882394F553
S11323E020E030E04CE852E4612F702F888D9C8D02
S11323F00E94ED3220E030E046E953E40E94393196
S113240021E030E040EF51E40E946C300E94A6319C
S1132410962E20E030E040E251E4612F702F888D49
S11324209C8D0E9432318823CCF41F929F9283E3C7
S113243096E09F938F930E947D210F900F900F90B1
S11324400F900CC08AE396E09F938F930E947D21A6
S11324500F900F900F2EF4E69F2EF02D8CA588235D
S113246009F49DC0CA84DB84EC84FD8420E030E060
S1132470A901C701B6010E94E2328823BCF1A92C4C
S1132480B12CB5010B2C000C880B990B0E94D43194
S11324902B013C0120E030E046E154E4C701B601E1
S11324A09F770E94ED329B01AC01C301B2010E94EF
S11324B06B302B013C0120E030E040E251E46EA59A
S11324C07FA588A999A90E94ED329B01AC01C301A3
S11324D0B2010E946B300E94A131A616B706ECF13E
S11324E08B017723ECF500E010E03AC0092D10E0F1
S11324F0B801012E000C880B990B0E94D4314B01BA
S11325005C0120E030E046E154E4C701B6019F7766
S11325100E94ED329B01AC01C501B4010E946B30F5
S11325204B015C0120E030E040E251E46AA97BA960
S11325308CA99DA90E94ED329B01AC01C501B40197
S11325400E946B300E94A1310617170744F05B010B
S1132550772334F4A12CB12C03C0850101C05801A8
S1132560A70196016EA57FA588A999A90E946C3040
S11325706EA77FA788AB99ABA70196016AA97BA92F
S11325808CA99DA90E946B306AAB7BAB8CAB9DABD5
S113259086E08B8B84E08A8B91E0998774C0CA842F
S11325A0DB84EC84FD8420E030E0A901C701B6019E
S11325B00E94E2328823A4F1C701B6019F772EEA74
S11325C037E441E65EE30E94ED322AE939E949E95C
S11325D05EE30E946C306B017C0120E030E048EC4B
S11325E052EC0E94ED320E94A1318B0185E08A8B6E
S11325F020E030E048EC52E4C701B6010E94ED321D
S11326000E94A1315B0186E08B8B84E089871AAA42
S11326101BAA1CAA1DAA1EA61FA618AA19AA33C063
S1132620C701B6019F772EEA37E441E65EE30E94D4
S1132630ED322AE939E949E95EE30E946C306B0125
S11326407C0120E030E048EC52E40E94ED320E942C
S1132650A1318B0184E08A8B20E030E048EC52EC1D
S1132660C701B6010E94ED320E94A1315B0185E0F1
S11326708B8B83E089871AAA1BAA1CAA1DAA1EA6F3
S11326801FA618AA19AA9E012D5E3F4FAE014E5EE9
S11326905F4FB501C801A0D31DA60AC02DA5211105
S11326A004C00E94592181E08DA782D386D3198664
S11326B020E040E050E0BE01675F7F4F8091E31966
S11326C09091E4190E947F1BDFCBCF93DF93CDB7AA
S11326D0DEB7A2970FB6F894DEBF0FBECDBF198246
S11326E01A821B821C820E948B299E838D831E8EDC
S11326F01F8E18A219A21B861C861D861E861F8A81
S1132700188E198E1A8E1B8A1C8A1D8A1E8AE12C29
S1132710F12C812C912C412C312C212C512C68E250
S113272070E0CE0105960E943E248091DE19882334
S113273009F490C120E04FE050E060E070E0809147
S1132740491B90914A1B0E94EB1E6090D119709016
S1132750D2190091D3191091D41960E070E08091DE
S1132760491B90914A1B0E944F1DB30168197909B6
S1132770072E000C880B990B0E94D43128EF33E507
S113278043EA5FE30E94ED324B015C01B8016E192C
S11327907F09072E000C880B990B0E94D43128EF77
S11327A033E543EA5FE30E94ED326B017C019B0158
S11327B0AC01C501B4010E946C3020E030E040E07F
S11327C05FE30E94ED326F87788B898B9A8BA5012A
S11327D09401C701B6010E946B3020E030E043E170
S11327E053E40E9439314B015C010E94EC0B2B85B0
S11327F03C854D855E850E946B306B017C019F7723
S113280020E030E040E251E40E94323188234CF071
S113281081E08AA31F821B8E80E48C8F8FE38D8FCF
S113282005C01AA24F823B8E2C8E5D8E2F813B8D6C
S11328304C8D5D8D60E070E080E89FE30E946B301A
S1132840A50194010E94ED324B015C0124ED32E0BC
S113285047E35AE3C701B6010E94ED322F813B8D55
S11328604C8D5D8D0E94ED32A50194010E946C3067
S11328706F83788789879A87C980DA80EB80FC80A8
S113288020E030E040E05FE30E94ED32A7019601D2
S11328900E946C304B015C010E9436319B01AC01FB
S11328A06F85788989899A890E94ED329B01AC01F0
S11328B06B897C898D899E890E946C306B8B7C8BA3
S11328C08D8B9E8BC501B4010E9450339B01AC01DA
S11328D06F85788989899A890E94ED329B01AC01C0
S11328E06F89788D898D9A8D0E946C306F8B788F6B
S11328F0898F9A8FA70196016F81788589859A853A
S11329000E946C3069837A838B839C8326E63FE53F
S113291049E55BE36E8D7F8D88A199A10E946C309F
S11329206B017C018AA1811123C0242D332D422DFA
S1132930552D6F85788989899A890E943231811150
S113294017C0242D332D422D552DC701B6010E94E9
S11329506C309B01AC01C701B6010E943931B62E1F
S1132960A72E982E892E81E090E00E94F50B08C0D6
S113297081E090E00E940F0CB42CA32C922C852CA7
S1132980242D332D422D552D6B2D7A2D892D982DE7
S11329900E94ED329B01AC0169817A818B819C811B
S11329A00E946C3069837A838B839C83CE01019669
S11329B00E94D8072B2D3A2D492D582D60E070E048
S11329C080E89FE30E946B30A70196010E94ED32DC
S11329D06E8F7F8F88A399A320E04FE050E060E0E2
S11329E070E080914F1B9091501B0E94EB1E8981D7
S11329F09A81AB81BC818093D9199093DA19A09301
S1132A00DB19B093DC196B897C898D899E890E94BE
S1132A10A1317093D8196093D7196F89788D898DF6
S1132A209A8D0E94A1317093D6196093D51960E0F4
S1132A3070E080914F1B9091501B0E944F1D60E0ED
S1132A4070E08091471B9091481B0E944F1D7801B4
S1132A50430165CE05E610E0A42CB32CC22CD52C82
S1132A600E94EC0B9B01AC016A2D7B2D8C2D9D2DBE
S1132A700E946C30A62EB72EC82ED92E01501109F3
S1132A8079F720E030E04AEC52E40E9439316B8758
S1132A907C878D879E8743CEF89480E090E00E94E7
S1132AA0290CFBCF0E94EF0B80E090E00E94F50B15
S1132AB00E94892F39D20E9443018BE890E20E9440
S1132AC0892280E00E9401220E94A507EED00E9484
S1132AD0650A40E068E081E03ED49093E619809373
S1132AE0E51940E061E081E036D49093E4198093E5
S1132AF0E31940E061E082E02ED49093E2198093E0
S1132B00E11981E07AD49093501B80934F1B81E0AC
S1132B1074D490934C1B80934B1B81E06ED49093A0
S1132B204A1B8093491B43E060E081E014D49093F6
S1132B30481B8093471B43E060E081E00CD49093F2
S1132B404E1B80934D1BA12CB12CC12CD12CE12CFC
S1132B50F12C03E020E030E04CE251E06CE376E05D
S1132B6080ED9CE00E942A2302E020E030E04CE269
S1132B7051E061E476E08BEF9EE00E942A2305E0B9
S1132B8020E030E04CE251E069E476E085E693E150
S1132B900E942A2301E020E030E04CE251E061E5AC
S1132BA076E083E99DE00E942A23789480E090E017
S1132BB00E940F0C0E946627C7E5D6E0F894DF93C5
S1132BC0CF930E947D210F900F90F8CF1F920F9208
S1132BD00FB60F9211248F938091DF198F5F80932A
S1132BE0DF198F910F900FBE0F901F9018951F92B1
S1132BF00F920FB60F9211248F938091E0198F5F7B
S1132C008093E0198F910F900FBE0F901F9018952D
S1132C101F920F920FB60F9211240BB60F922F939F
S1132C203F934F935F936F937F938F939F93AF9350
S1132C30BF93EF93FF93649905C082E090E00E94F4
S1132C40F50B18C01092DE191092DD1982E090E0A5
S1132C500E940F0C81E090E00E940F0C80E090E055
S1132C600E940F0C60E070E080914D1B90914E1B10
S1132C700E94C01E60E070E08091471B9091481B49
S1132C800E94C01EFF91EF91BF91AF919F918F91D0
S1132C907F916F915F914F913F912F910F900BBE58
S1132CA00F900FBE0F901F901895E1E0F1E0808126
S1132CB080638083269A84B1806684B9279A2F988A
S1132CC02E9885B18F7985B9E2E0F1E080818F7C1F
S1132CD080838AB18AB98BB18C608BB96C988DB3BF
S1132CE08DBBE9E6F0E08081806F8083EAE6F0E066
S1132CF08081816080838CE18CBB8DB38C618DBBC2
S1132D0084B5806884BDE0E8F0E0808180628083DF
S1132D1084B5836084BD85B585BD808181608083F1
S1132D20A1E8B0E08C9188608C9385B5856085BD01
S1132D308C9185608C9380818083E0EBF0E08081CE
S1132D40808380818083E0EAF0E08081808308953D
S1132D5087BD2C9A2D9884E0FB018083089590E030
S1132D6090938B0080938A00E2E0F1E0808180649C
S1132D70808380818F7D808386E0FB01808308953A
S1132D8087BD2C982D9A85E0FB018083089590E0FF
S1132D9090938B0080938A00E2E0F1E080818F7B46
S1132DA0808380818062808385E0FB018083089535
S1132DB08FEF87BD2C982D9808958FEF90E0909316
S1132DC08B0080938A00E2E0F1E080818F7B808336
S1132DD080818F7D808308950F931F93CF93DF931A
S1132DE0EB018901181619061CF4BA01B1DF07C0FA
S1132DF0992324F4BA018195C3DF01C0D9DF1C16DD
S1132E001D0624F4B8018C2FAADF08C0DD232CF49E
S1132E10B8018C2F8195BBDF01C0CFDFDF91CF914B
S1132E201F910F910895843019F0853049F0089569
S1132E30FB0180819181840F911D9183808308958A
S1132E40FB0180819181841B910991838083089582
S1132E50853051F0863079F4FB0180819181840FB3
S1132E60911D918380830895FB0180819181841B4E
S1132E709109918380830895EF92FF920F931F939A
S1132E80CF93DF937C018B01CB010E942708EC01D7
S1132E90980121503109A701B8010E940407882331
S1132EA049F08091E8198F5F8093E819CE010E9460
S1132EB0310933C0862F972F8C01FE01E80FF91FCB
S1132EC03197F0806FEF680FCE010E948E07F816DD
S1132ED049F08091E7198F5F8093E719CE010E9432
S1132EE031091BC08881833021F0CE010E94310951
S1132EF014C0A80144505109BE016D5F7F4FEA819F
S1132F00F0E0EE0FFF1FE559F44E0190F081E02D43
S1132F1089811995CE010E943109DF91CF911F91CA
S1132F200F91FF90EF9008958CE397E10C94FA2FA2
S1132F300895823040F4E82FF0E0EE0FFF1FE559CA
S1132F40F44E7183608308958F929F92AF92BF92E3
S1132F50CF92DF92EF92FF920F931F93CF93DF9361
S1132F60882E962E5A018901690184E0C80ED11C6D
S1132F70C6010E942708EC01C80106960E94270892
S1132F807C01209711F0892B41F4CE010E94310974
S1132F90C7010E94310980E03CC0888283E08983B4
S1132FA09A82A801B501CE0103960E9463385801A4
S1132FB0E3E0AE0EB11CAC0EBD1E63E0600FCE01AB
S1132FC00E948E07F5018083B8016B5F7F4F9601E5
S1132FD0AE01C7010E949E06882341F0CE010E94E3
S1132FE03109C7010E94310980E013C0862F972F51
S1132FF0F701E80FF91F1082BC016F5F7F4FC70113
S11330000E94D62FCE010E943109C7010E943109C6
S113301081E0DF91CF911F910F91FF90EF90DF90AE
S1133020CF90BF90AF909F908F90089531E1FC01B5
S11330303083319722E220833197A3E3A083319731
S11330406083319770833197108231971082319762
S113305060E8608331971082319710823197108233
S1133060319762E06083319763E06083319764E075
S11330706083319765E06083319766E060833197C0
S113308067E06083319768E06083319769E060832B
S1133090319760E1608331973083319732E1308337
S11330A0319733E13083319734E13083319735E11F
S11330B03083319736E13083319737E1308331976C
S11330C038E13083319739E13083319730E230830E
S11330D0319731E2308331972083319723E2208383
S11330E03197408331975083319726E2208331977B
S11330F027E22083319728E22083319729E2208335
S1133100319720E32083319721E320838997089521
S113311088EE93E09093801B80937F1B9093821B97
S11331208093811B1092990089EF809398008BE023
S113313080939100E1E7F0E0808182608083A09138
S1133140BD1AB091BE1ACD91CDBFDD91DEBFFF9106
S1133150EF91DF91CF91BF91AF919F918F917F912B
S11331606F915F914F913F912F911F910F91FF901C
S1133170EF90DF90CF90BF90AF909F908F907F9013
S11331806F905F904F903F902F901F900F900CBEC8
S11331900F900BBE0F900FBE0F90089581E008951D
S11331A00F920FB6F8940F920BB60F920CB60F92C3
S11331B01F9211242F923F924F925F926F927F92AF
S11331C08F929F92AF92BF92CF92DF92EF92FF9233
S11331D00F931F932F933F934F935F936F937F931B
S11331E08F939F93AF93BF93CF93DF93EF93FF930B
S11331F0A091BD1AB091BE1A0DB60D920EB60D92E5
S11332000E94562AA091BD1AB091BE1ACD91CDBF8D
S1133210DD91DEBFFF91EF91DF91CF91BF91AF912F
S11332209F918F917F916F915F914F913F912F91DA
S11332301F910F91FF90EF90DF90CF90BF90AF90D0
S11332409F908F907F906F905F904F903F902F90C2
S11332501F900F900CBE0F900BBE0F900FBE0F90DF
S113326008950F920FB6F8940F920BB60F920CB606
S11332700F921F9211242F923F924F925F926F925E
S11332807F928F929F92AF92BF92CF92DF92EF92F2
S1133290FF920F931F932F933F934F935F936F93DB
S11332A07F938F939F93AF93BF93CF93DF93EF93CA
S11332B0FF93A091BD1AB091BE1A0DB60D920EB631
S11332C00D9213BE8091811B9091821B0197909364
S11332D0821B8093811B892B41F480917F1B9091E9
S11332E0801B9093821B8093811B0E9495298111DE
S11332F00E94562AA091BD1AB091BE1ACD91CDBF9D
S1133300DD91DEBFFF91EF91DF91CF91BF91AF913E
S11333109F918F917F916F915F914F913F912F91E9
S11333201F910F91FF90EF90DF90CF90BF90AF90DF
S11333309F908F907F906F905F904F903F902F90D1
S11333401F900F900CBE0F900BBE0F900FBE0F90EE
S1133350089587DF18950F931F93CF93DF93082F5A
S1133360162F662309F43BC0869FC0011124809662
S11333700E942708EC01009721F439C0D983C8833F
S113338003C04F96998388830B8F1C8F0FB6F894D4
S11333900F92488159812C8D30E06B8D629FC00162
S11333A0639F900D1124BA01680F791F7B836A8390
S11333B01A8E5D834C83821B930B840F951F9F830E
S11333C08E838FEF8D8F8E8FCE0108960E94460CD0
S11333D0CE0141960E94460C0F900FBE08C08FE1AB
S11333E090E00E942708EC01892B09F0C7CFCE0199
S11333F0DF91CF911F910F9108959F92AF92BF9249
S1133400CF92DF92EF92FF920F931F93CF93DF93AC
S113341000D01F921F92CDB7DEB78FE190E00E94DB
S113342027088C01009709F458C1FC011382128209
S1133430118210821582148217821682128E81E004
S1133440838F148E8FEF858F868F7801F8E0EF0ECF
S1133450F11CC7010E94460C680181E1C80ED11C11
S1133460C6010E94460C1D821C82A12C99249394AF
S1133470BB24BA940FB6F8940F92F801928D838D01
S11334809817F0F480819181892B09F01DC1828104
S113349093810E94322CF80113821282928D9F5FD5
S11334A0928F9189992339F0C6010E94392B81307A
S11334B021F476DE02C0811173DE0F900FBE0DC1C0
S11334C08C819D81892B19F40F900FBE06C1A11028
S11334D005C0CE0101960E94812BA92C0F900FBE2E
S11334E00E944A280FB6F8940F92F801858D8F3FF9
S11334F009F4158EF801868D8F3F09F4168E0F900E
S11335000FBEBE016C5F7F4FCE0101960E948C2BD3
S1133510811196C00FB6F8940F92F801928D838DA5
S11335200F900FBE98134AC06C817D81C7010E9421
S1133530DE2A0FB6F8940F92F801868D1816ACF4B3
S11335408189811105C011C0F8018189882369F03E
S1133550C6010E94392B81110E94C72BF801868D68
S11335608150868F868D18167CF3F801B68E0F90E5
S11335700FBE0FB6F8940F92858D1816ACF48085A3
S1133580811105C011C0F8018085882369F0C70145
S11335900E94392B81110E94C72BF801858D81501F
S11335A0858F858D18167CF3F801B58E0F900FBEAC
S11335B00E94502881115ECFF3DD5CCF0FB6F894E2
S11335C00F92F801868D1816ACF48189811105C01B
S11335D011C0F8018189882369F0C6010E94392B42
S11335E081110E94C72BF801868D8150868F868DAC
S11335F018167CF3F801B68E0F900FBE0FB6F89430
S11336000F92858D1816ACF48085811105C011C008
S1133610F8018085882369F0C7010E94392B811144
S11336200E94C72BF801858D8150858F858D1816D2
S11336307CF3F801B58E0F900FBE0E9450281ACF6C
S11336400FB6F8940F92F801868D1816ACF48189A0
S1133650811105C011C0F8018189882369F0C60170
S11336600E94392B81110E94C72BF801868D81504D
S1133670868F868D18167CF38FEFF801868F0F9056
S11336800FBE0FB6F8940F92858D1816ACF4808592
S1133690811105C011C0F8018085882369F0C70134
S11336A00E94392B81110E94C72BF801858D81500E
S11336B0858F858D18167CF38FEFF801858F0F9019
S11336C00FBE0E94502809C0F801828D8F5F828F3F
S11336D08189882309F4F1CEE7CEC8010F900F90B9
S11336E00F900F900F90DF91CF911F910F91FF904A
S11336F0EF90DF90CF90BF90AF909F9008956F921E
S11337007F928F929F92AF92BF92CF92DF92EF926D
S1133710FF920F931F93CF93DF9300D01F921F92BA
S1133720CDB7DEB78C015B015D834C83722E812C97
S11337306624639499249A947C0188E0E80EF11C31
S11337406801E1E1CE0ED11C0FB6F8940F92F80196
S1133750928D838D981720F0F2E07F126EC07DC1A8
S1133760F801448D411115C0F80180819181892BA4
S113377009F079C1828193810E94322CF80113826D
S11337801282928D9F5F928F9189992309F44FC081
S113379046C071101AC050E0B501F80184819581CA
S11337A00E946338F801248D84819581820F911DD4
S11337B095838483228133818217930708F453C14C
S11337C080819181958384834EC150E0B501F801D5
S11337D0868197810E946338F801848D90E09195E9
S11337E08195910926813781280F391F37832683D4
S11337F0408151812417350730F422813381820FAF
S1133800931F97838683F2E07F122DC1F801828D86
S1133810882309F428C1828D8150828F24C1C80174
S113382041960E94392B813021F4BADC02C0811107
S1133830B7DC0F900FBE81E01EC18C819D81892B66
S113384021F40F900FBE80E016C1811005C0CE0197
S113385001960E94812B862C0F900FBE0E944A284D
S11338600FB6F8940F92F801858D8F3F09F4158EE9
S1133870F801868D8F3F09F4168E0F900FBEBE019E
S11338806C5F7F4FCE0101960E948C2B811196C0F4
S11338900FB6F8940F92F801928D838D0F900FBE9E
S11338A098134AC06C817D81C7010E94DE2A0FB63D
S11338B0F8940F92F801868D1816ACF48189811161
S11338C005C011C0F8018189882369F0C6010E94EE
S11338D0392B81110E94C72BF801868D8150868F68
S11338E0868D18167CF3F801968E0F900FBE0FB6D6
S11338F0F8940F92858D1816ACF48085811105C05B
S113390011C0F8018085882369F0C7010E94392B12
S113391081110E94C72BF801858D8150858F858D7B
S113392018167CF3F801958E0F900FBE0E94502854
S113393081110ACF35DC08CF0FB6F8940F92F80145
S1133940868D1816ACF48189811105C011C0F80167
S11339508189882369F0C6010E94392B81110E9454
S1133960C72BF801868D8150868F868D18167CF3BF
S1133970F801968E0F900FBE0FB6F8940F92858DB6
S11339801816ACF48085811105C011C0F80180853A
S1133990882369F0C7010E94392B81110E94C72B2B
S11339A0F801858D8150858F858D18167CF3F8017B
S11339B0958E0F900FBE0E945028C6CE0FB6F89475
S11339C00F92F801868D1816D4F48189811106C0EE
S11339D016C0F8018189811105C011C07801F1E197
S11339E0EF0EF11CC7010E94392B81110E94C72BD5
S11339F0F801868D8150868F868D181654F38FEFCB
S1133A00F801868F0F900FBE0FB6F8940F92858D34
S1133A101816D4F48085811106C016C0F80180857B
S1133A20811105C011C07801F8E0EF0EF11CC70147
S1133A300E94392B81110E94C72BF801858D81507A
S1133A40858F858D181654F38FEFF801858F0F90AD
S1133A500FBE0E94502880E00EC0F801448D44231C
S1133A6009F482CEB2CEF801828D8F5F828F818974
S1133A708111D5CEDECE0F900F900F900F900F9046
S1133A80DF91CF911F910F91FF90EF90DF90CF9036
S1133A90BF90AF909F908F907F906F9008959F926A
S1133AA0AF92BF92CF92DF92EF92FF920F931F9348
S1133AB0CF93DF9300D01F921F92CDB7DEB78C0156
S1133AC07D836C83A12C99249394BB24BA947C01A8
S1133AD088E0E80EF11C6801E1E1CE0ED11C0FB6BE
S1133AE0F8940F92F801928D838D981700F58081D8
S1133AF09181892B09F02BC1828193810E94322C00
S1133B00F80113821282928D9F5F928F918999237B
S1133B1041F0C80141960E94392B813021F440DBE9
S1133B2002C081113DDB0F900FBE81E018C18C8172
S1133B309D81892B21F40F900FBE80E010C1A1104C
S1133B4005C0CE0101960E94812BA92C0F900FBEB7
S1133B500E944A280FB6F8940F92F801858D8F3F82
S1133B6009F4158EF801868D8F3F09F4168E0F9097
S1133B700FBEBE016C5F7F4FCE0101960E948C2B5D
S1133B80811196C00FB6F8940F92F801928D838D2F
S1133B900F900FBE98134AC06C817D81C7010E94AB
S1133BA0DE2A0FB6F8940F92F801868D1816ACF43D
S1133BB08189811105C011C0F8018189882369F0C8
S1133BC0C6010E94392B81110E94C72BF801868DF2
S1133BD08150868F868D18167CF3F801B68E0F906F
S1133BE00FBE0FB6F8940F92858D1816ACF480852D
S1133BF0811105C011C0F8018085882369F0C701CF
S1133C000E94392B81110E94C72BF801858D8150A8
S1133C10858F858D18167CF3F801B58E0F900FBE35
S1133C200E94502881115BCFBBDA59CF0FB6F894AC
S1133C300F92F801868D1816ACF48189811105C0A4
S1133C4011C0F8018189882369F0C6010E94392BCB
S1133C5081110E94C72BF801868D8150868F868D35
S1133C6018167CF3F801B68E0F900FBE0FB6F894B9
S1133C700F92858D1816ACF48085811105C011C092
S1133C80F8018085882369F0C7010E94392B8111CE
S1133C900E94C72BF801858D8150858F858D18165C
S1133CA07CF3F801B58E0F900FBE0E94502817CFF9
S1133CB00FB6F8940F92F801868D1816D4F4818902
S1133CC0811106C016C0F8018189811105C011C097
S1133CD07801F1E1EF0EF11CC7010E94392B81112B
S1133CE00E94C72BF801868D8150868F868D181609
S1133CF054F38FEFF801868F0F900FBE0FB6F89430
S1133D000F92858D1816D4F48085811106C016C0D3
S1133D10F8018085811105C011C07801F8E0EF0E2B
S1133D20F11CC7010E94392B81110E94C72BF80195
S1133D30858D8150858F858D181654F38FEFF8018A
S1133D40858F0F900FBE0E94502880E008C0F801B4
S1133D50828D8F5F828F81898111DBCEE4CE0F90BB
S1133D600F900F900F900F90DF91CF911F910F91B3
S1133D70FF90EF90DF90CF90BF90AF909F90089509
S1133D80CF93DF93FC01928D838D9817D0F4828DAD
S1133D908F5F828F868D8F3F79F48189882399F094
S1133DA0EB01CF0141960E94392B882371F02097B3
S1133DB071F081E088830CC0868D8F5F868F81E0EF
S1133DC007C080E005C081E003C081E001C081E05C
S1133DD0DF91CF9108956F927F928F929F92AF92CD
S1133DE0BF92CF92DF92EF92FF920F931F93CF93E4
S1133DF0DF9300D01F921F92CDB7DEB78C015B0119
S1133E005D834C83622E812C7724739499249A9435
S1133E106C0188E0C80ED11C7801E1E1EE0EF11CC2
S1133E200FB6F8940F92F801828D882309F445C0E7
S1133E30E680F780448D4423A9F050E0C701840F45
S1133E40951F97838683228133818217930720F0FD
S1133E508081918197838683F80166817781C5018A
S1133E600E946338611019C0F801828D8150828FDD
S1133E7080819181892B29F40E94722CF80193830B
S1133E808283F80180858823A1F0C80108960E94E6
S1133E90392B813071F484D90CC0F801F782E682A1
S1133EA08189882331F0C80141960E94392B811100
S1133EB077D90F900FBE81E01AC18C819D81892B27
S1133EC021F40F900FBE80E012C1811005C0CE0115
S1133ED001960E94812B872C0F900FBE0E944A28C6
S1133EE00FB6F8940F92F801858D8F3F09F4158E63
S1133EF0F801868D8F3F09F4168E0F900FBEBE0118
S1133F006C5F7F4FCE0101960E948C2B8111A2C061
S1133F100FB6F8940F92F801828D0F900FBE8111A5
S1133F2057C080819181892B49F40FB6F8940F9280
S1133F30828193810E94D02B0F900FBE6C817D8172
S1133F40C7010E94DE2A0FB6F8940F92F801868DFD
S1133F501816ACF48189811105C011C0F80181895A
S1133F60882369F0C7010E94392B81110E94C72B55
S1133F70F801868D8150868F868D18167CF3F801A2
S1133F80968E0F900FBE0FB6F8940F92858D18166B
S1133F90ACF48085811105C011C0F80180858823A7
S1133FA069F0C6010E94392B81110E94C72BF801C8
S1133FB0858D8150858F858D18167CF3F801958E3B
S1133FC00F900FBE0E94502881112ACFE9D828CF24
S1133FD00FB6F8940F92F801868D1816ACF4818907
S1133FE0811105C011C0F8018189882369F0C701D6
S1133FF00E94392B81110E94C72BF801868D8150B4
S1134000868F868D18167CF3F801968E0F900FBE5E
S11340100FB6F8940F92858D1816ACF48085811133
S113402005C011C0F8018085882369F0C6010E948B
S1134030392B81110E94C72BF801858D8150858F02
S1134040858D18167CF3F801958E0F900FBE0E9493
S11340505028E6CE0FB6F8940F92F801868D181604
S1134060D4F48189811106C016C0F80181898111B7
S113407005C011C07801F1E1EF0EF11CC7010E94E7
S1134080392B81110E94C72BF801868D8150868FB0
S1134090868D181654F38FEFF801868F0F900FBE9C
S11340A00FB6F8940F92858D1816D4F4808581117B
S11340B006C016C0F8018085811105C011C07801C1
S11340C0F8E0EF0EF11CC7010E94392B81110E9408
S11340D0C72BF801858D8150858F858D181654F373
S11340E08FEFF801858F0F900FBEDAD780E00F9025
S11340F00F900F900F900F90DF91CF911F910F9120
S1134100FF90EF90DF90CF90BF90AF909F908F90F3
S11341107F906F900895AB01009711F41092DE190F
S1134120BC0181E59BE10E94633860E070E080910E
S11341304D1B90914E1BB3CC08958091E9198111C8
S113414004C00E9460018093831B089528EE33E02D
S11341504BE850E260E08091831B0E947C018093D5
S1134160E9190895CF93DF93CDB7DEB7E4970FB67F
S1134170F894DEBF0FBECDBF8091E919882309F4FE
S11341804DC0198283E08A8381E492E59C838B830A
S113419084E490E09E838D8324EB30E03F832E8380
S11341A085EF90E09987888788E38C878A871B86C8
S11341B085E18D878E878F87888B1A8A198A8AE58D
S11341C090E09C8B8B8B3E8B2D8B8EE091E0988FB7
S11341D08F8B88EC90E09A8F898F8AE1FE0131966B
S11341E0DE015B9601900D928A95E1F780910006BD
S11341F0882359F04AE150E0BE01655E7F4F80910B
S1134200831B0E94330281E009C04AE150E0BE01F1
S1134210655E7F4F8091831B89D181E0E4960FB660
S1134220F894DEBF0FBECDBFDF91CF910895AF925A
S1134230CF92EF920F93CF93DF93CDB7DEB72D9745
S11342400FB6F894DEBF0FBECDBFE091E919EE239F
S113425019F1E1E0E9839B838A837D836C835F8327
S11342604E83398728870A87EB86CC86AD86809172
S11342700106882351F04DE050E0BE016F5F7F4F8F
S11342808091831B0E94330207C04DE050E0BE01C1
S11342906F5F7F4F80E04AD12D960FB6F894DEBF52
S11342A00FBECDBFDF91CF910F91EF90CF90AF9024
S11342B00895CF93DF931F92CDB7DEB78091E919AC
S11342C08823B9F083E0898380910306882351F021
S11342D041E050E0BE016F5F7F4F8091831B0E94DD
S11342E0330207C041E050E0BE016F5F7F4F80E0C2
S11342F01DD10F90DF91CF910895CF93DF93CDB768
S1134300DEB7C456D1090FB6F894DEBF0FBECDBFD9
S1134310AE0146595F4FFA0161917191AF018AE094
S11343208983CE0102960E94B3388823C9F0209174
S11343300A06222361F09927AC014F5F5F4FBE014B
S11343406F5F7F4F8091831B0E94330209C09927BE
S1134350AC014F5F5F4FBE016F5F7F4F80E0E6D0DF
S1134360CC59DF4F0FB6F894DEBF0FBECDBFDF913F
S1134370CF910895CF93DF931F92CDB7DEB780918D
S1134380E9198823B9F089E0898380910906882393
S113439051F041E050E0BE016F5F7F4F8091831B7D
S11343A00E94330207C041E050E0BE016F5F7F4FBF
S11343B080E0BCD00F90DF91CF9108958A3538F01A
S11343C080E99BE09093AB008093AA00089581114B
S11343D007C08DE295E09093AB008093AA00089506
S11343E09FEF980F993560F4E82FF0E0EE0FFF1F70
S11343F0EF59F94F808191819093AB008093AA008B
S11344000895A0EAB0E09C9190629C93E1EAF0E008
S11344109081986190839C9192609C93908192602A
S113442090832FE33CE93093A7002093A600E1E0BA
S1134430F1E0908190619083C1CF0895EF92FF9253
S11344400F931F93CF93DF939091EB199F3F11F03C
S1134450981358C0FB018081811105C01092ED1999
S11344601092EC190CC09091EE19891741F0EAEE04
S1134470F9E11482138212828FEF818343C0809109
S1134480EC199091ED199C0122503109240F351F2C
S11344902536310540F0EAEEF9E1138212821482E6
S11344A08FEF81832FC08A01EB010F2EFAEEEF2EDE
S11344B0F9E1FF2EF02DF70124812F5F2483425070
S11344C051096E5F7F4F8151964E0E946338F70108
S11344D04281538142505109BA01600F711F7383A5
S11344E062839881898198130DC0E091841BF091B7
S11344F0851B8FEE99E11995F701148213821282BC
S11345008FEF8183DF91CF911F910F91FF90EF90F7
S113451008959093851B8093841B6EE172E280E082
S11345200E9499178FEF8093EB1908955F926F9211
S11345307F928F929F92AF92BF92CF92DF92EF922F
S1134540FF920F931F93CF93DF93582E5B018A0141
S11345508CE290E00E9427087C019801369527950B
S1134560ADE0B3EC0E945D37929582958F708927F8
S11345709F7089274AE2489F9001499F300D11247A
S113458041E00217130709F440E098013695279596
S1134590ADE0B3EC0E945D37929582958F708927C8
S11345A09F708927840F0115110559F190E0C12CE2
S11345B0D12C66246A94680E470182E0880E911C0F
S11345C0E8010B32110510F0CAE2D0E077247394AD
S11345D0790EF70190836182B5016C0D7D1DAE01EA
S11345E0C4010E9463389E012E5F3F4FA70160E023
S11345F0852D0E94A417CC0EDD1E0C1B1D0B972DC0
S1134600F9F6C7010E94310981E0DF91CF911F9132
S11346100F91FF90EF90DF90CF90BF90AF909F905D
S11346208F907F906F905F90089584B1876084B974
S113463023988CB581608CBD8CB58C658CBD8CB594
S11346408F7D8CBD08958EBD00000DB407FEFDCF97
S11346508EB508954F925F926F927F928F929F9240
S1134660AF92BF92CF92DF92EF92FF920F931F937C
S1134670CF93DF933C015B014A012901C114D104AA
S113468039F4CA010E9427086C01892B09F4E4C09B
S113469088E290E00E942708EC01892B71F0D88E03
S11346A0CF8A81E0881A9108C80CD91CD5018C9155
S11346B0898F8C91811105C018C0C6010E943109EF
S11346C0CBC0AE01465E5F4FF5013196B8E0AB0E4C
S11346D0B11CCF012191DA012D93AD01DC018C9144
S11346E0882319F0AE16BF06A1F718A2102F0630C2
S11346F008F015E01E8B19A31AA25E01B2E0AB0EFE
S1134700B11CC5010E94540CCE010C960E94540C9D
S1134710D987C88786E090E0811B91099D878C87A3
S1134720DB8BCA8B1BA21CA21DA21EA21FA2A2016C
S1134730B301C6010E94161899838883E114F10419
S113474019F0F701D183C0830FB6F8940F928091CA
S11347505E1A8F5F80935E1A8091BD1A9091BE1A83
S1134760892BD9F5D093BE1AC093BD1A80915E1AD5
S1134770813009F041C00F2EF7E8EF2EFAE1FF2E49
S1134780F02D0F2EFDEBCF2EFAE1DF2EF02DC70119
S11347900E94460CF9E0EF0EF11CEC14FD04B9F78D
S11347A08EE79AE10E94460C85E79AE10E94460C46
S11347B088E69AE10E94460C8FE59AE10E94460C35
S11347C08EE79AE19093741A8093731A85E79AE1BD
S11347D09093721A8093711A0FC080915A1A8111A2
S11347E00BC0E091BD1AF091BE1A8689081720F01B
S11347F0D093BE1AC093BD1A8091561A8F5F8093CE
S1134800561A8E8990915B1A981710F480935B1A4C
S113481090E09C01220F331F220F331F220F331FFE
S1134820820F931FB5018957954E0E94580C0F9023
S11348300FBE80915A1A882359F0E091BD1AF09165
S1134840BE1A8689801730F40E94D01881E005C012
S113485081E003C081E001C08FEFDF91CF911F9110
S11348600F91FF90EF90DF90CF90BF90AF909F900B
S11348708F907F906F905F904F9008959F92AF922A
S1134880BF92CF92DF92EF92FF920F931F93CF9339
S1134890DF93FC019091531A9F5F9093531A809178
S11348A05C1A90915D1A20813181E901C60FD71FEE
S11348B08217930758F4C217D30708F06EC1D18347
S11348C0C0838C179D0708F042C009C0C217D307E4
S11348D008F460C18C179D0708F45CC15EC1809127
S11348E0BD1A9091BE1A02960E94AA0CE091BD1ABC
S11348F0F091BE1AD383C28380915C1A90915D1AA1
S1134900C817D90768F46091BD1A7091BE1A8091D6
S1134910711A9091721A6E5F7F4F0E94790C17C0C2
S11349206091BD1A7091BE1A8091731A9091741A95
S11349306E5F7F4F0E94790C8091541A9091551AA2
S1134940C817D90720F4D093551AC093541A0FB638
S1134950F8940F928091531A81508093531A809146
S1134960531A81110DC180915E1A811133C00BC19C
S1134970D7011596ED91FC911697C681D781CE018A
S11349800C960E94AA0C8E010E5F1F4FC8010E9454
S1134990AA0C8E8990915B1A981710F480935B1A75
S11349A090E09C01220F331F220F331F220F331F6D
S11349B0820F931FB8018957954E0E94580CE091BD
S11349C0BD1AF091BE1A9E898689981758F0D09224
S11349D0581A08C00F2EF8E6EF2EFAE1FF2EF02D3C
S11349E0DD24D394F70180818111C2CF8091591ABB
S11349F0882309F4BDC08091591A882309F4B8C0EA
S1134A00912CBB24B394CC24CA94DC2C8091531AEB
S1134A10811198C080915C1A90915D1A01969093CF
S1134A205D1A80935C1AE0905C1AF0905D1AE114B0
S1134A30F10489F58091731A9091741A2091711A76
S1134A403091721A3093741A2093731A9093721AD5
S1134A508093711A8091571A8F5F8093571AE0914F
S1134A60731AF091741A8081811105C0D092551A7D
S1134A70C092541A10C0E091731AF091741A058010
S1134A80F681E02D0680F781E02D82819381909359
S1134A90551A8093541A8091541A9091551AE81615
S1134AA0F90608F47DC0A92CE091731AF091741AE8
S1134AB08081811105C0D092551AC092541A48C001
S1134AC0E091731AF091741A0580F681E02DC68185
S1134AD0D7818A819B81E816F90628F49093551AA8
S1134AE08093541A35C08E010E5F1F4FC8010E9477
S1134AF0AA0C8C899D89892B21F0CE010C960E94E9
S1134B00AA0C8E8990915B1A981710F480935B1A03
S1134B1090E09C01220F331F220F331F220F331FFB
S1134B20820F931FB8018957954E0E94580CE0914B
S1134B30BD1AF091BE1A9E898689981708F4B4CFDD
S1134B40AB2CB2CF8091591A8F5F8093591A28C029
S1134B508091581A811101C0A110B092581A809105
S1134B60591A81508093591A8091591A81114ECF44
S1134B708091581A813031F40E94D01881E003C02A
S1134B8080E001C080E00F900FBE81110EC00E9432
S1134B90D0180BC0D183C083A2CED183C083D7CE1B
S1134BA08091581A8111D9CFDACFDF91CF911F911B
S1134BB00F91FF90EF90DF90CF90BF90AF909F90B8
S1134BC008959F92AF92BF92CF92DF92EF92FF929D
S1134BD00F931F93CF93DF93009709F463C1209140
S1134BE0531A2F5F2093531AC0915C1AD0915D1A07
S1134BF0C80FD91F8091BD1A9091BE1A02960E94C7
S1134C00AA0CE091BD1AF091BE1AD383C28380919D
S1134C105C1A90915D1AC817D90768F46091BD1A9F
S1134C207091BE1A8091711A9091721A6E5F7F4FC3
S1134C300E94790C17C06091BD1A7091BE1A8091C0
S1134C40731A9091741A6E5F7F4F0E94790C809151
S1134C50541A9091551AC817D90720F4D093551AAD
S1134C60C093541A0FB6F8940F928091531A81503E
S1134C708093531A8091531A81110DC180915E1A49
S1134C80811133C00BC1D7011596ED91FC91169794
S1134C90C681D781CE010C960E94AA0C8E010E5FAC
S1134CA01F4FC8010E94AA0C8E8990915B1A981715
S1134CB010F480935B1A90E09C01220F331F220FA3
S1134CC0331F220F331F820F931FB8018957954E4C
S1134CD00E94580CE091BD1AF091BE1A9E898689F3
S1134CE0981758F0D092581A08C00F2EF8E6EF2EF5
S1134CF0FAE1FF2EF02DDD24D394F7018081811198
S1134D00C2CF8091591A882309F4BDC08091591AE1
S1134D10882309F4B8C0912CBB24B394CC24CA943E
S1134D20DC2C8091531A811198C080915C1A909167
S1134D305D1A019690935D1A80935C1AE0905C1A58
S1134D40F0905D1AE114F10489F58091731A909141
S1134D50741A2091711A3091721A3093741A209334
S1134D60731A9093721A8093711A8091571A8F5FF5
S1134D708093571AE091731AF091741A808181110B
S1134D8005C0D092551AC092541A10C0E091731AFB
S1134D90F091741A0580F681E02D0680F781E02DEC
S1134DA0828193819093551A8093541A8091541A56
S1134DB09091551AE816F90608F477C0A92CE091E9
S1134DC0731AF091741A8081811105C0D092551A1A
S1134DD0C092541A48C0E091731AF091741A058075
S1134DE0F681E02DC681D7818A819B81E816F90678
S1134DF028F49093551A8093541A35C08E010E5F8F
S1134E001F4FC8010E94AA0C8C899D89892B21F00F
S1134E10CE010C960E94AA0C8E8990915B1A981769
S1134E2010F480935B1A90E09C01220F331F220F31
S1134E30331F220F331F820F931FB8018957954EDA
S1134E400E94580CE091BD1AF091BE1A9E89868981
S1134E50981708F4B4CFAB2CB2CF8091591A8F5F56
S1134E608093591A22C08091581A811101C0A1104F
S1134E70B092581A8091591A81508093591A80918E
S1134E80591A81114ECF8091581A813031F40E9401
S1134E90D01881E003C080E001C080E00F900FBE15
S1134EA0811108C00E94D01805C08091581A811140
S1134EB0DFCFE0CFDF91CF911F910F91FF90EF9063
S1134EC0DF90CF90BF90AF909F900895CF92DF92E4
S1134ED0EF92FF920F931F93CF93DF9385E590E0BA
S1134EE00E9427088C01892B09F4CBC088E290E04A
S1134EF00E942708EC01892B69F0188F0F8B0C5A3C
S1134F001F4F89E4898FE8E1F7E0DE015A962FE12B
S1134F1037E004C0C8010E943109B3C091919D9348
S1134F20992319F02E173F07C9F718A21E8A19A250
S1134F301AA27E0182E0E80EF11CC7010E94540C03
S1134F40CE010C960E94540CD987C88786E090E065
S1134F509D878C87DB8BCA8B1BA21CA21DA21EA261
S1134F601FA240E050E069E171E0C8010E941618F8
S1134F70998388830FB6F8940F9280915E1A8F5F9D
S1134F8080935E1A8091BD1A9091BE1A892BA9F55F
S1134F90D093BE1AC093BD1A80915E1A8130E1F598
S1134FA007E81AE10F2EFDEBCF2EFAE1DF2EF02DEC
S1134FB0C8010E94460C075F1F4F0C151D05C1F761
S1134FC08EE79AE10E94460C85E79AE10E94460C1E
S1134FD088E69AE10E94460C8FE59AE10E94460C0D
S1134FE08EE79AE19093741A8093731A85E79AE195
S1134FF09093721A8093711A0FC080915A1A81117A
S11350000BC0E091BD1AF091BE1A8689811104C0CB
S1135010D093BE1AC093BD1A8091561A8F5F8093A5
S1135020561A8E8990915B1A981710F480935B1A24
S113503090E09C01220F331F220F331F220F331FD6
S1135040820F931FB7018957954E0E94580C0F90F9
S11350500FBE80915A1A882321F08091BD1A909135
S1135060BE1AF8948FEF9FEF9093551A8093541AB9
S113507081E080935A1A10925D1A10925C1A0E9471
S11350808818DF91CF911F910F91FF90EF90DF90DF
S1135090CF9008958091531A8F5F8093531A089587
S11350A09F92AF92BF92CF92DF92EF92FF920F93B3
S11350B01F93CF93DF930FB6F8940F928091531AF6
S11350C081508093531A8091531A81110DC180919C
S11350D05E1A811133C00BC1D7011596ED91FC9175
S11350E01697C681D781CE010C960E94AA0C8E0118
S11350F00E5F1F4FC8010E94AA0C8E8990915B1A03
S1135100981710F480935B1A90E09C01220F331FD0
S1135110220F331F220F331F820F931FB8018957A9
S1135120954E0E94580CE091BD1AF091BE1A9E89CA
S11351308689981758F0D092581A08C00F2EF8E6AE
S1135140EF2EFAE1FF2EF02DDD24D394F7018081B8
S11351508111C2CF8091591A882309F4BDC080916E
S1135160591A882309F4B8C0912CBB24B394CC24D5
S1135170CA94DC2C8091531A811198C080915C1AD6
S113518090915D1A019690935D1A80935C1AE09059
S11351905C1AF0905D1AE114F10489F58091731A98
S11351A09091741A2091711A3091721A3093741A72
S11351B02093731A9093721A8093711A8091571ADC
S11351C08F5F8093571AE091731AF091741A80815B
S11351D0811105C0D092551AC092541A10C0E091A2
S11351E0731AF091741A0580F681E02D0680F78118
S11351F0E02D828193819093551A8093541A809163
S1135200541A9091551AE816F90608F473C0A92C9B
S1135210E091731AF091741A8081811105C0D092C3
S1135220551AC092541A48C0E091731AF091741A36
S11352300580F681E02DC681D7818A819B81E8169D
S1135240F90628F49093551A8093541A35C08E01A8
S11352500E5F1F4FC8010E94AA0C8C899D89892B5F
S113526021F0CE010C960E94AA0C8E8990915B1AB3
S1135270981710F480935B1A90E09C01220F331F5F
S1135280220F331F220F331F820F931FB801895738
S1135290954E0E94580CE091BD1AF091BE1A9E8959
S11352A08689981708F4B4CFAB2CB2CF8091591AE1
S11352B08F5F8093591A1EC08091581A811101C0C2
S11352C0A110B092581A8091591A81508093591A9A
S11352D08091591A81114ECF8091581A813031F43E
S11352E00E94D01881E003C080E001C080E00F90EC
S11352F00FBE05C08091581A8111E3CFE4CFDF912E
S1135300CF911F910F91FF90EF90DF90CF90BF90BE
S1135310AF909F9008950FB6F8940F9280915C1A05
S113532090915D1A0F900FBE0895CF92DF92EF9285
S1135330FF920F931F93CF93DF938091531A8111A0
S11353409FC080915C1A90915D1A019690935D1AAA
S113535080935C1AE0905C1AF0905D1AE114F104F9
S113536099F58091731A9091741A2091711A309161
S1135370721A3093741A2093731A9093721A80934A
S1135380711A8091571A8F5F8093571AE091731A9C
S1135390F091741A8081811107C08FEF9FEF909371
S11353A0551A8093541A10C0E091731AF091741A2C
S11353B00580F681E02D0680F781E02D82819381BE
S11353C09093551A8093541A8091541A9091551AB7
S11353D0E816F90610F4D12C59C0D12CCC24C3946E
S11353E0E091731AF091741A8081811107C08FEFD4
S11353F09FEF9093551A8093541A48C0E091731A02
S1135400F091741A0580F681E02DC681D7818A81D6
S11354109B81E816F90628F49093551A8093541A40
S113542035C08E010E5F1F4FC8010E94AA0C8C89E3
S11354309D89892B21F0CE010C960E94AA0C8E899D
S113544090915B1A981710F480935B1A90E09C017A
S1135450220F331F220F331F220F331F820F931F7C
S1135460B8018957954E0E94580CE091BD1AF091ED
S1135470BE1A9E898689981708F4B2CFDC2CB0CF67
S11354808091591A8F5F8093591AD12C8091581AA0
S1135490882311F0DD24D3948D2DDF91CF911F91BA
S11354A00F91FF90EF90DF90CF9008958091531A61
S11354B0882321F081E08093581A08951092581A95
S11354C0A091BD1AB091BE1AE091BD1AF091BE1A16
S11354D02D913C918789908D8217930760F060919C
S11354E0BD1A7091BE1A8091BD1A9091BE1A675E62
S11354F07F4F0E944C1580915B1A90E0FC01EE0FE7
S1135500FF1FEE0FFF1FEE0FFF1F8E0F9F1FFC01EB
S1135510E957F54E8081811117C080915B1A815043
S113552080935B1A80915B1A90E0FC01EE0FFF1FE1
S1135530EE0FFF1FEE0FFF1F8E0F9F1FFC01E95799
S1135540F54E8081882349F380915B1A90E09C0199
S1135550220F331F220F331F220F331F280F391F2F
S1135560D901A957B54E1196ED91FC91129702807D
S1135570F381E02D1296FC93EE9311972657354E46
S1135580E217F30729F422813381FD013283218359
S1135590FC01EE0FFF1FEE0FFF1FEE0FFF1F8E0F1C
S11355A09F1FFC01E957F54E0180F281E02D8681B1
S11355B097819093BE1A8093BD1A0895CF93DF9379
S11355C0EB016091BD1A7091BE1A645F7F4F0E9417
S11355D0790C8091BD1A9091BE1A02960E94AA0C71
S11355E0CF3F8FEFD80759F46091BD1A7091BE1A5E
S11355F06E5F7F4F8FE59AE10E94580C37C080910F
S11356005C1A90915D1AC80FD91FE091BD1AF091F0
S1135610BE1AD383C28380915C1A90915D1AC81715
S1135620D90768F46091BD1A7091BE1A8091711AFD
S11356309091721A6E5F7F4F0E94790C17C060912F
S1135640BD1A7091BE1A8091731A9091741A6E5F8C
S11356507F4F0E94790C8091541A9091551AC81763
S1135660D90720F4D093551AC093541ADF91CF91DF
S113567008950F931F93CF93DF93DC011596ED915B
S1135680FC911697C681D7818E01045F1F4FC80114
S11356900E94AA0C8091531A81111CC00A5011094E
S11356A0C8010E94AA0C8E8990915B1A981710F475
S11356B080935B1A90E09C01220F331F220F331F4B
S11356C0220F331F820F931FB8018957954E0E94F2
S11356D0580C05C0B80188E69AE10E94580CE09184
S11356E0BD1AF091BE1A9E898689891720F481E03B
S11356F08093581A01C080E0DF91CF911F910F91E0
S113570008952091571AFC01208320915C1A30914E
S11357105D1A328321830895FC010FB6F8940F9229
S113572020915C1A30915D1ADB018D919C918F3F21
S1135730BFEF9B0721F14091571A5081541729F06C
S11357404181528124173507E0F441815281D90106
S1135750A41BB50BA817B907B0F4421B530B840F55
S1135760951FDB018D939C938091571A80838091C0
S11357705C1A90915D1A9283818380E005C080E079
S113578003C081E001C081E00F900FBE089581E065
S11357908093581A08958091BD1A9091BE1A089565
S11357A00F931F93CF93DF93FC01892B09F455C00A
S11357B02689A091BD1AB091BE1A56968C912817CD
S11357C008F04BC084859585992364F0A091BD1A97
S11357D0B091BE1A56963C9186E090E0831B9109E5
S11357E09587848730E0C901880F991F880F991F16
S11357F0880F991F280F391F2957354E82859385A5
S11358008217930719F58F01EF012296CE010E94AA
S1135810AA0CE091BD1AF091BE1A8689F801868B14
S113582090915B1A981710F480935B1A90E09C0196
S1135830220F331F220F331F220F331F820F931F98
S1135840BE018957954E0E94580C07C0A091BD1AFD
S1135850B091BE1A56968C91868BDF91CF911F9191
S11358600F9108950F931F93CF93DF93FC01892B1E
S113587079F182A1815082A3268991A1291751F13E
S113588081112AC0EF018F010E5F1F4FC8010E94D2
S1135890AA0C89A18E8B26E030E0281B31093D87B4
S11358A02C8790915B1A981710F480935B1A90E000
S11358B09C01220F331F220F331F220F331F820F2D
S11358C0931FB8018957954E0E94580C81E005C07A
S11358D080E003C080E001C080E0DF91CF911F91A0
S11358E00F9108958091BD1A9091BE1A892B39F0B9
S11358F0E091BD1AF091BE1A82A18F5F82A38091BC
S1135900BD1A9091BE1A08950F931F93CF93DF93FE
S1135910182FEB010FB6F8940F92E091BD1AF09195
S1135920BE1A83A194A1A5A1B6A1892B8A2B8B2B86
S113593009F058C0E091BD1AF091BE1A81E087A326
S1135940209709F44FC08091BD1A9091BE1A029617
S11359500E94AA0CCF3F8FEFD80759F46091BD1A6B
S11359607091BE1A6E5F7F4F8FE59AE10E94580CCA
S113597037C080915C1A90915D1AC80FD91FE091CD
S1135980BD1AF091BE1AD383C28380915C1A9091A0
S11359905D1AC817D90768F46091BD1A7091BE1AD0
S11359A08091711A9091721A6E5F7F4F0E94790CE8
S11359B017C06091BD1A7091BE1A8091731A9091AC
S11359C0741A6E5F7F4F0E94790C8091541A9091E3
S11359D0551AC817D90720F4D093551AC093541AEE
S11359E00E94D0180F900FBE0FB6F8940F92E0915A
S11359F0BD1AF091BE1A63A174A185A196A1611587
S1135A00710581059105D9F0112349F0E091BD1A82
S1135A10F091BE1A13A214A215A216A210C0E0910E
S1135A20BD1AF091BE1A03A114A125A136A10150FB
S1135A3011092109310903A314A325A336A3E09175
S1135A40BD1AF091BE1A17A20F900FBEDF91CF912D
S1135A501F910F9108954F925F926F927F928F9250
S1135A609F92AF92BF92EF92FF920F931F934901BF
S1135A705A010FB6F8940F92E091BD1AF091BE1A34
S1135A8027A1223009F46FC0E091BD1AF091BE1A2B
S1135A9043A054A065A076A0DC01CB01809590952D
S1135AA0A095B09584219521A621B72183A394A321
S1135AB0A5A3B6A3E091BD1AF091BE1A81E087A315
S1135AC0E114F10409F44FC08091BD1A9091BE1AFB
S1135AD002960E94AA0C8FEFE816F80659F460911A
S1135AE0BD1A7091BE1A6E5F7F4F8FE59AE10E94D6
S1135AF0580C37C080915C1A90915D1AE80EF91E1B
S1135B00E091BD1AF091BE1AF382E28280915C1A90
S1135B1090915D1AE816F90668F46091BD1A7091C7
S1135B20BE1A8091711A9091721A6E5F7F4F0E9413
S1135B30790C17C06091BD1A7091BE1A8091731AC6
S1135B409091741A6E5F7F4F0E94790C8091541A61
S1135B509091551AE816F90620F4F092551AE0923D
S1135B60541A0E94D0180F900FBE0FB6F8940F92DB
S1135B700115110569F0E091BD1AF091BE1A83A1D7
S1135B8094A1A5A1B6A1F80180839183A283B383D4
S1135B90E091BD1AF091BE1A87A18130B1F0E09175
S1135BA0BD1AF091BE1A83A194A1A5A1B6A18094B7
S1135BB09094A094B09488229922AA22BB2283A212
S1135BC094A2A5A2B6A281E001C080E0E091BD1A32
S1135BD0F091BE1A17A20F900FBE1F910F91FF9064
S1135BE0EF90BF90AF909F908F907F906F905F9059
S1135BF04F9008950F931F93CF93DF93FC010FB63B
S1135C00F8940F920115110549F083A194A1A5A15F
S1135C10B6A1E80188839983AA83BB8387A192E014
S1135C2097A32230B1F018F4213031F02AC0233088
S1135C30E9F0243001F125C003A114A125A136A166
S1135C40402B512B622B732B43A354A365A376A340
S1135C5018C043A154A165A176A14F5F5F4F6F4F58
S1135C607F4F43A354A365A376A30BC043A354A3BC
S1135C7065A376A306C0823079F143A354A365A338
S1135C8076A3813059F5EF018F010E5F1F4FC801D4
S1135C900E94AA0C8E8990915B1A981710F4809335
S1135CA05B1A90E09C01220F331F220F331F220F37
S1135CB0331F820F931FB8018957954E0E94580CC9
S1135CC0E091BD1AF091BE1A9E898689891740F425
S1135CD00E94D01881E005C080E003C081E001C0CB
S1135CE081E00F900FBEDF91CF911F910F91089526
