:1000000020C100003FC100003DC100000C94E51874
:100010000C94F6180C94071935C1000033C1000088
:1000200031C100002FC100002DC100002BC1000014
:1000300029C1000027C1000025C1000023C1000024
:1000400021C100001FC100001DC100001BC1000034
:1000500019C1000017C1000015C1000013C1000044
:1000600011C100000FC100000DC100000BC1000054
:1000700009C1000007C1000005C1000003C1000064
:100080000C94901CFFC00000FDC00000FBC00000ED
:10009000F9C00000F7C00000F5C00000F3C0000088
:1000A000F1C00000EFC00000EDC00000EBC0000098
:1000B000E9C00000E7C00000E5C00000E3C00000A8
:1000C000E1C00000DFC00000DDC000000C94F6328B
:1000D000D9C00000D7C00000D5C00000D3C00000C8
:1000E000D1C00000084AD73B3BCE016E84BCBFFDA7
:1000F000C12F3D6C74319ABD56833DDA3D00C77FF8
:1001000011BED9E4BB4C3E916BAAAABE0000008090
:100110003F05A84CCDB2D44EB93836A9020C50B91F
:10012000918688083CA6AAAA2ABE000000803F004B
:100130006E616E00696E660000407A10F35A00A08E
:10014000724E18090010A5D4E80000E876481700A0
:1001500000E40B54020000CA9A3B000000E1F505E0
:10016000000080969800000040420F000000A0862A
:1001700001000000102700000000E803000000005C
:100180006400000000000A00000000000100000000
:1001900000002C76D888DC674F0823DFC1DFAE591A
:1001A000E1B1B796E5E3E453C63AE651997696E8AD
:1001B000E6C28426EB898C9B62ED407C6FFCEFBC31
:1001C0009C9F40F2BAA56FA5F490055A2AF75C935C
:1001D0006B6CF9676DC11BFCE0E40D47FEF520E692
:1001E000B500D0ED902E0300943577050080841E75
:1001F000080000204E0A000000C80C333333330FD0
:10020000986E12831141EF8D2114893BE65516CF6C
:10021000FEE6DB18D1844B381BF77C1D901DA4BB78
:10022000E424203284725E228100C9F124ECA1E52D
:100230003D27CCEDDAE188818230F0F30E94B71BD4
:10024000FACF11241FBECFEFD1E2DEBFCDBF00E059
:100250000CBF17E0A0E0B2E0E2E7F8E700E00BBF78
:1002600002C007900D92AC38B107D9F72CE1ACE889
:10027000B7E001C01D92AB34B207E1F70E94381815
:100280000C94373CBDCECF93DF936BE374E081E0F9
:100290000E94801A10928D0710928C07CEE8D7E04A
:1002A0008DE8FE0111928A95E9F781E00E94E41C35
:1002B00090931808809317081882DF91CF910895C2
:1002C00080918E07811116C0EEE8F7E0168E158E2C
:1002D000168A158A14A213A212A211A2178E148EC6
:1002E000128E118E138E10921A081092190891E036
:1002F000908308958FEF0895CF92DF92EF92FF924F
:100300000F931F93CF93DF931F92CDB7DEB7690191
:10031000E82EF12C9DE8899F800111240257184F87
:1003200083E0F8018083508F478B60A382E089834C
:100330000E94C32EF801E557FF4F918380830E94EE
:10034000FE3121E030E0AE014F5F5F4F61E0F80128
:1003500080A10E948B1AB60181E00E947C2F672B3E
:10036000682B692B61F48DE88E9DF0018F9DF00D57
:100370001124E257F84F81E0808380E02EC080E0B6
:1003800091E065D6009731F14DE84E9D90014F9D6B
:10039000300D112440E051E0BC01C9018157984F54
:1003A0005BD384E190E053D60097B1F02DE82E9D09
:1003B00080012F9D100D112444E150E0BC01C801C3
:1003C0008756984F49D3F801E257F84F82E080836F
:1003D00081E003C08FEF01C08FEF0F90DF91CF91CD
:1003E0001F910F91FF90EF90DF90CF900895CF93E2
:1003F000DF93811134C020E04FEF5FEF60E070E0E9
:1004000080911708909118080E94D22180918E0740
:10041000823051F060E070E08091170890911808E8
:100420000E94362080E01CC0CEE8D7E089819A8106
:1004300018D78B859C8515D781E08883EF89F88D47
:1004400060E070E080E090E0199560E070E08091FD
:100450001708909118080E94362081E001C080E0C2
:10046000DF91CF910895EF92FF920F931F93CF9357
:10047000DF9300D01F92CDB7DEB75C834B83811131
:100480007BC07B0120E04FEF5FEF60E070E0809188
:100490001708909118080E94D22180918E0782300F
:1004A00051F4E114F10439F00B811C81C80101976A
:1004B0008436910550F060E070E0809117089091CB
:1004C00018080E94362080E058C00E5F1F4F209110
:1004D00097073091980780E091E0821B930B0817F3
:1004E000190708F03FC02091A1073091A20784E1CD
:1004F00090E0821B930B0297A8F18AE290E09A8326
:10050000898342E050E0BE016D5F7F4F8FE897E046
:10051000B5D24B815C81B7018FE897E0AFD201156E
:100520001105B1F0902F812F0B32110510F09AE2D6
:1005300080E099838A8342E050E0BE016F5F7F4F85
:1005400089E997E09BD289819A81081B190B51F7A1
:1005500060E070E080911708909118080E943620A2
:100560008B810BC060E070E08091170890911808B3
:100570000E94362080E001C080E00F900F900F9025
:100580000F90DF91CF911F910F91FF90EF90089501
:10059000CF93DF931F921F92CDB7DEB7811114C0A6
:1005A00080918E07823091F4662394F081E08983F4
:1005B0006A8322E030E0AE014F5F5F4F61E08091DF
:1005C000AE070E948B1A05C080E003C080E001C026
:1005D00080E00F900F90DF91CF910895AF92BF927E
:1005E000CF92DF92EF92FF920F931F93CF93DF93FF
:1005F000CDB7DEB7AE970FB6F894DEBF0FBECDBF56
:100600008111DBC080918E07882309F4D6C020E0D9
:100610004FEF5FEF60E070E080911708909118084D
:100620000E94D22180918E07823049F060E070E014
:1006300080911708909118080E943620BEC08091C2
:10064000AD07882309F462C0EEE8F7E0858D968D4A
:100650000A96968F858F248D265F248F893E93403E
:1006600058F060E070E080911708909118080E949F
:10067000362080E0BCDEA1C0293C08F447C0EEE88B
:10068000F7E0078110851EA61DA6A18C838DA81AF0
:100690008A2D8F77A82EC1F1C12CD12CB12C7F01CE
:1006A0001982F701838D8B0D8F778A834189528957
:1006B0004C0D5D1D22E030E0BE01635D7F4F89E996
:1006C00097E08BD22DA53EA5A801BE016D5F7F4F9F
:1006D0008FE897E082D22DA53EA5020F131FF701E8
:1006E000838194810197082319232E5F3F4FAE0128
:1006F0004F5F5F4F61E080A10E948B1AB394F2E0DC
:10070000CF0ED11CAB10CCCF1092AA07EEE8F7E0C9
:10071000818D482F50E0938D491B51094F77552704
:10072000443051050CF041C06581768125893689B8
:1007300062177307D1F119828A838F01440F551F05
:1007400081899289480F591F22E030E0BE01635D24
:100750007F4F89E997E041D22DA53EA5F801458953
:100760005689BE016D5F7F4F8FE897E036D22DA589
:100770003EA5F80185899689A901480F591F8381F3
:100780009481019784239523968B858B81E0878FB5
:10079000818D8F5F8F77818F2E5F3F4FAE014F5FCF
:1007A0005F4F61E080A10E948B1A60E070E0809151
:1007B0001708909118080E943620AE960FB6F8944C
:1007C000DEBF0FBECDBFDF91CF911F910F91FF9084
:1007D000EF90DF90CF90BF90AF9008950F931F934D
:1007E000CF93DF93EA01811141C08091B1079091CD
:1007F000B207892B99F4DB0111968C91119790E047
:10080000982F88272C91822B9093B2078093B10761
:100810008536910558F522976E5F7F4F0EE817E0F9
:10082000F80181A192A1AE018D54984F0E945A3BCC
:10083000D80191966D917C9192976C0F7D1F929645
:100840007C936E93919793968D919C919497681752
:10085000790761F45796ED91FC91589783EB97E0F7
:100860001995F80114A213A212A211A2DF91CF913F
:100870001F910F9108959F92AF92BF92CF92DF92F6
:10088000EF92FF920F931F93CF93DF931F92CDB7F9
:10089000DEB78B015A019091AE079813B8C09091C2
:1008A0008E07992309F4B3C0FB01D0800F2EFEE818
:1008B000EF2EF7E0FF2EF02D13C0E0918C07F091A2
:1008C0008D07309759F0482F50E060E070E000E06D
:1008D00010E023E0CF010E94F230AAC0E12CF12CFD
:1008E00020E04FEF5FEF60E070E0F701E757FF4F68
:1008F000808191810E94D221F7018081823030F085
:10090000A114B10419F00115110551F4F701E757CD
:10091000FF4F60E070E0808191810E94362088C0A6
:10092000833021F5F3E0DF1221C0F701E557FF4FD7
:1009300080819181009781F000E010E022E040E0AA
:1009400050E0BA010E94F230F701E557FF4F1182E3
:10095000108260E080E01CDEF701E757FF4F60E0A7
:1009600070E0808191810E94362062C0F801C180D0
:10097000DD2009F452C0F4E0DF1213C053C0A5011A
:1009800042505109B8016E5F7F4F80E027DFF701C9
:10099000828D8F5F8F77828FF701628D80E0F8DD27
:1009A0002CC0F1E0DF1229C0F701838DFC2DF81B6C
:1009B0008F2F8F77982E09F1D12C57018BE0A80E3D
:1009C000B11C87010F5F1F4F42E050E0BE016F5F17
:1009D0007F4FC50150D1498150E060E070E0C8010F
:1009E0004AD1D3949D10F0CFF701C38E148E168E8A
:1009F000158E818DC81201C0178EF701E757FF4F82
:100A000060E070E0808191810E94362011C0F80181
:100A1000D080F2E0DF120CC050CFF701828DC812F7
:100A2000BBCFADCFF701828DC81609F4B0CFB4CFDC
:100A30000F90DF91CF911F910F91FF90EF90DF907A
:100A4000CF90BF90AF909F90089580E0C7DD8AE07F
:100A500090E00E94D028F9CFFC016115710561F08A
:100A600071836083538342831186108617821682B6
:100A70001582148281E0089580E00895EF92FF923C
:100A80000F931F93CF93DF93EC012A813B818885DD
:100A90009985F901E81BF90BE417F50708F449C03B
:100AA0008A017B018C819D81A901481B590B041788
:100AB0001507A8F428813981A801820F931F0E948D
:100AC0005A3B8C819D81800F911F9D838C832A814D
:100AD0003B818217930721F51D821C8221C028814A
:100AE0003981820F931F0E945A3B8C819D816A81BC
:100AF0007B81AC01461B570B400F511F681B790BC4
:100B00006E0D7F1D888199810E945A3B8C819D8149
:100B10002A813B81821B930B800F911F9D838C83C5
:100B200048855985040F151F1987088781E090E0D3
:100B300002C080E090E0DF91CF911F910F91FF9074
:100B4000EF9008950F931F93CF93DF93FC0121152E
:100B50003105C9F1A681B78184819581A817B907AC
:100B6000A9F1C62FD72F80E090E007C0A681B781FA
:100B700064817581A617B70759F160817181A60F4D
:100B8000B71F5C918E015883668177816F5F7F4FBD
:100B900077836683A085B1851197B187A087A281ED
:100BA000B3816A177B0711F4178216822196D80148
:100BB0005C91541302C001960BC0019628173907A7
:100BC000A9F6C90105C080E090E002C080E090E095
:100BD000DF91CF911F910F910895CF92DF92EF9205
:100BE000FF920F931F93CF93DF937C016B01EA0178
:100BF0008901672BA9F1FC0142815381C417D507F4
:100C000010F0C41BD50B4C1B5D0B4017510760F057
:100C1000F701608171816C0F7D1FA801C6010E94E0
:100C20005A3B802F912F1EC0F701608171816C0F9C
:100C30007D1FC6010E945A3BF70122813381C90101
:100C40008C1B9D0BA801421B530B4C0F5D1F608139
:100C500071818C0D9D1D0E945A3B802F912F02C0E7
:100C600080E090E0DF91CF911F910F91FF90EF9086
:100C7000DF90CF900895EF92FF920F931F93CF9341
:100C8000DF93EC017B01088519854017510708F4B3
:100C90008A018E819F814A815B81481B590B4017D5
:100CA0005107C8F0E114F10441F068817981680FBF
:100CB000791FA801C7010E945A3B8E819F81800F36
:100CC000911F9F838E832A813B818217930741F571
:100CD0001F821E8225C0E114F104C1F06881798170
:100CE000680F791FC7010E945A3B4E815F812A819C
:100CF0003B81C901841B950B421B530B400F511FB5
:100D0000688179818E0D9F1D0E945A3B8E819F8143
:100D10002A813B81821B930B800F911F9F838E83BF
:100D200088859985801B910B99878887C801DF91F9
:100D3000CF911F910F91FF90EF900895EF92FF9246
:100D40000F931F93CF93DF937C01680F791FFC01F2
:100D50003196009719F04115510521F460E070E0DB
:100D600081E04BC02115310559F1E617F70760F511
:100D70008A01020F131FDA01EC0191E02FEF04C08A
:100D8000FA01E617F70720F53D9131110AC0988363
:100D9000CF010196A017B107E8F4EF01FC0191E043
:100DA000F0CFAF014F5F5F4F30839F5FA017B10758
:100DB000B0F49F3F29F728833296EA0191E0E1CF12
:100DC000EC0180E091E00DC0EC0182E091E009C00F
:100DD00082E007C0EF01FC0180E091E002C0FA016F
:100DE00080E0C617D70718F49883BF0101C082E0DE
:100DF0009B012E193F09622F732FDF91CF911F9115
:100E00000F91FF90EF900895AF92BF92CF92DF9233
:100E1000EF92FF920F931F93CF93DF937C01DA0140
:100E2000009711F0109721F460E070E081E05FC05E
:100E30002115310509F44BC06A01C20ED31E5C01B5
:100E4000A60EB71E8C0150E001C08F01ED01219666
:100E50007C91711103C05460F8013DC07150C6010E
:100E60008C1B9D0B272F30E08217930710F4782FEF
:100E70005860C501801B910B272F30E08217930724
:100E800010F4782F5260772361F1DE01F801972F7B
:100E90003D91311101C0546031939150C9F7EFEF8A
:100EA000E70FF0E03196DE01AE0FBF1FE00FF11F3C
:100EB000AC15BD0580F47E3F41F2EA15FB0510F04C
:100EC000526009C08F010F5F1F4F1082BFCFFC011E
:100ED00050E001C0F801EE19FF096E2F7F2F852F1A
:100EE00006C0CC15DD05B0F7F801DE01E6CFDF91D5
:100EF000CF911F910F91FF90EF90DF90CF90BF9017
:100F0000AF900895862798E02CE880FF03C086956F
:100F1000822701C086959150C1F708950F931F93C2
:100F2000CF93DF93662359F08C01EC01060F111D5E
:100F300080E06991E7DF0C171D07D9F701C080E059
:100F4000DF91CF911F910F91089580B380BBECE7A3
:100F5000F0E08081806C8083EAE7F0E08081806847
:100F600080838081846080830895ECE7F0E0808353
:100F70009081906C9083EAE7F0E090819064908398
:100F8000908196FDFDCF2091780090917900E82F17
:100F9000F0E02695269530E4939FC0011124822B22
:100FA000FE2FEE27E050FE4FE80FF11D80810895DF
:100FB000CF92DF92EF92FF92CF93DF93EC01C88044
:100FC000D980EA80FB802BED3FE049E450E4C70183
:100FD000B6010E94D93518166CF42BED3FE049ECB0
:100FE00050E4C701B6010E946233688379838A8323
:100FF0009B8316C02BED3FE049E450ECC701B601DE
:101000000E942934882364F42BED3FE049EC50E43E
:10101000C701B6010E946333688379838A839B8307
:1010200088819981AA81BB81BC01CD019F772BED7D
:101030003FE049E450E40E94D93518160CF4BFCFC4
:10104000DF91CF91FF90EF90DF90CF900895EF92D6
:10105000FF920F931F93CF93DF93EC010E94422BDB
:101060008091210890912208892B41F5E3E2F8E074
:10107000A7E2B8E0B183A08313821282E3E2FAE12F
:10108000F0932208E09321081382128211821082C9
:101090008CEF91E113969C938E931297ED93FC93B2
:1010A00090931E0880931D089093200880931F083A
:1010B00080E090E890931C0880931B0880911B08A7
:1010C00090911C088C239D23892B09F0B2C0209796
:1010D00009F4B2C0AE014C5F5F4F09F4B0C080911B
:1010E0001F08909120088417950708F4ABC0E09181
:1010F0002308F0912408A3E2B8E002C0DF01F9015F
:10110000228133812417350728F42081318121156C
:101110003105A1F76091210870912208E617F707C1
:1011200009F493C0CD91DC9111977E0184E0E80E23
:10113000F11C808191818D939C9382819381841B8A
:10114000950B8930910508F452C09F01240F351F7B
:10115000D90113969C938E93129753834283A3E2F3
:10116000B8E001C0DC018D919C9111978217930723
:10117000C8F312964D915C9113978D01040F151FC2
:101180002017310751F4E9012A813B81420F531F97
:1011900013965C934E9312979D01E9014A815B81FE
:1011A0008901040F151F80179107C9F46017710793
:1011B00091F0E8018A819B81480F591FE9015B8307
:1011C0004A838D919C911197EC0188819981E90165
:1011D0009983888307C0E9017983688303C0E901A3
:1011E00099838883A217B30711F02D933C93228132
:1011F000338180911F0890912008821B930B90935C
:10120000200880931F0840911D0850911E088417E4
:10121000950720F490931E0880931D0880911B0869
:1012200090911C08282B392B338322831182108242
:101230000EC0E12CF12C0BC0E12CF12C08C0E12CEC
:10124000F12C05C0E12CF12C02C0E12CF12C0E9404
:10125000482BC701DF91CF911F910F91FF90EF9025
:101260000895CF93DF93009709F468C0FC01349789
:101270002281338140911B0850911C08B9016423DD
:101280007523672B09F45AC060817181672B09F0BF
:1012900055C0EF0140955095242335233383228395
:1012A0000E94422B4A815B8180911F089091200807
:1012B000840F951F9093200880931F08E3E2F8E0C5
:1012C00001C0FC01808191818C179D07D0F32281A0
:1012D0003381BF01620F731FC617D70729F4240F8C
:1012E000351F33832283EF012A813B81DE01A20F68
:1012F000B31F8A179B07C9F4809121089091220897
:10130000A817B90779F012968D919C911397280F21
:10131000391F3B832A83A081B1818D919C91998350
:10132000888305C0B983A88302C099838883EC179A
:10133000FD0711F0D183C0830E94482BDF91CF912C
:10134000089580911F08909120080895EF92FF92D0
:101350000F931F93CF93DF93EC01E42E2898862FF1
:1013600080680E940A26EE20B1F00FEF0E0D10E00B
:101370000F5F1F4F0C0F1D1FF12C80E00E940A26EB
:101380008F3F09F4F39489930C171D07B1F7FE10F2
:1013900004C085E003C085E001C080E0289ADF91A9
:1013A000CF911F910F91FF90EF900895CF93DF930E
:1013B000EC012898862F80680E940A2680E00E940F
:1013C0000A26289A8F3F11F495E001C090E08883A7
:1013D000892FDF91CF910895CF93DF931F921F92B2
:1013E000CDB7DEB7ECE7FBE181E0808324EF31E0AD
:1013F0003283218322E836E03483238320E931E0FD
:1014000036832583178210868187828720E130E02A
:10141000348723872DE030E03687258722E330E0CC
:10142000308B2787118A128A838B848B88EB9BE011
:10143000968B858B8AE090E0908F878B118E10922F
:10144000971B1092961B1092991B1092981B0E944A
:10145000FC25209A289A198220E137E289818F5F42
:10146000898321503109D1F76FE0CE0102969EDFCA
:101470008A818936C9F780E00F900F90DF91CF9174
:1014800008950F931F93CF93DF931F921F92CDB7B1
:10149000DEB78C0142E0CE01019658DF2A8130E0B0
:1014A000322F22279981292BF801318320830F9035
:1014B0000F90DF91CF911F910F910895CF93C62F79
:1014C00028980E940A268C2F0E940A26289A80E0DB
:1014D000CF9108951F93CF93DF931F921F92CDB7A3
:1014E000DEB7198279DF182F19828091851B813030
:1014F00009F083C080918B1B90918C1B84369105E1
:1015000041F0883C910541F0C29741F483E0898322
:1015100005C082E0898302C081E089838091871BB6
:101520009091881B8430910531F08830910539F015
:10153000029749F40BC089818860898307C089813B
:101540008C60898303C08981846089838091891B31
:1015500090918A1B803A21E09207C1F170F48A31A0
:10156000910521F118F40D97E9F028C08433910515
:1015700009F1803D910531F121C082302DE09207C3
:1015800089F140F4813423E0920721F18C379640B1
:1015900029F114C084302AE1920741F18231944349
:1015A00049F10CC089818061898327C0898180626B
:1015B000898323C08981806389831FC08981806476
:1015C00089831BC089818065898317C08981806672
:1015D000898313C08981806789830FC0898180686E
:1015E00089830BC089818069898307C08981806A6A
:1015F000898303C08981806B8983698180E15EDF93
:1016000063E1CE010196D2DE89818F778983909143
:10161000861B913011F480688983698183E14EDFF4
:10162000198280917C1B813009F05BC080917D1B09
:1016300090917E1B853F9105C1F020F48D37910577
:1016400049F011C0843F21E0920739F0883E934071
:1016500039F009C082E0898308C084E0898305C02D
:1016600088E0898302C08CE0898380917F1B909100
:10167000801B803D910531F148F48A319105B1F02C
:1016800084339105B9F00D97C9F40CC0813423E07F
:10169000920701F18C3726E0920701F1803A9140E0
:1016A00069F414C08981806189831BC0898180624B
:1016B000898317C089818063898313C0898180648D
:1016C00089830FC08981806589830BC08981806689
:1016D000898307C089818067898303C08981806885
:1016E0008983698181E1EADE6FE0CE0102965EDEE8
:1016F000812F0F900F90DF91CF911F910895CF937D
:10170000DF931F921F92CDB7DEB766E2CE0101963E
:10171000B8DE8823A9F0853051F48091961B909112
:10172000971B01969093971B8093961B09C08091FD
:10173000981B9091991B01969093991B8093981BED
:1017400089819A810F900F90DF91CF910895CF9268
:10175000DF92EF92FF92CF93FC0140917D1B50915D
:101760007E1B453F5105B1F09A01A5E2B6E00E940B
:10177000543A481B590B56954795840F951F0024E2
:10178000880F991F001C880F991F001C892F902D0E
:10179000C82F01C0C2E0BF01FF0F880B990B0E9448
:1017A000CB3420E030E04CE850E40E94E4356B019B
:1017B0007C016C2F70E080E090E00E94CB349B01B4
:1017C000AC01C701B6010E94E43520E030E04AE7F1
:1017D00054E40E943034CF91FF90EF90DF90CF908F
:1017E00008958DDFB4CF0895EAE0F1E0808187604D
:1017F000808308958230910531F4EBE0F1E080813F
:101800008460808308958130910531F4EBE0F1E04C
:101810008081826080830895892B29F4EBE0F1E0D8
:1018200080818160808308958230910531F4EBE0FE
:10183000F1E080818B7F808308958130910531F4C0
:10184000EBE0F1E080818D7F80830895892B29F47E
:10185000EBE0F1E080818E7F80830895FC010396A8
:10186000928381832FEF3FEF348323839683858395
:101870009087878310820895FC0111861086089551
:10188000CF93DF939C01FB01DC011196CD91DC919C
:101890001297D383C2838C819D81958384838C81AD
:1018A0009D81DC0113967C936E9312977D836C83EC
:1018B00031872087F90180818F5F8083DF91CF910D
:1018C0000895CF93DF93EB01488159814F3F2FEF6C
:1018D000520721F4FC01A781B0850DC0DC011396ED
:1018E00001C0DF011296ED91FC91139720813181A7
:1018F00042175307B0F71296ED91FC911397FB83B3
:10190000EA83D583C483BD83AC831396DC93CE93E3
:10191000129799878887FC0120812F5F2083DF91B0
:10192000CF910895CF93DF93FC01A085B185C2814B
:10193000D381848195819D838C83C481D58182816B
:1019400093819B838A8311968D919C911297E817BE
:10195000F90731F48481958112969C938E931197A7
:10196000118610868C9181508C93DF91CF910895D0
:10197000CF93DF93CDB7DEB728970FB6F894DEBFCD
:101980000FBECDBF19821A821B821C821D821E824D
:101990001F8218860E948423A12CB12CC12CD12C2B
:1019A000E12CF12C03E020E030E04CE251E06BE070
:1019B00076E085E295E00E9411260E948D23182F83
:1019C00088EE93E00E94D0281123B9F30E94992356
:1019D0000F2EF6EAEF2EFBE1FF2EF02D01E020E0C6
:1019E0004FEF5FEF60E070E08091A21B9091A31B2E
:1019F0000E94D221813009F076C00E94422B0FB69E
:101A0000F8940F92F7011081A180B280C380D48036
:101A10000F900FBE0E94482B153009F455C028F4D2
:101A20001230A9F01430A1F15EC0173009F454C08F
:101A300018F0183049F057C00FB6F8940F92009381
:101A4000351A0F900FBE4FC00E94A1244CC0B501A3
:101A5000BB0C880B990B0E94CB3469837A838B83F0
:101A60009C83B601DD0C880B990B0E94CB346D83EF
:101A70007E838F83988720E044E650E0BE016F5F4D
:101A80007F4F80913C1A90913D1A0E94661E2BC098
:101A90000FB6F8940F920093341A0F900FBE19826C
:101AA0001A821B821C821D821E821F82188620E0E1
:101AB00044E650E0BE016F5F7F4F80913C1A9091E9
:101AC0003D1A0E94661E0FC00FB6F8940F92109236
:101AD000341A0F900FBE07C00FB6F8940F921092F1
:101AE000351A0F900FBE81E090E09EDE78CFCF9345
:101AF000DF93CDB7DEB763970FB6F894DEBF0FBEA6
:101B0000CDBF198210E021E0288BF12C68942224AB
:101B100022F86894332432F80EC00F2EF3E02F2EF3
:101B2000F02D09C00F2EF3E02F2EF02D04C00F2E44
:101B3000F3E02F2EF02D8091351A813009F020C16D
:101B40008091341A81111CC10E94832C9B838A834B
:101B500020E046E950E0BE016F5F7F4F80913A1A66
:101B600090913B1A0E94D2218130C9F48981882347
:101B700019F0833098F408C03889F39EF02C1124B2
:101B800011E081E0888B0BC09DECF99EF12C1124B3
:101B9000F694F69410E025E0288B01C010E0388917
:101BA000F39E802D11240E94C52468EC70E0CE01C4
:101BB00002960E942D2780E0D8D9D82E81E0D5D971
:101BC000E82E83E0D2D9C82E82E0CFD9898B20E0DD
:101BD00048E250E060E070E08091A41B9091A51B6A
:101BE0000E94D2214090301A5090311A6090321ADF
:101BF0007090331AA0902E1AB0902F1A80912C1A40
:101C000090912D1A9D878C8760E070E08091A41BD5
:101C10009091A51B0E9436201B3038F089818111DC
:101C200004C00E94402411E006C0112321F08981E4
:101C3000811101C01F5F3889232F30E03B8B2A8B35
:101C4000F29E4001F39E900C11248C859D856AE0E4
:101C500070E00E94413A7D876C87C5016AE070E0C0
:101C60000E94413A7F876E8720E030E044E353E4EE
:101C7000C301B2010E94E4352BED3FE049E450E49A
:101C80000E9430340E949834A9880D2D9401AB0134
:101C90006C857D858E859F850E94FE238FE1881649
:101CA00091042CF09CE3891691048CF1D9888FEF74
:101CB0008D0D883160F52E853F85B901330F880B76
:101CC000990B0E94CB346C837D838E839F832C85FC
:101CD0003D85B901330F880B990B0E94CB3468877F
:101CE00079878A879B878FE096E09F938F930E94E6
:101CF000642420E044E650E0BE016C5F7F4F809199
:101D00003C1A90913D1A0E94661E0F900F903BE581
:101D100083169104ACF484E0281212C089818330C8
:101D200008F044C0F3942A893B89F29E4001F39E57
:101D3000900C11243AE5831691040CF0EECE17C0F6
:101D40001814190444F583E028122AC089818330CD
:101D500008F0F1CEFA942A893B89F29E4001F39E65
:101D6000900C112404C034E0231609F4DBCE1814BF
:101D700019040CF4E0CE83E02812DDCE232CDBCE58
:101D800080E00E94C52484E690E00E94D02810E004
:101D9000F12C232CD0CE9AE58916910464F30AC065
:101DA0002AE5821691040CF4C6CEDDCF181419046E
:101DB000BCF3F1CF34E0231609F4B9CEDCCFCF93D6
:101DC000DF93CDB7DEB7C756D1090FB6F894DEBFA3
:101DD0000FBECDBF19821A821B821C821D821E82F9
:101DE0001F82188619861A861B861C861D861F86EA
:101DF0001E86198A188A1B8A1A8A1D8A1C8A1E8ABC
:101E00001F8A188E198E1A8E1B8EA5961FAEA59747
:101E10006A961FAE6A971FAA6B961FAE6B972AE051
:101E200027962FAF2797A6961FAEA697A8961FAE08
:101E3000A89745E0A7964FAFA7978AE06C968FAF1B
:101E40006C9721961FAE219726961FAE2697A496D3
:101E50001CAE1DAE1EAE1FAEA497A0961CAE1DAE4E
:101E60001EAE1FAEA0972D961FAE2D9791E028961F
:101E70009FAF289769961CAE1DAE1EAE1FAE699728
:101E800065961CAE1DAE1EAE1FAE65971BA61CA6AA
:101E90001DA61EA61CAE1DAE1EAE1FAE18AE19AE00
:101EA0001AAE1BAE22961FAE229723961FAE239723
:101EB00024961FAE249725961FAE25971BA21CA221
:101EC000A8ECADA3B2E4BEA31FA218A626E929A7D9
:101ED00043E44AA78091351A882309F419C7F89476
:101EE0004091361A1092361A1091371A1092371AFA
:101EF0007894BE016E5E7F4F8E890E94FE19412F3D
:101F0000BE016C5E7F4F8F890E94131A20E041E072
:101F100050E060E070E080919E1B90919F1B0E94BA
:101F2000D2218A899B899093291A8093281A8C89B7
:101F30009D8990932B1A80932A1A60E070E080911B
:101F40009E1B90919F1B0E94362020E04FEF5FEF79
:101F500060E070E080919C1B90919D1B0E94D221BB
:101F6000813009F0B7CF20E04FEF5FEF60E070E025
:101F70008091A41B9091A51B0E94D2218091301AC0
:101F80008FA79091311A98ABA091321AA9ABB0915A
:101F9000331ABAAB20902E1A30902F1A00912C1AB7
:101FA00010912D1A60E070E08091A41B9091A51B08
:101FB0000E94362020E040E050E0BE016F5F7F4F7E
:101FC00080913C1A90913D1A0E94D221813009F0F3
:101FD00057C020E030E040E251E469817A818B8192
:101FE0009C810E94E43568AF79AF8AAF9BAF20E057
:101FF00030E040E251E46D817E818F8198850E94BE
:10200000E4356CAF7DAF8EAF9FAFB101032C000CF8
:10201000880B990B0E94CB34A0966CAF7DAF8EAF2E
:102020009FAFA097B801012E000C880B990B0E945E
:10203000CB34A4966CAF7DAF8EAF9FAFA4977FA536
:1020400068A999A98AA9272F362F492F582F6BA540
:102050007CA58DA59EA50E946233688F798F8A8F9B
:102060009B8F6B962FAD6B972F5F6B962FAF6B97F8
:1020700041E06A964FAF6A971FAA21961FAE21973B
:10208000B101032C000C880B990B0E94CB349B01EF
:10209000AC0168AD79AD8AAD9BAD0E9462334B0156
:1020A0005C01B801012E000C880B990B0E94CB3407
:1020B0009B01AC016CAD7DAD8EAD9FAD0E946233D6
:1020C0006B017C01A5019401C501B4010E94E435B6
:1020D0006C8F7D8F8E8F9F8FA7019601C701B601F0
:1020E0000E94E4352B013C01A30192016C8D7D8D92
:1020F0008E8D9F8D0E9463330E9451366C8F78A322
:1021000089A39AA3A5019401C701B6010E94D63301
:102110006BA77CA78DA79EA78A859B85AC85BD856F
:102120008BAB9CABADABBEAB7FA568A999A98AA9C7
:10213000272F362F492F582F6BA57CA58DA59EA53F
:102140000E9462334B015C016A877B878C879D8785
:10215000CE010A960E94D807CA84DB84EC84FD84F1
:1021600026013701E89477F829E134E046E05FE39F
:10217000C301B2010E94D93518167CF022E73AE873
:102180004EE85CE3C301B2010E942934882344F481
:1021900091E028969FAF289703C028961FAE2897F6
:1021A000A70196016BA97CA98DA99EA90E94623303
:1021B0006B017C012BED3FE049EC5FE30E94D935D8
:1021C000181654F02BED3FE049EC5FEBC701B60168
:1021D0000E94293488234CF4888E998EAA8EBB8E57
:1021E000FC8CE8A0D9A0CAA036C0A0962CAD3DAD0D
:1021F0004EAD5FADA09768AD79AD8AAD9BAD0E9445
:1022000062334B015C01A4962CAD3DAD4EAD5FAD8C
:10221000A4976CAD7DAD8EAD9FAD0E9462336B0116
:102220007C01A5019401C501B4010E94E4354B0174
:102230005C01A7019601C701B6010E94E4359B012C
:10224000AC01C501B4010E9463330E945136F62EE1
:10225000E72ED82EC92ECE0148960E94D807888D29
:10226000998DAA8DBB8DBF77888F998FAA8FBB8FD1
:1022700020E030E0A9016F2D7E2D8D2D9C2D0E9438
:10228000D93518160CF06CC02BA13CA14DA15EA154
:102290006FA178A589A59AA50E9463339B01AC0123
:1022A0006F2D7E2D8D2D9C2D0E94293488230CF0BE
:1022B00080C020E030E040E85EE36F2D7E2D8D2D64
:1022C0009C2D0E94E435B62EA72E982E892E20E054
:1022D00030E040E450E46F2D7E2D8D2D9C2D0E942A
:1022E000E43520E030E040E85EE30E94E435762EFD
:1022F000672E582E492E2BA13CA14DA15EA16B2D1E
:102300007A2D892D982D0E94303429966FAF299708
:102310002A967FAF2A972B968FAF2B972C969FAF3D
:102320002C972FA138A549A55AA5672D762D852D67
:10233000942D0E9430342E966FAF2E972F967FAF3C
:102340002F9760968FAF609761969FAF6197BBA202
:10235000ACA29DA28EA27FA268A659A64AA651C091
:102360002E961FAE2E972F961FAE2F97A0E8609641
:10237000AFAF6097BFE36196BFAF619729961FAE7D
:1023800029972A961FAE2A9720E82B962FAF2B97D6
:102390004FE32C964FAF2C971BA21CA288EC8DA369
:1023A00092E49EA31FA218A6A6E9A9A7B3E4BAA720
:1023B00028C02E961FAE2E972F961FAE2F9720E87F
:1023C00060962FAF60974FE361964FAF6197299664
:1023D0001FAE29972A961FAE2A9780E82B968FAFBB
:1023E0002B979FE32C969FAF2C971BA21CA2A8ECC7
:1023F000ADA3B2E4BEA31FA218A626E929A743E411
:102400004AA720E030E040E751E46C8D78A189A133
:102410009AA10E94D93518160CF02CC42C8D38A125
:1024200049A15AA16F2D7E2D8D2D9C2D0E946233C6
:102430004B015C0120E030E0A9010E94D9358823DE
:102440000CF4B0C0A50194016BA17CA18DA19EA14B
:102450000E94D93588230CF4A5C0A8968FADA89703
:10246000811126C020E030E040E751E4C501B4010D
:102470000E942934882344F46C969FAD6C979F5F2B
:102480006C969FAF6C9742C01F926C96AFAD6C97E5
:10249000AF938EE196E09F938F930E9464240F90F8
:1024A0000F900F900F90B1E0A896BFAFA8972EC0E5
:1024B00020E030E0A9016C8D78A189A19AA10E9449
:1024C00029348823E1F02C8D38A149A15AA1229604
:1024D0006FAD229723967FAD239724968FAD2497D7
:1024E00025969FAD25970E94293481110CC0269610
:1024F0002FAD26972F5F26962FAF269707C02696DB
:102500001FAE269703C026961FAE269726964FAD80
:102510002697642F70E06C968FAD6C97680F711DD5
:10252000072E000C880B990B0E94CB342B013C0129
:102530009B01AC0160E070E088EC92E40E946233A1
:1025400020E030E048EC52E40E9430346B017C0122
:1025500020E030E048EC52E429966FAD29972A96A6
:102560007FAD2A972B968FAD2B972C969FAD2C97EE
:102570000E94E4359B01AC01C701B6010E94E4351D
:10258000A50194010E94E4352BA13CA14DA15EA1BF
:102590000E943034A30192010E9463330E949D3453
:1025A000062FC7C02C8D38A149A15AA16FA178A5CB
:1025B00089A59AA50E94D93518160CF0B9C020E05B
:1025C00030E048EC52E46C8D78A189A19AA10E9478
:1025D000293488239CF520E030E040EF51E46C8DF5
:1025E00078A189A19AA10E94D93518163CF52C8DA5
:1025F00038A149A15AA122966FAD229723967FADAB
:10260000239724968FAD249725969FAD25970E94FA
:102610002934811108C026969FAD26979F5F269684
:102620009FAF269703C026961FAE269726960FAD1E
:1026300026976C96AFAD6C970A0F7BC02C8D38A196
:1026400049A15AA122966FAD229723967FAD239779
:1026500024968FAD249725969FAD25970E94293407
:1026600081110FC06C96BFAD6C97A7962FADA79741
:10267000B21B2696BFAF26972B5FA7962FAFA797C3
:1026800003C026961FAE269726964FAD2697642F39
:1026900070E0A7968FADA797680F711D072E000CED
:1026A000880B990B0E94CB344B015C019B01AC0160
:1026B00060E070E088EC92E40E94623320E030E059
:1026C00048EC52E40E9430346B017C0120E030E0A1
:1026D00048EC52E42E966FAD2E972F967FAD2F9734
:1026E00060968FAD609761969FAD61970E94E435CB
:1026F0009B01AC01C701B6010E94E4356B017C016E
:102700002FA138A549A55AA56C8D78A189A19AA1B8
:102710000E9430349B01AC01C701B6010E94E43530
:10272000A50194010E9463330E949D34062F01C0CD
:1027300004E628969FAD2897992309F4BCC0CA8463
:10274000DB84EC84FD8420E030E0A901C701B60100
:102750000E94D93588230CF442C010E0B801012E44
:10276000000C880B990B0E94CB344B015C01C70114
:10277000B6019F7720E030E046E154E40E94E43562
:102780009B01AC01C501B4010E9462336B017C0165
:1027900020E030E040E251E465966CAD7DAD8EAD59
:1027A0009FAD65970E94E4359B01AC01C701B6015E
:1027B0000E9462330E9498347F876E878E859F8542
:1027C000081719071CF41F870E8706C08E859F8582
:1027D000992314F41F861E86198B088B41C010E0C4
:1027E000B801012E000C880B990B0E94CB344B01D1
:1027F0005C01C701B6019F7720E030E046E154E478
:102800000E94E4359B01AC01C501B4010E94623312
:102810006B017C0120E030E040E251E469966CAD50
:102820007DAD8EAD9FAD69970E94E4359B01AC01F3
:10283000C701B6010E9462330E949834798B688B7D
:1028400088899989081719071CF4198B088B06C009
:1028500088899989992314F4198A188A1F870E8701
:10286000CA84DB84EC84FD84A701960165966CAD77
:102870007DAD8EAD9FAD65970E94633365966CAF5D
:102880007DAF8EAF9FAF6597A701960169966CAD3E
:102890007DAD8EAD9FAD69970E94623369966CAF36
:1028A0007DAF8EAF9FAF699786E08F8B84E08E8B74
:1028B00081E08987D0C18A859B85AC85BD859C01D7
:1028C000AD015F77688D798D8A8D9B8D0E94623313
:1028D0006B017C01A696AFADA697A11128C029E196
:1028E00034E046E85EE30E94293418162CF4A596DD
:1028F000BFADA597BB2341F027962FAD27972E5F3D
:1029000027962FAF279713C01F9227964FAD279773
:102910004F9389E496E09F938F930E9464240F90D5
:102920000F900F900F9081E0A6968FAFA69720E0B2
:1029300030E0A9016BA97CA98DA99EA90E94293428
:102940008823C1F12A853B854C855D856BA97CA9CF
:102950008DA99EA90E942934811133C0A6969FADEE
:10296000A6979923A9F12196AFAD2197AD5F219646
:10297000AFAF2197A63190F12796BFAD2797BC5EE8
:102980002796BFAF27971F92BF938AE296E09F9347
:102990008F930E9464240F900F900F900F9021E06E
:1029A000A5962FAFA597A6961FAEA69721961FAE08
:1029B000219714C0A5961FAEA59721961FAE21970B
:1029C0000DC0A5961FAEA59721961FAE219706C0F4
:1029D000A5961FAEA59721961FAE21976A964FAD7B
:1029E0006A974130A9F427968FAD2797833880F0F6
:1029F0001F928F93AEE3B6E0BF93AF930E9464241F
:102A00000F900F900F900F904EE627964FAF27979D
:102A10002DEC3CEC4CEC5EE3688D798D8A8D9B8DC2
:102A20000E94E4359B01AC01C701B6010E94293424
:102A300088230CF068C020E030E0A9016A857B851E
:102A40008C859D850E94D935882374F127968FAD9A
:102A50002797282F30E02196AFAD21978A2F90E05D
:102A60004AE050E0421B530B480F591F5F874E87C7
:102A700045E04E8B2A503109820F931F998B888B2A
:102A800086E08F8B84E089876A961FAE6A97699685
:102A90001CAE1DAE1EAE1FAE699765961CAE1DAE78
:102AA0001EAE1FAE6597D7C02796BFAD27974B2F99
:102AB00050E021962FAD2197822F90E09A012A5065
:102AC0003109280F391F3F872E8724E02E8B2AE0FB
:102AD00030E0241B350B820F931F998B888B85E088
:102AE0008F8B83E089876A961FAE6A9769961CAEC2
:102AF0001DAE1EAE1FAE699765961CAE1DAE1EAE16
:102B00001FAE6597A8C0CA84DB84EC84FD8420E0F6
:102B100030E0A901C701B6010E94D93588230CF421
:102B20004DC027964FAD2797042F10E00E51110985
:102B300021968FAD2197080F111DC701B6019F7710
:102B400024EE37EB4BE451E40E94E4356B017C0149
:102B500066277727601B710B072E000C880B990BDB
:102B60000E94CB34A70196010E9463330E949834DF
:102B70007F876E8785E08E8BB801110F880B990BCC
:102B80000E94CB34A70196010E9463330E949834BF
:102B9000798B688B86E08F8B84E089876A961FAE7D
:102BA0006A9769961CAE1DAE1EAE1FAE69976596FC
:102BB0001CAE1DAE1EAE1FAE65974DC027969FADD5
:102BC0002797092F10E00E5111092196AFAD2197DB
:102BD0000A0F111DC701B6019F7724EE37EB4BE4B6
:102BE00051E40E94E4356B017C01B801012E000C18
:102BF000880B990B0E94CB34A70196010E94633386
:102C00000E9498347F876E8784E08E8B66277727B3
:102C1000601B710B072E000C880B990B0E94CB34A4
:102C2000A70196010E9463330E949834798B688BC8
:102C300085E08F8B83E089876A961FAE6A976996D5
:102C40001CAE1DAE1EAE1FAE699765961CAE1DAEC6
:102C50001EAE1FAE6597688979898E859F859E0116
:102C6000295E3F4FAE014A5E5F4FA1D32D961FAE46
:102C70002D9732C02D96BFAD2D97B11106C00E9481
:102C8000402421E02D962FAF2D974FA94436F1F423
:102C90006B968FAD6B978823C9F09AA99F93A9A9CA
:102CA000AF93B8A9BF932FA52F931F930F933F9274
:102CB0002F9285E596E09F938F930E9464240FB630
:102CC000F894DEBF0FBECDBF1FAA03C09FA99F5FB0
:102CD0009FAB5CD35FD3198620E040E050E0BE019B
:102CE000675F7F4F80913A1A90913B1AEFD7AC8D76
:102CF0002296AFAF2297B8A12396BFAF239729A101
:102D000024962FAF24974AA125964FAF2597E2C866
:102D10003DD340D3DFC8CF93DF93CDB7DEB76D97F8
:102D20000FB6F894DEBF0FBECDBF19821A821B8288
:102D30001C820E94832C9E838D831B861C861D868D
:102D40001E861B8A1C8A1D8A1E8A1F86188A198A5B
:102D50001A8AE12CF12CC12CD12C512C412C312C74
:102D6000212C68E270E0CE0105960E942D2780910B
:102D7000351A882309F458C120E04FE050E060E0A4
:102D800070E080919E1B90919F1B0E94D2216090C9
:102D9000281A7090291A00912A1A10912B1A60E0B3
:102DA00070E080919E1B90919F1B0E943620B30182
:102DB0006C197D09072E000C880B990B0E94CB34EF
:102DC00028EF33E543EA5FE30E94E4354B015C0101
:102DD000B8016E197F09072E000C880B990B0E9411
:102DE000CB3428EF33E543EA5FE30E94E4356B011F
:102DF0007C018091271A8E3131F52AE037ED43E2CC
:102E00005DE3C701B6010E9430349F938F937F9397
:102E10006F932AE037ED43E25DE3C501B4010E9400
:102E200030349F938F937F936F9383E796E09F93C4
:102E30008F930E9464241092271A0FB6F894DEBF75
:102E40000FBECDBF03C08F5F8093271AA7019601E5
:102E5000C501B4010E94633320E030E040E05FE34D
:102E60000E94E4356F8B788F898F9A8FA50194012A
:102E7000C701B6010E94623320E030E047E153E42D
:102E80000E9430344B015C010E94F10B2B853C8584
:102E90004D855E850E9462336B017C019F7720E047
:102EA00030E040E251E40E94293488233CF01F8244
:102EB0001B8E90E49C8F2FE32D8F04C05F824B8E7E
:102EC0003C8E2D8E2F813B8D4C8D5D8D60E070E0B2
:102ED00080E89FE30E946233A50194010E94E435DB
:102EE0004B015C0124ED32E047E35AE3C701B60130
:102EF0000E94E4352F813B8D4C8D5D8D0E94E43521
:102F0000A50194010E9463336F83788789879A872C
:102F1000C980DA80EB80FC8020E030E040E05FE3B5
:102F20000E94E435A70196010E9463334B015C01C6
:102F30000E942D349B01AC016F89788D898D9A8D0B
:102F40000E94E4359B01AC016F85788989899A8953
:102F50000E9463336F87788B898B9A8BC501B4018C
:102F60000E9447369B01AC016F89788D898D9A8DBF
:102F70000E94E4359B01AC016B897C898D899E8917
:102F80000E9463336B8B7C8B8D8B9E8BA70196018C
:102F90006F81788589859A850E94633369837A83F6
:102FA0008B839C83CE0101960E94D80720E04FE0DE
:102FB00050E060E070E08091A41B9091A51B0E94FE
:102FC000D22189819A81AB81BC818093301A909300
:102FD000311AA093321AB093331A6F857889898990
:102FE0009A890E94983470932F1A60932E1A6B89D5
:102FF0007C898D899E890E94983470932D1A6093E4
:103000002C1A60E070E08091A41B9091A51B0E9497
:10301000362060E070E080919C1B90919D1B0E9487
:103020003620780163019DCE05E610E0852C942CB6
:10303000A32CB22C0E94F10B9B01AC01682D792DC1
:103040008A2D9B2D0E946333862E972EA82EB92E93
:103050000150110979F720E030E04AEC52E40E9477
:1030600030346B877C878D879E877BCEF894FFCF2B
:10307000CF93DF931F921F92CDB7DEB785B78F77BF
:1030800085BF0E94F40B80E090E00E94FA0B0E9442
:10309000803231D20E94430182E793E20E94702580
:1030A00080E00E94E8240E94A507EDD00E946A0AF1
:1030B0000E94A1099A83898340E068E081E032D4CC
:1030C00090933D1A80933C1A40E061E081E02AD45D
:1030D00090933B1A80933A1A40E061E082E022D458
:1030E0009093391A8093381A81E06ED49093A51B7F
:1030F0008093A41B81E068D49093A11B8093A01BB4
:1031000081E062D490939F1B80939E1B43E060E01C
:1031100081E008D490939D1B80939C1B43E060E06A
:1031200081E000D49093A31B8093A21BA12CB12C0F
:10313000C12CD12CE12CF12C03E020E030E04CE25A
:1031400051E063E976E088EB9CE00E94112602E002
:1031500020E030E040E951E068E976E08FED9EE064
:103160000E94112604E020E030E04EE551E060EAE4
:1031700076E08BE896E10E94112601E020E030E045
:103180004CE251E068EA76E087E79DE00E94112674
:103190000E94A1099A838983789480E090E00E943C
:1031A000140C0E94552A80E090E00E94FA0B82E005
:1031B00090E00E94FA0B0EEA16E0F8941F930F932A
:1031C0000E9464240F900F90F8CF1F920F920FB6B9
:1031D0000F9211248F938091361A8F5F8093361A45
:1031E0008F910F900FBE0F901F9018951F920F9206
:1031F0000FB60F9211248F938091371A8F5F8093AF
:10320000371A8F910F900FBE0F901F9018951F9235
:103210000F920FB60F9211240BB60F922F933F937C
:103220004F935F936F937F938F939F93AF93BF93CE
:10323000EF93FF93649B0CC01092351A1092341ACE
:1032400060E070E08091A21B9091A31B0E94A721D7
:1032500060E070E080919C1B90919D1B0E94A721D3
:10326000FF91EF91BF91AF919F918F917F916F915E
:103270005F914F913F912F910F900BBE0F900FBE1A
:103280000F901F901895E1E0F1E0808180638083CA
:10329000269A84B1806684B9279A2F982E9885B192
:1032A0008F7985B9E2E0F1E080818F7C80838AB1FB
:1032B0008AB98BB18C608BB96C988DB38DBBE9E604
:1032C000F0E08081806F8083EAE6F0E080818160B9
:1032D00080838CE18CBB8DB38C618DBB84B58068A1
:1032E00084BDE0E8F0E080818062808384B5836003
:1032F00084BD85B585BD808181608083A1E8B0E013
:103300008C9188608C9385B5856085BD8C91856036
:103310008C9380818083E0EBF0E0808180838081EA
:103320008083E0EAF0E080818083089587BD2C9A55
:103330002D9884E0FB018083089590E090938B00AA
:1033400080938A00E2E0F1E0808180648083808164
:103350008F7D808386E0FB018083089587BD2C9854
:103360002D9A85E0FB018083089590E090938B0077
:1033700080938A00E2E0F1E080818F7B808380810E
:103380008062808385E0FB018083089517BC2C98C0
:103390002D98089510928B0010928A00E2E0F1E0DF
:1033A00080818F7B808380818F7D808308950F93C0
:1033B0001F93CF93DF93EB018901181619061CF4B4
:1033C000BA01B4DF07C0992324F4BA018195C6DF9E
:1033D00001C0DCDF1C161D0624F4B8018C2FADDF04
:1033E00008C0DD232CF4B8018C2F8195BEDF01C00D
:1033F000D1DFDF91CF911F910F910895843019F0A3
:10340000853049F00895FB0180819181840F911DE1
:10341000918380830895FB0180819181841B9109B0
:10342000918380830895853051F0863079F4FB01D3
:1034300080819181840F911D918380830895FB0188
:1034400080819181841B9109918380830895EF92FB
:10345000FF920F931F93CF93DF937C01C62FD0E091
:10346000CE010E9427088C019E0121503109A7013D
:10347000BE010E940407882321F0C8010E9431097F
:1034800033C0862F972FEC01F801E80FF91F319711
:10349000F0806FEF680FC8010E948E07F81621F0C8
:1034A000C8010E94310920C0D8018C91833021F0DD
:1034B000C8010E94310918C0AE0144505109B80139
:1034C0006D5F7F4FD8011296EC911297F0E0EE0FEE
:1034D000FF1FE054F44E0190F081E02D11968C9185
:1034E0001995C8010E943109DF91CF911F910F9169
:1034F000FF90EF90089587E29AE10C94F1320895DD
:10350000823040F4E82FF0E0EE0FFF1FE054F44E5D
:103510007183608308958F929F92AF92BF92CF92F2
:10352000DF92EF92FF920F931F93CF93DF93882E3A
:10353000962E5A018901690184E0C80ED11CC6018A
:103540000E942708EC01C80106960E9427087C010A
:10355000209711F0892B41F4CE010E943109C70157
:103560000E94310980E03CC0888283E089839A828E
:10357000A801B501CE0103960E945A3B5801E3E031
:10358000AE0EB11CAC0EBD1E63E0600FCE010E94FA
:103590008E07F5018083B8016B5F7F4F9601AE0106
:1035A000C7010E949E06882341F0CE010E94310986
:1035B000C7010E94310980E013C0862F972FF701C1
:1035C000E80FF91F1082BC016F5F7F4FC7010E9497
:1035D000CD32CE010E943109C7010E94310981E03C
:1035E000DF91CF911F910F91FF90EF90DF90CF90DF
:1035F000BF90AF909F908F90089531E1FC01308390
:10360000319722E220833197A3E3A083319760832F
:10361000319770833197108231971082319760E82B
:1036200060833197108231971082319710823197E1
:1036300062E06083319763E06083319764E0608388
:10364000319765E06083319766E06083319767E08A
:103650006083319768E06083319769E060833197D8
:1036600060E1608331973083319732E13083319765
:1036700033E13083319734E13083319735E1308362
:10368000319736E13083319737E13083319738E134
:103690003083319739E13083319730E2308331978D
:1036A00031E2308331972083319723E220833197B1
:1036B000408331975083319726E22083319727E268
:1036C0002083319728E22083319729E220833197A4
:1036D00020E32083319721E320838997089588EEA2
:1036E00093E09093D51B8093D41B9093D71B80932A
:1036F000D61B1092990089EF809398008BE08093FD
:103700009100E1E7F0E0808182608083A091121B4C
:10371000B091131BCD91CDBFDD91DEBFFF91EF9135
:10372000DF91CF91BF91AF919F918F917F916F91D9
:103730005F914F913F912F911F910F91FF90EF90CB
:10374000DF90CF90BF90AF909F908F907F906F90C1
:103750005F904F903F902F901F900F900CBE0F9056
:103760000BBE0F900FBE0F90089581E008950F9249
:103770000FB6F8940F920BB60F920CB60F921F92E1
:1037800011242F923F924F925F926F927F928F926D
:103790009F92AF92BF92CF92DF92EF92FF920F93E0
:1037A0001F932F933F934F935F936F937F938F93C9
:1037B0009F93AF93BF93CF93DF93EF93FF93A0912A
:1037C000121BB091131B0DB60D920EB60D920E94F6
:1037D0004E2DA091121BB091131BCD91CDBFDD9149
:1037E000DEBFFF91EF91DF91CF91BF91AF919F919C
:1037F0008F917F916F915F914F913F912F911F9189
:103800000F91FF90EF90DF90CF90BF90AF909F907F
:103810008F907F906F905F904F903F902F901F9070
:103820000F900CBE0F900BBE0F900FBE0F9008951F
:103830000F920FB6F8940F920BB60F920CB60F9230
:103840001F9211242F923F924F925F926F927F921C
:103850008F929F92AF92BF92CF92DF92EF92FF92A0
:103860000F931F932F933F934F935F936F937F9388
:103870008F939F93AF93BF93CF93DF93EF93FF9378
:10388000A091121BB091131B0DB60D920EB60D92A6
:1038900013BE8091D61B9091D71B01979093D71B95
:1038A0008093D61B892B41F48091D41B9091D51B1A
:1038B0009093D71B8093D61B0E948D2C81110E9460
:1038C0004E2DA091121BB091131BCD91CDBFDD9158
:1038D000DEBFFF91EF91DF91CF91BF91AF919F91AB
:1038E0008F917F916F915F914F913F912F911F9198
:1038F0000F91FF90EF90DF90CF90BF90AF909F908F
:103900008F907F906F905F904F903F902F901F907F
:103910000F900CBE0F900BBE0F900FBE0F9008952E
:1039200087DF18950F931F93CF93DF93082F162FE0
:10393000662309F43BC0869FC001112480960E9433
:103940002708EC01009721F439C0D983C88303C04C
:103950004F96998388830B8F1C8F0FB6F8940F9224
:10396000488159812C8D30E06B8D629FC001639F2F
:10397000900D1124BA01680F791F7B836A831A8E18
:103980005D834C83821B930B840F951F9F838E83D3
:103990008FEF8D8F8E8FCE0108960E942E0CCE0158
:1039A00041960E942E0C0F900FBE08C08FE190E050
:1039B0000E942708EC01892B09F0C7CFCE01DF91C7
:1039C000CF911F910F9108959F92AF92BF92CF9286
:1039D000DF92EF92FF920F931F93CF93DF9300D06C
:1039E0001F921F92CDB7DEB78FE190E00E942708AB
:1039F0008C01009709F458C1FC01138212821182D4
:103A000010821582148217821682128E81E0838FB3
:103A1000148E8FEF858F868F7801F8E0EF0EF11C02
:103A2000C7010E942E0C680181E1C80ED11CC6019D
:103A30000E942E0C1D821C82A12C99249394BB24DD
:103A4000BA940FB6F8940F92F801928D838D98175F
:103A5000F0F480819181892B09F01DC182819381CD
:103A60000E942A2FF80113821282928D9F5F928FFB
:103A70009189992339F0C6010E94312E813021F4B9
:103A800076DE02C0811173DE0F900FBE0DC18C81F6
:103A90009D81892B19F40F900FBE06C1A11005C09E
:103AA000CE0101960E94792EA92C0F900FBE0E9484
:103AB000422B0FB6F8940F92F801858D8F3F09F4D1
:103AC000158EF801868D8F3F09F4168E0F900FBE6C
:103AD000BE016C5F7F4FCE0101960E94842E811142
:103AE00096C00FB6F8940F92F801928D838D0F90C7
:103AF0000FBE98134AC06C817D81C7010E94D62DEC
:103B00000FB6F8940F92F801868D1816ACF48189DF
:103B1000811105C011C0F8018189882369F0C601AF
:103B20000E94312E81110E94BF2EF801868D815096
:103B3000868F868D18167CF3F801B68E0F900FBE17
:103B40000FB6F8940F92858D1816ACF4808581110C
:103B500005C011C0F8018085882369F0C7010E9463
:103B6000312E81110E94BF2EF801858D8150858FE5
:103B7000858D18167CF3F801B58E0F900FBE0E944C
:103B8000482B81115ECFF3DD5CCF0FB6F8940F9216
:103B9000F801868D1816ACF48189811105C011C019
:103BA000F8018189882369F0C6010E94312E8111B4
:103BB0000E94BF2EF801868D8150868F868D181643
:103BC0007CF3F801B68E0F900FBE0FB6F8940F92EB
:103BD000858D1816ACF48085811105C011C0F801DF
:103BE0008085882369F0C7010E94312E81110E94CF
:103BF000BF2EF801858D8150858F858D18167CF339
:103C0000F801B58E0F900FBE0E94482B1ACF0FB649
:103C1000F8940F92F801868D1816ACF48189811101
:103C200005C011C0F8018189882369F0C6010E948E
:103C3000312E81110E94BF2EF801868D8150868F12
:103C4000868D18167CF38FEFF801868F0F900FBECC
:103C50000FB6F8940F92858D1816ACF480858111FB
:103C600005C011C0F8018085882369F0C7010E9452
:103C7000312E81110E94BF2EF801858D8150858FD4
:103C8000858D18167CF38FEFF801858F0F900FBE8E
:103C90000E94482B09C0F801828D8F5F828F818935
:103CA000882309F4F1CEE7CEC8010F900F900F9052
:103CB0000F900F90DF91CF911F910F91FF90EF9098
:103CC000DF90CF90BF90AF909F9008956F927F92BA
:103CD0008F929F92AF92BF92CF92DF92EF92FF921C
:103CE0000F931F93CF93DF9300D01F921F92CDB7F6
:103CF000DEB78C015B015D834C83722E812C6624C0
:103D0000639499249A947C0188E0E80EF11C680180
:103D1000E1E1CE0ED11C0FB6F8940F92F801928D0E
:103D2000838D981720F0F2E07F126EC07DC1F801FC
:103D3000448D411115C0F80180819181892B09F0D2
:103D400079C1828193810E942A2FF8011382128205
:103D5000928D9F5F928F9189992309F44FC046C03D
:103D600071101AC050E0B501F801848195810E945C
:103D70005A3BF801248D84819581820F911D958392
:103D80008483228133818217930708F453C1808191
:103D90009181958384834EC150E0B501F8018681FD
:103DA00097810E945A3BF801848D90E0919581950E
:103DB000910926813781280F391F37832683408157
:103DC00051812417350730F422813381820F931FEC
:103DD00097838683F2E07F122DC1F801828D8823BC
:103DE00009F428C1828D8150828F24C1C801419677
:103DF0000E94312E813021F4BADC02C08111B7DC7F
:103E00000F900FBE81E01EC18C819D81892B21F412
:103E10000F900FBE80E016C1811005C0CE01019643
:103E20000E94792E862C0F900FBE0E94422B0FB657
:103E3000F8940F92F801858D8F3F09F4158EF801E3
:103E4000868D8F3F09F4168E0F900FBEBE016C5FFA
:103E50007F4FCE0101960E94842E811196C00FB62D
:103E6000F8940F92F801928D838D0F900FBE9813E6
:103E70004AC06C817D81C7010E94D62D0FB6F8948F
:103E80000F92F801868D1816ACF48189811105C056
:103E900011C0F8018189882369F0C6010E94312E82
:103EA00081110E94BF2EF801868D8150868F868DEC
:103EB00018167CF3F801968E0F900FBE0FB6F8948B
:103EC0000F92858D1816ACF48085811105C011C044
:103ED000F8018085882369F0C7010E94312E811185
:103EE0000E94BF2EF801858D8150858F858D181613
:103EF0007CF3F801958E0F900FBE0E94482B811124
:103F00000ACF35DC08CF0FB6F8940F92F801868DF2
:103F10001816ACF48189811105C011C0F80181899E
:103F2000882369F0C6010E94312E81110E94BF2EA4
:103F3000F801868D8150868F868D18167CF3F801E6
:103F4000968E0F900FBE0FB6F8940F92858D1816AF
:103F5000ACF48085811105C011C0F80180858823EB
:103F600069F0C7010E94312E81110E94BF2EF80115
:103F7000858D8150858F858D18167CF3F801958E7F
:103F80000F900FBE0E94482BC6CE0FB6F8940F922A
:103F9000F801868D1816D4F48189811106C016C0E7
:103FA000F8018189811105C011C07801F1E1EF0E9E
:103FB000F11CC7010E94312E81110E94BF2EF80111
:103FC000868D8150868F868D181654F38FEFF801F9
:103FD000868F0F900FBE0FB6F8940F92858D18162E
:103FE000D4F48085811106C016C0F8018085811146
:103FF00005C011C07801F8E0EF0EF11CC7010E9466
:10400000312E81110E94BF2EF801858D8150858F40
:10401000858D181654F38FEFF801858F0F900FBE22
:104020000E94482B80E00EC0F801448D442309F41F
:1040300082CEB2CEF801828D8F5F828F818981110D
:10404000D5CEDECE0F900F900F900F900F90DF9196
:10405000CF911F910F91FF90EF90DF90CF90BF9085
:10406000AF909F908F907F906F9008959F92AF92A6
:10407000BF92CF92DF92EF92FF920F931F93CF9355
:10408000DF9300D01F921F92CDB7DEB78C017D83E6
:104090006C83A12C99249394BB24BA947C0188E06E
:1040A000E80EF11C6801E1E1CE0ED11C0FB6F894C8
:1040B0000F92F801928D838D981700F58081918180
:1040C000892B09F02BC1828193810E942A2FF8014C
:1040D00013821282928D9F5F928F9189992341F072
:1040E000C80141960E94312E813021F440DB02C08C
:1040F00081113DDB0F900FBE81E018C18C819D8145
:10410000892B21F40F900FBE80E010C1A11005C0D3
:10411000CE0101960E94792EA92C0F900FBE0E940D
:10412000422B0FB6F8940F92F801858D8F3F09F45A
:10413000158EF801868D8F3F09F4168E0F900FBEF5
:10414000BE016C5F7F4FCE0101960E94842E8111CB
:1041500096C00FB6F8940F92F801928D838D0F9050
:104160000FBE98134AC06C817D81C7010E94D62D75
:104170000FB6F8940F92F801868D1816ACF4818969
:10418000811105C011C0F8018189882369F0C60139
:104190000E94312E81110E94BF2EF801868D815020
:1041A000868F868D18167CF3F801B68E0F900FBEA1
:1041B0000FB6F8940F92858D1816ACF48085811196
:1041C00005C011C0F8018085882369F0C7010E94ED
:1041D000312E81110E94BF2EF801858D8150858F6F
:1041E000858D18167CF3F801B58E0F900FBE0E94D6
:1041F000482B81115BCFBBDA59CF0FB6F8940F92E1
:10420000F801868D1816ACF48189811105C011C0A2
:10421000F8018189882369F0C6010E94312E81113D
:104220000E94BF2EF801868D8150868F868D1816CC
:104230007CF3F801B68E0F900FBE0FB6F8940F9274
:10424000858D1816ACF48085811105C011C0F80168
:104250008085882369F0C7010E94312E81110E9458
:10426000BF2EF801858D8150858F858D18167CF3C2
:10427000F801B58E0F900FBE0E94482B17CF0FB6D6
:10428000F8940F92F801868D1816D4F48189811163
:1042900006C016C0F8018189811105C011C07801DE
:1042A000F1E1EF0EF11CC7010E94312E81110E9435
:1042B000BF2EF801868D8150868F868D181654F397
:1042C0008FEFF801868F0F900FBE0FB6F8940F9204
:1042D000858D1816D4F48085811106C016C0F801AA
:1042E0008085811105C011C07801F8E0EF0EF11C46
:1042F000C7010E94312E81110E94BF2EF801858DC9
:104300008150858F858D181654F38FEFF801858FB6
:104310000F900FBE0E94482B80E008C0F801828DEC
:104320008F5F828F81898111DBCEE4CE0F900F9059
:104330000F900F900F90DF91CF911F910F91FF90F1
:10434000EF90DF90CF90BF90AF909F900895CF9364
:10435000DF93FC01928D838D9817D0F4828D8F5F4F
:10436000828F868D8F3F79F48189882399F0EB01C4
:10437000CF0141960E94312E882371F0209771F071
:1043800081E088830CC0868D8F5F868F81E007C0B7
:1043900080E005C081E003C081E001C081E0DF91E1
:1043A000CF9108956F927F928F929F92AF92BF921A
:1043B000CF92DF92EF92FF920F931F93CF93DF93F1
:1043C00000D01F921F92CDB7DEB78C015B015D83D9
:1043D0004C83622E812C7724739499249A946C01D7
:1043E00088E0C80ED11C7801E1E1EE0EF11C0FB699
:1043F000F8940F92F801828D882309F445C0E68075
:10440000F780448D4423A9F050E0C701840F951F25
:1044100097838683228133818217930720F08081DE
:10442000918197838683F80166817781C5010E9417
:104430005A3B611019C0F801828D8150828F8081B2
:104440009181892B29F40E946A2FF801938382833A
:10445000F80180858823A1F0C80108960E94312EBA
:10446000813071F484D90CC0F801F782E682818929
:10447000882331F0C80141960E94312E811177D9ED
:104480000F900FBE81E01AC18C819D81892B21F490
:104490000F900FBE80E012C1811005C0CE010196C1
:1044A0000E94792E872C0F900FBE0E94422B0FB6D0
:1044B000F8940F92F801858D8F3F09F4158EF8015D
:1044C000868D8F3F09F4168E0F900FBEBE016C5F74
:1044D0007F4FCE0101960E94842E8111A2C00FB69B
:1044E000F8940F92F801828D0F900FBE811157C082
:1044F00080819181892B49F40FB6F8940F928281C3
:1045000093810E94C82E0F900FBE6C817D81C701E0
:104510000E94D62D0FB6F8940F92F801868D1816CA
:10452000ACF48189811105C011C0F801818988230B
:1045300069F0C7010E94312E81110E94BF2EF8013F
:10454000868D8150868F868D18167CF3F801968EA5
:104550000F900FBE0FB6F8940F92858D1816ACF41D
:104560008085811105C011C0F8018085882369F01C
:10457000C6010E94312E81110E94BF2EF801858D47
:104580008150858F858D18167CF3F801958E0F90DC
:104590000FBE0E94482B81112ACFE9D828CF0FB631
:1045A000F8940F92F801868D1816ACF48189811168
:1045B00005C011C0F8018189882369F0C7010E94F4
:1045C000312E81110E94BF2EF801868D8150868F79
:1045D000868D18167CF3F801968E0F900FBE0FB6DD
:1045E000F8940F92858D1816ACF48085811105C062
:1045F00011C0F8018085882369F0C6010E94312E20
:1046000081110E94BF2EF801858D8150858F858D87
:1046100018167CF3F801958E0F900FBE0E94482B60
:10462000E6CE0FB6F8940F92F801868D1816D4F4E2
:104630008189811106C016C0F8018189811105C0E8
:1046400011C07801F1E1EF0EF11CC7010E94312E7B
:1046500081110E94BF2EF801868D8150868F868D34
:10466000181654F38FEFF801868F0F900FBE0FB618
:10467000F8940F92858D1816D4F48085811106C0A8
:1046800016C0F8018085811105C011C07801F8E0DD
:10469000EF0EF11CC7010E94312E81110E94BF2E26
:1046A000F801858D8150858F858D181654F38FEF15
:1046B000F801858F0F900FBEEBD780E00F900F9021
:1046C0000F900F900F90DF91CF911F910F91FF905E
:1046D000EF90DF90CF90BF90AF909F908F907F90A2
:1046E0006F900895AB01009711F41092351ABC0138
:1046F00086EA9BE10E945A3B60E070E08091A21B39
:104700009091A31BB3CC089580913E1A811104C0EF
:104710000E9460018093D81B089528EE33E042E7A1
:1047200053E260E08091D81B0E947C0180933E1A86
:104730000895CF93DF93CDB7DEB7E4970FB6F89423
:10474000DEBF0FBECDBF80913E1A882309F44DC055
:10475000198283E08A8381E492E59C838B8384E4DD
:1047600090E09E838D8324EB30E03F832E8385EFA2
:1047700090E09987888788E38C878A871B8685E104
:104780008D878E878F87888B1A8A198A8AE590E0B1
:104790009C8B8B8B3E8B2D8B8EE091E0988F8F8B3B
:1047A00088EC90E09A8F898F8AE1FE013196DE01D4
:1047B0005B9601900D928A95E1F78091000688231F
:1047C00059F04AE150E0BE01655E7F4F8091D81BF1
:1047D0000E94330281E009C04AE150E0BE01655EFB
:1047E0007F4F8091D81B89D181E0E4960FB6F89471
:1047F000DEBF0FBECDBFDF91CF910895AF92CF92B4
:10480000EF920F93CF93DF93CDB7DEB72D970FB60F
:10481000F894DEBF0FBECDBFE0913E1AEE2319F132
:10482000E1E0E9839B838A837D836C835F834E838E
:10483000398728870A87EB86CC86AD86809101066A
:10484000882351F04DE050E0BE016F5F7F4F8091B3
:10485000D81B0E94330207C04DE050E0BE016F5FDD
:104860007F4F80E04AD12D960FB6F894DEBF0FBE81
:10487000CDBFDF91CF910F91EF90CF90AF90089582
:10488000CF93DF931F92CDB7DEB780913E1A882376
:10489000B9F083E0898380910306882351F041E0D9
:1048A00050E0BE016F5F7F4F8091D81B0E943302A2
:1048B00007C041E050E0BE016F5F7F4F80E01DD137
:1048C0000F90DF91CF910895CF93DF93CDB7DEB7EF
:1048D000C456D1090FB6F894DEBF0FBECDBFAE01EE
:1048E00046595F4FFA0161917191AF018AE0898366
:1048F000CE0102960E94B13B8823C9F020910A069E
:10490000222361F09927AC014F5F5F4FBE016F5FBB
:104910007F4F8091D81B0E94330209C09927AC01B8
:104920004F5F5F4FBE016F5F7F4F80E0E6D0CC5995
:10493000DF4F0FB6F894DEBF0FBECDBFDF91CF9132
:104940000895CF93DF931F92CDB7DEB780913E1AC3
:104950008823B9F089E0898380910906882351F082
:1049600041E050E0BE016F5F7F4F8091D81B0E94F5
:10497000330207C041E050E0BE016F5F7F4F80E02F
:10498000BCD00F90DF91CF9108958A3538F080E93F
:104990009BE09093AB008093AA000895811107C01B
:1049A0008DE295E09093AB008093AA0008959FEF6D
:1049B000980F993560F4E82FF0E0EE0FFF1FE854F0
:1049C000F94F808191819093AB008093AA00089564
:1049D000A0EAB0E09C9190629C93E1EAF0E09081C3
:1049E000986190839C9192609C9390819260908357
:1049F0002FE33CE93093A7002093A600E1E0F1E02B
:104A0000908190619083C1CF0895EF92FF920F93B0
:104A10001F93CF93DF939091401A9F3F11F098130B
:104A200058C0FB018081811105C01092421A10927A
:104A3000411A0CC09091431A891741F0EFE3FAE153
:104A40001482138212828FEF818343C08091411AB6
:104A50009091421A9C0122503109240F351F2536AE
:104A6000310540F0EFE3FAE11382128214828FEFF6
:104A700081832FC08A01EB010F2EFFE3EF2EFAE1B5
:104A8000FF2EF02DF70124812F5F2483425051091E
:104A90006E5F7F4F8C5B954E0E945A3BF7014281BF
:104AA000538142505109BA01600F711F73836283B1
:104AB0009881898198130DC0E091D91BF091DA1B80
:104AC00084E49AE11995F7011482138212828FEF20
:104AD0008183DF91CF911F910F91FF90EF90089507
:104AE0009093DA1B8093D91B65E075E280E00E9409
:104AF000801A8FEF8093401A08955F926F927F9291
:104B00008F929F92AF92BF92CF92DF92EF92FF92DD
:104B10000F931F93CF93DF93582E5B018A018CE292
:104B200090E00E9427087C01980136952795ADE01A
:104B3000B3EC0E94543A929582958F7089279F70AA
:104B400089274AE2489F9001499F300D112441E096
:104B50000217130709F440E0980136952795ADE058
:104B6000B3EC0E94543A929582958F7089279F707A
:104B70008927840F0115110559F190E0C12CD12C22
:104B800066246A94680E470182E0880E911CE80151
:104B90000B32110510F0CAE2D0E077247394790E3D
:104BA000F70190836182B5016C0D7D1DAE01C401DA
:104BB0000E945A3B9E012E5F3F4FA70160E0852D6A
:104BC0000E948B1ACC0EDD1E0C1B1D0B972DF9F6C7
:104BD000C7010E94310981E0DF91CF911F910F91B0
:104BE000FF90EF90DF90CF90BF90AF909F908F900D
:104BF0007F906F905F90089584B1876084B9239807
:104C00008CB581608CBD8CB58C658CBD8CB58F7D71
:104C10008CBD08958EBD00000DB407FEFDCF8EB58E
:104C200008954F925F926F927F928F929F92AF9270
:104C3000BF92CF92DF92EF92FF920F931F93CF9389
:104C4000DF934C01EB015A012901C114D10439F45D
:104C5000CA010E9427086C01892B09F4ECC088E284
:104C600090E00E9427083C010097B9F0FC01D08E2B
:104C7000C78AA50165EA70E0C6010E94633BF1E0C6
:104C8000AF1AB108F3018789908DA80EB91E8881EB
:104C9000818F8881811105C014C0C6010E9431092D
:104CA000CAC0D3015A96FE0131969E01285F3F4F3C
:104CB000EF0181918D938881882319F02E173F078A
:104CC000B9F7F30110A2102F063008F015E0F30138
:104CD000168B11A312A2E3012296CE010E943C0C76
:104CE000C3010C960E943C0CF3017186608686E03D
:104CF00090E0811B910995878487738A628A13A249
:104D000014A215A216A217A2A201B401C5010E9405
:104D1000FD1AF30191838083E114F10419F0F70186
:104D2000718260820FB6F8940F928091B31A8F5FF0
:104D30008093B31A8091121B9091131B892BD9F584
:104D40007092131B6092121B8091B31A813009F08C
:104D500041C00F2EFCEDEF2EFAE1FF2EF02D0F2EAD
:104D6000F2E1CF2EFBE1DF2EF02DC7010E942E0CC9
:104D7000F9E0EF0EF11CEC14FD04B9F783ED9AE1B4
:104D80000E942E0C8AEC9AE10E942E0C8DEB9AE187
:104D90000E942E0C84EB9AE10E942E0C83ED9AE186
:104DA0009093C91A8093C81A8AEC9AE19093C71A13
:104DB0008093C61A0FC08091AF1A81110BC0E09189
:104DC000121BF091131B8689081720F07092131B99
:104DD0006092121B8091AB1A8F5F8093AB1AF30124
:104DE00086899091B01A981710F48093B01A90E0C9
:104DF0009C01220F331F220F331F220F331F820FFC
:104E0000931FBE018452954E0E94400C0F900FBE1E
:104E10008091AF1A882359F0E091121BF091131B77
:104E20008689801730F40E94B71B81E005C081E0BD
:104E300003C081E001C08FEFDF91CF911F910F91EF
:104E4000FF90EF90DF90CF90BF90AF909F908F90AA
:104E50007F906F905F904F9008959F92AF92BF9216
:104E6000CF92DF92EF92FF920F931F93CF93DF9336
:104E7000FC019091A81A9F5F9093A81A8091B11A93
:104E80009091B21A20813181E901C60FD71F821794
:104E9000930758F4C217D30708F06EC1D183C083BB
:104EA0008C179D0708F042C009C0C217D30708F449
:104EB00060C18C179D0708F45CC15EC18091121B14
:104EC0009091131B02960E94920CE091121BF0919C
:104ED000131BD383C2838091B11A9091B21AC81761
:104EE000D90768F46091121B7091131B8091C61A48
:104EF0009091C71A6E5F7F4F0E94610C17C060913E
:104F0000121B7091131B8091C81A9091C91A6E5F81
:104F10007F4F0E94610C8091A91A9091AA1AC8171C
:104F2000D90720F4D093AA1AC093A91A0FB6F894FF
:104F30000F928091A81A81508093A81A8091A81A84
:104F400081110DC18091B31A811133C00BC1D701FA
:104F50001596ED91FC911697C681D781CE010C96DE
:104F60000E94920C8E010E5F1F4FC8010E94920C8E
:104F70008E899091B01A981710F48093B01A90E02F
:104F80009C01220F331F220F331F220F331F820F6A
:104F9000931FB8018452954E0E94400CE091121B61
:104FA000F091131B9E898689981758F0D092AD1AFC
:104FB00008C00F2EFDEBEF2EFAE1FF2EF02DDD24C1
:104FC000D394F70180818111C2CF8091AE1A8823DA
:104FD00009F4BDC08091AE1A882309F4B8C0912CA1
:104FE000BB24B394CC24CA94DC2C8091A81A8111E0
:104FF00098C08091B11A9091B21A01969093B21A0A
:105000008093B11AE090B11AF090B21AE114F10451
:1050100089F58091C81A9091C91A2091C61A3091C9
:10502000C71A3093C91A2093C81A9093C71A80934D
:10503000C61A8091AC1A8F5F8093AC1AE091C81A9F
:10504000F091C91A8081811105C0D092AA1AC0922C
:10505000A91A10C0E091C81AF091C91A0580F6810A
:10506000E02D0680F781E02D828193819093AA1A2A
:105070008093A91A8091A91A9091AA1AE816F906A4
:1050800008F47DC0A92CE091C81AF091C91A80815A
:10509000811105C0D092AA1AC092A91A48C0E09105
:1050A000C81AF091C91A0580F681E02DC681D78112
:1050B0008A819B81E816F90628F49093AA1A8093B6
:1050C000A91A35C08E010E5F1F4FC8010E94920CB5
:1050D0008C899D89892B21F0CE010C960E94920C1F
:1050E0008E899091B01A981710F48093B01A90E0BE
:1050F0009C01220F331F220F331F220F331F820FF9
:10510000931FB8018452954E0E94400CE091121BEF
:10511000F091131B9E898689981708F4B4CFAB2CA5
:10512000B2CF8091AE1A8F5F8093AE1A28C0809163
:10513000AD1A811101C0A110B092AD1A8091AE1AC2
:1051400081508093AE1A8091AE1A81114ECF80911A
:10515000AD1A813031F40E94B71B81E003C080E0BA
:1051600001C080E00F900FBE81110EC00E94B71BDE
:105170000BC0D183C083A2CED183C083D7CE809110
:10518000AD1A8111D9CFDACFDF91CF911F910F9155
:10519000FF90EF90DF90CF90BF90AF909F900895D9
:1051A0009F92AF92BF92CF92DF92EF92FF920F93B6
:1051B0001F93CF93DF93009709F463C12091A81A3E
:1051C0002F5F2093A81AC091B11AD091B21AC80FBC
:1051D000D91F8091121B9091131B02960E94920C72
:1051E000E091121BF091131BD383C2838091B11AFB
:1051F0009091B21AC817D90768F46091121B709188
:10520000131B8091C61A9091C71A6E5F7F4F0E9440
:10521000610C17C06091121B7091131B8091C81A0A
:105220009091C91A6E5F7F4F0E94610C8091A91AFC
:105230009091AA1AC817D90720F4D093AA1AC0933C
:10524000A91A0FB6F8940F928091A81A81508093F2
:10525000A81A8091A81A81110DC18091B31A8111E9
:1052600033C00BC1D7011596ED91FC911697C681FD
:10527000D781CE010C960E94920C8E010E5F1F4FBB
:10528000C8010E94920C8E899091B01A981710F460
:105290008093B01A90E09C01220F331F220F331F1E
:1052A000220F331F820F931FB8018452954E0E9424
:1052B000400CE091121BF091131B9E898689981770
:1052C00058F0D092AD1A08C00F2EFDEBEF2EFAE188
:1052D000FF2EF02DDD24D394F70180818111C2CF00
:1052E0008091AE1A882309F4BDC08091AE1A88233C
:1052F00009F4B8C0912CBB24B394CC24CA94DC2C00
:105300008091A81A811198C08091B11A9091B21A17
:1053100001969093B21A8093B11AE090B11AF0906E
:10532000B21AE114F10489F58091C81A9091C91A52
:105330002091C61A3091C71A3093C91A2093C81AFF
:105340009093C71A8093C61A8091AC1A8F5F80938E
:10535000AC1AE091C81AF091C91A8081811105C078
:10536000D092AA1AC092A91A10C0E091C81AF0915E
:10537000C91A0580F681E02D0680F781E02D828133
:1053800093819093AA1A8093A91A8091A91A909157
:10539000AA1AE816F90608F477C0A92CE091C81AF1
:1053A000F091C91A8081811105C0D092AA1AC092C9
:1053B000A91A48C0E091C81AF091C91A0580F6816F
:1053C000E02DC681D7818A819B81E816F90628F4F1
:1053D0009093AA1A8093A91A35C08E010E5F1F4FB1
:1053E000C8010E94920C8C899D89892B21F0CE01E5
:1053F0000C960E94920C8E899091B01A981710F416
:105400008093B01A90E09C01220F331F220F331FAC
:10541000220F331F820F931FB8018452954E0E94B2
:10542000400CE091121BF091131B9E8986899817FE
:1054300008F4B4CFAB2CB2CF8091AE1A8F5F8093BB
:10544000AE1A22C08091AD1A811101C0A110B09294
:10545000AD1A8091AE1A81508093AE1A8091AE1A27
:1054600081114ECF8091AD1A813031F40E94B71B6B
:1054700081E003C080E001C080E00F900FBE811189
:1054800008C00E94B71B05C08091AD1A8111DFCF03
:10549000E0CFDF91CF911F910F91FF90EF90DF90C0
:1054A000CF90BF90AF909F900895CF92DF92EF92F0
:1054B000FF920F931F93CF93DF9385E590E00E94B7
:1054C00027088C01892B09F4D4C088E290E00E945F
:1054D0002708EC01892BB1F0188F0F8B45E550E0C0
:1054E00065EA70E0C8010E94633B0F89188D0C5A71
:1054F0001F4F89E4898FEFE6F7E0DE015A9626E731
:1055000037E004C0C8010E943109B3C081918D9376
:10551000882319F02E173F07C9F718A21E8A19A26F
:105520001AA27E0182E0E80EF11CC7010E943C0C29
:10553000CE010C960E943C0CD987C88786E090E08B
:105540009D878C87DB8BCA8B1BA21CA21DA21EA26F
:105550001FA240E050E069E171E0C8010E94FD1A1D
:10556000998388830FB6F8940F928091B31A8F5F56
:105570008093B31A8091121B9091131B892BA9F56C
:10558000D093131BC093121B8091B31A8130E1F5A5
:105590000CED1AE10F2EF2E1CF2EFBE1DF2EF02D04
:1055A000C8010E942E0C075F1F4FC016D106C1F71D
:1055B00083ED9AE10E942E0C8AEC9AE10E942E0C57
:1055C0008DEB9AE10E942E0C84EB9AE10E942E0C46
:1055D00083ED9AE19093C91A8093C81A8AEC9AE1F4
:1055E0009093C71A8093C61A0FC08091AF1A811189
:1055F0000BC0E091121BF091131B8689811104C02E
:10560000D093131BC093121B8091AB1A8F5F8093B2
:10561000AB1A8E899091B01A981710F48093B01A33
:1056200090E09C01220F331F220F331F220F331FE4
:10563000820F931FB7018452954E0E94400C0F9029
:105640000FBE8091AF1A882321F08091121B909198
:10565000131BF8948FEF9FEF9093AA1A8093A91AC7
:1056600081E08093AF1A1092B21A1092B11A0E9480
:105670006F1BDF91CF911F910F91FF90EF90DF9003
:10568000CF9008958091A81A8F5F8093A81A0895EB
:105690009F92AF92BF92CF92DF92EF92FF920F93C1
:1056A0001F93CF93DF930FB6F8940F928091A81AAF
:1056B00081508093A81A8091A81A81110DC1809100
:1056C000B31A811133C00BC1D7011596ED91FC912E
:1056D0001697C681D781CE010C960E94920C8E013E
:1056E0000E5F1F4FC8010E94920C8E899091B01AD4
:1056F000981710F48093B01A90E09C01220F331F8A
:10570000220F331F220F331F820F931FB8018452C1
:10571000954E0E94400CE091121BF091131B9E8944
:105720008689981758F0D092AD1A08C00F2EFDEB5D
:10573000EF2EFAE1FF2EF02DDD24D394F7018081C6
:105740008111C2CF8091AE1A882309F4BDC0809127
:10575000AE1A882309F4B8C0912CBB24B394CC248E
:10576000CA94DC2C8091A81A811198C08091B11A3A
:105770009091B21A01969093B21A8093B11AE09068
:10578000B11AF090B21AE114F10489F58091C81AA7
:105790009091C91A2091C61A3091C71A3093C91A2C
:1057A0002093C81A9093C71A8093C61A8091AC1A96
:1057B0008F5F8093AC1AE091C81AF091C91A80816A
:1057C000811105C0D092AA1AC092A91A10C0E09106
:1057D000C81AF091C91A0580F681E02D0680F7817C
:1057E000E02D828193819093AA1A8093A91A8091C7
:1057F000A91A9091AA1AE816F90608F473C0A92C00
:10580000E091C81AF091C91A8081811105C0D09227
:10581000AA1AC092A91A48C0E091C81AF091C91AF0
:105820000580F681E02DC681D7818A819B81E816AB
:10583000F90628F49093AA1A8093A91A35C08E010C
:105840000E5F1F4FC8010E94920C8C899D89892B85
:1058500021F0CE010C960E94920C8E899091B01A84
:10586000981710F48093B01A90E09C01220F331F18
:10587000220F331F220F331F820F931FB801845250
:10588000954E0E94400CE091121BF091131B9E89D3
:105890008689981708F4B4CFAB2CB2CF8091AE1A9A
:1058A0008F5F8093AE1A1EC08091AD1A811101C026
:1058B000A110B092AD1A8091AE1A81508093AE1AA9
:1058C0008091AE1A81114ECF8091AD1A813031F4A2
:1058D0000E94B71B81E003C080E001C080E00F9010
:1058E0000FBE05C08091AD1A8111E3CFE4CFDF91E7
:1058F000CF911F910F91FF90EF90DF90CF90BF90CD
:10590000AF909F9008950FB6F8940F928091B11ABE
:105910009091B21A0F900FBE0895CF92DF92EF923E
:10592000FF920F931F93CF93DF938091A81A811159
:105930009FC08091B11A9091B21A01969093B21AB9
:105940008093B11AE090B11AF090B21AE114F10408
:1059500099F58091C81A9091C91A2091C61A309170
:10596000C71A3093C91A2093C81A9093C71A809304
:10597000C61A8091AC1A8F5F8093AC1AE091C81A56
:10598000F091C91A8081811107C08FEF9FEF90932A
:10599000AA1A8093A91A10C0E091C81AF091C91AE6
:1059A0000580F681E02D0680F781E02D82819381CC
:1059B0009093AA1A8093A91A8091A91A9091AA1A71
:1059C000E816F90610F4D12C59C0D12CCC24C3947C
:1059D000E091C81AF091C91A8081811107C08FEF38
:1059E0009FEF9093AA1A8093A91A48C0E091C81A11
:1059F000F091C91A0580F681E02DC681D7818A8190
:105A00009B81E816F90628F49093AA1A8093A91AA4
:105A100035C08E010E5F1F4FC8010E94920C8C8909
:105A20009D89892B21F0CE010C960E94920C8E89C3
:105A30009091B01A981710F48093B01A90E09C01DE
:105A4000220F331F220F331F220F331F820F931F8A
:105A5000B8018452954E0E94400CE091121BF091C7
:105A6000131B9E898689981708F4B2CFDC2CB0CF1F
:105A70008091AE1A8F5F8093AE1AD12C8091AD1AAF
:105A8000882311F0DD24D3948D2DDF91CF911F91C8
:105A90000F91FF90EF90DF90CF9008958091A81A1A
:105AA000882321F081E08093AD1A08951092AD1AF9
:105AB000A091121BB091131BE091121BF091131BCC
:105AC0002D913C918789908D8217930760F06091AA
:105AD000121B7091131B8091121B9091131B675E18
