S00C0000546573742E7372656378
S1130000F2C0000011C100000FC100000C9483096C
S11300100C9472090C94940907C1000005C10000F6
S113002003C1000001C10000FFC00000FDC00000CA
S1130030FBC00000F9C00000F7C00000F5C00000DC
S1130040F3C00000F1C00000EFC00000EDC00000EC
S1130050EBC00000E9C00000E7C00000E5C00000FC
S1130060E3C00000E1C00000DFC00000DDC000000C
S1130070DBC00000D9C00000D7C00000D5C000001C
S11300800C94420CD1C00000CFC00000CDC00000D1
S1130090CBC00000C9C00000C7C00000C5C000003C
S11300A0C3C00000C1C00000BFC00000BDC000004C
S11300B0BBC00000B9C00000B7C00000B5C000005C
S11300C0B3C00000B1C00000AFC000000C940A1C13
S11300D0ABC00000A9C00000A7C00000A5C000007C
S11300E0A3C000006E616E00696E660000407A1065
S11300F0F35A00A0724E18090010A5D4E80000E8D5
S11301007648170000E40B54020000CA9A3B000032
S113011000E1F505000080969800000040420F00C1
S11301200000A08601000000102700000000E80382
S1130130000000006400000000000A00000000004D
S11301400100000000002C76D888DC674F0823DF0C
S1130150C1DFAE59E1B1B796E5E3E453C63AE651DF
S1130160997696E8E6C28426EB898C9B62ED407C06
S11301706FFCEFBC9C9F40F2BAA56FA5F490055AA2
S11301802AF75C936B6CF9676DC11BFCE0E40D47C7
S1130190FEF520E6B500D0ED902E030094357705EA
S11301A00080841E080000204E0A000000C80C33A2
S11301B03333330F986E12831141EF8D2114893B31
S11301C0E65516CFFEE6DB18D1844B381BF77C1DB1
S11301D0901DA4BBE424203284725E228100C9F104
S11301E024ECA1E53D2711241FBECFEFD1E2DEBFF1
S11301F0CDBF00E00CBF12E0A0E0B2E0E0E9F3E420
S113020000E00BBF02C007900D92AE3EB107D9F7D4
S113021027E1AEEEB2E001C01D92AF39B207E1F7BB
S11302200E944B090C94C621EBCECF93DF936AE373
S113023072E081E00E94840A1092EF021092EE02B2
S1130240C0EFD2E08DE8FE0111928A95E9F781E0D2
S11302500E94440C90937A03809379031882DF916F
S1130260CF910895EF92FF920F931F93CF93DF9353
S113027000D01F92CDB7DEB75C834B8381117BC066
S11302807B0120E04FEF5FEF60E070E08091790345
S113029090917A030E94580F8091F002823051F4B9
S11302A0E114F10439F00B811C81C80101978436F3
S11302B0910550F060E070E08091790390917A03A9
S11302C00E94C00D80E058C00E5F1F4F2091F902BC
S11302D03091FA0280E091E0821B930B0817190712
S11302E008F03FC0209103033091040384E190E0BF
S11302F0821B930B0297A8F18AE290E09A83898388
S113030042E050E0BE016D5F7F4F81EF92E0AED1DD
S11303104B815C81B70181EF92E0A8D101151105F1
S1130320B1F0902F812F0B32110510F09AE280E08A
S113033099838A8342E050E0BE016F5F7F4F8BEF69
S113034092E094D189819A81081B190B51F760E0DE
S113035070E08091790390917A030E94C00D8B81A3
S11303600BC060E070E08091790390917A030E9461
S1130370C00D80E001C080E00F900F900F900F90AF
S1130380DF91CF911F910F91FF90EF900895CF933C
S1130390DF931F921F92CDB7DEB7811114C08091F5
S11303A0F002823091F4662394F081E089836A83B9
S11303B022E030E0AE014F5F5F4F61E080911003B7
S11303C00E948F0A05C080E003C080E001C080E085
S11303D00F900F90DF91CF9108950F931F93CF93B8
S11303E0DF93EA01811141C08091130390911403BA
S11303F0892B99F4DB0111968C91119790E0982F39
S113040088272C91822B90931403809313038536B1
S1130410910558F522976E5F7F4F00EF12E0F801C7
S113042081A192A1AE018B5E9C4F0E94F020D80165
S113043091966D917C9192976C0F7D1F92967C930F
S11304406E93919793968D919C91949768177907E1
S113045061F45796ED91FC91589785E193E01995D5
S1130460F80114A213A212A211A2DF91CF911F913D
S11304700F9108959F92AF92BF92CF92DF92EF9225
S1130480FF920F931F93CF93DF931F92CDB7DEB7E5
S11304908B015A01909110039813B8C09091F00207
S11304A0992309F4B3C0FB01D0800F2EF0EFEF2E97
S11304B0F2E0FF2EF02D13C0E091EE02F091EF0276
S11304C0309759F0482F50E060E070E000E010E011
S11304D023E0CF010E94111AAAC0E12CF12C20E0E4
S11304E04FEF5FEF60E070E0F701E757FF4F808167
S11304F091810E94580FF7018081823030F0A1145D
S1130500B10419F00115110551F4F701E757FF4F34
S113051060E070E0808191810E94C00D88C08330CA
S113052021F5F3E0DF1221C0F701E557FF4F808189
S11305309181009781F000E010E022E040E050E07B
S1130540BA010E94111AF701E557FF4F1182108278
S113055060E080E01CDFF701E757FF4F60E070E0E8
S1130560808191810E94C00D62C0F801C180DD20AC
S113057009F452C0F4E0DF1213C053C0A501425085
S11305805109B8016E5F7F4F80E027DFF701828D4C
S11305908F5F8F77828FF701628D80E0F8DE2CC049
S11305A0F1E0DF1229C0F701838DFC2DF81B8F2F9A
S11305B08F77982E09F1D12C57018BE0A80EB11C2E
S11305C087010F5F1F4F42E050E0BE016F5F7F4F16
S11305D0C501FBD0498150E060E070E0C801F5D06E
S11305E0D3949D10F0CFF701C38E148E168E158E02
S11305F0818DC81201C0178EF701E757FF4F60E0E5
S113060070E0808191810E94C00D11C0F801D080FA
S1130610F2E0DF120CC050CFF701828DC812BBCFBD
S1130620ADCFF701828DC81609F4B0CFB4CF0F90C7
S1130630DF91CF911F910F91FF90EF90DF90CF90BA
S1130640BF90AF909F900895FC016115710561F012
S113065071836083538342831186108617821682C6
S11306601582148281E0089580E00895EF92FF924C
S11306700F931F93CF93DF93EC012A813B818885ED
S11306809985F901E81BF90BE417F50708F449C04B
S11306908A017B018C819D81A901481B590B041798
S11306A01507A8F428813981A801820F931F0E949D
S11306B0F0208C819D81800F911F9D838C832A81E2
S11306C03B818217930721F51D821C8221C028815A
S11306D03981820F931F0E94F0208C819D816A8151
S11306E07B81AC01461B570B400F511F681B790BD4
S11306F06E0D7F1D888199810E94F0208C819D81DF
S11307002A813B81821B930B800F911F9D838C83D5
S113071048855985040F151F1987088781E090E0E3
S113072002C080E090E0DF91CF911F910F91FF9084
S1130730EF9008950F931F93CF93DF93FC0121153E
S11307403105C9F1A681B78184819581A817B907BC
S1130750A9F1C62FD72F80E090E007C0A681B7810A
S113076064817581A617B70759F160817181A60F5D
S1130770B71F5C918E015883668177816F5F7F4FCD
S113078077836683A085B1851197B187A087A281FD
S1130790B3816A177B0711F4178216822196D80158
S11307A05C91541302C001960BC0019628173907B7
S11307B0A9F6C90105C080E090E002C080E090E0A5
S11307C0DF91CF911F910F910895EF92FF920F93B4
S11307D01F93CF93DF93EC017B01088519854017A4
S11307E0510708F48A018E819F814A815B81481BED
S11307F0590B40175107C8F0E114F10441F0688126
S11308007981680F791FA801C7010E94F0208E81A9
S11308109F81800F911F9F838E832A813B81821742
S1130820930741F51F821E8225C0E114F104C1F033
S113083068817981680F791FC7010E94F0204E8179
S11308405F812A813B81C901841B950B421B530B99
S1130850400F511F688179818E0D9F1D0E94F020E9
S11308608E819F812A813B81821B930B800F911F74
S11308709F838E8388859985801B910B99878887B0
S1130880C801DF91CF911F910F91FF90EF900895D0
S1130890EF92FF920F931F93CF93DF937C01680F26
S11308A0791FFC013196009719F04115510521F487
S11308B060E070E081E04BC02115310559F1E61785
S11308C0F70760F58A01020F131FDA01EC0191E0CA
S11308D02FEF04C0FA01E617F70720F53D91311117
S11308E00AC09883CF010196A017B107E8F4EF017D
S11308F0FC0191E0F0CFAF014F5F5F4F30839F5F0A
S1130900A017B107B0F49F3F29F728833296EA0174
S113091091E0E1CFEC0180E091E00DC0EC0182E0D8
S113092091E009C082E007C0EF01FC0180E091E0A2
S113093002C0FA0180E0C617D70718F49883BF01F4
S113094001C082E09B012E193F09622F732FDF91B2
S1130950CF911F910F91FF90EF900895AF92BF92A6
S1130960CF92DF92EF92FF920F931F93CF93DF9377
S11309707C01DA01009711F0109721F460E070E037
S113098081E05FC02115310509F44BC06A01C20E34
S1130990D31E5C01A60EB71E8C0150E001C08F016E
S11309A0ED0121967C91711103C05460F8013DC0A2
S11309B07150C6018C1B9D0B272F30E082179307C3
S11309C010F4782F5860C501801B910B272F30E05D
S11309D08217930710F4782F5260772361F1DE01B8
S11309E0F801972F3D91311101C05460319391501A
S11309F0C9F7EFEFE70FF0E03196DE01AE0FBF1F4E
S1130A00E00FF11FAC15BD0580F47E3F41F2EA15FD
S1130A10FB0510F0526009C08F010F5F1F4F108259
S1130A20BFCFFC0150E001C0F801EE19FF096E2FA1
S1130A307F2F852F06C0CC15DD05B0F7F801DE0148
S1130A40E6CFDF91CF911F910F91FF90EF90DF9050
S1130A50CF90BF90AF900895862798E02CE880FF50
S1130A6003C08695822701C086959150C1F70895E9
S1130A700F931F93CF93DF93662359F08C01EC01FE
S1130A80060F111D80E06991E7DF0C171D07D9F7E8
S1130A9001C080E0DF91CF911F910F91089580B341
S1130AA080BBECE7F0E08081806C8083EAE7F0E0D3
S1130AB08081806880838081846080830895EF9240
S1130AC0FF920F931F93CF93DF93EC010E941215B3
S1130AD08091830390918403892B41F5E5E8F3E049
S1130AE0A9E8B3E0B183A08313821282E5E8F5E1BB
S1130AF0F0938403E09383031382128211821082A1
S1130B008CEF91E113969C938E931297ED93FC9343
S1130B109093800380937F03909382038093810357
S1130B2080E090E890937E0380937D0380917D0321
S1130B3090917E038C239D23892B09F0B2C02097CA
S1130B4009F4B2C0AE014C5F5F4F09F4B0C08091AC
S1130B508103909182038417950708F4ABC0E09158
S1130B608503F0918603A5E8B3E002C0DF01F90133
S1130B70228133812417350728F4208131812115FE
S1130B803105A1F76091830370918403E617F70799
S1130B9009F493C0CD91DC9111977E0184E0E80EB5
S1130BA0F11C808191818D939C9382819381841B1C
S1130BB0950B8930910508F452C09F01240F351F0D
S1130BC0D90113969C938E93129753834283A5E87D
S1130BD0B3E001C0DC018D919C91119782179307BA
S1130BE0C8F312964D915C9113978D01040F151F54
S1130BF02017310751F4E9012A813B81420F531F29
S1130C0013965C934E9312979D01E9014A815B818F
S1130C108901040F151F80179107C9F46017710724
S1130C2091F0E8018A819B81480F591FE9015B8398
S1130C304A838D919C911197EC0188819981E901F6
S1130C409983888307C0E9017983688303C0E90134
S1130C5099838883A217B30711F02D933C932281C3
S1130C6033818091810390918203821B930B909333
S1130C7082038093810340917F0350918003841702
S1130C80950720F49093800380937F0380917D03E4
S1130C9090917E03282B392B338322831182108277
S1130CA00EC0E12CF12C0BC0E12CF12C08C0E12C7E
S1130CB0F12C05C0E12CF12C02C0E12CF12C0E9496
S1130CC01815C701DF91CF911F910F91FF90EF90FD
S1130CD00895CF93DF93009709F468C0FC0134971B
S1130CE02281338140917D0350917E03B9016423B5
S1130CF07523672B09F45AC060817181672B09F051
S1130D0055C0EF0140955095242335233383228326
S1130D100E9412154A815B81809181039091820324
S1130D20840F951F9093820380938103E5E8F3E099
S1130D3001C0FC01808191818C179D07D0F3228131
S1130D403381BF01620F731FC617D70729F4240F1D
S1130D50351F33832283EF012A813B81DE01A20FF9
S1130D60B31F8A179B07C9F480918303909184036E
S1130D70A817B90779F012968D919C911397280FB3
S1130D80391F3B832A83A081B1818D919C919983E2
S1130D90888305C0B983A88302C099838883EC172C
S1130DA0FD0711F0D183C0830E941815DF91CF9104
S1130DB00895CF93DF93EC012898862F80680E94D2
S1130DC0731280E00E947312289A8F3F11F495E009
S1130DD001C090E08883892FDF91CF910895CF934C
S1130DE0DF931F921F92CDB7DEB7ECECF6E181E002
S1130DF0808324EF31E03283218322E836E0348398
S1130E00238320E931E03683258317821086818786
S1130E10828720E130E0348723872DE030E0368775
S1130E20258722E330E0308B2787118A128A838B4F
S1130E30848B88EB9BE0968B858B8AE090E0908F87
S1130E40878B118E1092E7161092E6161092E9160F
S1130E501092E8160E946512209A289A198220E1BD
S1130E6037E289818F5F898321503109D1F76FE09F
S1130E70CE0102969EDF8A818936C9F780E00F9001
S1130E800F90DF91CF910895CF93C62F28980E9499
S1130E9073128C2F0E947312289A80E0CF910895C8
S1130EA01F93CF93DF931F921F92CDB7DEB71982A2
S1130EB096DF182F19828091D516813009F083C0EE
S1130EC08091DB169091DC168436910541F0883CC4
S1130ED0910541F0C29741F483E0898305C082E023
S1130EE0898302C081E089838091D7169091D816B6
S1130EF08430910531F08830910539F0029749F436
S1130F000BC089818860898307C089818C6089834B
S1130F1003C08981846089838091D9169091DA16FF
S1130F20803A21E09207C1F170F48A31910521F1F0
S1130F3018F40D97E9F028C08433910509F1803D38
S1130F40910531F121C082302DE0920789F140F4FE
S1130F50813423E0920721F18C37964029F114C0A3
S1130F6084302AE1920741F18231944349F10CC063
S1130F7089818061898327C089818062898323C0B4
S1130F808981806389831FC08981806489831BC0B0
S1130F9089818065898317C089818066898313C0AC
S1130FA08981806789830FC08981806889830BC0A8
S1130FB089818069898307C08981806A898303C0A4
S1130FC08981806B8983698180E15EDF63E1CE0181
S1130FD00196EFDE89818F7789839091D6169130BF
S1130FE011F480688983698183E14EDF19828091DD
S1130FF0CC16813009F05BC08091CD169091CE164D
S1131000853F9105C1F020F48D37910549F011C059
S1131010843F21E0920739F0883E934039F009C0BB
S113102082E0898308C084E0898305C088E08983DD
S113103002C08CE089838091CF169091D016803DB8
S1131040910531F148F48A319105B1F08433910569
S1131050B9F00D97C9F40CC0813423E0920701F173
S11310608C3726E0920701F1803A914069F414C06C
S11310708981806189831BC089818062898317C0CB
S113108089818063898313C08981806489830FC0C7
S11310908981806589830BC089818066898307C0C3
S11310A089818067898303C0898180688983698194
S11310B081E1EADE6FE0CE0102967BDE812F0F90A4
S11310C00F90DF91CF911F910895EAE0F1E08081C4
S11310D08760808308958230910531F4EBE0F1E07C
S11310E080818460808308958130910531F4EBE040
S11310F0F1E08081826080830895892B29F4EBE0FC
S1131100F1E080818160808308958230910531F41B
S1131110EBE0F1E080818B7F80830895813091053D
S113112031F4EBE0F1E080818D7F80830895892B99
S113113029F4EBE0F1E080818E7F80830895823092
S1131140910539F4EBE0F1E0908184E08927808314
S113115008958130910539F4EBE0F1E0908182E06B
S1131160892780830895892B31F4EBE0F1E09081A5
S113117081E0892780830895FC010396928381830B
S11311802FEF3FEF34832383968385839087878370
S113119010820895FC01118610860895CF93DF9381
S11311A09C01FB01DC011196CD91DC911297D38354
S11311B0C2838C819D81958384838C819D81DC0194
S11311C013967C936E9312977D836C83318720876B
S11311D0F90180818F5F8083DF91CF910895CF9350
S11311E0DF93EB01488159814F3F2FEF520721F4E0
S11311F0FC01A781B0850DC0DC01139601C0DF019D
S11312001296ED91FC911397208131814217530777
S1131210B0F71296ED91FC911397FB83EA83D58383
S1131220C483BD83AC831396DC93CE9312979987C2
S11312308887FC0120812F5F2083DF91CF9108955F
S1131240CF93DF93FC01A085B185C281D3818481D2
S113125095819D838C83C481D581828193819B8375
S11312608A8311968D919C911297E817F90731F4AE
S11312708481958112969C938E9311971186108682
S11312808C9181508C93DF91CF910895F89480E0F4
S113129090E055DFFCCF19DF80E090E01CDF0E9476
S11312A08B1B2DD10E9415018CEE90E10E94DB1165
S11312B080E0F9D7F4DB7FD082E090E00CDFF0DD52
S11312C082E090E022DF80E090E01FDF80E0D3D76F
S11312D02FEF83E294EF215080409040E1F700C06B
S11312E00000F4CF1F920F920FB60F9211248F9328
S11312F080918B158F5F80938B158F910F900FBE0C
S11313000F901F9018951F920F920FB60F921124F1
S11313108F9380918C158F5F80938C158F910F9094
S11313200FBE0F901F9018951F920F920FB60F9239
S113133011240BB60F922F933F934F935F936F93A8
S11313407F938F939F93AF93BF93EF93FF9364998E
S113135004C082E090E0BFDE14C010928A1510929F
S1131360891582E090E0D1DE81E090E0CEDE80E07D
S113137090E0CBDE60E070E08091F2169091F3167D
S11313806CD560E070E08091EC169091ED1665D517
S1131390FF91EF91BF91AF919F918F917F916F9149
S11313A05F914F913F912F910F900BBE0F900FBE05
S11313B00F901F901895279A84B1806384B9269A58
S11313C0E1E0F1E08081806680832F982E98E2E04E
S11313D0F1E080818F79808385B18F7C85B98AB172
S11313E08AB98BB18C608BB96C988DB38DBBE9E6EF
S11313F0F0E08081806F8083EAE6F0E080818160A4
S113140080838CE18CBB8DB38C618DBB84B580688B
S113141084BDE0E8F0E080818062808385B585BD8D
S113142084B5836084BDA1E8B0E08C9188608C931E
S113143080818160808385B5826085BD8C91826066
S11314408C9380818083E0EBF0E0808180838081D5
S11314508083E0EAF0E0808180830895EF92FF9238
S11314600F931F93CF93DF937C018B01CB0127DB79
S1131470EC01980121503109A701B8016FDA8823E2
S113148041F080918E158F5F80938E15CE0121DC03
S11314902FC0862F972F8C01FE01E80FF91F31977B
S11314A0F0806FEF680FCE01E3DAF81641F0809117
S11314B08D158F5F80938D15CE010BDC19C088814B
S11314C0833019F0CE0105DC13C0A8014450510942
S11314D0BE016D5F7F4FEA81F0E0EE0FFF1FEC5E0F
S11314E0F84E0190F081E02D89811995CE01F1DB50
S11314F0DF91CF911F910F91FF90EF9008958EE2AD
S11315009AE00C94051C0895823040F4E82FF0E032
S1131510EE0FFF1FEC5EF84E7183608308958F9287
S11315209F92AF92BF92CF92DF92EF92FF920F936E
S11315301F93CF93DF93882E962E5A018901690158
S113154084E0C80ED11CC601BADAEC01C8010696C3
S1131550B6DA7C01209711F0892B31F4CE01B9DB86
S1131560C701B7DB80E036C0888283E089839A8232
S1131570A801B501CE0103960E94F0205801E3E0D2
S1131580AE0EB11CAC0EBD1E63E0600FCE0170DA6E
S1131590F5018083B8016B5F7F4F9601AE01C701EF
S11315A077D9882331F0CE0194DBC70192DB80E048
S11315B011C0862F972FF701E80FF91F1082BC0185
S11315C06F5F7F4FC7010E94E11BCE0182DBC70121
S11315D080DB81E0DF91CF911F910F91FF90EF901D
S11315E0DF90CF90BF90AF909F908F90089531E19E
S11315F0FC013083319722E220833197A3E3A08357
S113160031976083319770833197108231971082BC
S1131610319760E860833197108231971082319757
S11316201082319762E06083319763E06083319781
S113163064E06083319765E06083319766E060839E
S1131640319767E06083319768E06083319769E0A0
S11316506083319760E1608331973083319732E161
S11316603083319733E13083319734E130833197DC
S113167035E13083319736E13083319737E1308378
S1131680319738E13083319739E13083319730E253
S11316903083319731E2308331972083319723E2CD
S11316A020833197408331975083319726E22083FA
S11316B0319727E22083319728E22083319729E26A
S11316C02083319720E32083319721E32083899776
S11316D008950F920FB6F8940F920BB60F920CB6B2
S11316E00F921F9211242F923F924F925F926F920A
S11316F07F928F929F92AF92BF92CF92DF92EF929E
S1131700FF920F931F932F933F934F935F936F9386
S11317107F938F939F93AF93BF93CF93DF93EF9375
S1131720FF93A0916216B09163160DB60D920EB69A
S11317300D920E941417A0916216B0916316CD9178
S1131740CDBFDD91DEBFFF91EF91DF91CF91BF91CE
S1131750AF919F918F917F916F915F914F913F9145
S11317602F911F910F91FF90EF90DF90CF90BF903A
S1131770AF909F908F907F906F905F904F903F902D
S11317802F901F900F900CBE0F900BBE0F900FBEAA
S11317900F9008950F920FB6F8940F920BB60F9214
S11317A00CB60F921F9211242F923F924F925F9288
S11317B06F927F928F929F92AF92BF92CF92DF925D
S11317C0EF92FF920F931F932F933F934F935F9347
S11317D06F937F938F939F93AF93BF93CF93DF9335
S11317E0EF93FF93A0916216B09163160DB60D921C
S11317F00EB60D9213BE80912A1790912B17019764
S113180090932B1780932A17892B41F480912817E2
S11318109091291790932B1780932A170E9453169F
S113182081110E941417A0916216B0916316CD9194
S1131830CDBFDD91DEBFFF91EF91DF91CF91BF91DD
S1131840AF919F918F917F916F915F914F913F9154
S11318502F911F910F91FF90EF90DF90CF90BF9049
S1131860AF909F908F907F906F905F904F903F903C
S11318702F901F900F900CBE0F900BBE0F900FBEB9
S11318800F90089587DF18959F92AF92BF92CF92E1
S1131890DF92EF92FF920F931F93CF93DF9300D0C9
S11318A01F921F92CDB7DEB78FE190E008D98C016B
S11318B0009709F453C1FC01138212821182108231
S11318C01582148217821682128E81E0838F148E01
S11318D08FEF858F868F7801F8E0EF0EF11CC7013A
S11318E04BDC680181E1C80ED11CC60145DC1D82B8
S11318F01C82A12C99249394BB24BA940FB6F89417
S11319000F92F801928D838D9817F0F48081918164
S1131910892B09F01AC1828193810E94F018F80181
S113192013821282928D9F5F928F9189992339F04D
S1131930C6010E94F717813021F4CBDE02C0811169
S1131940C8DE0F900FBE0AC18C819D81892B19F4CA
S11319500F900FBE03C1A11005C0CE0101960E94D5
S11319603F18A92C0F900FBE0E9412150FB6F894C1
S11319700F92F801858D8F3F09F4158EF801868D3D
S11319808F3F09F4168E0F900FBEBE016C5F7F4F20
S1131990CE0101960E944A18811194C00FB6F894A2
S11319A00F92F801928D838D0F900FBE981349C04A
S11319B06C817D81C7010E949C170FB6F8940F9229
S11319C0F801868D1816ACF48189811105C011C007
S11319D0F8018189882369F0C6010E94F7178111F3
S11319E00E948518F801868D8150868F868D181681
S11319F07CF3F801B68E0F900FBE0FB6F8940F92D9
S1131A00858D1816ACF48085811105C011C0F801CC
S1131A108085882369F0C7010E94F71781110E940D
S1131A208518F801858D8150858F858D18167CF376
S1131A30F801B58E0F900FBEFBD781115FCF49DE41
S1131A405DCF0FB6F8940F92F801868D1816ACF49A
S1131A508189811105C011C0F8018189882369F049
S1131A60C6010E94F71781110E948518F801868D1E
S1131A708150868F868D18167CF3F801B68E0F90F0
S1131A800FBE0FB6F8940F92858D1816ACF48085AE
S1131A90811105C011C0F8018085882369F0C70150
S1131AA00E94F71781110E948518F801858D8150D5
S1131AB0858F858D18167CF3F801B58E0F900FBEB7
S1131AC0B7D71CCF0FB6F8940F92F801868D18166D
S1131AD0ACF48189811105C011C0F8018189882382
S1131AE069F0C6010E94F71781110E948518F80158
S1131AF0868D8150868F868D18167CF38FEFF801C2
S1131B00868F0F900FBE0FB6F8940F92858D18161E
S1131B10ACF48085811105C011C0F801808588234B
S1131B2069F0C7010E94F71781110E948518F80116
S1131B30858D8150858F858D18167CF38FEFF80184
S1131B40858F0F900FBE74D709C0F801828D8F5F07
S1131B50828F8189882309F4F4CEEACEC8010F90DC
S1131B600F900F900F900F90DF91CF911F910F91D5
S1131B70FF90EF90DF90CF90BF90AF909F9008952B
S1131B809F92AF92BF92CF92DF92EF92FF920F9308
S1131B901F93CF93DF9300D01F921F92CDB7DEB770
S1131BA08C017D836C83A12C99249394BB24BA94D7
S1131BB07C0188E0E80EF11C6801E1E1CE0ED11C45
S1131BC00FB6F8940F92F801928D838D981700F553
S1131BD080819181892B09F027C1828193810E94A0
S1131BE0F018F80113821282928D9F5F928F91896F
S1131BF0992341F0C80141960E94F717813021F4DE
S1131C0068DD02C0811165DD0F900FBE81E014C153
S1131C108C819D81892B21F40F900FBE80E00CC133
S1131C20A11005C0CE0101960E943F18A92C0F9067
S1131C300FBEF8D60FB6F8940F92F801858D8F3F3A
S1131C4009F4158EF801868D8F3F09F4168E0F90D6
S1131C500FBEBE016C5F7F4FCE0101960E944A18F1
S1131C60811194C00FB6F8940F92F801928D838D70
S1131C700F900FBE981349C06C817D81C7010E94EB
S1131C809C170FB6F8940F92F801868D1816ACF4D1
S1131C908189811105C011C0F8018189882369F007
S1131CA0C6010E94F71781110E948518F801868DDC
S1131CB08150868F868D18167CF3F801B68E0F90AE
S1131CC00FBE0FB6F8940F92858D1816ACF480856C
S1131CD0811105C011C0F8018085882369F0C7010E
S1131CE00E94F71781110E948518F801858D815093
S1131CF0858F858D18167CF3F801B58E0F900FBE75
S1131D0097D681115DCFE5DC5BCF0FB6F8940F92C7
S1131D10F801868D1816ACF48189811105C011C0B3
S1131D20F8018189882369F0C6010E94F71781119F
S1131D300E948518F801868D8150868F868D18162D
S1131D407CF3F801B68E0F900FBE0FB6F8940F9285
S1131D50858D1816ACF48085811105C011C0F80179
S1131D608085882369F0C7010E94F71781110E94BA
S1131D708518F801858D8150858F858D18167CF323
S1131D80F801B58E0F900FBE53D61ACF0FB6F89444
S1131D900F92F801868D1816D4F48189811106C03A
S1131DA016C0F8018189811105C011C07801F1E1E3
S1131DB0EF0EF11CC7010E94F71781110E948518CC
S1131DC0F801868D8150868F868D181654F38FEF17
S1131DD0F801868F0F900FBE0FB6F8940F92858D81
S1131DE01816D4F48085811106C016C0F8018085C8
S1131DF0811105C011C07801F8E0EF0EF11CC70194
S1131E000E94F71781110E948518F801858D815071
S1131E10858F858D181654F38FEFF801858F0F90F9
S1131E200FBE06D680E008C0F801828D8F5F828FD6
S1131E3081898111DFCEE8CE0F900F900F900F9023
S1131E400F90DF91CF911F910F91FF90EF90DF9052
S1131E50CF90BF90AF909F900895CF93DF93FC01F4
S1131E60928D838D9817D0F4828D8F5F828F868DAB
S1131E708F3F79F48189882399F0EB01CF01419652
S1131E800E94F717882371F0209771F081E088830E
S1131E900CC0868D8F5F868F81E007C080E005C00F
S1131EA081E003C081E001C081E0DF91CF9108951A
S1131EB06F927F928F929F92AF92BF92CF92DF9256
S1131EC0EF92FF920F931F93CF93DF9300D01F9253
S1131ED01F92CDB7DEB78C015B015D834C83622E0C
S1131EE0812C7724739499249A946C0188E0C80E09
S1131EF0D11C7801E1E1EE0EF11C0FB6F8940F92BB
S1131F00F801828D882309F445C0E680F780448D6A
S1131F104423A9F050E0C701840F951F978386835B
S1131F20228133818217930720F0808191819783E6
S1131F308683F80166817781C5010E94F0206110D3
S1131F4019C0F801828D8150828F80819181892B03
S1131F5029F40E943019F80193838283F801808563
S1131F608823A1F0C80108960E94F717813071F404
S1131F70B0DB0CC0F801F782E6828189882331F056
S1131F80C80141960E94F7178111A3DB0F900FBE81
S1131F9081E00EC18C819D81892B21F40F900FBEAD
S1131FA080E006C1811005C0CE0101960E943F1851
S1131FB0872C0F900FBE36D50FB6F8940F92F80108
S1131FC0858D8F3F09F4158EF801868D8F3F09F4B6
S1131FD0168E0F900FBEBE016C5F7F4FCE0101962F
S1131FE00E944A1881119BC00FB6F8940F92F80111
S1131FF0828D0F900FBE811153C080819181892BF6
S113200049F40FB6F8940F92828193810E948E183E
S11320100F900FBE6C817D81C7018ED70FB6F894E7
S11320200F92F801868D1816A4F48189811105C0D8
S113203010C0F8018189882361F0C701D8D78111C4
S11320400E948518F801868D8150868F868D18161A
S113205084F3F801968E0F900FBE0FB6F8940F928A
S1132060858D1816A4F48085811105C010C0F8016F
S11320708085882361F0C601BAD781110E94851832
S1132080F801858D8150858F858D181684F3F801AC
S1132090958E0F900FBECCD481112FCF1ADB2DCF8C
S11320A00FB6F8940F92F801868D1816A4F481895E
S11320B0811105C010C0F8018189882361F0C7012E
S11320C096D781110E948518F801868D8150868FDC
S11320D0868D181684F3F801968E0F900FBE0FB6F6
S11320E0F8940F92858D1816A4F48085811105C08B
S11320F010C0F8018085882361F0C60178D781116A
S11321000E948518F801858D8150858F858D18165C
S113211084F3F801958E0F900FBE8AD4EECE0FB6DD
S1132120F8940F92F801868D1816C4F481898111F0
S113213006C014C0F8018189811105C00FC078015F
S1132140F1E1EF0EF11CC70152D78111DED7F8017E
S1132150868D8150868F868D181664F38FEFF80173
S1132160868F0F900FBE0FB6F8940F92858D1816B8
S1132170C4F48085811106C014C0F80180858111E2
S113218005C00FC07801F8E0EF0EF11CC7012FD78E
S11321908111BBD7F801858D8150858F858D1816E7
S11321A064F38FEFF801858F0F900FBE41D480E068
S11321B00F900F900F900F900F90DF91CF911F9180
S11321C00F91FF90EF90DF90CF90BF90AF909F90D2
S11321D08F907F906F900895AB01009711F4109247
S11321E08A15BC0186EF96E10E94F02060E070E061
S11321F08091F2169091F316C3CC0895CF93DF9398
S1132200CDB7DEB7C456D1090FB6F894DEBF0FBE02
S1132210CDBFAE0146595F4FFA0161917191AF0193
S11322208AE08983CE0102960E9440218823C9F066
S113223020910A02222361F09927AC014F5F5F4F7E
S1132240BE016F5F7F4F80912C170E94320109C03D
S11322509927AC014F5F5F4FBE016F5F7F4F80E0F6
S1132260B6D0CC59DF4F0FB6F894DEBF0FBECDBF4A
S1132270DF91CF910895CF93C82F682F70E08BE042
S113228092E0BCDFCA3508F0CAE5EC2FF0E0EE0FAF
S1132290FF1FE15EFD4F808191819093AB0080939D
S11322A0AA00CF910895A0EAB0E09C9190629C931B
S11322B0E1EAF0E09081986190839C9192609C9314
S11322C09081926090832FE33CE93093A7002093A0
S11322D0A600E1E0F1E0908190619083CCCF089575
S11322E0EF92FF920F931F93CF93DF9390919015EA
S11322F09F3F11F0981358C0FB018081811105C0E4
S113230010929215109291150CC090919315891703
S113231041F0EFE8F5E11482138212828FEF81839A
S113232043C080919115909192159C0122503109DE
S1132330240F351F2536310540F0EFE8F5E113820F
S1132340128214828FEF81832FC08A01EB010F2E3A
S1132350FFE8EF2EF5E1FF2EF02DF70124812F5F2A
S11323602483425051096E5F7F4F8C569A4E0E94CF
S1132370F020F7014281538142505109BA01600FA4
S1132380711F738362839881898198130DC0E091D2
S11323902D17F0912E1784E995E11995F701148210
S11323A0138212828FEF8183DF91CF911F910F915E
S11323B0FF90EF90089590932E1780932D1760E768
S11323C071E180E0A1D88FEF8093901508955F921A
S11323D06F927F928F929F92AF92BF92CF92DF9231
S11323E0EF92FF920F931F93CF93DF93582E5B01CD
S11323F08A018CE290E00E945F057C019801369589
S11324002795ADE0B3EC0E94FE1F929582958F70E4
S113241089279F7089274AE2489F9001499F300D80
S1132420112441E00217130709F440E0980136959E
S11324302795ADE0B3EC0E94FE1F929582958F70B4
S113244089279F708927840F0115110551F190E0A8
S1132450C12CD12C66246A94680E470182E0880E50
S1132460911CE8010B32110510F0CAE2D0E0772488
S11324707394790EF70190836182B5016C0D7D1D13
S1132480AE01C4010E94F0209E012E5F3F4FA701C0
S113249060E0852D44D8CC0EDD1E0C1B1D0B972D42
S11324A001F7C7010E94690681E0DF91CF911F9176
S11324B00F91FF90EF90DF90CF90BF90AF909F90DF
S11324C08F907F906F905F90089584B1876084B9F6
S11324D023988CB581608CBD8CB58C658CBD8CB516
S11324E08F7D8CBD08958EBD00000DB407FEFDCF19
S11324F08EB508954F925F926F927F928F929F92C2
S1132500AF92BF92CF92DF92EF92FF920F931F93FD
S1132510CF93DF933C015B014A012901C114D1042B
S113252039F4CA010E945F056C01892B09F4E3C0E8
S113253088E290E00E945F05EC01892B71F0D88E4F
S1132540CF8A81E0881A9108C80CD91CD5018C91D6
S1132550898F8C91811105C018C0C6010E9469063B
S1132560CAC0AE01465E5F4FF5013196B8E0AB0ECE
S1132570B11CCF012191DA012D93AD01DC018C91C5
S1132580882319F0AE16BF06A1F718A2102F063043
S113259008F015E01E8B19A31AA25E01B2E0AB0E7F
S11325A0B11CC5010E94CA08CE010C960E94CA083B
S11325B0D987C88786E090E0811B91099D878C8725
S11325C0DB8BCA8B1BA21CA21DA21EA21FA2A201EE
S11325D0B301C6010CD899838883E114F10419F07E
S11325E0F701D183C0830FB6F8940F92809103163C
S11325F08F5F809303168091621690916316892BE6
S1132600D9F5D0936316C093621680910316813076
S113261009F041C00F2EFCE2EF2EF6E1FF2EF02D63
S11326200F2EF2E6CF2EF6E1DF2EF02DC7010E9429
S1132630BC08F9E0EF0EF11CEC14FD04B9F783E2D9
S113264096E10E94BC088AE196E10E94BC088DE0F4
S113265096E10E94BC0884E096E10E94BC0883E2F3
S113266096E190931916809318168AE196E1909357
S11326701716809316160FC08091FF1581110BC099
S1132680E0916216F09163168689081720F0D093C2
S11326906316C09362168091FB158F5F8093FB15C0
S11326A08E8990910016981710F48093001690E08C
S11326B09C01220F331F220F331F220F331F820F5F
S11326C0931FB501845D994E0E94CE080F900FBEF2
S11326D08091FF15882359F0E0916216F0916316FA
S11326E08689801730F40E94690B81E005C081E07F
S11326F003C081E001C08FEFDF91CF911F910F9153
S1132700FF90EF90DF90CF90BF90AF909F908F900D
S11327107F906F905F904F9008959F92AF92BF9279
S1132720CF92DF92EF92FF920F931F93CF93DF9399
S1132730009709F463C12091F8152F5F2093F815D1
S1132740C0910116D0910216C80FD91F809162164C
S11327509091631602960E942009E0916216F0910E
S11327606316D383C2838091011690910216C81711
S1132770D90768F4609162167091631680911616F9
S1132780909117166E5F7F4F0E94EF0817C06091FB
S113279062167091631680911816909119166E5FE7
S11327A07F4F0E94EF088091F9159091FA15C81790
S11327B0D90720F4D093FA15C093F9150FB6F894FD
S11327C00F928091F81581508093F8158091F81537
S11327D081110DC180910316811133C00BC1D70142
S11327E01596ED91FC911697C681D781CE010C9672
S11327F00E9420098E010E5F1F4FC8010E9420090C
S11328008E8990910016981710F48093001690E02A
S11328109C01220F331F220F331F220F331F820FFD
S1132820931FB801845D994E0E94CE08E091621610
S1132830F09163169E898689981758F0D092FD15F9
S113284008C00F2EFDE0EF2EF6E1FF2EF02DDD2463
S1132850D394F70180818111C2CF8091FE15882322
S113286009F4BDC08091FE15882309F4B8C0912CE9
S1132870BB24B394CC24CA94DC2C8091F815811128
S113288098C08091011690910216019690930216B9
S113289080930116E0900116F0900216E114F10401
S11328A089F5809118169091191620911616309179
S11328B017163093191620931816909317168093B1
S11328C016168091FC158F5F8093FC15E091181605
S11328D0F09119168081811105C0D092FA15C09229
S11328E0F91510C0E0911816F09119160580F681BB
S11328F0E02D0680F781E02D828193819093FA1573
S11329008093F9158091F9159091FA15E816F90656
S113291008F477C0A92CE0911816F091191680815B
S1132920811105C0D092FA15C092F91548C0E09102
S11329301816F09119160580F681E02DC681D7810D
S11329408A819B81E816F90628F49093FA158093FE
S1132950F91535C08E010E5F1F4FC8010E94200972
S11329608C899D89892B21F0CE010C960E94200927
S11329708E8990910016981710F48093001690E0B9
S11329809C01220F331F220F331F220F331F820F8C
S1132990931FB801845D994E0E94CE08E09162169F
S11329A0F09163169E898689981708F4B4CFAB2CEE
S11329B0B2CF8091FE158F5F8093FE1522C0809167
S11329C0FD15811101C0A110B092FD158091FE1575
S11329D081508093FE158091FE1581114ECF809118
S11329E0FD15813031F40E94690B81E003C080E061
S11329F001C080E00F900FBE811108C00E94690BD6
S1132A0005C08091FD158111DFCFE0CFDF91CF911B
S1132A101F910F91FF90EF90DF90CF90BF90AF90F8
S1132A209F9008958091F8158F5F8093F81508950D
S1132A309F92AF92BF92CF92DF92EF92FF920F9349
S1132A401F93CF93DF930FB6F8940F928091F815EC
S1132A5081508093F8158091F81581110DC18091F2
S1132A600316811133C00BC1D7011596ED91FC916A
S1132A701697C681D781CE010C960E9420098E013B
S1132A800E5F1F4FC8010E9420098E899091001685
S1132A90981710F48093001690E09C01220F331FC6
S1132AA0220F331F220F331F820F931FB801845D3F
S1132AB0994E0E94CE08E0916216F09163169E89A9
S1132AC08689981758F0D092FD1508C00F2EFDE0A6
S1132AD0EF2EF6E1FF2EF02DDD24D394F701808153
S1132AE08111C2CF8091FE15882309F4BDC0809165
S1132AF0FE15882309F4B8C0912CBB24B394CC24CC
S1132B00CA94DC2C8091F815811198C0809101162B
S1132B109091021601969093021680930116E0900C
S1132B200116F0900216E114F10489F5809118164B
S1132B309091191620911616309117163093191684
S1132B402093181690931716809316168091FC15EF
S1132B508F5F8093FC15E0911816F091191680810F
S1132B60811105C0D092FA15C092F91510C0E091F8
S1132B701816F09119160580F681E02D0680F7816C
S1132B80E02D828193819093FA158093F9158091B9
S1132B90F9159091FA15E816F90608F473C0A92CF2
S1132BA0E0911816F09119168081811105C0D09218
S1132BB0FA15C092F91548C0E0911816F09119164B
S1132BC00580F681E02DC681D7818A819B81E81634
S1132BD0F90628F49093FA158093F91535C08E01FF
S1132BE00E5F1F4FC8010E9420098C899D89892B83
S1132BF021F0CE010C960E9420098E899091001636
S1132C00981710F48093001690E09C01220F331F54
S1132C10220F331F220F331F820F931FB801845DCD
S1132C20994E0E94CE08E0916216F09163169E8937
S1132C308689981708F4B4CFAB2CB2CF8091FE15D7
S1132C408F5F8093FE151EC08091FD15811101C018
S1132C50A110B092FD158091FE1581508093FE1550
S1132C608091FE1581114ECF8091FD15813031F494
S1132C700E94690B81E003C080E001C080E00F90F6
S1132C800FBE05C08091FD158111E3CFE4CFDF9124
S1132C90CF911F910F91FF90EF90DF90CF90BF9055
S1132CA0AF909F900895CF92DF92EF92FF920F938F
S1132CB01F93CF93DF938091F81581119FC080916A
S1132CC001169091021601969093021680930116B4
S1132CD0E0900116F0900216E114F10499F5809148
S1132CE018169091191620911616309117163093D4
S1132CF01916209318169093171680931616809120
S1132D00FC158F5F8093FC15E0911816F09119164D
S1132D108081811107C08FEF9FEF9093FA15809304
S1132D20F91510C0E0911816F09119160580F68176
S1132D30E02D0680F781E02D828193819093FA152E
S1132D408093F9158091F9159091FA15E816F90612
S1132D5010F4D12C59C0D12CCC24C394E091181672
S1132D60F09119168081811107C08FEF9FEF909326
S1132D70FA158093F91548C0E0911816F0911916C8
S1132D800580F681E02DC681D7818A819B81E81672
S1132D90F90628F49093FA158093F91535C08E013D
S1132DA00E5F1F4FC8010E9420098C899D89892BC1
S1132DB021F0CE010C960E9420098E899091001674
S1132DC0981710F48093001690E09C01220F331F93
S1132DD0220F331F220F331F820F931FB801845D0C
S1132DE0994E0E94CE08E0916216F09163169E8976
S1132DF08689981708F4B2CFDC2CB0CF8091FE15E9
S1132E008F5F8093FE15D12C8091FD15882311F0DE
S1132E10DD24D3948D2DDF91CF911F910F91FF90DD
S1132E20EF90DF90CF9008958091F815882321F0DA
S1132E3081E08093FD1508951092FD15A09162160E
S1132E40B0916316E0916216F09163162D913C9156
S1132E508789908D8217930760F060916216709154
S1132E6063168091621690916316675E7F4F0E948D
S1132E7046098091001690E0FC01EE0FFF1FEE0F53
S1132E80FF1FEE0FFF1F8E0F9F1FFC01E45DF94E25
S1132E908081811117C080910016815080930016A3
S1132EA08091001690E0FC01EE0FFF1FEE0FFF1F54
S1132EB0EE0FFF1F8E0F9F1FFC01E45DF94E808112
S1132EC0882349F38091001690E09C01220F331F60
S1132ED0220F331F220F331F280F391FD901A45D7E
S1132EE0B94E1196ED91FC9112970280F381E02D79
S1132EF01296FC93EE931197215D394EE217F30776
S1132F0029F422813381FD0132832183FC01EE0FF8
S1132F10FF1FEE0FFF1FEE0FFF1F8E0F9F1FFC0101
S1132F20E45DF94E0180F281E02D868197819093D2
S1132F306316809362160895CF93DF93EB0160913B
S1132F40621670916316645F7F4F0E94EF08809150
S1132F5062169091631602960E942009CF3F8FEF6C
S1132F60D80759F460916216709163166E5F7F4FB3
S1132F7084E096E10E94CE0837C0809101169091BA
S1132F800216C80FD91FE0916216F0916316D3831D
S1132F90C2838091011690910216C817D90768F46C
S1132FA060916216709163168091161690911716AF
S1132FB06E5F7F4F0E94EF0817C060916216709198
S1132FC0631680911816909119166E5F7F4F0E94B8
S1132FD0EF088091F9159091FA15C817D90720F4D4
S1132FE0D093FA15C093F915DF91CF9108950F93FB
S1132FF01F93CF93DF93DC011596ED91FC91169707
S1133000C681D7818E01045F1F4FC8010E94200929
S11330108091F81581111CC00A501109C8010E9441
S113302020098E8990910016981710F48093001649
S113303090E09C01220F331F220F331F220F331FF6
S1133040820F931FB801845D994E0E94CE0805C07B
S1133050B8018DE096E10E94CE08E0916216F091ED
S113306063169E898689891720F481E08093FD1573
S113307001C080E0DF91CF911F910F9108952091BD
S1133080FC15FC0120832091011630910216328335
S113309021830895FC010FB6F8940F922091011634
S11330A030910216DB018D919C918F3FBFEF9B07FE
S11330B021F14091FC155081541729F0418152812E
S11330C024173507E0F441815281D901A41BB50BC3
S11330D0A817B907B0F4421B530B840F951FDB01EB
S11330E08D939C938091FC1580838091011690911F
S11330F002169283818380E005C080E003C081E0F2
S113310001C081E00F900FBE089581E08093FD150A
S11331100895809162169091631608950F931F93FA
S1133120CF93DF93FC01892B09F455C02689A09124
S11331306216B091631656968C91281708F04BC00E
S113314084859585992364F0A0916216B0916316E5
S113315056963C9186E090E0831B9109958784877D
S113316030E0C901880F991F880F991F880F991F94
S1133170280F391F245D394E828593858217930762
S113318019F58F01EF012296CE010E942009E091EA
S11331906216F09163168689F801868B9091001669
S11331A0981710F48093001690E09C01220F331FAF
S11331B0220F331F220F331F820F931FBE01845D22
S11331C0994E0E94CE0807C0A0916216B091631672
S11331D056968C91868BDF91CF911F910F91089514
S11331E00F931F93CF93DF93FC01892B79F182A175
S11331F0815082A3268991A1291751F181112AC0F6
S1133200EF018F010E5F1F4FC8010E94200989A1A1
S11332108E8B26E030E0281B31093D872C87909166
S11332200016981710F48093001690E09C01220F6A
S1133230331F220F331F220F331F820F931FB80136
S1133240845D994E0E94CE0881E005C080E003C0F1
S113325080E001C080E0DF91CF911F910F9108952C
S11332608091621690916316892B39F0E091621671
S1133270F091631682A18F5F82A380916216909170
S1133280631608954F925F926F927F928F929F92EE
S1133290AF92BF92EF92FF920F931F9349015A018D
S11332A00FB6F8940F92E0916216F091631627A17D
S11332B0223009F46FC0E0916216F091631643A0C6
S11332C054A065A076A0DC01CB0180959095A095D3
S11332D0B09584219521A621B72183A394A3A5A306
S11332E0B6A3E0916216F091631681E087A3E1141E
S11332F0F10409F44FC0809162169091631602960E
S11333000E9420098FEFE816F80659F460916216BE
S1133310709163166E5F7F4F84E096E10E94CE0841
S113332037C08091011690910216E80EF91EE091C3
S11333306216F0916316F382E282809101169091F5
S11333400216E816F90668F4609162167091631625
S113335080911616909117166E5F7F4F0E94EF08AA
S113336017C060916216709163168091181690913F
S113337019166E5F7F4F0E94EF088091F9159091A6
S1133380FA15E816F90620F4F092FA15E092F91508
S11333900E94690B0F900FBE0FB6F8940F9201159F
S11333A0110569F0E0916216F091631683A194A16E
S11333B0A5A1B6A1F80180839183A283B383E09190
S11333C06216F091631687A18130B1F0E091621624
S11333D0F091631683A194A1A5A1B6A180949094C1
S11333E0A094B09488229922AA22BB2283A294A2F8
S11333F0A5A2B6A281E001C080E0E0916216F0913E
S1133400631617A20F900FBE1F910F91FF90EF90BC
S1133410BF90AF909F908F907F906F905F904F90F0
S113342008950F931F93CF93DF93FC010FB6F89485
S11334300F920115110549F083A194A1A5A1B6A18C
S1133440E80188839983AA83BB8387A192E097A329
S11334502230B1F018F4213031F02AC02330E9F0E1
S1133460243001F125C003A114A125A136A1402BCC
S1133470512B622B732B43A354A365A376A318C0CB
S113348043A154A165A176A14F5F5F4F6F4F7F4F5A
S113349043A354A365A376A30BC043A354A365A37A
S11334A076A306C0823079F143A354A365A376A31F
S11334B0813059F5EF018F010E5F1F4FC8010E9443
S11334C020098E8990910016981710F480930016A5
S11334D090E09C01220F331F220F331F220F331F52
S11334E0820F931FB801845D994E0E94CE08E0912B
S11334F06216F09163169E898689891740F40E94AA
S1133500690B81E005C080E003C081E001C081E077
S11335100F900FBEDF91CF911F910F910895EF92FD
S1133520FF920F931F93CF93DF93FC0101151105B5
S113353049F083A194A1A5A1B6A1E8018883998348
S1133540AA83BB8387A192E097A32230B1F018F439
S1133550213031F02AC02330E9F0243001F125C0B4
S113356003A114A125A136A1402B512B622B732B4F
S113357043A354A365A376A318C043A154A165A192
S113358076A14F5F5F4F6F4F7F4F43A354A365A353
S113359076A30BC043A354A365A376A306C08230CD
S11335A0F1F143A354A365A376A38130D1F5EF01D0
S11335B08091F81581111DC08F010E5F1F4FC80146
S11335C00E9420098E8990910016981710F4809318
S11335D0001690E09C01220F331F220F331F220F8D
S11335E0331F820F931FB801845D994E0E94CE0849
S11335F007C0BF01645F7F4F8DE096E10E94CE0853
S1133600E0916216F09163169E898689891758F4B1
S1133610E114F10451F081E0F701808307C080E0F8
S113362005C081E003C081E001C081E0DF91CF915A
S11336301F910F91FF90EF900895CF93DF9300D0E7
S11336401F92CDB7DEB765DD9093CB168093CA1673
S113365019821A821B821C82EE24EA94FE2C8E01AB
S11336600F5F1F4F2FEF3FEFA9016FEF7FEFCB01EC
S113367009DEE0912F17F0913017309769F36981D3
S11336807A8181E397E11995E7CFCF93DF93CDB7A3
S1133690DEB7C456D1090FB6F894DEBF0FBECDBF56
S11336A000ED10E00F2EF6EDEF2EF12CF02D20E0C2
S11336B04FEF5FEF60E070E08091F0169091F116AB
S11336C00E94580F24E630E040E0BE016F5F7F4F58
S11336D085E997E10E949A036C0160E070E08091B3
S11336E0F0169091F1160E94C00DC114D10479F026
S11336F0FE0131969F012C0D3D1DD8018C9185FF53
S1133700FCCF8191D7018C932E173F07B1F78AE044
S113371090E003D8CCCFAF92BF92CF92DF92EF92DA
S1133720FF920F931092D50089E18093D4001092F8
S1133730C5008093C40086E08093C20098E1909312
S1133740C10090EE9093D00098E99093D100E2EDFF
S1133750F0E080838081808384E690E00E945F05AE
S113376044E650E0BC0185E997E10E942403A12CC2
S1133770B12CC12CD12CE12CF12C04E020E030E060
S11337804CE251E065ED72E08DE19BE10E947A121A
S113379020E030E04CE251E061EE72E085E49BE130
S11337A00E947A1281E00E94440C9093F116809357
S11337B0F0160F91FF90EF90DF90CF90BF90AF90F5
S11337C008950F931F93CF93DF93EC018B0120E0B7
S11337D04FEF5FEF60E070E08091F0169091F1168A
S11337E00E94580FA801BE0185E997E10E943603A3
S11337F060E070E08091F0169091F1160E94C00D87
S1133800DF91CF911F910F9108959093301780937A
S11338102F1708951F920F920FB60F9211240BB613
S11338200F92CF92DF92EF92FF920F931F932F93F9
S11338303F934F935F936F937F938F939F93AF9334
S1133840BF93CF93DF93EF93FF938091C81690912A
S1133850C916EC012196D093C916C093C8162091BD
S1133860D600FC01EC59F94E208321111CC0C090F4
S1133870CA16D090CB16C114D10481F0AE0164E60F
S113388076E181E397E1ACD4AE0160E070E0E12C35
S1133890F12C00E010E024E0C60141DE1092C916CC
S11338A01092C81607C0C536D10520F01092C9166B
S11338B01092C816FF91EF91DF91CF91BF91AF9114
S11338C09F918F917F916F915F914F913F912F9134
S11338D01F910F91FF90EF90DF90CF900F900BBE50
S11338E00F900FBE0F901F9018952F923F924F92FA
S11338F05F926F927F928F929F92AF92BF92CF927C
S1133900DF92EF92FF920F931F93CF93DF93CDB784
S1133910DEB760970FB6F894DEBF0FBECDBF7C0153
S11339201B016A01FC0117821682838181FF2AC36D
S11339309E012F5F3F4F3901F7019381F10193FD00
S1133940859193FF81911F01882309F417C3853260
S113395039F493FD859193FF81911F01853231F4F0
S1133960B70190E051D456016501E6CF10E0512C27
S1133970912CFFE1F915D8F08B3279F038F48032CC
S113398079F08332A1F4F92DF0612EC08D3261F00B
S1133990803369F4292D21602DC0392D3260932E96
S11339A0892D8460982E2AC0E92DE86015C097FC03
S11339B02DC020ED280F2A3088F496FE06C03AE088
S11339C0139F200D1124122F19C08AE0589E200D38
S11339D01124522EE92DE0629E2E10C08E3231F455
S11339E096FCCCC2F92DF0649F2E08C08C3621F4CD
S11339F0292D2068922E02C0883641F4F10193FDEE
S1133A00859193FF81911F018111B3CF9BEB980F97
S1133A10933020F4992D9061805E07C09BE9980F44
S1133A20933008F059C1992D9F7E96FF16E09F733D
S1133A30992E853619F49064992E08C0863621F49F
S1133A40392F3068932E02C01111115097FE07C010
S1133A501C3350F444244394410E27E00BC0183027
S1133A6038F027E017E005C027E09CE3492E02C0A8
S1133A70212F412C560184E0A80EB11CF60160816F
S1133A80718182819381042DA301C7D26C01F981D4
S1133A90FC87F0FF02C0F3FF06C091FC06C092FE53
S1133AA006C000E205C00DE203C00BE201C000E065
S1133AB08C858C7019F0011143C280C297FE10C02E
S1133AC04C0CFC85F4FF04C08A81813309F44A94C8
S1133AD0141474F528E0241578F588E0482E2CC0D9
S1133AE096FC2AC0812F90E08C159D059CF03CEF3C
S1133AF0C3163FEFD30674F0892D8068982E0AC050
S1133B00E2E0F0E0EC0FFD1FE10FF11D8081803356
S1133B1019F411501111F4CF97FE0EC044244394AC
S1133B20410E812F90E0C816D9062CF41C1904C04C
S1133B304424439401C010E097FE06C01C141D04E5
S1133B4034F4C601019605C085E090E002C081E02E
S1133B5090E001110196112331F0212F30E02F5F05
S1133B603F4F820F931F252D30E08217930714F4E3
S1133B70581A01C0512C892D897041F4552031F017
S1133B80B70180E290E040D35A94F8CF002321F0AB
S1133B90B701802F90E038D393FC08C0552031F052
S1133BA0B70180E390E030D35A94F8CF97FE4AC02F
S1133BB04601D7FE02C0812C912CC60188199909AF
S1133BC0F301E80FF91FFE87ED87960124193109E7
S1133BD0388B2F87012F10E01195019511093FEFC4
S1133BE08316930621F4B7018EE290E00DD3C81436
S1133BF0D9044CF08F8598898815990524F4ED85AE
S1133C00FE85818101C080E3F1E08F1A91082D8542
S1133C103E852F5F3F4F3E872D878016910624F007
S1133C20B70190E0F1D2DBCFC814D90441F49A81F2
S1133C30963320F4953319F43C8534FF81E3B701BE
S1133C4090E048C08A81813319F09C859F7E9C87CF
S1133C50B70190E0D9D2111105C094FC16C085E6D5
S1133C6090E015C0B7018EE290E0CED21E5F82E0F4
S1133C7001E0080FF301E80FF11D8081B70190E026
S1133C80C3D2802F0113F4CFE8CF85E490E0B701CD
S1133C90BBD2D7FC06C0C114D10441F4EC85E4FFC7
S1133CA005C0D194C194D1088DE201C08BE2B70163
S1133CB090E0AAD280E32AE0C216D1042CF08F5FF0
S1133CC0FAE0CF1AD108F7CFB70190E09DD2B7013F
S1133CD0C601C09699D249C1833631F0833779F051
S1133CE0833509F052C01FC0560132E0A30EB11C47
S1133CF0F6018081898301E010E0630111C056015F
S1133D00F2E0AF0EB11CF601C080D18096FE03C074
S1133D10612F70E002C06FEF7FEFC6016AD28C01A1
S1133D20F92DFF7713C0560122E0A20EB11CF60153
S1133D30C080D18096FE03C0612F70E002C06FEF97
S1133D407FEFC60142D28C01F92DF0689F2EF3FD5E
S1133D5018C0852D90E00817190798F4B70180E280
S1133D6090E052D25A94F5CFF60197FC859197FED4
S1133D7081916F01B70190E047D251105A940150DC
S1133D8011090115110581F7F0C0843611F0893647
S1133D9059F5560197FE09C024E0A20EB11CF601A4
S1133DA060817181828193810AC0F2E0AF0EB11CFF
S1133DB0F60160817181072E000C880B990BF92D97
S1133DC0FF769F2E97FF09C0909580957095619519
S1133DD07F4F8F4F9F4FF0689F2E2AE030E0A30162
S1133DE077D2C82EC6183EC0092D853721F40F7E20
S1133DF02AE030E01DC0097F8F3691F018F4883531
S1133E0059F0BCC0803719F0883711F0B7C0006191
S1133E1004FF09C0046007C094FE08C0066006C021
S1133E2028E030E005C020E130E002C020E132E0CB
S1133E30560107FF09C084E0A80EB11CF601608199
S1133E4071818281938108C0F2E0AF0EB11CF6014A
S1133E506081718180E090E0A3013AD2C82EC61837
S1133E600F77902E96FE0BC0092D0E7FC11650F4CD
S1133E7094FE0AC092FC08C0092D0E7E05C0DC2CFD
S1133E80092D03C0DC2C01C0D12E04FF0DC0FE019E
S1133E90EC0DF11D8081803311F4097E09C002FF0D
S1133EA006C0D394D39404C0802F867809F0D394A9
S1133EB003FD10C000FF06C01C2DD51478F4150DA9
S1133EC01D190CC0D51450F4B70180E290E09CD1C8
S1133ED0D394F8CFD51410F45D1801C0512C04FF0D
S1133EE00FC0B70180E390E08FD102FF16C001FD3F
S1133EF003C088E790E002C088E590E0B7010CC0F9
S1133F00802F867851F001FF02C08BE201C080E26D
S1133F1007FD8DE2B70190E077D1C11630F4B70107
S1133F2080E390E071D11150F8CFCA94F301EC0D05
S1133F30F11D8081B70190E067D1C110F6CF15C0A3
S1133F40F4E0F51550F584E0581A93FE1EC00111F3
S1133F5025C02C8523FF27C004EE10E0392D3071D5
S1133F60932EF8018491811121C0552009F4FCCCD1
S1133F70B70180E290E048D15A94F7CFF7018681E7
S1133F80978123C08FEF9FEF20C0B70180E290E0BC
S1133F903BD15A945110F9CFDACF512CB701802F6D
S1133FA090E032D1D6CF08EE10E0D8CF91108052F5
S1133FB0B70190E029D10F5F1F4FD3CF23E0251520
S1133FC010F483E0C1CF512CC4CF60960FB6F8949F
S1133FD0DEBF0FBECDBFDF91CF911F910F91FF9038
S1133FE0EF90DF90CF90BF90AF909F908F907F9095
S1133FF06F905F904F903F902F900895A29FB001D3
S1134000B39FC001A39F700D811D1124911DB29F08
S1134010700D811D1124911D0895283008F027E0AA
S11340203327DA01990F311D87FD916000966105F0
S1134030710539F432602E5F3D9330E32A95E1F740
S113404008959F3F30F080387105610509F03C5FA9
S11340503C5F3D93913008F08068911DDF93CF93CE
S11340601F930F93FF92EF92192F987F9695E92F44
S113407096959695E90FFF27EA5BFE4F992733271C
S1134080EE24FF24A701E70105900894079428F47F
S1134090360FE71EF81E491F511D660F771F881F34
S11340A0991F0694A1F70590079428F4E70EF81ECB
S11340B0491F561FC11D770F881F991F661F06943D
S11340C0A1F70590079428F4F80E491F561FC71F3F
S11340D0D11D880F991F661F771F0694A1F70590BD
S11340E0079420F4490F561FC71FD81F990F661F46
S11340F0771F881F0694A9F784911095177041F0D3
S1134100D695C79557954795F794E7941A95C1F7AF
S1134110ECEEF0E0689415901591359165919591C8
S113412005907FE27395E118F10A430B560BC90B16
S1134130D009C0F7E10CF11E431F561FC91FD01D43
S11341407EF4703311F48A95E6CFE894015030F090
S1134150080F0AF40027021708F4202F2395022FD2
S11341607A3328F079E37D932A95E9F710C07D939B
S11341702A9589F606949795679537951795179418
S1134180E118F10A430B560BC90BD00998F023959B
S11341907E9173957A3308F070E37C932013B8F71B
S11341A07E9170617D9330F0839571E37D9370E32C
S11341B02A95E1F71124EF90FF900F911F91CF9171
S11341C0DF91992787FD90950895FC010590615032
S11341D070400110D8F7809590958E0F9F1F089519
S11341E0FB01DC0102C001900D9241505040D8F710
S11341F00895FC016150704001900110D8F780953A
S113420090958E0F9F1F08950F931F93CF93DF9365
S1134210FB01238121FD03C08FEF9FEF2CC022FF00
S113422016C046815781248135814217530744F4CF
S1134230A081B1819D012F5F3F4F318320838C93F7
S1134240268137812F5F3F4F3783268314C08B012C
S1134250EC01FB010084F185E02D1995892BE1F631
S1134260D80116968D919C911797019617969C9359
S11342708E931697CE01DF91CF911F910F910895E0
S11342800F931F93CF93DF93CDB7DEB72E970FB65F
S1134290F894DEBF0FBECDBF8C0186E08C831A83F9
S11342A009838FEF9FE79E838D83CE0101961DDBEB
S11342B0EF81F885E00FF11F10822E960FB6F89467
S11342C0DEBF0FBECDBFDF91CF911F910F91089537
S11342D0FA01AA27283051F1203181F1E8946F9333
S11342E06E7F6E5F7F4F8F4F9F4FAF4FB1E03ED0D9
S11342F0B4E03CD0670F781F891F9A1FA11D680F77
S1134300791F8A1F911DA11D6A0F711D811D911DA9
S1134310A11D20D009F468943F912AE0269F11241E
S11343203019305D3193DEF6CF010895462F477082
S1134330405D4193B3E00FD0C9F7F6CF462F4F70DD
S1134340405D4A3318F0495D31FD4052419302D03B
S1134350A9F7EACFB4E0A6959795879577956795E1
S1134360BA95C9F700976105710508959B01AC01E1
S11343700A2E06945795479537952795BA95C9F708
S1134380620F731F841F951FA01D0895F894FFCF1B
S11343900100000100000000000100765365727600
S11343A06F5F736574416E676C653A2025690041DF
S11343B0055305660578058A059C05AF05C105D337
S11343C005E605F8050A061C062F06410653066590
S11343D00678068A069C06AF06C106D306E506F8EB
S11343E0060A071C072F0741075307650778078A42
S11343F0079C07AE07C107D307E507F8070A081C9F
S1134400082E0841085308650878088A089C08AEF5
S113441008C108D308E508F7080A091C092F09414F
S1134420095309650978098A099C09AF09C109D3A7
S113443009E509F8090A0A1C0A2E0A410A530A6501
S11344400A780A8A0A9C0AAE0AC10AD30AE50AF85B
S11344500A0A0B1C0B2E0B410B530B650B770B8AB3
S11344600B9C0BAE0B4672616D655265616465729F
S1114470005561727453656E645461736B0081
S9030000FC
