S00C0000546573742E7372656378
S113000020C100003FC100003DC100000C946C19E8
S11300100C947D190C948E1935C1000033C1000075
S113002031C100002FC100002DC100002BC1000010
S113003029C1000027C1000025C1000023C1000020
S113004021C100001FC100001DC100001BC1000030
S113005019C1000017C1000015C1000013C1000040
S113006011C100000FC100000DC100000BC1000050
S113007009C1000007C1000005C1000003C1000060
S11300800C94171DFFC00000FDC00000FBC0000061
S1130090F9C00000F7C00000F5C00000F3C0000084
S11300A0F1C00000EFC00000EDC00000EBC0000094
S11300B0E9C00000E7C00000E5C00000E3C00000A4
S11300C0E1C00000DFC00000DDC000000C947D33FF
S11300D0D9C00000D7C00000D5C00000D3C00000C4
S11300E0D1C00000084AD73B3BCE016E84BCBFFDA3
S11300F0C12F3D6C74319ABD56833DDA3D00C77FF4
S113010011BED9E4BB4C3E916BAAAABE000000808C
S11301103F05A84CCDB2D44EB93836A9020C50B91B
S1130120918688083CA6AAAA2ABE000000803F0047
S11301306E616E00696E660000407A10F35A00A08A
S1130140724E18090010A5D4E80000E8764817009C
S113015000E40B54020000CA9A3B000000E1F505DC
S1130160000080969800000040420F000000A08626
S113017001000000102700000000E8030000000058
S11301806400000000000A000000000001000000FC
S113019000002C76D888DC674F0823DFC1DFAE5916
S11301A0E1B1B796E5E3E453C63AE651997696E8A9
S11301B0E6C28426EB898C9B62ED407C6FFCEFBC2D
S11301C09C9F40F2BAA56FA5F490055A2AF75C9358
S11301D06B6CF9676DC11BFCE0E40D47FEF520E68E
S11301E0B500D0ED902E0300943577050080841E71
S11301F0080000204E0A000000C80C333333330FCC
S1130200986E12831141EF8D2114893BE65516CF68
S1130210FEE6DB18D1844B381BF77C1D901DA4BB74
S1130220E424203284725E228100C9F124ECA1E529
S11302303D27C3ECDAE188818230F0F30E943E1C52
S1130240FACF11241FBECFEFD1E2DEBFCDBF00E055
S11302500CBF17E0A0E0B2E0E0E8F9E700E00BBF74
S113026002C007900D92AC36B107D9F72CE1ACE689
S1130270B7E001C01D92A233B207E1F70E94BF1894
S11302800C94BE3CBDCECF93DF936BE374E081E06E
S11302900E94071B10926D0710926C07CEE6D7E000
S11302A08DE8FE0111928A95E9F781E00E946B1DA9
S11302B09093F8078093F7071882DF91CF91089500
S11302C080916E07811116C0EEE6F7E0168E158E4A
S11302D0168A158A14A213A212A211A2178E148EC2
S11302E0128E118E138E1092FA071092F90791E074
S11302F0908308958FEF0895CF92DF92EF92FF924B
S11303000F931F93CF93DF931F92CDB7DEB769018D
S1130310E82EF12C9DE8899F800111240259184F81
S113032083E0F8018083508F478B60A382E0898348
S11303300E944A2FF801E557FF4F918380830E9462
S1130340853221E030E0AE014F5F5F4F61E0F8019C
S113035080A10E94121BB60181E00E940330672B2A
S1130360682B692B61F48DE88E9DF0018F9DF00D53
S11303701124E259F84F81E0808380E02EC080E0B0
S113038091E065D6009731F14DE84E9D90014F9D67
S1130390300D112440E051E0BC01C9018159984F4E
S11303A05BD384E190E053D60097B1F02DE82E9D05
S11303B080012F9D100D112444E150E0BC01C801BF
S11303C08758984F49D3F801E259F84F82E0808367
S11303D081E003C08FEF01C08FEF0F90DF91CF91C9
S11303E01F910F91FF90EF90DF90CF900895CF93DE
S11303F0DF93811134C020E04FEF5FEF60E070E0E5
S11304008091F7079091F8070E94592280916E0716
S1130410823051F060E070E08091F7079091F80726
S11304200E94BD2080E01CC0CEE6D7E089819A817D
S113043018D78B859C8515D781E08883EF89F88D43
S113044060E070E080E090E0199560E070E08091F9
S1130450F7079091F8070E94BD2081E001C080E079
S1130460DF91CF910895EF92FF920F931F93CF9353
S1130470DF9300D01F92CDB7DEB75C834B8381112D
S11304807BC07B0120E04FEF5FEF60E070E0809184
S1130490F7079091F8070E94592280916E078230E5
S11304A051F4E114F10439F00B811C81C801019766
S11304B08436910550F060E070E08091F7079091E8
S11304C0F8070E94BD2080E058C00E5F1F4F2091A6
S11304D077073091780780E091E0821B930B08172F
S11304E0190708F03FC0209181073091820784E109
S11304F090E0821B930B0297A8F18AE290E09A8322
S1130500898342E050E0BE016D5F7F4F8FE697E044
S1130510B5D24B815C81B7018FE697E0AFD201156C
S11305201105B1F0902F812F0B32110510F09AE2D2
S113053080E099838A8342E050E0BE016F5F7F4F81
S113054089E797E09BD289819A81081B190B51F79F
S113055060E070E08091F7079091F8070E94BD2059
S11305608B810BC060E070E08091F7079091F807F1
S11305700E94BD2080E001C080E00F900F900F909A
S11305800F90DF91CF911F910F91FF90EF900895FD
S1130590CF93DF931F921F92CDB7DEB7811114C0A2
S11305A080916E07823091F4662394F081E0898310
S11305B06A8322E030E0AE014F5F5F4F61E08091DB
S11305C08E070E94121B05C080E003C080E001C0BA
S11305D080E00F900F90DF91CF910895AF92BF927A
S11305E0CF92DF92EF92FF920F931F93CF93DF93FB
S11305F0CDB7DEB7AE970FB6F894DEBF0FBECDBF52
S11306008111DBC080916E07882309F4D6C020E0F5
S11306104FEF5FEF60E070E08091F7079091F8078B
S11306200E94592280916E07823049F060E070E0A8
S11306308091F7079091F8070E94BD20BEC0809179
S11306408D07882309F462C0EEE6F7E0858D968D68
S11306500A96968F858F248D265F248F893E93403A
S113066058F060E070E08091F7079091F8070E94DD
S1130670BD2080E0BCDEA1C0293C08F447C0EEE602
S1130680F7E0078110851EA61DA6A18C838DA81AEC
S11306908A2D8F77A82EC1F1C12CD12CB12C7F01CA
S11306A01982F701838D8B0D8F778A834189528953
S11306B04C0D5D1D22E030E0BE01635D7F4F89E794
S11306C097E08BD22DA53EA5A801BE016D5F7F4F9B
S11306D08FE697E082D22DA53EA5020F131FF701E6
S11306E0838194810197082319232E5F3F4FAE0124
S11306F04F5F5F4F61E080A10E94121BB394F2E050
S1130700CF0ED11CAB10CCCF10928A07EEE6F7E0E7
S1130710818D482F50E0938D491B51094F77552700
S1130720443051050CF041C06581768125893689B4
S113073062177307D1F119828A838F01440F551F01
S113074081899289480F591F22E030E0BE01635D20
S11307507F4F89E797E041D22DA53EA5F801458951
S11307605689BE016D5F7F4F8FE697E036D22DA587
S11307703EA5F80185899689A901480F591F8381EF
S11307809481019784239523968B858B81E0878FB1
S1130790818D8F5F8F77818F2E5F3F4FAE014F5FCB
S11307A05F4F61E080A10E94121B60E070E08091C5
S11307B0F7079091F8070E94BD20AE960FB6F89403
S11307C0DEBF0FBECDBFDF91CF911F910F91FF9080
S11307D0EF90DF90CF90BF90AF9008950F931F9349
S11307E0CF93DF93EA01811141C0809191079091E9
S11307F09207892B99F4DB0111968C91119790E063
S1130800982F88272C91822B90939207809391079D
S11308108536910558F522976E5F7F4F0EE617E0F7
S1130820F80181A192A1AE018D56984F0E94E13B3F
S1130830D80191966D917C9192976C0F7D1F929641
S11308407C936E93919793968D919C91949768174E
S1130850790761F45796ED91FC91589783E997E0F5
S11308601995F80114A213A212A211A2DF91CF913B
S11308701F910F9108959F92AF92BF92CF92DF92F2
S1130880EF92FF920F931F93CF93DF931F92CDB7F5
S1130890DEB78B015A0190918E079813B8C09091DE
S11308A06E07992309F4B3C0FB01D0800F2EFEE636
S11308B0EF2EF7E0FF2EF02D13C0E0916C07F091BE
S11308C06D07309759F0482F50E060E070E000E089
S11308D010E023E0CF010E947931AAC0E12CF12C71
S11308E020E04FEF5FEF60E070E0F701E757FF4F64
S11308F0808191810E945922F7018081823030F0F9
S1130900A114B10419F00115110551F4F701E757C9
S1130910FF4F60E070E0808191810E94BD2088C01B
S1130920833021F5F3E0DF1221C0F701E557FF4FD3
S113093080819181009781F000E010E022E040E0A6
S113094050E0BA010E947931F701E557FF4F118257
S1130950108260E080E01CDEF701E757FF4F60E0A3
S113096070E0808191810E94BD2062C0F801C18045
S1130970DD2009F452C0F4E0DF1213C053C0A50116
S113098042505109B8016E5F7F4F80E027DFF701C5
S1130990828D8F5F8F77828FF701628D80E0F8DD23
S11309A02CC0F1E0DF1229C0F701838DFC2DF81B68
S11309B08F2F8F77982E09F1D12C57018BE0A80E39
S11309C0B11C87010F5F1F4F42E050E0BE016F5F13
S11309D07F4FC50150D1498150E060E070E0C8010B
S11309E04AD1D3949D10F0CFF701C38E148E168E86
S11309F0158E818DC81201C0178EF701E757FF4F7E
S1130A0060E070E0808191810E94BD2011C0F801F6
S1130A10D080F2E0DF120CC050CFF701828DC812F3
S1130A20BBCFADCFF701828DC81609F4B0CFB4CFD8
S1130A300F90DF91CF911F910F91FF90EF90DF9076
S1130A40CF90BF90AF909F90089580E0C7DD8AE07B
S1130A5090E00E945729F9CFFC016115710561F0FE
S1130A6071836083538342831186108617821682B2
S1130A701582148281E0089580E00895EF92FF9238
S1130A800F931F93CF93DF93EC012A813B818885D9
S1130A909985F901E81BF90BE417F50708F449C037
S1130AA08A017B018C819D81A901481B590B041784
S1130AB01507A8F428813981A801820F931F0E9489
S1130AC0E13B8C819D81800F911F9D838C832A81C2
S1130AD03B818217930721F51D821C8221C0288146
S1130AE03981820F931F0E94E13B8C819D816A8131
S1130AF07B81AC01461B570B400F511F681B790BC0
S1130B006E0D7F1D888199810E94E13B8C819D81BE
S1130B102A813B81821B930B800F911F9D838C83C1
S1130B2048855985040F151F1987088781E090E0CF
S1130B3002C080E090E0DF91CF911F910F91FF9070
S1130B40EF9008950F931F93CF93DF93FC0121152A
S1130B503105C9F1A681B78184819581A817B907A8
S1130B60A9F1C62FD72F80E090E007C0A681B781F6
S1130B7064817581A617B70759F160817181A60F49
S1130B80B71F5C918E015883668177816F5F7F4FB9
S1130B9077836683A085B1851197B187A087A281E9
S1130BA0B3816A177B0711F4178216822196D80144
S1130BB05C91541302C001960BC0019628173907A3
S1130BC0A9F6C90105C080E090E002C080E090E091
S1130BD0DF91CF911F910F910895CF92DF92EF9201
S1130BE0FF920F931F93CF93DF937C016B01EA0174
S1130BF08901672BA9F1FC0142815381C417D507F0
S1130C0010F0C41BD50B4C1B5D0B4017510760F053
S1130C10F701608171816C0F7D1FA801C6010E94DC
S1130C20E13B802F912F1EC0F701608171816C0F11
S1130C307D1FC6010E94E13BF70122813381C90176
S1130C408C1B9D0BA801421B530B4C0F5D1F608135
S1130C5071818C0D9D1D0E94E13B802F912F02C05C
S1130C6080E090E0DF91CF911F910F91FF90EF9082
S1130C70DF90CF900895EF92FF920F931F93CF933D
S1130C80DF93EC017B01088519854017510708F4AF
S1130C908A018E819F814A815B81481B590B4017D1
S1130CA05107C8F0E114F10441F068817981680FBB
S1130CB0791FA801C7010E94E13B8E819F81800FAB
S1130CC0911F9F838E832A813B818217930741F56D
S1130CD01F821E8225C0E114F104C1F0688179816C
S1130CE0680F791FC7010E94E13B4E815F812A8111
S1130CF03B81C901841B950B421B530B400F511FB1
S1130D00688179818E0D9F1D0E94E13B8E819F81B8
S1130D102A813B81821B930B800F911F9F838E83BB
S1130D2088859985801B910B99878887C801DF91F5
S1130D30CF911F910F91FF90EF900895EF92FF9242
S1130D400F931F93CF93DF937C01680F791FFC01EE
S1130D503196009719F04115510521F460E070E0D7
S1130D6081E04BC02115310559F1E617F70760F50D
S1130D708A01020F131FDA01EC0191E02FEF04C086
S1130D80FA01E617F70720F53D9131110AC098835F
S1130D90CF010196A017B107E8F4EF01FC0191E03F
S1130DA0F0CFAF014F5F5F4F30839F5FA017B10754
S1130DB0B0F49F3F29F728833296EA0191E0E1CF0E
S1130DC0EC0180E091E00DC0EC0182E091E009C00B
S1130DD082E007C0EF01FC0180E091E002C0FA016B
S1130DE080E0C617D70718F49883BF0101C082E0DA
S1130DF09B012E193F09622F732FDF91CF911F9111
S1130E000F91FF90EF900895AF92BF92CF92DF922F
S1130E10EF92FF920F931F93CF93DF937C01DA013C
S1130E20009711F0109721F460E070E081E05FC05A
S1130E302115310509F44BC06A01C20ED31E5C01B1
S1130E40A60EB71E8C0150E001C08F01ED01219662
S1130E507C91711103C05460F8013DC07150C6010A
S1130E608C1B9D0B272F30E08217930710F4782FEB
S1130E705860C501801B910B272F30E08217930720
S1130E8010F4782F5260772361F1DE01F801972F77
S1130E903D91311101C0546031939150C9F7EFEF86
S1130EA0E70FF0E03196DE01AE0FBF1FE00FF11F38
S1130EB0AC15BD0580F47E3F41F2EA15FB0510F048
S1130EC0526009C08F010F5F1F4F1082BFCFFC011A
S1130ED050E001C0F801EE19FF096E2F7F2F852F16
S1130EE006C0CC15DD05B0F7F801DE01E6CFDF91D1
S1130EF0CF911F910F91FF90EF90DF90CF90BF9013
S1130F00AF900895862798E02CE880FF03C086956B
S1130F10822701C086959150C1F708950F931F93BE
S1130F20CF93DF93662359F08C01EC01060F111D5A
S1130F3080E06991E7DF0C171D07D9F701C080E055
S1130F40DF91CF911F910F91089580B380BBECE79F
S1130F50F0E08081806C8083EAE7F0E08081806843
S1130F6080838081846080830895ECE7F0E080834F
S1130F709081906C9083EAE7F0E090819064908394
S1130F80908196FDFDCF2091780090917900E82F13
S1130F90F0E02695269530E4939FC0011124822B1E
S1130FA0FE2FEE27E050FE4FE80FF11D80810895DB
S1130FB0CF92DF92EF92FF92CF93DF93EC01C88040
S1130FC0D980EA80FB802BED3FE049E450E4C7017F
S1130FD0B6010E94603618166CF42BED3FE049EC24
S1130FE050E4C701B6010E94E933688379838A8398
S1130FF09B8316C02BED3FE049E450ECC701B601DA
S11310000E94B034882364F42BED3FE049EC50E4B3
S1131010C701B6010E94EA33688379838A839B837C
S113102088819981AA81BB81BC01CD019F772BED79
S11310303FE049E450E40E94603618160CF4BFCF38
S1131040DF91CF91FF90EF90DF90CF900895EF92D2
S1131050FF920F931F93CF93DF93EC010E94C92B50
S11310608091010890910208892B41F5E3E0F8E0B2
S1131070A7E0B8E0B183A08313821282E3E0FAE12F
S1131080F0930208E0930108138212821182108205
S11310908CEF91E113969C938E931297ED93FC93AE
S11310A09093FE078093FD07909300088093FF07B9
S11310B080E090E89093FC078093FB078091FB0706
S11310C09091FC078C239D23892B09F0B2C02097B3
S11310D009F4B2C0AE014C5F5F4F09F4B0C0809117
S11310E0FF07909100088417950708F4ABC0E091BE
S11310F00308F0910408A3E0B8E002C0DF01F9019D
S1131100228133812417350728F420813181211568
S11311103105A1F76091010870910208E617F707FD
S113112009F493C0CD91DC9111977E0184E0E80E1F
S1131130F11C808191818D939C9382819381841B86
S1131140950B8930910508F452C09F01240F351F77
S1131150D90113969C938E93129753834283A3E0F1
S1131160B8E001C0DC018D919C911197821793071F
S1131170C8F312964D915C9113978D01040F151FBE
S11311802017310751F4E9012A813B81420F531F93
S113119013965C934E9312979D01E9014A815B81FA
S11311A08901040F151F80179107C9F4601771078F
S11311B091F0E8018A819B81480F591FE9015B8303
S11311C04A838D919C911197EC0188819981E90161
S11311D09983888307C0E9017983688303C0E9019F
S11311E099838883A217B30711F02D933C9322812E
S11311F033818091FF0790910008821B930B909399
S113120000088093FF074091FD075091FE07841763
S1131210950720F49093FE078093FD078091FB07C8
S11312209091FC07282B392B33832283118210825F
S11312300EC0E12CF12C0BC0E12CF12C08C0E12CE8
S1131240F12C05C0E12CF12C02C0E12CF12C0E9400
S1131250CF2BC701DF91CF911F910F91FF90EF909A
S11312600895CF93DF93009709F468C0FC01349785
S1131270228133814091FB075091FC07B90164231B
S11312807523672B09F45AC060817181672B09F0BB
S113129055C0EF0140955095242335233383228391
S11312A00E94C92B4A815B818091FF0790910008BD
S11312B0840F951F909300088093FF07E3E0F8E004
S11312C001C0FC01808191818C179D07D0F322819C
S11312D03381BF01620F731FC617D70729F4240F88
S11312E0351F33832283EF012A813B81DE01A20F64
S11312F0B31F8A179B07C9F48091010890910208D3
S1131300A817B90779F012968D919C911397280F1D
S1131310391F3B832A83A081B1818D919C9199834C
S1131320888305C0B983A88302C099838883EC1796
S1131330FD0711F0D183C0830E94CF2BDF91CF91A1
S113134008958091FF07909100080895EF92FF920D
S11313500F931F93CF93DF93EC01E42E2898862FED
S113136080680E949126EE20B1F00FEF0E0D10E080
S11313700F5F1F4F0C0F1D1FF12C80E00E94912660
S11313808F3F09F4F39489930C171D07B1F7FE10EE
S113139004C085E003C085E001C080E0289ADF91A5
S11313A0CF911F910F91FF90EF900895CF93DF930A
S11313B0EC012898862F80680E94912680E00E9484
S11313C09126289A8F3F11F495E001C090E088831C
S11313D0892FDF91CF910895CF93DF931F921F92AE
S11313E0CDB7DEB7E3E6FBE181E0808324EF31E0B3
S11313F03283218322E836E03483238320E931E0F9
S113140036832583178210868187828720E130E026
S1131410348723872DE030E03687258722E330E0C8
S1131420308B2787118A128A838B848B88EB9BE00D
S1131430968B858B8AE090E0908F878B118E10922B
S11314407E1B10927D1B1092801B10927F1B0E94AA
S11314508326209A289A198220E137E289818F5FB6
S1131460898321503109D1F76FE0CE0102969EDFC6
S11314708A818936C9F780E00F900F90DF91CF9170
S113148008950F931F93CF93DF931F921F92CDB7AD
S1131490DEB78C0142E0CE01019658DF2A8130E0AC
S11314A0322F22279981292BF801318320830F9031
S11314B00F90DF91CF911F910F910895CF93C62F75
S11314C028980E9491268C2F0E949126289A80E0C9
S11314D0CF9108951F93CF93DF931F921F92CDB79F
S11314E0DEB7198279DF182F198280916C1B813045
S11314F009F083C08091721B9091731B843691050F
S113150041F0883C910541F0C29741F483E089831E
S113151005C082E0898302C081E0898380916E1BCB
S113152090916F1B8430910531F08830910539F02A
S1131530029749F40BC089818860898307C0898137
S11315408C60898303C08981846089838091701B46
S11315509091711B803A21E09207C1F170F48A31B5
S1131560910521F118F40D97E9F028C08433910511
S113157009F1803D910531F121C082302DE09207BF
S113158089F140F4813423E0920721F18C379640AD
S113159029F114C084302AE1920741F18231944345
S11315A049F10CC089818061898327C08981806267
S11315B0898323C08981806389831FC08981806472
S11315C089831BC089818065898317C0898180666E
S11315D0898313C08981806789830FC0898180686A
S11315E089830BC089818069898307C08981806A66
S11315F0898303C08981806B8983698180E15EDF8F
S113160063E1CE010196D2DE89818F77898390913F
S11316106D1B913011F480688983698183E14EDF09
S113162019828091631B813009F05BC08091641B37
S11316309091651B853F9105C1F020F48D3791058C
S113164049F011C0843F21E0920739F0883E93406D
S113165039F009C082E0898308C084E0898305C029
S113166088E0898302C08CE089838091661B909115
S1131670671B803D910531F148F48A319105B1F041
S113168084339105B9F00D97C9F40CC0813423E07B
S1131690920701F18C3726E0920701F1803A9140DC
S11316A069F414C08981806189831BC08981806247
S11316B0898317C089818063898313C08981806489
S11316C089830FC08981806589830BC08981806685
S11316D0898307C089818067898303C08981806881
S11316E08983698181E1EADE6FE0CE0102965EDEE4
S11316F0812F0F900F90DF91CF911F910895CF9379
S1131700DF931F921F92CDB7DEB766E2CE0101963A
S1131710B8DE8823A9F0853051F480917D1B909127
S11317207E1B019690937E1B80937D1B09C0809144
S11317307F1B9091801B01969093801B80937F1B4D
S113174089819A810F900F90DF91CF910895CF9264
S1131750DF92EF92FF92CF93FC014091641B509172
S1131760651B453F5105B1F09A01A5E2B6E00E9420
S1131770DB3A481B590B56954795840F951F002457
S1131780880F991F001C880F991F001C892F902D0A
S1131790C82F01C0C2E0BF01FF0F880B990B0E9444
S11317A0523520E030E04CE850E40E946B366B0187
S11317B07C016C2F70E080E090E00E9452359B0128
S11317C0AC01C701B6010E946B3620E030E04AE765
S11317D054E40E94B734CF91FF90EF90DF90CF9004
S11317E008958DDFB4CF0895EAE0F1E08081876049
S11317F0808308958230910531F4EBE0F1E080813B
S11318008460808308958130910531F4EBE0F1E048
S11318108081826080830895892B29F4EBE0F1E0D4
S113182080818160808308958230910531F4EBE0FA
S1131830F1E080818B7F808308958130910531F4BC
S1131840EBE0F1E080818D7F80830895892B29F47A
S1131850EBE0F1E080818E7F80830895FC010396A4
S1131860928381832FEF3FEF348323839683858391
S11318709087878310820895FC011186108608954D
S1131880CF93DF939C01FB01DC011196CD91DC9198
S11318901297D383C2838C819D81958384838C81A9
S11318A09D81DC0113967C936E9312977D836C83E8
S11318B031872087F90180818F5F8083DF91CF9109
S11318C00895CF93DF93EB01488159814F3F2FEF68
S11318D0520721F4FC01A781B0850DC0DC011396E9
S11318E001C0DF011296ED91FC91139720813181A3
S11318F042175307B0F71296ED91FC911397FB83AF
S1131900EA83D583C483BD83AC831396DC93CE93DF
S1131910129799878887FC0120812F5F2083DF91AC
S1131920CF910895CF93DF93FC01A085B185C28147
S1131930D381848195819D838C83C481D581828167
S113194093819B838A8311968D919C911297E817BA
S1131950F90731F48481958112969C938E931197A3
S1131960118610868C9181508C93DF91CF910895CC
S1131970CF93DF93CDB7DEB728970FB6F894DEBFC9
S11319800FBECDBF19821A821B821C821D821E8249
S11319901F8218860E940B24A12CB12CC12CD12C9F
S11319A0E12CF12C03E020E030E04CE251E06BE06C
S11319B076E085E295E00E9498260E941424182F70
S11319C088EE93E00E9457291123B9F30E94202442
S11319D00F2EFDE8EF2EFBE1FF2EF02D01E020E0BD
S11319E04FEF5FEF60E070E08091891B90918A1B5C
S11319F00E945922813009F076C00E94C92B0FB68B
S1131A00F8940F92F7011081A180B280C380D48032
S1131A100F900FBE0E94CF2B153009F455C028F447
S1131A201230A9F01430A1F15EC0173009F454C08B
S1131A3018F0183049F057C00FB6F8940F9200937D
S1131A401C1A0F900FBE4FC00E9428254CC0B50130
S1131A50BB0C880B990B0E94523569837A838B8364
S1131A609C83B601DD0C880B990B0E9452356D8363
S1131A707E838F83988720E044E650E0BE016F5F49
S1131A807F4F8091231A9091241A0E94ED1E2BC03F
S1131A900FB6F8940F9200931B1A0F900FBE198281
S1131AA01A821B821C821D821E821F82188620E0DD
S1131AB044E650E0BE016F5F7F4F8091231A9091FE
S1131AC0241A0E94ED1E0FC00FB6F8940F921092C4
S1131AD01B1A0F900FBE07C00FB6F8940F92109206
S1131AE01C1A0F900FBE81E090E09EDE78CFCF935A
S1131AF0DF93CDB7DEB763970FB6F894DEBF0FBEA2
S1131B00CDBF198210E021E0288BF12C68942224A7
S1131B1022F86894332432F80EC00F2EF3E02F2EEF
S1131B20F02D09C00F2EF3E02F2EF02D04C00F2E40
S1131B30F3E02F2EF02D80911C1A813009F020C182
S1131B4080911B1A81111CC10E940A2D9B838A83D8
S1131B5020E046E950E0BE016F5F7F4F8091211A7B
S1131B609091221A0E9459228130C9F489818823D4
S1131B7019F0833098F408C03889F39EF02C1124AE
S1131B8011E081E0888B0BC09DECF99EF12C1124AF
S1131B90F694F69410E025E0288B01C010E0388913
S1131BA0F39E802D11240E944C2568EC70E0CE0138
S1131BB002960E94B42780E0D8D9D82E81E0D5D9E6
S1131BC0E82E83E0D2D9C82E82E0CFD9898B20E0D9
S1131BD048E250E060E070E080918B1B90918C1B98
S1131BE00E9459224090171A5090181A6090191A9E
S1131BF070901A1AA090151AB090161A8091131AA0
S1131C009091141A9D878C8760E070E080918B1B03
S1131C1090918C1B0E94BD201B3038F0898181116A
S1131C2004C00E94C72411E006C0112321F0898159
S1131C30811101C01F5F3889232F30E03B8B2A8B31
S1131C40F29E4001F39E900C11248C859D856AE0E0
S1131C5070E00E94C83A7D876C87C5016AE070E035
S1131C600E94C83A7F876E8720E030E044E353E463
S1131C70C301B2010E946B362BED3FE049E450E40E
S1131C800E94B7340E941F35A9880D2D9401AB0121
S1131C906C857D858E859F850E9485248FE18816BD
S1131CA091042CF09CE3891691048CF1D9888FEF70
S1131CB08D0D883160F52E853F85B901330F880B72
S1131CC0990B0E9452356C837D838E839F832C8570
S1131CD03D85B901330F880B990B0E9452356887F3
S1131CE079878A879B878FE096E09F938F930E94E2
S1131CF0EB2420E044E650E0BE016C5F7F4F80910E
S1131D00231A9091241A0E94ED1E0F900F903BE528
S1131D1083169104ACF484E0281212C089818330C4
S1131D2008F044C0F3942A893B89F29E4001F39E53
S1131D30900C11243AE5831691040CF0EECE17C0F2
S1131D401814190444F583E028122AC089818330C9
S1131D5008F0F1CEFA942A893B89F29E4001F39E61
S1131D60900C112404C034E0231609F4DBCE1814BB
S1131D7019040CF4E0CE83E02812DDCE232CDBCE54
S1131D8080E00E944C2584E690E00E94572910E0F0
S1131D90F12C232CD0CE9AE58916910464F30AC061
S1131DA02AE5821691040CF4C6CEDDCF181419046A
S1131DB0BCF3F1CF34E0231609F4B9CEDCCFCF93D2
S1131DC0DF93CDB7DEB7C357D1090FB6F894DEBFA2
S1131DD00FBECDBF19821A821B821C821D821E82F5
S1131DE01F82188619861A861B861C861D861F86E6
S1131DF01E86198A188A1B8A1A8A1D8A1C8A1E8AB8
S1131E001F8A188E198E1A8E1B8EE2961FAEE297C9
S1131E106A961FAE6A971FAAA7961FAEA79724E1DA
S1131E2021962FAF2197A8961FAEA897E4961FAED0
S1131E30E49745E0E3964FAFE3978AE0A6968FAF29
S1131E40A69726961FAE269727961FAE2797E0964D
S1131E501CAE1DAE1EAE1FAEE097AC961CAE1DAE02
S1131E601EAE1FAEAC9769961FAE699791E060965F
S1131E709FAF609768961CAE1DAE1EAE1FAE6897EE
S1131E802F961CAE1DAE1EAE1FAE2F971BA61CA612
S1131E901DA61EA61CAE1DAE1EAE1FAE18AE19AEFC
S1131EA01AAE1BAE61961FAE619762961FAE629723
S1131EB063961FAE639764961FAE64971FA218A61D
S1131EC0A8ECA9A7B2E4BAA71BAA1CAA26E92DABC1
S1131ED043E44EAB84E6E1968FAFE19780911C1A00
S1131EE0882309F4D9C7F89440911D1A10921D1A39
S1131EF010911E1A10921E1A7894BE016E5E7F4FC6
S1131F008E890E94851A412FBE016C5E7F4F8F8996
S1131F100E949A1A20E041E050E060E070E0809175
S1131F20851B9091861B0E9459228A899B899093D4
S1131F30081A8093071A8C899D8990930A1A8093B2
S1131F40091A60E070E08091851B9091861B0E94C5
S1131F50BD2020E04FEF5FEF60E070E08091831BD5
S1131F609091841B0E945922813009F0B7CF20E060
S1131F704FEF5FEF60E070E080918B1B90918C1BC2
S1131F800E9459229091171A9FA7A091181AA8ABE2
S1131F90B091191AB9AB20911A1A2AAB2090151ACC
S1131FA03090161A0091131A1091141A80910F1A76
S1131FB09091101AA091111AB091121A25968CAF13
S1131FC09DAFAEAFBFAF259780910B1A90910C1ABD
S1131FD0A0910D1AB0910E1A2B968CAF9DAFAEAF97
S1131FE0BFAF2B9760E070E080918B1B90918C1BAE
S1131FF00E94BD2020E040E050E0BE016F5F7F4FB3
S11320008091231A9091241A0E945922813009F058
S113201057C020E030E040E251E469817A818B814D
S11320209C810E946B3668AF79AF8AAF9BAF20E08A
S113203030E040E251E46D817E818F8198850E9479
S11320406B366CAF7DAF8EAF9FAFB101032C000C2C
S1132050880B990B0E945235AC966CAF7DAF8EAF56
S11320609FAFAC97B801012E000C880B990B0E940E
S11320705235E0966CAF7DAF8EAF9FAFE0977FA5F2
S113208068A999A98AA9272F362F492F582F6BA5FC
S11320907CA58DA59EA50E94E933688F798F8A8FD0
S11320A09B8FA7969FADA7979F5FA7969FAFA79774
S11320B0A1E06A96AFAF6A971FAA26961FAE26972D
S11320C0B101032C000C880B990B0E9452359B0123
S11320D0AC0168AD79AD8AAD9BAD0E94E9334B018B
S11320E05C01B801012E000C880B990B0E9452353B
S11320F09B01AC016CAD7DAD8EAD9FAD0E94E9330B
S11321006B017C01A5019401C501B4010E946B36E9
S11321106C8F7D8F8E8F9F8FA7019601C701B601AB
S11321200E946B362B013C01A30192016C8D7D8DC5
S11321308E8D9F8D0E94EA330E94D8366C8F78A3CF
S113214089A39AA3A5019401C701B6010E945D3435
S11321506BA77CA78DA79EA78A859B85AC85BD852B
S11321608BA39CA3ADA3BEA37FA568A999A98AA9A3
S1132170272F362F492F582F6BA57CA58DA59EA5FB
S11321800E94E9334B015C016A877B878C879D87BA
S1132190CE010A960E94D807CA84DB84EC84FD84AD
S11321A026013701E89477F829E134E046E05FE35B
S11321B0C301B2010E94603618167CF022E73AE8A7
S11321C04EE85CE3C301B2010E94B034882344F4B6
S11321D091E060969FAF609703C060961FAE6097D2
S11321E0A70196016BA17CA18DA19EA10E94E93358
S11321F06B017C012BED3FE049EC5FE30E9460360C
S1132200181654F02BED3FE049EC5FEBC701B60123
S11322100E94B03488234CF4888E998EAA8EBB8E8B
S1132220BC8CA8A099A08AA036C0AC962CAD3DADBC
S11322304EAD5FADAC9768AD79AD8AAD9BAD0E94F4
S1132240E9334B015C01E0962CAD3DAD4EAD5FAD85
S1132250E0976CAD7DAD8EAD9FAD0E94E9336B010F
S11322607C01A5019401C501B4010E946B364B01A8
S11322705C01A7019601C701B6010E946B369B0160
S1132280AC01C501B4010E94EA330E94D836B62ECF
S1132290A72E982E892ECE0148960E94D807C88C66
S11322A0D98CEA8CFB8CE894F7F8C88ED98EEA8E28
S11322B0FB8E20E030E0A9016B2D7A2D892D982D1D
S11322C00E94603618160CF086C02FA138A549A5C7
S11322D05AA56BA97CA98DA99EA90E94EA339B01EA
S11322E0AC016B2D7A2D892D982D0E94B034882352
S11322F00CF098C020E030E040E85EE36B2D7A2DCE
S1132300892D982D0E946B36762E672E582E492ED5
S113231020E030E040E450E46B2D7A2D892D982D97
S11323200E946B3620E030E040E85EE30E946B36AA
S1132330A2966FAFA297A3967FAFA397A4968FAFF1
S1132340A497A5969FAFA5972FA138A549A55AA5EF
S1132350672D762D852D942D0E94B7346BA36B9633
S11323607FAF6B976C968FAF6C976D969FAF6D97A1
S11323702BA93CA94DA95EA9A2966FADA297A396DD
S11323807FADA397A4968FADA497A5969FADA5976F
S11323900E94B7346E966FAF6E976F967FAF6F974C
S11323A0A0968FAFA097A1969FAFA1977FA268A692
S11323B059A64AA6A296AFADA297ABABA396BFAD62
S11323C0A397BCABA4962FADA4972DABA5964FAD08
S11323D0A5974EAB4DC06E961FAE6E976F961FAE0F
S11323E06F9780E8A0968FAFA0979FE3A1969FAFC9
S11323F0A1971BA26B961FAE6B97A0E86C96AFAF2C
S11324006C97BFE36D96BFAF6D971FA218A628EC1B
S113241029A742E44AA71BAA1CAA86E98DAB93E428
S11324209EAB26C06E961FAE6E976F961FAE6F97CB
S1132430A0E8A096AFAFA097BFE3A196BFAFA197C6
S11324401BA26B961FAE6B9720E86C962FAF6C9710
S11324504FE36D964FAF6D971FA218A688EC89A71E
S113246092E49AA71BAA1CAAA6E9ADABB3E4BEAB3F
S113247020E030E040E751E46C8D78A189A19AA175
S11324800E94603618160CF0B9C460962FAD6097A0
S1132490222309F46CC22C8D38A149A15AA16B2DB9
S11324A07A2D892D982D0E94E9334B015C0120E09F
S11324B030E0A9010E94603688230CF4B3C0A50162
S11324C094016FA178A589A59AA50E9460368823F6
S11324D00CF4A8C0E4964FADE497411133C020E05A
S11324E030E040E751E4C501B4010E94B0348823D0
S11324F044F4A6968FADA6978F5FA6968FAFA69746
S113250042C0A6969FADA697965FE1969FAFE197CE
S11325101F92A696AFADA697AF938EE196E09F93D8
S11325208F930E94EB240F900F900F900F90A6961C
S1132530BFADA6972196BFAF219721E0E4962FAFB8
S1132540E49721C020E030E0A90125966CAD7DAD73
S11325508EAD9FAD25970E94B034882369F020E0AA
S113256030E0A9012B966CAD7DAD8EAD9FAD2B9760
S11325700E94B034811107C027964FAD27974E5F54
S113258027964FAF279727968FAD2797682F70E030
S1132590A6969FADA697690F711D072E000C880B98
S11325A0990B0E9452352B013C019B01AC0160E068
S11325B070E088EC92E40E94E93320E030E048ECDB
S11325C052E40E94B7346B017C01E196AFADE19710
S11325D06A2F70E080E090E00E9452352BA16B9648
S11325E03FAD6B976C964FAD6C976D965FAD6D97E5
S11325F00E946B369B01AC01C701B6010E946B3689
S1132600A50194010E946B362FA138A549A55AA5AE
S11326100E94B734A30192010E94EA330E94243538
S1132620162FC2C02C8D38A149A15AA16BA97CA92F
S11326308DA99EA90E94603618160CF0B2C020E045
S113264030E048E452E46C8D78A189A19AA10E94FB
S1132650603618165CF520E030E0A90125966CADD3
S11326607DAD8EAD9FAD25970E94B034882391F047
S113267020E030E0A9012B966CAD7DAD8EAD9FAD11
S11326802B970E94B034811109C0B2E02796BFAFE6
S1132690279704C022E027962FAF279727961FADD0
S11326A02797A6964FADA697140F7EC02C8D38A100
S11326B049A15AA161966FAD619762967FAD629709
S11326C063968FAD639764969FAD64970E94B03410
S11326D081110EC0A6968FADA697E3969FADE397A2
S11326E0891B27968FAF27979B5FE3969FAFE3974E
S11326F02796AFAD27976A2F70E0E396BFADE397B7
S11327006B0F711D072E000C880B990B0E9452351C
S11327104B015C019B01AC0160E070E088EC92E449
S11327200E94E93320E030E048EC52E40E94B734E0
S11327306B017C01E1962FADE197622F70E080E0A0
S113274090E00E9452356E962FAD6E976F963FAD16
S11327506F97A0964FADA097A1965FADA1970E94E9
S11327606B369B01AC01C701B6010E946B366B014D
S11327707C012BA93CA94DA95EA96C8D78A189A1E6
S11327809AA10E94B7349B01AC01C701B6010E9413
S11327906B36A50194010E94EA330E942435162F5A
S11327A003C0E1961FADE1978A849B84AC84BD8409
S11327B020E030E0A901C501B4010E9460368823FD
S11327C00CF454C0012F10E0B801012E000C880B4A
S11327D0990B0E9452356B017C01C501B4019F77AE
S11327E020E030E046E154E40E946B369B01AC01EA
S11327F0C701B6010E94E9336B017C0120E030E09F
S113280040E251E42F966CAD7DAD8EAD9FAD2F9718
S11328100E946B369B01AC01C701B6010E94E933EB
S11328200E941F357F876E878E859F85081719073D
S11328301CF41F870E8706C08E859F85992314F488
S11328401F861E86198B088B20E030E0A90125968F
S11328506CAD7DAD8EAD9FAD25970E94B0348111D6
S113286058C0015F1F4F198B088B53C0012F10E014
S1132870B801012E000C880B990B0E9452356B0194
S11328807C01C501B4019F7720E030E046E154E4C7
S11328900E946B369B01AC01C701B6010E94E9336B
S11328A06B017C0120E030E040E251E468966CADBD
S11328B07DAD8EAD9FAD68970E946B369B01AC01D8
S11328C0C701B6010E94E9330E941F35798B688BDA
S11328D088899989081719071CF4198B088B06C075
S11328E088899989992314F4198A188A1F870E876D
S11328F020E030E0A9012B966CAD7DAD8EAD9FAD8F
S11329002B970E94B034811104C0015F1F4F1F87B1
S11329100E87CA84DB84EC84FD84A70196012F967C
S11329206CAD7DAD8EAD9FAD2F970E94EA332F968F
S11329306CAF7DAF8EAF9FAF2F97A70196016896BE
S11329406CAD7DAD8EAD9FAD68970E94E9336896FE
S11329506CAF7DAF8EAF9FAF689786E08F8B84E0BE
S11329608E8B81E0898726961FAE269738C28A858A
S11329709B85AC85BD859C01AD015F77C701B60120
S11329800E94E9336B017C01A8964FADA8974111D1
S113299028C029E134E046E85EE30E94B03418160A
S11329A02CF4E2968FADE297882341F021969FADF7
S11329B021979F5F21969FAF219713C01F92219665
S11329C0AFAD2197AF9389E496E09F938F930E94D4
S11329D0EB240F900F900F900F90B1E0A896BFAF2B
S11329E0A89720E030E0A90125966CAD7DAD8EADB1
S11329F09FAD25970E94B034882391F020E030E009
S1132A00A9012B966CAD7DAD8EAD9FAD2B970E9429
S1132A10B03481112CC0A8962FADA897222359F168
S1132A2026964FAD26974D5F26964FAF2697463193
S1132A3028F121968FAD21978C5E21968FAF219737
S1132A401F928F938AE296E09F938F930E94EB24C8
S1132A500F900F900F900F9091E0E2969FAFE29746
S1132A60A8961FAEA89726961FAE269707C0E29693
S1132A701FAEE29703C0E2961FAEE2976A96AFAD2F
S1132A806A97A130A9F42196BFAD2197B33880F09D
S1132A901F92BF938EE396E09F938F930E94EB2443
S1132AA00F900F900F900F90B4E62196BFAF21972F
S1132AB020E030E040E85EE3688D798D8A8D9B8D5F
S1132AC00E946B369B01AC01C701B6010E94B03471
S1132AD088230CF0D6C0A8962FADA897211163C007
S1132AE020E030E0A9016A857B858C859D850E9464
S1132AF06036882364F126964FAD2697242F30E064
S1132B002196AFAD21978A2F90E0A901481B590B5C
S1132B105F874E8745E04E8B820F931F998B888B7E
S1132B2086E08F8B84E089876A961FAE6A97279622
S1132B301FAE279768961CAE1DAE1EAE1FAE6897DB
S1132B402F961CAE1DAE1EAE1FAE2F9748C1219608
S1132B50BFAD21972B2F30E026964FAD2697842FBB
S1132B6090E0A901480F591F5F874E8744E04E8BC0
S1132B70821B930B998B888B85E08F8B83E08987ED
S1132B806A961FAE6A9727961FAE279768961CAE63
S1132B901DAE1EAE1FAE68972F961CAE1DAE1EAEA8
S1132BA01FAE2F971CC120E030E0A9016A857B8508
S1132BB08C859D850E94603688238CF121968FAD8B
S1132BC02197282F30E02696AFAD26978A2F90E0E4
S1132BD04AE050E0421B530B480F591F5F874E8752
S1132BE045E04E8B2A503109820F931F998B888BB5
S1132BF086E08F8B84E089876A961FAE6A97279652
S1132C001FAE279768961CAE1DAE1EAE1FAE68970A
S1132C102F961CAE1DAE1EAE1FAE2F97E0C02196A0
S1132C20BFAD21974B2F50E026962FAD2697822FCC
S1132C3090E09A012A503109280F391F3F872E87C7
S1132C4024E02E8B2AE030E0241B350B820F931FE7
S1132C50998B888B85E08F8B83E089876A961FAE7A
S1132C606A9727961FAE279768961CAE1DAE1EAEB8
S1132C701FAE68972F961CAE1DAE1EAE1FAE2F97CB
S1132C80AEC0CA84DB84EC84FD8420E030E0A9017A
S1132C90C701B6010E94603688230CF450C0219607
S1132CA04FAD2197042F10E00E51110926968FADD8
S1132CB02697080F111DC701B6019F7724EE37EB45
S1132CC04BE451E40E946B366B017C016627772745
S1132CD0601B710B072E000C880B990B0E94523558
S1132CE0A70196010E94EA330E941F357F876E87F1
S1132CF085E08E8BB801110F880B990B0E94523519
S1132D00A70196010E94EA330E941F35798B688BD4
S1132D1086E08F8B84E089876A961FAE6A97279630
S1132D201FAE279768961CAE1DAE1EAE1FAE6897E9
S1132D302F961CAE1DAE1EAE1FAE2F9750C021960F
S1132D409FAD2197092F10E00E5111092696AFADC2
S1132D5026970A0F111DC701B6019F7724EE37EBA2
S1132D604BE451E40E946B366B017C01B801012EE7
S1132D70000C880B990B0E945235A70196010E9402
S1132D80EA330E941F357F876E8784E08E8B662727
S1132D907727601B710B072E000C880B990B0E9480
S1132DA05235A70196010E94EA330E941F35798BA0
S1132DB0688B85E08F8B83E089876A961FAE6A975C
S1132DC027961FAE279768961CAE1DAE1EAE1FAE8B
S1132DD068972F961CAE1DAE1EAE1FAE2F97688946
S1132DE079898E859F859E01295E3F4FAE014A5E9B
S1132DF05F4F64D369961FAE699732C06996BFADC1
S1132E006997B11106C00E94C72421E069962FAFCB
S1132E1069974FA94436F1F4A7968FADA7978823F5
S1132E20C9F09AA99F93A9A9AF93B8A9BF932FA555
S1132E302F931F930F933F922F9285E596E09F93D4
S1132E408F930E94EB240FB6F894DEBF0FBECDBF64
S1132E501FAA03C09FA99F5F9FAB1FD322D31986CC
S1132E6020E040E050E0BE01675F7F4F8091211A6F
S1132E709091221AB2D7AC8D6196AFAF6197B8A189
S1132E806296BFAF629729A163962FAF63974AA159
S1132E9064964FAF649722C800D303D31FC8CF935F
S1132EA0DF93CDB7DEB76E970FB6F894DEBF0FBED3
S1132EB0CDBF19821A821B821C820E940A2D9E8316
S1132EC08D831B861C861D861E861B8A1C8A1D8A72
S1132ED01E8A1F86188A198A1A8AE12CF12CC12CA1
S1132EE0D12C68E270E0CE0105960E94B42780914F
S1132EF01C1A882309F41FC120E04FE050E060E071
S1132F0070E08091851B9091861B0E94592220902D
S1132F10071A3090081A0091091A10910A1A60E0F1
S1132F2070E08091851B9091861B0E94BD20B101A9
S1132F306C197D09072E000C880B990B0E945235E1
S1132F4028EF33E543EA5FE30E946B362B013C0133
S1132F50B8016E197F09072E000C880B990B0E948B
S1132F60523528EF33E543EA5FE30E946B364B01A9
S1132F705C019B01AC01C301B2010E94EA3320E071
S1132F8030E040E05FE30E946B366F8B788F898F6F
S1132F909A8F0E94F10B2B853C854D855E850E949E
S1132FA0E9336B017C01A3019201C501B4010E94C4
S1132FB0E93320E030E047E153E40E94B73420E0F5
S1132FC030E040E050E00E946B366F837887898759
S1132FD09A8724ED32E047E35AE3C701B6010E9421
S1132FE06B362F81388549855A850E94EA336F8371
S1132FF0788789879A87C980DA80EB80FC8020E013
S113300030E040E05FE30E946B36A70196010E9426
S1133010EA336B8F7C8F8D8F9E8F0E94B4349B011B
S1133020AC016F89788D898D9A8D0E946B369B01D6
S1133030AC016F85788989899A890E94EA336F8700
S1133040788B898B9A8B6B8D7C8D8D8D9E8D0E9458
S1133050CE369B01AC016F89788D898D9A8D0E9443
S11330606B369B01AC016B897C898D899E890E949A
S1133070EA336B8B7C8B8D8B9E8BA70196016F81C2
S1133080788589859A850E94EA3369837A838B835C
S11330909C83CE0101960E94D80720E04FE050E0C7
S11330A060E070E080918B1B90918C1B0E945922F0
S11330B089819A81AB81BC818093171A9093181AE5
S11330C0A093191AB0931A1A6F85788989899A89F5
S11330D00E941F357093161A6093151A6B897C89A8
S11330E08D899E890E941F357093141A6093131A58
S11330F040920F1A5092101A6092111A7092121A7A
S113310080920B1A90920C1AA0920D1AB0920E1A79
S113311060E070E080918B1B90918C1B0E94BD201D
S113312060E070E08091831B9091841B0E94BD201D
S113313078016101D6CE05E610E0812C912CA12CFA
S1133140B12C0E94F10B9B01AC01682D792D8A2DC5
S11331509B2D0E94EA33862E972EA82EB92E01505D
S1133160110979F720E030E04AEC52E40E94B734C8
S11331706B877C878D879E87B4CEF894FFCFCF93DF
S1133180DF931F921F92CDB7DEB785B78F7785BFC8
S11331900E94F40B80E090E00E94FA0B0E94073337
S11331A031D20E94430189EF93E20E94F72580E027
S11331B00E946F250E94A507EDD00E946A0A0E9412
S11331C0A1099A83898340E068E081E032D4909336
S11331D0241A8093231A40E061E081E02AD490937A
S11331E0221A8093211A40E061E082E022D4909375
S11331F0201A80931F1A81E06ED490938C1B8093C5
S11332008B1B81E068D49093881B8093871B81E09B
S113321062D49093861B8093851B43E060E081E039
S113322008D49093841B8093831B43E060E081E087
S113323000D490938A1B8093891BA12CB12CC12CA0
S1133240D12CE12CF12C03E020E030E04CE251E001
S113325063E776E088EB9CE00E94982602E020E099
S113326030E040E951E068E776E08FED9EE00E94AF
S1133270982604E020E030E04EE551E060E876E096
S11332808FE497E10E94982601E020E030E04CE2D0
S113329051E068E876E087E79DE00E9498260E9466
S11332A0A1099A838983789480E090E00E94140CA9
S11332B00E94DC2A80E090E00E94FA0B82E090E019
S11332C00E94FA0B0EE816E0F8941F930F930E94E5
S11332D0EB240F900F90F8CF1F920F920FB60F921E
S11332E011248F9380911D1A8F5F80931D1A8F91E3
S11332F00F900FBE0F901F9018951F920F920FB64C
S11333000F9211248F9380911E1A8F5F80931E1A3F
S11333108F910F900FBE0F901F9018951F920F92D0
S11333200FB60F9211240BB60F922F933F934F9326
S11333305F936F937F938F939F93AF93BF93EF9319
S1133340FF93649B0CC010921C1A10921B1A60E02D
S113335070E08091891B90918A1B0E942E2260E06C
S113336070E08091831B9091841B0E942E22FF9118
S1133370EF91BF91AF919F918F917F916F915F91E9
S11333804F913F912F910F900BBE0F900FBE0F9056
S11333901F901895E1E0F1E0808180638083269A94
S11333A084B1806684B9279A2F982E9885B18F7935
S11333B085B9E2E0F1E080818F7C80838AB18AB9AB
S11333C08BB18C608BB96C988DB38DBBE9E6F0E062
S11333D08081806F8083EAE6F0E080818160808371
S11333E08CE18CBB8DB38C618DBB84B5806884BD4E
S11333F0E0E8F0E080818062808384B5836084BDEE
S113340085B585BD808181608083A1E8B0E08C9121
S113341088608C9385B5856085BD8C9185608C931F
S113342080818083E0EBF0E08081808380818083F1
S1133430E0EAF0E080818083089587BD2C9A2D987E
S113344084E0FB018083089590E090938B00809347
S11334508A00E2E0F1E080818064808380818F7D56
S1133460808386E0FB018083089587BD2C982D9A84
S113347085E0FB018083089590E090938B00809316
S11334808A00E2E0F1E080818F7B8083808180622A
S1133490808385E0FB018083089517BC2C982D98C8
S11334A0089510928B0010928A00E2E0F1E080818E
S11334B08F7B808380818F7D808308950F931F93FA
S11334C0CF93DF93EB018901181619061CF4BA0196
S11334D0B4DF07C0992324F4BA018195C6DF01C083
S11334E0DCDF1C161D0624F4B8018C2FADDF08C0E8
S11334F0DD232CF4B8018C2F8195BEDF01C0D1DF10
S1133500DF91CF911F910F910895843019F0853088
S113351049F00895FB0180819181840F911D91836D
S113352080830895FB0180819181841B910991839B
S113353080830895853051F0863079F4FB018081D1
S11335409181840F911D918380830895FB01808173
S11335509181841B9109918380830895EF92FF9256
S11335600F931F93CF93DF937C01C62FD0E0CE013E
S11335700E9427088C019E0121503109A701BE0138
S11335800E940407882321F0C8010E94310933C036
S1133590862F972FEC01F801E80FF91F3197F0807F
S11335A06FEF680FC8010E948E07F81621F0C8015A
S11335B00E94310920C0D8018C91833021F0C801C8
S11335C00E94310918C0AE0144505109B8016D5F21
S11335D07F4FD8011296EC911297F0E0EE0FFF1F87
S11335E0E955F44E0190F081E02D11968C911995D6
S11335F0C8010E943109DF91CF911F910F91FF9073
S1133600EF9008958EEA9AE10C947833089582300D
S113361040F4E82FF0E0EE0FFF1FE955F44E7183FC
S1133620608308958F929F92AF92BF92CF92DF9260
S1133630EF92FF920F931F93CF93DF93882E962ED2
S11336405A018901690184E0C80ED11CC6010E9497
S11336502708EC01C80106960E9427087C012097E0
S113366011F0892B41F4CE010E943109C7010E9457
S1133670310980E03CC0888283E089839A82A80172
S1133680B501CE0103960E94E13B5801E3E0AE0E82
S1133690B11CAC0EBD1E63E0600FCE010E948E070C
S11336A0F5018083B8016B5F7F4F9601AE01C701BE
S11336B00E949E06882341F0CE010E943109C70171
S11336C00E94310980E013C0862F972FF701E80F7D
S11336D0F91F1082BC016F5F7F4FC7010E945433F2
S11336E0CE010E943109C7010E94310981E0DF91B6
S11336F0CF911F910F91FF90EF90DF90CF90BF90EB
S1133700AF909F908F90089531E1FC013083319701
S113371022E220833197A3E3A0833197608331971A
S113372070833197108231971082319760E86083FB
S1133730319710823197108231971082319762E06D
S11337406083319763E06083319764E060833197ED
S113375065E06083319766E06083319767E060835A
S1133760319768E06083319769E06083319760E165
S1133770608331973083319732E13083319733E17D
S11337803083319734E13083319735E13083319799
S113379036E13083319737E13083319738E1308334
S11337A0319739E13083319730E23083319731E218
S11337B0308331972083319723E2208331974083EC
S11337C031975083319726E22083319727E2208373
S11337D0319728E22083319729E22083319720E32F
S11337E02083319721E320838997089588EE93E01D
S11337F09093BC1B8093BB1B9093BE1B8093BD1BFB
S11338001092990089EF809398008BE08093910047
S1133810E1E7F0E0808182608083A091F91AB091A1
S1133820FA1ACD91CDBFDD91DEBFFF91EF91DF910B
S1133830CF91BF91AF919F918F917F916F915F9144
S11338404F913F912F911F910F91FF90EF90DF9037
S1133850CF90BF90AF909F908F907F906F905F902C
S11338604F903F902F901F900F900CBE0F900BBE67
S11338700F900FBE0F90089581E008950F920FB638
S1133880F8940F920BB60F920CB60F921F9211245C
S11338902F923F924F925F926F927F928F929F925C
S11338A0AF92BF92CF92DF92EF92FF920F931F934A
S11338B02F933F934F935F936F937F938F939F9334
S11338C0AF93BF93CF93DF93EF93FF93A091F91A34
S11338D0B091FA1A0DB60D920EB60D920E94D52D26
S11338E0A091F91AB091FA1ACD91CDBFDD91DEBF46
S11338F0FF91EF91DF91CF91BF91AF919F918F9104
S11339007F916F915F914F913F912F911F910F91F3
S1133910FF90EF90DF90CF90BF90AF909F908F90EB
S11339207F906F905F904F903F902F901F900F90DB
S11339300CBE0F900BBE0F900FBE0F9008950F9208
S11339400FB6F8940F920BB60F920CB60F921F920B
S113395011242F923F924F925F926F927F928F9297
S11339609F92AF92BF92CF92DF92EF92FF920F930A
S11339701F932F933F934F935F936F937F938F93F3
S11339809F93AF93BF93CF93DF93EF93FF93A09154
S1133990F91AB091FA1A0DB60D920EB60D9213BE25
S11339A08091BD1B9091BE1B01979093BE1B809389
S11339B0BD1B892B41F48091BB1B9091BC1B909340
S11339C0BE1B8093BD1B0E94142D81110E94D52D16
S11339D0A091F91AB091FA1ACD91CDBFDD91DEBF55
S11339E0FF91EF91DF91CF91BF91AF919F918F9113
S11339F07F916F915F914F913F912F911F910F9103
S1133A00FF90EF90DF90CF90BF90AF909F908F90FA
S1133A107F906F905F904F903F902F901F900F90EA
S1133A200CBE0F900BBE0F900FBE0F90089587DF52
S1133A3018950F931F93CF93DF93082F162F6623A8
S1133A4009F43BC0869FC001112480960E94270878
S1133A50EC01009721F439C0D983C88303C04F9681
S1133A60998388830B8F1C8F0FB6F8940F9248812B
S1133A7059812C8D30E06B8D629FC001639F900D46
S1133A801124BA01680F791F7B836A831A8E5D83C0
S1133A904C83821B930B840F951F9F838E838FEF20
S1133AA08D8F8E8FCE0108960E942E0CCE014196EA
S1133AB00E942E0C0F900FBE08C08FE190E00E9470
S1133AC02708EC01892B09F0C7CFCE01DF91CF91F4
S1133AD01F910F9108959F92AF92BF92CF92DF9260
S1133AE0EF92FF920F931F93CF93DF9300D01F9217
S1133AF01F92CDB7DEB78FE190E00E9427088C01BA
S1133B00009709F458C1FC011382128211821082B9
S1133B101582148217821682128E81E0838F148E8E
S1133B208FEF858F868F7801F8E0EF0EF11CC701C7
S1133B300E942E0C680181E1C80ED11CC6010E94AE
S1133B402E0C1D821C82A12C99249394BB24BA941C
S1133B500FB6F8940F92F801928D838D9817F0F4B4
S1133B6080819181892B09F01DC1828193810E94FA
S1133B70B12FF80113821282928D9F5F928F9189E7
S1133B80992339F0C6010E94B82E813021F476DEE3
S1133B9002C0811173DE0F900FBE0DC18C819D8117
S1133BA0892B19F40F900FBE06C1A11005C0CE01D8
S1133BB001960E94002FA92C0F900FBE0E94C92BC2
S1133BC00FB6F8940F92F801858D8F3F09F4158E86
S1133BD0F801868D8F3F09F4168E0F900FBEBE013B
S1133BE06C5F7F4FCE0101960E940B2F811196C00E
S1133BF00FB6F8940F92F801928D838D0F900FBE3B
S1133C0098134AC06C817D81C7010E945D2E0FB656
S1133C10F8940F92F801868D1816ACF481898111FD
S1133C2005C011C0F8018189882369F0C6010E948A
S1133C30B82E81110E94462FF801868D8150868FFF
S1133C40868D18167CF3F801B68E0F900FBE0FB652
S1133C50F8940F92858D1816ACF48085811105C0F7
S1133C6011C0F8018085882369F0C7010E94B82E2D
S1133C7081110E94462FF801858D8150858F858D95
S1133C8018167CF3F801B58E0F900FBE0E94CF2B4F
S1133C9081115ECFF3DD5CCF0FB6F8940F92F8017B
S1133CA0868D1816ACF48189811105C011C0F80104
S1133CB08189882369F0C6010E94B82E81110E946F
S1133CC0462FF801868D8150868F868D18167CF3D9
S1133CD0F801B68E0F900FBE0FB6F8940F92858D33
S1133CE01816ACF48085811105C011C0F8018085D7
S1133CF0882369F0C7010E94B82E81110E94462FC3
S1133D00F801858D8150858F858D18167CF3F80117
S1133D10B58E0F900FBE0E94CF2B1ACF0FB6F8941A
S1133D200F92F801868D1816ACF48189811105C0B3
S1133D3011C0F8018189882369F0C6010E94B82E58
S1133D4081110E94462FF801868D8150868F868DC1
S1133D5018167CF38FEFF801868F0F900FBE0FB605
S1133D60F8940F92858D1816ACF48085811105C0E6
S1133D7011C0F8018085882369F0C7010E94B82E1C
S1133D8081110E94462FF801858D8150858F858D84
S1133D9018167CF38FEFF801858F0F900FBE0E94E9
S1133DA0CF2B09C0F801828D8F5F828F8189882390
S1133DB009F4F1CEE7CEC8010F900F900F900F9049
S1133DC00F90DF91CF911F910F91FF90EF90DF90B3
S1133DD0CF90BF90AF909F9008956F927F928F92F3
S1133DE09F92AF92BF92CF92DF92EF92FF920F9386
S1133DF01F93CF93DF9300D01F921F92CDB7DEB7EE
S1133E008C015B015D834C83722E812C6624639448
S1133E1099249A947C0188E0E80EF11C6801E1E1A0
S1133E20CE0ED11C0FB6F8940F92F801928D838DAB
S1133E30981720F0F2E07F126EC07DC1F801448D26
S1133E40411115C0F80180819181892B09F079C154
S1133E50828193810E94B12FF80113821282928D84
S1133E609F5F928F9189992309F44FC046C07110C6
S1133E701AC050E0B501F801848195810E94E13BAC
S1133E80F801248D84819581820F911D958384830B
S1133E90228133818217930708F453C18081918171
S1133EA0958384834EC150E0B501F80186819781E2
S1133EB00E94E13BF801848D90E0919581959109F0
S1133EC026813781280F391F37832683408151810A
S1133ED02417350730F422813381820F931F97838F
S1133EE08683F2E07F122DC1F801828D882309F4C4
S1133EF028C1828D8150828F24C1C80141960E94BD
S1133F00B82E813021F4BADC02C08111B7DC0F90E5
S1133F100FBE81E01EC18C819D81892B21F40F90FD
S1133F200FBE80E016C1811005C0CE0101960E942B
S1133F30002F862C0F900FBE0E94C92B0FB6F89449
S1133F400F92F801858D8F3F09F4158EF801868D47
S1133F508F3F09F4168E0F900FBEBE016C5F7F4F2A
S1133F60CE0101960E940B2F811196C00FB6F894D2
S1133F700F92F801928D838D0F900FBE98134AC053
S1133F806C817D81C7010E945D2E0FB6F8940F925B
S1133F90F801868D1816ACF48189811105C011C011
S1133FA0F8018189882369F0C6010E94B82E811125
S1133FB00E94462FF801868D8150868F868D1816B3
S1133FC07CF3F801968E0F900FBE0FB6F8940F9203
S1133FD0858D1816ACF48085811105C011C0F801D7
S1133FE08085882369F0C7010E94B82E81110E9440
S1133FF0462FF801858D8150858F858D18167CF3A9
S1134000F801958E0F900FBE0E94CF2B81110ACF1D
S113401035DC08CF0FB6F8940F92F801868D181688
S1134020ACF48189811105C011C0F801818988230C
S113403069F0C6010E94B82E81110E94462FF80132
S1134040868D8150868F868D18167CF3F801968EA6
S11340500F900FBE0FB6F8940F92858D1816ACF41E
S11340608085811105C011C0F8018085882369F01D
S1134070C7010E94B82E81110E94462FF801858D38
S11340808150858F858D18167CF3F801958E0F90DD
S11340900FBE0E94CF2BC6CE0FB6F8940F92F80134
S11340A0868D1816D4F48189811106C016C0F801D2
S11340B08189811105C011C07801F1E1EF0EF11C75
S11340C0C7010E94B82E81110E94462FF801868DE7
S11340D08150868F868D181654F38FEFF801868FE2
S11340E00F900FBE0FB6F8940F92858D1816D4F466
S11340F08085811106C016C0F8018085811105C034
S113410011C07801F8E0EF0EF11CC7010E94B82E2F
S113411081110E94462FF801858D8150858F858DF0
S1134120181654F38FEFF801858F0F900FBE0E947D
S1134130CF2B80E00EC0F801448D442309F482CED5
S1134140B2CEF801828D8F5F828F81898111D5CEA5
S1134150DECE0F900F900F900F900F90DF91CF91C4
S11341601F910F91FF90EF90DF90CF90BF90AF9091
S11341709F908F907F906F9008959F92AF92BF927F
S1134180CF92DF92EF92FF920F931F93CF93DF931F
S113419000D01F921F92CDB7DEB78C017D836C8354
S11341A0A12C99249394BB24BA947C0188E0E80E52
S11341B0F11C6801E1E1CE0ED11C0FB6F8940F9208
S11341C0F801928D838D981700F580819181892B58
S11341D009F02BC1828193810E94B12FF8011382CF
S11341E01282928D9F5F928F9189992341F0C80129
S11341F041960E94B82E813021F440DB02C0811127
S11342003DDB0F900FBE81E018C18C819D81892B0D
S113421021F40F900FBE80E010C1A11005C0CE01A3
S113422001960E94002FA92C0F900FBE0E94C92B4B
S11342300FB6F8940F92F801858D8F3F09F4158E0F
S1134240F801868D8F3F09F4168E0F900FBEBE01C4
S11342506C5F7F4FCE0101960E940B2F811196C097
S11342600FB6F8940F92F801928D838D0F900FBEC4
S113427098134AC06C817D81C7010E945D2E0FB6E0
S1134280F8940F92F801868D1816ACF48189811187
S113429005C011C0F8018189882369F0C6010E9414
S11342A0B82E81110E94462FF801868D8150868F89
S11342B0868D18167CF3F801B68E0F900FBE0FB6DC
S11342C0F8940F92858D1816ACF48085811105C081
S11342D011C0F8018085882369F0C7010E94B82EB7
S11342E081110E94462FF801858D8150858F858D1F
S11342F018167CF3F801B58E0F900FBE0E94CF2BD9
S113430081115BCFBBDA59CF0FB6F8940F92F80145
S1134310868D1816ACF48189811105C011C0F8018D
S11343208189882369F0C6010E94B82E81110E94F8
S1134330462FF801868D8150868F868D18167CF362
S1134340F801B68E0F900FBE0FB6F8940F92858DBC
S11343501816ACF48085811105C011C0F801808560
S1134360882369F0C7010E94B82E81110E94462F4C
S1134370F801858D8150858F858D18167CF3F801A1
S1134380B58E0F900FBE0E94CF2B17CF0FB6F894A7
S11343900F92F801868D1816D4F48189811106C014
S11343A016C0F8018189811105C011C07801F1E1BD
S11343B0EF0EF11CC7010E94B82E81110E94462FF6
S11343C0F801868D8150868F868D181654F38FEFF1
S11343D0F801868F0F900FBE0FB6F8940F92858D5B
S11343E01816D4F48085811106C016C0F8018085A2
S11343F0811105C011C07801F8E0EF0EF11CC7016E
S11344000E94B82E81110E94462FF801858D81509B
S1134410858F858D181654F38FEFF801858F0F90D3
S11344200FBE0E94CF2B80E008C0F801828D8F5F01
S1134430828F81898111DBCEE4CE0F900F900F9093
S11344400F900F90DF91CF911F910F91FF90EF90FC
S1134450DF90CF90BF90AF909F900895CF93DF935C
S1134460FC01928D838D9817D0F4828D8F5F828F9B
S1134470868D8F3F79F48189882399F0EB01CF01F0
S113448041960E94B82E882371F0209771F081E044
S113449088830CC0868D8F5F868F81E007C080E0A3
S11344A005C081E003C081E001C081E0DF91CF91CC
S11344B008956F927F928F929F92AF92BF92CF9204
S11344C0DF92EF92FF920F931F93CF93DF9300D06D
S11344D01F921F92CDB7DEB78C015B015D834C83C5
S11344E0622E812C7724739499249A946C0188E029
S11344F0C80ED11C7801E1E1EE0EF11C0FB6F89460
S11345000F92F801828D882309F445C0E680F78074
S1134510448D4423A9F050E0C701840F951F97836D
S11345208683228133818217930720F080819181D1
S113453097838683F80166817781C5010E94E13BF8
S1134540611019C0F801828D8150828F8081918120
S1134550892B29F40E94F12FF80193838283F801B7
S113456080858823A1F0C80108960E94B82E813066
S113457071F484D90CC0F801F782E682818988231A
S113458031F0C80141960E94B82E811177D90F905D
S11345900FBE81E01AC18C819D81892B21F40F907B
S11345A00FBE80E012C1811005C0CE0101960E94A9
S11345B0002F872C0F900FBE0E94C92B0FB6F894C2
S11345C00F92F801858D8F3F09F4158EF801868DC1
S11345D08F3F09F4168E0F900FBEBE016C5F7F4FA4
S11345E0CE0101960E940B2F8111A2C00FB6F89440
S11345F00F92F801828D0F900FBE811157C08081F8
S11346009181892B49F40FB6F8940F92828193819A
S11346100E944F2F0F900FBE6C817D81C7010E94B5
S11346205D2E0FB6F8940F92F801868D1816ACF42F
S11346308189811105C011C0F8018189882369F03D
S1134640C7010E94B82E81110E94462FF801868D61
S11346508150868F868D18167CF3F801968E0F9004
S11346600FBE0FB6F8940F92858D1816ACF48085A2
S1134670811105C011C0F8018085882369F0C60145
S11346800E94B82E81110E94462FF801858D815019
S1134690858F858D18167CF3F801958E0F900FBECB
S11346A00E94CF2B81112ACFE9D828CF0FB6F894D6
S11346B00F92F801868D1816ACF48189811105C01A
S11346C011C0F8018189882369F0C7010E94B82EBE
S11346D081110E94462FF801868D8150868F868D28
S11346E018167CF3F801968E0F900FBE0FB6F8944F
S11346F00F92858D1816ACF48085811105C011C008
S1134700F8018085882369F0C6010E94B82E8111C2
S11347100E94462FF801858D8150858F858D18164E
S11347207CF3F801958E0F900FBE0E94CF2BE6CE3E
S11347300FB6F8940F92F801868D1816D4F4818977
S1134740811106C016C0F8018189811105C011C00C
S11347507801F1E1EF0EF11CC7010E94B82E81111E
S11347600E94462FF801868D8150868F868D1816FB
S113477054F38FEFF801868F0F900FBE0FB6F894A5
S11347800F92858D1816D4F48085811106C016C049
S1134790F8018085811105C011C07801F8E0EF0EA1
S11347A0F11CC7010E94B82E81110E94462FF80106
S11347B0858D8150858F858D181654F38FEFF80100
S11347C0858F0F900FBEEBD780E00F900F900F9066
S11347D00F900F90DF91CF911F910F91FF90EF9069
S11347E0DF90CF90BF90AF909F908F907F906F900D
S11347F00895AB01009711F410921C1ABC018DE8C6
S11348009BE10E94E13B60E070E08091891B909104
S11348108A1BB3CC08958091251A811104C00E948B
S113482060018093BF1B089528EE33E049EF53E203
S113483060E08091BF1B0E947C018093251A08953B
S1134840CF93DF93CDB7DEB7E4970FB6F894DEBF0E
S11348500FBECDBF8091251A882309F44DC019825B
S113486083E08A8381E492E59C838B8384E490E0F3
S11348709E838D8324EB30E03F832E8385EF90E08D
S11348809987888788E38C878A871B8685E18D874B
S11348908E878F87888B1A8A198A8AE590E09C8B89
S11348A08B8B3E8B2D8B8EE091E0988F8F8B88ECD9
S11348B090E09A8F898F8AE1FE013196DE015B9642
S11348C001900D928A95E1F780910006882359F0B2
S11348D04AE150E0BE01655E7F4F8091BF1B0E949C
S11348E0330281E009C04AE150E0BE01655E7F4FBA
S11348F08091BF1B89D181E0E4960FB6F894DEBFA6
S11349000FBECDBFDF91CF910895AF92CF92EF92BA
S11349100F93CF93DF93CDB7DEB72D970FB6F894EF
S1134920DEBF0FBECDBFE091251AEE2319F1E1E001
S1134930E9839B838A837D836C835F834E8339877A
S113494028870A87EB86CC86AD868091010688236A
S113495051F04DE050E0BE016F5F7F4F8091BF1B6F
S11349600E94330207C04DE050E0BE016F5F7F4FED
S113497080E04AD12D960FB6F894DEBF0FBECDBFAE
S1134980DF91CF910F91EF90CF90AF900895CF9397
S1134990DF931F92CDB7DEB78091251A8823B9F033
S11349A083E0898380910306882351F041E050E03D
S11349B0BE016F5F7F4F8091BF1B0E94330207C00F
S11349C041E050E0BE016F5F7F4F80E01DD10F904A
S11349D0DF91CF910895CF93DF93CDB7DEB7C4565F
S11349E0D1090FB6F894DEBF0FBECDBFAE01465954
S11349F05F4FFA0161917191AF018AE08983CE0121
S1134A0002960E94383C8823C9F020910A0622238A
S1134A1061F09927AC014F5F5F4FBE016F5F7F4F1D
S1134A208091BF1B0E94330209C09927AC014F5FDC
S1134A305F4FBE016F5F7F4F80E0E6D0CC59DF4F00
S1134A400FB6F894DEBF0FBECDBFDF91CF910895AE
S1134A50CF93DF931F92CDB7DEB78091251A8823B9
S1134A60B9F089E0898380910906882351F041E0F7
S1134A7050E0BE016F5F7F4F8091BF1B0E943302E5
S1134A8007C041E050E0BE016F5F7F4F80E0BCD0C3
S1134A900F90DF91CF9108958A3538F080E99BE03B
S1134AA09093AB008093AA000895811107C08DE212
S1134AB095E09093AB008093AA0008959FEF980F20
S1134AC0993560F4E82FF0E0EE0FFF1FE856F94F38
S1134AD0808191819093AB008093AA000895A0EA0D
S1134AE0B0E09C9190629C93E1EAF0E0908198613F
S1134AF090839C9192609C939081926090832FE329
S1134B003CE93093A7002093A600E1E0F1E0908116
S1134B1090619083C1CF0895EF92FF920F931F93FA
S1134B20CF93DF939091271A9F3F11F0981358C0A9
S1134B30FB018081811105C01092291A1092281A54
S1134B400CC090912A1A891741F0E6E2FAE1148226
S1134B50138212828FEF818343C08091281A90912F
S1134B60291A9C0122503109240F351F253631059D
S1134B7040F0E6E2FAE11382128214828FEF81831D
S1134B802FC08A01EB010F2EF6E2EF2EFAE1FF2E81
S1134B90F02DF70124812F5F2483425051096E5F69
S1134BA07F4F855D954E0E94E13BF7014281538121
S1134BB042505109BA01600F711F73836283988157
S1134BC0898198130DC0E091C01BF091C11B8BE249
S1134BD09AE11995F7011482138212828FEF81836F
S1134BE0DF91CF911F910F91FF90EF9008959093D3
S1134BF0C11B8093C01B6CE875E280E00E94071B18
S1134C008FEF8093271A08955F926F927F928F920D
S1134C109F92AF92BF92CF92DF92EF92FF920F9347
S1134C201F93CF93DF93582E5B018A018CE290E0AF
S1134C300E9427087C01980136952795ADE0B3ECD6
S1134C400E94DB3A929582958F7089279F708927FD
S1134C504AE2489F9001499F300D112441E0021718
S1134C60130709F440E0980136952795ADE0B3ECBD
S1134C700E94DB3A929582958F7089279F708927CD
S1134C80840F0115110559F190E0C12CD12C662433
S1134C906A94680E470182E0880E911CE8010B3289
S1134CA0110510F0CAE2D0E077247394790EF7016D
S1134CB090836182B5016C0D7D1DAE01C4010E941B
S1134CC0E13B9E012E5F3F4FA70160E0852D0E94CE
S1134CD0121BCC0EDD1E0C1B1D0B972DF9F6C70104
S1134CE00E94310981E0DF91CF911F910F91FF90D4
S1134CF0EF90DF90CF90BF90AF909F908F907F9078
S1134D006F905F90089584B1876084B923988CB5BF
S1134D1081608CBD8CB58C658CBD8CB58F7D8CBD54
S1134D2008958EBD00000DB407FEFDCF8EB5089525
S1134D304F925F926F927F928F929F92AF92BF92A7
S1134D40CF92DF92EF92FF920F931F93CF93DF9353
S1134D504C01EB015A012901C114D10439F4CA01EF
S1134D600E9427086C01892B09F4ECC088E290E0CA
S1134D700E9427083C010097B9F0FC01D08EC78A35
S1134D80A50165EA70E0C6010E94EA3BF1E0AF1AB2
S1134D90B108F3018789908DA80EB91E8881818F8F
S1134DA08881811105C014C0C6010E943109CAC09E
S1134DB0D3015A96FE0131969E01285F3F4FEF01C1
S1134DC081918D938881882319F02E173F07B9F7B5
S1134DD0F30110A2102F063008F015E0F301168B32
S1134DE011A312A2E3012296CE010E943C0CC3013E
S1134DF00C960E943C0CF3017186608686E090E07C
S1134E00811B910995878487738A628A13A214A2ED
S1134E1015A216A217A2A201B401C5010E94841B07
S1134E20F30191838083E114F10419F0F701718295
S1134E3060820FB6F8940F9280919A1A8F5F8093D4
S1134E409A1A8091F91A9091FA1A892BD9F57092CD
S1134E50FA1A6092F91A80919A1A813009F041C0C5
S1134E600F2EF3ECEF2EFAE1FF2EF02D0F2EF9EFBB
S1134E70CF2EFAE1DF2EF02DC7010E942E0CF9E0AF
S1134E80EF0EF11CEC14FD04B9F78AEB9AE10E94D1
S1134E902E0C81EB9AE10E942E0C84EA9AE10E9486
S1134EA02E0C8BE99AE10E942E0C8AEB9AE19093E6
S1134EB0B01A8093AF1A81EB9AE19093AE1A809363
S1134EC0AD1A0FC08091961A81110BC0E091F91AA6
S1134ED0F091FA1A8689081720F07092FA1A6092F3
S1134EE0F91A8091921A8F5F8093921AF30186893E
S1134EF09091971A981710F48093971A90E09C0158
S1134F00220F331F220F331F220F331F820F931FD1
S1134F10BE018D53954E0E94400C0F900FBE8091A0
S1134F20961A882359F0E091F91AF091FA1A8689B1
S1134F30801730F40E943E1C81E005C081E003C06C
S1134F4081E001C08FEFDF91CF911F910F91FF900E
S1134F50EF90DF90CF90BF90AF909F908F907F9015
S1134F606F905F904F9008959F92AF92BF92CF92AF
S1134F70DF92EF92FF920F931F93CF93DF93FC0185
S1134F8090918F1A9F5F90938F1A8091981A9091A5
S1134F90991A20813181E901C60FD71F821793071F
S1134FA058F4C217D30708F06EC1D183C0838C179D
S1134FB09D0708F042C009C0C217D30708F460C1B6
S1134FC08C179D0708F45CC15EC18091F91A909119
S1134FD0FA1A02960E94920CE091F91AF091FA1AC8
S1134FE0D383C2838091981A9091991AC817D907CC
S1134FF068F46091F91A7091FA1A8091AD1A90913F
S1135000AE1A6E5F7F4F0E94610C17C06091F91A4F
S11350107091FA1A8091AF1A9091B01A6E5F7F4F17
S11350200E94610C8091901A9091911AC817D90727
S113503020F4D093911AC093901A0FB6F8940F925B
S113504080918F1A815080938F1A80918F1A8111C9
S11350500DC180919A1A811133C00BC1D7011596E5
S1135060ED91FC911697C681D781CE010C960E94D2
S1135070920C8E010E5F1F4FC8010E94920C8E8904
S11350809091971A981710F48093971A90E09C01C6
S1135090220F331F220F331F220F331F820F931F40
S11350A0B8018D53954E0E94400CE091F91AF0918D
S11350B0FA1A9E898689981758F0D092941A08C0D3
S11350C00F2EF4EAEF2EFAE1FF2EF02DDD24D39417
S11350D0F70180818111C2CF8091951A882309F448
S11350E0BDC08091951A882309F4B8C0912CBB24C3
S11350F0B394CC24CA94DC2C80918F1A811198C06B
S11351008091981A9091991A01969093991A809384
S1135110981AE090981AF090991AE114F10489F51C
S11351208091AF1A9091B01A2091AD1A3091AE1AB5
S11351303093B01A2093AF1A9093AE1A8093AD1A9D
S11351408091931A8F5F8093931AE091AF1AF09134
S1135150B01A8081811105C0D092911AC092901A20
S113516010C0E091AF1AF091B01A0580F681E02DDD
S11351700680F781E02D828193819093911A809328
S1135180901A8091901A9091911AE816F90608F4F1
S11351907DC0A92CE091AF1AF091B01A80818111E1
S11351A005C0D092911AC092901A48C0E091AF1AEB
S11351B0F091B01A0580F681E02DC681D7818A81ED
S11351C09B81E816F90628F49093911A8093901A1B
S11351D035C08E010E5F1F4FC8010E94920C8C894E
S11351E09D89892B21F0CE010C960E94920C8E8908
S11351F09091971A981710F48093971A90E09C0155
S1135200220F331F220F331F220F331F820F931FCE
S1135210B8018D53954E0E94400CE091F91AF0911B
S1135220FA1A9E898689981708F4B4CFAB2CB2CFAA
S11352308091951A8F5F8093951A28C08091941A53
S1135240811101C0A110B092941A8091951A8150D5
S11352508093951A8091951A81114ECF8091941A5A
S1135260813031F40E943E1C81E003C080E001C023
S113527080E00F900FBE81110EC00E943E1C0BC037
S1135280D183C083A2CED183C083D7CE8091941A18
S11352908111D9CFDACFDF91CF911F910F91FF9078
S11352A0EF90DF90CF90BF90AF909F9008959F9222
S11352B0AF92BF92CF92DF92EF92FF920F931F9320
S11352C0CF93DF93009709F463C120918F1A2F5F66
S11352D020938F1AC091981AD091991AC80FD91F88
S11352E08091F91A9091FA1A02960E94920CE09118
S11352F0F91AF091FA1AD383C2838091981A909183
S1135300991AC817D90768F46091F91A7091FA1AB2
S11353108091AD1A9091AE1A6E5F7F4F0E94610C1E
S113532017C06091F91A7091FA1A8091AF1A90918E
S1135330B01A6E5F7F4F0E94610C8091901A909119
S1135340911AC817D90720F4D093911AC093901AD0
S11353500FB6F8940F9280918F1A815080938F1A10
S113536080918F1A81110DC180919A1A811133C0D5
S11353700BC1D7011596ED91FC911697C681D78183
S1135380CE010C960E94920C8E010E5F1F4FC80135
S11353900E94920C8E899091971A981710F480931A
S11353A0971A90E09C01220F331F220F331F220F04
S11353B0331F820F931FB8018D53954E0E94400CEA
S11353C0E091F91AF091FA1A9E898689981758F093
S11353D0D092941A08C00F2EF4EAEF2EFAE1FF2EB1
S11353E0F02DDD24D394F70180818111C2CF809107
S11353F0951A882309F4BDC08091951A882309F46D
S1135400B8C0912CBB24B394CC24CA94DC2C8091D6
S11354108F1A811198C08091981A9091991A0196C7
S11354209093991A8093981AE090981AF090991A88
S1135430E114F10489F58091AF1A9091B01A20918A
S1135440AD1A3091AE1A3093B01A2093AF1A9093DC
S1135450AE1A8093AD1A8091931A8F5F8093931A3A
S1135460E091AF1AF091B01A8081811105C0D092F9
S1135470911AC092901A10C0E091AF1AF091B01A2C
S11354800580F681E02D0680F781E02D82819381ED
S11354909093911A8093901A8091901A9091911AF6
S11354A0E816F90608F477C0A92CE091AF1AF09138
S11354B0B01A8081811105C0D092911AC092901ABD
S11354C048C0E091AF1AF091B01A0580F681E02D42
S11354D0C681D7818A819B81E816F90628F49093C6
S11354E0911A8093901A35C08E010E5F1F4FC80128
S11354F00E94920C8C899D89892B21F0CE010C96F7
S11355000E94920C8E899091971A981710F48093A8
S1135510971A90E09C01220F331F220F331F220F92
S1135520331F820F931FB8018D53954E0E94400C78
S1135530E091F91AF091FA1A9E898689981708F46D
S1135540B4CFAB2CB2CF8091951A8F5F8093951A0C
S113555022C08091941A811101C0A110B092941AB2
S11355608091951A81508093951A8091951A811192
S11355704ECF8091941A813031F40E943E1C81E018
S113558003C080E001C080E00F900FBE811108C00D
S11355900E943E1C05C08091941A8111DFCFE0CF98
S11355A0DF91CF911F910F91FF90EF90DF90CF90FB
S11355B0BF90AF909F900895CF92DF92EF92FF92A9
S11355C00F931F93CF93DF9385E590E00E94270804
S11355D08C01892B09F4D4C088E290E00E9427084A
S11355E0EC01892BB1F0188F0F8B45E550E065EA8B
S11355F070E0C8010E94EA3B0F89188D0C5A1F4FB6
S113560089E4898FEFE4F7E0DE015A9626E537E076
S113561004C0C8010E943109B3C081918D938823CD
S113562019F02E173F07C9F718A21E8A19A21AA249
S11356307E0182E0E80EF11CC7010E943C0CCE0101
S11356400C960E943C0CD987C88786E090E09D8721
S11356508C87DB8BCA8B1BA21CA21DA21EA21FA2BD
S113566040E050E069E171E0C8010E94841B998325
S113567088830FB6F8940F9280919A1A8F5F809363
S11356809A1A8091F91A9091FA1A892BA9F5D09354
S1135690FA1AC093F91A80919A1A8130E1F503EC51
S11356A01AE10F2EF9EFCF2EFAE1DF2EF02DC8010B
S11356B00E942E0C075F1F4FC016D106C1F78AEB5C
S11356C09AE10E942E0C81EB9AE10E942E0C84EA4E
S11356D09AE10E942E0C8BE99AE10E942E0C8AEB2F
S11356E09AE19093B01A8093AF1A81EB9AE1909368
S11356F0AE1A8093AD1A0FC08091961A81110BC017
S1135700E091F91AF091FA1A8689811104C0D093B4
S1135710FA1AC093F91A8091921A8F5F8093921AA1
S11357208E899091971A981710F48093971A90E0A5
S11357309C01220F331F220F331F220F331F820FAE
S1135740931FB7018D53954E0E94400C0F900FBECE
S11357508091961A882321F08091F91A9091FA1A6F
S1135760F8948FEF9FEF9093911A8093901A81E0B1
S11357708093961A1092991A1092981A0E94F61B06
S1135780DF91CF911F910F91FF90EF90DF90CF9019
S1135790089580918F1A8F5F80938F1A08959F9236
S11357A0AF92BF92CF92DF92EF92FF920F931F932B
S11357B0CF93DF930FB6F8940F9280918F1A815094
S11357C080938F1A80918F1A81110DC180919A1A3A
S11357D0811133C00BC1D7011596ED91FC91169739
S11357E0C681D781CE010C960E94920C8E010E5F69
S11357F01F4FC8010E94920C8E899091971A981796
S113580010F48093971A90E09C01220F331F220F0B
S1135810331F220F331F820F931FB8018D53954EF0
S11358200E94400CE091F91AF091FA1A9E89868937
S1135830981758F0D092941A08C00F2EF4EAEF2E5D
S1135840FAE1FF2EF02DDD24D394F701808181113C
S1135850C2CF8091951A882309F4BDC08091951A0E
S1135860882309F4B8C0912CBB24B394CC24CA94E3
S1135870DC2C80918F1A811198C08091981A909194
S1135880991A01969093991A8093981AE090981A0D
S1135890F090991AE114F10489F58091AF1A90916E
S11358A0B01A2091AD1A3091AE1A3093B01A2093E9
S11358B0AF1A9093AE1A8093AD1A8091931A8F5FAA
S11358C08093931AE091AF1AF091B01A80818111FC
S11358D005C0D092911AC092901A10C0E091AF1AEC
S11358E0F091B01A0580F681E02D0680F781E02D55
S11358F0828193819093911A8093901A8091901A47
S11359009091911AE816F90608F473C0A92CE09155
S1135910AF1AF091B01A8081811105C0D092911A0A
S1135920C092901A48C0E091AF1AF091B01A058065
S1135930F681E02DC681D7818A819B81E816F9061C
S113594028F49093911A8093901A35C08E010E5FBB
S11359501F4FC8010E94920C8C899D89892B21F0CC
S1135960CE010C960E94920C8E899091971A9817EA
S113597010F48093971A90E09C01220F331F220F9A
S1135980331F220F331F820F931FB8018D53954E7F
S11359900E94400CE091F91AF091FA1A9E898689C6
S11359A0981708F4B4CFAB2CB2CF8091951A8F5FBF
S11359B08093951A1EC08091941A811101C0A11080
S11359C0B092941A8091951A81508093951A80917F
S11359D0951A81114ECF8091941A813031F40E942E
S11359E03E1C81E003C080E001C080E00F900FBE48
S11359F005C08091941A8111E3CFE4CFDF91CF9158
S1135A001F910F91FF90EF90DF90CF90BF90AF90D8
S1135A109F9008950FB6F8940F928091981A9091E0
S1135A20991A0F900FBE0895CF92DF92EF92FF92D2
S1135A300F931F93CF93DF9380918F1A81119FC08F
S1135A408091981A9091991A01969093991A80933B
S1135A50981AE090981AF090991AE114F10499F5C3
S1135A608091AF1A9091B01A2091AD1A3091AE1A6C
S1135A703093B01A2093AF1A9093AE1A8093AD1A54
S1135A808091931A8F5F8093931AE091AF1AF091EB
S1135A90B01A8081811107C08FEF9FEF9093911A04
S1135AA08093901A10C0E091AF1AF091B01A05805B
S1135AB0F681E02D0680F781E02D82819381909319
S1135AC0911A8093901A8091901A9091911AE816E5
S1135AD0F90610F4D12C59C0D12CCC24C394E091F4
S1135AE0AF1AF091B01A8081811107C08FEF9FEF38
S1135AF09093911A8093901A48C0E091AF1AF09154
S1135B00B01A0580F681E02DC681D7818A819B81F8
S1135B10E816F90628F49093911A8093901A35C0E8
S1135B208E010E5F1F4FC8010E94920C8C899D89C3
S1135B30892B21F0CE010C960E94920C8E899091B3
S1135B40971A981710F48093971A90E09C01220FEB
S1135B50331F220F331F220F331F820F931FB801ED
S1135B608D53954E0E94400CE091F91AF091FA1A67
S1135B709E898689981708F4B2CFDC2CB0CF809127
S1135B80951A8F5F8093951AD12C8091941A88234B
S1135B9011F0DD24D3948D2DDF91CF911F910F91BE
S1135BA0FF90EF90DF90CF90089580918F1A882313
S1135BB021F081E08093941A08951092941AA09190
S1135BC0F91AB091FA1AE091F91AF091FA1A2D9192
S1135BD03C918789908D8217930760F06091F91A40
S1135BE07091FA1A8091F91A9091FA1A675E7F4FB0
S1135BF00E94BD188091971A90E0FC01EE0FFF1FE0
S1135C00EE0FFF1FEE0FFF1F8E0F9F1FFC01ED53C2
S1135C10F54E8081811117C08091971A815080932D
S1135C20971A8091971A90E0FC01EE0FFF1FEE0F78
S1135C30FF1FEE0FFF1F8E0F9F1FFC01ED53F54E4C
S1135C408081882349F38091971A90E09C01220F68
S1135C50331F220F331F220F331F280F391FD9017F
S1135C60AD53B54E1196ED91FC9112970280F381DC
S1135C70E02D1296FC93EE9311972A53354EE217BA
S1135C80F30729F422813381FD0132832183FC014E
S1135C90EE0FFF1FEE0FFF1FEE0FFF1F8E0F9F1F54
S1135CA0FC01ED53F54E0180F281E02D8681978150
S1135CB09093FA1A8093F91A0895CF93DF93EB0126
S1135CC06091F91A7091FA1A645F7F4F0E94610C17
S1135CD08091F91A9091FA1A02960E94920CCF3F81
S1135CE08FEFD80759F46091F91A7091FA1A6E5F20
