S00C0000546573742E7372656378
S113000020C100003FC100003DC100000C947714E2
S11300100C9466140C94881435C1000033C100009C
S113002031C100002FC100002DC100002BC1000010
S113003029C1000027C1000025C1000023C1000020
S113004021C100001FC100001DC100001BC1000030
S113005019C1000017C1000015C1000013C1000040
S113006011C100000FC100000DC100000BC1000050
S113007009C1000007C1000005C1000003C1000060
S11300800C942D18FFC00000FDC00000FBC0000050
S1130090F9C00000F7C00000F5C00000F3C0000084
S11300A0F1C00000EFC00000EDC00000EBC0000094
S11300B0E9C00000E7C00000E5C00000E3C00000A4
S11300C0E1C00000DFC00000DDC000000C94902EF1
S11300D0D9C00000D7C00000D5C00000D3C00000C4
S11300E0D1C00000084AD73B3BCE016E84BCBFFDA3
S11300F0C12F3D6C74319ABD56833DDA3D00C77FF4
S113010011BED9E4BB4C3E916BAAAABE000000808C
S11301103F05A84CCDB2D44EB93836A9020C50B91B
S1130120918688083CA6AAAA2ABE000000803F0047
S11301306E616E00696E660000407A10F35A00A08A
S1130140724E18090010A5D4E80000E8764817009C
S113015000E40B54020000CA9A3B000000E1F505DC
S1130160000080969800000040420F000000A08626
S113017001000000102700000000E8030000000058
S11301806400000000000A000000000001000000FC
S113019000002C76D888DC674F0823DFC1DFAE5916
S11301A0E1B1B796E5E3E453C63AE651997696E8A9
S11301B0E6C28426EB898C9B62ED407C6FFCEFBC2D
S11301C09C9F40F2BAA56FA5F490055A2AF75C9358
S11301D06B6CF9676DC11BFCE0E40D47FEF520E68E
S11301E0B500D0ED902E0300943577050080841E71
S11301F0080000204E0A000000C80C333333330FCC
S1130200986E12831141EF8D2114893BE65516CF68
S1130210FEE6DB18D1844B381BF77C1D901DA4BB74
S1130220E424203284725E228100C9F124ECA1E529
S11302303D27C3E9DAE188818230F0F30E94541744
S1130240FACF11241FBECFEFD1E2DEBFCDBF00E055
S11302500CBF17E0A0E0B2E0E8E9FFE600E00BBF66
S113026002C007900D92A034B107D9F72CE1A0E4A5
S1130270B7E001C01D92A630B207E1F70E94BC139B
S11302800C94CA37BDCECF93DF936BE374E081E067
S11302900E941D161092410710924007C2E4D7E055
S11302A08DE8FE0111928A95E9F781E00E94811898
S11302B09093CC078093CB071882DF91CF91089558
S11302C080914207811116C0E2E4F7E0168E158E84
S11302D0168A158A14A213A212A211A2178E148EC2
S11302E0128E118E138E1092CE071092CD0791E0CC
S11302F0908308958FEF0895CF92DF92EF92FF924B
S11303000F931F93CF93DF931F92CDB7DEB769018D
S1130310E82EF12C9DE8899F800111240E5B184F73
S113032083E0F8018083508F478B60A382E0898348
S11303300E943D2AF801E557FF4F918380830E9474
S1130340782D21E030E0AE014F5F5F4F61E0F801AE
S113035080A10E942816B60181E00E94F62A672B2C
S1130360682B692B61F48DE88E9DF0018F9DF00D53
S11303701124EE5BF84F81E0808380E02EC080E0A2
S113038091E065D6009731F14DE84E9D90014F9D67
S1130390300D112440E051E0BC01C9018D5B984F40
S11303A05BD384E190E053D60097B1F02DE82E9D05
S11303B080012F9D100D112444E150E0BC01C801BF
S11303C0835B984F49D3F801EE5BF84F82E080835A
S11303D081E003C08FEF01C08FEF0F90DF91CF91C9
S11303E01F910F91FF90EF90DF90CF900895CF93DE
S11303F0DF93811134C020E04FEF5FEF60E070E0E5
S11304008091CB079091CC070E946F1D8091420789
S1130410823051F060E070E08091CB079091CC077E
S11304200E94D31B80E01CC0C2E4D7E089819A817A
S113043018D78B859C8515D781E08883EF89F88D43
S113044060E070E080E090E0199560E070E08091F9
S1130450CB079091CC070E94D31B81E001C080E0C0
S1130460DF91CF910895EF92FF920F931F93CF9353
S1130470DF9300D01F92CDB7DEB75C834B8381112D
S11304807BC07B0120E04FEF5FEF60E070E0809184
S1130490CB079091CC070E946F1D80914207823058
S11304A051F4E114F10439F00B811C81C801019766
S11304B08436910550F060E070E08091CB07909114
S11304C0CC070E94D31B80E058C00E5F1F4F2091C1
S11304D04B0730914C0780E091E0821B930B081787
S11304E0190708F03FC0209155073091560784E161
S11304F090E0821B930B0297A8F18AE290E09A8322
S1130500898342E050E0BE016D5F7F4F83E497E052
S1130510B5D24B815C81B70183E497E0AFD201157A
S11305201105B1F0902F812F0B32110510F09AE2D2
S113053080E099838A8342E050E0BE016F5F7F4F81
S11305408DE497E09BD289819A81081B190B51F79E
S113055060E070E08091CB079091CC070E94D31BA0
S11305608B810BC060E070E08091CB079091CC0749
S11305700E94D31B80E001C080E00F900F900F9089
S11305800F90DF91CF911F910F91FF90EF900895FD
S1130590CF93DF931F921F92CDB7DEB7811114C0A2
S11305A080914207823091F4662394F081E089833C
S11305B06A8322E030E0AE014F5F5F4F61E08091DB
S11305C062070E94281605C080E003C080E001C0D5
S11305D080E00F900F90DF91CF910895AF92BF927A
S11305E0CF92DF92EF92FF920F931F93CF93DF93FB
S11305F0CDB7DEB7AE970FB6F894DEBF0FBECDBF52
S11306008111DBC080914207882309F4D6C020E021
S11306104FEF5FEF60E070E08091CB079091CC07E3
S11306200E946F1D80914207823049F060E070E0C3
S11306308091CB079091CC070E94D31BBEC08091C0
S11306406107882309F462C0E2E4F7E0858D968DA2
S11306500A96968F858F248D265F248F893E93403A
S113066058F060E070E08091CB079091CC070E9435
S1130670D31B80E0BCDEA1C0293C08F447C0E2E4FF
S1130680F7E0078110851EA61DA6A18C838DA81AEC
S11306908A2D8F77A82EC1F1C12CD12CB12C7F01CA
S11306A01982F701838D8B0D8F778A834189528953
S11306B04C0D5D1D22E030E0BE01635D7F4F8DE493
S11306C097E08BD22DA53EA5A801BE016D5F7F4F9B
S11306D083E497E082D22DA53EA5020F131FF701F4
S11306E0838194810197082319232E5F3F4FAE0124
S11306F04F5F5F4F61E080A10E942816B394F2E03F
S1130700CF0ED11CAB10CCCF10925E07E2E4F7E021
S1130710818D482F50E0938D491B51094F77552700
S1130720443051050CF041C06581768125893689B4
S113073062177307D1F119828A838F01440F551F01
S113074081899289480F591F22E030E0BE01635D20
S11307507F4F8DE497E041D22DA53EA5F801458950
S11307605689BE016D5F7F4F83E497E036D22DA595
S11307703EA5F80185899689A901480F591F8381EF
S11307809481019784239523968B858B81E0878FB1
S1130790818D8F5F8F77818F2E5F3F4FAE014F5FCB
S11307A05F4F61E080A10E94281660E070E08091B4
S11307B0CB079091CC070E94D31BAE960FB6F8944A
S11307C0DEBF0FBECDBFDF91CF911F910F91FF9080
S11307D0EF90DF90CF90BF90AF9008950F931F9349
S11307E0CF93DF93EA01811141C080916507909115
S11307F06607892B99F4DB0111968C91119790E08F
S1130800982F88272C91822B9093660780936507F5
S11308108536910558F522976E5F7F4F02E417E005
S1130820F80181A192A1AE018959984F0E94F43632
S1130830D80191966D917C9192976C0F7D1F929641
S11308407C936E93919793968D919C91949768174E
S1130850790761F45796ED91FC91589787E697E0F4
S11308601995F80114A213A212A211A2DF91CF913B
S11308701F910F9108959F92AF92BF92CF92DF92F2
S1130880EF92FF920F931F93CF93DF931F92CDB7F5
S1130890DEB78B015A01909162079813B8C090910A
S11308A04207992309F4B3C0FB01D0800F2EF2E470
S11308B0EF2EF7E0FF2EF02D13C0E0914007F091EA
S11308C04107309759F0482F50E060E070E000E0B5
S11308D010E023E0CF010E946C2CAAC0E12CF12C83
S11308E020E04FEF5FEF60E070E0F701E757FF4F64
S11308F0808191810E946F1DF7018081823030F0E8
S1130900A114B10419F00115110551F4F701E757C9
S1130910FF4F60E070E0808191810E94D31B88C00A
S1130920833021F5F3E0DF1221C0F701E557FF4FD3
S113093080819181009781F000E010E022E040E0A6
S113094050E0BA010E946C2CF701E557FF4F118269
S1130950108260E080E01CDEF701E757FF4F60E0A3
S113096070E0808191810E94D31B62C0F801C18034
S1130970DD2009F452C0F4E0DF1213C053C0A50116
S113098042505109B8016E5F7F4F80E027DFF701C5
S1130990828D8F5F8F77828FF701628D80E0F8DD23
S11309A02CC0F1E0DF1229C0F701838DFC2DF81B68
S11309B08F2F8F77982E09F1D12C57018BE0A80E39
S11309C0B11C87010F5F1F4F42E050E0BE016F5F13
S11309D07F4FC50150D1498150E060E070E0C8010B
S11309E04AD1D3949D10F0CFF701C38E148E168E86
S11309F0158E818DC81201C0178EF701E757FF4F7E
S1130A0060E070E0808191810E94D31B11C0F801E5
S1130A10D080F2E0DF120CC050CFF701828DC812F3
S1130A20BBCFADCFF701828DC81609F4B0CFB4CFD8
S1130A300F90DF91CF911F910F91FF90EF90DF9076
S1130A40CF90BF90AF909F90089580E0C7DD8AE07B
S1130A5090E00E945324F9CFFC016115710561F007
S1130A6071836083538342831186108617821682B2
S1130A701582148281E0089580E00895EF92FF9238
S1130A800F931F93CF93DF93EC012A813B818885D9
S1130A909985F901E81BF90BE417F50708F449C037
S1130AA08A017B018C819D81A901481B590B041784
S1130AB01507A8F428813981A801820F931F0E9489
S1130AC0F4368C819D81800F911F9D838C832A81B4
S1130AD03B818217930721F51D821C8221C0288146
S1130AE03981820F931F0E94F4368C819D816A8123
S1130AF07B81AC01461B570B400F511F681B790BC0
S1130B006E0D7F1D888199810E94F4368C819D81B0
S1130B102A813B81821B930B800F911F9D838C83C1
S1130B2048855985040F151F1987088781E090E0CF
S1130B3002C080E090E0DF91CF911F910F91FF9070
S1130B40EF9008950F931F93CF93DF93FC0121152A
S1130B503105C9F1A681B78184819581A817B907A8
S1130B60A9F1C62FD72F80E090E007C0A681B781F6
S1130B7064817581A617B70759F160817181A60F49
S1130B80B71F5C918E015883668177816F5F7F4FB9
S1130B9077836683A085B1851197B187A087A281E9
S1130BA0B3816A177B0711F4178216822196D80144
S1130BB05C91541302C001960BC0019628173907A3
S1130BC0A9F6C90105C080E090E002C080E090E091
S1130BD0DF91CF911F910F910895CF92DF92EF9201
S1130BE0FF920F931F93CF93DF937C016B01EA0174
S1130BF08901672BA9F1FC0142815381C417D507F0
S1130C0010F0C41BD50B4C1B5D0B4017510760F053
S1130C10F701608171816C0F7D1FA801C6010E94DC
S1130C20F436802F912F1EC0F701608171816C0F03
S1130C307D1FC6010E94F436F70122813381C90168
S1130C408C1B9D0BA801421B530B4C0F5D1F608135
S1130C5071818C0D9D1D0E94F436802F912F02C04E
S1130C6080E090E0DF91CF911F910F91FF90EF9082
S1130C70DF90CF900895EF92FF920F931F93CF933D
S1130C80DF93EC017B01088519854017510708F4AF
S1130C908A018E819F814A815B81481B590B4017D1
S1130CA05107C8F0E114F10441F068817981680FBB
S1130CB0791FA801C7010E94F4368E819F81800F9D
S1130CC0911F9F838E832A813B818217930741F56D
S1130CD01F821E8225C0E114F104C1F0688179816C
S1130CE0680F791FC7010E94F4364E815F812A8103
S1130CF03B81C901841B950B421B530B400F511FB1
S1130D00688179818E0D9F1D0E94F4368E819F81AA
S1130D102A813B81821B930B800F911F9F838E83BB
S1130D2088859985801B910B99878887C801DF91F5
S1130D30CF911F910F91FF90EF900895EF92FF9242
S1130D400F931F93CF93DF937C01680F791FFC01EE
S1130D503196009719F04115510521F460E070E0D7
S1130D6081E04BC02115310559F1E617F70760F50D
S1130D708A01020F131FDA01EC0191E02FEF04C086
S1130D80FA01E617F70720F53D9131110AC098835F
S1130D90CF010196A017B107E8F4EF01FC0191E03F
S1130DA0F0CFAF014F5F5F4F30839F5FA017B10754
S1130DB0B0F49F3F29F728833296EA0191E0E1CF0E
S1130DC0EC0180E091E00DC0EC0182E091E009C00B
S1130DD082E007C0EF01FC0180E091E002C0FA016B
S1130DE080E0C617D70718F49883BF0101C082E0DA
S1130DF09B012E193F09622F732FDF91CF911F9111
S1130E000F91FF90EF900895AF92BF92CF92DF922F
S1130E10EF92FF920F931F93CF93DF937C01DA013C
S1130E20009711F0109721F460E070E081E05FC05A
S1130E302115310509F44BC06A01C20ED31E5C01B1
S1130E40A60EB71E8C0150E001C08F01ED01219662
S1130E507C91711103C05460F8013DC07150C6010A
S1130E608C1B9D0B272F30E08217930710F4782FEB
S1130E705860C501801B910B272F30E08217930720
S1130E8010F4782F5260772361F1DE01F801972F77
S1130E903D91311101C0546031939150C9F7EFEF86
S1130EA0E70FF0E03196DE01AE0FBF1FE00FF11F38
S1130EB0AC15BD0580F47E3F41F2EA15FB0510F048
S1130EC0526009C08F010F5F1F4F1082BFCFFC011A
S1130ED050E001C0F801EE19FF096E2F7F2F852F16
S1130EE006C0CC15DD05B0F7F801DE01E6CFDF91D1
S1130EF0CF911F910F91FF90EF90DF90CF90BF9013
S1130F00AF900895862798E02CE880FF03C086956B
S1130F10822701C086959150C1F708950F931F93BE
S1130F20CF93DF93662359F08C01EC01060F111D5A
S1130F3080E06991E7DF0C171D07D9F701C080E055
S1130F40DF91CF911F910F91089580B380BBECE79F
S1130F50F0E08081806C8083EAE7F0E08081806843
S1130F6080838081846080830895ECE7F0E080834F
S1130F709081906C9083EAE7F0E090819064908394
S1130F80908196FDFDCF2091780090917900E82F13
S1130F90F0E02695269530E4939FC0011124822B1E
S1130FA0FE2FEE27E050FF4FE80FF11D80810895DA
S1130FB0CF92DF92EF92FF92CF93DF93EC01C88040
S1130FC0D980EA80FB802BED3FE049E450E4C7017F
S1130FD0B6010E94733118166CF42BED3FE049EC16
S1130FE050E4C701B6010E94FC2E688379838A838A
S1130FF09B8316C02BED3FE049E450ECC701B601DA
S11310000E94C32F882364F42BED3FE049EC50E4A5
S1131010C701B6010E94FD2E688379838A839B836E
S113102088819981AA81BB81BC01CD019F772BED79
S11310303FE049E450E40E94733118160CF4BFCF2A
S1131040DF91CF91FF90EF90DF90CF900895EF92D2
S1131050FF920F931F93CF93DF93EC010E94BC2662
S11310608091D5079091D607892B41F5E7EDF7E0FC
S1131070ABEDB7E0B183A08313821282E7EDF9E10F
S1131080F093D607E093D50713821282118210825F
S11310908CEF91E113969C938E931297ED93FC93AE
S11310A09093D2078093D1079093D4078093D3076A
S11310B080E090E89093D0078093CF078091CF078A
S11310C09091D0078C239D23892B09F0B2C02097DF
S11310D009F4B2C0AE014C5F5F4F09F4B0C0809117
S11310E0D3079091D4078417950708F4ABC0E09117
S11310F0D707F091D807A7EDB7E002C0DF01F901E7
S1131100228133812417350728F420813181211568
S11311103105A1F76091D5077091D607E617F70757
S113112009F493C0CD91DC9111977E0184E0E80E1F
S1131130F11C808191818D939C9382819381841B86
S1131140950B8930910508F452C09F01240F351F77
S1131150D90113969C938E93129753834283A7EDE0
S1131160B7E001C0DC018D919C9111978217930720
S1131170C8F312964D915C9113978D01040F151FBE
S11311802017310751F4E9012A813B81420F531F93
S113119013965C934E9312979D01E9014A815B81FA
S11311A08901040F151F80179107C9F4601771078F
S11311B091F0E8018A819B81480F591FE9015B8303
S11311C04A838D919C911197EC0188819981E90161
S11311D09983888307C0E9017983688303C0E9019F
S11311E099838883A217B30711F02D933C9322812E
S11311F033818091D3079091D407821B930B9093F2
S1131200D4078093D3074091D1075091D207841714
S1131210950720F49093D2078093D1078091CF074C
S11312209091D007282B392B33832283118210828B
S11312300EC0E12CF12C0BC0E12CF12C08C0E12CE8
S1131240F12C05C0E12CF12C02C0E12CF12C0E9400
S1131250C226C701DF91CF911F910F91FF90EF90AC
S11312600895CF93DF93009709F468C0FC01349785
S1131270228133814091CF075091D007B901642373
S11312807523672B09F45AC060817181672B09F0BB
S113129055C0EF0140955095242335233383228391
S11312A00E94BC264A815B818091D3079091D40728
S11312B0840F951F9093D4078093D307E7EDF7E04D
S11312C001C0FC01808191818C179D07D0F322819C
S11312D03381BF01620F731FC617D70729F4240F88
S11312E0351F33832283EF012A813B81DE01A20F64
S11312F0B31F8A179B07C9F48091D5079091D6072D
S1131300A817B90779F012968D919C911397280F1D
S1131310391F3B832A83A081B1818D919C9199834C
S1131320888305C0B983A88302C099838883EC1796
S1131330FD0711F0D183C0830E94C226DF91CF91B3
S11313400895EF92FF920F931F93CF93DF93EC01D5
S1131350E42E2898862F80680E949521EE20B1F013
S11313600FEF0E0D10E00F5F1F4F0C0F1D1FF12C20
S113137080E00E9495218F3F09F4F39489930C1720
S11313801D07B1F7FE1004C085E003C085E001C06D
S113139080E0289ADF91CF911F910F91FF90EF90F9
S11313A00895CF93DF93EC012898862F80680E94DC
S11313B0952180E00E949521289A8F3F11F495E0B1
S11313C001C090E08883892FDF91CF910895CF9356
S11313D0DF931F921F92CDB7DEB7E3E3FBE181E019
S11313E0808324EF31E03283218322E836E03483A2
S11313F0238320E931E03683258317821086818791
S1131400828720E130E0348723872DE030E036877F
S1131410258722E330E0308B2787118A128A838B59
S1131420848B88EB9BE0968B858B8AE090E0908F91
S1131430878B118E10924E1B10924D1B1092501BD5
S113144010924F1B0E948721209A289A198220E12A
S113145037E289818F5F898321503109D1F76FE0A9
S1131460CE0102969EDF8A818936C9F780E00F900B
S11314700F90DF91CF9108950F931F93CF93DF9334
S11314801F921F92CDB7DEB78C0142E0CE010196C8
S113149058DF2A8130E0322F22279981292BF80145
S11314A0318320830F900F90DF91CF911F910F9183
S11314B00895CF93C62F28980E9495218C2F0E94BF
S11314C09521289A80E0CF9108951F93CF93DF93BD
S11314D01F921F92CDB7DEB7198279DF182F1982B8
S11314E080913C1B813009F083C08091421B909114
S11314F0431B8436910541F0883C910541F0C29725
S113150041F483E0898305C082E0898302C081E0DD
S1131510898380913E1B90913F1B8430910531F06B
S11315208830910539F0029749F40BC089818860AD
S1131530898307C089818C60898303C08981846021
S113154089838091401B9091411B803A21E092074E
S1131550C1F170F48A31910521F118F40D97E9F085
S113156028C08433910509F1803D910531F121C0F2
S113157082302DE0920789F140F4813423E0920710
S113158021F18C37964029F114C084302AE1920766
S113159041F18231944349F10CC08981806189838E
S11315A027C089818062898323C08981806389837C
S11315B01FC08981806489831BC089818065898378
S11315C017C089818066898313C089818067898374
S11315D00FC08981806889830BC089818069898370
S11315E007C08981806A898303C08981806B89836C
S11315F0698180E15EDF63E1CE010196D2DE8981FB
S11316008F77898390913D1B913011F48068898391
S1131610698183E14EDF19828091331B813009F0A7
S11316205BC08091341B9091351B853F9105C1F0BF
S113163020F48D37910549F011C0843F21E09207D1
S113164039F0883E934039F009C082E0898308C0AC
S113165084E0898305C088E0898302C08CE08983A3
S11316608091361B9091371B803D910531F148F4F0
S11316708A319105B1F084339105B9F00D97C9F41D
S11316800CC0813423E0920701F18C3726E09207E5
S113169001F1803A914069F414C0898180618983A1
S11316A01BC089818062898317C089818063898393
S11316B013C08981806489830FC08981806589838F
S11316C00BC089818066898307C08981806789838B
S11316D003C0898180688983698181E1EADE6FE0E2
S11316E0CE0102965EDE812F0F900F90DF91CF9195
S11316F01F910895CF93DF931F921F92CDB7DEB74A
S113170066E2CE010196B8DE8823A9F0853051F453
S113171080914D1B90914E1B019690934E1B80938C
S11317204D1B09C080914F1B9091501B01969093C3
S1131730501B80934F1B89819A810F900F90DF91EA
S1131740CF910895CF92DF92EF92FF92CF93FC0155
S11317504091341B5091351B453F5105B1F09A011E
S1131760A5E2B6E00E94EE35481B590B5695479505
S1131770840F951F0024880F991F001C880F991F40
S1131780001C892F902DC82F01C0C2E0BF01FF0F9C
S1131790880B990B0E94653020E030E04CE850E45F
S11317A00E947E316B017C016C2F70E080E090E040
S11317B00E9465309B01AC01C701B6010E947E31D5
S11317C020E030E04AE754E40E94CA2FCF91FF9012
S11317D0EF90DF90CF9008958DDFB4CF0895EAE0C5
S11317E0F1E080818760808308958230910531F42F
S11317F0EBE0F1E08081846080830895813091057D
S113180031F4EBE0F1E08081826080830895892BDC
S113181029F4EBE0F1E080818160808308958230D7
S1131820910531F4EBE0F1E080818B7F80830895B2
S11318308130910531F4EBE0F1E080818D7F80838C
S11318400895892B29F4EBE0F1E080818E7F808379
S113185008958230910539F4EBE0F1E0908184E061
S11318608927808308958130910539F4EBE0F1E014
S1131870908182E0892780830895892B31F4EBE0FD
S1131880F1E0908181E0892780830895FC0103962B
S1131890928381832FEF3FEF348323839683858361
S11318A09087878310820895FC011186108608951D
S11318B0CF93DF939C01FB01DC011196CD91DC9168
S11318C01297D383C2838C819D81958384838C8179
S11318D09D81DC0113967C936E9312977D836C83B8
S11318E031872087F90180818F5F8083DF91CF91D9
S11318F00895CF93DF93EB01488159814F3F2FEF38
S1131900520721F4FC01A781B0850DC0DC011396B8
S113191001C0DF011296ED91FC9113972081318172
S113192042175307B0F71296ED91FC911397FB837E
S1131930EA83D583C483BD83AC831396DC93CE93AF
S1131940129799878887FC0120812F5F2083DF917C
S1131950CF910895CF93DF93FC01A085B185C28117
S1131960D381848195819D838C83C481D581828137
S113197093819B838A8311968D919C911297E8178A
S1131980F90731F48481958112969C938E93119773
S1131990118610868C9181508C93DF91CF9108959C
S11319A0CF93DF93CDB7DEB7A0970FB6F894DEBF21
S11319B00FBECDBFFE01319688E0DF011D928A95EE
S11319C0E9F70E94211FA12CB12CC12CD12CE12CB0
S11319D0F12C03E020E030E048EC50E06BE076E0EE
S11319E085E295E00E949C21813019F080E090E02E
S11319F0FCDE0E942A1F182F88EE93E00E945324D5
S1131A0082E090E026DF1123A1F30E94361F0F2EFF
S1131A10FDE5EF2EFBE1FF2EF02D01E088E1EFE084
S1131A20F6E0DE01199601900D928A95E1F7CE0158
S1131A3009960E94592E20E04FEF5FEF60E070E0BE
S1131A408091591B90915A1B0E946F1D813009F09F
S1131A5090C00E94BC260FB6F8940F92F701108133
S1131A60A180B280C380D4800F900FBE0E94C22692
S1131A70153009F46FC030F41230B1F0143009F4A9
S1131A804DC077C0173009F46DC018F0183049F014
S1131A9070C00FB6F8940F920093E8190F900FBE20
S1131AA068C00E943F2065C080E090E09EDEB501E2
S1131AB0660F771FAA0CBB1CAA0CBB1CAA0CBB1C70
S1131AC06A0D7B1D072E000C880B990B0E94653054
S1131AD069837A838B839C83B601660F771FCC0C52
S1131AE0DD1CCC0CDD1CCC0CDD1C6C0D7D1D072E0F
S1131AF0000C880B990B0E9465306D837E838F8365
S1131B00988720E044E650E0BE016F5F7F4F8091EC
S1131B10EF199091F0190E94031A2BC00FB6F89494
S1131B200F920093E7190F900FBE19821A821B823D
S1131B301C821D821E821F82188620E044E650E02B
S1131B40BE016F5F7F4F8091EF199091F0190E9451
S1131B50031A0FC00FB6F8940F921092E7190F9062
S1131B600FBE07C00FB6F8940F921092E8190F90A9
S1131B700FBE80E090E053DE51CFCF93DF931F92EE
S1131B801F92CDB7DEB70E94FD279A83898364E153
S1131B9070E0CE0101960E94B022F9CFCF93DF937B
S1131BA0CDB7DEB76F970FB6F894DEBF0FBECDBFCB
S1131BB01982F12C3324339410E06894DD24D2F894
S1131BC06894222422F88EE0E7E2F6E0DE0114961F
S1131BD001900D928A95E1F7CE0104960E94592E48
S1131BE08091E819813009F008C18091E7198111C9
S1131BF004C10E94FD279B838A8320E046E950E0CC
S1131C00BE016F5F7F4F8091ED199091EE190E9494
S1131C106F1D8130D9F48981882319F08330A8F4A9
S1131C2008C0139D102D1124FF24F39433243394FE
S1131C300DC08DEC189F112D112416951695F12CBD
S1131C400F2EF5E03F2EF02D01C0F12C139D802DB9
S1131C5011240E94632068EC70E0CE0102960E9479
S1131C60B02280E082D98E8F81E07FD9E82E83E094
S1131C707CD9C82E82E079D98F8F20E048E250E0E9
S1131C8060E070E080915B1B90915C1B0E946F1D73
S1131C908091E3199091E419A091E519B091E619A6
S1131CA08A8F9B8FAC8FBD8FA090E119B090E21901
S1131CB06090DF197090E01960E070E080915B1B28
S1131CC090915C1B0E94D31B9AE09F1540F489817C
S1131CD0811105C00E94DE1FFF24F39406C0FF207B
S1131CE021F08981811101C0F394432C512C149D5E
S1131CF04001159D900C112420E030E044E353E4AE
S1131D006A8D7B8D8C8D9D8D0E947E312BED3FE005
S1131D1049E450E40E94CA2F0E9432306A8F7B8FBC
S1131D208C8F9D8FC3016AE070E00E94DB35FB015C
S1131D30C5016AE070E00E94DB35CB01AF8C0E8DEB
S1131D4094014A8D5B8DBF010E949C1FAFE18A16EE
S1131D50910434F0BCE38B169104E4F0AF8CAE8EA6
S1131D608E8D81508331B0F41A8A1B8A1C8A1D8A95
S1131D701E8A1F8A188E198E20E044E650E0BE01A8
S1131D806E5E7F4F8091EF199091F0190E94031AB3
S1131D900E94DE1F8BE58816910494F494E0D91216
S1131DA00FC08981833008F04DC01F5F149D40012E
S1131DB0159D900C1124AAE58A1691044CF514C0C3
S1131DC018141904A4F5B3E0DB1236C089818330FA
S1131DD008F0F9CE1150149D4001159D900C11246A
S1131DE003C084E0D816C9F0181419040CF4EBCE1F
S1131DF093E0D912E8CED22CE6CE80E00E94632094
S1131E0084E690E00E945324F12C10E0D22CDBCE27
S1131E100F2EF3E0DF2EF02DD6CE0F2EF3E0DF2EC3
S1131E20F02DD1CE0F2EF3E0DF2EF02DCCCEAAE58F
S1131E308A169104ECF20AC0BAE58B1691040CF4EC
S1131E40C2CECFCF18141904BCF3F1CF84E0D81656
S1131E5049F3CECFCF93DF93CDB7DEB7A3970FB6B9
S1131E60F894DEBF0FBECDBFFE01319688E0DF01DE
S1131E701D928A95E9F719861B861A861D861C868B
S1131E801E861F8600E02224239418A219A21AA2F7
S1131E901BA21C8E1D8E1E8E1F8E6894332432F856
S1131EA08091E8198823E1F3F8944091E91910929C
S1131EB0E9191091EA191092EA197894BE01665F43
S1131EC07F4F8E8530D6412FBE01645F7F4F8F8553
S1131ED041D620E041E050E060E070E08091551B85
S1131EE09091561B0E946F1D8A859B859093DC19E7
S1131EF08093DB198C859D859093DE198093DD1981
S1131F0060E070E08091551B9091561B0E94D31B9A
S1131F1020E04FEF5FEF60E070E08091531B909101
S1131F20541B0E946F1D813009F0BACF20E04FEF9F
S1131F305FEF60E070E080915B1B90915C1B0E94FE
S1131F406F1D4090E3195090E4196090E51970906A
S1131F50E619C090E119D090E219E090DF19F090F1
S1131F60E01960E070E080915B1B90915C1B0E9423
S1131F70D31B20E040E050E0BE016F5F7F4F8091B3
S1131F80EF199091F0190E946F1D8130C9F420E07F
S1131F9044E150E0BE016F5F7F4F8091EF19909153
S1131FA0F0190E946F1D89819A81AB81BC818C8B51
S1131FB09D8BAE8BBF8B8D809E80AF80B88414C008
S1131FC0B6010D2C000C880B990B0E9465306C8BAC
S1131FD07D8B8E8B9F8BB7010F2C000C880B990B7C
S1131FE00E9465304B015C01B601DD0C880B990B36
S1131FF00E9465309B01AC016C897D898E899F8923
S11320000E94FC2E6C8B7D8B8E8B9F8BB701FF0CFB
S1132010880B990B0E9465309B01AC01C501B4018A
S11320200E94FC2E6B017C012C893D894E895F89BD
S1132030CA01B9010E947E314B015C01A7019601DE
S1132040C701B6010E947E31688F798F8A8F9B8F7A
S1132050288D398D4A8D5B8DC501B4010E94FD2EFA
S11320600E94EB314B015C0120E030E046E953E48F
S11320700E94C32F8823C4F420E030E04CE452E4EF
S1132080C501B4010E947E3120E030E046E953E40A
S11320900E94CA2F20E030E040EC51E40E94FD2E63
S11320A00E943730162F01C01BE420E030E040EAE4
S11320B050E4C501B4010E94733118160CF04BC1F1
S11320C02C893D894E895F89C701B6010E94702F12
S11320D0A30192010E94FC2E688B798B8A8B9B8BC7
S11320E0CE0140960E94D80788889988AA88BB8820
S11320F075016401E894F7F829E134E046E05FE310
S1132100C701B6010E94733118160CF4ABC022E764
S11321103AE84EE85CE3C701B6010E94C32F882366
S11321201CF0211003C09EC02224239420E030E040
S1132130A901C501B4010E9473318823C4F1012FA0
S113214010E0B801012E000C880B990B0E94653039
S11321502B013C0120E030E046E154E4C701B60124
S11321600E947E319B01AC01C301B2010E94FC2E8E
S11321706B017C0120E030E040E251E46C8D7D8D08
S11321808E8D9F8D0E947E319B01AC01C701B601EB
S11321900E94FC2E0E943230061717070CF441C02F
S11321A03B0177230CF040C0612C712C3DC0612EA3
S11321B0712CB301072C000C880B990B0E9465301D
S11321C06C8B7D8B8E8B9F8B20E030E046E154E45A
S11321D0C701B6010E947E319B01AC016C897D89E7
S11321E08E899F890E94FC2E6B017C0120E030E0E7
S11321F040E251E468A179A18AA19BA10E947E31A9
S11322009B01AC01C701B6010E94FC2E0E94323032
S11322106616770644F08B01772334F400E010E06F
S113222003C0380101C08301A50194016C8D7D8D2B
S11322308E8D9F8D0E94FD2E6C8F7D8F8E8F9F8F34
S1132240A501940168A179A18AA19BA10E94FC2EF9
S113225068A379A38AA39BA396E09F873E86A1E007
S1132260A9876EC020E030E0A901C501B4010E9435
S1132270733188239CF12EEA37E441E65EE3C7011B
S1132280B6010E947E312AE939E949E95EE30E94F8
S1132290FD2E6B017C0120E030E040E252EC0E9414
S11322A07E310E9432303B01B5E0BE8720E030E051
S11322B040E252E4C701B6010E947E310E943230EE
S11322C08B0186E08F873986212C18A219A21AA2C5
S11322D01BA21C8E1D8E1E8E1F8E32C02EEA37E46A
S11322E041E65EE3C701B6010E947E312AE939E97D
S11322F049E95EE30E94FD2E6B017C0120E030E0A1
S113230040E252E40E947E310E9432303B013E861C
S113231020E030E040E252ECC701B6010E947E3179
S11323200E9432308B0195E09F87A3E0A987212C7E
S113233018A219A21AA21BA21C8E1D8E1E8E1F8EFD
S11323409E01215F3F4FAE01425F5F4FB801C30161
S1132350C3D300E008C0011103C00E94DE1F01E0E6
S1132360A7D3ABD3198620E040E050E0BE01675FFD
S11323707F4F8091ED199091EE190E94031A90CD30
S1132380CF93DF93CDB7DEB7A2970FB6F894DEBF35
S11323900FBECDBF19821A821B821C820E94FD27A8
S11323A09E838D831E8E1F8E18A219A21B8A1C8ADF
S11323B01D8A1E8A1F86188A198A1A8A1B861C86F9
S11323C01D861E86E12CF12C812C912C412C312C64
S11323D0212C512C68E270E0CE0105960E94B022B7
S11323E08091E819882309F48DC120E04FE050E082
S11323F060E070E08091551B9091561B0E946F1D08
S11324006090DB197090DC190091DD191091DE19D0
S113241060E070E08091551B9091561B0E94D31B85
S1132420B30168197909072E000C880B990B0E94D7
S1132430653028EF33E543E25FE30E947E314B01D0
S11324405C01B8016E197F09072E000C880B990BEB
S11324500E94653028EF33E543E25FE30E947E315A
S11324606B017C019B01AC01C501B4010E94FD2EEE
S113247020E030E040E05FE30E947E316F8B788F94
S1132480898F9A8FA5019401C701B6010E94FC2E81
S113249020E030E043E153E40E94CA2F4B015C0189
S11324A09BD92B893C894D895E890E94FC2E6B0146
S11324B07C019F7720E030E040E251E40E94C32F8A
S11324C088234CF081E08AA31F821B8E80E48C8FCA
S11324D08FE38D8F05C01AA24F823B8E2C8E5D8EAA
S11324E02F813B8D4C8D5D8D60E070E080E89FE333
S11324F00E94FC2EA50194010E947E314B015C01D7
S113250024ED32E047E35AE3C701B6010E947E316D
S11325102F813B8D4C8D5D8D0E947E31A5019401F0
S11325200E94FD2E4B015C01C980DA80EB80FC80A7
S113253020E030E040E05FE30E947E31A701960195
S11325400E94FD2E6F83788789879A870E94C72F00
S11325509B01AC016F89788D898D9A8D0E947E31A3
S11325609B01AC016B857C858D859E850E94FD2E2B
S11325706B877C878D879E876F81788589859A850F
S11325800E94E1319B01AC016F89788D898D9A8D10
S11325900E947E319B01AC016F85788989899A8973
S11325A00E94FD2E6F87788B898B9A8BA7019601E9
S11325B0C501B4010E94FD2E69837A838B839C83B9
S11325C02FEE3CED4BE25BE36E8D7F8D88A199A1EC
S11325D00E94FD2E6B017C018AA1811122C0242D51
S11325E0332D422D552D6F89788D898D9A8D0E94BA
S11325F0C32F811116C0242D332D422D552DC70113
S1132600B6010E94FD2E9B01AC01C701B6010E94D8
S1132610CA2FB62EA72E982E892E81E090E0E5D8F9
S113262007C081E090E0FBD8B42CA32C922C852C1D
S1132630242D332D422D552D6B2D7A2D892D982D3A
S11326400E947E319B01AC0169817A818B819C81DE
S11326500E94FD2E69837A838B839C83CE0101962D
S11326600E94D8072B2D3A2D492D582D60E070E09B
S113267080E89FE30E94FC2EA70196010E947E3110
S11326806E8F7F8F88A399A320E04FE050E060E035
S113269070E080915B1B90915C1B0E946F1D89818F
S11326A09A81AB81BC818093E3199093E419A09340
S11326B0E519B093E6196B857C858D859E850E940E
S11326C032307093E2196093E1196F8578898989B2
S11326D09A890E9432307093E0196093DF1960E0A8
S11326E070E080915B1B90915C1B0E94D31B60E0A7
S11326F070E08091531B9091541B0E94D31B78016E
S1132700430168CE05E610E0A42CB32CC22CD52CD2
S113271063D89B01AC016A2D7B2D8C2D9D2D0E94CD
S1132720FD2EA62EB72EC82ED92E0150110981F7E1
S1132730842D932DA22DB52D89839A83AB83BC83DD
S113274020E030E04AEC52E46A2D7B2D8C2D9D2D47
S11327500E94CA2F6B8B7C8B8D8B9E8B4F86388A05
S1132760298A5A8A4B863C862D865E8633CEF89417
S113277080E090E06ED8FCCF32D880E090E035D88D
S11327800E94FB2D55D20E9443018FE09FE10E94DD
S1132790FB2080E00E9473200E94A50706D182E0FE
S11327A090E023D80E94650A82E090E038D880E067
S11327B090E035D840E061E082E051D49093F21982
S11327C08093F11940E068E081E049D49093F019D6
S11327D08093EF1940E061E081E041D49093EE19D9
S11327E08093ED1940E061E082E039D49093EC19D4
S11327F08093EB1981E085D490935C1B80935B1BE1
S113280081E07FD49093581B8093571B81E079D447
S11328109093561B8093551B43E060E081E01FD4E6
S11328209093541B8093531B43E060E081E017D4E2
S113283090935A1B8093591BA12CB12CC12CD12CE1
S1132840E12CF12C04E020E030E04CE251E065E3BF
S113285076E08DEB9DE00E949C2103E020E030E0D7
S11328604CE251E06EE376E080ED9CE00E949C2116
S113287002E020E030E04CE251E063E476E08AE2FA
S11328809FE00E949C2105E020E030E04CE251E012
S11328906BE476E080EC91E10E949C2101E020E071
S11328A030E04CE251E063E576E08EEC9DE00E947E
S11328B09C2178940E94D825C9E5D6E0F894DF934A
S11328C0CF930E9402200F900F90F8CF1F920F9287
S11328D00FB60F9211248F938091E9198F5F809323
S11328E0E9198F910F900FBE0F901F9018951F92AA
S11328F00F920FB60F9211248F938091EA198F5F74
S11329008093EA198F910F900FBE0F901F90189526
S11329101F920F920FB60F9211240BB60F922F93A2
S11329203F934F935F936F937F938F939F93AF9353
S1132930BF93EF93FF93649905C082E090E00E94F7
S1132940F50B18C01092E8191092E71982E090E094
S11329500E940F0C81E090E00E940F0C80E090E058
S11329600E940F0C60E070E08091591B90915A1BFB
S11329700E94441D60E070E08091531B9091541BB1
S11329800E94441DFF91EF91BF91AF919F918F9150
S11329907F916F915F914F913F912F910F900BBE5B
S11329A00F900FBE0F901F901895279A84B18063E3
S11329B084B9269AE1E0F1E08081806680832F98D3
S11329C02E98E2E0F1E080818F79808385B18F7C5D
S11329D085B98AB18AB98BB18C608BB96C988DB387
S11329E08DBBE9E6F0E08081806F8083EAE6F0E069
S11329F08081816080838CE18CBB8DB38C618DBBC5
S1132A0084B5806884BDE0E8F0E0808180628083E2
S1132A1085B585BD84B5836084BDA1E8B0E08C91A3
S1132A2088608C9380818160808385B5826085BD58
S1132A308C9182608C9380818083E0EBF0E08081D4
S1132A40808380818083E0EAF0E080818083089540
S1132A5087BD2C9A2D9884E0FB018083089590E033
S1132A6090938B0080938A00E2E0F1E0808180649F
S1132A70808380818F7D808386E0FB01808308953D
S1132A8087BD2C982D9A85E0FB018083089590E002
S1132A9090938B0080938A00E2E0F1E080818F7B49
S1132AA0808380818062808385E0FB018083089538
S1132AB08FEF87BD2C982D9808958FEF90E0909319
S1132AC08B0080938A00E2E0F1E080818F7B808339
S1132AD080818F7D808308950F931F93CF93DF931D
S1132AE0EB018901181619061CF4BA01B1DF07C0FD
S1132AF0992324F4BA018195C3DF01C0D9DF1C16E0
S1132B001D0624F4B8018C2FAADF08C0DD232CF4A1
S1132B10B8018C2F8195BBDF01C0CFDFDF91CF914E
S1132B201F910F910895843019F0853051F0089564
S1132B304695FB0180819181840F911D918380834F
S1132B4008954695FB0180819181841B91099183AD
S1132B5080830895853059F0863089F44695FB01C9
S1132B6080819181840F911D91838083089546957E
S1132B70FB0180819181841B910991838083089555
S1132B80EF92FF920F931F93CF93DF937C018B01FE
S1132B90CB010E942708EC01980121503109A701BB
S1132BA0B8010E940407882349F08091F4198F5FCB
S1132BB08093F419CE010E94310933C0862F972FD8
S1132BC08C01FE01E80FF91F3197F0806FEF680F59
S1132BD0CE010E948E07F81649F08091F3198F5F99
S1132BE08093F319CE010E9431091BC08881833080
S1132BF021F0CE010E94310914C0A80144505109AA
S1132C00BE016D5F7F4FEA81F0E0EE0FFF1FE558D4
S1132C10F44E0190F081E02D89811995CE010E9436
S1132C203109DF91CF911F910F91FF90EF9008959B
S1132C3080EC95E10C948B2E0895823040F4E82FBB
S1132C40F0E0EE0FFF1FE558F44E718360830895A2
S1132C508F929F92AF92BF92CF92DF92EF92FF92A8
S1132C600F931F93CF93DF93882E962E5A018901D9
S1132C70690184E0C80ED11CC6010E942708EC013A
S1132C80C80106960E9427087C01209711F0892B21
S1132C9041F4CE010E943109C7010E94310980E04C
S1132CA03CC0888283E089839A82A801B501CE0161
S1132CB003960E94F4365801E3E0AE0EB11CAC0E4C
S1132CC0BD1E63E0600FCE010E948E07F501808374
S1132CD0B8016B5F7F4F9601AE01C7010E949E064B
S1132CE0882341F0CE010E943109C7010E943109B5
S1132CF080E013C0862F972FF701E80FF91F108289
S1132D00BC016F5F7F4FC7010E94672ECE010E94F6
S1132D103109C7010E94310981E0DF91CF911F91F0
S1132D200F91FF90EF90DF90CF90BF90AF909F9066
S1132D308F90089531E1FC013083319722E22083A2
S1132D403197A3E3A08331976083319770833197E0
S1132D50108231971082319760E860833197108236
S1132D603197108231971082319762E060833197F6
S1132D7063E06083319764E06083319765E060834A
S1132D80319766E06083319767E06083319768E04C
S1132D906083319769E06083319760E160833197A4
S1132DA03083319732E13083319733E13083319787
S1132DB034E13083319735E13083319736E1308324
S1132DC0319737E13083319738E13083319739E1F6
S1132DD03083319730E23083319731E23083319759
S1132DE02083319723E220833197408331975083A6
S1132DF0319726E22083319727E22083319728E216
S1132E002083319729E22083319720E3208331976F
S1132E1021E320838997089588EE93E09093901B93
S1132E2080938F1B9093921B8093911B1092990017
S1132E3089EF809398008BE080939100E1E7F0E0C4
S1132E40808182608083A091C91AB091CA1ACD9101
S1132E50CDBFDD91DEBFFF91EF91DF91CF91BF91A7
S1132E60AF919F918F917F916F915F914F913F911E
S1132E702F911F910F91FF90EF90DF90CF90BF9013
S1132E80AF909F908F907F906F905F904F903F9006
S1132E902F901F900F900CBE0F900BBE0F900FBE83
S1132EA00F90089581E008950F920FB6F8940F9251
S1132EB00BB60F920CB60F921F9211242F923F92D1
S1132EC04F925F926F927F928F929F92AF92BF9236
S1132ED0CF92DF92EF92FF920F931F932F933F9322
S1132EE04F935F936F937F938F939F93AF93BF930E
S1132EF0CF93DF93EF93FF93A091C91AB091CA1AAD
S1132F000DB60D920EB60D920E94C828A091C91A52
S1132F10B091CA1ACD91CDBFDD91DEBFFF91EF9183
S1132F20DF91CF91BF91AF919F918F917F916F91DD
S1132F305F914F913F912F911F910F91FF90EF90CF
S1132F40DF90CF90BF90AF909F908F907F906F90C5
S1132F505F904F903F902F901F900F900CBE0F905A
S1132F600BBE0F900FBE0F9008950F920FB6F894FA
S1132F700F920BB60F920CB60F921F9211242F9240
S1132F803F924F925F926F927F928F929F92AF92F5
S1132F90BF92CF92DF92EF92FF920F931F932F93E2
S1132FA03F934F935F936F937F938F939F93AF93CD
S1132FB0BF93CF93DF93EF93FF93A091C91AB0917E
S1132FC0CA1A0DB60D920EB60D9213BE8091911BC6
S1132FD09091921B01979093921B8093911B892B44
S1132FE041F480918F1B9091901B9093921B80933E
S1132FF0911B0E94072881110E94C828A091C91A18
S1133000B091CA1ACD91CDBFDD91DEBFFF91EF9192
S1133010DF91CF91BF91AF919F918F917F916F91EC
S11330205F914F913F912F911F910F91FF90EF90DE
S1133030DF90CF90BF90AF909F908F907F906F90D4
S11330405F904F903F902F901F900F900CBE0F9069
S11330500BBE0F900FBE0F90089587DF18950F9346
S11330601F93CF93DF93082F162F662309F43BC0D9
S1133070869FC001112480960E942708EC010097C6
S113308021F439C0D983C88303C04F9699838883B8
S11330900B8F1C8F0FB6F8940F92488159812C8D99
S11330A030E06B8D629FC001639F900D1124BA01C3
S11330B0680F791F7B836A831A8E5D834C83821B1E
S11330C0930B840F951F9F838E838FEF8D8F8E8F2D
S11330D0CE0108960E94460CCE0141960E94460CF1
S11330E00F900FBE08C08FE190E00E942708EC010A
S11330F0892B09F0C7CFCE01DF91CF911F910F919A
S113310008959F92AF92BF92CF92DF92EF92FF9277
S11331100F931F93CF93DF9300D01F921F92CDB7CD
S1133120DEB78FE190E00E9427088C01009709F434
S113313058C1FC01138212821182108215821482FA
S113314017821682128E81E0838F148E8FEF858F03
S1133150868F7801F8E0EF0EF11CC7010E94460C3F
S1133160680181E1C80ED11CC6010E94460C1D8273
S11331701C82A12C99249394BB24BA940FB6F8947E
S11331800F92F801928D838D9817F0F480819181CC
S1133190892B09F01DC1828193810E94A42AF80120
S11331A013821282928D9F5F928F9189992339F0B5
S11331B0C6010E94AB29813021F476DE02C0811160
S11331C073DE0F900FBE0DC18C819D81892B19F484
S11331D00F900FBE06C1A11005C0CE0101960E943A
S11331E0F329A92C0F900FBE0E94BC260FB6F894A9
S11331F00F92F801858D8F3F09F4158EF801868DA5
S11332008F3F09F4168E0F900FBEBE016C5F7F4F87
S1133210CE0101960E94FE29811196C00FB6F89442
S11332200F92F801928D838D0F900FBE98134AC0B0
S11332306C817D81C7010E9450290FB6F8940F92CA
S1133240F801868D1816ACF48189811105C011C06E
S1133250F8018189882369F0C6010E94AB29811194
S11332600E94392AF801868D8150868F868D181622
S11332707CF3F801B68E0F900FBE0FB6F8940F9240
S1133280858D1816ACF48085811105C011C0F80134
S11332908085882369F0C7010E94AB2981110E94AF
S11332A0392AF801858D8150858F858D18167CF318
S11332B0F801B58E0F900FBE0E94C22681115ECF19
S11332C0F3DD5CCF0FB6F8940F92F801868D1816D3
S11332D0ACF48189811105C011C0F801818988236A
S11332E069F0C6010E94AB2981110E94392AF801B4
S11332F0868D8150868F868D18167CF3F801B68EE4
S11333000F900FBE0FB6F8940F92858D1816ACF47B
S11333108085811105C011C0F8018085882369F07A
S1133320C7010E94AB2981110E94392AF801858DB9
S11333308150858F858D18167CF3F801B58E0F901A
S11333400FBE0E94C2261ACF0FB6F8940F92F8014E
S1133350868D1816ACF48189811105C011C0F8015D
S11333608189882369F0C6010E94AB2981110E94DA
S1133370392AF801868D8150868F868D18167CF344
S11333808FEFF801868F0F900FBE0FB6F8940F924F
S1133390858D1816ACF48085811105C011C0F80123
S11333A08085882369F0C7010E94AB2981110E949E
S11333B0392AF801858D8150858F858D18167CF307
S11333C08FEFF801858F0F900FBE0E94C22609C0AF
S11333D0F801828D8F5F828F8189882309F4F1CE71
S11333E0E7CEC8010F900F900F900F900F90DF91D0
S11333F0CF911F910F91FF90EF90DF90CF90BF90EE
S1133400AF909F9008956F927F928F929F92AF9208
S1133410BF92CF92DF92EF92FF920F931F93CF93BD
S1133420DF9300D01F921F92CDB7DEB78C015B01F2
S11334305D834C83722E812C6624639499249A9420
S11334407C0188E0E80EF11C6801E1E1CE0ED11C9C
S11334500FB6F8940F92F801928D838D981720F08F
S1133460F2E07F126EC07DC1F801448D411115C098
S1133470F80180819181892B09F079C1828193813E
S11334800E94A42AF80113821282928D9F5F928F68
S11334909189992309F44FC046C071101AC050E0B5
S11334A0B501F801848195810E94F436F801248DD8
S11334B084819581820F911D958384832281338138
S11334C08217930708F453C1808191819583848383
S11334D04EC150E0B501F801868197810E94F4360F
S11334E0F801848D90E09195819591092681378129
S11334F0280F391F378326834081518124173507CC
S113350030F422813381820F931F97838683F2E004
S11335107F122DC1F801828D882309F428C1828D80
S11335208150828F24C1C80141960E94AB29813009
S113353021F4BADC02C08111B7DC0F900FBE81E028
S11335401EC18C819D81892B21F40F900FBE80E0D8
S113355016C1811005C0CE0101960E94F329862C64
S11335600F900FBE0E94BC260FB6F8940F92F8017C
S1133570858D8F3F09F4158EF801868D8F3F09F4F0
S1133580168E0F900FBEBE016C5F7F4FCE01019669
S11335900E94FE29811196C00FB6F8940F92F8018B
S11335A0928D838D0F900FBE98134AC06C817D81DC
S11335B0C7010E9450290FB6F8940F92F801868D26
S11335C01816ACF48189811105C011C0F8018189F4
S11335D0882369F0C6010E94AB2981110E94392A0F
S11335E0F801868D8150868F868D18167CF3F8013C
S11335F0968E0F900FBE0FB6F8940F92858D181605
S1133600ACF48085811105C011C0F8018085882340
S113361069F0C7010E94AB2981110E94392AF8017F
S1133620858D8150858F858D18167CF3F801958ED4
S11336300F900FBE0E94C22681110ACF35DC08CF3D
S11336400FB6F8940F92F801868D1816ACF48189A0
S1133650811105C011C0F8018189882369F0C60170
S11336600E94AB2981110E94392AF801868D81506C
S1133670868F868D18167CF3F801968E0F900FBEF8
S11336800FB6F8940F92858D1816ACF480858111CD
S113369005C011C0F8018085882369F0C7010E9424
S11336A0AB2981110E94392AF801858D8150858FBB
S11336B0858D18167CF3F801958E0F900FBE0E942D
S11336C0C226C6CE0FB6F8940F92F801868D18164E
S11336D0D4F48189811106C016C0F8018189811151
S11336E005C011C07801F1E1EF0EF11CC7010E9481
S11336F0AB2981110E94392AF801868D8150868F69
S1133700868D181654F38FEFF801868F0F900FBE35
S11337100FB6F8940F92858D1816D4F48085811114
S113372006C016C0F8018085811105C011C078015A
S1133730F8E0EF0EF11CC7010E94AB2981110E9431
S1133740392AF801858D8150858F858D181654F39B
S11337508FEFF801858F0F900FBE0E94C22680E084
S11337600EC0F801448D442309F482CEB2CEF80190
S1133770828D8F5F828F81898111D5CEDECE0F90AD
S11337800F900F900F900F90DF91CF911F910F9199
S1133790FF90EF90DF90CF90BF90AF909F908F906D
S11337A07F906F9008959F92AF92BF92CF92DF92D5
S11337B0EF92FF920F931F93CF93DF9300D01F924A
S11337C01F92CDB7DEB78C017D836C83A12C992425
S11337D09394BB24BA947C0188E0E80EF11C680140
S11337E0E1E1CE0ED11C0FB6F8940F92F801928D40
S11337F0838D981700F580819181892B09F02BC165
S1133800828193810E94A42AF80113821282928DEC
S11338109F5F928F9189992341F0C80141960E943C
S1133820AB29813021F440DB02C081113DDB0F90D4
S11338300FBE81E018C18C819D81892B21F40F90EA
S11338400FBE80E010C1A11005C0CE0101960E94F8
S1133850F329A92C0F900FBE0E94BC260FB6F89432
S11338600F92F801858D8F3F09F4158EF801868D2E
S11338708F3F09F4168E0F900FBEBE016C5F7F4F11
S1133880CE0101960E94FE29811196C00FB6F894CC
S11338900F92F801928D838D0F900FBE98134AC03A
S11338A06C817D81C7010E9450290FB6F8940F9254
S11338B0F801868D1816ACF48189811105C011C0F8
S11338C0F8018189882369F0C6010E94AB2981111E
S11338D00E94392AF801868D8150868F868D1816AC
S11338E07CF3F801B68E0F900FBE0FB6F8940F92CA
S11338F0858D1816ACF48085811105C011C0F801BE
S11339008085882369F0C7010E94AB2981110E9438
S1133910392AF801858D8150858F858D18167CF3A1
S1133920F801B58E0F900FBE0E94C22681115BCFA5
S1133930BBDA59CF0FB6F8940F92F801868D18169A
S1133940ACF48189811105C011C0F80181898823F3
S113395069F0C6010E94AB2981110E94392AF8013D
S1133960868D8150868F868D18167CF3F801B68E6D
S11339700F900FBE0FB6F8940F92858D1816ACF405
S11339808085811105C011C0F8018085882369F004
S1133990C7010E94AB2981110E94392AF801858D43
S11339A08150858F858D18167CF3F801B58E0F90A4
S11339B00FBE0E94C22617CF0FB6F8940F92F801DB
S11339C0868D1816D4F48189811106C016C0F801B9
S11339D08189811105C011C07801F1E1EF0EF11C5C
S11339E0C7010E94AB2981110E94392AF801868DF2
S11339F08150868F868D181654F38FEFF801868FC9
S1133A000F900FBE0FB6F8940F92858D1816D4F44C
S1133A108085811106C016C0F8018085811105C01A
S1133A2011C07801F8E0EF0EF11CC7010E94AB2928
S1133A3081110E94392AF801858D8150858F858DE9
S1133A40181654F38FEFF801858F0F900FBE0E9464
S1133A50C22680E008C0F801828D8F5F828F818941
S1133A608111DBCEE4CE0F900F900F900F900F904A
S1133A70DF91CF911F910F91FF90EF90DF90CF9046
S1133A80BF90AF909F900895CF93DF93FC01928DE8
S1133A90838D9817D0F4828D8F5F828F868D8F3FB0
S1133AA079F48189882399F0EB01CF0141960E9432
S1133AB0AB29882371F0209771F081E088830CC0D2
S1133AC0868D8F5F868F81E007C080E005C081E02E
S1133AD003C081E001C081E0DF91CF9108956F922E
S1133AE07F928F929F92AF92BF92CF92DF92EF928A
S1133AF0FF920F931F93CF93DF9300D01F921F92D7
S1133B00CDB7DEB78C015B015D834C83622E812CC3
S1133B107724739499249A946C0188E0C80ED11C7C
S1133B207801E1E1EE0EF11C0FB6F8940F92F80162
S1133B30828D882309F445C0E680F780448D4423B0
S1133B40A9F050E0C701840F951F978386832281D3
S1133B5033818217930720F0808191819783868334
S1133B60F80166817781C5010E94F436611019C09D
S1133B70F801828D8150828F80819181892B29F473
S1133B800E94E42AF80193838283F80180858823C4
S1133B90A1F0C80108960E94AB29813071F484D940
S1133BA00CC0F801F782E6828189882331F0C801CC
S1133BB041960E94AB29811177D90F900FBE81E005
S1133BC01AC18C819D81892B21F40F900FBE80E056
S1133BD012C1811005C0CE0101960E94F329872CE1
S1133BE00F900FBE0E94BC260FB6F8940F92F801F6
S1133BF0858D8F3F09F4158EF801868D8F3F09F46A
S1133C00168E0F900FBEBE016C5F7F4FCE010196E2
S1133C100E94FE298111A2C00FB6F8940F92F801F8
S1133C20828D0F900FBE811157C080819181892BA5
S1133C3049F40FB6F8940F92828193810E94422A2C
S1133C400F900FBE6C817D81C7010E9450290FB671
S1133C50F8940F92F801868D1816ACF481898111BD
S1133C6005C011C0F8018189882369F0C7010E9449
S1133C70AB2981110E94392AF801868D8150868FE3
S1133C80868D18167CF3F801968E0F900FBE0FB632
S1133C90F8940F92858D1816ACF48085811105C0B7
S1133CA011C0F8018085882369F0C6010E94AB2900
S1133CB081110E94392AF801858D8150858F858D67
S1133CC018167CF3F801958E0F900FBE0E94C22641
S1133CD081112ACFE9D828CF0FB6F8940F92F801B2
S1133CE0868D1816ACF48189811105C011C0F801C4
S1133CF08189882369F0C7010E94AB2981110E9440
S1133D00392AF801868D8150868F868D18167CF3AA
S1133D10F801968E0F900FBE0FB6F8940F92858D12
S1133D201816ACF48085811105C011C0F801808596
S1133D30882369F0C6010E94AB2981110E94392AA7
S1133D40F801858D8150858F858D18167CF3F801D7
S1133D50958E0F900FBE0E94C226E6CE0FB6F89441
S1133D600F92F801868D1816D4F48189811106C04A
S1133D7016C0F8018189811105C011C07801F1E1F3
S1133D80EF0EF11CC7010E94AB2981110E94392A50
S1133D90F801868D8150868F868D181654F38FEF27
S1133DA0F801868F0F900FBE0FB6F8940F92858D91
S1133DB01816D4F48085811106C016C0F8018085D8
S1133DC0811105C011C07801F8E0EF0EF11CC701A4
S1133DD00E94AB2981110E94392AF801858D8150F6
S1133DE0858F858D181654F38FEFF801858F0F900A
S1133DF00FBEC8D780E00F900F900F900F900F90D8
S1133E00DF91CF911F910F91FF90EF90DF90CF90B2
S1133E10BF90AF909F908F907F906F900895AB016B
S1133E20009711F41092E819BC018DE59BE10E9402
S1133E30F43660E070E08091591B90915A1BB3CC2A
S1133E4008958091F519811104C00E946001809346
S1133E50931B089528EE33E04FE05FE160E080912A
S1133E60931B0E947C018093F5190895CF93DF93EF
S1133E70CDB7DEB7EC970FB6F894DEBF0FBECDBF5B
S1133E808091F519882309F44EC0198287E08A834A
S1133E9088E0E3E6F6E0DE01139601900D928A9540
S1133EA0E1F724EB30E03B872A8785EF90E09D879C
S1133EB08C8788E3888B8E871F8685E1898B8A8B24
S1133EC08B8B8C8B1E8A1D8A8AE590E0988F8F8B52
S1133ED03A8F298F8EE091E09C8F8B8F88EC90E055
S1133EE09E8F8D8F8EE1FE013196DE015F960190EB
S1133EF00D928A95E1F780910006882359F04EE1EE
S1133F0050E0BE01615E7F4F8091931B0E9433029B
S1133F1081E009C04EE150E0BE01615E7F4F8091B7
S1133F20931B76D181E0EC960FB6F894DEBF0FBEFA
S1133F30CDBFDF91CF910895AF92CF92EF920F93BF
S1133F40CF93DF93CDB7DEB72D970FB6F894DEBFCE
S1133F500FBECDBFE091F519EE2319F1E1E0E9833D
S1133F609B838A837D836C835F834E833987288711
S1133F700A87EB86CC86AD8680910106882351F0B2
S1133F804DE050E0BE016F5F7F4F8091931B0E9414
S1133F90330207C04DE050E0BE016F5F7F4F80E009
S1133FA037D12D960FB6F894DEBF0FBECDBFDF918B
S1133FB0CF910F91EF90CF90AF900895CF93DF936F
S1133FC01F92CDB7DEB78091F5198823B9F083E04D
S1133FD0898380910306882351F041E050E0BE01BB
S1133FE06F5F7F4F8091931B0E94330207C041E0B3
S1133FF050E0BE016F5F7F4F80E00AD10F90DF91E8
S1134000CF910895CF93DF93CDB7DEB7C456D109CE
S11340100FB6F894DEBF0FBECDBFAE0146595F4F59
S1134020FA0161917191AF018AE08983CE01029610
S11340300E9444378823C9F020910A06222361F0A4
S11340409927AC014F5F5F4FBE016F5F7F4F809137
S1134050931B0E94330209C09927AC014F5F5F4F45
S1134060BE016F5F7F4F80E0D3D0CC59DF4F0FB6D6
S1134070F894DEBF0FBECDBFDF91CF910895CF93EB
S1134080DF931F92CDB7DEB78091F5198823B9F07D
S113409089E0898380910906882351F041E050E04A
S11340A0BE016F5F7F4F8091931B0E94330207C054
S11340B041E050E0BE016F5F7F4F80E0A9D00F90D8
S11340C0DF91CF9108958A3508F08AE5E82FF0E072
S11340D0EE0FFF1FE559F94F808191819093AB005A
S11340E08093AA000895A0EAB0E09C9190629C930A
S11340F0E1EAF0E09081986190839C9192609C93B6
S11341009081926090832FE33CE93093A700209341
S1134110A600E1E0F1E0908190619083D4CF08950E
S1134120EF92FF920F931F93CF93DF939091F71920
S11341309F3F11F0981358C0FB018081811105C085
S11341401092F9191092F8190CC09091FA19891764
S113415041F0E6EFF9E11482138212828FEF81833A
S113416043C08091F8199091F9199C0122503109AA
S1134170240F351F2536310540F0E6EFF9E11382AF
S1134180128214828FEF81832FC08A01EB010F2EDC
S1134190F6EFEF2EF9E1FF2EF02DF70124812F5FCA
S11341A02483425051096E5F7F4F8550964E0E9482
S11341B0F436F7014281538142505109BA01600F2C
S11341C0711F738362839881898198130DC0E09174
S11341D0941BF091951B8BEF99E11995F7011482CB
S11341E0138212828FEF8183DF91CF911F910F9100
S11341F0FF90EF9008959093951B8093941B60E932
S113420070E280E00E941D168FEF8093F7190895E5
S11342105F926F927F928F929F92AF92BF92CF9252
S1134220DF92EF92FF920F931F93CF93DF93582E59
S11342305B018A018CE290E00E9427087C019801CE
S113424036952795ADE0B3EC0E94EE3592958295B4
S11342508F7089279F7089274AE2489F9001499F60
S1134260300D112441E00217130709F440E09801CE
S113427036952795ADE0B3EC0E94EE359295829584
S11342808F7089279F708927840F0115110559F1B3
S113429090E0C12CD12C66246A94680E470182E018
S11342A0880E911CE8010B32110510F0CAE2D0E02F
S11342B077247394790EF70190836182B5016C0DB4
S11342C07D1DAE01C4010E94F4369E012E5F3F4F56
S11342D0A70160E0852D0E942816CC0EDD1E0C1B64
S11342E01D0B972DF9F6C7010E94310981E0DF917A
S11342F0CF911F910F91FF90EF90DF90CF90BF90DF
S1134300AF909F908F907F906F905F90089584B14D
S1134310876084B923988CB581608CBD8CB58C651D
S11343208CBD8CB58F7D8CBD08958EBD00000DB401
S113433007FEFDCF8EB508954F925F926F927F92E4
S11343408F929F92AF92BF92CF92DF92EF92FF92A1
S11343500F931F93CF93DF933C015B014A01290123
S1134360C114D10439F4CA010E9427086C01892BB5
S113437009F4E4C088E290E00E942708EC01892B4C
S113438071F0D88ECF8A81E0881A9108C80CD91CA4
S1134390D5018C91898F8C91811105C018C0C601FB
S11343A00E943109CBC0AE01465E5F4FF5013196E4
S11343B0B8E0AB0EB11CCF012191DA012D93AD0110
S11343C0DC018C91882319F0AE16BF06A1F718A260
S11343D0102F063008F015E01E8B19A31AA25E01F7
S11343E0B2E0AB0EB11CC5010E94540CCE010C9678
S11343F00E94540CD987C88786E090E0811B9109FC
S11344009D878C87DB8BCA8B1BA21CA21DA21EA2BC
S11344101FA2A201B301C6010E949A169983888340
S1134420E114F10419F0F701D183C0830FB6F894B5
S11344300F9280916A1A8F5F80936A1A8091C91AC9
S11344409091CA1A892BD9F5D093CA1AC093C91A64
S113445080916A1A813009F041C00F2EF3E9EF2EE2
S1134460FAE1FF2EF02D0F2EF9ECCF2EFAE1DF2E1C
S1134470F02DC7010E94460CF9E0EF0EF11CEC147C
S1134480FD04B9F78AE89AE10E94460C81E89AE1B2
S11344900E94460C84E79AE10E94460C8BE69AE15E
S11344A00E94460C8AE89AE19093801A80937F1ABE
S11344B081E89AE190937E1A80937D1A0FC08091CF
S11344C0661A81110BC0E091C91AF091CA1A868943
S11344D0081720F0D093CA1AC093C91A8091621A9F
S11344E08F5F8093621A8E899091671A981710F4DF
S11344F08093671A90E09C01220F331F220F331F11
S1134500220F331F820F931FB5018D56954E0E94C3
S1134510580C0F900FBE8091661A882359F0E091D1
S1134520C91AF091CA1A8689801730F40E94541768
S113453081E005C081E003C081E001C08FEFDF911D
S1134540CF911F910F91FF90EF90DF90CF90BF908C
S1134550AF909F908F907F906F905F904F90089551
S11345609F92AF92BF92CF92DF92EF92FF920F93FE
S11345701F93CF93DF93FC0190915F1A9F5F9093F9
S11345805F1A8091681A9091691A20813181E9013A
S1134590C60FD71F8217930758F4C217D30708F022
S11345A06EC1D183C0838C179D0708F042C009C037
S11345B0C217D30708F460C18C179D0708F45CC1C7
S11345C05EC18091C91A9091CA1A02960E94AA0CDF
S11345D0E091C91AF091CA1AD383C2838091681AF0
S11345E09091691AC817D90768F46091C91A709133
S11345F0CA1A80917D1A90917E1A6E5F7F4F0E9435
S1134600790C17C06091C91A7091CA1A80917F1AE7
S11346109091801A6E5F7F4F0E94790C8091601A8E
S11346209091611AC817D90720F4D093611AC093E6
S1134630601A0FB6F8940F9280915F1A815080939C
S11346405F1A80915F1A81110DC180916A1A8111DC
S113465033C00BC1D7011596ED91FC911697C68115
S1134660D781CE010C960E94AA0C8E010E5F1F4FBB
S1134670C8010E94AA0C8E899091671A981710F4A9
S11346808093671A90E09C01220F331F220F331F7F
S1134690220F331F820F931FB8018D56954E0E942F
S11346A0580CE091C91AF091CA1A9E898689981704
S11346B058F0D092641A08C00F2EF4E7EF2EFAE1F6
S11346C0FF2EF02DDD24D394F70180818111C2CF18
S11346D08091651A882309F4BDC08091651A8823E6
S11346E009F4B8C0912CBB24B394CC24CA94DC2C18
S11346F080915F1A811198C08091681A9091691A0B
S113470001969093691A8093681AE090681AF09061
S1134710691AE114F10489F580917F1A9091801A45
S113472020917D1A30917E1A3093801A20937F1A3B
S113473090937E1A80937D1A8091631A8F5F809381
S1134740631AE0917F1AF091801A8081811105C06B
S1134750D092611AC092601A10C0E0917F1AF09151
S1134760801A0580F681E02D0680F781E02D828194
S113477093819093611A8093601A8091601A90914A
S1134780611AE816F90608F47DC0A92CE0917F1A95
S1134790F091801A8081811105C0D092611AC09273
S11347A0601A48C0E0917F1AF091801A0580F68162
S11347B0E02DC681D7818A819B81E816F90628F409
S11347C09093611A8093601A35C08E010E5F1F4F5B
S11347D0C8010E94AA0C8C899D89892B21F0CE01E5
S11347E00C960E94AA0C8E899091671A981710F45F
S11347F08093671A90E09C01220F331F220F331F0E
S1134800220F331F820F931FB8018D56954E0E94BD
S1134810580CE091C91AF091CA1A9E898689981792
S113482008F4B4CFAB2CB2CF8091651A8F5F80931C
S1134830651A28C08091641A811101C0A110B09238
S1134840641A8091651A81508093651A8091651A63
S113485081114ECF8091641A813031F40E94541733
S113486081E003C080E001C080E00F900FBE8111A1
S11348700EC00E9454170BC0D183C083A2CED18333
S1134880C083D7CE8091641A8111D9CFDACFDF915A
S1134890CF911F910F91FF90EF90DF90CF90BF9039
S11348A0AF909F9008959F92AF92BF92CF92DF9264
S11348B0EF92FF920F931F93CF93DF93009709F426
S11348C063C120915F1A2F5F20935F1AC091681A09
S11348D0D091691AC80FD91F8091C91A9091CA1A28
S11348E002960E94AA0CE091C91AF091CA1AD383C5
S11348F0C2838091681A9091691AC817D90768F41D
S11349006091C91A7091CA1A80917D1A90917E1A89
S11349106E5F7F4F0E94790C17C06091C91A709125
S1134920CA1A80917F1A9091801A6E5F7F4F0E94FD
S1134930790C8091601A9091611AC817D90720F4F4
S1134940D093611AC093601A0FB6F8940F928091B5
S11349505F1A815080935F1A80915F1A81110DC193
S113496080916A1A811133C00BC1D7011596ED915C
S1134970FC911697C681D781CE010C960E94AA0C91
S11349808E010E5F1F4FC8010E94AA0C8E89909160
S1134990671A981710F48093671A90E09C01220F0D
S11349A0331F220F331F220F331F820F931FB801AF
S11349B08D56954E0E94580CE091C91AF091CA1A6E
S11349C09E898689981758F0D092641A08C00F2ED1
S11349D0F4E7EF2EFAE1FF2EF02DDD24D394F70156
S11349E080818111C2CF8091651A882309F4BDC0EA
S11349F08091651A882309F4B8C0912CBB24B39420
S1134A00CC24CA94DC2C80915F1A811198C08091C7
S1134A10681A9091691A01969093691A8093681A9A
S1134A20E090681AF090691AE114F10489F5809114
S1134A307F1A9091801A20917D1A30917E1A3093BA
S1134A40801A20937F1A90937E1A80937D1A809106
S1134A50631A8F5F8093631AE0917F1AF091801A32
S1134A608081811105C0D092611AC092601A10C071
S1134A70E0917F1AF091801A0580F681E02D06807E
S1134A80F781E02D828193819093611A8093601A5B
S1134A908091601A9091611AE816F90608F477C0BB
S1134AA0A92CE0917F1AF091801A8081811105C0B0
S1134AB0D092611AC092601A48C0E0917F1AF091B6
S1134AC0801A0580F681E02DC681D7818A819B8179
S1134AD0E816F90628F49093611A8093601A35C099
S1134AE08E010E5F1F4FC8010E94AA0C8C899D89FC
S1134AF0892B21F0CE010C960E94AA0C8E899091EC
S1134B00671A981710F48093671A90E09C01220F9B
S1134B10331F220F331F220F331F820F931FB8013D
S1134B208D56954E0E94580CE091C91AF091CA1AFC
S1134B309E898689981708F4B4CFAB2CB2CF8091A4
S1134B40651A8F5F8093651A22C08091641A81115F
S1134B5001C0A110B092641A8091651A81508093AB
S1134B60651A8091651A81114ECF8091641A813043
S1134B7031F40E94541781E003C080E001C080E05A
S1134B800F900FBE811108C00E94541705C0809178
S1134B90641A8111DFCFE0CFDF91CF911F910F9184
S1134BA0FF90EF90DF90CF90BF90AF909F900895CB
S1134BB0CF92DF92EF92FF920F931F93CF93DF93E5
S1134BC085E590E00E9427088C01892B09F4CBC06D
S1134BD088E290E00E942708EC01892B69F0188F85
S1134BE00F8B0C5A1F4F89E4898FE2E2F7E0DE0154
S1134BF05A9629E237E004C0C8010E943109B3C0C3
S1134C0091919D93992319F02E173F07C9F718A284
S1134C101E8A19A21AA27E0182E0E80EF11CC701C5
S1134C200E94540CCE010C960E94540CD987C8875C
S1134C3086E090E09D878C87DB8BCA8B1BA21CA22D
S1134C401DA21EA21FA240E050E069E171E0C8016C
S1134C500E949A16998388830FB6F8940F928091D4
S1134C606A1A8F5F80936A1A8091C91A9091CA1A3E
S1134C70892BA9F5D093CA1AC093C91A80916A1ACC
S1134C808130E1F503E91AE10F2EF9ECCF2EFAE1B8
S1134C90DF2EF02DC8010E94460C075F1F4F0C1534
S1134CA01D05C1F78AE89AE10E94460C81E89AE161
S1134CB00E94460C84E79AE10E94460C8BE69AE136
S1134CC00E94460C8AE89AE19093801A80937F1A96
S1134CD081E89AE190937E1A80937D1A0FC08091A7
S1134CE0661A81110BC0E091C91AF091CA1A86891B
S1134CF0811104C0D093CA1AC093C91A8091621A50
S1134D008F5F8093621A8E899091671A981710F4B6
S1134D108093671A90E09C01220F331F220F331FE8
S1134D20220F331F820F931FB7018D56954E0E9499
S1134D30580C0F900FBE8091661A882321F0809141
S1134D40C91A9091CA1AF8948FEF9FEF9093611A41
S1134D508093601A81E08093661A1092691A109207
S1134D60681A0E940C17DF91CF911F910F91FF9049
S1134D70EF90DF90CF90089580915F1A8F5F8093BA
S1134D805F1A08959F92AF92BF92CF92DF92EF92F3
S1134D90FF920F931F93CF93DF930FB6F8940F9264
S1134DA080915F1A815080935F1A80915F1A8111FC
S1134DB00DC180916A1A811133C00BC1D7011596B8
S1134DC0ED91FC911697C681D781CE010C960E9475
S1134DD0AA0C8E010E5F1F4FC8010E94AA0C8E8977
S1134DE09091671A981710F48093671A90E09C01C9
S1134DF0220F331F220F331F220F331F820F931FE3
S1134E00B8018D56954E0E94580CE091C91AF09144
S1134E10CA1A9E898689981758F0D092641A08C0D5
S1134E200F2EF4E7EF2EFAE1FF2EF02DDD24D394BC
S1134E30F70180818111C2CF8091651A882309F41A
S1134E40BDC08091651A882309F4B8C0912CBB2495
S1134E50B394CC24CA94DC2C80915F1A811198C03D
S1134E608091681A9091691A01969093691A8093B7
S1134E70681AE090681AF090691AE114F10489F54F
S1134E8080917F1A9091801A20917D1A30917E1A18
S1134E903093801A20937F1A90937E1A80937D1A00
S1134EA08091631A8F5F8093631AE0917F1AF09167
S1134EB0801A8081811105C0D092611AC092601A53
S1134EC010C0E0917F1AF091801A0580F681E02DE0
S1134ED00680F781E02D828193819093611A8093FB
S1134EE0601A8091601A9091611AE816F90608F424
S1134EF073C0A92CE0917F1AF091801A80818111EE
S1134F0005C0D092611AC092601A48C0E0917F1A1D
S1134F10F091801A0580F681E02DC681D7818A81BF
S1134F209B81E816F90628F49093611A8093601A1D
S1134F3035C08E010E5F1F4FC8010E94AA0C8C89D8
S1134F409D89892B21F0CE010C960E94AA0C8E8992
S1134F509091671A981710F48093671A90E09C0157
S1134F60220F331F220F331F220F331F820F931F71
S1134F70B8018D56954E0E94580CE091C91AF091D3
S1134F80CA1A9E898689981708F4B4CFAB2CB2CF7D
S1134F908091651A8F5F8093651A1EC08091641A90
S1134FA0811101C0A110B092641A8091651A8150D8
S1134FB08093651A8091651A81114ECF8091641A8D
S1134FC0813031F40E94541781E003C080E001C0B5
S1134FD080E00F900FBE05C08091641A8111E3CF69
S1134FE0E4CFDF91CF911F910F91FF90EF90DF906D
S1134FF0CF90BF90AF909F9008950FB6F8940F9202
S11350008091681A9091691A0F900FBE0895CF92FB
S1135010DF92EF92FF920F931F93CF93DF938091D0
S11350205F1A81119FC08091681A9091691A019644
S11350309093691A8093681AE090681AF090691A3C
S1135040E114F10499F580917F1A9091801A2091CE
S11350507D1A30917E1A3093801A20937F1A909390
S11350607E1A80937D1A8091631A8F5F8093631AEE
S1135070E0917F1AF091801A8081811107C08FEF2F
S11350809FEF9093611A8093601A10C0E0917F1A89
S1135090F091801A0580F681E02D0680F781E02DDD
S11350A0828193819093611A8093601A8091601A2F
S11350B09091611AE816F90610F4D12C59C0D12C3C
S11350C0CC24C394E0917F1AF091801A80818111DD
S11350D007C08FEF9FEF9093611A8093601A48C0C6
S11350E0E0917F1AF091801A0580F681E02DC68147
S11350F0D7818A819B81E816F90628F49093611A76
S11351008093601A35C08E010E5F1F4FC8010E9444
S1135110AA0C8C899D89892B21F0CE010C960E94C2
S1135120AA0C8E899091671A981710F48093671AC5
S113513090E09C01220F331F220F331F220F331FD5
S1135140820F931FB8018D56954E0E94580CE09122
S1135150C91AF091CA1A9E898689981708F4B2CFA1
S1135160DC2CB0CF8091651A8F5F8093651AD12CA7
S11351708091641A882311F0DD24D3948D2DDF915E
S1135180CF911F910F91FF90EF90DF90CF900895F2
S113519080915F1A882321F081E08093641A089536
S11351A01092641AA091C91AB091CA1AE091C91A4E
S11351B0F091CA1A2D913C918789908D821793079B
S11351C060F06091C91A7091CA1A8091C91A9091BD
S11351D0CA1A675E7F4F0E94B7138091671A90E0E6
S11351E0FC01EE0FFF1FEE0FFF1FEE0FFF1F8E0FD0
S11351F09F1FFC01ED56F54E8081811117C08091EF
S1135200671A81508093671A8091671A90E0FC01B5
S1135210EE0FFF1FEE0FFF1FEE0FFF1F8E0F9F1FDE
S1135220FC01ED56F54E8081882349F38091671A7D
S113523090E09C01220F331F220F331F220F331FD4
S1135240280F391FD901AD56B54E1196ED91FC9139
S113525012970280F381E02D1296FC93EE9311973E
S11352602A56354EE217F30729F422813381FD01D2
S113527032832183FC01EE0FFF1FEE0FFF1FEE0FA1
S1135280FF1F8E0F9F1FFC01ED56F54E0180F2812A
S1135290E02D868197819093CA1A8093C91A089544
S11352A0CF93DF93EB016091C91A7091CA1A645FBE
S11352B07F4F0E94790C8091C91A9091CA1A029664
S11352C00E94AA0CCF3F8FEFD80759F46091C91AF6
S11352D07091CA1A6E5F7F4F8BE69AE10E94580C58
S11352E037C08091681A9091691AC80FD91FE0914C
S11352F0C91AF091CA1AD383C2838091681A909113
S1135300691AC817D90768F46091C91A7091CA1A42
S113531080917D1A90917E1A6E5F7F4F0E94790C66
S113532017C06091C91A7091CA1A80917F1A90911E
S1135330801A6E5F7F4F0E94790C8091601A909161
S1135340611AC817D90720F4D093611AC093601A60
S1135350DF91CF9108950F931F93CF93DF93DC01D7
S11353601596ED91FC911697C681D7818E01045F45
S11353701F4FC8010E94AA0C80915F1A81111CC0A2
S11353800A501109C8010E94AA0C8E899091671ACB
S1135390981710F48093671A90E09C01220F331F32
S11353A0220F331F220F331F820F931FB8018D5614
S11353B0954E0E94580C05C0B80184E79AE10E94FA
S11353C0580CE091C91AF091CA1A9E8986898917E6
S11353D020F481E08093641A01C080E0DF91CF91D2
S11353E01F910F9108952091631AFC01208320914D
S11353F0681A3091691A328321830895FC010FB62B
S1135400F8940F922091681A3091691ADB018D91FA
S11354109C918F3FBFEF9B0721F14091631A50810C
S1135420541729F04181528124173507E0F4418152
S11354305281D901A41BB50BA817B907B0F4421BBC
S1135440530B840F951FDB018D939C938091631AFA
S113545080838091681A9091691A9283818380E095
S113546005C080E003C081E001C081E00F900FBE61
S1135470089581E08093641A08958091C91A9091E7
S1135480CA1A08950F931F93CF93DF93FC01892BBE
S113549009F455C02689A091C91AB091CA1A569622
S11354A08C91281708F04BC084859585992364F066
S11354B0A091C91AB091CA1A56963C9186E090E020
S11354C0831B91099587848730E0C901880F991F50
S11354D0880F991F880F991F280F391F2D56354E95
S11354E0828593858217930719F58F01EF01229620
S11354F0CE010E94AA0CE091C91AF091CA1A8689B9
S1135500F801868B9091671A981710F48093671AA4
S113551090E09C01220F331F220F331F220F331FF1
S1135520820F931FBE018D56954E0E94580C07C0E2
S1135530A091C91AB091CA1A56968C91868BDF91A4
S1135540CF911F910F9108950F931F93CF93DF93E2
S1135550FC01892B79F182A1815082A3268991A132
S1135560291751F181112AC0EF018F010E5F1F4FDE
S1135570C8010E94AA0C89A18E8B26E030E0281B6A
S113558031093D872C879091671A981710F48093FE
S1135590671A90E09C01220F331F220F331F220F42
S11355A0331F820F931FB8018D56954E0E94580CDD
S11355B081E005C080E003C080E001C080E0DF91AD
S11355C0CF911F910F9108958091C91A9091CA1A91
S11355D0892B39F0E091C91AF091CA1A82A18F5F20
S11355E082A38091C91A9091CA1A08950F931F93A8
S11355F0CF93DF93182FEB010FB6F8940F92E0913D
S1135600C91AF091CA1A83A194A1A5A1B6A1892BA4
S11356108A2B8B2B09F058C0E091C91AF091CA1A51
S113562081E087A3209709F44FC08091C91A909113
S1135630CA1A02960E94AA0CCF3F8FEFD80759F4DA
S11356406091C91A7091CA1A6E5F7F4F8BE69AE116
S11356500E94580C37C08091681A9091691AC80F3B
S1135660D91FE091C91AF091CA1AD383C2838091D9
S1135670681A9091691AC817D90768F46091C91A11
S11356807091CA1A80917D1A90917E1A6E5F7F4F35
S11356900E94790C17C06091C91A7091CA1A80913E
S11356A07F1A9091801A6E5F7F4F0E94790C8091CF
S11356B0601A9091611AC817D90720F4D093611A1F
S11356C0C093601A0E9454170F900FBE0FB6F8943F
S11356D00F92E091C91AF091CA1A63A174A185A12D
S11356E096A16115710581059105D9F0112349F041
S11356F0E091C91AF091CA1A13A214A215A216A213
S113570010C0E091C91AF091CA1A03A114A125A1ED
S113571036A1015011092109310903A314A325A3BA
S113572036A3E091C91AF091CA1A17A20F900FBEBE
S1135730DF91CF911F910F9108954F925F926F92D5
S11357407F928F929F92AF92BF92EF92FF920F93AC
S11357501F9349015A010FB6F8940F92E091C91AA8
S1135760F091CA1A27A1223009F46FC0E091C91A36
S1135770F091CA1A43A054A065A076A0DC01CB0125
S113578080959095A095B09584219521A621B72167
S113579083A394A3A5A3B6A3E091C91AF091CA1A4E
S11357A081E087A3E114F10409F44FC08091C91A80
S11357B09091CA1A02960E94AA0C8FEFE816F80676
S11357C059F46091C91A7091CA1A6E5F7F4F8BE6C3
S11357D09AE10E94580C37C08091681A9091691A16
S11357E0E80EF91EE091C91AF091CA1AF382E28216
S11357F08091681A9091691AE816F90668F4609124
S1135800C91A7091CA1A80917D1A90917E1A6E5F9E
S11358107F4F0E94790C17C06091C91A7091CA1AFF
S113582080917F1A9091801A6E5F7F4F0E94790C4D
S11358308091601A9091611AE816F90620F4F092AA
S1135840611AE092601A0E9454170F900FBE0FB6AF
S1135850F8940F920115110569F0E091C91AF091BD
S1135860CA1A83A194A1A5A1B6A1F801808391834A
S1135870A283B383E091C91AF091CA1A87A1813037
S1135880B1F0E091C91AF091CA1A83A194A1A5A11B
S1135890B6A180949094A094B09488229922AA22CC
S11358A0BB2283A294A2A5A2B6A281E001C080E09B
S11358B0E091C91AF091CA1A17A20F900FBE1F9156
S11358C00F91FF90EF90BF90AF909F908F907F903B
S11358D06F905F904F9008950F931F93CF93DF9332
S11358E0FC010FB6F8940F920115110549F083A13C
S11358F094A1A5A1B6A1E80188839983AA83BB8357
S113590087A192E097A32230B1F018F4213031F04E
S11359102AC02330E9F0243001F125C003A114A1E9
S113592025A136A1402B512B622B732B43A354A3E7
S113593065A376A318C043A154A165A176A14F5FC6
S11359405F4F6F4F7F4F43A354A365A376A30BC050
S113595043A354A365A376A306C0823079F143A37D
S113596054A365A376A3813059F5EF018F010E5F2F
S11359701F4FC8010E94AA0C8E899091671A98172C
S113598010F48093671A90E09C01220F331F220FBA
S1135990331F220F331F820F931FB8018D56954E6C
S11359A00E94580CE091C91AF091CA1A9E898689FE
S11359B0891740F40E94541781E005C080E003C0B9
S11359C081E001C081E00F900FBEDF91CF911F9164
S11359D00F910895EF92FF920F931F93CF93DF934C
S11359E0FC010115110549F083A194A1A5A1B6A15B
S11359F0E80188839983AA83BB8387A192E097A354
S1135A002230B1F018F4213031F02AC02330E9F00B
S1135A10243001F125C003A114A125A136A1402BF6
S1135A20512B622B732B43A354A365A376A318C0F5
S1135A3043A154A165A176A14F5F5F4F6F4F7F4F84
S1135A4043A354A365A376A30BC043A354A365A3A4
S1135A5076A306C08230F1F143A354A365A376A3D1
S1135A608130D1F5EF0180915F1A81111DC08F0142
S1135A700E5F1F4FC8010E94AA0C8E899091671A6D
S1135A80981710F48093671A90E09C01220F331F3B
S1135A90220F331F220F331F820F931FB8018D561D
S1135AA0954E0E94580C07C0BF01645F7F4F84E786
S1135AB09AE10E94580CE091C91AF091CA1A9E8981
S1135AC08689891758F4E114F10451F081E0F70153
S1135AD0808307C080E005C081E003C081E001C08D
S1135AE081E0DF91CF911F910F91FF90EF90089586
S1135AF0009721F48091C91A9091CA1A0FB6F894AC
S1135B000F92FC0127A1223019F417A281E001C0F1
S1135B1080E00F900FBE0895CF93DF9300D01F92C3
S1135B20CDB7DEB7AADC9093321B8093311B198268
S1135B301A821B821C82EE24EA94FE2C8E010F5FD3
S1135B401F4F2FEF3FEFA9016FEF7FEFCB01F5DD83
S1135B50E091961BF091971B309769F369817A81E4
S1135B6088E99BE11995E7CFCF93DF93CDB7DEB7F3
S1135B70C456D1090FB6F894DEBF0FBECDBF00EDF9
S1135B8010E00F2EF6EDEF2EF12CF02D20E04FEF6C
S1135B905FEF60E070E08091571B9091581B0E946A
S1135BA06F1D24E630E040E0BE016F5F7F4F8CEF55
S1135BB09BE10E94A2056C0160E070E08091571B9C
S1135BC09091581B0E94D31BC114D10479F0FE019B
S1135BD031969F012C0D3D1DD8018C9185FFFCCF82
S1135BE08191D7018C932E173F07B1F78AE090E09B
S1135BF00E945324CBCFAF92BF92CF92DF92EF9209
S1135C00FF920F931092D50089E18093D4001092F3
S1135C10C5008093C40086E08093C20098E190930D
S1135C20C10090EE9093D00098E99093D100E2EDFA
S1135C30F0E080838081808384E690E00E942708DE
S1135C4044E650E0BC018CEF9BE10E942C05A12CA2
S1135C50B12CC12CD12CE12CF12C04E020E030E05B
S1135C604CE251E066E277E08CE89DE20E949C21E0
S1135C7020E030E04CE251E062E377E084EB9DE227
S1135C800E949C2181E00E9481189093581B80936C
S1135C90571B0F91FF90EF90DF90CF90BF90AF9084
S1135CA00895E0ECF0E0908195FFFDCF8093C6006D
S1135CB00895CF93DF93EC018881882329F02196FE
S1135CC0F0DF89918111FCCFDF91CF9108950F937B
S1135CD01F93CF93DF93EC018B0120E04FEF5FEF35
S1135CE060E070E08091571B9091581B0E946F1DDB
