:1000000020C100003FC100003DC100000C94531905
:100010000C9464190C94751935C1000033C10000AB
:1000200031C100002FC100002DC100002BC1000014
:1000300029C1000027C1000025C1000023C1000024
:1000400021C100001FC100001DC100001BC1000034
:1000500019C1000017C1000015C1000013C1000044
:1000600011C100000FC100000DC100000BC1000054
:1000700009C1000007C1000005C1000003C1000064
:100080000C94FE1CFFC00000FDC00000FBC000007F
:10009000F9C00000F7C00000F5C00000F3C0000088
:1000A000F1C00000EFC00000EDC00000EBC0000098
:1000B000E9C00000E7C00000E5C00000E3C00000A8
:1000C000E1C00000DFC00000DDC000000C9464331C
:1000D000D9C00000D7C00000D5C00000D3C00000C8
:1000E000D1C00000084AD73B3BCE016E84BCBFFDA7
:1000F000C12F3D6C74319ABD56833DDA3D00C77FF8
:1001000011BED9E4BB4C3E916BAAAABE0000008090
:100110003F05A84CCDB2D44EB93836A9020C50B91F
:10012000918688083CA6AAAA2ABE000000803F004B
:100130006E616E00696E660000407A10F35A00A08E
:10014000724E18090010A5D4E80000E876481700A0
:1001500000E40B54020000CA9A3B000000E1F505E0
:10016000000080969800000040420F000000A0862A
:1001700001000000102700000000E803000000005C
:100180006400000000000A00000000000100000000
:1001900000002C76D888DC674F0823DFC1DFAE591A
:1001A000E1B1B796E5E3E453C63AE651997696E8AD
:1001B000E6C28426EB898C9B62ED407C6FFCEFBC31
:1001C0009C9F40F2BAA56FA5F490055A2AF75C935C
:1001D0006B6CF9676DC11BFCE0E40D47FEF520E692
:1001E000B500D0ED902E0300943577050080841E75
:1001F000080000204E0A000000C80C333333330FD0
:10020000986E12831141EF8D2114893BE65516CF6C
:10021000FEE6DB18D1844B381BF77C1D901DA4BB78
:10022000E424203284725E228100C9F124ECA1E52D
:100230003D27CCEADAE188818230F0F30E94251C68
:10024000FACF11241FBECFEFD1E2DEBFCDBF00E059
:100250000CBF17E0A0E0B2E0EEE4F9E700E00BBF6E
:1002600002C007900D92A435B107D9F72CE1A4E59F
:10027000B7E001C01D92AB31B207E1F70E94A618AA
:100280000C94A53CBDCECF93DF936BE374E081E08B
:100290000E94EE1A1092550710925407C6E5D7E057
:1002A0008DE8FE0111928A95E9F781E00E94521DC6
:1002B0009093E0078093DF071882DF91CF91089534
:1002C00080915607811116C0E6E5F7E0168E158E6F
:1002D000168A158A14A213A212A211A2178E148EC6
:1002E000128E118E138E1092E2071092E10791E0A8
:1002F000908308958FEF0895CF92DF92EF92FF924F
:100300000F931F93CF93DF931F92CDB7DEB7690191
:10031000E82EF12C9DE8899F800111240A5A184F7C
:1003200083E0F8018083508F478B60A382E089834C
:100330000E94312FF801E557FF4F918380830E947F
:100340006C3221E030E0AE014F5F5F4F61E0F801B9
:1003500080A10E94F91AB60181E00E94EA2F672B62
:10036000682B692B61F48DE88E9DF0018F9DF00D57
:100370001124EA5AF84F81E0808380E02EC080E0AB
:1003800091E065D6009731F14DE84E9D90014F9D6B
:10039000300D112440E051E0BC01C901895A984F49
:1003A0005BD384E190E053D60097B1F02DE82E9D09
:1003B00080012F9D100D112444E150E0BC01C801C3
:1003C0008F59984F49D3F801EA5AF84F82E0808359
:1003D00081E003C08FEF01C08FEF0F90DF91CF91CD
:1003E0001F910F91FF90EF90DF90CF900895CF93E2
:1003F000DF93811134C020E04FEF5FEF60E070E0E9
:100400008091DF079091E0070E944022809156077B
:10041000823051F060E070E08091DF079091E0075A
:100420000E94A42080E01CC0C6E5D7E089819A81A3
:1004300018D78B859C8515D781E08883EF89F88D47
:1004400060E070E080E090E0199560E070E08091FD
:10045000DF079091E0070E94A42081E001C080E0C6
:10046000DF91CF910895EF92FF920F931F93CF9357
:10047000DF9300D01F92CDB7DEB75C834B83811131
:100480007BC07B0120E04FEF5FEF60E070E0809188
:10049000DF079091E0070E9440228091560782304A
:1004A00051F4E114F10439F00B811C81C80101976A
:1004B0008436910550F060E070E08091DF07909104
:1004C000E0070E94A42080E058C00E5F1F4F2091DB
:1004D0005F073091600780E091E0821B930B081763
:1004E000190708F03FC02091690730916A0784E13D
:1004F00090E0821B930B0297A8F18AE290E09A8326
:10050000898342E050E0BE016D5F7F4F87E597E051
:10051000B5D24B815C81B70187E597E0AFD2011579
:100520001105B1F0902F812F0B32110510F09AE2D6
:1005300080E099838A8342E050E0BE016F5F7F4F85
:1005400081E697E09BD289819A81081B190B51F7AC
:1005500060E070E08091DF079091E0070E94A420A6
:100560008B810BC060E070E08091DF079091E00725
:100570000E94A42080E001C080E00F900F900F90B7
:100580000F90DF91CF911F910F91FF90EF90089501
:10059000CF93DF931F921F92CDB7DEB7811114C0A6
:1005A00080915607823091F4662394F081E089832C
:1005B0006A8322E030E0AE014F5F5F4F61E08091DF
:1005C00076070E94F91A05C080E003C080E001C0F0
:1005D00080E00F900F90DF91CF910895AF92BF927E
:1005E000CF92DF92EF92FF920F931F93CF93DF93FF
:1005F000CDB7DEB7AE970FB6F894DEBF0FBECDBF56
:100600008111DBC080915607882309F4D6C020E011
:100610004FEF5FEF60E070E08091DF079091E007BF
:100620000E94402280915607823049F060E070E0DD
:100630008091DF079091E0070E94A420BEC08091C6
:100640007507882309F462C0E6E5F7E0858D968D8D
:100650000A96968F858F248D265F248F893E93403E
:1006600058F060E070E08091DF079091E0070E9411
:10067000A42080E0BCDEA1C0293C08F447C0E6E528
:10068000F7E0078110851EA61DA6A18C838DA81AF0
:100690008A2D8F77A82EC1F1C12CD12CB12C7F01CE
:1006A0001982F701838D8B0D8F778A834189528957
:1006B0004C0D5D1D22E030E0BE01635D7F4F81E6A1
:1006C00097E08BD22DA53EA5A801BE016D5F7F4F9F
:1006D00087E597E082D22DA53EA5020F131FF701F3
:1006E000838194810197082319232E5F3F4FAE0128
:1006F0004F5F5F4F61E080A10E94F91AB394F2E06E
:10070000CF0ED11CAB10CCCF10927207E6E5F7E00C
:10071000818D482F50E0938D491B51094F77552704
:10072000443051050CF041C06581768125893689B8
:1007300062177307D1F119828A838F01440F551F05
:1007400081899289480F591F22E030E0BE01635D24
:100750007F4F81E697E041D22DA53EA5F80145895E
:100760005689BE016D5F7F4F87E597E036D22DA594
:100770003EA5F80185899689A901480F591F8381F3
:100780009481019784239523968B858B81E0878FB5
:10079000818D8F5F8F77818F2E5F3F4FAE014F5FCF
:1007A0005F4F61E080A10E94F91A60E070E08091E3
:1007B000DF079091E0070E94A420AE960FB6F89450
:1007C000DEBF0FBECDBFDF91CF911F910F91FF9084
:1007D000EF90DF90CF90BF90AF9008950F931F934D
:1007E000CF93DF93EA01811141C080917907909105
:1007F0007A07892B99F4DB0111968C91119790E07F
:10080000982F88272C91822B90937A0780937907D1
:100810008536910558F522976E5F7F4F06E517E004
:10082000F80181A192A1AE018558984F0E94C83B62
:10083000D80191966D917C9192976C0F7D1F929645
:100840007C936E93919793968D919C919497681752
:10085000790761F45796ED91FC9158978BE797E0F3
:100860001995F80114A213A212A211A2DF91CF913F
:100870001F910F9108959F92AF92BF92CF92DF92F6
:10088000EF92FF920F931F93CF93DF931F92CDB7F9
:10089000DEB78B015A01909176079813B8C09091FA
:1008A0005607992309F4B3C0FB01D0800F2EF6E55B
:1008B000EF2EF7E0FF2EF02D13C0E0915407F091DA
:1008C0005507309759F0482F50E060E070E000E0A5
:1008D00010E023E0CF010E946031AAC0E12CF12C8E
:1008E00020E04FEF5FEF60E070E0F701E757FF4F68
:1008F000808191810E944022F7018081823030F016
:10090000A114B10419F00115110551F4F701E757CD
:10091000FF4F60E070E0808191810E94A42088C038
:10092000833021F5F3E0DF1221C0F701E557FF4FD7
:1009300080819181009781F000E010E022E040E0AA
:1009400050E0BA010E946031F701E557FF4F118274
:10095000108260E080E01CDEF701E757FF4F60E0A7
:1009600070E0808191810E94A42062C0F801C18062
:10097000DD2009F452C0F4E0DF1213C053C0A5011A
:1009800042505109B8016E5F7F4F80E027DFF701C9
:10099000828D8F5F8F77828FF701628D80E0F8DD27
:1009A0002CC0F1E0DF1229C0F701838DFC2DF81B6C
:1009B0008F2F8F77982E09F1D12C57018BE0A80E3D
:1009C000B11C87010F5F1F4F42E050E0BE016F5F17
:1009D0007F4FC50150D1498150E060E070E0C8010F
:1009E0004AD1D3949D10F0CFF701C38E148E168E8A
:1009F000158E818DC81201C0178EF701E757FF4F82
:100A000060E070E0808191810E94A42011C0F80113
:100A1000D080F2E0DF120CC050CFF701828DC812F7
:100A2000BBCFADCFF701828DC81609F4B0CFB4CFDC
:100A30000F90DF91CF911F910F91FF90EF90DF907A
:100A4000CF90BF90AF909F90089580E0C7DD8AE07F
:100A500090E00E943E29F9CFFC016115710561F01B
:100A600071836083538342831186108617821682B6
:100A70001582148281E0089580E00895EF92FF923C
:100A80000F931F93CF93DF93EC012A813B818885DD
:100A90009985F901E81BF90BE417F50708F449C03B
:100AA0008A017B018C819D81A901481B590B041788
:100AB0001507A8F428813981A801820F931F0E948D
:100AC000C83B8C819D81800F911F9D838C832A81DF
:100AD0003B818217930721F51D821C8221C028814A
:100AE0003981820F931F0E94C83B8C819D816A814E
:100AF0007B81AC01461B570B400F511F681B790BC4
:100B00006E0D7F1D888199810E94C83B8C819D81DB
:100B10002A813B81821B930B800F911F9D838C83C5
:100B200048855985040F151F1987088781E090E0D3
:100B300002C080E090E0DF91CF911F910F91FF9074
:100B4000EF9008950F931F93CF93DF93FC0121152E
:100B50003105C9F1A681B78184819581A817B907AC
:100B6000A9F1C62FD72F80E090E007C0A681B781FA
:100B700064817581A617B70759F160817181A60F4D
:100B8000B71F5C918E015883668177816F5F7F4FBD
:100B900077836683A085B1851197B187A087A281ED
:100BA000B3816A177B0711F4178216822196D80148
:100BB0005C91541302C001960BC0019628173907A7
:100BC000A9F6C90105C080E090E002C080E090E095
:100BD000DF91CF911F910F910895CF92DF92EF9205
:100BE000FF920F931F93CF93DF937C016B01EA0178
:100BF0008901672BA9F1FC0142815381C417D507F4
:100C000010F0C41BD50B4C1B5D0B4017510760F057
:100C1000F701608171816C0F7D1FA801C6010E94E0
:100C2000C83B802F912F1EC0F701608171816C0F2E
:100C30007D1FC6010E94C83BF70122813381C90193
:100C40008C1B9D0BA801421B530B4C0F5D1F608139
:100C500071818C0D9D1D0E94C83B802F912F02C079
:100C600080E090E0DF91CF911F910F91FF90EF9086
:100C7000DF90CF900895EF92FF920F931F93CF9341
:100C8000DF93EC017B01088519854017510708F4B3
:100C90008A018E819F814A815B81481B590B4017D5
:100CA0005107C8F0E114F10441F068817981680FBF
:100CB000791FA801C7010E94C83B8E819F81800FC8
:100CC000911F9F838E832A813B818217930741F571
:100CD0001F821E8225C0E114F104C1F06881798170
:100CE000680F791FC7010E94C83B4E815F812A812E
:100CF0003B81C901841B950B421B530B400F511FB5
:100D0000688179818E0D9F1D0E94C83B8E819F81D5
:100D10002A813B81821B930B800F911F9F838E83BF
:100D200088859985801B910B99878887C801DF91F9
:100D3000CF911F910F91FF90EF900895EF92FF9246
:100D40000F931F93CF93DF937C01680F791FFC01F2
:100D50003196009719F04115510521F460E070E0DB
:100D600081E04BC02115310559F1E617F70760F511
:100D70008A01020F131FDA01EC0191E02FEF04C08A
:100D8000FA01E617F70720F53D9131110AC0988363
:100D9000CF010196A017B107E8F4EF01FC0191E043
:100DA000F0CFAF014F5F5F4F30839F5FA017B10758
:100DB000B0F49F3F29F728833296EA0191E0E1CF12
:100DC000EC0180E091E00DC0EC0182E091E009C00F
:100DD00082E007C0EF01FC0180E091E002C0FA016F
:100DE00080E0C617D70718F49883BF0101C082E0DE
:100DF0009B012E193F09622F732FDF91CF911F9115
:100E00000F91FF90EF900895AF92BF92CF92DF9233
:100E1000EF92FF920F931F93CF93DF937C01DA0140
:100E2000009711F0109721F460E070E081E05FC05E
:100E30002115310509F44BC06A01C20ED31E5C01B5
:100E4000A60EB71E8C0150E001C08F01ED01219666
:100E50007C91711103C05460F8013DC07150C6010E
:100E60008C1B9D0B272F30E08217930710F4782FEF
:100E70005860C501801B910B272F30E08217930724
:100E800010F4782F5260772361F1DE01F801972F7B
:100E90003D91311101C0546031939150C9F7EFEF8A
:100EA000E70FF0E03196DE01AE0FBF1FE00FF11F3C
:100EB000AC15BD0580F47E3F41F2EA15FB0510F04C
:100EC000526009C08F010F5F1F4F1082BFCFFC011E
:100ED00050E001C0F801EE19FF096E2F7F2F852F1A
:100EE00006C0CC15DD05B0F7F801DE01E6CFDF91D5
:100EF000CF911F910F91FF90EF90DF90CF90BF9017
:100F0000AF900895862798E02CE880FF03C086956F
:100F1000822701C086959150C1F708950F931F93C2
:100F2000CF93DF93662359F08C01EC01060F111D5E
:100F300080E06991E7DF0C171D07D9F701C080E059
:100F4000DF91CF911F910F91089580B380BBECE7A3
:100F5000F0E08081806C8083EAE7F0E08081806847
:100F600080838081846080830895ECE7F0E0808353
:100F70009081906C9083EAE7F0E090819064908398
:100F8000908196FDFDCF2091780090917900E82F17
:100F9000F0E02695269530E4939FC0011124822B22
:100FA000FE2FEE27E050FE4FE80FF11D80810895DF
:100FB000CF92DF92EF92FF92CF93DF93EC01C88044
:100FC000D980EA80FB802BED3FE049E450E4C70183
:100FD000B6010E94473618166CF42BED3FE049EC41
:100FE00050E4C701B6010E94D033688379838A83B5
:100FF0009B8316C02BED3FE049E450ECC701B601DE
:101000000E949734882364F42BED3FE049EC50E4D0
:10101000C701B6010E94D133688379838A839B8399
:1010200088819981AA81BB81BC01CD019F772BED7D
:101030003FE049E450E40E94473618160CF4BFCF55
:10104000DF91CF91FF90EF90DF90CF900895EF92D6
:10105000FF920F931F93CF93DF93EC010E94B02B6D
:101060008091E9079091EA07892B41F5EBEEF7E0D3
:10107000AFEEB7E0B183A08313821282EBEEF9E109
:10108000F093EA07E093E90713821282118210823B
:101090008CEF91E113969C938E931297ED93FC93B2
:1010A0009093E6078093E5079093E8078093E7071E
:1010B00080E090E89093E4078093E3078091E30752
:1010C0009091E4078C239D23892B09F0B2C02097CF
:1010D00009F4B2C0AE014C5F5F4F09F4B0C080911B
:1010E000E7079091E8078417950708F4ABC0E091F3
:1010F000EB07F091EC07ABEEB7E002C0DF01F901BE
:10110000228133812417350728F42081318121156C
:101110003105A1F76091E9077091EA07E617F70733
:1011200009F493C0CD91DC9111977E0184E0E80E23
:10113000F11C808191818D939C9382819381841B8A
:10114000950B8930910508F452C09F01240F351F7B
:10115000D90113969C938E93129753834283ABEEDF
:10116000B7E001C0DC018D919C9111978217930724
:10117000C8F312964D915C9113978D01040F151FC2
:101180002017310751F4E9012A813B81420F531F97
:1011900013965C934E9312979D01E9014A815B81FE
:1011A0008901040F151F80179107C9F46017710793
:1011B00091F0E8018A819B81480F591FE9015B8307
:1011C0004A838D919C911197EC0188819981E90165
:1011D0009983888307C0E9017983688303C0E901A3
:1011E00099838883A217B30711F02D933C93228132
:1011F00033818091E7079091E807821B930B9093CE
:10120000E8078093E7074091E5075091E6078417C8
:10121000950720F49093E6078093E5078091E30714
:101220009091E407282B392B33832283118210827B
:101230000EC0E12CF12C0BC0E12CF12C08C0E12CEC
:10124000F12C05C0E12CF12C02C0E12CF12C0E9404
:10125000B62BC701DF91CF911F910F91FF90EF90B7
:101260000895CF93DF93009709F468C0FC01349789
:10127000228133814091E3075091E407B90164234F
:101280007523672B09F45AC060817181672B09F0BF
:1012900055C0EF0140955095242335233383228395
:1012A0000E94B02B4A815B818091E7079091E8070B
:1012B000840F951F9093E8078093E707EBEEF7E024
:1012C00001C0FC01808191818C179D07D0F32281A0
:1012D0003381BF01620F731FC617D70729F4240F8C
:1012E000351F33832283EF012A813B81DE01A20F68
:1012F000B31F8A179B07C9F48091E9079091EA0709
:10130000A817B90779F012968D919C911397280F21
:10131000391F3B832A83A081B1818D919C91998350
:10132000888305C0B983A88302C099838883EC179A
:10133000FD0711F0D183C0830E94B62BDF91CF91BE
:1013400008958091E7079091E8070895EF92FF9242
:101350000F931F93CF93DF93EC01E42E2898862FF1
:1013600080680E947826EE20B1F00FEF0E0D10E09D
:101370000F5F1F4F0C0F1D1FF12C80E00E9478267D
:101380008F3F09F4F39489930C171D07B1F7FE10F2
:1013900004C085E003C085E001C080E0289ADF91A9
:1013A000CF911F910F91FF90EF900895CF93DF930E
:1013B000EC012898862F80680E94782680E00E94A1
:1013C0007826289A8F3F11F495E001C090E0888339
:1013D000892FDF91CF910895CF93DF931F921F92B2
:1013E000CDB7DEB7ECE4FBE181E0808324EF31E0B0
:1013F0003283218322E836E03483238320E931E0FD
:1014000036832583178210868187828720E130E02A
:10141000348723872DE030E03687258722E330E0CC
:10142000308B2787118A128A838B848B88EB9BE011
:10143000968B858B8AE090E0908F878B118E10922F
:10144000671B1092661B1092691B1092681B0E940A
:101450006A26209A289A198220E137E289818F5FD3
:10146000898321503109D1F76FE0CE0102969EDFCA
:101470008A818936C9F780E00F900F90DF91CF9174
:1014800008950F931F93CF93DF931F921F92CDB7B1
:10149000DEB78C0142E0CE01019658DF2A8130E0B0
:1014A000322F22279981292BF801318320830F9035
:1014B0000F90DF91CF911F910F910895CF93C62F79
:1014C00028980E9478268C2F0E947826289A80E0FF
:1014D000CF9108951F93CF93DF931F921F92CDB7A3
:1014E000DEB7198279DF182F19828091551B813060
:1014F00009F083C080915B1B90915C1B8436910541
:1015000041F0883C910541F0C29741F483E0898322
:1015100005C082E0898302C081E089838091571BE6
:101520009091581B8430910531F08830910539F045
:10153000029749F40BC089818860898307C089813B
:101540008C60898303C08981846089838091591B61
:1015500090915A1B803A21E09207C1F170F48A31D0
:10156000910521F118F40D97E9F028C08433910515
:1015700009F1803D910531F121C082302DE09207C3
:1015800089F140F4813423E0920721F18C379640B1
:1015900029F114C084302AE1920741F18231944349
:1015A00049F10CC089818061898327C0898180626B
:1015B000898323C08981806389831FC08981806476
:1015C00089831BC089818065898317C08981806672
:1015D000898313C08981806789830FC0898180686E
:1015E00089830BC089818069898307C08981806A6A
:1015F000898303C08981806B8983698180E15EDF93
:1016000063E1CE010196D2DE89818F778983909143
:10161000561B913011F480688983698183E14EDF24
:10162000198280914C1B813009F05BC080914D1B69
:1016300090914E1B853F9105C1F020F48D379105A7
:1016400049F011C0843F21E0920739F0883E934071
:1016500039F009C082E0898308C084E0898305C02D
:1016600088E0898302C08CE0898380914F1B909130
:10167000501B803D910531F148F48A319105B1F05C
:1016800084339105B9F00D97C9F40CC0813423E07F
:10169000920701F18C3726E0920701F1803A9140E0
:1016A00069F414C08981806189831BC0898180624B
:1016B000898317C089818063898313C0898180648D
:1016C00089830FC08981806589830BC08981806689
:1016D000898307C089818067898303C08981806885
:1016E0008983698181E1EADE6FE0CE0102965EDEE8
:1016F000812F0F900F90DF91CF911F910895CF937D
:10170000DF931F921F92CDB7DEB766E2CE0101963E
:10171000B8DE8823A9F0853051F48091661B909142
:10172000671B01969093671B8093661B09C080918D
:10173000681B9091691B01969093691B8093681BAD
:1017400089819A810F900F90DF91CF910895CF9268
:10175000DF92EF92FF92CF93FC0140914D1B50918D
:101760004E1B453F5105B1F09A01A5E2B6E00E943B
:10177000C23A481B590B56954795840F951F002474
:10178000880F991F001C880F991F001C892F902D0E
:10179000C82F01C0C2E0BF01FF0F880B990B0E9448
:1017A000393520E030E04CE850E40E9452366B01BD
:1017B0007C016C2F70E080E090E00E9439359B0145
:1017C000AC01C701B6010E94523620E030E04AE782
:1017D00054E40E949E34CF91FF90EF90DF90CF9021
:1017E00008958DDFB4CF0895EAE0F1E0808187604D
:1017F000808308958230910531F4EBE0F1E080813F
:101800008460808308958130910531F4EBE0F1E04C
:101810008081826080830895892B29F4EBE0F1E0D8
:1018200080818160808308958230910531F4EBE0FE
:10183000F1E080818B7F808308958130910531F4C0
:10184000EBE0F1E080818D7F80830895892B29F47E
:10185000EBE0F1E080818E7F80830895FC010396A8
:10186000928381832FEF3FEF348323839683858395
:101870009087878310820895FC0111861086089551
:10188000CF93DF939C01FB01DC011196CD91DC919C
:101890001297D383C2838C819D81958384838C81AD
:1018A0009D81DC0113967C936E9312977D836C83EC
:1018B00031872087F90180818F5F8083DF91CF910D
:1018C0000895CF93DF93EB01488159814F3F2FEF6C
:1018D000520721F4FC01A781B0850DC0DC011396ED
:1018E00001C0DF011296ED91FC91139720813181A7
:1018F00042175307B0F71296ED91FC911397FB83B3
:10190000EA83D583C483BD83AC831396DC93CE93E3
:10191000129799878887FC0120812F5F2083DF91B0
:10192000CF910895CF93DF93FC01A085B185C2814B
:10193000D381848195819D838C83C481D58182816B
:1019400093819B838A8311968D919C911297E817BE
:10195000F90731F48481958112969C938E931197A7
:10196000118610868C9181508C93DF91CF910895D0
:10197000CF93DF93CDB7DEB728970FB6F894DEBFCD
:101980000FBECDBF19821A821B821C821D821E824D
:101990001F8218860E94F223A12CB12CC12CD12CBD
:1019A000E12CF12C03E020E030E04CE251E06BE070
:1019B00076E085E295E00E947F260E94FB23182FA7
:1019C00088EE93E00E943E291123B9F30E94072478
:1019D0000F2EF6E7EF2EFBE1FF2EF02D01E020E0C9
:1019E0004FEF5FEF60E070E08091721B9091731B8E
:1019F0000E944022813009F076C00E94B02B0FB6C1
:101A0000F8940F92F7011081A180B280C380D48036
:101A10000F900FBE0E94B62B153009F455C028F464
:101A20001230A9F01430A1F15EC0173009F454C08F
:101A300018F0183049F057C00FB6F8940F92009381
:101A4000051A0F900FBE4FC00E940F254CC0B50164
:101A5000BB0C880B990B0E94393569837A838B8381
:101A60009C83B601DD0C880B990B0E9439356D8380
:101A70007E838F83988720E044E650E0BE016F5F4D
:101A80007F4F80910C1A90910D1A0E94D41E2BC08A
:101A90000FB6F8940F920093041A0F900FBE19829C
:101AA0001A821B821C821D821E821F82188620E0E1
:101AB00044E650E0BE016F5F7F4F80910C1A909119
:101AC0000D1A0E94D41E0FC00FB6F8940F921092F8
:101AD000041A0F900FBE07C00FB6F8940F92109221
:101AE000051A0F900FBE81E090E09EDE78CFCF9375
:101AF000DF93CDB7DEB763970FB6F894DEBF0FBEA6
:101B0000CDBF198210E021E0288BF12C68942224AB
:101B100022F86894332432F80EC00F2EF3E02F2EF3
:101B2000F02D09C00F2EF3E02F2EF02D04C00F2E44
:101B3000F3E02F2EF02D8091051A813009F020C19D
:101B40008091041A81111CC10E94F12C9B838A830D
:101B500020E046E950E0BE016F5F7F4F80910A1A96
:101B600090910B1A0E9440228130C9F48981882308
:101B700019F0833098F408C03889F39EF02C1124B2
:101B800011E081E0888B0BC09DECF99EF12C1124B3
:101B9000F694F69410E025E0288B01C010E0388917
:101BA000F39E802D11240E94332568EC70E0CE0155
:101BB00002960E949B2780E0D8D9D82E81E0D5D903
:101BC000E82E83E0D2D9C82E82E0CFD9898B20E0DD
:101BD00048E250E060E070E08091741B9091751BCA
:101BE0000E9440224090001A5090011A6090021A00
:101BF0007090031AA090FE19B090FF198091FC1903
:101C00009091FD199D878C8760E070E08091741B36
:101C10009091751B0E94A4201B3038F0898181119E
:101C200004C00E94AE2411E006C0112321F0898176
:101C3000811101C01F5F3889232F30E03B8B2A8B35
:101C4000F29E4001F39E900C11248C859D856AE0E4
:101C500070E00E94AF3A7D876C87C5016AE070E052
:101C60000E94AF3A7F876E8720E030E044E353E480
:101C7000C301B2010E9452362BED3FE049E450E42B
:101C80000E949E340E940635A9880D2D9401AB0157
:101C90006C857D858E859F850E946C248FE18816DA
:101CA00091042CF09CE3891691048CF1D9888FEF74
:101CB0008D0D883160F52E853F85B901330F880B76
:101CC000990B0E9439356C837D838E839F832C858D
:101CD0003D85B901330F880B990B0E943935688710
:101CE00079878A879B878FE096E09F938F930E94E6
:101CF000D22420E044E650E0BE016C5F7F4F80912B
:101D00000C1A90910D1A0E94D41E0F900F903BE573
:101D100083169104ACF484E0281212C089818330C8
:101D200008F044C0F3942A893B89F29E4001F39E57
:101D3000900C11243AE5831691040CF0EECE17C0F6
:101D40001814190444F583E028122AC089818330CD
:101D500008F0F1CEFA942A893B89F29E4001F39E65
:101D6000900C112404C034E0231609F4DBCE1814BF
:101D700019040CF4E0CE83E02812DDCE232CDBCE58
:101D800080E00E94332584E690E00E943E2910E026
:101D9000F12C232CD0CE9AE58916910464F30AC065
:101DA0002AE5821691040CF4C6CEDDCF181419046E
:101DB000BCF3F1CF34E0231609F4B9CEDCCFCF93D6
:101DC000DF93CDB7DEB7C756D1090FB6F894DEBFA3
:101DD0000FBECDBF19821A821B821C821D821E82F9
:101DE0001F82188619861A861B861C861D861F86EA
:101DF0001E86198A188A1B8A1A8A1D8A1C8A1E8ABC
:101E00001F8A188E198E1A8E1B8E6D961FAE6D97B7
:101E100021961FAE219724E12FAF6C961FAE6C97D1
:101E2000A8961FAEA89745E0A7964FAFA7978AE060
:101E30006B968FAF6B971EA61DA61CA6A5961CAE13
:101E40001DAE1EAE1FAEA597A1961CAE1DAE1EAE5A
:101E50001FAEA1972F961FAE2F9791E026969FAFAA
:101E600026972E961CAE1DAE1EAE1FAE2E97259643
:101E70001CAE1DAE1EAE1FAE259718A219A21AA247
:101E80001BA21BAA1CAA1DAA1EAA1FA618AA19AA31
:101E90001AAA27961FAE279728961FAE289729962D
:101EA0001FAE29972A961FAE2A971CA21DA2A8EC46
:101EB000AEA3B2E4BFA318A619A626E92AA743E455
:101EC0004BA784E6A6968FAFA6978091051A882324
:101ED00009F466C7F8944091061A1092061A1091F8
:101EE000071A1092071A7894BE016E5E7F4F8E8992
:101EF0000E946C1A412FBE016C5E7F4F8F890E9439
:101F0000811A20E041E050E060E070E080916E1BBB
:101F100090916F1B0E9440228A899B899093F119AE
:101F20008093F0198C899D899093F3198093F2190D
:101F300060E070E080916E1B90916F1B0E94A42066
:101F400020E04FEF5FEF60E070E080916C1B9091BC
:101F50006D1B0E944022813009F0B7CF20E04FEF87
:101F60005FEF60E070E08091741B9091751B0E94A0
:101F700040228090001A9090011AA090021AB0900E
:101F8000031A0091FE191091FF19E090FC19F090CE
:101F9000FD198091F8199091F919A091FA19B09151
:101FA000FB198FAB98AFA9AFBAAF8091F41990919C
:101FB000F519A091F619B091F7198BAF9CAFADAFA1
:101FC000BEAF60E070E08091741B9091751B0E9421
:101FD000A42020E040E050E0BE016F5F7F4F809181
:101FE0000C1A90910D1A0E944022813009F049C0CC
:101FF00020E030E040E251E469817A818B819C816C
:102000000E9452366FA778AB89AB9AAB20E030E0E4
:1020100040E251E46D817E818F8198850E94523625
:102020006BAB7CAB8DAB9EABB801012E000C880B6B
:10203000990B0E943935A1966CAF7DAF8EAF9FAFE3
:10204000A197B7010F2C000C880B990B0E94393512
:10205000A5966CAF7DAF8EAF9FAFA597A5019401FC
:1020600068A179A18AA19BA10E94D033688F798F42
:102070008A8F9B8F91E021969FAF21971EA61DA668
:102080001CA6B801110F880B990B0E9439359B01D2
:10209000AC016FA578A989A99AA90E94D0332B0118
:1020A0003C01B701FF0C880B990B0E9439359B014D
:1020B000AC016BA97CA98DA99EA90E94D0336B01AC
:1020C0007C01A3019201C301B2010E94523668A3B0
:1020D00079A38AA39BA3A7019601C701B6010E9419
:1020E00052366C8F7D8F8E8F9F8F2C8D3D8D4E8DB8
:1020F0005F8D68A179A18AA19BA10E94D1330E9422
:10210000BF36262E372E082F192FA3019201C701A3
:10211000B6010E94443468A379A38AA39BA38A854D
:102120009B85AC85BD858C8F9D8FAE8FBF8FA501A4
:10213000940168A179A18AA19BA10E94D0332B01AF
:102140003C016A877B878C879D87CE010A960E9417
:10215000D807CA84DB84EC84FD8446015701E894E7
:10216000B7F829E134E046E05FE3C501B4010E941D
:10217000473618167CF022E73AE84EE85CE3C501E2
:10218000B4010E949734882344F491E026969FAFCF
:10219000269703C026961FAE2697A70196016C8D41
:1021A0007D8D8E8D9F8D0E94D0336B017C012BED38
:1021B0003FE049EC5FE30E944736181654F02BEDE0
:1021C0003FE049EC5FEBC701B6010E9497348823DA
:1021D0004CF4488E598E6A8E7B8EB22CA32C902E96
:1021E000812E36C0A1962CAD3DAD4EAD5FADA19711
:1021F0006FA578A989A99AA90E94D0334B015C01E7
:10220000A5962CAD3DAD4EAD5FADA5976BA97CA954
:102210008DA99EA90E94D0336B017C01A501940178
:10222000C501B4010E9452364B015C01A701960121
:10223000C701B6010E9452369B01AC01C501B40131
:102240000E94D1330E94BF36B62EA72E982E892E1B
:10225000CE0148960E94D807C88CD98CEA8CFB8C9A
:10226000E894F7F8C88ED98EEA8EFB8E20E030E035
:10227000A9016B2D7A2D892D982D0E9447361816AD
:102280000CF086C02CA13DA14EA15FA168A579A547
:102290008AA59BA50E94D1339B01AC016B2D7A2DA1
:1022A000892D982D0E94973488230CF098C020E047
:1022B00030E040E85EE36B2D7A2D892D982D0E9449
:1022C0005236762E672E582E492E20E030E040E41C
:1022D00050E46B2D7A2D892D982D0E94523620E0E6
:1022E00030E040E85EE30E94523667966FAF679732
:1022F00068967FAF689769968FAF69976A969FAF28
:102300006A972CA13DA14EA15FA1672D762D852D49
:10231000942D0E949E346C8F60967FAF609761967B
:102320008FAF619762969FAF629728A539A54AA59E
:102330005BA567966FAD679768967FAD689769965E
:102340008FAD69976A969FAD6A970E949E34639697
:102350006FAF639764967FAF649765968FAF65970D
:1023600066969FAF66977CA26DA25EA24FA267960B
:10237000AFAD6797A8A76896BFAD6897B9A76996EC
:102380002FAD69972AA76A964FAD6A974BA74DC0A4
:1023900063961FAE639764961FAE649780E8659658
:1023A0008FAF65979FE366969FAF66971C8E60968A
:1023B0001FAE6097A0E86196AFAF6197BFE36296EA
:1023C000BFAF62971CA21DA228EC2EA342E44FA32C
:1023D00018A619A686E98AA793E49BA726C0639648
:1023E0001FAE639764961FAE6497A0E86596AFAF83
:1023F0006597BFE36696BFAF66971C8E60961FAE6B
:10240000609720E861962FAF61974FE362964FAFD8
:1024100062971CA21DA288EC8EA392E49FA318A62B
:1024200019A6A6E9AAA7B3E4BBA720E030E040E7DD
:1024300051E4622D732D802F912F0E94473618167C
:102440000CF087C426962FAD2697222309F44FC29D
:10245000222D332D402F512F6B2D7A2D892D982D24
:102460000E94D0334B015C0120E030E0A9010E94C2
:10247000473688230CF4A7C0A50194016CA17DA167
:102480008EA19FA10E94473688230CF49CC0A89679
:102490004FADA897411131C020E030E040E751E452
:1024A000C501B4010E949734882344F46B968FAD24
:1024B0006B978F5F6B968FAF6B9738C06B969FADA6
:1024C0006B97965FA6969FAFA6971F926B96AFAD40
:1024D0006B97AF938EE196E09F938F930E94D224E7
:1024E0000F900F900F900F906B96BFAD6B97BFAF93
:1024F00021E0A8962FAFA89719C020E030E0A901ED
:102500006FA978AD89AD9AAD0E949734882359F0B0
:1025100020E030E0A9016BAD7CAD8DAD9EAD0E9499
:102520009734811103C04CA54E5F4CA78CA5682F32
:1025300070E06B969FAD6B97690F711D072E000CB5
:10254000880B990B0E9439352B013C019B01AC0192
:1025500060E070E088EC92E40E94D03320E030E04C
:1025600048EC52E40E949E346B017C01A696AFAD0C
:10257000A6976A2F70E080E090E00E9439352C8D9C
:1025800060963FAD609761964FAD619762965FAD83
:1025900062970E9452369B01AC01C701B6010E94AE
:1025A0005236A50194010E9452362CA13DA14EA1A4
:1025B0005FA10E949E34A30192010E94D1330E9428
:1025C0000B35F62EB4C0222D332D402F512F68A588
:1025D00079A58AA59BA50E94473618160CF0A4C0C1
:1025E00020E030E048E452E4622D732D802F912FDB
:1025F0000E94473618160CF520E030E0A9016FA9BB
:1026000078AD89AD9AAD0E949734882371F020E0AF
:1026100030E0A9016BAD7CAD8DAD9EAD0E949734CD
:10262000811105C0B2E0BCA702C022E02CA7FCA427
:102630006B964FAD6B97F40E7AC0222D332D402F41
:10264000512F27966FAD279728967FAD289729960B
:102650008FAD29972A969FAD2A970E9497348111B2
:102660000CC06B968FAD6B97A7969FADA797891BF4
:102670008CA79B5FA7969FAFA797ACA56A2F70E02A
:10268000A796BFADA7976B0F711D072E000C880B87
:10269000990B0E9439354B015C019B01AC0160E054
:1026A00070E088EC92E40E94D03320E030E048EC07
:1026B00052E40E949E346B017C01A6962FADA69732
:1026C000622F70E080E090E00E94393563962FAD74
:1026D000639764963FAD649765964FAD6597669630
:1026E0005FAD66970E9452369B01AC01C701B601EF
:1026F0000E9452366B017C0128A539A54AA55BA52D
:10270000622D732D802F912F0E949E349B01AC016E
:10271000C701B6010E945236A50194010E94D1332F
:102720000E940B35F62E03C0A696FFACA6978A84AE
:102730009B84AC84BD8420E030E0A901C501B401D4
:102740000E94473688230CF453C06F2C712CB301C0
:10275000072C000C880B990B0E9439356B017C010A
:10276000C501B4019F7720E030E046E154E40E94C7
:1027700052369B01AC01C701B6010E94D0336B01F8
:102780007C0120E030E040E251E425966CAD7DAD67
:102790008EAD9FAD25970E9452369B01AC01C701BB
:1027A000B6010E94D0330E9406357F876E878E85E2
:1027B0009F85681679061CF47F866E8606C08E8516
:1027C0009F85992314F41F861E86798A688A20E0E3
:1027D00030E0A9016FA978AD89AD9AAD0E94973418
:1027E000811158C04FE0640E711C798A688A52C00A
:1027F0006F2C712CB301072C000C880B990B0E94D5
:1028000039356B017C01C501B4019F7720E030E0D0
:1028100046E154E40E9452369B01AC01C701B60167
:102820000E94D0336B017C0120E030E040E251E4B3
:102830002E966CAD7DAD8EAD9FAD2E970E9452361B
:102840009B01AC01C701B6010E94D0330E9406353E
:10285000798B688B88899989681679061CF4798A3E
:10286000688A06C088899989992314F4198A188A74
:102870007F866E8620E030E0A9016BAD7CAD8DAD2A
:102880009EAD0E949734811105C08FE0680E711CC7
:102890007F866E86CA84DB84EC84FD84A701960162
:1028A00025966CAD7DAD8EAD9FAD25970E94D13341
:1028B00025966CAF7DAF8EAF9FAF2597A701960190
:1028C0002E966CAD7DAD8EAD9FAD2E970E94D03310
:1028D0002E966CAF7DAF8EAF9FAF2E9786E08F8B1D
:1028E00084E08E8B81E089871EA61DA623C28A8480
:1028F0009B84AC84BD8420E030E0A901C501B40113
:102900000E944736882334F08985833041F41EA61F
:102910001DA605C08985843011F41EA61DA6A5013B
:1029200094015F77C701B6010E94D0336B017C012F
:102930006C969FAD6C97911124C029E134E046E874
:102940005EE3C701B6010E94973418162CF46D9609
:10295000AFAD6D97AA2321F0BFADBF5FBFAF11C070
:102960001F922FAD2F938AE296E09F938F930E9440
:10297000D2240F900F900F900F90B1E06C96BFAFE4
:102980006C9721962FAD219721110CC020E030E0EB
:10299000A9016FA978AD89AD9AAD0E9497348823BB
:1029A000A9F001C220E030E0A9016BAD7CAD8DAD96
:1029B0009EAD0E949734811139C06C964FAD6C97D3
:1029C000411100C26D961FAE6D9733C08DA58F5F0C
:1029D0008DA720E030E0A9016BAD7CAD8DAD9EAD43
:1029E0000E949734811103C09EA59F5F9EA7ADA54D
:1029F000AB3018F4BEA5BB30E0F02FAD265F2FAF93
:102A00001F922F9386E396E09F938F930E94D22488
:102A10000F900F900F900F90B1E06D96BFAF6D9734
:102A20006C961FAE6C971EA61DA603C06D961FAEBA
:102A30006D9721962FAD2197213029F44FAD453662
:102A400010F086E48FAF20E030E040E85EE3688D70
:102A5000798D8A8D9B8D0E9452369B01AC01C701F6
:102A6000B6010E94973488230CF0BDC06C969FADD0
:102A70006C9791115BC020E030E0A9016A857B85ED
:102A80008C859D850E944736882344F1AFAD8A2FFF
:102A900090E09C01BDA52B0F311D31952195310989
:102AA0003F872E8725E02E8B2EA5820F911D998BB7
:102AB000888B86E08F8B84E0898721961FAE2197D3
:102AC0001CA62E961CAE1DAE1EAE1FAE2E972596D2
:102AD0001CAE1DAE1EAE1FAE25972CC14FAD842F70
:102AE00090E09C01ADA52A0F311D3F872E8724E081
:102AF0002E8BBEA58B0F911D919581959109998B78
:102B0000888B85E08F8B83E0898721961FAE219784
:102B10001CA62E961CAE1DAE1EAE1FAE2E97259681
:102B20001CAE1DAE1EAE1FAE259704C120E030E0E6
:102B3000A9016A857B858C859D850E9447368823FF
:102B40004CF12FAD822F90E00A979C014DA5240FE8
:102B5000311D3195219531093F872E8725E02E8B38
:102B6000AEA58A0F911D998B888B86E08F8B84E0B0
:102B7000898721961FAE21971CA62E961CAE1DAEEE
:102B80001EAE1FAE2E9725961CAE1DAE1EAE1FAEFE
:102B90002597D0C0BFAD8B2F90E00A979C014DA523
:102BA000240F311D3F872E8724E02E8BAEA58A0F80
:102BB000911D919581959109998B888B85E08F8BDB
:102BC00083E0898721961FAE21971CA62E961CAE06
:102BD0001DAE1EAE1FAE2E9725961CAE1DAE1EAEB0
:102BE0001FAE2597A7C08A849B84AC84BD8420E057
:102BF00030E0A901C501B4010E94473688230CF4D6
:102C00004DC0BFADEB2EF12C2EE1E21AF108C5014B
:102C1000B4019F7724EE37EB4BE451E40E94523627
:102C20004B015C01B7014DA5640F711D072E000C0F
:102C3000880B990B0E943935A50194010E94D1336C
:102C400090580E9406357F876E8785E08E8BB7018E
:102C50008EA5680F711D072E000C880B990B0E9422
:102C60003935A50194010E94D1330E940635798B34
:102C7000688B86E08F8B84E0898721961FAE219731
:102C80001CA62E961CAE1DAE1EAE1FAE2E97259610
:102C90001CAE1DAE1EAE1FAE25974CC09FADE92EDB
:102CA000F12CAEE1EA1AF108C501B4019F7724EED8
:102CB00037EB4BE451E40E9452364B015C01B70103
:102CC000BDA56B0F711D072E000C880B990B0E9480
:102CD0003935A50194010E94D1330E9406357F87C2
:102CE0006E8784E08E8BB7012EA5620F711D072EB3
:102CF000000C880B990B0E943935A50194010E94A4
:102D0000D13390580E940635798B688B85E08F8B84
:102D100083E0898721961FAE21971CA62E961CAEB4
:102D20001DAE1EAE1FAE2E9725961CAE1DAE1EAE5E
:102D30001FAE2597688979898E859F859E01295EBA
:102D40003F4FAE014A5E5F4FA0D32F961FAE2F9725
:102D50000EC02F964FAD2F97411106C00E94AE2492
:102D600081E02F968FAF2F977FD382D3198620E0F3
:102D700040E050E0BE01675F7F4F80910A1A90915A
:102D80000B1A0E94D41E27962FAE279728963FAE87
:102D9000289729960FAF29972A961FAF2A9795C88B
:102DA00063D366D392C820E030E0A9016BAD7CAD5F
:102DB0008DAD9EAD0E949734882381F06D961FAE35
:102DC0006D9741CE20E030E0A9016FA978AD89ADC3
:102DD0009AAD0E949734811107CEF8CD6C969FADC5
:102DE0006C97911101CE6D961FAE6D9722CECF9349
:102DF000DF93CDB7DEB7A8970FB6F894DEBF0FBE4E
:102E0000CDBF19821A821B821C820E94F12C9E83E4
:102E10008D831F86188A198A1A8A1DA21EA21FA2D4
:102E200018A619A21AA21BA21CA2C12CD12CE12CFB
:102E3000F12C68E270E0CE0105960E949B278091FC
:102E4000051A882309F45EC120E04FE050E060E0FD
:102E500070E080916E1B90916F1B0E944022209029
:102E6000F0193090F1190091F2191091F31960E006
:102E700070E080916E1B90916F1B0E94A420B101A5
:102E80006E197F09072E000C880B990B0E943935AB
:102E900028EF33E543EA5FE30E9452362B013C0101
:102EA000B8016C197D09072E000C880B990B0E9444
:102EB000393528EF33E543EA5FE30E9452364B0190
:102EC0005C019B01AC01C301B2010E94D13320E03F
:102ED00030E040E05FE30E9452366B017C010E94CB
:102EE000F10B2F85388949895A890E94D0336F8325
:102EF000788789879A87A3019201C501B4010E944E
:102F0000D03320E030E047E153E40E949E3420E0DB
:102F100030E040E050E00E9452366B877C878D871E
:102F20009E8724ED32E047E35AE36F8178858985F7
:102F30009A850E9452362B853C854D855E850E9480
:102F4000D133698F7A8F8B8F9C8F89819A81AB81E6
:102F5000BC818D8B9E8BAF8BB88F20E030E040E042
:102F60005FE3698D7A8D8B8D9C8D0E9452362D8901
:102F70003E894F89588D0E94D1336D8F7E8F8F8F00
:102F800098A30E949B349B01AC01C701B6010E942B
:102F900052369B01AC01F9A1EAA1ABA1BCA16F2FF4
:102FA0007E2F8A2F9B2F0E94D1336F837B878B8B41
:102FB0009C8B69A37AA38BA39CA36D8D7E8D8F8D33
:102FC00098A10E94B5369B01AC01C701B6010E94D1
:102FD00052369B01AC01FDA1EEA1AFA1B8A56F2FA8
:102FE0007E2F8A2F9B2F0E94D133F62EE72ED82ECC
:102FF000C92E6DA37EA38FA398A72D893E894F89E3
:10300000588D698D7A8D8B8D9C8D0E94D13369830B
:103010007A838B839C83CE0101960E94D80780918E
:10302000EF198931D1F4CF92DF92EF92FF929C8910
:103030009F93AB89AF93BB85BF932F812F938AE476
:1030400096E09F938F930E94D2241092EF190FB6AF
:10305000F894DEBF0FBECDBF03C08F5F8093EF1922
:1030600020E04FE050E060E070E08091741B9091B0
:10307000751B0E94402289819A81AB81BC8180931B
:10308000001A9093011AA093021AB093031A5F8159
:103090004B853B892C89652F742F832F922F0E949B
:1030A00006357093FF196093FE196F2D7E2D8D2DBF
:1030B0009C2D0E9406357093FD196093FC19409277
:1030C000F8195092F9196092FA197092FB198092CE
:1030D000F4199092F519A092F619B092F71960E0E0
:1030E00070E08091741B9091751B0E94A42060E099
:1030F00070E080916C1B90916D1B0E94A420680170
:10310000710197CE05E610E0812C912CA12CB12CF9
:103110000E94F10B9B01AC01682D792D8A2D9B2D0E
:103120000E94D133862E972EA82EB92E0150110958
:1031300079F720E030E04AEC52E40E949E346F8739
:10314000788B898B9A8B75CEF894FFCFCF93DF93D2
:103150001F921F92CDB7DEB785B78F7785BF0E94CC
:10316000F40B80E090E00E94FA0B0E94EE3231D224
:103170000E94430180EE93E20E94DE2580E00E94DF
:1031800056250E94A507EDD00E946A0A0E94A10957
:103190009A83898340E068E081E032D490930D1AED
:1031A00080930C1A40E061E081E02AD490930B1ADE
:1031B00080930A1A40E061E082E022D49093091AD9
:1031C0008093081A81E06ED49093751B8093741BD2
:1031D00081E068D49093711B8093701B81E062D46E
:1031E00090936F1B80936E1B43E060E081E008D4F6
:1031F00090936D1B80936C1B43E060E081E000D4F2
:103200009093731B8093721BA12CB12CC12CD12CD9
:10321000E12CF12C03E020E030E04CE251E06BE5E2
:1032200076E088EB9CE00E947F2602E020E030E020
:1032300040E951E060E676E08FED9EE00E947F2657
:1032400004E020E030E04EE551E068E676E087EF0C
:1032500096E10E947F2601E020E030E04CE251E060
:1032600060E776E087E79DE00E947F260E94A10943
:103270009A838983789480E090E00E94140C0E94E5
:10328000C32A80E090E00E94FA0B82E090E00E9466
:10329000FA0B06E716E0F8941F930F930E94D224CE
:1032A0000F900F90F8CF1F920F920FB60F9211242C
:1032B0008F938091061A8F5F8093061A8F910F90DB
:1032C0000FBE0F901F9018951F920F920FB60F927E
:1032D00011248F938091071A8F5F8093071A8F9123
:1032E0000F900FBE0F901F9018951F920F920FB660
:1032F0000F9211240BB60F922F933F934F935F932E
:103300006F937F938F939F93AF93BF93EF93FF93AD
:10331000649B0CC01092051A1092041A60E070E0D1
:103320008091721B9091731B0E94152260E070E0E7
:1033300080916C1B90916D1B0E941522FF91EF9163
:10334000BF91AF919F918F917F916F915F914F91BD
:103350003F912F910F900BBE0F900FBE0F901F90BB
:103360001895E1E0F1E0808180638083269A84B142
:10337000806684B9279A2F982E9885B18F7985B960
:10338000E2E0F1E080818F7C80838AB18AB98BB1E1
:103390008C608BB96C988DB38DBBE9E6F0E08081D1
:1033A000806F8083EAE6F0E08081816080838CE139
:1033B0008CBB8DB38C618DBB84B5806884BDE0E827
:1033C000F0E080818062808384B5836084BD85B5B0
:1033D00085BD808181608083A1E8B0E08C918860A8
:1033E0008C9385B5856085BD8C9185608C9380813B
:1033F0008083E0EBF0E08081808380818083E0EA5D
:10340000F0E080818083089587BD2C9A2D9884E018
:10341000FB018083089590E090938B0080938A0055
:10342000E2E0F1E080818064808380818F7D808311
:1034300086E0FB018083089587BD2C982D9A85E056
:10344000FB018083089590E090938B0080938A0025
:10345000E2E0F1E080818F7B8083808180628083E5
:1034600085E0FB018083089517BC2C982D98089562
:1034700010928B0010928A00E2E0F1E080818F7B55
:10348000808380818F7D808308950F931F93CF93D6
:10349000DF93EB018901181619061CF4BA01B4DF99
:1034A00007C0992324F4BA018195C6DF01C0DCDF8F
:1034B0001C161D0624F4B8018C2FADDF08C0DD23D7
:1034C0002CF4B8018C2F8195BEDF01C0D1DFDF91D4
:1034D000CF911F910F910895843019F0853049F0F4
:1034E0000895FB0180819181840F911D91838083D8
:1034F0000895FB0180819181841B910991838083D0
:103500000895853051F0863079F4FB0180819181F6
:10351000840F911D918380830895FB0180819181A7
:10352000841B9109918380830895EF92FF920F93FA
:103530001F93CF93DF937C01C62FD0E0CE010E9472
:1035400027088C019E0121503109A701BE010E946C
:103550000407882321F0C8010E94310933C0862F57
:10356000972FEC01F801E80FF91F3197F0806FEF0A
:10357000680FC8010E948E07F81621F0C8010E944A
:10358000310920C0D8018C91833021F0C8010E94FC
:10359000310918C0AE0144505109B8016D5F7F4F29
:1035A000D8011296EC911297F0E0EE0FFF1FE05752
:1035B000F44E0190F081E02D11968C911995C8017F
:1035C0000E943109DF91CF911F910F91FF90EF90F1
:1035D000089585E99AE10C945F330895823040F4B0
:1035E000E82FF0E0EE0FFF1FE057F44E7183608389
:1035F00008958F929F92AF92BF92CF92DF92EF92F7
:10360000FF920F931F93CF93DF93882E962E5A012C
:103610008901690184E0C80ED11CC6010E942708F7
:10362000EC01C80106960E9427087C01209711F042
:10363000892B41F4CE010E943109C7010E94310952
:1036400080E03CC0888283E089839A82A801B5012A
:10365000CE0103960E94C83B5801E3E0AE0EB11CB8
:10366000AC0EBD1E63E0600FCE010E948E07F50117
:103670008083B8016B5F7F4F9601AE01C7010E9446
:103680009E06882341F0CE010E943109C7010E94A5
:10369000310980E013C0862F972FF701E80FF91F3B
:1036A0001082BC016F5F7F4FC7010E943B33CE0188
:1036B0000E943109C7010E94310981E0DF91CF9159
:1036C0001F910F91FF90EF90DF90CF90BF90AF9040
:1036D0009F908F90089531E1FC013083319722E271
:1036E00020833197A3E3A083319760833197708360
:1036F0003197108231971082319760E8608331975B
:1037000010823197108231971082319762E0608386
:10371000319763E06083319764E06083319765E0BF
:103720006083319766E06083319767E0608331970B
:1037300068E06083319769E06083319760E160837E
:1037400031973083319732E13083319733E13083E1
:10375000319734E13083319735E13083319736E169
:103760003083319737E13083319738E130833197B7
:1037700039E13083319730E23083319731E2308361
:1037800031972083319723E220833197408331970B
:103790005083319726E22083319727E220833197A7
:1037A00028E22083319729E22083319720E3208388
:1037B000319721E320838997089588EE93E09093D1
:1037C000A51B8093A41B9093A71B8093A61B10920C
:1037D000990089EF809398008BE080939100E1E756
:1037E000F0E0808182608083A091E21AB091E31AB8
:1037F000CD91CDBFDD91DEBFFF91EF91DF91CF91F4
:10380000BF91AF919F918F917F916F915F914F91F8
:103810003F912F911F910F91FF90EF90DF90CF90EC
:10382000BF90AF909F908F907F906F905F904F90E0
:103830003F902F901F900F900CBE0F900BBE0F90DB
:103840000FBE0F90089581E008950F920FB6F8947F
:103850000F920BB60F920CB60F921F9211242F925B
:103860003F924F925F926F927F928F929F92AF9210
:10387000BF92CF92DF92EF92FF920F931F932F93FD
:103880003F934F935F936F937F938F939F93AF93E8
:10389000BF93CF93DF93EF93FF93A091E21AB09180
:1038A000E31A0DB60D920EB60D920E94BC2DA0919A
:1038B000E21AB091E31ACD91CDBFDD91DEBFFF9149
:1038C000EF91DF91CF91BF91AF919F918F917F91B8
:1038D0006F915F914F913F912F911F910F91FF90A9
:1038E000EF90DF90CF90BF90AF909F908F907F90A0
:1038F0006F905F904F903F902F901F900F900CBE55
:103900000F900BBE0F900FBE0F9008950F920FB641
:10391000F8940F920BB60F920CB60F921F921124CF
:103920002F923F924F925F926F927F928F929F92CF
:10393000AF92BF92CF92DF92EF92FF920F931F93BD
:103940002F933F934F935F936F937F938F939F93A7
:10395000AF93BF93CF93DF93EF93FF93A091E21ABE
:10396000B091E31A0DB60D920EB60D9213BE809172
:10397000A61B9091A71B01979093A71B8093A61B52
:10398000892B41F48091A41B9091A51B9093A71BB8
:103990008093A61B0E94FB2C81110E94BC2DA0913C
:1039A000E21AB091E31ACD91CDBFDD91DEBFFF9158
:1039B000EF91DF91CF91BF91AF919F918F917F91C7
:1039C0006F915F914F913F912F911F910F91FF90B8
:1039D000EF90DF90CF90BF90AF909F908F907F90AF
:1039E0006F905F904F903F902F901F900F900CBE64
:1039F0000F900BBE0F900FBE0F90089587DF1895A4
:103A00000F931F93CF93DF93082F162F662309F48C
:103A10003BC0869FC001112480960E942708EC01BC
:103A2000009721F439C0D983C88303C04F96998386
:103A300088830B8F1C8F0FB6F8940F9248815981A1
:103A40002C8D30E06B8D629FC001639F900D11241F
:103A5000BA01680F791F7B836A831A8E5D834C835A
:103A6000821B930B840F951F9F838E838FEF8D8F07
:103A70008E8FCE0108960E942E0CCE0141960E9498
:103A80002E0C0F900FBE08C08FE190E00E94270817
:103A9000EC01892B09F0C7CFCE01DF91CF911F91A7
:103AA0000F9108959F92AF92BF92CF92DF92EF92C3
:103AB000FF920F931F93CF93DF9300D01F921F921B
:103AC000CDB7DEB78FE190E00E9427088C01009708
:103AD00009F458C1FC0113821282118210821582EE
:103AE000148217821682128E81E0838F148E8FEFDC
:103AF000858F868F7801F8E0EF0EF11CC7010E94D8
:103B00002E0C680181E1C80ED11CC6010E942E0C4A
:103B10001D821C82A12C99249394BB24BA940FB6C5
:103B2000F8940F92F801928D838D9817F0F48081AC
:103B30009181892B09F01DC1828193810E94982F68
:103B4000F80113821282928D9F5F928F918999233F
:103B500039F0C6010E949F2E813021F476DE02C02A
:103B6000811173DE0F900FBE0DC18C819D81892B59
:103B700019F40F900FBE06C1A11005C0CE01019629
:103B80000E94E72EA92C0F900FBE0E94B02B0FB6FB
:103B9000F8940F92F801858D8F3F09F4158EF80186
:103BA000868D8F3F09F4168E0F900FBEBE016C5F9D
:103BB0007F4FCE0101960E94F22E811196C00FB662
:103BC000F8940F92F801928D838D0F900FBE981389
:103BD0004AC06C817D81C7010E94442E0FB6F894C3
:103BE0000F92F801868D1816ACF48189811105C0F9
:103BF00011C0F8018189882369F0C6010E949F2EB7
:103C000081110E942D2FF801868D8150868F868D1F
:103C100018167CF3F801B68E0F900FBE0FB6F8940D
:103C20000F92858D1816ACF48085811105C011C0E6
:103C3000F8018085882369F0C7010E949F2E8111B9
:103C40000E942D2FF801858D8150858F858D181646
:103C50007CF3F801B58E0F900FBE0E94B62B811138
:103C60005ECFF3DD5CCF0FB6F8940F92F801868D2E
:103C70001816ACF48189811105C011C0F801818941
:103C8000882369F0C6010E949F2E81110E942D2F6A
:103C9000F801868D8150868F868D18167CF3F80189
:103CA000B68E0F900FBE0FB6F8940F92858D181632
:103CB000ACF48085811105C011C0F801808588238E
:103CC00069F0C7010E949F2E81110E942D2FF801DB
:103CD000858D8150858F858D18167CF3F801B58E02
:103CE0000F900FBE0E94B62B1ACF0FB6F8940F920A
:103CF000F801868D1816ACF48189811105C011C0B8
:103D0000F8018189882369F0C6010E949F2E8111E4
:103D10000E942D2FF801868D8150868F868D181672
:103D20007CF38FEFF801868F0F900FBE0FB6F894DB
:103D30000F92858D1816ACF48085811105C011C0D5
:103D4000F8018085882369F0C7010E949F2E8111A8
:103D50000E942D2FF801858D8150858F858D181635
:103D60007CF38FEFF801858F0F900FBE0E94B62B6A
:103D700009C0F801828D8F5F828F8189882309F4C1
:103D8000F1CEE7CEC8010F900F900F900F900F90DB
:103D9000DF91CF911F910F91FF90EF90DF90CF9027
:103DA000BF90AF909F9008956F927F928F929F9255
:103DB000AF92BF92CF92DF92EF92FF920F931F9339
:103DC000CF93DF9300D01F921F92CDB7DEB78C0147
:103DD0005B015D834C83722E812C6624639499244D
:103DE0009A947C0188E0E80EF11C6801E1E1CE0EB6
:103DF000D11C0FB6F8940F92F801928D838D98170D
:103E000020F0F2E07F126EC07DC1F801448D4111B7
:103E100015C0F80180819181892B09F079C18281D7
:103E200093810E94982FF80113821282928D9F5FD6
:103E3000928F9189992309F44FC046C071101AC01E
:103E400050E0B501F801848195810E94C83BF801DA
:103E5000248D84819581820F911D95838483228195
:103E600033818217930708F453C180819181958330
:103E700084834EC150E0B501F801868197810E948C
:103E8000C83BF801848D90E0919581959109268138
:103E90003781280F391F37832683408151812417AA
:103EA000350730F422813381820F931F97838683F5
:103EB000F2E07F122DC1F801828D882309F428C118
:103EC000828D8150828F24C1C80141960E949F2E0D
:103ED000813021F4BADC02C08111B7DC0F900FBE33
:103EE00081E01EC18C819D81892B21F40F900FBE32
:103EF00080E016C1811005C0CE0101960E94E72E18
:103F0000862C0F900FBE0E94B02B0FB6F8940F9224
:103F1000F801858D8F3F09F4158EF801868D8F3F4E
:103F200009F4168E0F900FBEBE016C5F7F4FCE015D
:103F300001960E94F22E811196C00FB6F8940F924E
:103F4000F801928D838D0F900FBE98134AC06C813B
:103F50007D81C7010E94442E0FB6F8940F92F8019C
:103F6000868D1816ACF48189811105C011C0F80145
:103F70008189882369F0C6010E949F2E81110E94C9
:103F80002D2FF801868D8150868F868D18167CF333
:103F9000F801968E0F900FBE0FB6F8940F92858D94
:103FA0001816ACF48085811105C011C0F801808518
:103FB000882369F0C7010E949F2E81110E942D2F36
:103FC000F801858D8150858F858D18167CF3F80159
:103FD000958E0F900FBE0E94B62B81110ACF35DC53
:103FE00008CF0FB6F8940F92F801868D1816ACF42E
:103FF0008189811105C011C0F8018189882369F088
:10400000C6010E949F2E81110E942D2FF801868DDE
:104010008150868F868D18167CF3F801968E0F904E
:104020000FBE0FB6F8940F92858D1816ACF48085EC
:10403000811105C011C0F8018085882369F0C7018E
:104040000E949F2E81110E942D2FF801858D815095
:10405000858F858D18167CF3F801958E0F900FBE15
:104060000E94B62BC6CE0FB6F8940F92F801868D3B
:104070001816D4F48189811106C016C0F80181890F
:10408000811105C011C07801F1E1EF0EF11CC701EB
:104090000E949F2E81110E942D2FF801868D815044
:1040A000868F868D181654F38FEFF801868F0F9048
:1040B0000FBE0FB6F8940F92858D1816D4F4808534
:1040C000811106C016C0F8018085811105C011C09C
:1040D0007801F8E0EF0EF11CC7010E949F2E8111BC
:1040E0000E942D2FF801858D8150858F858D1816A2
:1040F00054F38FEFF801858F0F900FBE0E94B62BFF
:1041000080E00EC0F801448D442309F482CEB2CE83
:10411000F801828D8F5F828F81898111D5CEDECEAD
:104120000F900F900F900F900F90DF91CF911F91F4
:104130000F91FF90EF90DF90CF90BF90AF909F9046
:104140008F907F906F9008959F92AF92BF92CF9281
:10415000DF92EF92FF920F931F93CF93DF9300D0E4
:104160001F921F92CDB7DEB78C017D836C83A12C8B
:1041700099249394BB24BA947C0188E0E80EF11C46
:104180006801E1E1CE0ED11C0FB6F8940F92F80150
:10419000928D838D981700F580819181892B09F08C
:1041A0002BC1828193810E94982FF8011382128281
:1041B000928D9F5F928F9189992341F0C80141961A
:1041C0000E949F2E813021F440DB02C081113DDB33
:1041D0000F900FBE81E018C18C819D81892B21F445
:1041E0000F900FBE80E010C1A11005C0CE01019656
:1041F0000E94E72EA92C0F900FBE0E94B02B0FB685
:10420000F8940F92F801858D8F3F09F4158EF8010F
:10421000868D8F3F09F4168E0F900FBEBE016C5F26
:104220007F4FCE0101960E94F22E811196C00FB6EB
:10423000F8940F92F801928D838D0F900FBE981312
:104240004AC06C817D81C7010E94442E0FB6F8944C
:104250000F92F801868D1816ACF48189811105C082
:1042600011C0F8018189882369F0C6010E949F2E40
:1042700081110E942D2FF801868D8150868F868DA9
:1042800018167CF3F801B68E0F900FBE0FB6F89497
:104290000F92858D1816ACF48085811105C011C070
:1042A000F8018085882369F0C7010E949F2E811143
:1042B0000E942D2FF801858D8150858F858D1816D0
:1042C0007CF3F801B58E0F900FBE0E94B62B8111C2
:1042D0005BCFBBDA59CF0FB6F8940F92F801868DF9
:1042E0001816ACF48189811105C011C0F8018189CB
:1042F000882369F0C6010E949F2E81110E942D2FF4
:10430000F801868D8150868F868D18167CF3F80112
:10431000B68E0F900FBE0FB6F8940F92858D1816BB
:10432000ACF48085811105C011C0F8018085882317
:1043300069F0C7010E949F2E81110E942D2FF80164
:10434000858D8150858F858D18167CF3F801B58E8B
:104350000F900FBE0E94B62B17CF0FB6F8940F9296
:10436000F801868D1816D4F48189811106C016C013
:10437000F8018189811105C011C07801F1E1EF0ECA
:10438000F11CC7010E949F2E81110E942D2FF80160
:10439000868D8150868F868D181654F38FEFF80125
:1043A000868F0F900FBE0FB6F8940F92858D18165A
:1043B000D4F48085811106C016C0F8018085811172
:1043C00005C011C07801F8E0EF0EF11CC7010E9492
:1043D0009F2E81110E942D2FF801858D8150858F90
:1043E000858D181654F38FEFF801858F0F900FBE4F
:1043F0000E94B62B80E008C0F801828D8F5F828F0B
:1044000081898111DBCEE4CE0F900F900F900F9039
:104410000F90DF91CF911F910F91FF90EF90DF9060
:10442000CF90BF90AF909F900895CF93DF93FC0102
:10443000928D838D9817D0F4828D8F5F828F868DB9
:104440008F3F79F48189882399F0EB01CF01419660
:104450000E949F2E882371F0209771F081E088835D
:104460000CC0868D8F5F868F81E007C080E005C01D
:1044700081E003C081E001C081E0DF91CF91089528
:104480006F927F928F929F92AF92BF92CF92DF9264
:10449000EF92FF920F931F93CF93DF9300D01F9261
:1044A0001F92CDB7DEB78C015B015D834C83622E1A
:1044B000812C7724739499249A946C0188E0C80E17
:1044C000D11C7801E1E1EE0EF11C0FB6F8940F92C9
:1044D000F801828D882309F445C0E680F780448D79
:1044E0004423A9F050E0C701840F951F978386836A
:1044F000228133818217930720F0808191819783F5
:104500008683F80166817781C5010E94C83B6110EE
:1045100019C0F801828D8150828F80819181892B11
:1045200029F40E94D82FF80193838283F8018085B3
:104530008823A1F0C80108960E949F2E813071F453
:1045400084D90CC0F801F782E6828189882331F092
:10455000C80141960E949F2E811177D90F900FBEFE
:1045600081E01AC18C819D81892B21F40F900FBEAF
:1045700080E012C1811005C0CE0101960E94E72E95
:10458000872C0F900FBE0E94B02B0FB6F8940F929D
:10459000F801858D8F3F09F4158EF801868D8F3FC8
:1045A00009F4168E0F900FBEBE016C5F7F4FCE01D7
:1045B00001960E94F22E8111A2C00FB6F8940F92BC
:1045C000F801828D0F900FBE811157C080819181BB
:1045D000892B49F40FB6F8940F92828193810E943F
:1045E000362F0F900FBE6C817D81C7010E94442E33
:1045F0000FB6F8940F92F801868D1816ACF48189E5
:10460000811105C011C0F8018189882369F0C701B3
:104610000E949F2E81110E942D2FF801868D8150BE
:10462000868F868D18167CF3F801968E0F900FBE3C
:104630000FB6F8940F92858D1816ACF48085811111
:1046400005C011C0F8018085882369F0C6010E9469
:104650009F2E81110E942D2FF801858D8150858F0D
:10466000858D18167CF3F801958E0F900FBE0E9471
:10467000B62B81112ACFE9D828CF0FB6F8940F9224
:10468000F801868D1816ACF48189811105C011C01E
:10469000F8018189882369F0C7010E949F2E81114A
:1046A0000E942D2FF801868D8150868F868D1816D9
:1046B0007CF3F801968E0F900FBE0FB6F8940F9210
:1046C000858D1816ACF48085811105C011C0F801E4
:1046D0008085882369F0C6010E949F2E81110E9467
:1046E0002D2FF801858D8150858F858D18167CF3CF
:1046F000F801958E0F900FBE0E94B62BE6CE0FB636
:10470000F8940F92F801868D1816D4F481898111DE
:1047100006C016C0F8018189811105C011C0780159
:10472000F1E1EF0EF11CC7010E949F2E81110E9442
:104730002D2FF801868D8150868F868D181654F3A3
:104740008FEFF801868F0F900FBE0FB6F8940F927F
:10475000858D1816D4F48085811106C016C0F80125
:104760008085811105C011C07801F8E0EF0EF11CC1
:10477000C7010E949F2E81110E942D2FF801858D67
:104780008150858F858D181654F38FEFF801858F32
:104790000F900FBEEBD780E00F900F900F900F900F
:1047A0000F90DF91CF911F910F91FF90EF90DF90CD
:1047B000CF90BF90AF909F908F907F906F90089513
:1047C000AB01009711F41092051ABC0186E79BE13A
:1047D0000E94C83B60E070E08091721B9091731B57
:1047E000B3CC089580910E1A811104C00E9460011B
:1047F0008093A81B089528EE33E040EE53E260E07A
:104800008091A81B0E947C0180930E1A0895CF937B
:10481000DF93CDB7DEB7E4970FB6F894DEBF0FBED7
:10482000CDBF80910E1A882309F44DC0198283E010
:104830008A8381E492E59C838B8384E490E09E8369
:104840008D8324EB30E03F832E8385EF90E09987C2
:10485000888788E38C878A871B8685E18D878E878A
:104860008F87888B1A8A198A8AE590E09C8B8B8BBC
:104870003E8B2D8B8EE091E0988F8F8B88EC90E0B3
:104880009A8F898F8AE1FE013196DE015B96019055
:104890000D928A95E1F780910006882359F04AE14C
:1048A00050E0BE01655E7F4F8091A81B0E943302DD
:1048B00081E009C04AE150E0BE01655E7F4F809112
:1048C000A81B89D181E0E4960FB6F894DEBF0FBE35
:1048D000CDBFDF91CF910895AF92CF92EF920F931A
:1048E000CF93DF93CDB7DEB72D970FB6F894DEBF29
:1048F0000FBECDBFE0910E1AEE2319F1E1E0E9837E
:104900009B838A837D836C835F834E83398728876B
:104910000A87EB86CC86AD8680910106882351F00C
:104920004DE050E0BE016F5F7F4F8091A81B0E9459
:10493000330207C04DE050E0BE016F5F7F4F80E063
:104940004AD12D960FB6F894DEBF0FBECDBFDF91D2
:10495000CF910F91EF90CF90AF900895CF93DF93C9
:104960001F92CDB7DEB780910E1A8823B9F083E08D
:10497000898380910306882351F041E050E0BE0115
:104980006F5F7F4F8091A81B0E94330207C041E0F8
:1049900050E0BE016F5F7F4F80E01DD10F90DF912F
:1049A000CF910895CF93DF93CDB7DEB7C456D10929
:1049B0000FB6F894DEBF0FBECDBFAE0146595F4FB4
:1049C000FA0161917191AF018AE08983CE0102966B
:1049D0000E941F3C8823C9F020910A06222361F01F
:1049E0009927AC014F5F5F4FBE016F5F7F4F809192
:1049F000A81B0E94330209C09927AC014F5F5F4F8B
:104A0000BE016F5F7F4F80E0E6D0CC59DF4F0FB61D
:104A1000F894DEBF0FBECDBFDF91CF910895CF9345
:104A2000DF931F92CDB7DEB780910E1A8823B9F0BD
:104A300089E0898380910906882351F041E050E0A4
:104A4000BE016F5F7F4F8091A81B0E94330207C099
:104A500041E050E0BE016F5F7F4F80E0BCD00F901F
:104A6000DF91CF9108958A3538F080E99BE09093EB
:104A7000AB008093AA000895811107C08DE295E0F4
:104A80009093AB008093AA0008959FEF980F9935FB
:104A900060F4E82FF0E0EE0FFF1FE058F94F80813F
:104AA00091819093AB008093AA000895A0EAB0E0B2
:104AB0009C9190629C93E1EAF0E0908198619083F0
:104AC0009C9192609C939081926090832FE33CE94B
:104AD0003093A7002093A600E1E0F1E0908190617F
:104AE0009083C1CF0895EF92FF920F931F93CF93BE
:104AF000DF939091101A9F3F11F0981358C0FB015B
:104B00008081811105C01092121A1092111A0CC0E6
:104B10009091131A891741F0EFE0FAE114821382A1
:104B200012828FEF818343C08091111A9091121AE3
:104B30009C0122503109240F351F2536310540F0E4
:104B4000EFE0FAE11382128214828FEF81832FC08B
:104B50008A01EB010F2EFFE0EF2EFAE1FF2EF02D80
:104B6000F70124812F5F2483425051096E5F7F4FEC
:104B70008C5E954E0E94C83BF701428153814250A2
:104B80005109BA01600F711F738362839881898113
:104B900098130DC0E091A91BF091AA1B84E19AE142
:104BA0001995F7011482138212828FEF8183DF91AE
:104BB000CF911F910F91FF90EF9008959093AA1BB2
:104BC0008093A91B63E775E280E00E94EE1A8FEFE5
:104BD0008093101A08955F926F927F928F929F92A6
:104BE000AF92BF92CF92DF92EF92FF920F931F93FB
:104BF000CF93DF93582E5B018A018CE290E00E94F4
:104C000027087C01980136952795ADE0B3EC0E940A
:104C1000C23A929582958F7089279F7089274AE2C0
:104C2000489F9001499F300D112441E0021713075E
:104C300009F440E0980136952795ADE0B3EC0E9469
:104C4000C23A929582958F7089279F708927840F29
:104C50000115110559F190E0C12CD12C66246A94FC
:104C6000680E470182E0880E911CE8010B321105A5
:104C700010F0CAE2D0E077247394790EF7019083A4
:104C80006182B5016C0D7D1DAE01C4010E94C83B5F
:104C90009E012E5F3F4FA70160E0852D0E94F91A0B
:104CA000CC0EDD1E0C1B1D0B972DF9F6C7010E94C3
:104CB000310981E0DF91CF911F910F91FF90EF902B
:104CC000DF90CF90BF90AF909F908F907F906F902C
:104CD0005F90089584B1876084B923988CB5816012
:104CE0008CBD8CB58C658CBD8CB58F7D8CBD0895CD
:104CF0008EBD00000DB407FEFDCF8EB508954F9216
:104D00005F926F927F928F929F92AF92BF92CF925B
:104D1000DF92EF92FF920F931F93CF93DF934C019B
:104D2000EB015A012901C114D10439F4CA010E94CE
:104D300027086C01892B09F4ECC088E290E00E94FE
:104D400027083C010097B9F0FC01D08EC78AA50165
:104D500065EA70E0C6010E94D13BF1E0AF1AB108EC
:104D6000F3018789908DA80EB91E8881818F888173
:104D7000811105C014C0C6010E943109CAC0D30107
:104D80005A96FE0131969E01285F3F4FEF018191B7
:104D90008D938881882319F02E173F07B9F7F30107
:104DA00010A2102F063008F015E0F301168B11A3A6
:104DB00012A2E3012296CE010E943C0CC3010C9684
:104DC0000E943C0CF3017186608686E090E0811BB6
:104DD000910995878487738A628A13A214A215A207
:104DE00016A217A2A201B401C5010E946B1BF30118
:104DF00091838083E114F10419F0F70171826082DC
:104E00000FB6F8940F928091831A8F5F8093831A64
:104E10008091E21A9091E31A892BD9F57092E31AE6
:104E20006092E21A8091831A813009F041C00F2EFE
:104E3000FCEAEF2EFAE1FF2EF02D0F2EF2EECF2E30
:104E4000FAE1DF2EF02DC7010E942E0CF9E0EF0EE3
:104E5000F11CEC14FD04B9F783EA9AE10E942E0CD0
:104E60008AE99AE10E942E0C8DE89AE10E942E0CAC
:104E700084E89AE10E942E0C83EA9AE19093991AB1
:104E80008093981A8AE99AE19093971A8093961AD8
:104E90000FC080917F1A81110BC0E091E21AF0914E
:104EA000E31A8689081720F07092E31A6092E21ADA
:104EB00080917B1A8F5F80937B1AF3018689909192
:104EC000801A981710F48093801A90E09C01220FAA
:104ED000331F220F331F220F331F820F931FBE0178
:104EE0008455954E0E94400C0F900FBE80917F1A02
:104EF000882359F0E091E21AF091E31A868980172D
:104F000030F40E94251C81E005C081E003C081E0EF
:104F100001C08FEFDF91CF911F910F91FF90EF9024
:104F2000DF90CF90BF90AF909F908F907F906F90C9
:104F30005F904F9008959F92AF92BF92CF92DF9271
:104F4000EF92FF920F931F93CF93DF93FC01909109
:104F5000781A9F5F9093781A8091811A9091821AA3
:104F600020813181E901C60FD71F8217930758F4BA
:104F7000C217D30708F06EC1D183C0838C179D0779
:104F800008F042C009C0C217D30708F460C18C17EB
:104F90009D0708F45CC15EC18091E21A9091E31A0A
:104FA00002960E94920CE091E21AF091E31AD383E8
:104FB000C2838091811A9091821AC817D90768F428
:104FC0006091E21A7091E31A8091961A9091971A63
:104FD0006E5F7F4F0E94610C17C06091E21A709162
:104FE000E31A8091981A9091991A6E5F7F4F0E94F0
:104FF000610C8091791A90917A1AC817D90720F418
:10500000D0937A1AC093791A0FB6F8940F928091C0
:10501000781A81508093781A8091781A81110DC185
:105020008091831A811133C00BC1D7011596ED9180
:10503000FC911697C681D781CE010C960E94920CE6
:105040008E010E5F1F4FC8010E94920C8E899091B5
:10505000801A981710F48093801A90E09C01220F18
:10506000331F220F331F220F331F820F931FB801EC
:105070008455954E0E94400CE091E21AF091E31A9B
:105080009E898689981758F0D0927D1A08C00F2EF5
:10509000FDE8EF2EFAE1FF2EF02DDD24D394F70189
:1050A00080818111C2CF80917E1A882309F4BDC00E
:1050B00080917E1A882309F4B8C0912CBB24B39444
:1050C000CC24CA94DC2C8091781A811198C08091EC
:1050D000811A9091821A01969093821A8093811A74
:1050E000E090811AF090821AE114F10489F5809120
:1050F000981A9091991A2091961A3091971A309394
:10510000991A2093981A9093971A8093961A8091DF
:105110007C1A8F5F80937C1AE091981AF091991A0B
:105120008081811105C0D0927A1AC092791A10C07C
:10513000E091981AF091991A0580F681E02D068089
:10514000F781E02D8281938190937A1A8093791A66
:105150008091791A90917A1AE816F90608F47DC0C0
:10516000A92CE091981AF091991A8081811105C0BB
:10517000D0927A1AC092791A48C0E091981AF091A8
:10518000991A0580F681E02DC681D7818A819B819D
:10519000E816F90628F490937A1A8093791A35C0A4
:1051A0008E010E5F1F4FC8010E94920C8C899D8951
:1051B000892B21F0CE010C960E94920C8E89909141
:1051C000801A981710F48093801A90E09C01220FA7
:1051D000331F220F331F220F331F820F931FB8017B
:1051E0008455954E0E94400CE091E21AF091E31A2A
:1051F0009E898689981708F4B4CFAB2CB2CF8091E2
:105200007E1A8F5F80937E1A28C080917D1A81114B
:1052100001C0A110B0927D1A80917E1A81508093B6
:105220007E1A80917E1A81114ECF80917D1A813035
:1052300031F40E94251C81E003C080E001C080E0C1
:105240000F900FBE81110EC00E94251C0BC0D18390
:10525000C083A2CED183C083D7CE80917D1A811125
:10526000D9CFDACFDF91CF911F910F91FF90EF90BF
:10527000DF90CF90BF90AF909F9008959F92AF9294
:10528000BF92CF92DF92EF92FF920F931F93CF9333
:10529000DF93009709F463C12091781A2F5F209360
:1052A000781AC091811AD091821AC80FD91F8091A3
:1052B000E21A9091E31A02960E94920CE091E21A8F
:1052C000F091E31AD383C2838091811A9091821A5C
:1052D000C817D90768F46091E21A7091E31A8091B7
:1052E000961A9091971A6E5F7F4F0E94610C17C0BB
:1052F0006091E21A7091E31A8091981A9091991A2C
:105300006E5F7F4F0E94610C8091791A90917A1A9A
:10531000C817D90720F4D0937A1AC093791A0FB618
:10532000F8940F928091781A81508093781A809126
:10533000781A81110DC18091831A811133C00BC17C
:10534000D7011596ED91FC911697C681D781CE01B4
:105350000C960E94920C8E010E5F1F4FC8010E9496
:10536000920C8E899091801A981710F48093801A6D
:1053700090E09C01220F331F220F331F220F331F97
:10538000820F931FB8018455954E0E94400CE09106
:10539000E21AF091E31A9E898689981758F0D09204
:1053A0007D1A08C00F2EFDE8EF2EFAE1FF2EF02D3A
:1053B000DD24D394F70180818111C2CF80917E1AC0
:1053C000882309F4BDC080917E1A882309F4B8C0EF
:1053D000912CBB24B394CC24CA94DC2C8091781AF1
:1053E000811198C08091811A9091821A01969093B0
:1053F000821A8093811AE090811AF090821AE11447
:10540000F10489F58091981A9091991A2091961A31
:105410003091971A3093991A2093981A9093971A6B
:105420008093961A80917C1A8F5F80937C1AE0910A
:10543000981AF091991A8081811105C0D0927A1A38
:10544000C092791A10C0E091981AF091991A0580CB
:10545000F681E02D0680F781E02D82819381909383
:105460007A1A8093791A8091791A90917A1AE816AB
:10547000F90608F477C0A92CE091981AF091991ACE
:105480008081811105C0D0927A1AC092791A48C0E1
:10549000E091981AF091991A0580F681E02DC68165
:1054A000D7818A819B81E816F90628F490937A1AAD
:1054B0008093791A35C08E010E5F1F4FC8010E947C
:1054C000920C8C899D89892B21F0CE010C960E942B
:1054D000920C8E899091801A981710F48093801AFC
:1054E00090E09C01220F331F220F331F220F331F26
:1054F000820F931FB8018455954E0E94400CE09195
:10550000E21AF091E31A9E898689981708F4B4CFBD
:10551000AB2CB2CF80917E1A8F5F80937E1A22C00F
:1055200080917D1A811101C0A110B0927D1A8091E5
:105530007E1A815080937E1A80917E1A81114ECFFF
:1055400080917D1A813031F40E94251C81E003C0D6
:1055500080E001C080E00F900FBE811108C00E9462
:10556000251C05C080917D1A8111DFCFE0CFDF912E
:10557000CF911F910F91FF90EF90DF90CF90BF9050
:10558000AF909F900895CF92DF92EF92FF920F938A
:105590001F93CF93DF9385E590E00E9427088C014D
:1055A000892B09F4D4C088E290E00E942708EC011E
:1055B000892BB1F0188F0F8B45E550E065EA70E05C
:1055C000C8010E94D13B0F89188D0C5A1F4F89E4E6
:1055D000898FE7E3F7E0DE015A962EE337E004C057
:1055E000C8010E943109B3C081918D93882319F0BD
:1055F0002E173F07C9F718A21E8A19A21AA27E0108
:1056000082E0E80EF11CC7010E943C0CCE010C9612
:105610000E943C0CD987C88786E090E09D878C87E4
:10562000DB8BCA8B1BA21CA21DA21EA21FA240E0E4
:1056300050E069E171E0C8010E946B1B9983888387
:105640000FB6F8940F928091831A8F5F8093831A1C
:105650008091E21A9091E31A892BA9F5D093E31A6D
:10566000C093E21A8091831A8130E1F50CEA1AE1C5
:105670000F2EF2EECF2EFAE1DF2EF02DC8010E94A0
:105680002E0C075F1F4FC016D106C1F783EA9AE1BF
:105690000E942E0C8AE99AE10E942E0C8DE89AE174
:1056A0000E942E0C84E89AE10E942E0C83EA9AE173
:1056B0009093991A8093981A8AE99AE19093971A8D
:1056C0008093961A0FC080917F1A81110BC0E091D0
:1056D000E21AF091E31A8689811104C0D093E31A8B
:1056E000C093E21A80917B1A8F5F80937B1A8E8918
:1056F0009091801A981710F48093801A90E09C0182
:10570000220F331F220F331F220F331F820F931FCD
:10571000B7018455954E0E94400C0F900FBE8091AA
:105720007F1A882321F08091E21A9091E31AF8946D
:105730008FEF9FEF90937A1A8093791A81E080938C
:105740007F1A1092821A1092811A0E94DD1BDF913B
:10575000CF911F910F91FF90EF90DF90CF90089520
:105760008091781A8F5F8093781A08959F92AF92F4
:10577000BF92CF92DF92EF92FF920F931F93CF933E
:10578000DF930FB6F8940F928091781A815080932E
:10579000781A8091781A81110DC18091831A811134
:1057A00033C00BC1D7011596ED91FC911697C681B8
:1057B000D781CE010C960E94920C8E010E5F1F4F76
:1057C000C8010E94920C8E899091801A981710F44B
:1057D0008093801A90E09C01220F331F220F331F09
:1057E000220F331F820F931FB8018455954E0E94DC
:1057F000400CE091E21AF091E31A9E89868998178D
:1058000058F0D0927D1A08C00F2EFDE8EF2EFAE175
:10581000FF2EF02DDD24D394F70180818111C2CFBA
:1058200080917E1A882309F4BDC080917E1A882356
:1058300009F4B8C0912CBB24B394CC24CA94DC2CBA
:105840008091781A811198C08091811A9091821A62
:1058500001969093821A8093811AE090811AF090B9
:10586000821AE114F10489F58091981A9091991A9D
:105870002091961A3091971A3093991A2093981A7A
:105880009093971A8093961A80917C1A8F5F8093D9
:105890007C1AE091981AF091991A8081811105C0C3
:1058A000D0927A1AC092791A10C0E091981AF091A9
:1058B000991A0580F681E02D0680F781E02D82811E
:1058C000938190937A1A8093791A8091791A9091A2
:1058D0007A1AE816F90608F473C0A92CE091981A10
:1058E000F091991A8081811105C0D0927A1AC092E4
:1058F000791A48C0E091981AF091991A0580F681BA
:10590000E02DC681D7818A819B81E816F90628F4AB
:1059100090937A1A8093791A35C08E010E5F1F4FCB
:10592000C8010E94920C8C899D89892B21F0CE019F
:105930000C960E94920C8E899091801A981710F400
:105940008093801A90E09C01220F331F220F331F97
:10595000220F331F820F931FB8018455954E0E946A
:10596000400CE091E21AF091E31A9E89868998171B
:1059700008F4B4CFAB2CB2CF80917E1A8F5F8093A6
:105980007E1A1EC080917D1A811101C0A110B092B3
:105990007D1A80917E1A815080937E1A80917E1AA2
:1059A00081114ECF80917D1A813031F40E94251CE7
:1059B00081E003C080E001C080E00F900FBE05C011
:1059C00080917D1A8111E3CFE4CFDF91CF911F91B8
:1059D0000F91FF90EF90DF90CF90BF90AF909F908E
:1059E00008950FB6F8940F928091811A9091821ABF
:1059F0000F900FBE0895CF92DF92EF92FF920F9318
:105A00001F93CF93DF938091781A81119FC080916B
:105A1000811A9091821A01969093821A8093811A2A
:105A2000E090811AF090821AE114F10499F58091C6
:105A3000981A9091991A2091961A3091971A30934A
:105A4000991A2093981A9093971A8093961A809196
:105A50007C1A8F5F80937C1AE091981AF091991AC2
:105A60008081811107C08FEF9FEF90937A1A809306
:105A7000791A10C0E091981AF091991A0580F68170
:105A8000E02D0680F781E02D8281938190937A1A30
:105A90008093791A8091791A90917A1AE816F9060A
:105AA00010F4D12C59C0D12CCC24C394E091981A75
:105AB000F091991A8081811107C08FEF9FEF909329
:105AC0007A1A8093791A48C0E091981AF091991A3D
:105AD0000580F681E02DC681D7818A819B81E816F9
