S00C0000546573742E7372656378
S1130000F2C0000010C100000EC100000C940309EE
S11300100C94F2080C94140906C1000004C10000F9
S113002002C1000000C10000FEC00000FCC00000CE
S1130030FAC00000F8C00000F6C00000F4C00000E0
S1130040F2C00000F0C00000EEC00000ECC00000F0
S1130050EAC00000E8C00000E6C00000E4C0000000
S1130060E2C00000E0C00000DEC00000DCC0000010
S1130070DAC00000D8C00000D6C00000D4C0000020
S11300800C94260CD0C00000CEC00000CCC00000F0
S1130090CAC00000C8C00000C6C00000C4C0000040
S11300A0C2C00000C0C00000BEC00000BCC0000050
S11300B0BAC00000B8C00000B6C00000B4C0000060
S11300C0B2C00000B0C00000AEC000000C94161B0B
S11300D0AAC00000A8C00000A6C00000A4C0000080
S11300E0A2C000006E616E00696E660000407A1066
S11300F0F35A00A0724E18090010A5D4E80000E8D5
S11301007648170000E40B54020000CA9A3B000032
S113011000E1F505000080969800000040420F00C1
S11301200000A08601000000102700000000E80382
S1130130000000006400000000000A00000000004D
S11301400100000000002C76D888DC674F0823DF0C
S1130150C1DFAE59E1B1B796E5E3E453C63AE651DF
S1130160997696E8E6C28426EB898C9B62ED407C06
S11301706FFCEFBC9C9F40F2BAA56FA5F490055AA2
S11301802AF75C936B6CF9676DC11BFCE0E40D47C7
S1130190FEF520E6B500D0ED902E030094357705EA
S11301A00080841E080000204E0A000000C80C33A2
S11301B03333330F986E12831141EF8D2114893B31
S11301C0E65516CFFEE6DB18D1844B381BF77C1DB1
S11301D0901DA4BBE424203284725E228100C9F104
S11301E024ECA1E53D2711241FBECFEFD1E2DEBFF1
S11301F0CDBF00E00CBF12E0A0E0B2E0EAE3F1E41E
S113020000E00BBF02C007900D92A03DB107D9F7E3
S113021027E1A0EDB2E001C01D92AE37B207E1F7CD
S1130220A4D70C949B20ECCECF93DF9364EA71E0C7
S113023081E00E94680A1092D1021092D002C2EDAD
S1130240D2E08DE8FE0111928A95E9F781E00E94DF
S1130250280C90935C0380935B031882DF91CF9109
S11302600895CF93DF931F921F92CDB7DEB781110C
S113027014C08091D202823091F4662394F081E01C
S113028089836A8322E030E0AE014F5F5F4F61E013
S11302908091F2020E94730A05C080E003C080E0EE
S11302A001C080E00F900F90DF91CF9108950F93DC
S11302B01F93CF93DF93EA01811141C08091F5022E
S11302C09091F602892B99F4DB0111968C91119788
S11302D090E0982F88272C91822B9093F60280939C
S11302E0F5028536910558F522976E5F7F4F02ED32
S11302F012E0F80181A192A1AE0189509D4F0E94A4
S1130300ED1FD80191966D917C9192976C0F7D1F92
S113031092967C936E93919793968D919C919497DA
S11303206817790761F45796ED91FC91589787EF18
S113033092E01995F80114A213A212A211A2DF915E
S1130340CF911F910F9108959F92AF92BF92CF9238
S1130350DF92EF92FF920F931F93CF93DF931F923D
S1130360CDB7DEB78B015A019091F2029813B8C051
S11303709091D202992309F4B3C0FB01D0800F2ECF
S1130380F2EDEF2EF2E0FF2EF02D13C0E091D0023B
S1130390F091D102309759F0482F50E060E070E0BE
S11303A000E010E023E0CF010E942619AAC0E12C4E
S11303B0F12C20E04FEF5FEF60E070E0F701E757CA
S11303C0FF4F808191810E943A0FF7018081823032
S11303D030F0A114B10419F00115110551F4F7011D
S11303E0E757FF4F60E070E0808191810E94A30D88
S11303F088C0833021F5F3E0DF1221C0F701E5570F
S1130400FF4F80819181009781F000E010E022E0AD
S113041040E050E0BA010E942619F701E557FF4F6A
S11304201182108260E080E01CDFF701E757FF4F84
S113043060E070E0808191810E94A30D62C0F801A8
S1130440C180DD2009F452C0F4E0DF1213C053C0B0
S1130450A50142505109B8016E5F7F4F80E027DF4C
S1130460F701828D8F5F8F77828FF701628D80E035
S1130470F8DE2CC0F1E0DF1229C0F701838DFC2DDA
S1130480F81B8F2F8F77982E09F1D12C57018BE011
S1130490A80EB11C87010F5F1F4F42E050E0BE0160
S11304A06F5F7F4FC501FBD0498150E060E070E091
S11304B0C801F5D0D3949D10F0CFF701C38E148EEC
S11304C0168E158E818DC81201C0178EF701E7575D
S11304D0FF4F60E070E0808191810E94A30D11C004
S11304E0F801D080F2E0DF120CC050CFF701828D0A
S11304F0C812BBCFADCFF701828DC81609F4B0CFB7
S1130500B4CF0F90DF91CF911F910F91FF90EF9097
S1130510DF90CF90BF90AF909F900895FC0161153C
S1130520710561F071836083538342831186108661
S1130530178216821582148281E0089580E008955E
S1130540EF92FF920F931F93CF93DF93EC012A81D5
S11305503B8188859985F901E81BF90BE417F507B8
S113056008F449C08A017B018C819D81A901481B43
S1130570590B04171507A8F428813981A801820FA3
S1130580931F0E94ED1F8C819D81800F911F9D837D
S11305908C832A813B818217930721F51D821C825B
S11305A021C028813981820F931F0E94ED1F8C8105
S11305B09D816A817B81AC01461B570B400F511F03
S11305C0681B790B6E0D7F1D888199810E94ED1F38
S11305D08C819D812A813B81821B930B800F911F0B
S11305E09D838C8348855985040F151F19870887B7
S11305F081E090E002C080E090E0DF91CF911F9114
S11306000F91FF90EF9008950F931F93CF93DF9373
S1130610FC0121153105C9F1A681B7818481958139
S1130620A817B907A9F1C62FD72F80E090E007C01B
S1130630A681B78164817581A617B70759F16081D6
S11306407181A60FB71F5C918E01588366817781F3
S11306506F5F7F4F77836683A085B1851197B187DC
S1130660A087A281B3816A177B0711F417821682CF
S11306702196D8015C91541302C001960BC00196D7
S113068028173907A9F6C90105C080E090E002C027
S113069080E090E0DF91CF911F910F910895EF9248
S11306A0FF920F931F93CF93DF93EC017B01088597
S11306B019854017510708F48A018E819F814A8168
S11306C05B81481B590B40175107C8F0E114F10432
S11306D041F068817981680F791FA801C7010E94E0
S11306E0ED1F8E819F81800F911F9F838E832A81AE
S11306F03B818217930741F51F821E8225C0E114B6
S1130700F104C1F068817981680F791FC7010E94E3
S1130710ED1F4E815F812A813B81C901841B950BAA
S1130720421B530B400F511F688179818E0D9F1D11
S11307300E94ED1F8E819F812A813B81821B930B36
S1130740800F911F9F838E8388859985801B910BD1
S113075099878887C801DF91CF911F910F91FF90EE
S1130760EF900895EF92FF920F931F93CF93DF932F
S11307707C01680F791FFC013196009719F041152F
S1130780510521F460E070E081E04BC02115310592
S113079059F1E617F70760F58A01020F131FDA0112
S11307A0EC0191E02FEF04C0FA01E617F70720F5FA
S11307B03D9131110AC09883CF010196A017B1076A
S11307C0E8F4EF01FC0191E0F0CFAF014F5F5F4F20
S11307D030839F5FA017B107B0F49F3F29F72883A8
S11307E03296EA0191E0E1CFEC0180E091E00DC0A6
S11307F0EC0182E091E009C082E007C0EF01FC0156
S113080080E091E002C0FA0180E0C617D70718F42F
S11308109883BF0101C082E09B012E193F09622F1A
S1130820732FDF91CF911F910F91FF90EF90089557
S1130830AF92BF92CF92DF92EF92FF920F931F93EA
S1130840CF93DF937C01DA01009711F0109721F424
S113085060E070E081E05FC02115310509F44BC010
S11308606A01C20ED31E5C01A60EB71E8C0150E0B5
S113087001C08F01ED0121967C91711103C0546078
S1130880F8013DC07150C6018C1B9D0B272F30E031
S11308908217930710F4782F5860C501801B910BC1
S11308A0272F30E08217930710F4782F52607723B4
S11308B061F1DE01F801972F3D91311101C05460BF
S11308C031939150C9F7EFEFE70FF0E03196DE0175
S11308D0AE0FBF1FE00FF11FAC15BD0580F47E3FC6
S11308E041F2EA15FB0510F0526009C08F010F5F59
S11308F01F4F1082BFCFFC0150E001C0F801EE1978
S1130900FF096E2F7F2F852F06C0CC15DD05B0F7AC
S1130910F801DE01E6CFDF91CF911F910F91FF9097
S1130920EF90DF90CF90BF90AF900895862798E026
S11309302CE880FF03C08695822701C086959150DC
S1130940C1F708950F931F93CF93DF93662359F054
S11309508C01EC01060F111D80E06991E7DFC017DF
S1130960D107D9F701C080E0DF91CF911F910F919A
S1130970089580B380BBECE7F0E08081806C8083D5
S1130980EAE7F0E0808180688083808184608083EE
S11309900895EF92FF920F931F93CF93DF93EC018F
S11309A00E9427148091650390916603892B41F579
S11309B0E7E6F3E0ABE6B3E0B183A08313821282EF
S11309C0E7E6F5E1F0936603E09365031382128290
S11309D0118210828CEF91E113969C938E9312975F
S11309E0ED93FC939093620380936103909364036B
S11309F08093630380E090E89093600380935F03A7
S1130A0080915F03909160038C239D23892B09F0CF
S1130A10B2C0209709F4B2C0AE014C5F5F4F09F435
S1130A20B0C080916303909164038417950708F420
S1130A30ABC0E0916703F0916803A7E6B3E002C09E
S1130A40DF01F901228133812417350728F420813D
S1130A50318121153105A1F7609165037091660319
S1130A60E617F70709F493C0CD91DC9111977E0145
S1130A7084E0E80EF11C808191818D939C938281A6
S1130A809381841B950B8930910508F452C09F0112
S1130A90240F351FD90113969C938E931297538379
S1130AA04283A7E6B3E001C0DC018D919C911197CC
S1130AB082179307C8F312964D915C9113978D0199
S1130AC0040F151F2017310751F4E9012A813B81D6
S1130AD0420F531F13965C934E9312979D01E901A5
S1130AE04A815B818901040F151F80179107C9F49E
S1130AF06017710791F0E8018A819B81480F591FA3
S1130B00E9015B834A838D919C911197EC01888163
S1130B109981E9019983888307C0E901798368830E
S1130B2003C0E90199838883A217B30711F02D93B9
S1130B303C93228133818091630390916403821BEF
S1130B40930B9093640380936303409161035091EA
S1130B5062038417950720F49093620380936103E2
S1130B6080915F0390916003282B392B3383228378
S1130B70118210820EC0E12CF12C0BC0E12CF12C5F
S1130B8008C0E12CF12C05C0E12CF12C02C0E12CB1
S1130B90F12C0E942D14C701DF91CF911F910F9169
S1130BA0FF90EF900895CF93DF93009709F468C006
S1130BB0FC0134972281338140915F03509160039B
S1130BC0B90164237523672B09F45AC060817181CC
S1130BD0672B09F055C0EF01409550952423352328
S1130BE0338322830E9427144A815B8180916303AB
S1130BF090916403840F951F90936403809363031F
S1130C00E7E6F3E001C0FC01808191818C179D0728
S1130C10D0F322813381BF01620F731FC617D70738
S1130C2029F4240F351F33832283EF012A813B816A
S1130C30DE01A20FB31F8A179B07C9F480916503D5
S1130C4090916603A817B90779F012968D919C913B
S1130C501397280F391F3B832A83A081B1818D917B
S1130C609C919983888305C0B983A88302C0998322
S1130C708883EC17FD0711F0D183C0830E942D14E3
S1130C80DF91CF910895CF93DF93EC012898862FBD
S1130C9080680E94891180E00E948911289A8F3F00
S1130CA011F495E001C090E08883892FDF91CF9102
S1130CB00895CF93DF931F921F92CDB7DEB7EEEA6C
S1130CC0F6E181E0808324EF31E03283218322E85E
S1130CD036E03483238320E931E036832583178289
S1130CE010868187828720E130E0348723872DE0D6
S1130CF030E03687258722E330E0308B2787118A5E
S1130D00128A838B848B88EB9BE0968B858B8AE09D
S1130D1090E0908F878B118E1092C9161092C8168E
S1130D201092CB161092CA160E947B11209A289A10
S1130D30198220E137E289818F5F8983215031094B
S1130D40D1F76FE0CE0102969EDF8A818936C9F71A
S1130D5080E00F900F90DF91CF910895CF93C62F2D
S1130D6028980E9489118C2F0E948911289A80E06A
S1130D70CF9108951F93CF93DF931F921F92CDB706
S1130D80DEB7198296DF182F19828091B716813049
S1130D9009F083C08091BD169091BE1684369105EA
S1130DA041F0883C910541F0C29741F483E0898386
S1130DB005C082E0898302C081E089838091B916ED
S1130DC09091BA168430910531F08830910539F04C
S1130DD0029749F40BC089818860898307C089819F
S1130DE08C60898303C08981846089838091BB1668
S1130DF09091BC16803A21E09207C1F170F48A31D7
S1130E00910521F118F40D97E9F028C08433910578
S1130E1009F1803D910531F121C082302DE0920726
S1130E2089F140F4813423E0920721F18C37964014
S1130E3029F114C084302AE1920741F182319443AC
S1130E4049F10CC089818061898327C089818062CE
S1130E50898323C08981806389831FC089818064D9
S1130E6089831BC089818065898317C089818066D5
S1130E70898313C08981806789830FC089818068D1
S1130E8089830BC089818069898307C08981806ACD
S1130E90898303C08981806B8983698180E15EDFF6
S1130EA063E1CE010196EFDE89818F77898390918A
S1130EB0B816913011F480688983698183E14EDF2B
S1130EC019828091AE16813009F05BC08091AF1613
S1130ED09091B016853F9105C1F020F48D379105AE
S1130EE049F011C0843F21E0920739F0883E9340D5
S1130EF039F009C082E0898308C084E0898305C091
S1130F0088E0898302C08CE089838091B116909136
S1130F10B216803D910531F148F48A319105B1F062
S1130F2084339105B9F00D97C9F40CC0813423E0E2
S1130F30920701F18C3726E0920701F1803A914043
S1130F4069F414C08981806189831BC089818062AE
S1130F50898317C089818063898313C089818064F0
S1130F6089830FC08981806589830BC089818066EC
S1130F70898307C089818067898303C089818068E8
S1130F808983698181E1EADE6FE0CE0102967BDE2E
S1130F90812F0F900F90DF91CF911F910895EAE078
S1130FA0F1E080818760808308958230910531F477
S1130FB0EBE0F1E0808184608083089581309105C5
S1130FC031F4EBE0F1E08081826080830895892B25
S1130FD029F4EBE0F1E08081816080830895823020
S1130FE0910531F4EBE0F1E080818B7F80830895FB
S1130FF08130910531F4EBE0F1E080818D7F8083D5
S11310000895892B29F4EBE0F1E080818E7F8083C1
S113101008958230910539F4EBE0F1E0908184E0A9
S11310208927808308958130910539F4EBE0F1E05C
S1131030908182E0892780830895892B31F4EBE045
S1131040F1E0908181E0892780830895FC01039673
S1131050928381832FEF3FEF3483238396838583A9
S11310609087878310820895FC0111861086089565
S1131070CF93DF939C01FB01DC011196CD91DC91B0
S11310801297D383C2838C819D81958384838C81C1
S11310909D81DC0113967C936E9312977D836C8300
S11310A031872087F90180818F5F8083DF91CF9121
S11310B00895CF93DF93EB01488159814F3F2FEF80
S11310C0520721F4FC01A781B0850DC0DC01139601
S11310D001C0DF011296ED91FC91139720813181BB
S11310E042175307B0F71296ED91FC911397FB83C7
S11310F0EA83D583C483BD83AC831396DC93CE93F8
S1131100129799878887FC0120812F5F2083DF91C4
S1131110CF910895CF93DF93FC01A085B185C2815F
S1131120D381848195819D838C83C481D58182817F
S113113093819B838A8311968D919C911297E817D2
S1131140F90731F48481958112969C938E931197BB
S1131150118610868C9181508C93DF91CF910895E4
S1131160F89480E090E055DFFCCFCF93DF931F929B
S1131170CDB7DEB714DF80E090E017DF0E94A01A3D
S1131180A2D152D885EC90E10E946F1180E00E94B8
S1131190E710EFDB93D0EEDD19829E012F5F3F4F06
S11311A0A90162EE7FEF82EE9FEF15D12FEF87EA60
S11311B091E6215080409040E1F700C000009E017C
S11311C02F5F3F4FA90160E070E080E090E003D121
S11311D02FEF87EA91E6215080409040E1F700C06C
S11311E00000DBCF1F920F920FB60F9211248F9342
S11311F080916D158F5F80936D158F910F900FBE49
S11312000F901F9018951F920F920FB60F921124F2
S11312108F9380916E158F5F80936E158F910F90D1
S11312200FBE0F901F9018951F920F920FB60F923A
S113123011240BB60F922F933F934F935F936F93A9
S11312407F938F939F93AF93BF93EF93FF9364998F
S113125007C082E090E0A9DE81E090E0A6DE14C041
S113126010926C1510926B1582E090E0B8DE81E06C
S113127090E0B5DE80E090E0B2DE60E070E0809166
S1131280D4169091D516CCD560E070E08091CE163E
S11312909091CF16C5D5FF91EF91BF91AF919F91DA
S11312A08F917F916F915F914F913F912F910F900B
S11312B00BBE0F900FBE0F901F901895E1E0F1E068
S11312C0808180638083269A84B1806684B9279A5A
S11312D02F982E9885B18F7985B9E2E0F1E080816D
S11312E08F7C80838AB18AB98BB18C608BB96C98FE
S11312F08DB38DBBE9E6F0E08081806F8083EAE600
S1131300F0E08081816080838CE18CBB8DB38C6143
S11313108DBB84B5806884BDE0E8F0E080818062A4
S1131320808384B5836084BD85B585BD80818160FB
S11313308083E1E8F0E080818860808385B5856002
S113134085BD808185608083269A279A089587BD0C
S11313502C9A2D9884E0FB018083089590E090936B
S11313608B0080938A00E2E0F1E0808180648083D6
S113137080818F7D808386E0FB018083089587BD13
S11313802C982D9A85E0FB018083089590E090933A
S11313908B0080938A00E2E0F1E080818F7B808380
S11313A080818062808385E0FB01808308958FEFD4
S11313B087BD2C982D9808958FEF90E090938B0023
S11313C080938A00E2E0F1E080818F7B80838081DA
S11313D08F7D808308950F931F93CF93DF93EB0149
S11313E08901181619061CF4BA01B1DF07C0992344
S11313F024F4BA018195C3DF01C0D9DF1C161D0690
S113140024F4B8018C2FAADF08C0DD232CF4B80122
S11314108C2F8195BBDF01C0CFDFDF91CF911F916E
S11314200F910895EF92FF920F931F93CF93DF9341
S11314307C018B01CB01ADDAEC019801215031091B
S1131440A701B801F5D9882341F0809170158F5F09
S113145080937015CE01A7DB2FC0862F972F8C01A8
S1131460FE01E80FF91F3197F0806FEF680FCE018E
S113147069DAF81641F080916F158F5F80936F15CC
S1131480CE0191DB19C08881833019F0CE018BDB4A
S113149013C0A80144505109BE016D5F7F4FEA811A
S11314A0F0E0EE0FFF1FEC50F94E0190F081E02DBB
S11314B089811995CE0177DBDF91CF911F910F912F
S11314C0FF90EF90089582E19AE00C94111B089527
S11314D0823040F4E82FF0E0EE0FFF1FEC50F94E9D
S11314E07183608308958F929F92AF92BF92CF923F
S11314F0DF92EF92FF920F931F93CF93DF93882E87
S1131500962E5A018901690184E0C80ED11CC601D6
S113151040DAEC01C80106963CDA7C01209711F010
S1131520892B31F4CE013FDBC7013DDB80E036C0BF
S1131530888283E089839A82A801B501CE0103964B
S11315400E94ED1F5801E3E0AE0EB11CAC0EBD1EAF
S113155063E0600FCE01F6D9F5018083B8016B5FBB
S11315607F4F9601AE01C701FDD8882331F0CE012B
S11315701ADBC70118DB80E011C0862F972FF70113
S1131580E80FF91F1082BC016F5F7F4FC7010E94F3
S1131590ED1ACE0108DBC70106DB81E0DF91CF91B4
S11315A01F910F91FF90EF90DF90CF90BF90AF907D
S11315B09F908F90089531E1FC013083319722E2AE
S11315C020833197A3E3A08331976083319770839D
S11315D03197108231971082319760E86083319798
S11315E010823197108231971082319762E06083C4
S11315F0319763E06083319764E06083319765E0FD
S11316006083319766E06083319767E06083319748
S113161068E06083319769E06083319760E16083BB
S113162031973083319732E13083319733E130831E
S1131630319734E13083319735E13083319736E1A6
S11316403083319737E13083319738E130833197F4
S113165039E13083319730E23083319731E230839E
S113166031972083319723E2208331974083319748
S11316705083319726E22083319727E220833197E4
S113168028E22083319729E22083319720E32083C5
S1131690319721E32083899708950F920FB6F89428
S11316A00F920BB60F920CB60F921F9211242F9229
S11316B03F924F925F926F927F928F929F92AF92DE
S11316C0BF92CF92DF92EF92FF920F931F932F93CB
S11316D03F934F935F936F937F938F939F93AF93B6
S11316E0BF93CF93DF93EF93FF93A0914416B091F0
S11316F045160DB60D920EB60D920E942916A091B4
S11317004416B0914516CD91CDBFDD91DEBFFF915A
S1131710EF91DF91CF91BF91AF919F918F917F9185
S11317206F915F914F913F912F911F910F91FF9076
S1131730EF90DF90CF90BF90AF909F908F907F906D
S11317406F905F904F903F902F901F900F900CBE22
S11317500F900BBE0F900FBE0F9008950F920FB60F
S1131760F8940F920BB60F920CB60F921F9211249D
S11317702F923F924F925F926F927F928F929F929D
S1131780AF92BF92CF92DF92EF92FF920F931F938B
S11317902F933F934F935F936F937F938F939F9375
S11317A0AF93BF93CF93DF93EF93FF93A09144162E
S11317B0B09145160DB60D920EB60D9213BE8091E2
S11317C00A1790910B17019790930B1780930A17A0
S11317D0892B41F4809108179091091790930B1766
S11317E080930A170E94681581110E942916A091FE
S11317F04416B0914516CD91CDBFDD91DEBFFF916A
S1131800EF91DF91CF91BF91AF919F918F917F9194
S11318106F915F914F913F912F911F910F91FF9085
S1131820EF90DF90CF90BF90AF909F908F907F907C
S11318306F905F904F903F902F901F900F900CBE31
S11318400F900BBE0F900FBE0F90089587DF189571
S11318509F92AF92BF92CF92DF92EF92FF920F933B
S11318601F93CF93DF9300D01F921F92CDB7DEB7A3
S11318708FE190E08ED88C01009709F452C1FC01ED
S113188013821282118210821582148217821682A8
S1131890128E81E0838F148E8FEF858F868F78016F
S11318A0F8E0EF0EF11CC701D1DB680181E1C80E3D
S11318B0D11CC601CBDB1D821C82A12C99249394DC
S11318C0BB24BA940FB6F8940F92F801928D838DCD
S11318D09817F0F480819181892B09F019C18281D4
S11318E093810E940518F80113821282928D9F5FE2
S11318F0928F9189992339F0C6010E940C17813087
S113190021F4CBDE02C08111C8DE0F900FBE09C1E5
S11319108C819D81892B19F40F900FBE02C1A110F7
S113192005C0CE0101960E945417A92C0F900FBE3A
S11319308ED70FB6F8940F92F801858D8F3F09F476
S1131940158EF801868D8F3F09F4168E0F900FBE09
S1131950BE016C5F7F4FCE0101960E945F1781111B
S113196094C00FB6F8940F92F801928D838D0F9066
S11319700FBE981349C06C817D81C7010E94B116C6
S11319800FB6F8940F92F801868D1816ACF481897D
S1131990811105C011C0F8018189882369F0C6014D
S11319A00E940C1781110E949A17F801868D8150AC
S11319B0868F868D18167CF3F801B68E0F900FBEB5
S11319C00FB6F8940F92858D1816ACF480858111AA
S11319D005C011C0F8018085882369F0C7010E9401
S11319E00C1781110E949A17F801858D8150858FFB
S11319F0858D18167CF3F801B58E0F900FBE2DD788
S1131A00811160CF4ADE5ECF0FB6F8940F92F801D1
S1131A10868D1816ACF48189811105C011C0F801B6
S1131A208189882369F0C6010E940C1781110E94E4
S1131A309A17F801868D8150868F868D18167CF34F
S1131A40F801B68E0F900FBE0FB6F8940F92858DE5
S1131A501816ACF48085811105C011C0F801808589
S1131A60882369F0C7010E940C1781110E949A17FC
S1131A70F801858D8150858F858D18167CF3F801CA
S1131A80B58E0F900FBEE9D61DCF0FB6F8940F9206
S1131A90F801868D1816ACF48189811105C011C036
S1131AA0F8018189882369F0C6010E940C1781110D
S1131AB00E949A17F801868D8150868F868D18169C
S1131AC07CF38FEFF801868F0F900FBE0FB6F8945A
S1131AD00F92858D1816ACF48085811105C011C054
S1131AE0F8018085882369F0C7010E940C178111D1
S1131AF00E949A17F801858D8150858F858D18165F
S1131B007CF38FEFF801858F0F900FBEA6D609C026
S1131B10F801828D8F5F828F8189882309F4F5CE45
S1131B20EBCEC8010F900F900F900F900F90DF91A4
S1131B30CF911F910F91FF90EF90DF90CF90BF90C6
S1131B40AF909F9008959F92AF92BF92CF92DF92F1
S1131B50EF92FF920F931F93CF93DF9300D01F92C6
S1131B601F92CDB7DEB78C017D836C83A12C9924A1
S1131B709394BB24BA947C0188E0E80EF11C6801BC
S1131B80E1E1CE0ED11C0FB6F8940F92F801928DBC
S1131B90838D981700F580819181892B09F027C1E5
S1131BA0828193810E940518F80113821282928D1A
S1131BB09F5F928F9189992341F0C80141960E94B9
S1131BC00C17813021F469DD02C0811166DD0F90AC
S1131BD00FBE81E014C18C819D81892B21F40F906B
S1131BE00FBE80E00CC1A11005C0CE0101960E9479
S1131BF05417A92C0F900FBE2AD60FB6F8940F9243
S1131C00F801858D8F3F09F4158EF801868D8F3F7D
S1131C1009F4168E0F900FBEBE016C5F7F4FCE018C
S1131C2001960E945F17811194C00FB6F8940F9229
S1131C30F801928D838D0F900FBE981349C06C816B
S1131C407D81C7010E94B1160FB6F8940F92F80176
S1131C50868D1816ACF48189811105C011C0F80174
S1131C608189882369F0C6010E940C1781110E94A2
S1131C709A17F801868D8150868F868D18167CF30D
S1131C80F801B68E0F900FBE0FB6F8940F92858DA3
S1131C901816ACF48085811105C011C0F801808547
S1131CA0882369F0C7010E940C1781110E949A17BA
S1131CB0F801858D8150858F858D18167CF3F80188
S1131CC0B58E0F900FBEC9D581115DCFE6DC5BCF19
S1131CD00FB6F8940F92F801868D1816ACF481892A
S1131CE0811105C011C0F8018189882369F0C601FA
S1131CF00E940C1781110E949A17F801868D815059
S1131D00868F868D18167CF3F801B68E0F900FBE61
S1131D100FB6F8940F92858D1816ACF48085811156
S1131D2005C011C0F8018085882369F0C7010E94AD
S1131D300C1781110E949A17F801858D8150858FA7
S1131D40858D18167CF3F801B58E0F900FBE85D5DE
S1131D501ACF0FB6F8940F92F801868D1816D4F4A2
S1131D608189811106C016C0F8018189811105C0DD
S1131D7011C07801F1E1EF0EF11CC7010E940C17AC
S1131D8081110E949A17F801868D8150868F868D65
S1131D90181654F38FEFF801868F0F900FBE0FB60D
S1131DA0F8940F92858D1816D4F48085811106C09D
S1131DB016C0F8018085811105C011C07801F8E0D2
S1131DC0EF0EF11CC7010E940C1781110E949A1793
S1131DD0F801858D8150858F858D181654F38FEF0A
S1131DE0F801858F0F900FBE38D580E008C0F80148
S1131DF0828D8F5F828F81898111DFCEE8CE0F9033
S1131E000F900F900F900F90DF91CF911F910F9132
S1131E10FF90EF90DF90CF90BF90AF909F90089588
S1131E20CF93DF93FC01928D838D9817C8F4828D34
S1131E308F5F828F868D8F3F71F48189882391F023
S1131E40EB01CF014196E8D7882371F0209771F018
S1131E5081E088830CC0868D8F5F868F81E007C008
S1131E6080E005C081E003C081E001C081E0DF9132
S1131E70CF9108956F927F928F929F92AF92BF926B
S1131E80CF92DF92EF92FF920F931F93CF93DF9342
S1131E9000D01F921F92CDB7DEB78C015B015D832A
S1131EA04C83622E812C7724739499249A946C0128
S1131EB088E0C80ED11C7801E1E1EE0EF11C0FB6EA
S1131EC0F8940F92F801828D882309F443C0E680C8
S1131ED0F780448D4423A9F050E0C701840F951F77
S1131EE097838683228133818217930720F0808130
S1131EF0918197838683F80166817781C5010E9469
S1131F00ED1F611018C0F801828D8150828F80818D
S1131F109181892B29F40E944518F80193838283C7
S1131F20F8018085882391F0C801089675D781301F
S1131F3069F4B3DB0BC0F801F782E6828189882358
S1131F4029F0C801419668D78111A7DB0F900FBE15
S1131F5081E007C18C819D81892B21F40F900FBEF4
S1131F6080E0FFC0811004C0CE0101969DD7872C6C
S1131F700F900FBE6CD40FB6F8940F92F801858DB4
S1131F808F3F09F4158EF801868D8F3F09F4168E64
S1131F900F900FBEBE016C5F7F4FCE0101968FD7AD
S1131FA0811196C00FB6F8940F92F801828D0F90AC
S1131FB00FBE811150C080819181892B41F40FB6ED
S1131FC0F8940F9282819381BED70F900FBE6C81DB
S1131FD07D81C701C6D60FB6F8940F92F801868D9D
S1131FE018169CF48189811105C00FC0F8018189FC
S1131FF0882359F0C70110D781119CD7F801868D29
S11320008150868F868D18168CF3F801968E0F906A
S11320100FBE0FB6F8940F92858D18169CF4808528
S1132020811105C00FC0F8018085882359F0C601CD
S1132030F3D681117FD7F801858D8150858F858DE9
S113204018168CF3F801958E0F900FBE06D48111EB
S113205036CF23DB34CF0FB6F8940F92F801868D78
S113206018169CF48189811105C00FC0F80181897B
S1132070882359F0C701D0D681115CD7F801868D29
S11320808150868F868D18168CF3F801968E0F90EA
S11320900FBE0FB6F8940F92858D18169CF48085A8
S11320A0811105C00FC0F8018085882359F0C6014D
S11320B0B3D681113FD7F801858D8150858F858DE9
S11320C018168CF3F801958E0F900FBEC6D3F7CE79
S11320D00FB6F8940F92F801868D1816C4F481890E
S11320E0811106C014C0F8018189811105C00FC097
S11320F07801F1E1EF0EF11CC7018ED681111AD7D8
S1132100F801868D8150868F868D181664F38FEFC3
S1132110F801868F0F900FBE0FB6F8940F92858D3D
S11321201816C4F48085811106C014C0F801808596
S1132130811105C00FC07801F8E0EF0EF11CC70152
S11321406BD68111F7D6F801858D8150858F858DE9
S1132150181664F38FEFF801858F0F900FBE7DD3AF
S113216080E00F900F900F900F900F90DF91CF9120
S11321701F910F91FF90EF90DF90CF90BF90AF90A1
S11321809F908F907F906F900895AB01009711F40A
S113219010926C15BC0188ED96E10E94ED1F60E081
S11321A070E08091D4169091D516CDCC08958A35DF
S11321B008F08AE5E82FF0E0EE0FFF1FE050FE4F35
S11321C0808191819093AB008093AA000895A0EA46
S11321D0B0E09C9190629C93E1EAF0E09081986178
S11321E090839C9192609C939081926090832FE362
S11321F03CE93093A7002093A600E1E0F1E0908150
S113220090619083D4CF0895EF92FF920F931F9320
S1132210CF93DF93909172159F3F11F0981358C09C
S1132220FB018081811105C0109274151092731501
S11322300CC090917515891741F0E1E7F5E114821E
S1132240138212828FEF818343C080917315909122
S113225074159C0122503109240F351F2536310590
S113226040F0E1E7F5E11382128214828FEF81835B
S11322702FC08A01EB010F2EF1E7EF2EF5E1FF2EBF
S1132280F02DF70124812F5F2483425051096E5FA2
S11322907F4F8A589A4E0E94ED1FF7014281538165
S11322A042505109BA01600F711F73836283988190
S11322B0898198130DC0E0910C17F0910D1786E7F2
S11322C095E11995F7011482138212828FEF8183AD
S11322D0DF91CF911F910F91FF90EF90089590930C
S11322E00D1780930C1764E071E180E0F1D88FEF53
S11322F080937215089584B1876084B923988CB54E
S113230081608CBD8CB58C658CBD8CB58F7D8CBD8E
S113231008958EBD00000DB407FEFDCF8EB508955F
S11323204F925F926F927F928F929F92AF92BF92E1
S1132330CF92DF92EF92FF920F931F93CF93DF938D
S11323403C015B014A012901C114D10439F4CA01D9
S11323500E94C9046C01892B09F4E2C088E290E070
S11323600E94C904EC01892B71F0D88ECF8A81E0D8
S1132370881A9108C80CD91CD5018C91898F8C912D
S1132380811105C018C0C6010E94D305C9C0AE01A1
S1132390465E5F4FF5013196B8E0AB0EB11CCF013C
S11323A02191DA012D93AD01DC018C91882319F080
S11323B0AE16BF06A1F718A2102F063008F015E0DC
S11323C01E8B19A31AA25E01B2E0AB0EB11CC501AB
S11323D00E943408CE010C960E943408D987C8871D
S11323E086E090E0811B91099D878C87DB8BCA8BEB
S11323F01BA21CA21DA21EA21FA2A201B301C60100
S1132400DAD899838883E114F10419F0F701D183B0
S1132410C0830FB6F8940F928091E5158F5F809377
S1132420E5158091441690914516892BD9F5D093E2
S11324304516C09344168091E515813009F041C0DA
S11324400F2EFEE0EF2EF6E1FF2EF02D0F2EF4E41A
S1132450CF2EF6E1DF2EF02DC7010E942608F9E009
S1132460EF0EF11CEC14FD04B9F785E096E10E942F
S113247026088CEF95E10E9426088FEE95E10E94D4
S1132480260886EE95E10E94260885E096E1909361
S1132490FB158093FA158CEF95E19093F9158093D1
S11324A0F8150FC08091E11581110BC0E09144161D
S11324B0F09145168689081720F0D0934516C093ED
S11324C044168091DD158F5F8093DD158E89909180
S11324D0E215981710F48093E21590E09C01220F06
S11324E0331F220F331F220F331F820F931FB50197
S11324F0825F994E0E9438080F900FBE8091E115BB
S1132500882351F0E0914416F0914516868980178E
S113251028F4C3D881E005C081E003C081E001C094
S11325208FEFDF91CF911F910F91FF90EF90DF908C
S1132530CF90BF90AF909F908F907F906F905F905F
S11325404F9008959F92AF92BF92CF92DF92EF92F5
S1132550FF920F931F93CF93DF93009709F463C106
S11325602091DA152F5F2093DA15C091E315D091ED
S1132570E415C80FD91F8091441690914516029610
S11325800E948A08E0914416F0914516D383C283D1
S11325908091E3159091E415C817D90768F4609108
S11325A04416709145168091F8159091F9156E5F57
S11325B07F4F0E94590817C06091441670914516C8
S11325C08091FA159091FB156E5F7F4F0E94590818
S11325D08091DB159091DC15C817D90720F4D093AE
S11325E0DC15C093DB150FB6F8940F928091DA15C1
S11325F081508093DA158091DA1581110DC1809193
S1132600E515811133C00BC1D7011596ED91FC91ED
S11326101697C681D781CE010C960E948A088E0136
S11326200E5F1F4FC8010E948A088E899091E2159F
S1132630981710F48093E21590E09C01220F331F49
S1132640220F331F220F331F820F931FB801825FA3
S1132650994E0E943808E0914416F09145169E89DF
S11326608689981758F0D092DF1508C00F2EFFEE18
S1132670EF2EF5E1FF2EF02DDD24D394F7018081B8
S11326808111C2CF8091E015882309F4BDC08091E7
S1132690E015882309F4B8C0912CBB24B394CC244E
S11326A0CA94DC2C8091DA15811198C08091E315CD
S11326B09091E41501969093E4158093E315E090CE
S11326C0E315F090E415E114F10489F58091FA150D
S11326D09091FB152091F8153091F9153093FB1565
S11326E02093FA159093F9158093F8158091DE15CF
S11326F08F5F8093DE15E091FA15F091FB158081D0
S1132700811105C0D092DC15C092DB1510C0E09198
S1132710FA15F091FB150580F681E02D0680F7810E
S1132720E02D828193819093DC158093DB15809159
S1132730DB159091DC15E816F90608F477C0A92C8E
S1132740E091FA15F091FB158081811105C0D092BA
S1132750DC15C092DB1548C0E091FA15F091FB1529
S11327600580F681E02DC681D7818A819B81E81698
S1132770F90628F49093DC158093DB1535C08E019F
S11327800E5F1F4FC8010E948A088C899D89892B7E
S113279021F0CE010C960E948A088E899091E21550
S11327A0981710F48093E21590E09C01220F331FD8
S11327B0220F331F220F331F820F931FB801825F32
S11327C0994E0E943808E0914416F09145169E896E
S11327D08689981708F4B4CFAB2CB2CF8091E0155A
S11327E08F5F8093E01522C08091DF15811101C0B5
S11327F0A110B092DF158091E01581508093E0150F
S11328008091E01581114ECF8091DF15813031F434
S11328100E944D0B81E003C080E001C080E00F9076
S11328200FBE811108C00E944D0B05C08091DF15B9
S11328308111DFCFE0CFDF91CF911F910F91FF90F6
S1132840EF90DF90CF90BF90AF909F9008958091CC
S1132850DA158F5F8093DA1508959F92AF92BF9235
S1132860CF92DF92EF92FF920F931F93CF93DF9358
S11328700FB6F8940F928091DA1581508093DA158F
S11328808091DA1581110DC18091E515811133C054
S11328900BC1D7011596ED91FC911697C681D7818E
S11328A0CE010C960E948A088E010E5F1F4FC8014C
S11328B00E948A088E899091E215981710F48093EB
S11328C0E21590E09C01220F331F220F331F220FC9
S11328D0331F820F931FB801825F994E0E943808FC
S11328E0E0914416F09145169E898689981758F010
S11328F0D092DF1508C00F2EFFEEEF2EF5E1FF2E6C
S1132900F02DDD24D394F70180818111C2CF809111
S1132910E015882309F4BDC08091E015882309F4EB
S1132920B8C0912CBB24B394CC24CA94DC2C8091E1
S1132930DA15811198C08091E3159091E415019600
S11329409093E4158093E315E090E315F090E4157B
S1132950E114F10489F58091FA159091FB15209109
S1132960F8153091F9153093FB152093FA159093CF
S1132970F9158093F8158091DE158F5F8093DE152D
S1132980E091FA15F091FB158081811105C0D09278
S1132990DC15C092DB1510C0E091FA15F091FB151F
S11329A00580F681E02D0680F781E02D82819381F8
S11329B09093DC158093DB158091DB159091DC15E9
S11329C0E816F90608F473C0A92CE091FA15F09101
S11329D0FB158081811105C0D092DC15C092DB15F6
S11329E048C0E091FA15F091FB150580F681E02DC1
S11329F0C681D7818A819B81E816F90628F49093D1
S1132A00DC158093DB1535C08E010E5F1F4FC801A6
S1132A100E948A088C899D89892B21F0CE010C960D
S1132A200E948A088E899091E215981710F4809379
S1132A30E21590E09C01220F331F220F331F220F57
S1132A40331F820F931FB801825F994E0E9438088A
S1132A50E0914416F09145169E898689981708F4EA
S1132A60B4CFAB2CB2CF8091E0158F5F8093E0158B
S1132A701EC08091DF15811101C0A110B092DF1535
S1132A808091E01581508093E0158091E0158111CB
S1132A904ECF8091DF15813031F40E944D0B81E0DF
S1132AA003C080E001C080E00F900FBE05C080919C
S1132AB0DF158111E3CFE4CFDF91CF911F910F9107
S1132AC0FF90EF90DF90CF90BF90AF909F900895CC
S1132AD0CF92DF92EF92FF920F931F93CF93DF93E6
S1132AE08091DA1581119FC08091E3159091E415CE
S1132AF001969093E4158093E315E090E315F0902C
S1132B00E415E114F10499F58091FA159091FB15FF
S1132B102091F8153091F9153093FB152093FA158F
S1132B209093F9158093F8158091DE158F5F80934B
S1132B30DE15E091FA15F091FB158081811107C033
S1132B408FEF9FEF9093DC158093DB1510C0E0911D
S1132B50FA15F091FB150580F681E02D0680F781CA
S1132B60E02D828193819093DC158093DB15809115
S1132B70DB159091DC15E816F90610F4D12C59C038
S1132B80D12CCC24C394E091FA15F091FB158081EB
S1132B90811107C08FEF9FEF9093DC158093DB15B5
S1132BA048C0E091FA15F091FB150580F681E02DFF
S1132BB0C681D7818A819B81E816F90628F490930F
S1132BC0DC158093DB1535C08E010E5F1F4FC801E5
S1132BD00E948A088C899D89892B21F0CE010C964C
S1132BE00E948A088E899091E215981710F48093B8
S1132BF0E21590E09C01220F331F220F331F220F96
S1132C00331F820F931FB801825F994E0E943808C8
S1132C10E0914416F09145169E898689981708F428
S1132C20B2CFDC2CB0CF8091E0158F5F8093E0159C
S1132C30D12C8091DF15882311F0DD24D3948D2DC0
S1132C40DF91CF911F910F91FF90EF90DF90CF9084
S1132C5008958091DA15882321F081E08093DF15AF
S1132C6008951092DF15A0914416B0914516E09195
S1132C704416F09145162D913C918789908D8217C9
S1132C80930760F060914416709145168091441644
S1132C9090914516675E7F4F0E94B0088091E215BF
S1132CA090E0FC01EE0FFF1FEE0FFF1FEE0FFF1F62
S1132CB08E0F9F1FFC01E25FF94E8081811117C0C6
S1132CC08091E21581508093E2158091E21590E0A5
S1132CD0FC01EE0FFF1FEE0FFF1FEE0FFF1F8E0F05
S1132CE09F1FFC01E25FF94E8081882349F38091A4
S1132CF0E21590E09C01220F331F220F331F220F95
S1132D00331F280F391FD901A25FB94E1196ED91D7
S1132D10FC9112970280F381E02D1296FC93EE93BE
S1132D2011972F5E394EE217F30729F4228133817C
S1132D30FD0132832183FC01EE0FFF1FEE0FFF1F05
S1132D40EE0FFF1F8E0F9F1FFC01E25FF94E018003
S1132D50F281E02D868197819093451680934416E5
S1132D600895CF93DF93EB0160914416709145165B
S1132D70645F7F4F0E9459088091441690914516D4
S1132D8002960E948A08CF3F8FEFD80759F46091CA
S1132D904416709145166E5F7F4F86EE95E10E9452
S1132DA0380837C08091E3159091E415C80FD91FF6
S1132DB0E0914416F0914516D383C2838091E315C4
S1132DC09091E415C817D90768F46091441670917E
S1132DD045168091F8159091F9156E5F7F4F0E940A
S1132DE0590817C060914416709145168091FA15E0
S1132DF09091FB156E5F7F4F0E9459088091DB15FF
S1132E009091DC15C817D90720F4D093DC15C09332
S1132E10DB15DF91CF9108950F931F93CF93DF9329
S1132E20DC011596ED91FC911697C681D7818E0130
S1132E30045F1F4FC8010E948A088091DA1581112E
S1132E401CC00A501109C8010E948A088E899091F9
S1132E50E215981710F48093E21590E09C01220F7C
S1132E60331F220F331F220F331F820F931FB8010A
S1132E70825F994E0E94380805C0B8018FEE95E133
S1132E800E943808E0914416F09145169E8986897F
S1132E90891720F481E08093DF1501C080E0DF9181
S1132EA0CF911F910F9108952091DE15FC0120838D
S1132EB02091E3153091E415328321830895FC01B8
S1132EC00FB6F8940F922091E3153091E415DB01CD
S1132ED08D919C918F3FBFEF9B0721F14091DE15AF
S1132EE05081541729F04181528124173507E0F4A9
S1132EF041815281D901A41BB50BA817B907B0F4BD
S1132F00421B530B840F951FDB018D939C9380917F
S1132F10DE1580838091E3159091E415928381837B
S1132F2080E005C080E003C081E001C081E00F9033
S1132F300FBE089581E08093DF15089580914416B3
S1132F409091451608950F931F93CF93DF93FC013F
S1132F50892B09F455C02689A0914416B0914516D1
S1132F6056968C91281708F04BC084859585992333
S1132F7064F0A0914416B091451656963C9186E0B3
S1132F8090E0831B91099587848730E0C901880FFD
S1132F90991F880F991F880F991F280F391F225FC7
S1132FA0394E828593858217930719F58F01EF01B6
S1132FB02296CE010E948A08E0914416F0914516AB
S1132FC08689F801868B9091E215981710F4809306
S1132FD0E21590E09C01220F331F220F331F220FB2
S1132FE0331F820F931FBE01825F994E0E943808DF
S1132FF007C0A0914416B091451656968C91868BC5
S1133000DF91CF911F910F9108950F931F93CF9349
S1133010DF93FC01892B79F182A1815082A3268957
S113302091A1291751F181112AC0EF018F010E5F7F
S11330301F4FC8010E948A0889A18E8B26E030E0C8
S1133040281B31093D872C879091E215981710F4BD
S11330508093E21590E09C01220F331F220F331F4F
S1133060220F331F820F931FB801825F994E0E9473
S1133070380881E005C080E003C080E001C080E042
S1133080DF91CF911F910F910895809144169091F3
S11330904516892B39F0E0914416F091451682A12A
S11330A08F5F82A3809144169091451608954F92A4
S11330B05F926F927F928F929F92AF92BF92EF92A4
S11330C0FF920F931F9349015A010FB6F8940F9280
S11330D0E0914416F091451627A1223009F46FC0FF
S11330E0E0914416F091451643A054A065A076A043
S11330F0DC01CB0180959095A095B0958421952114
S1133100A621B72183A394A3A5A3B6A3E091441653
S1133110F091451681E087A3E114F10409F44FC04E
S1133120809144169091451602960E948A088FEF6A
S1133130E816F80659F460914416709145166E5FCE
S11331407F4F86EE95E10E94380837C08091E315E1
S11331509091E415E80EF91EE0914416F09145169D
S1133160F382E2828091E3159091E415E816F90662
S113317068F460914416709145168091F815909109
S1133180F9156E5F7F4F0E94590817C0609144166D
S1133190709145168091FA159091FB156E5F7F4FE3
S11331A00E9459088091DB159091DC15E816F90608
S11331B020F4F092DC15E092DB150E944D0B0F9089
S11331C00FBE0FB6F8940F920115110569F0E09146
S11331D04416F091451683A194A1A5A1B6A1F801C6
S11331E080839183A283B383E0914416F0914516C2
S11331F087A18130B1F0E0914416F091451683A186
S113320094A1A5A1B6A180949094A094B09488228E
S11332109922AA22BB2283A294A2A5A2B6A281E0EB
S113322001C080E0E0914416F091451617A20F907A
S11332300FBE1F910F91FF90EF90BF90AF909F90A2
S11332408F907F906F905F904F9008950F931F938E
S1133250CF93DF93FC010FB6F8940F92011511057B
S113326049F083A194A1A5A1B6A1E801888399831B
S1133270AA83BB8387A192E097A32230B1F018F40C
S1133280213031F02AC02330E9F0243001F125C087
S113329003A114A125A136A1402B512B622B732B22
S11332A043A354A365A376A318C043A154A165A165
S11332B076A14F5F5F4F6F4F7F4F43A354A365A326
S11332C076A30BC043A354A365A376A306C08230A0
S11332D079F143A354A365A376A3813059F5EF0193
S11332E08F010E5F1F4FC8010E948A088E8990913A
S11332F0E215981710F48093E21590E09C01220FD8
S1133300331F220F331F220F331F820F931FB80165
S1133310825F994E0E943808E0914416F091451658
S11333209E898689891740F40E944D0B81E005C06F
S113333080E003C081E001C081E00F900FBEDF9107
S1133340CF911F910F910895EF92FF920F931F93C6
S1133350CF93DF93FC010115110549F083A194A1DA
S1133360A5A1B6A1E80188839983AA83BB8387A119
S113337092E097A32230B1F018F4213031F02AC042
S11333802330E9F0243001F125C003A114A125A1C3
S113339036A1402B512B622B732B43A354A365A35B
S11333A076A318C043A154A165A176A14F5F5F4FD6
S11333B06F4F7F4F43A354A365A376A30BC043A3CE
S11333C054A365A376A306C08230F1F143A354A3AA
S11333D065A376A38130D1F5EF018091DA158111CF
S11333E01DC08F010E5F1F4FC8010E948A088E897D
S11333F09091E215981710F48093E21590E09C01E7
S1133400220F331F220F331F220F331F820F931FEC
S1133410B801825F994E0E94380807C0BF01645FFB
S11334207F4F8FEE95E10E943808E0914416F091A9
S113343045169E898689891758F4E114F10451F0E0
S113344081E0F701808307C080E005C081E003C00C
S113345081E001C081E0DF91CF911F910F91FF9036
S1133460EF900895CF93DF9300D01F92CDB7DEB7CE
S113347065DD9093AD168093AC1619821A821B8277
S11334801C82EE24EA94FE2C8E010F5F1F4F2FEF57
S11334903FEFA9016FEF7FEFCB0109DEE0910E173B
S11334A0F0910F17309769F369817A8180E197E190
S11334B01995E7CFCF93DF93CDB7DEB7C456D109C3
S11334C00FB6F894DEBF0FBECDBF00ED10E00F2E97
S11334D0F6EDEF2EF12CF02D20E04FEF5FEF60E0E2
S11334E070E08091D2169091D3160E943A0F24E690
S11334F030E040E0BE016F5F7F4F84E797E10E94B8
S113350004036C0160E070E08091D2169091D316B0
S11335100E94A30DC114D10479F0FE0131969F01DC
S11335202C0D3D1DD8018C9185FFFCCF8191D701D5
S11335308C932E173F07B1F78AE090E003D8CCCFE5
S1133540AF92BF92CF92DF92EF92FF920F931092BD
S1133550D50089E18093D40080EE8093D00088E97F
S11335608093D100E2EDF0E086E080838081808367
S113357084E690E00E94C90444E650E0BC0184E77C
S113358097E10E948E02A12CB12CC12CD12CE12CEC
S1133590F12C04E020E030E04CE251E066EB72E014
S11335A082E39AE10E94901120E030E04CE251E085
S11335B062EC72E08AE59AE10E94901181E00E9437
S11335C0280C9093D3168093D2160F91FF90EF900E
S11335D0DF90CF90BF90AF9008950F931F93CF9338
S11335E0DF93EC018B0120E04FEF5FEF60E070E0D0
S11335F08091D2169091D3160E943A0FA801BE0171
S113360084E797E10E94A00260E070E08091D21606
S11336109091D3160E94A30DDF91CF911F910F912A
S1133620089590930F1780930E1708951F920F9289
S11336300FB60F9211240BB60F92CF92DF92EF9236
S1133640FF920F931F932F933F934F935F936F9327
S11336507F938F939F93AF93BF93CF93DF93EF9316
S1133660FF938091AA169091AB16EC012196D0930A
S1133670AB16C093AA162091D600FC01EA5BF94E62
S1133680208321111CC0C090AC16D090AD16C1147B
S1133690D10481F0AE0166E476E180E197E19DD446
S11336A0AE0160E070E0E12CF12C00E010E024E0D9
S11336B0C6014ADE1092AB161092AA1607C0C53690
S11336C0D10520F01092AB161092AA16FF91EF913B
S11336D0DF91CF91BF91AF919F918F917F916F9126
S11336E05F914F913F912F911F910F91FF90EF9018
S11336F0DF90CF900F900BBE0F900FBE0F901F90D6
S113370018952F923F924F925F926F927F928F9271
S11337109F92AF92BF92CF92DF92EF92FF920F935C
S11337201F93CF93DF93CDB7DEB760970FB6F894AE
S1133730DEBF0FBECDBF7C011B016A01FC011782F5
S11337401682838181FF2AC39E012F5F3F4F390177
S1133750F7019381F10193FD859193FF81911F01FD
S1133760882309F417C3853239F493FD859193FFB7
S113377081911F01853231F4B70190E042D45601A2
S11337806501E6CF10E0512C912CFFE1F915D8F03A
S11337908B3279F038F4803279F08332A1F4F92D48
S11337A0F0612EC08D3261F0803369F4292D2160DF
S11337B02DC0392D3260932E892D8460982E2AC015
S11337C0E92DE86015C097FC2DC020ED280F2A30A4
S11337D088F496FE06C03AE0139F200D1124122FA0
S11337E019C08AE0589E200D1124522EE92DE06262
S11337F09E2E10C08E3231F496FCCCC2F92DF064AA
S11338009F2E08C08C3621F4292D2068922E02C0E8
S1133810883641F4F10193FD859193FF81911F0155
S11338208111B3CF9BEB980F933020F4992D9061C5
S1133830805E07C09BE9980F933008F059C1992D19
S11338409F7E96FF16E09F73992E853619F4906437
S1133850992E08C0863621F4392F3068932E02C081
S11338601111115097FE07C01C3350F444244394A3
S1133870410E27E00BC0183038F027E017E005C0F0
S113388027E09CE3492E02C0212F412C560184E0FD
S1133890A80EB11CF6016081718182819381042D8F
S11338A0A301B8D26C01F981FC87F0FF02C0F3FFD9
S11338B006C091FC06C092FE06C000E205C00DE2FF
S11338C003C00BE201C000E08C858C7019F001117B
S11338D043C280C297FE10C04C0CFC85F4FF04C0A8
S11338E08A81813309F44A94141474F528E0241568
S11338F078F588E0482E2CC096FC2AC0812F90E0F1
S11339008C159D059CF03CEFC3163FEFD30674F075
S1133910892D8068982E0AC0E2E0F0E0EC0FFD1FCC
S1133920E10FF11D8081803319F411501111F4CF8E
S113393097FE0EC044244394410E812F90E0C81694
S1133940D9062CF41C1904C04424439401C010E08B
S113395097FE06C01C141D0434F4C601019605C06C
S113396085E090E002C081E090E00111019611230E
S113397031F0212F30E02F5F3F4F820F931F252D11
S113398030E08217930714F4581A01C0512C892D82
S1133990897041F4552031F0B70180E290E031D3D1
S11339A05A94F8CF002321F0B701802F90E029D357
S11339B093FC08C0552031F0B70180E390E021D397
S11339C05A94F8CF97FE4AC04601D7FE02C0812C14
S11339D0912CC60188199909F301E80FF91FFE8794
S11339E0ED87960124193109388B2F87012F10E0B8
S11339F01195019511093FEF8316930621F4B70140
S1133A008EE290E0FED2C814D9044CF08F859889D8
S1133A108815990524F4ED85FE85818101C080E334
S1133A20F1E08F1A91082D853E852F5F3F4F3E8729
S1133A302D878016910624F0B70190E0E2D2DBCF07
S1133A40C814D90441F49A81963320F4953319F4B7
S1133A503C8534FF81E3B70190E048C08A8181331B
S1133A6019F09C859F7E9C87B70190E0CAD2111102
S1133A7005C094FC16C085E690E015C0B7018EE23F
S1133A8090E0BFD21E5F82E001E0080FF301E80F6F
S1133A90F11D8081B70190E0B4D2802F0113F4CFDF
S1133AA0E8CF85E490E0B701ACD2D7FC06C0C114DE
S1133AB0D10441F4EC85E4FF05C0D194C194D1084C
S1133AC08DE201C08BE2B70190E09BD280E32AE053
S1133AD0C216D1042CF08F5FFAE0CF1AD108F7CFC9
S1133AE0B70190E08ED2B701C601C0968AD249C10F
S1133AF0833631F0833779F0833509F052C01FC023
S1133B00560132E0A30EB11CF6018081898301E0E5
S1133B1010E0630111C05601F2E0AF0EB11CF601D2
S1133B20C080D18096FE03C0612F70E002C06FEFA9
S1133B307FEFC6015BD28C01F92DFF7713C05601CC
S1133B4022E0A20EB11CF601C080D18096FE03C013
S1133B50612F70E002C06FEF7FEFC60133D28C019A
S1133B60F92DF0689F2EF3FD18C0852D90E00817FD
S1133B70190798F4B70180E290E043D25A94F5CF44
S1133B80F60197FC859197FE81916F01B70190E052
S1133B9038D251105A94015011090115110581F7B9
S1133BA0F0C0843611F0893659F5560197FE09C0E4
S1133BB024E0A20EB11CF60160817181828193819F
S1133BC00AC0F2E0AF0EB11CF60160817181072ECC
S1133BD0000C880B990BF92DFF769F2E97FF09C0D7
S1133BE090958095709561957F4F8F4F9F4FF068AA
S1133BF09F2E2AE030E0A30140D2C82EC6183EC052
S1133C00092D853721F40F7E2AE030E01DC0097F9D
S1133C108F3691F018F4883559F0BCC0803719F00C
S1133C20883711F0B7C0006104FF09C0046007C001
S1133C3094FE08C0066006C028E030E005C020E11C
S1133C4030E002C020E132E0560107FF09C084E001
S1133C50A80EB11CF601608171818281938108C034
S1133C60F2E0AF0EB11CF6016081718180E090E05A
S1133C70A30103D2C82EC6180F77902E96FE0BC050
S1133C80092D0E7FC11650F494FE0AC092FC08C0A0
S1133C90092D0E7E05C0DC2C092D03C0DC2C01C0CF
S1133CA0D12E04FF0DC0FE01EC0DF11D8081803387
S1133CB011F4097E09C002FF06C0D394D39404C052
S1133CC0802F867809F0D39403FD10C000FF06C04E
S1133CD01C2DD51478F4150D1D190CC0D51450F4F1
S1133CE0B70180E290E08DD1D394F8CFD51410F4CD
S1133CF05D1801C0512C04FF0FC0B70180E390E0B0
S1133D0080D102FF16C001FD03C088E790E002C025
S1133D1088E590E0B7010CC0802F867851F001FF50
S1133D2002C08BE201C080E207FD8DE2B70190E0A2
S1133D3068D1C11630F4B70180E390E062D111502C
S1133D40F8CFCA94F301EC0DF11D8081B70190E026
S1133D5058D1C110F6CF15C0F4E0F51550F584E044
S1133D60581A93FE1EC0011125C02C8523FF27C0BD
S1133D7004EE10E0392D3071932EF80184918111F5
S1133D8021C0552009F4FCCCB70180E290E039D180
S1133D905A94F7CFF7018681978123C08FEF9FEF65
S1133DA020C0B70180E290E02CD15A945110F9CF91
S1133DB0DACF512CB701802F90E023D1D6CF08EE73
S1133DC010E0D8CF91108052B70190E01AD10F5F64
S1133DD01F4FD3CF23E0251510F483E0C1CF512C1E
S1133DE0C4CF60960FB6F894DEBF0FBECDBFDF918F
S1133DF0CF911F910F91FF90EF90DF90CF90BF90E4
S1133E00AF909F908F907F906F905F904F903F9076
S1133E102F900895283008F027E03327DA01990F0E
S1133E20311D87FD916000966105710539F432609A
S1133E302E5F3D9330E32A95E1F708959F3F30F0DC
S1133E4080387105610509F03C5F3C5F3D9391301A
S1133E5008F08068911DDF93CF931F930F93FF9217
S1133E60EF92192F987F9695E92F96959695E90FDD
S1133E70FF27EA5BFE4F99273327EE24FF24A7018F
S1133E80E70105900894079428F4360FE71EF81EFE
S1133E90491F511D660F771F881F991F0694A1F7AC
S1133EA00590079428F4E70EF81E491F561FC11DFC
S1133EB0770F881F991F661F0694A1F70590079432
S1133EC028F4F80E491F561FC71FD11D880F991FCC
S1133ED0661F771F0694A1F70590079420F4490FF5
S1133EE0561FC71FD81F990F661F771F881F069478
S1133EF0A9F784911095177041F0D695C7955795F9
S1133F004795F794E7941A95C1F7ECEEF0E06894BE
S1133F101590159135916591959105907FE2739572
S1133F20E118F10A430B560BC90BD009C0F7E10C99
S1133F30F11E431F561FC91FD01D7EF4703311F4A8
S1133F408A95E6CFE894015030F0080F0AF4002770
S1133F50021708F4202F2395022F7A3328F079E3EF
S1133F607D932A95E9F710C07D932A9589F60694E6
S1133F7097956795379517951794E118F10A430BB0
S1133F80560BC90BD00998F023957E9173957A331B
S1133F9008F070E37C932013B8F77E9170617D93F1
S1133FA030F0839571E37D9370E32A95E1F7112452
S1133FB0EF90FF900F911F91CF91DF91992787FD8B
S1133FC090950895FC010590615070400110D8F758
S1133FD0809590958E0F9F1F0895FB01DC0102C010
S1133FE001900D9241505040D8F70895FC01615062
S1133FF0704001900110D8F7809590958E0F9F1F07
S113400008950F931F93CF93DF93FB01238121FD29
S113401003C08FEF9FEF2CC022FF16C0468157814B
S1134020248135814217530744F4A081B1819D0155
S11340302F5F3F4F318320838C93268137812F5FFD
S11340403F4F3783268314C08B01EC01FB010084AE
S1134050F185E02D1995892BE1F6D80116968D91FD
S11340609C911797019617969C938E931697CE0161
S1134070DF91CF911F910F910895FA01AA2728305B
S113408051F1203181F1E8946F936E7F6E5F7F4F21
S11340908F4F9F4FAF4FB1E03ED0B4E03CD0670F9D
S11340A0781F891F9A1FA11D680F791F8A1F911DF0
S11340B0A11D6A0F711D811D911DA11D20D009F440
S11340C068943F912AE0269F11243019305D319382
S11340D0DEF6CF010895462F4770405D4193B3E06B
S11340E00FD0C9F7F6CF462F4F70405D4A3318F012
S11340F0495D31FD4052419302D0A9F7EACFB4E0C3
S1134100A6959795879577956795BA95C9F700977A
S11341106105710508959B01AC010A2E069457951B
S1134120479537952795BA95C9F7620F731F841F72
S10D4130951FA01D0895F894FFCF19
S113413A140528053C055005640578058C05A00579
S113414AB405C805DC05F005040618062C06400665
S113415A540668067C069006A406B806CC06E00651
S113416AF40608071C073007440758076C0780073A
S113417A9407A807BC07D007E407F8070C08200827
S113418A340848085C08700884089808AC08C00811
S113419AD408E808FC081009240938094C096009FC
S11341AA740988099C09B009C409D809EC09000AE8
S11341BA140A280A3C0A500A640A780A8C0AA00AD1
S11341CAB40AC80ADC0AF00A040B180B2C0B400BBD
S11341DA540B680B7C0B900BA40BB80BCC0BE00BA9
S11341EAF40B080C1C0C4672616D655265616465BA
S11341FA72005561727453656E645461736B000086
S9030000FC
