S00C0000546573742E7372656378
S113000020C100003FC100003DC100000C944B1909
S11300100C945C190C946D1935C1000033C10000B7
S113002031C100002FC100002DC100002BC1000010
S113003029C1000027C1000025C1000023C1000020
S113004021C100001FC100001DC100001BC1000030
S113005019C1000017C1000015C1000013C1000040
S113006011C100000FC100000DC100000BC1000050
S113007009C1000007C1000005C1000003C1000060
S11300800C94F61CFFC00000FDC00000FBC0000083
S1130090F9C00000F7C00000F5C00000F3C0000084
S11300A0F1C00000EFC00000EDC00000EBC0000094
S11300B0E9C00000E7C00000E5C00000E3C00000A4
S11300C0E1C00000DFC00000DDC000000C945C3320
S11300D0D9C00000D7C00000D5C00000D3C00000C4
S11300E0D1C00000084AD73B3BCE016E84BCBFFDA3
S11300F0C12F3D6C74319ABD56833DDA3D00C77FF4
S113010011BED9E4BB4C3E916BAAAABE000000808C
S11301103F05A84CCDB2D44EB93836A9020C50B91B
S1130120918688083CA6AAAA2ABE000000803F0047
S11301306E616E00696E660000407A10F35A00A08A
S1130140724E18090010A5D4E80000E8764817009C
S113015000E40B54020000CA9A3B000000E1F505DC
S1130160000080969800000040420F000000A08626
S113017001000000102700000000E8030000000058
S11301806400000000000A000000000001000000FC
S113019000002C76D888DC674F0823DFC1DFAE5916
S11301A0E1B1B796E5E3E453C63AE651997696E8A9
S11301B0E6C28426EB898C9B62ED407C6FFCEFBC2D
S11301C09C9F40F2BAA56FA5F490055A2AF75C9358
S11301D06B6CF9676DC11BFCE0E40D47FEF520E68E
S11301E0B500D0ED902E0300943577050080841E71
S11301F0080000204E0A000000C80C333333330FCC
S1130200986E12831141EF8D2114893BE65516CF68
S1130210FEE6DB18D1844B381BF77C1D901DA4BB74
S1130220E424203284725E228100C9F124ECA1E529
S11302303D27CFE5DAE188818230F0F30E941D1C6E
S1130240FACF11241FBECFEFD1E2DEBFCDBF00E055
S11302500CBF17E0A0E0B2E0EEE3F9E700E00BBF6B
S113026002C007900D92A830B107D9F72BE1A8E09E
S1130270B7E001C01D92AE3CB207E1F70E949E18A0
S11302800C949D3CBDCECF93DF936BE374E081E08F
S11302900E94E61A1092090710920807CAE0D7E0F4
S11302A08DE8FE0111928A95E9F781E00E944A1DCA
S11302B090939407809393071882DF91CF910895C8
S11302C080910A07811116C0EAE0F7E0168E158EB8
S11302D0168A158A14A213A212A211A2178E148EC2
S11302E0128E118E138E109296071092950791E03C
S11302F0908308958FEF0895CF92DF92EF92FF924B
S11303000F931F93CF93DF931F92CDB7DEB769018D
S1130310E82EF12C9DE8899F80011124065F184F77
S113032083E0F8018083508F478B60A382E0898348
S11303300E94292FF801E557FF4F918380830E9483
S1130340643221E030E0AE014F5F5F4F61E0F801BD
S113035080A10E94F11AB60181E00E94E22F672B6E
S1130360682B692B61F48DE88E9DF0018F9DF00D53
S11303701124E65FF84F81E0808380E02EC080E0A6
S113038091E065D6009731F14DE84E9D90014F9D67
S1130390300D112440E051E0BC01C901855F984F44
S11303A05BD384E190E053D60097B1F02DE82E9D05
S11303B080012F9D100D112444E150E0BC01C801BF
S11303C08B5E984F49D3F801E65FF84F82E0808353
S11303D081E003C08FEF01C08FEF0F90DF91CF91C9
S11303E01F910F91FF90EF90DF90CF900895CF93DE
S11303F0DF93811134C020E04FEF5FEF60E070E0E5
S113040080919307909194070E94382280910A0763
S1130410823051F060E070E08091930790919407EE
S11304200E949C2080E01CC0CAE0D7E089819A81A8
S113043018D78B859C8515D781E08883EF89F88D43
S113044060E070E080E090E0199560E070E08091F9
S11304509307909194070E949C2081E001C080E062
S1130460DF91CF910895EF92FF920F931F93CF9353
S1130470DF9300D01F92CDB7DEB75C834B8381112D
S11304807BC07B0120E04FEF5FEF60E070E0809184
S11304909307909194070E94382280910A07823032
S11304A051F4E114F10439F00B811C81C801019766
S11304B08436910550F060E070E08091930790914C
S11304C094070E949C2080E058C00E5F1F4F20912B
S11304D013073091140780E091E0821B930B0817F7
S11304E0190708F03FC020911D0730911E0784E1D1
S11304F090E0821B930B0297A8F18AE290E09A8322
S1130500898342E050E0BE016D5F7F4F8BE097E04E
S1130510B5D24B815C81B7018BE097E0AFD2011576
S11305201105B1F0902F812F0B32110510F09AE2D2
S113053080E099838A8342E050E0BE016F5F7F4F81
S113054085E197E09BD289819A81081B190B51F7A9
S113055060E070E080919307909194070E949C2042
S11305608B810BC060E070E08091930790919407B9
S11305700E949C2080E001C080E00F900F900F90BB
S11305800F90DF91CF911F910F91FF90EF900895FD
S1130590CF93DF931F921F92CDB7DEB7811114C0A2
S11305A080910A07823091F4662394F081E0898374
S11305B06A8322E030E0AE014F5F5F4F61E08091DB
S11305C02A070E94F11A05C080E003C080E001C040
S11305D080E00F900F90DF91CF910895AF92BF927A
S11305E0CF92DF92EF92FF920F931F93CF93DF93FB
S11305F0CDB7DEB7AE970FB6F894DEBF0FBECDBF52
S11306008111DBC080910A07882309F4D6C020E059
S11306104FEF5FEF60E070E0809193079091940753
S11306200E94382280910A07823049F060E070E02D
S113063080919307909194070E949C20BEC0809162
S11306402907882309F462C0EAE0F7E0858D968DD6
S11306500A96968F858F248D265F248F893E93403A
S113066058F060E070E080919307909194070E94A5
S11306709C2080E0BCDEA1C0293C08F447C0EAE02D
S1130680F7E0078110851EA61DA6A18C838DA81AEC
S11306908A2D8F77A82EC1F1C12CD12CB12C7F01CA
S11306A01982F701838D8B0D8F778A834189528953
S11306B04C0D5D1D22E030E0BE01635D7F4F85E19E
S11306C097E08BD22DA53EA5A801BE016D5F7F4F9B
S11306D08BE097E082D22DA53EA5020F131FF701F0
S11306E0838194810197082319232E5F3F4FAE0124
S11306F04F5F5F4F61E080A10E94F11AB394F2E072
S1130700CF0ED11CAB10CCCF10922607EAE0F7E055
S1130710818D482F50E0938D491B51094F77552700
S1130720443051050CF041C06581768125893689B4
S113073062177307D1F119828A838F01440F551F01
S113074081899289480F591F22E030E0BE01635D20
S11307507F4F85E197E041D22DA53EA5F80145895B
S11307605689BE016D5F7F4F8BE097E036D22DA591
S11307703EA5F80185899689A901480F591F8381EF
S11307809481019784239523968B858B81E0878FB1
S1130790818D8F5F8F77818F2E5F3F4FAE014F5FCB
S11307A05F4F61E080A10E94F11A60E070E08091E7
S11307B09307909194070E949C20AE960FB6F894EC
S11307C0DEBF0FBECDBFDF91CF911F910F91FF9080
S11307D0EF90DF90CF90BF90AF9008950F931F9349
S11307E0CF93DF93EA01811141C080912D0790914D
S11307F02E07892B99F4DB0111968C91119790E0C7
S1130800982F88272C91822B90932E0780932D0765
S11308108536910558F522976E5F7F4F0AE017E001
S1130820F80181A192A1AE01815D984F0E94C03B65
S1130830D80191966D917C9192976C0F7D1F929641
S11308407C936E93919793968D919C91949768174E
S1130850790761F45796ED91FC9158978FE297E0F0
S11308601995F80114A213A212A211A2DF91CF913B
S11308701F910F9108959F92AF92BF92CF92DF92F2
S1130880EF92FF920F931F93CF93DF931F92CDB7F5
S1130890DEB78B015A0190912A079813B8C0909142
S11308A00A07992309F4B3C0FB01D0800F2EFAE0A4
S11308B0EF2EF7E0FF2EF02D13C0E0910807F09122
S11308C00907309759F0482F50E060E070E000E0ED
S11308D010E023E0CF010E945831AAC0E12CF12C92
S11308E020E04FEF5FEF60E070E0F701E757FF4F64
S11308F0808191810E943822F7018081823030F01A
S1130900A114B10419F00115110551F4F701E757C9
S1130910FF4F60E070E0808191810E949C2088C03C
S1130920833021F5F3E0DF1221C0F701E557FF4FD3
S113093080819181009781F000E010E022E040E0A6
S113094050E0BA010E945831F701E557FF4F118278
S1130950108260E080E01CDEF701E757FF4F60E0A3
S113096070E0808191810E949C2062C0F801C18066
S1130970DD2009F452C0F4E0DF1213C053C0A50116
S113098042505109B8016E5F7F4F80E027DFF701C5
S1130990828D8F5F8F77828FF701628D80E0F8DD23
S11309A02CC0F1E0DF1229C0F701838DFC2DF81B68
S11309B08F2F8F77982E09F1D12C57018BE0A80E39
S11309C0B11C87010F5F1F4F42E050E0BE016F5F13
S11309D07F4FC50150D1498150E060E070E0C8010B
S11309E04AD1D3949D10F0CFF701C38E148E168E86
S11309F0158E818DC81201C0178EF701E757FF4F7E
S1130A0060E070E0808191810E949C2011C0F80117
S1130A10D080F2E0DF120CC050CFF701828DC812F3
S1130A20BBCFADCFF701828DC81609F4B0CFB4CFD8
S1130A300F90DF91CF911F910F91FF90EF90DF9076
S1130A40CF90BF90AF909F90089580E0C7DD8AE07B
S1130A5090E00E943629F9CFFC016115710561F01F
S1130A6071836083538342831186108617821682B2
S1130A701582148281E0089580E00895EF92FF9238
S1130A800F931F93CF93DF93EC012A813B818885D9
S1130A909985F901E81BF90BE417F50708F449C037
S1130AA08A017B018C819D81A901481B590B041784
S1130AB01507A8F428813981A801820F931F0E9489
S1130AC0C03B8C819D81800F911F9D838C832A81E3
S1130AD03B818217930721F51D821C8221C0288146
S1130AE03981820F931F0E94C03B8C819D816A8152
S1130AF07B81AC01461B570B400F511F681B790BC0
S1130B006E0D7F1D888199810E94C03B8C819D81DF
S1130B102A813B81821B930B800F911F9D838C83C1
S1130B2048855985040F151F1987088781E090E0CF
S1130B3002C080E090E0DF91CF911F910F91FF9070
S1130B40EF9008950F931F93CF93DF93FC0121152A
S1130B503105C9F1A681B78184819581A817B907A8
S1130B60A9F1C62FD72F80E090E007C0A681B781F6
S1130B7064817581A617B70759F160817181A60F49
S1130B80B71F5C918E015883668177816F5F7F4FB9
S1130B9077836683A085B1851197B187A087A281E9
S1130BA0B3816A177B0711F4178216822196D80144
S1130BB05C91541302C001960BC0019628173907A3
S1130BC0A9F6C90105C080E090E002C080E090E091
S1130BD0DF91CF911F910F910895CF92DF92EF9201
S1130BE0FF920F931F93CF93DF937C016B01EA0174
S1130BF08901672BA9F1FC0142815381C417D507F0
S1130C0010F0C41BD50B4C1B5D0B4017510760F053
S1130C10F701608171816C0F7D1FA801C6010E94DC
S1130C20C03B802F912F1EC0F701608171816C0F32
S1130C307D1FC6010E94C03BF70122813381C90197
S1130C408C1B9D0BA801421B530B4C0F5D1F608135
S1130C5071818C0D9D1D0E94C03B802F912F02C07D
S1130C6080E090E0DF91CF911F910F91FF90EF9082
S1130C70DF90CF900895EF92FF920F931F93CF933D
S1130C80DF93EC017B01088519854017510708F4AF
S1130C908A018E819F814A815B81481B590B4017D1
S1130CA05107C8F0E114F10441F068817981680FBB
S1130CB0791FA801C7010E94C03B8E819F81800FCC
S1130CC0911F9F838E832A813B818217930741F56D
S1130CD01F821E8225C0E114F104C1F0688179816C
S1130CE0680F791FC7010E94C03B4E815F812A8132
S1130CF03B81C901841B950B421B530B400F511FB1
S1130D00688179818E0D9F1D0E94C03B8E819F81D9
S1130D102A813B81821B930B800F911F9F838E83BB
S1130D2088859985801B910B99878887C801DF91F5
S1130D30CF911F910F91FF90EF900895EF92FF9242
S1130D400F931F93CF93DF937C01680F791FFC01EE
S1130D503196009719F04115510521F460E070E0D7
S1130D6081E04BC02115310559F1E617F70760F50D
S1130D708A01020F131FDA01EC0191E02FEF04C086
S1130D80FA01E617F70720F53D9131110AC098835F
S1130D90CF010196A017B107E8F4EF01FC0191E03F
S1130DA0F0CFAF014F5F5F4F30839F5FA017B10754
S1130DB0B0F49F3F29F728833296EA0191E0E1CF0E
S1130DC0EC0180E091E00DC0EC0182E091E009C00B
S1130DD082E007C0EF01FC0180E091E002C0FA016B
S1130DE080E0C617D70718F49883BF0101C082E0DA
S1130DF09B012E193F09622F732FDF91CF911F9111
S1130E000F91FF90EF900895AF92BF92CF92DF922F
S1130E10EF92FF920F931F93CF93DF937C01DA013C
S1130E20009711F0109721F460E070E081E05FC05A
S1130E302115310509F44BC06A01C20ED31E5C01B1
S1130E40A60EB71E8C0150E001C08F01ED01219662
S1130E507C91711103C05460F8013DC07150C6010A
S1130E608C1B9D0B272F30E08217930710F4782FEB
S1130E705860C501801B910B272F30E08217930720
S1130E8010F4782F5260772361F1DE01F801972F77
S1130E903D91311101C0546031939150C9F7EFEF86
S1130EA0E70FF0E03196DE01AE0FBF1FE00FF11F38
S1130EB0AC15BD0580F47E3F41F2EA15FB0510F048
S1130EC0526009C08F010F5F1F4F1082BFCFFC011A
S1130ED050E001C0F801EE19FF096E2F7F2F852F16
S1130EE006C0CC15DD05B0F7F801DE01E6CFDF91D1
S1130EF0CF911F910F91FF90EF90DF90CF90BF9013
S1130F00AF900895862798E02CE880FF03C086956B
S1130F10822701C086959150C1F708950F931F93BE
S1130F20CF93DF93662359F08C01EC01060F111D5A
S1130F3080E06991E7DF0C171D07D9F701C080E055
S1130F40DF91CF911F910F91089580B380BBECE79F
S1130F50F0E08081806C8083EAE7F0E08081806843
S1130F6080838081846080830895ECE7F0E080834F
S1130F709081906C9083EAE7F0E090819064908394
S1130F80908196FDFDCF2091780090917900E82F13
S1130F90F0E02695269530E4939FC0011124822B1E
S1130FA0FE2FEE27E050FE4FE80FF11D80810895DB
S1130FB0CF92DF92EF92FF92CF93DF93EC01C88040
S1130FC0D980EA80FB802BED3FE049E450E4C7017F
S1130FD0B6010E943F3618166CF42BED3FE049EC45
S1130FE050E4C701B6010E94C833688379838A83B9
S1130FF09B8316C02BED3FE049E450ECC701B601DA
S11310000E948F34882364F42BED3FE049EC50E4D4
S1131010C701B6010E94C933688379838A839B839D
S113102088819981AA81BB81BC01CD019F772BED79
S11310303FE049E450E40E943F3618160CF4BFCF59
S1131040DF91CF91FF90EF90DF90CF900895EF92D2
S1131050FF920F931F93CF93DF93EC010E94A82B71
S113106080919D0790919E07892B41F5EFE9F7E068
S1131070A3EAB7E0B183A08313821282EFE9F9E116
S1131080F0939E07E0939D071382128211821082CF
S11310908CEF91E113969C938E931297ED93FC93AE
S11310A090939A078093990790939C0780939B074A
S11310B080E090E890939807809397078091970732
S11310C0909198078C239D23892B09F0B2C0209717
S11310D009F4B2C0AE014C5F5F4F09F4B0C0809117
S11310E09B0790919C078417950708F4ABC0E09187
S11310F09F07F091A007AFE9B7E002C0DF01F90153
S1131100228133812417350728F420813181211568
S11311103105A1F760919D0770919E07E617F707C7
S113112009F493C0CD91DC9111977E0184E0E80E1F
S1131130F11C808191818D939C9382819381841B86
S1131140950B8930910508F452C09F01240F351F77
S1131150D90113969C938E93129753834283AFE9DC
S1131160B7E001C0DC018D919C9111978217930720
S1131170C8F312964D915C9113978D01040F151FBE
S11311802017310751F4E9012A813B81420F531F93
S113119013965C934E9312979D01E9014A815B81FA
S11311A08901040F151F80179107C9F4601771078F
S11311B091F0E8018A819B81480F591FE9015B8303
S11311C04A838D919C911197EC0188819981E90161
S11311D09983888307C0E9017983688303C0E9019F
S11311E099838883A217B30711F02D933C9322812E
S11311F0338180919B0790919C07821B930B909362
S11312009C0780939B074091990750919A078417F4
S1131210950720F490939A078093990780919707F4
S113122090919807282B392B3383228311821082C3
S11312300EC0E12CF12C0BC0E12CF12C08C0E12CE8
S1131240F12C05C0E12CF12C02C0E12CF12C0E9400
S1131250AE2BC701DF91CF911F910F91FF90EF90BB
S11312600895CF93DF93009709F468C0FC01349785
S1131270228133814091970750919807B9016423E3
S11312807523672B09F45AC060817181672B09F0BB
S113129055C0EF0140955095242335233383228391
S11312A00E94A82B4A815B8180919B0790919C07A7
S11312B0840F951F90939C0780939B07EFE9F7E0B9
S11312C001C0FC01808191818C179D07D0F322819C
S11312D03381BF01620F731FC617D70729F4240F88
S11312E0351F33832283EF012A813B81DE01A20F64
S11312F0B31F8A179B07C9F480919D0790919E079D
S1131300A817B90779F012968D919C911397280F1D
S1131310391F3B832A83A081B1818D919C9199834C
S1131320888305C0B983A88302C099838883EC1796
S1131330FD0711F0D183C0830E94AE2BDF91CF91C2
S1131340089580919B0790919C070895EF92FF92D6
S11313500F931F93CF93DF93EC01E42E2898862FED
S113136080680E947026EE20B1F00FEF0E0D10E0A1
S11313700F5F1F4F0C0F1D1FF12C80E00E94702681
S11313808F3F09F4F39489930C171D07B1F7FE10EE
S113139004C085E003C085E001C080E0289ADF91A5
S11313A0CF911F910F91FF90EF900895CF93DF930A
S11313B0EC012898862F80680E94702680E00E94A5
S11313C07026289A8F3F11F495E001C090E088833D
S11313D0892FDF91CF910895CF93DF931F921F92AE
S11313E0CDB7DEB7EFEFFAE181E0808324EF31E09F
S11313F03283218322E836E03483238320E931E0F9
S113140036832583178210868187828720E130E026
S1131410348723872DE030E03687258722E330E0C8
S1131420308B2787118A128A838B848B88EB9BE00D
S1131430968B858B8AE090E0908F878B118E10922B
S11314401A1B1092191B10921C1B10921B1B0E943A
S11314506226209A289A198220E137E289818F5FD7
S1131460898321503109D1F76FE0CE0102969EDFC6
S11314708A818936C9F780E00F900F90DF91CF9170
S113148008950F931F93CF93DF931F921F92CDB7AD
S1131490DEB78C0142E0CE01019658DF2A8130E0AC
S11314A0322F22279981292BF801318320830F9031
S11314B00F90DF91CF911F910F910895CF93C62F75
S11314C028980E9470268C2F0E947026289A80E00B
S11314D0CF9108951F93CF93DF931F921F92CDB79F
S11314E0DEB7198279DF182F19828091081B8130A9
S11314F009F083C080910E1B90910F1B84369105D7
S113150041F0883C910541F0C29741F483E089831E
S113151005C082E0898302C081E0898380910A1B2F
S113152090910B1B8430910531F08830910539F08E
S1131530029749F40BC089818860898307C0898137
S11315408C60898303C089818460898380910C1BAA
S113155090910D1B803A21E09207C1F170F48A3119
S1131560910521F118F40D97E9F028C08433910511
S113157009F1803D910531F121C082302DE09207BF
S113158089F140F4813423E0920721F18C379640AD
S113159029F114C084302AE1920741F18231944345
S11315A049F10CC089818061898327C08981806267
S11315B0898323C08981806389831FC08981806472
S11315C089831BC089818065898317C0898180666E
S11315D0898313C08981806789830FC0898180686A
S11315E089830BC089818069898307C08981806A66
S11315F0898303C08981806B8983698180E15EDF8F
S113160063E1CE010196D2DE89818F77898390913F
S1131610091B913011F480688983698183E14EDF6D
S113162019828091FF1A813009F05BC08091001B00
S11316309091011B853F9105C1F020F48D379105F0
S113164049F011C0843F21E0920739F0883E93406D
S113165039F009C082E0898308C084E0898305C029
S113166088E0898302C08CE089838091021B909179
S1131670031B803D910531F148F48A319105B1F0A5
S113168084339105B9F00D97C9F40CC0813423E07B
S1131690920701F18C3726E0920701F1803A9140DC
S11316A069F414C08981806189831BC08981806247
S11316B0898317C089818063898313C08981806489
S11316C089830FC08981806589830BC08981806685
S11316D0898307C089818067898303C08981806881
S11316E08983698181E1EADE6FE0CE0102965EDEE4
S11316F0812F0F900F90DF91CF911F910895CF9379
S1131700DF931F921F92CDB7DEB766E2CE0101963A
S1131710B8DE8823A9F0853051F48091191B90918B
S11317201A1B019690931A1B8093191B09C0809170
S11317301B1B90911C1B019690931C1B80931B1BDD
S113174089819A810F900F90DF91CF910895CF9264
S1131750DF92EF92FF92CF93FC014091001B5091D6
S1131760011B453F5105B1F09A01A5E2B6E00E9484
S1131770BA3A481B590B56954795840F951F002478
S1131780880F991F001C880F991F001C892F902D0A
S1131790C82F01C0C2E0BF01FF0F880B990B0E9444
S11317A0313520E030E04CE850E40E944A366B01C9
S11317B07C016C2F70E080E090E00E9431359B0149
S11317C0AC01C701B6010E944A3620E030E04AE786
S11317D054E40E949634CF91FF90EF90DF90CF9025
S11317E008958DDFB4CF0895EAE0F1E08081876049
S11317F0808308958230910531F4EBE0F1E080813B
S11318008460808308958130910531F4EBE0F1E048
S11318108081826080830895892B29F4EBE0F1E0D4
S113182080818160808308958230910531F4EBE0FA
S1131830F1E080818B7F808308958130910531F4BC
S1131840EBE0F1E080818D7F80830895892B29F47A
S1131850EBE0F1E080818E7F80830895FC010396A4
S1131860928381832FEF3FEF348323839683858391
S11318709087878310820895FC011186108608954D
S1131880CF93DF939C01FB01DC011196CD91DC9198
S11318901297D383C2838C819D81958384838C81A9
S11318A09D81DC0113967C936E9312977D836C83E8
S11318B031872087F90180818F5F8083DF91CF9109
S11318C00895CF93DF93EB01488159814F3F2FEF68
S11318D0520721F4FC01A781B0850DC0DC011396E9
S11318E001C0DF011296ED91FC91139720813181A3
S11318F042175307B0F71296ED91FC911397FB83AF
S1131900EA83D583C483BD83AC831396DC93CE93DF
S1131910129799878887FC0120812F5F2083DF91AC
S1131920CF910895CF93DF93FC01A085B185C28147
S1131930D381848195819D838C83C481D581828167
S113194093819B838A8311968D919C911297E817BA
S1131950F90731F48481958112969C938E931197A3
S1131960118610868C9181508C93DF91CF910895CC
S1131970CF93DF93CDB7DEB728970FB6F894DEBFC9
S11319800FBECDBF19821A821B821C821D821E8249
S11319901F8218860E94EA23A12CB12CC12CD12CC1
S11319A0E12CF12C03E020E030E04CE251E06BE06C
S11319B076E085E295E00E9477260E94F323182FB3
S11319C088EE93E00E9436291123B9F30E94FF2385
S11319D00F2EF9E2EF2EFBE1FF2EF02D01E020E0C7
S11319E04FEF5FEF60E070E08091251B9091261B24
S11319F00E943822813009F076C00E94A82B0FB6CD
S1131A00F8940F92F7011081A180B280C380D48032
S1131A100F900FBE0E94AE2B153009F455C028F468
S1131A201230A9F01430A1F15EC0173009F454C08B
S1131A3018F0183049F057C00FB6F8940F9200937D
S1131A40B8190F900FBE4FC00E9407254CC0B501B6
S1131A50BB0C880B990B0E94313569837A838B8385
S1131A609C83B601DD0C880B990B0E9431356D8384
S1131A707E838F83988720E044E650E0BE016F5F49
S1131A807F4F8091BF199091C0190E94CC1E2BC02A
S1131A900FB6F8940F920093B7190F900FBE1982E6
S1131AA01A821B821C821D821E821F82188620E0DD
S1131AB044E650E0BE016F5F7F4F8091BF19909163
S1131AC0C0190E94CC1E0FC00FB6F8940F9210924A
S1131AD0B7190F900FBE07C00FB6F8940F9210926B
S1131AE0B8190F900FBE81E090E09EDE78CFCF93BF
S1131AF0DF93CDB7DEB763970FB6F894DEBF0FBEA2
S1131B00CDBF198210E021E0288BF12C68942224A7
S1131B1022F86894332432F80EC00F2EF3E02F2EEF
S1131B20F02D09C00F2EF3E02F2EF02D04C00F2E40
S1131B30F3E02F2EF02D8091B819813009F018C1EF
S1131B408091B719811114C10E94E92C9B838A8367
S1131B5020E046E950E0BE016F5F7F4F8091BD19E0
S1131B609091BE190E9438228130C9F4898188235A
S1131B7019F0833098F408C03889F39EF02C1124AE
S1131B8011E081E0888B0BC09DECF99EF12C1124AF
S1131B90F694F69410E025E0288B01C010E0388913
S1131BA0F39E802D11240E942B2568EC70E0CE0159
S1131BB002960E94932780E0D8D9D82E81E0D5D907
S1131BC0E82E83E0D2D9C82E82E0CFD9898B20E0D9
S1131BD048E250E060E070E08091271B9091281B60
S1131BE00E9438224090B3195090B4196090B519EE
S1131BF07090B619A090B119B090B2198091AF1934
S1131C009091B0199D878C8760E070E08091271BCC
S1131C109091281B0E949C201B3038F089818111EF
S1131C2004C00E94A62411E006C0112321F089817A
S1131C30811101C01F5F3889232F30E03B8B2A8B31
S1131C40F29E4001F39E900C11248C859D856AE0E0
S1131C5070E00E94A73A7D876C87C5016AE070E056
S1131C600E94A73A7F876E8720E030E044E353E484
S1131C70C301B2010E944A362BED3FE049E450E42F
S1131C800E9496340E94FE34A9880D2D9401AB0164
S1131C906C857D858E859F850E9464248FE18816DE
S1131CA091042CF09CE3891691044CF1D9888FEFB0
S1131CB08D0D883120F52E853F85B901330F880BB2
S1131CC0990B0E9431356C837D838E839F832C8591
S1131CD03D85B901330F880B990B0E943135688714
S1131CE079878A879B8720E044E650E0BE016C5FD9
S1131CF07F4F8091BF199091C0190E94CC1E3BE583
S1131D0083169104ACF484E0281212C089818330D4
S1131D1008F044C0F3942A893B89F29E4001F39E63
S1131D20900C11243AE5831691040CF0F6CE17C0FA
S1131D301814190444F583E028122AC089818330D9
S1131D4008F0F9CEFA942A893B89F29E4001F39E69
S1131D50900C112404C034E0231609F4E3CE1814C3
S1131D6019040CF4E8CE83E02812E5CE232CE3CE4C
S1131D7080E00E942B2584E690E00E94362910E042
S1131D80F12C232CD8CE9AE58916910464F30AC069
S1131D902AE5821691040CF4CECEDDCF1814190472
S1131DA0BCF3F1CF34E0231609F4C1CEDCCFCF93DA
S1131DB0DF93CDB7DEB7C756D1090FB6F894DEBFAF
S1131DC00FBECDBF19821A821B821C821D821E8205
S1131DD01F82188619861A861B861C861D861F86F6
S1131DE01E86198A188A1B8A1A8A1D8A1C8A1E8AC8
S1131DF01F8A188E198E1A8E1B8E6D961FAE6D97C4
S1131E001FAE24E121962FAF21976C961FAE6C97DD
S1131E10A8961FAEA89745E0A7964FAFA7978AE06C
S1131E206B968FAF6B971EA61DA61CA6A5961CAE1F
S1131E301DAE1EAE1FAEA597A1961CAE1DAE1EAE66
S1131E401FAEA1972F961FAE2F9791E026969FAFB6
S1131E5026972E961CAE1DAE1EAE1FAE2E9725964F
S1131E601CAE1DAE1EAE1FAE259718A219A21AA253
S1131E701BA21BAA1CAA1DAA1EAA1FA618AA19AA3D
S1131E801AAA27961FAE279728961FAE2897299639
S1131E901FAE29972A961FAE2A971CA21DA2A8EC52
S1131EA0AEA3B2E4BFA318A619A626E92AA743E461
S1131EB04BA784E6A6968FAFA6978091B81988237E
S1131EC009F43FC7F8944091B9191092B9191091C7
S1131ED0BA191092BA197894BE016E5E7F4F8E893A
S1131EE00E94641A412FBE016C5E7F4F8F890E944D
S1131EF0791A20E041E050E060E070E08091211B1D
S1131F009091221B0E9438228A899B899093A4195C
S1131F108093A3198C899D899093A6198093A51900
S1131F2060E070E08091211B9091221B0E949C2014
S1131F3020E04FEF5FEF60E070E080911F1B909115
S1131F40201B0E943822813009F0B7CF20E04FEFE8
S1131F505FEF60E070E08091271B9091281B0E9446
S1131F6038228090B3199090B419A090B519B0900C
S1131F70B6190091B1191091B219E090AF19F0900F
S1131F80B0198091AB199091AC19A091AD19B09191
S1131F90AE198FAB98AFA9AFBAAF8091A719909142
S1131FA0A819A091A919B091AA198BAF9CAFADAF94
S1131FB0BEAF60E070E08091271B9091281B0E94C7
S1131FC09C2020E040E050E0BE016F5F7F4F809195
S1131FD0BF199091C0190E943822813009F047C07E
S1131FE020E030E040E251E469817A818B819C8178
S1131FF00E944A366FA778AB89AB9AAB20E030E0F9
S113200040E251E46D817E818F8198850E944A3639
S11320106BAB7CAB8DAB9EABB801012E000C880B77
S1132020990B0E943135A1966CAF7DAF8EAF9FAFF7
S1132030A197B7010F2C000C880B990B0E94313526
S1132040A5966CAF7DAF8EAF9FAFA597A501940108
S113205068A179A18AA19BA10E94C833688F798F56
S11320608A8F9B8F91E09FAF1EA61DA61CA6B80168
S1132070110F880B990B0E9431359B01AC016FA5A0
S113208078A989A99AA90E94C8332B013C01B701F8
S1132090FF0C880B990B0E9431359B01AC016BA995
S11320A07CA98DA99EA90E94C8336B017C01A30160
S11320B09201C301B2010E944A3668A379A38AA39C
S11320C09BA3A7019601C701B6010E944A366C8FF3
S11320D07D8F8E8F9F8F2C8D3D8D4E8D5F8D68A152
S11320E079A18AA19BA10E94C9330E94B736262EEA
S11320F0372E082F192FA3019201C701B6010E94A0
S11321003C3468A379A38AA39BA38A859B85AC8569
S1132110BD858C8F9D8FAE8FBF8FA501940168A163
S113212079A18AA19BA10E94C8332B013C016A8733
S11321307B878C879D87CE010A960E94D807CA8424
S1132140DB84EC84FD8446015701E894B7F829E167
S113215034E046E05FE3C501B4010E943F3618163F
S11321607CF022E73AE84EE85CE3C501B4010E9442
S11321708F34882344F491E026969FAF269703C0BA
S113218026961FAE2697A70196016C8D7D8D8E8DA8
S11321909F8D0E94C8336B017C012BED3FE049EC1D
S11321A05FE30E943F36181654F02BED3FE049ECF4
S11321B05FEBC701B6010E948F3488234CF4488E2C
S11321C0598E6A8E7B8EB22CA32C902E812E36C013
S11321D0A1962CAD3DAD4EAD5FADA1976FA578A98D
S11321E089A99AA90E94C8334B015C01A5962CAD1C
S11321F03DAD4EAD5FADA5976BA97CA98DA99EA9F8
S11322000E94C8336B017C01A5019401C501B4018E
S11322100E944A364B015C01A7019601C701B60131
S11322200E944A369B01AC01C501B4010E94C93326
S11322300E94B736B62EA72E982E892ECE01489628
S11322400E94D807C88CD98CEA8CFB8CE894F7F8E8
S1132250C88ED98EEA8EFB8E20E030E0A9016B2D6A
S11322607A2D892D982D0E943F3618160CF086C0C1
S11322702CA13DA14EA15FA168A579A58AA59BA526
S11322800E94C9339B01AC016B2D7A2D892D982DA9
S11322900E948F3488230CF098C020E030E040E89E
S11322A05EE36B2D7A2D892D982D0E944A36762E69
S11322B0672E582E492E20E030E040E450E46B2D88
S11322C07A2D892D982D0E944A3620E030E040E88E
S11322D05EE30E944A3667966FAF679768967FAF52
S11322E0689769968FAF69976A969FAF6A972CA192
S11322F03DA14EA15FA1672D762D852D942D0E94C1
S113230096346C8F60967FAF609761968FAF6197BC
S113231062969FAF629728A539A54AA55BA56796E3
S11323206FAD679768967FAD689769968FAD69972B
S11323306A969FAD6A970E94963463966FAF6397CF
S113234064967FAF649765968FAF659766969FAFE7
S113235066977CA26DA25EA24FA26796AFAD679707
S1132360A8A76896BFAD6897B9A769962FAD699776
S11323702AA76A964FAD6A974BA74DC063961FAEC6
S1132380639764961FAE649780E865968FAF6597F0
S11323909FE366969FAF66971C8E60961FAE60970C
S11323A0A0E86196AFAF6197BFE36296BFAF629753
S11323B01CA21DA228EC2EA342E44FA318A619A622
S11323C086E98AA793E49BA726C063961FAE63970A
S11323D064961FAE6497A0E86596AFAF6597BFE3B8
S11323E06696BFAF66971C8E60961FAE609720E816
S11323F061962FAF61974FE362964FAF62971CA22D
S11324001DA288EC8EA392E49FA318A619A6A6E9A0
S1132410AAA7B3E4BBA720E030E040E751E4622D73
S1132420732D802F912F0E943F3618160CF062C432
S113243026962FAD2697222309F442C2222D332D4E
S1132440402F512F6B2D7A2D892D982D0E94C83342
S11324504B015C0120E030E0A9010E943F36882353
S11324600CF49AC0A50194016CA17DA18EA19FA139
S11324700E943F3688230CF48FC0A8964FADA897CE
S1132480411124C020E030E040E751E4C501B4012B
S11324900E948F34882344F46B968FAD6B978F5FC3
S11324A06B968FAF6B972BC06B969FAD6B97965FB8
S11324B0A6969FAFA6976B96AFAD6B972196AFAFDD
S11324C02197B1E0A896BFAFA89719C020E030E0EB
S11324D0A9016FA978AD89AD9AAD0E948F34882384
S11324E059F020E030E0A9016BAD7CAD8DAD9EAD1F
S11324F00E948F34811103C02CA52E5F2CA74CA5FC
S1132500642F70E06B968FAD6B97680F711D072E6B
S1132510000C880B990B0E9431352B013C019B0167
S1132520AC0160E070E088EC92E40E94C83320E0E3
S113253030E048EC52E40E9496346B017C01A6968C
S1132540AFADA6976A2F70E080E090E00E9431352D
S11325502C8D60963FAD609761964FAD6197629602
S11325605FAD62970E944A369B01AC01C701B60178
S11325700E944A36A50194010E944A362CA13DA12D
S11325804EA15FA10E949634A30192010E94C93317
S11325900E940335F62EB4C0222D332D402F512F27
S11325A068A579A58AA59BA50E943F3618160CF04C
S11325B0A4C020E030E048E452E4622D732D802F63
S11325C0912F0E943F3618160CF520E030E0A90147
S11325D06FA978AD89AD9AAD0E948F34882371F0CC
S11325E020E030E0A9016BAD7CAD8DAD9EAD0E94C5
S11325F08F34811105C0B2E0BCA702C022E02CA731
S1132600FCA46B964FAD6B97F40E7AC0222D332D3C
S1132610402F512F27966FAD279728967FAD289787
S113262029968FAD29972A969FAD2A970E948F34B9
S113263081110CC06B968FAD6B97A7969FADA79732
S1132640891B8CA79B5FA7969FAFA797ACA56A2F02
S113265070E0A796BFADA7976B0F711D072E000CF6
S1132660880B990B0E9431354B015C019B01AC0135
S113267060E070E088EC92E40E94C83320E030E02F
S113268048EC52E40E9496346B017C01A6962FAD6F
S1132690A697622F70E080E090E00E943135639647
S11326A02FAD639764963FAD649765964FAD65977C
S11326B066965FAD66970E944A369B01AC01C701DE
S11326C0B6010E944A366B017C0128A539A54AA5AA
S11326D05BA5622D732D802F912F0E9496349B0150
S11326E0AC01C701B6010E944A36A50194010E94BB
S11326F0C9330E940335F62E03C0A696FFACA697F5
S11327008A849B84AC84BD8420E030E0A901C501A7
S1132710B4010E943F3688230CF453C06F2C712CF3
S1132720B301072C000C880B990B0E9431356B0107
S11327307C01C501B4019F7720E030E046E154E418
S11327400E944A369B01AC01C701B6010E94C833FE
S11327506B017C0120E030E040E251E425966CAD51
S11327607DAD8EAD9FAD25970E944A369B01AC018D
S1132770C701B6010E94C8330E94FE347F876E876A
S11327808E859F85681679061CF47F866E8606C042
S11327908E859F85992314F41F861E86798A688AFC
S11327A020E030E0A9016FA978AD89AD9AAD0E940F
S11327B08F34811158C04FE0640E711C798A688A85
S11327C052C06F2C712CB301072C000C880B990B91
S11327D00E9431356B017C01C501B4019F7720E073
S11327E030E046E154E40E944A369B01AC01C70143
S11327F0B6010E94C8336B017C0120E030E040E266
S113280051E42E966CAD7DAD8EAD9FAD2E970E949A
S11328104A369B01AC01C701B6010E94C8330E942D
S1132820FE34798B688B88899989681679061CF43B
S1132830798A688A06C088899989992314F4198A3F
S1132840188A7F866E8620E030E0A9016BAD7CADEE
S11328508DAD9EAD0E948F34811105C08FE0680E4E
S1132860711C7F866E86CA84DB84EC84FD84A70198
S1132870960125966CAD7DAD8EAD9FAD25970E94DA
S1132880C93325966CAF7DAF8EAF9FAF2597A70157
S113289096012E966CAD7DAD8EAD9FAD2E970E94A8
S11328A0C8332E966CAF7DAF8EAF9FAF2E9786E068
S11328B08F8B94E09E8BA1E0A9871EA61DA60BC258
S11328C04A845B846C847D8420E030E0A901C301E8
S11328D0B2010E943F36882334F08985833041F465
S11328E01EA61DA605C08985843011F41EA61DA64A
S11328F053014201E894B7F8A5019401C701B60158
S11329000E94C8336C8F7D8F8E8F9F8F6C96BFAD66
S11329106C97B11119C029E134E046E85EE30E94E6
S11329208F3418162CF46D962FAD6D97222341F039
S113293021964FAD21974F5F21964FAF219704C049
S113294081E06C968FAF6C979FAD91110CC020E025
S113295030E0A9016FA978AD89AD9AAD0E948F349A
S11329608823A9F0F1C120E030E0A9016BAD7CAD72
S11329708DAD9EAD0E948F34811131C06C96AFAD88
S11329806C97A111F0C16D961FAE6D972BC0BDA5BC
S1132990BF5FBDA720E030E0A9016BAD7CAD8DAD7C
S11329A09EAD0E948F34811103C02EA52F5F2EA7E8
S11329B04DA54B3018F48EA58B30A0F021969FAD19
S11329C02197965F21969FAF2197A1E06D96AFAFB7
S11329D06D976C961FAE6C971EA61DA603C06D96D0
S11329E01FAE6D97BFADB13049F421962FAD21973D
S11329F0253620F046E421964FAF219720E030E0C1
S1132A0040E85EE3C701B6010E944A369B01AC016F
S1132A106C8D7D8D8E8D9F8D0E948F3488230CF05C
S1132A20B9C06C968FAD6C97811159C020E030E02D
S1132A30A901C301B2010E943F36882344F12196C3
S1132A40AFAD21978A2F90E09C01BDA52B0F311DBE
S1132A503195219531093F872E8725E02E8B4EA590
S1132A60840F911D998B888B86E08F8B84E08987F6
S1132A701FAE1CA62E961CAE1DAE1EAE1FAE2E970C
S1132A8025961CAE1DAE1EAE1FAE259724C1219601
S1132A90AFAD21978A2F90E09C01BDA52B0F311D6E
S1132AA03F872E8724E02E8B4EA5840F911D919590
S1132AB081959109998B888B85E08F8B83E0898739
S1132AC01FAE1CA62E961CAE1DAE1EAE1FAE2E97BC
S1132AD025961CAE1DAE1EAE1FAE2597FCC020E091
S1132AE030E0A901C301B2010E943F3688234CF1B2
S1132AF02196AFAD21978A2F90E00A979C01BDA53E
S1132B002B0F311D3195219531093F872E8725E003
S1132B102E8B4EA5840F911D998B888B86E08F8B0D
S1132B2084E089871FAE1CA62E961CAE1DAE1EAE79
S1132B301FAE2E9725961CAE1DAE1EAE1FAE25975A
S1132B40CAC02196AFAD21978A2F90E00A979C01C5
S1132B50BDA52B0F311D3F872E8724E02E8B4EA55C
S1132B60840F911D919581959109998B888B85E0AE
S1132B708F8B83E089871FAE1CA62E961CAE1DAEDC
S1132B801EAE1FAE2E9725961CAE1DAE1EAE1FAEFA
S1132B902597A1C020E030E0A901C301B2010E9441
S1132BA03F3688230CF44CC021969FAD2197E92E23
S1132BB0F12CAEE1EA1AF10824EE37EB4BE451E4D0
S1132BC0C501B4010E944A364B015C01B701BDA5A1
S1132BD06B0F711D072E000C880B990B0E94313569
S1132BE0A50194010E94C93390580E94FE347F8746
S1132BF06E8725E02E8BB7014EA5640F711D072E3D
S1132C00000C880B990B0E943135A50194010E9498
S1132C10C9330E94FE34798B688B86E08F8B84E005
S1132C2089871FAE1CA62E961CAE1DAE1EAE1FAE0F
S1132C302E9725961CAE1DAE1EAE1FAE25974BC01B
S1132C4021969FAD2197E92EF12CAEE1EA1AF10805
S1132C5024EE37EB4BE451E4C501B4010E944A363B
S1132C604B015C01B701BDA56B0F711D072E000C54
S1132C70880B990B0E943135A50194010E94C93338
S1132C800E94FE347F876E8724E02E8BB7014EA509
S1132C90640F711D072E000C880B990B0E943135AF
S1132CA0A50194010E94C93390580E94FE34798B87
S1132CB0688B85E08F8B83E089871FAE1CA62E96D8
S1132CC01CAE1DAE1EAE1FAE2E9725961CAE1DAEBD
S1132CD01EAE1FAE2597688979898E859F859E01D2
S1132CE0295E3F4FAE014A5E5F4FC7D32F961FAE9A
S1132CF02F970EC02F969FAD2F97911106C00E945B
S1132D00A624A1E02F96AFAF2F97A6D3A9D31986F7
S1132D1020E040E050E0BE01675F7F4F8091BD1925
S1132D209091BE190E94CC1E27962FAE2797289605
S1132D303FAE289729960FAF29972A961FAF2A9757
S1132D40BCC88AD38DD3B9C820E030E0A9016BADEB
S1132D507CAD8DAD9EAD0E948F34882381F06D963D
S1132D601FAE6D974BCE20E030E0A9016FA978AD7E
S1132D7089AD9AAD0E948F34811117CE08CE6C961E
S1132D80BFAD6C97B11111CE6D961FAE6D972ACE63
S1132D90CF93DF93CDB7DEB7AE970FB6F894DEBF0F
S1132DA00FBECDBF19821A821B821C821D821E8215
S1132DB01F82188619861A861B861C860E94E92C97
S1132DC09E878D871F86188A198A1A8A1F8A188EE9
S1132DD0198E1A8E1B8A1C8A1D8A1E8AE12CF12CDC
S1132DE0C12CD12C68E270E0CE010D960E9493278D
S1132DF08091B819882309F479C120E04FE050E0AC
S1132E0060E070E08091211B9091221B0E94382287
S1132E102090A3193090A4190091A5191091A61916
S1132E2060E070E08091211B9091221B0E949C2005
S1132E30B1016C197D09072E000C880B990B0E94B7
S1132E40313528EF33E543EA5FE30E944A362B012C
S1132E503C01B8016E197F09072E000C880B990BF1
S1132E600E94313528EF33E543EA5FE30E944A3696
S1132E704B015C019B01AC01C301B2010E94C93347
S1132E8020E030E040E05FE30E944A366B8F7C8FA5
S1132E908D8F9E8FA3019201C501B4010E94C83396
S1132EA020E030E047E153E40E9496346F8F78A32A
S1132EB089A39AA30E94F10B2F85388949895A89DD
S1132EC00E94C8336BA37CA38DA39EA324ED32E0A0
S1132ED047E35AE30E944A366B017C0120E030E06C
S1132EE040E050E06F8D78A189A19AA10E944A36F2
S1132EF09B01AC01C701B6010E94C9336FA378A737
S1132F0089A79AA7C980DA80EB80FC8020E030E0B2
S1132F1040E05FE30E944A36A70196010E94C9334C
S1132F206BA77CA78DA79EA70E9493349B01AC013D
S1132F306B8D7C8D8D8D9E8D0E944A369B01AC01DC
S1132F406B897C898D899E890E94C9336B8B7C8BAC
S1132F508D8B9E8B6BA57CA58DA59EA50E94AD3601
S1132F609B01AC016B8D7C8D8D8D9E8D0E944A36AC
S1132F709B01AC016F89788D898D9A8D0E94C9332C
S1132F806F8B788F898F9A8FA70196016FA178A58F
S1132F9089A59AA50E94C93369837A838B839C830C
S1132FA02F8D38A149A15AA16D817E818F81988589
S1132FB00E94C9336D837E838F8398872AE037ED1F
S1132FC043E25DE36BA17CA18DA19EA10E944A36E0
S1132FD02BED3FE049E450E40E944A3620E030E023
S1132FE044E353E40E9496349B01AC0169857A85DD
S1132FF08B859C850E94C93369877A878B879C87D8
S1133000CE0101960E94D807CE0105960E94D807EA
S1133010CE0109960E94D80720EE3EE245E652E42E
S11330206D817E818F8198850E944A366D837E836F
S11330308F83988720EE3EE245E652E469857A85DF
S11330408B859C850E944A3669877A878B879C8703
S113305020E04FE050E060E070E08091271B909109
S1133060281B0E94382289819A81AB81BC8180937C
S1133070B3199093B419A093B519B093B6196B8989
S11330807C898D899E890E94FE347093B219609365
S1133090B1196F89788D898D9A8D0E94FE34709351
S11330A0B0196093AF194092AB195092AC19609269
S11330B0AD197092AE198092A7199092A819A09296
S11330C0A919B092AA1960E070E08091271B909131
S11330D0281B0E949C2060E070E080911F1B90914F
S11330E0201B0E949C20780161017CCE0DE211E03E
S11330F0812C912CA12CB12C0E94F10B9B01AC01D1
S1133100682D792D8A2D9B2D0E94C933862E972EEA
S1133110A82EB92E0150110979F720E030E846E9CC
S113312053E40E9496346F87788B898B9A8B81E065
S113313090E00E94FA0B56CEF894FFCFCF93DF9322
S11331401F921F92CDB7DEB785B78F7785BF0E94D8
S1133150F40B80E090E00E94FA0B0E94E63231D238
S11331600E94430188ED93E20E94D62580E00E94EC
S11331704E250E94A507EDD00E946A0A0E94A1096B
S11331809A83898340E068E081E032D49093C01947
S11331908093BF1940E061E081E02AD49093BE1986
S11331A08093BD1940E061E082E022D49093BC1981
S11331B08093BB1981E06ED49093281B8093271BC6
S11331C081E068D49093241B8093231B81E062D414
S11331D09093221B8093211B43E060E081E008D49C
S11331E09093201B80931F1B43E060E081E000D498
S11331F09093261B8093251BA12CB12CC12CD12C80
S1133200E12CF12C03E020E030E04CE251E06FE0EF
S113321076E088EB9CE00E94772602E020E030E034
S113322040E951E064E176E087ED9EE00E94772674
S113323004E020E030E04EE551E06CE176E088EC1B
S113324096E10E94772601E020E030E04CE251E074
S113325064E276E087E79DE00E9477260E94A10958
S11332609A838983789480E090E00E94140C0E94F1
S1133270BB2A80E090E00E94FA0B82E090E00E947A
S1133280FA0B0AE216E0F8941F930F930E94CA24E3
S11332900F900F90F8CF1F920F920FB60F92112438
S11332A08F938091B9198F5F8093B9198F910F9083
S11332B00FBE0F901F9018951F920F920FB60F928A
S11332C011248F938091BA198F5F8093BA198F91CB
S11332D00F900FBE0F901F9018951F920F920FB66C
S11332E00F9211240BB60F922F933F934F935F933A
S11332F06F937F938F939F93AF93BF93EF93FF93BA
S1133300649B0CC01092B8191092B71960E070E079
S11333108091251B9091261B0E940D2260E070E095
S113332080911F1B9091201B0E940D22FF91EF9111
S1133330BF91AF919F918F917F916F915F914F91C9
S11333403F912F910F900BBE0F900FBE0F901F90C7
S11333501895E1E0F1E0808180638083269A84B14E
S1133360806684B9279A2F982E9885B18F7985B96C
S1133370E2E0F1E080818F7C80838AB18AB98BB1ED
S11333808C608BB96C988DB38DBBE9E6F0E08081DD
S1133390806F8083EAE6F0E08081816080838CE145
S11333A08CBB8DB38C618DBB84B5806884BDE0E833
S11333B0F0E080818062808384B5836084BD85B5BC
S11333C085BD808181608083A1E8B0E08C918860B4
S11333D08C9385B5856085BD8C9185608C93808147
S11333E08083E0EBF0E08081808380818083E0EA69
S11333F0F0E080818083089587BD2C9A2D9884E025
S1133400FB018083089590E090938B0080938A0061
S1133410E2E0F1E080818064808380818F7D80831D
S113342086E0FB018083089587BD2C982D9A85E062
S1133430FB018083089590E090938B0080938A0031
S1133440E2E0F1E080818F7B8083808180628083F1
S113345085E0FB018083089517BC2C982D9808956E
S113346010928B0010928A00E2E0F1E080818F7B61
S1133470808380818F7D808308950F931F93CF93E2
S1133480DF93EB018901181619061CF4BA01B4DFA5
S113349007C0992324F4BA018195C6DF01C0DCDF9B
S11334A01C161D0624F4B8018C2FADDF08C0DD23E3
S11334B02CF4B8018C2F8195BEDF01C0D1DFDF91E0
S11334C0CF911F910F910895843019F0853049F000
S11334D00895FB0180819181840F911D91838083E4
S11334E00895FB0180819181841B910991838083DC
S11334F00895853051F0863079F4FB018081918103
S1133500840F911D918380830895FB0180819181B3
S1133510841B9109918380830895EF92FF920F9306
S11335201F93CF93DF937C01C62FD0E0CE010E947E
S113353027088C019E0121503109A701BE010E9478
S11335400407882321F0C8010E94310933C0862F63
S1133550972FEC01F801E80FF91F3197F0806FEF16
S1133560680FC8010E948E07F81621F0C8010E9456
S1133570310920C0D8018C91853021F0C8010E9406
S1133580310918C0AE0144505109B8016D5F7F4F35
S1133590D8011296EC911297F0E0EE0FFF1FED5B4D
S11335A0F44E0190F081E02D11968C911995C8018B
S11335B00E943109DF91CF911F910F91FF90EF90FD
S11335C008958DE89AE10C9457330895823040F4BD
S11335D0E82FF0E0EE0FFF1FED5BF44E7183608384
S11335E008958F929F92AF92BF92CF92DF92EF9203
S11335F0FF920F931F93CF93DF93882E962E5A0139
S11336008901690184E0C80ED11CC6010E94270803
S1133610EC01C80106960E9427087C01209711F04E
S1133620892B41F4CE010E943109C7010E9431095E
S113363080E03CC0888285E089839A82A801B50134
S1133640CE0103960E94C03B5801E3E0AE0EB11CCC
S1133650AC0EBD1E63E0600FCE010E948E07F50123
S11336608083B8016B5F7F4F9601AE01C7010E9452
S11336709E06882341F0CE010E943109C7010E94B1
S1133680310980E013C0862F972FF701E80FF91F47
S11336901082BC016F5F7F4FC7010E943333CE019C
S11336A00E943109C7010E94310981E0DF91CF9165
S11336B01F910F91FF90EF90DF90CF90BF90AF904C
S11336C09F908F90089531E1FC013083319722E27D
S11336D020833197A3E3A08331976083319770836C
S11336E03197108231971082319760E86083319767
S11336F010823197108231971082319762E0608393
S1133700319763E06083319764E06083319765E0CB
S11337106083319766E06083319767E06083319717
S113372068E06083319769E06083319760E160838A
S113373031973083319732E13083319733E13083ED
S1133740319734E13083319735E13083319736E175
S11337503083319737E13083319738E130833197C3
S113376039E13083319730E23083319731E230836D
S113377031972083319723E2208331974083319717
S11337805083319726E22083319727E220833197B3
S113379028E22083319729E22083319720E3208394
S11337A0319721E320838997089588EE93E09093DD
S11337B0581B8093571B90935A1B8093591B10924C
S11337C0990089EF809398008BE080939100E1E762
S11337D0F0E0808182608083A091951AB091961A5E
S11337E0CD91CDBFDD91DEBFFF91EF91DF91CF9100
S11337F0BF91AF919F918F917F916F915F914F9105
S11338003F912F911F910F91FF90EF90DF90CF90F8
S1133810BF90AF909F908F907F906F905F904F90EC
S11338203F902F901F900F900CBE0F900BBE0F90E7
S11338300FBE0F90089581E008950F920FB6F8948B
S11338400F920BB60F920CB60F921F9211242F9267
S11338503F924F925F926F927F928F929F92AF921C
S1133860BF92CF92DF92EF92FF920F931F932F9309
S11338703F934F935F936F937F938F939F93AF93F4
S1133880BF93CF93DF93EF93FF93A091951AB091D9
S1133890961A0DB60D920EB60D920E94B42DA091FB
S11338A0951AB091961ACD91CDBFDD91DEBFFF91EF
S11338B0EF91DF91CF91BF91AF919F918F917F91C4
S11338C06F915F914F913F912F911F910F91FF90B5
S11338D0EF90DF90CF90BF90AF909F908F907F90AC
S11338E06F905F904F903F902F901F900F900CBE61
S11338F00F900BBE0F900FBE0F9008950F920FB64E
S1133900F8940F920BB60F920CB60F921F921124DB
S11339102F923F924F925F926F927F928F929F92DB
S1133920AF92BF92CF92DF92EF92FF920F931F93C9
S11339302F933F934F935F936F937F938F939F93B3
S1133940AF93BF93CF93DF93EF93FF93A091951A17
S1133950B091961A0DB60D920EB60D9213BE8091CB
S1133960591B90915A1B019790935A1B8093591B92
S1133970892B41F48091571B9091581B90935A1BAB
S11339808093591B0E94F32C81110E94B42DA091A5
S1133990951AB091961ACD91CDBFDD91DEBFFF91FE
S11339A0EF91DF91CF91BF91AF919F918F917F91D3
S11339B06F915F914F913F912F911F910F91FF90C4
S11339C0EF90DF90CF90BF90AF909F908F907F90BB
S11339D06F905F904F903F902F901F900F900CBE70
S11339E00F900BBE0F900FBE0F90089587DF1895B0
S11339F00F931F93CF93DF93082F162F662309F499
S1133A003BC0869FC001112480960E942708EC01C8
S1133A10009721F439C0D983C88303C04F96998392
S1133A2088830B8F1C8F0FB6F8940F9248815981AD
S1133A302C8D30E06B8D629FC001639F900D11242B
S1133A40BA01680F791F7B836A831A8E5D834C8366
S1133A50821B930B840F951F9F838E838FEF8D8F13
S1133A608E8FCE0108960E942E0CCE0141960E94A4
S1133A702E0C0F900FBE08C08FE190E00E94270823
S1133A80EC01892B09F0C7CFCE01DF91CF911F91B3
S1133A900F9108959F92AF92BF92CF92DF92EF92CF
S1133AA0FF920F931F93CF93DF9300D01F921F9227
S1133AB0CDB7DEB78FE190E00E9427088C01009714
S1133AC009F458C1FC0113821282118210821582FA
S1133AD0148217821682128E81E0838F148E8FEFE8
S1133AE0858F868F7801F8E0EF0EF11CC7010E94E4
S1133AF02E0C680181E1C80ED11CC6010E942E0C57
S1133B001D821C82A12C99249394BB24BA940FB6D1
S1133B10F8940F92F801928D838D9817F0F48081B8
S1133B209181892B09F01DC1828193810E94902F7C
S1133B30F80113821282928D9F5F928F918999234B
S1133B4039F0C6010E94972E813021F476DE02C03E
S1133B50811173DE0F900FBE0DC18C819D81892B65
S1133B6019F40F900FBE06C1A11005C0CE01019635
S1133B700E94DF2EA92C0F900FBE0E94A82B0FB617
S1133B80F8940F92F801858D8F3F09F4158EF80192
S1133B90868D8F3F09F4168E0F900FBEBE016C5FA9
S1133BA07F4FCE0101960E94EA2E811196C00FB676
S1133BB0F8940F92F801928D838D0F900FBE981395
S1133BC04AC06C817D81C7010E943C2E0FB6F894D7
S1133BD00F92F801868D1816ACF48189811105C005
S1133BE011C0F8018189882369F0C6010E94972ECB
S1133BF081110E94252FF801868D8150868F868D34
S1133C0018167CF3F801B68E0F900FBE0FB6F89419
S1133C100F92858D1816ACF48085811105C011C0F2
S1133C20F8018085882369F0C7010E94972E8111CD
S1133C300E94252FF801858D8150858F858D18165A
S1133C407CF3F801B58E0F900FBE0E94AE2B81114C
S1133C505ECFF3DD5CCF0FB6F8940F92F801868D3A
S1133C601816ACF48189811105C011C0F80181894D
S1133C70882369F0C6010E94972E81110E94252F86
S1133C80F801868D8150868F868D18167CF3F80195
S1133C90B68E0F900FBE0FB6F8940F92858D18163E
S1133CA0ACF48085811105C011C0F801808588239A
S1133CB069F0C7010E94972E81110E94252FF801F7
S1133CC0858D8150858F858D18167CF3F801B58E0E
S1133CD00F900FBE0E94AE2B1ACF0FB6F8940F921E
S1133CE0F801868D1816ACF48189811105C011C0C4
S1133CF0F8018189882369F0C6010E94972E8111F9
S1133D000E94252FF801868D8150868F868D181686
S1133D107CF38FEFF801868F0F900FBE0FB6F894E7
S1133D200F92858D1816ACF48085811105C011C0E1
S1133D30F8018085882369F0C7010E94972E8111BC
S1133D400E94252FF801858D8150858F858D181649
S1133D507CF38FEFF801858F0F900FBE0E94AE2B7E
S1133D6009C0F801828D8F5F828F8189882309F4CD
S1133D70F1CEE7CEC8010F900F900F900F900F90E7
S1133D80DF91CF911F910F91FF90EF90DF90CF9033
S1133D90BF90AF909F9008956F927F928F929F9261
S1133DA0AF92BF92CF92DF92EF92FF920F931F9345
S1133DB0CF93DF9300D01F921F92CDB7DEB78C0153
S1133DC05B015D834C83722E812C66246394992459
S1133DD09A947C0188E0E80EF11C6801E1E1CE0EC2
S1133DE0D11C0FB6F8940F92F801928D838D981719
S1133DF020F0F2E07F126EC07DC1F801448D4111C4
S1133E0015C0F80180819181892B09F079C18281E3
S1133E1093810E94902FF80113821282928D9F5FEA
S1133E20928F9189992309F44FC046C071101AC02A
S1133E3050E0B501F801848195810E94C03BF801EE
S1133E40248D84819581820F911D958384832281A1
S1133E5033818217930708F453C18081918195833C
S1133E6084834EC150E0B501F801868197810E9498
S1133E70C03BF801848D90E091958195910926814C
S1133E803781280F391F37832683408151812417B6
S1133E90350730F422813381820F931F9783868301
S1133EA0F2E07F122DC1F801828D882309F428C124
S1133EB0828D8150828F24C1C80141960E94972E21
S1133EC0813021F4BADC02C08111B7DC0F900FBE3F
S1133ED081E01EC18C819D81892B21F40F900FBE3E
S1133EE080E016C1811005C0CE0101960E94DF2E2C
S1133EF0862C0F900FBE0E94A82B0FB6F8940F9239
S1133F00F801858D8F3F09F4158EF801868D8F3F5A
S1133F1009F4168E0F900FBEBE016C5F7F4FCE0169
S1133F2001960E94EA2E811196C00FB6F8940F9262
S1133F30F801928D838D0F900FBE98134AC06C8147
S1133F407D81C7010E943C2E0FB6F8940F92F801B0
S1133F50868D1816ACF48189811105C011C0F80151
S1133F608189882369F0C6010E94972E81110E94DD
S1133F70252FF801868D8150868F868D18167CF347
S1133F80F801968E0F900FBE0FB6F8940F92858DA0
S1133F901816ACF48085811105C011C0F801808524
S1133FA0882369F0C7010E94972E81110E94252F52
S1133FB0F801858D8150858F858D18167CF3F80165
S1133FC0958E0F900FBE0E94AE2B81110ACF35DC67
S1133FD008CF0FB6F8940F92F801868D1816ACF43A
S1133FE08189811105C011C0F8018189882369F094
S1133FF0C6010E94972E81110E94252FF801868DFB
S11340008150868F868D18167CF3F801968E0F905A
S11340100FBE0FB6F8940F92858D1816ACF48085F8
S1134020811105C011C0F8018085882369F0C7019A
S11340300E94972E81110E94252FF801858D8150B1
S1134040858F858D18167CF3F801958E0F900FBE21
S11340500E94AE2BC6CE0FB6F8940F92F801868D4F
S11340601816D4F48189811106C016C0F80181891B
S1134070811105C011C07801F1E1EF0EF11CC701F7
S11340800E94972E81110E94252FF801868D815060
S1134090868F868D181654F38FEFF801868F0F9054
S11340A00FBE0FB6F8940F92858D1816D4F4808540
S11340B0811106C016C0F8018085811105C011C0A8
S11340C07801F8E0EF0EF11CC7010E94972E8111D0
S11340D00E94252FF801858D8150858F858D1816B6
S11340E054F38FEFF801858F0F900FBE0E94AE2B13
S11340F080E00EC0F801448D442309F482CEB2CE90
S1134100F801828D8F5F828F81898111D5CEDECEB9
S11341100F900F900F900F900F90DF91CF911F9100
S11341200F91FF90EF90DF90CF90BF90AF909F9052
S11341308F907F906F9008959F92AF92BF92CF928D
S1134140DF92EF92FF920F931F93CF93DF9300D0F0
S11341501F921F92CDB7DEB78C017D836C83A12C97
S113416099249394BB24BA947C0188E0E80EF11C52
S11341706801E1E1CE0ED11C0FB6F8940F92F8015C
S1134180928D838D981700F580819181892B09F098
S11341902BC1828193810E94902FF8011382128295
S11341A0928D9F5F928F9189992341F0C801419626
S11341B00E94972E813021F440DB02C081113DDB47
S11341C00F900FBE81E018C18C819D81892B21F451
S11341D00F900FBE80E010C1A11005C0CE01019662
S11341E00E94DF2EA92C0F900FBE0E94A82B0FB6A1
S11341F0F8940F92F801858D8F3F09F4158EF8011C
S1134200868D8F3F09F4168E0F900FBEBE016C5F32
S11342107F4FCE0101960E94EA2E811196C00FB6FF
S1134220F8940F92F801928D838D0F900FBE98131E
S11342304AC06C817D81C7010E943C2E0FB6F89460
S11342400F92F801868D1816ACF48189811105C08E
S113425011C0F8018189882369F0C6010E94972E54
S113426081110E94252FF801868D8150868F868DBD
S113427018167CF3F801B68E0F900FBE0FB6F894A3
S11342800F92858D1816ACF48085811105C011C07C
S1134290F8018085882369F0C7010E94972E811157
S11342A00E94252FF801858D8150858F858D1816E4
S11342B07CF3F801B58E0F900FBE0E94AE2B8111D6
S11342C05BCFBBDA59CF0FB6F8940F92F801868D05
S11342D01816ACF48189811105C011C0F8018189D7
S11342E0882369F0C6010E94972E81110E94252F10
S11342F0F801868D8150868F868D18167CF3F8011F
S1134300B68E0F900FBE0FB6F8940F92858D1816C7
S1134310ACF48085811105C011C0F8018085882323
S113432069F0C7010E94972E81110E94252FF80180
S1134330858D8150858F858D18167CF3F801B58E97
S11343400F900FBE0E94AE2B17CF0FB6F8940F92AA
S1134350F801868D1816D4F48189811106C016C01F
S1134360F8018189811105C011C07801F1E1EF0ED6
S1134370F11CC7010E94972E81110E94252FF8017C
S1134380868D8150868F868D181654F38FEFF80131
S1134390868F0F900FBE0FB6F8940F92858D181666
S11343A0D4F48085811106C016C0F801808581117E
S11343B005C011C07801F8E0EF0EF11CC7010E949E
S11343C0972E81110E94252FF801858D8150858FAC
S11343D0858D181654F38FEFF801858F0F900FBE5B
S11343E00E94AE2B80E008C0F801828D8F5F828F1F
S11343F081898111DBCEE4CE0F900F900F900F9046
S11344000F90DF91CF911F910F91FF90EF90DF906C
S1134410CF90BF90AF909F900895CF93DF93FC010E
S1134420928D838D9817D0F4828D8F5F828F868DC5
S11344308F3F79F48189882399F0EB01CF0141966C
S11344400E94972E882371F0209771F081E0888371
S11344500CC0868D8F5F868F81E007C080E005C029
S113446081E003C081E001C081E0DF91CF91089534
S11344706F927F928F929F92AF92BF92CF92DF9270
S1134480EF92FF920F931F93CF93DF9300D01F926D
S11344901F92CDB7DEB78C015B015D834C83622E26
S11344A0812C7724739499249A946C0188E0C80E23
S11344B0D11C7801E1E1EE0EF11C0FB6F8940F92D5
S11344C0F801828D882309F445C0E680F780448D85
S11344D04423A9F050E0C701840F951F9783868376
S11344E0228133818217930720F080819181978301
S11344F08683F80166817781C5010E94C03B611003
S113450019C0F801828D8150828F80819181892B1D
S113451029F40E94D02FF80193838283F8018085C7
S11345208823A1F0C80108960E94972E813071F467
S113453084D90CC0F801F782E6828189882331F09E
S1134540C80141960E94972E811177D90F900FBE12
S113455081E01AC18C819D81892B21F40F900FBEBB
S113456080E012C1811005C0CE0101960E94DF2EA9
S1134570872C0F900FBE0E94A82B0FB6F8940F92B1
S1134580F801858D8F3F09F4158EF801868D8F3FD4
S113459009F4168E0F900FBEBE016C5F7F4FCE01E3
S11345A001960E94EA2E8111A2C00FB6F8940F92D0
S11345B0F801828D0F900FBE811157C080819181C7
S11345C0892B49F40FB6F8940F92828193810E944B
S11345D02E2F0F900FBE6C817D81C7010E943C2E4F
S11345E00FB6F8940F92F801868D1816ACF48189F1
S11345F0811105C011C0F8018189882369F0C701C0
S11346000E94972E81110E94252FF801868D8150DA
S1134610868F868D18167CF3F801968E0F900FBE48
S11346200FB6F8940F92858D1816ACF4808581111D
S113463005C011C0F8018085882369F0C6010E9475
S1134640972E81110E94252FF801858D8150858F29
S1134650858D18167CF3F801958E0F900FBE0E947D
S1134660AE2B81112ACFE9D828CF0FB6F8940F9238
S1134670F801868D1816ACF48189811105C011C02A
S1134680F8018189882369F0C7010E94972E81115E
S11346900E94252FF801868D8150868F868D1816ED
S11346A07CF3F801968E0F900FBE0FB6F8940F921C
S11346B0858D1816ACF48085811105C011C0F801F0
S11346C08085882369F0C6010E94972E81110E947B
S11346D0252FF801858D8150858F858D18167CF3E3
S11346E0F801958E0F900FBE0E94AE2BE6CE0FB64A
S11346F0F8940F92F801868D1816D4F481898111EB
S113470006C016C0F8018189811105C011C0780165
S1134710F1E1EF0EF11CC7010E94972E81110E9456
S1134720252FF801868D8150868F868D181654F3B7
S11347308FEFF801868F0F900FBE0FB6F8940F928B
S1134740858D1816D4F48085811106C016C0F80131
S11347508085811105C011C07801F8E0EF0EF11CCD
S1134760C7010E94972E81110E94252FF801858D83
S11347708150858F858D181654F38FEFF801858F3E
S11347800F900FBEEBD780E00F900F900F900F901B
S11347900F90DF91CF911F910F91FF90EF90DF90D9
S11347A0CF90BF90AF909F908F907F906F9008951F
S11347B0AB01009711F41092B819BC0189E29BE196
S11347C00E94C03B60E070E08091251B9091261B05
S11347D0B3CC08958091C119811104C00E94600175
S11347E080935B1B089528EE33E048ED53E260E0CC
S11347F080915B1B0E947C018093C1190895CF9323
S1134800DF93CDB7DEB7E4970FB6F894DEBF0FBEE3
S1134810CDBF8091C119882309F44DC0198283E06A
S11348208A8381E492E59C838B8384E490E09E8375
S11348308D8324EB30E03F832E8385EF90E09987CE
S1134840888788E38C878A871B8685E18D878E8796
S11348508F87888B1A8A198A8AE590E09C8B8B8BC8
S11348603E8B2D8B8EE091E0988F8F8B88EC90E0BF
S11348709A8F898F8AE1FE013196DE015B96019061
S11348800D928A95E1F780910006882359F04AE158
S113489050E0BE01655E7F4F80915B1B0E94330236
S11348A081E009C04AE150E0BE01655E7F4F80911E
S11348B05B1B89D181E0E4960FB6F894DEBF0FBE8E
S11348C0CDBFDF91CF910895AF92CF92EF920F9326
S11348D0CF93DF93CDB7DEB72D970FB6F894DEBF35
S11348E00FBECDBFE091C119EE2319F1E1E0E983D8
S11348F09B838A837D836C835F834E833987288778
S11349000A87EB86CC86AD8680910106882351F018
S11349104DE050E0BE016F5F7F4F80915B1B0E94B2
S1134920330207C04DE050E0BE016F5F7F4F80E06F
S11349304AD12D960FB6F894DEBF0FBECDBFDF91DE
S1134940CF910F91EF90CF90AF900895CF93DF93D5
S11349501F92CDB7DEB78091C1198823B9F083E0E7
S1134960898380910306882351F041E050E0BE0121
S11349706F5F7F4F80915B1B0E94330207C041E051
S113498050E0BE016F5F7F4F80E01DD10F90DF913B
S1134990CF910895CF93DF93CDB7DEB7C456D10935
S11349A00FB6F894DEBF0FBECDBFAE0146595F4FC0
S11349B0FA0161917191AF018AE08983CE01029677
S11349C00E94173C8823C9F020910A06222361F033
S11349D09927AC014F5F5F4FBE016F5F7F4F80919E
S11349E05B1B0E94330209C09927AC014F5F5F4FE4
S11349F0BE016F5F7F4F80E0E6D0CC59DF4F0FB62A
S1134A00F894DEBF0FBECDBFDF91CF910895CF9351
S1134A10DF931F92CDB7DEB78091C1198823B9F017
S1134A2089E0898380910906882351F041E050E0B0
S1134A30BE016F5F7F4F80915B1B0E94330207C0F2
S1134A4041E050E0BE016F5F7F4F80E0BCD00F902B
S1134A50DF91CF9108958A3538F080E99BE09093F7
S1134A60AB008093AA000895811107C08DE295E000
S1134A709093AB008093AA0008959FEF980F993507
S1134A8060F4E82FF0E0EE0FFF1FEC5CF94F80813B
S1134A9091819093AB008093AA000895A0EAB0E0BE
S1134AA09C9190629C93E1EAF0E0908198619083FC
S1134AB09C9192609C939081926090832FE33CE957
S1134AC03093A7002093A600E1E0F1E0908190618B
S1134AD09083C1CF0895EF92FF920F931F93CF93CA
S1134AE0DF939091C3199F3F11F0981358C0FB01B5
S1134AF08081811105C01092C5191092C4190CC08F
S1134B009091C619891741F0E2ECF9E114821382FD
S1134B1012828FEF818343C08091C4199091C5198B
S1134B209C0122503109240F351F2536310540F0F0
S1134B30E2ECF9E11382128214828FEF81832FC099
S1134B408A01EB010F2EF2ECEF2EF9E1FF2EF02D8E
S1134B50F70124812F5F2483425051096E5F7F4FF8
S1134B608953964E0E94C03BF701428153814250C3
S1134B705109BA01600F711F73836283988189811F
S1134B8098130DC0E0915C1BF0915D1B87EC99E1DB
S1134B901995F7011482138212828FEF8183DF91BA
S1134BA0CF911F910F91FF90EF90089590935D1B0B
S1134BB080935C1B6BE675E280E00E94E61A8FEF3F
S1134BC08093C31908955F926F927F928F929F9200
S1134BD0AF92BF92CF92DF92EF92FF920F931F9307
S1134BE0CF93DF93582E5B018A018CE290E00E9400
S1134BF027087C01980136952795ADE0B3EC0E9417
S1134C00BA3A929582958F7089279F7089274AE2D4
S1134C10489F9001499F300D112441E0021713076A
S1134C2009F440E0980136952795ADE0B3EC0E9475
S1134C30BA3A929582958F7089279F708927840F3D
S1134C400115110559F190E0C12CD12C66246A9408
S1134C50680E470182E0880E911CE8010B321105B1
S1134C6010F0CAE2D0E077247394790EF7019083B0
S1134C706182B5016C0D7D1DAE01C4010E94C03B73
S1134C809E012E5F3F4FA70160E0852D0E94F11A1F
S1134C90CC0EDD1E0C1B1D0B972DF9F6C7010E94CF
S1134CA0310981E0DF91CF911F910F91FF90EF9037
S1134CB0DF90CF90BF90AF909F908F907F906F9038
S1134CC05F90089584B1876084B923988CB581601E
S1134CD08CBD8CB58C658CBD8CB58F7D8CBD0895D9
S1134CE08EBD00000DB407FEFDCF8EB508954F9222
S1134CF05F926F927F928F929F92AF92BF92CF9268
S1134D00DF92EF92FF920F931F93CF93DF934C01A7
S1134D10EB015A012901C114D10439F4CA010E94DA
S1134D2027086C01892B09F4ECC088E290E00E940A
S1134D3027083C010097B9F0FC01D08EC78AA50171
S1134D4065EA70E0C6010E94C93BF1E0AF1AB10800
S1134D50F3018789908DA80EB91E8881818F88817F
S1134D60811105C014C0C6010E943109CAC0D30113
S1134D705A96FE0131969E01285F3F4FEF018191C3
S1134D808D938881882319F02E173F07B9F7F30113
S1134D9010A2102F063008F015E0F301168B11A3B2
S1134DA012A2E3012296CE010E943C0CC3010C9690
S1134DB00E943C0CF3017186608686E090E0811BC2
S1134DC0910995878487738A628A13A214A215A213
S1134DD016A217A2A201B401C5010E94631BF3012C
S1134DE091838083E114F10419F0F70171826082E8
S1134DF00FB6F8940F928091361A8F5F8093361A0B
S1134E008091951A9091961A892BD9F57092961AD9
S1134E106092951A8091361A813009F041C00F2EA4
S1134E20FFE5EF2EFAE1FF2EF02D0F2EF5E9CF2E40
S1134E30FAE1DF2EF02DC7010E942E0CF9E0EF0EEF
S1134E40F11CEC14FD04B9F786E59AE10E942E0CDE
S1134E508DE49AE10E942E0C80E49AE10E942E0CCB
S1134E6087E39AE10E942E0C86E59AE190934C1A0E
S1134E7080934B1A8DE49AE190934A1A8093491ACD
S1134E800FC08091321A81110BC0E091951AF091F4
S1134E90961A8689081720F07092961A6092951ACD
S1134EA080912E1A8F5F80932E1AF3018689909138
S1134EB0331A981710F48093331A90E09C01220F50
S1134EC0331F220F331F220F331F820F931FBE0184
S1134ED0815A954E0E94400C0F900FBE8091321A59
S1134EE0882359F0E091951AF091961A86898017D3
S1134EF030F40E941D1C81E005C081E003C081E004
S1134F0001C08FEFDF91CF911F910F91FF90EF9030
S1134F10DF90CF90BF90AF909F908F907F906F90D5
S1134F205F904F9008959F92AF92BF92CF92DF927D
S1134F30EF92FF920F931F93CF93DF93FC01909115
S1134F402B1A9F5F90932B1A8091341A9091351AE3
S1134F5020813181E901C60FD71F8217930758F4C6
S1134F60C217D30708F06EC1D183C0838C179D0785
S1134F7008F042C009C0C217D30708F460C18C17F7
S1134F809D0708F45CC15EC18091951A9091961AB0
S1134F9002960E94920CE091951AF091961AD3838E
S1134FA0C2838091341A9091351AC817D90768F4CE
S1134FB06091951A7091961A8091491A90914A1AA3
S1134FC06E5F7F4F0E94610C17C06091951A7091BB
S1134FD0961A80914B1A90914C1A6E5F7F4F0E94E3
S1134FE0610C80912C1A90912D1AC817D90720F4BE
S1134FF0D0932D1AC0932C1A0FB6F8940F92809167
S11350002B1A815080932B1A80912B1A81110DC178
S11350108091361A811133C00BC1D7011596ED91D9
S1135020FC911697C681D781CE010C960E94920CF2
S11350308E010E5F1F4FC8010E94920C8E899091C1
S1135040331A981710F48093331A90E09C01220FBE
S1135050331F220F331F220F331F820F931FB801F8
S1135060815A954E0E94400CE091951AF091961A3F
S11350709E898689981758F0D092301A08C00F2E4E
S1135080F0E4EF2EFAE1FF2EF02DDD24D394F701A6
S113509080818111C2CF8091311A882309F4BDC067
S11350A08091311A882309F4B8C0912CBB24B3949D
S11350B0CC24CA94DC2C80912B1A811198C0809145
S11350C0341A9091351A01969093351A8093341AB4
S11350D0E090341AF090351AE114F10489F58091C6
S11350E04B1A90914C1A2091491A30914A1A3093D4
S11350F04C1A20934B1A90934A1A8093491A809120
S11351002F1A8F5F80932F1AE0914B1AF0914C1A4B
S11351108081811105C0D0922D1AC0922C1A10C022
S1135120E0914B1AF0914C1A0580F681E02D06802F
S1135130F781E02D8281938190932D1A80932C1A0C
S113514080912C1A90912D1AE816F90608F47DC066
S1135150A92CE0914B1AF0914C1A8081811105C061
S1135160D0922D1AC0922C1A48C0E0914B1AF0919B
S11351704C1A0580F681E02DC681D7818A819B81F6
S1135180E816F90628F490932D1A80932C1A35C04A
S11351908E010E5F1F4FC8010E94920C8C899D895D
S11351A0892B21F0CE010C960E94920C8E8990914D
S11351B0331A981710F48093331A90E09C01220F4D
S11351C0331F220F331F220F331F820F931FB80187
S11351D0815A954E0E94400CE091951AF091961ACE
S11351E09E898689981708F4B4CFAB2CB2CF8091EE
S11351F0311A8F5F8093311A28C08091301A81113F
S113520001C0A110B092301A8091311A815080935C
S1135210311A8091311A81114ECF8091301A813028
S113522031F40E941D1C81E003C080E001C080E0D5
S11352300F900FBE81110EC00E941D1C0BC0D183A4
S1135240C083A2CED183C083D7CE8091301A81117E
S1135250D9CFDACFDF91CF911F910F91FF90EF90CB
S1135260DF90CF90BF90AF909F9008959F92AF92A0
S1135270BF92CF92DF92EF92FF920F931F93CF933F
S1135280DF93009709F463C120912B1A2F5F2093B9
S11352902B1AC091341AD091351AC80FD91F809196
S11352A0951A9091961A02960E94920CE091951A82
S11352B0F091961AD383C2838091341A9091351A4F
S11352C0C817D90768F46091951A7091961A80915D
S11352D0491A90914A1A6E5F7F4F0E94610C17C061
S11352E06091951A7091961A80914B1A90914C1A6C
S11352F06E5F7F4F0E94610C80912C1A90912D1A41
S1135300C817D90720F4D0932D1AC0932C1A0FB6BE
S1135310F8940F9280912B1A815080932B1A8091CC
S11353202B1A81110DC18091361A811133C00BC122
S1135330D7011596ED91FC911697C681D781CE01C0
S11353400C960E94920C8E010E5F1F4FC8010E94A2
S1135350920C8E899091331A981710F48093331A13
S113536090E09C01220F331F220F331F220F331FA3
S1135370820F931FB801815A954E0E94400CE09110
S1135380951AF091961A9E898689981758F0D092AA
S1135390301A08C00F2EF0E4EF2EFAE1FF2EF02DA4
S11353A0DD24D394F70180818111C2CF8091311A19
S11353B0882309F4BDC08091311A882309F4B8C048
S11353C0912CBB24B394CC24CA94DC2C80912B1A4A
S11353D0811198C08091341A9091351A0196909356
S11353E0351A8093341AE090341AF090351AE11487
S11353F0F10489F580914B1A90914C1A2091491A25
S113540030914A1A30934C1A20934B1A90934A1AAB
S11354108093491A80912F1A8F5F80932F1AE091FD
S11354204B1AF0914C1A8081811105C0D0922D1A2B
S1135430C0922C1A10C0E0914B1AF0914C1A0580BE
S1135440F681E02D0680F781E02D8281938190938F
S11354502D1A80932C1A80912C1A90912D1AE816EB
S1135460F90608F477C0A92CE0914B1AF0914C1A74
S11354708081811105C0D0922D1AC0922C1A48C087
S1135480E0914B1AF0914C1A0580F681E02DC6810B
S1135490D7818A819B81E816F90628F490932D1A06
S11354A080932C1A35C08E010E5F1F4FC8010E94D5
S11354B0920C8C899D89892B21F0CE010C960E9437
S11354C0920C8E899091331A981710F48093331AA2
S11354D090E09C01220F331F220F331F220F331F32
S11354E0820F931FB801815A954E0E94400CE0919F
S11354F0951AF091961A9E898689981708F4B4CF64
S1135500AB2CB2CF8091311A8F5F8093311A22C0B5
S11355108091301A811101C0A110B092301A80918B
S1135520311A81508093311A8091311A81114ECFF2
S11355308091301A813031F40E941D1C81E003C037
S113554080E001C080E00F900FBE811108C00E946E
S11355501D1C05C08091301A8111DFCFE0CFDF918F
S1135560CF911F910F91FF90EF90DF90CF90BF905C
S1135570AF909F900895CF92DF92EF92FF920F9396
S11355801F93CF93DF9385E590E00E9427088C0159
S1135590892B09F4D4C088E290E00E942708EC012A
S11355A0892BB1F0188F0F8B45E550E065EA70E068
S11355B0C8010E94C93B0F89188D0C5A1F4F89E4FA
S11355C0898FEBEEF6E0DE015A9622EF36E004C056
S11355D0C8010E943109B3C081918D93882319F0C9
S11355E02E173F07C9F718A21E8A19A21AA27E0114
S11355F082E0E80EF11CC7010E943C0CCE010C961F
S11356000E943C0CD987C88786E090E09D878C87F0
S1135610DB8BCA8B1BA21CA21DA21EA21FA240E0F0
S113562050E069E171E0C8010E94631B998388839B
S11356300FB6F8940F928091361A8F5F8093361AC2
S11356408091951A9091961A892BA9F5D093961A60
S1135650C093951A8091361A8130E1F50FE51AE16D
S11356600F2EF5E9CF2EFAE1DF2EF02DC8010E94AE
S11356702E0C075F1F4FC016D106C1F786E59AE1CD
S11356800E942E0C8DE49AE10E942E0C80E49AE193
S11356900E942E0C87E39AE10E942E0C86E59AE183
S11356A090934C1A80934B1A8DE49AE190934A1A82
S11356B08093491A0FC08091321A81110BC0E09176
S11356C0951AF091961A8689811104C0D093961A7E
S11356D0C093951A80912E1A8F5F80932E1A8E890B
S11356E09091331A981710F48093331A90E09C0128
S11356F0220F331F220F331F220F331F820F931FDA
S1135700B701815A954E0E94400C0F900FBE8091B4
S1135710321A882321F08091951A9091961AF89460
S11357208FEF9FEF90932D1A80932C1A81E0809332
S1135730321A1092351A1092341A0E94D51BDF9136
S1135740CF911F910F91FF90EF90DF90CF9008952C
S113575080912B1A8F5F80932B1A08959F92AF929A
S1135760BF92CF92DF92EF92FF920F931F93CF934A
S1135770DF930FB6F8940F9280912B1A8150809387
S11357802B1A80912B1A81110DC18091361A811127
S113579033C00BC1D7011596ED91FC911697C681C4
S11357A0D781CE010C960E94920C8E010E5F1F4F82
S11357B0C8010E94920C8E899091331A981710F4A4
S11357C08093331A90E09C01220F331F220F331F62
S11357D0220F331F820F931FB801815A954E0E94E6
S11357E0400CE091951AF091961A9E898689981733
S11357F058F0D092301A08C00F2EF0E4EF2EFAE1E0
S1135800FF2EF02DDD24D394F70180818111C2CFC6
S11358108091311A882309F4BDC08091311A8823FC
S113582009F4B8C0912CBB24B394CC24CA94DC2CC6
S113583080912B1A811198C08091341A9091351A55
S113584001969093351A8093341AE090341AF090AC
S1135850351AE114F10489F580914B1A90914C1A90
S11358602091491A30914A1A30934C1A20934B1ABA
S113587090934A1A8093491A80912F1A8F5F8093CC
S11358802F1AE0914B1AF0914C1A8081811105C0B6
S1135890D0922D1AC0922C1A10C0E0914B1AF0919C
S11358A04C1A0580F681E02D0680F781E02D828177
S11358B0938190932D1A80932C1A80912C1A909195
S11358C02D1AE816F90608F473C0A92CE0914B1AB6
S11358D0F0914C1A8081811105C0D0922D1AC0928A
S11358E02C1A48C0E0914B1AF0914C1A0580F681AD
S11358F0E02DC681D7818A819B81E816F90628F4B8
S113590090932D1A80932C1A35C08E010E5F1F4F71
S1135910C8010E94920C8C899D89892B21F0CE01AB
S11359200C960E94920C8E899091331A981710F459
S11359308093331A90E09C01220F331F220F331FF0
S1135940220F331F820F931FB801815A954E0E9474
S1135950400CE091951AF091961A9E8986899817C1
S113596008F4B4CFAB2CB2CF8091311A8F5F8093FF
S1135970311A1EC08091301A811101C0A110B09259
S1135980301A8091311A81508093311A8091311AE2
S113599081114ECF8091301A813031F40E941D1C48
S11359A081E003C080E001C080E00F900FBE05C01D
S11359B08091301A8111E3CFE4CFDF91CF911F9111
S11359C00F91FF90EF90DF90CF90BF90AF909F909A
S11359D008950FB6F8940F928091341A9091351A65
S11359E00F900FBE0895CF92DF92EF92FF920F9324
S11359F01F93CF93DF9380912B1A81119FC08091C5
S1135A00341A9091351A01969093351A8093341A6A
S1135A10E090341AF090351AE114F10499F580916C
S1135A204B1A90914C1A2091491A30914A1A30938A
S1135A304C1A20934B1A90934A1A8093491A8091D6
S1135A402F1A8F5F80932F1AE0914B1AF0914C1A02
S1135A508081811107C08FEF9FEF90932D1A80935F
S1135A602C1A10C0E0914B1AF0914C1A0580F68163
S1135A70E02D0680F781E02D8281938190932D1A89
S1135A8080932C1A80912C1A90912D1AE816F906FD
S1135A9010F4D12C59C0D12CCC24C394E0914B1ACE
S1135AA0F0914C1A8081811107C08FEF9FEF909382
S1135AB02D1A80932C1A48C0E0914B1AF0914C1A7D
S1135AC00580F681E02DC681D7818A819B81E81605
S1135AD0F90628F490932D1A80932C1A35C08E0160
S1135AE00E5F1F4FC8010E94920C8C899D89892BDF
S1135AF021F0CE010C960E94920C8E899091331A5B
S1135B00981710F48093331A90E09C01220F331FEE
S1135B10220F331F220F331F820F931FB801815AA4
S1135B20954E0E94400CE091951AF091961A9E8928
S1135B308689981708F4B2CFDC2CB0CF8091311A43
S1135B408F5F8093311AD12C8091301A882311F001
S1135B50DD24D3948D2DDF91CF911F910F91FF9070
S1135B60EF90DF90CF90089580912B1A882321F035
S1135B7081E08093301A08951092301AA091951AFA
S1135B80B091961AE091951AF091961A2D913C9144
S1135B908789908D8217930760F06091951A7091B0
S1135BA0961A8091951A9091961A675E7F4F0E947B
S1135BB09C188091331A90E0FC01EE0FFF1FEE0F4A
S1135BC0FF1FEE0FFF1F8E0F9F1FFC01E15AF54EC2
S1135BD08081811117C08091331A81508093331AC8
S1135BE08091331A90E0FC01EE0FFF1FEE0FFF1FB0
S1135BF0EE0FFF1F8E0F9F1FFC01E15AF54E8081AF
S1135C00882349F38091331A90E09C01220F331FBB
S1135C10220F331F220F331F280F391FD901A15A16
S1135C20B54E1196ED91FC9112970280F381E02D0F
S1135C301296FC93EE9311972E59354EE217F30703
S1135C4029F422813381FD0132832183FC01EE0F8B
S1135C50FF1FEE0FFF1FEE0FFF1F8E0F9F1FFC0194
S1135C60E15AF54E0180F281E02D8681978190936F
S1135C70961A8093951A0895CF93DF93EB01609160
S1135C80951A7091961A645F7F4F0E94610C8091FF
S1135C90951A9091961A02960E94920CCF3F8FEF1C
S1135CA0D80759F46091951A7091961A6E5F7F4FD8
S1135CB087E39AE10E94400C37C08091341A909196
S1135CC0351AC80FD91FE091951AF091961AD3830B
S1135CD0C2838091341A9091351AC817D90768F491
S1135CE06091951A7091961A8091491A90914A1A66
