S00C0000546573742E7372656378
S113000020C100003FC100003DC100000C94B014A9
S11300100C949F140C94C11435C1000033C100002A
S113002031C100002FC100002DC100002BC1000010
S113003029C1000027C1000025C1000023C1000020
S113004021C100001FC100001DC100001BC1000030
S113005019C1000017C1000015C1000013C1000040
S113006011C100000FC100000DC100000BC1000050
S113007009C1000007C1000005C1000003C1000060
S11300800C946318FFC00000FDC00000FBC000001A
S1130090F9C00000F7C00000F5C00000F3C0000084
S11300A0F1C00000EFC00000EDC00000EBC0000094
S11300B0E9C00000E7C00000E5C00000E3C00000A4
S11300C0E1C00000DFC00000DDC000000C94B02ED1
S11300D0D9C00000D7C00000D5C00000D3C00000C4
S11300E0D1C00000084AD73B3BCE016E84BCBFFDA3
S11300F0C12F3D6C74319ABD56833DDA3D00C77FF4
S113010011BED9E4BB4C3E916BAAAABE000000808C
S11301103F05A84CCDB2D44EB93836A9020C50B91B
S1130120918688083CA6AAAA2ABE000000803F0047
S11301306E616E00696E660000407A10F35A00A08A
S1130140724E18090010A5D4E80000E8764817009C
S113015000E40B54020000CA9A3B000000E1F505DC
S1130160000080969800000040420F000000A08626
S113017001000000102700000000E8030000000058
S11301806400000000000A000000000001000000FC
S113019000002C76D888DC674F0823DFC1DFAE5916
S11301A0E1B1B796E5E3E453C63AE651997696E8A9
S11301B0E6C28426EB898C9B62ED407C6FFCEFBC2D
S11301C09C9F40F2BAA56FA5F490055A2AF75C9358
S11301D06B6CF9676DC11BFCE0E40D47FEF520E68E
S11301E0B500D0ED902E0300943577050080841E71
S11301F0080000204E0A000000C80C333333330FCC
S1130200986E12831141EF8D2114893BE65516CF68
S1130210FEE6DB18D1844B381BF77C1D901DA4BB74
S1130220E424203284725E228100C9F124ECA1E529
S11302303D27CFEDDAE188818230F0F30E948A17FE
S1130240FACF11241FBECFEFD1E2DEBFCDBF00E055
S11302500CBF17E0A0E0B2E0E8EDFFE600E00BBF62
S113026002C007900D92AC38B107D9F72CE1ACE885
S1130270B7E001C01D92A235B207E1F70E94F11365
S11302800C94EA37BDCECF93DF936BE374E081E047
S11302900E94531610928D0710928C07CEE8D7E077
S11302A08DE8FE0111928A95E9F781E00E94B71862
S11302B090931808809317081882DF91CF910895BE
S11302C080918E07811116C0EEE8F7E0168E158E28
S11302D0168A158A14A213A212A211A2178E148EC2
S11302E0128E118E138E10921A081092190891E032
S11302F0908308958FEF0895CF92DF92EF92FF924B
S11303000F931F93CF93DF931F92CDB7DEB769018D
S1130310E82EF12C9DE8899F800111240257184F83
S113032083E0F8018083508F478B60A382E0898348
S11303300E94732AF801E557FF4F918380830E943E
S1130340AE2D21E030E0AE014F5F5F4F61E0F80178
S113035080A10E945E16B60181E00E942C2B672BBF
S1130360682B692B61F48DE88E9DF0018F9DF00D53
S11303701124E257F84F81E0808380E02EC080E0B2
S113038091E065D6009731F14DE84E9D90014F9D67
S1130390300D112440E051E0BC01C9018157984F50
S11303A05BD384E190E053D60097B1F02DE82E9D05
S11303B080012F9D100D112444E150E0BC01C801BF
S11303C08756984F49D3F801E257F84F82E080836B
S11303D081E003C08FEF01C08FEF0F90DF91CF91C9
S11303E01F910F91FF90EF90DF90CF900895CF93DE
S11303F0DF93811134C020E04FEF5FEF60E070E0E5
S113040080911708909118080E94A51D80918E076D
S1130410823051F060E070E08091170890911808E4
S11304200E94091C80E01CC0CEE8D7E089819A8133
S113043018D78B859C8515D781E08883EF89F88D43
S113044060E070E080E090E0199560E070E08091F9
S11304501708909118080E94091C81E001C080E0EF
S1130460DF91CF910895EF92FF920F931F93CF9353
S1130470DF9300D01F92CDB7DEB75C834B8381112D
S11304807BC07B0120E04FEF5FEF60E070E0809184
S11304901708909118080E94A51D80918E0782303C
S11304A051F4E114F10439F00B811C81C801019766
S11304B08436910550F060E070E0809117089091C7
S11304C018080E94091C80E058C00E5F1F4F20913D
S11304D097073091980780E091E0821B930B0817EF
S11304E0190708F03FC02091A1073091A20784E1C9
S11304F090E0821B930B0297A8F18AE290E09A8322
S1130500898342E050E0BE016D5F7F4F8FE897E042
S1130510B5D24B815C81B7018FE897E0AFD201156A
S11305201105B1F0902F812F0B32110510F09AE2D2
S113053080E099838A8342E050E0BE016F5F7F4F81
S113054089E997E09BD289819A81081B190B51F79D
S113055060E070E080911708909118080E94091CCF
S11305608B810BC060E070E08091170890911808AF
S11305700E94091C80E001C080E00F900F900F9052
S11305800F90DF91CF911F910F91FF90EF900895FD
S1130590CF93DF931F921F92CDB7DEB7811114C0A2
S11305A080918E07823091F4662394F081E08983F0
S11305B06A8322E030E0AE014F5F5F4F61E08091DB
S11305C0AE070E945E1605C080E003C080E001C053
S11305D080E00F900F90DF91CF910895AF92BF927A
S11305E0CF92DF92EF92FF920F931F93CF93DF93FB
S11305F0CDB7DEB7AE970FB6F894DEBF0FBECDBF52
S11306008111DBC080918E07882309F4D6C020E0D5
S11306104FEF5FEF60E070E0809117089091180849
S11306200E94A51D80918E07823049F060E070E041
S113063080911708909118080E94091CBEC08091EF
S1130640AD07882309F462C0EEE8F7E0858D968D46
S11306500A96968F858F248D265F248F893E93403A
S113066058F060E070E080911708909118080E949B
S1130670091C80E0BCDEA1C0293C08F447C0EEE8B8
S1130680F7E0078110851EA61DA6A18C838DA81AEC
S11306908A2D8F77A82EC1F1C12CD12CB12C7F01CA
S11306A01982F701838D8B0D8F778A834189528953
S11306B04C0D5D1D22E030E0BE01635D7F4F89E992
S11306C097E08BD22DA53EA5A801BE016D5F7F4F9B
S11306D08FE897E082D22DA53EA5020F131FF701E4
S11306E0838194810197082319232E5F3F4FAE0124
S11306F04F5F5F4F61E080A10E945E16B394F2E009
S1130700CF0ED11CAB10CCCF1092AA07EEE8F7E0C5
S1130710818D482F50E0938D491B51094F77552700
S1130720443051050CF041C06581768125893689B4
S113073062177307D1F119828A838F01440F551F01
S113074081899289480F591F22E030E0BE01635D20
S11307507F4F89E997E041D22DA53EA5F80145894F
S11307605689BE016D5F7F4F8FE897E036D22DA585
S11307703EA5F80185899689A901480F591F8381EF
S11307809481019784239523968B858B81E0878FB1
S1130790818D8F5F8F77818F2E5F3F4FAE014F5FCB
S11307A05F4F61E080A10E945E1660E070E080917E
S11307B01708909118080E94091CAE960FB6F89479
S11307C0DEBF0FBECDBFDF91CF911F910F91FF9080
S11307D0EF90DF90CF90BF90AF9008950F931F9349
S11307E0CF93DF93EA01811141C08091B1079091C9
S11307F0B207892B99F4DB0111968C91119790E043
S1130800982F88272C91822B9093B2078093B1075D
S11308108536910558F522976E5F7F4F0EE817E0F5
S1130820F80181A192A1AE018D54984F0E94143712
S1130830D80191966D917C9192976C0F7D1F929641
S11308407C936E93919793968D919C91949768174E
S1130850790761F45796ED91FC91589783EB97E0F3
S11308601995F80114A213A212A211A2DF91CF913B
S11308701F910F9108959F92AF92BF92CF92DF92F2
S1130880EF92FF920F931F93CF93DF931F92CDB7F5
S1130890DEB78B015A019091AE079813B8C09091BE
S11308A08E07992309F4B3C0FB01D0800F2EFEE814
S11308B0EF2EF7E0FF2EF02D13C0E0918C07F0919E
S11308C08D07309759F0482F50E060E070E000E069
S11308D010E023E0CF010E94A22CAAC0E12CF12C4D
S11308E020E04FEF5FEF60E070E0F701E757FF4F64
S11308F0808191810E94A51DF7018081823030F0B2
S1130900A114B10419F00115110551F4F701E757C9
S1130910FF4F60E070E0808191810E94091C88C0D3
S1130920833021F5F3E0DF1221C0F701E557FF4FD3
S113093080819181009781F000E010E022E040E0A6
S113094050E0BA010E94A22CF701E557FF4F118233
S1130950108260E080E01CDEF701E757FF4F60E0A3
S113096070E0808191810E94091C62C0F801C180FD
S1130970DD2009F452C0F4E0DF1213C053C0A50116
S113098042505109B8016E5F7F4F80E027DFF701C5
S1130990828D8F5F8F77828FF701628D80E0F8DD23
S11309A02CC0F1E0DF1229C0F701838DFC2DF81B68
S11309B08F2F8F77982E09F1D12C57018BE0A80E39
S11309C0B11C87010F5F1F4F42E050E0BE016F5F13
S11309D07F4FC50150D1498150E060E070E0C8010B
S11309E04AD1D3949D10F0CFF701C38E148E168E86
S11309F0158E818DC81201C0178EF701E757FF4F7E
S1130A0060E070E0808191810E94091C11C0F801AE
S1130A10D080F2E0DF120CC050CFF701828DC812F3
S1130A20BBCFADCFF701828DC81609F4B0CFB4CFD8
S1130A300F90DF91CF911F910F91FF90EF90DF9076
S1130A40CF90BF90AF909F90089580E0C7DD8AE07B
S1130A5090E00E948924F9CFFC016115710561F0D1
S1130A6071836083538342831186108617821682B2
S1130A701582148281E0089580E00895EF92FF9238
S1130A800F931F93CF93DF93EC012A813B818885D9
S1130A909985F901E81BF90BE417F50708F449C037
S1130AA08A017B018C819D81A901481B590B041784
S1130AB01507A8F428813981A801820F931F0E9489
S1130AC014378C819D81800F911F9D838C832A8193
S1130AD03B818217930721F51D821C8221C0288146
S1130AE03981820F931F0E9414378C819D816A8102
S1130AF07B81AC01461B570B400F511F681B790BC0
S1130B006E0D7F1D888199810E9414378C819D818F
S1130B102A813B81821B930B800F911F9D838C83C1
S1130B2048855985040F151F1987088781E090E0CF
S1130B3002C080E090E0DF91CF911F910F91FF9070
S1130B40EF9008950F931F93CF93DF93FC0121152A
S1130B503105C9F1A681B78184819581A817B907A8
S1130B60A9F1C62FD72F80E090E007C0A681B781F6
S1130B7064817581A617B70759F160817181A60F49
S1130B80B71F5C918E015883668177816F5F7F4FB9
S1130B9077836683A085B1851197B187A087A281E9
S1130BA0B3816A177B0711F4178216822196D80144
S1130BB05C91541302C001960BC0019628173907A3
S1130BC0A9F6C90105C080E090E002C080E090E091
S1130BD0DF91CF911F910F910895CF92DF92EF9201
S1130BE0FF920F931F93CF93DF937C016B01EA0174
S1130BF08901672BA9F1FC0142815381C417D507F0
S1130C0010F0C41BD50B4C1B5D0B4017510760F053
S1130C10F701608171816C0F7D1FA801C6010E94DC
S1130C201437802F912F1EC0F701608171816C0FE2
S1130C307D1FC6010E941437F70122813381C90147
S1130C408C1B9D0BA801421B530B4C0F5D1F608135
S1130C5071818C0D9D1D0E941437802F912F02C02D
S1130C6080E090E0DF91CF911F910F91FF90EF9082
S1130C70DF90CF900895EF92FF920F931F93CF933D
S1130C80DF93EC017B01088519854017510708F4AF
S1130C908A018E819F814A815B81481B590B4017D1
S1130CA05107C8F0E114F10441F068817981680FBB
S1130CB0791FA801C7010E9414378E819F81800F7C
S1130CC0911F9F838E832A813B818217930741F56D
S1130CD01F821E8225C0E114F104C1F0688179816C
S1130CE0680F791FC7010E9414374E815F812A81E2
S1130CF03B81C901841B950B421B530B400F511FB1
S1130D00688179818E0D9F1D0E9414378E819F8189
S1130D102A813B81821B930B800F911F9F838E83BB
S1130D2088859985801B910B99878887C801DF91F5
S1130D30CF911F910F91FF90EF900895EF92FF9242
S1130D400F931F93CF93DF937C01680F791FFC01EE
S1130D503196009719F04115510521F460E070E0D7
S1130D6081E04BC02115310559F1E617F70760F50D
S1130D708A01020F131FDA01EC0191E02FEF04C086
S1130D80FA01E617F70720F53D9131110AC098835F
S1130D90CF010196A017B107E8F4EF01FC0191E03F
S1130DA0F0CFAF014F5F5F4F30839F5FA017B10754
S1130DB0B0F49F3F29F728833296EA0191E0E1CF0E
S1130DC0EC0180E091E00DC0EC0182E091E009C00B
S1130DD082E007C0EF01FC0180E091E002C0FA016B
S1130DE080E0C617D70718F49883BF0101C082E0DA
S1130DF09B012E193F09622F732FDF91CF911F9111
S1130E000F91FF90EF900895AF92BF92CF92DF922F
S1130E10EF92FF920F931F93CF93DF937C01DA013C
S1130E20009711F0109721F460E070E081E05FC05A
S1130E302115310509F44BC06A01C20ED31E5C01B1
S1130E40A60EB71E8C0150E001C08F01ED01219662
S1130E507C91711103C05460F8013DC07150C6010A
S1130E608C1B9D0B272F30E08217930710F4782FEB
S1130E705860C501801B910B272F30E08217930720
S1130E8010F4782F5260772361F1DE01F801972F77
S1130E903D91311101C0546031939150C9F7EFEF86
S1130EA0E70FF0E03196DE01AE0FBF1FE00FF11F38
S1130EB0AC15BD0580F47E3F41F2EA15FB0510F048
S1130EC0526009C08F010F5F1F4F1082BFCFFC011A
S1130ED050E001C0F801EE19FF096E2F7F2F852F16
S1130EE006C0CC15DD05B0F7F801DE01E6CFDF91D1
S1130EF0CF911F910F91FF90EF90DF90CF90BF9013
S1130F00AF900895862798E02CE880FF03C086956B
S1130F10822701C086959150C1F708950F931F93BE
S1130F20CF93DF93662359F08C01EC01060F111D5A
S1130F3080E06991E7DF0C171D07D9F701C080E055
S1130F40DF91CF911F910F91089580B380BBECE79F
S1130F50F0E08081806C8083EAE7F0E08081806843
S1130F6080838081846080830895ECE7F0E080834F
S1130F709081906C9083EAE7F0E090819064908394
S1130F80908196FDFDCF2091780090917900E82F13
S1130F90F0E02695269530E4939FC0011124822B1E
S1130FA0FE2FEE27E050FF4FE80FF11D80810895DA
S1130FB0CF92DF92EF92FF92CF93DF93EC01C88040
S1130FC0D980EA80FB802BED3FE049E450E4C7017F
S1130FD0B6010E94933118166CF42BED3FE049ECF6
S1130FE050E4C701B6010E941C2F688379838A8369
S1130FF09B8316C02BED3FE049E450ECC701B601DA
S11310000E94E32F882364F42BED3FE049EC50E485
S1131010C701B6010E941D2F688379838A839B834D
S113102088819981AA81BB81BC01CD019F772BED79
S11310303FE049E450E40E94933118160CF4BFCF0A
S1131040DF91CF91FF90EF90DF90CF900895EF92D2
S1131050FF920F931F93CF93DF93EC010E94F2262C
S11310608091210890912208892B41F5E3E2F8E070
S1131070A7E2B8E0B183A08313821282E3E2FAE12B
S1131080F0932208E09321081382128211821082C5
S11310908CEF91E113969C938E931297ED93FC93AE
S11310A090931E0880931D089093200880931F0836
S11310B080E090E890931C0880931B0880911B08A3
S11310C090911C088C239D23892B09F0B2C0209792
S11310D009F4B2C0AE014C5F5F4F09F4B0C0809117
S11310E01F08909120088417950708F4ABC0E0917D
S11310F02308F0912408A3E2B8E002C0DF01F9015B
S1131100228133812417350728F420813181211568
S11311103105A1F76091210870912208E617F707BD
S113112009F493C0CD91DC9111977E0184E0E80E1F
S1131130F11C808191818D939C9382819381841B86
S1131140950B8930910508F452C09F01240F351F77
S1131150D90113969C938E93129753834283A3E2EF
S1131160B8E001C0DC018D919C911197821793071F
S1131170C8F312964D915C9113978D01040F151FBE
S11311802017310751F4E9012A813B81420F531F93
S113119013965C934E9312979D01E9014A815B81FA
S11311A08901040F151F80179107C9F4601771078F
S11311B091F0E8018A819B81480F591FE9015B8303
S11311C04A838D919C911197EC0188819981E90161
S11311D09983888307C0E9017983688303C0E9019F
S11311E099838883A217B30711F02D933C9322812E
S11311F0338180911F0890912008821B930B909358
S1131200200880931F0840911D0850911E088417E0
S1131210950720F490931E0880931D0880911B0865
S113122090911C08282B392B33832283118210823E
S11312300EC0E12CF12C0BC0E12CF12C08C0E12CE8
S1131240F12C05C0E12CF12C02C0E12CF12C0E9400
S1131250F826C701DF91CF911F910F91FF90EF9076
S11312600895CF93DF93009709F468C0FC01349785
S11312702281338140911B0850911C08B9016423D9
S11312807523672B09F45AC060817181672B09F0BB
S113129055C0EF0140955095242335233383228391
S11312A00E94F2264A815B8180911F089091200858
S11312B0840F951F9093200880931F08E3E2F8E0C1
S11312C001C0FC01808191818C179D07D0F322819C
S11312D03381BF01620F731FC617D70729F4240F88
S11312E0351F33832283EF012A813B81DE01A20F64
S11312F0B31F8A179B07C9F4809121089091220893
S1131300A817B90779F012968D919C911397280F1D
S1131310391F3B832A83A081B1818D919C9199834C
S1131320888305C0B983A88302C099838883EC1796
S1131330FD0711F0D183C0830E94F826DF91CF917D
S11313400895EF92FF920F931F93CF93DF93EC01D5
S1131350E42E2898862F80680E94CB21EE20B1F0DD
S11313600FEF0E0D10E00F5F1F4F0C0F1D1FF12C20
S113137080E00E94CB218F3F09F4F39489930C17EA
S11313801D07B1F7FE1004C085E003C085E001C06D
S113139080E0289ADF91CF911F910F91FF90EF90F9
S11313A00895CF93DF93EC012898862F80680E94DC
S11313B0CB2180E00E94CB21289A8F3F11F495E045
S11313C001C090E08883892FDF91CF910895CF9356
S11313D0DF931F921F92CDB7DEB7EFE7FBE181E009
S11313E0808324EF31E03283218322E836E03483A2
S11313F0238320E931E03683258317821086818791
S1131400828720E130E0348723872DE030E036877F
S1131410258722E330E0308B2787118A128A838B59
S1131420848B88EB9BE0968B858B8AE090E0908F91
S1131430878B118E10929A1B1092991B10929C1BF1
S113144010929B1B0E94BD21209A289A198220E1A8
S113145037E289818F5F898321503109D1F76FE0A9
S1131460CE0102969EDF8A818936C9F780E00F900B
S11314700F90DF91CF9108950F931F93CF93DF9334
S11314801F921F92CDB7DEB78C0142E0CE010196C8
S113149058DF2A8130E0322F22279981292BF80145
S11314A0318320830F900F90DF91CF911F910F9183
S11314B00895CF93C62F28980E94CB218C2F0E9489
S11314C0CB21289A80E0CF9108951F93CF93DF9387
S11314D01F921F92CDB7DEB7198279DF182F1982B8
S11314E08091881B813009F083C080918E1B90917C
S11314F08F1B8436910541F0883C910541F0C297D9
S113150041F483E0898305C082E0898302C081E0DD
S1131510898380918A1B90918B1B8430910531F0D3
S11315208830910539F0029749F40BC089818860AD
S1131530898307C089818C60898303C08981846021
S1131540898380918C1B90918D1B803A21E09207B6
S1131550C1F170F48A31910521F118F40D97E9F085
S113156028C08433910509F1803D910531F121C0F2
S113157082302DE0920789F140F4813423E0920710
S113158021F18C37964029F114C084302AE1920766
S113159041F18231944349F10CC08981806189838E
S11315A027C089818062898323C08981806389837C
S11315B01FC08981806489831BC089818065898378
S11315C017C089818066898313C089818067898374
S11315D00FC08981806889830BC089818069898370
S11315E007C08981806A898303C08981806B89836C
S11315F0698180E15EDF63E1CE010196D2DE8981FB
S11316008F7789839091891B913011F48068898345
S1131610698183E14EDF198280917F1B813009F05B
S11316205BC08091801B9091811B853F9105C1F027
S113163020F48D37910549F011C0843F21E09207D1
S113164039F0883E934039F009C082E0898308C0AC
S113165084E0898305C088E0898302C08CE08983A3
S11316608091821B9091831B803D910531F148F458
S11316708A319105B1F084339105B9F00D97C9F41D
S11316800CC0813423E0920701F18C3726E09207E5
S113169001F1803A914069F414C0898180618983A1
S11316A01BC089818062898317C089818063898393
S11316B013C08981806489830FC08981806589838F
S11316C00BC089818066898307C08981806789838B
S11316D003C0898180688983698181E1EADE6FE0E2
S11316E0CE0102965EDE812F0F900F90DF91CF9195
S11316F01F910895CF93DF931F921F92CDB7DEB74A
S113170066E2CE010196B8DE8823A9F0853051F453
S11317108091991B90919A1B019690939A1B8093A8
S1131720991B09C080919B1B90919C1B01969093DF
S11317309C1B80939B1B89819A810F900F90DF9152
S1131740CF910895CF92DF92EF92FF92CF93FC0155
S11317504091801B5091811B453F5105B1F09A0186
S1131760A5E2B6E00E940E36481B590B56954795E4
S1131770840F951F0024880F991F001C880F991F40
S1131780001C892F902DC82F01C0C2E0BF01FF0F9C
S1131790880B990B0E94853020E030E04CE850E43F
S11317A00E949E316B017C016C2F70E080E090E020
S11317B00E9485309B01AC01C701B6010E949E3195
S11317C020E030E04AE754E40E94EA2FCF91FF90F2
S11317D0EF90DF90CF9008958DDFB4CF0895EAE0C5
S11317E0F1E080818760808308958230910531F42F
S11317F0EBE0F1E08081846080830895813091057D
S113180031F4EBE0F1E08081826080830895892BDC
S113181029F4EBE0F1E080818160808308958230D7
S1131820910531F4EBE0F1E080818B7F80830895B2
S11318308130910531F4EBE0F1E080818D7F80838C
S11318400895892B29F4EBE0F1E080818E7F808379
S113185008958230910539F4EBE0F1E0908184E061
S11318608927808308958130910539F4EBE0F1E014
S1131870908182E0892780830895892B31F4EBE0FD
S1131880F1E0908181E0892780830895FC0103962B
S1131890928381832FEF3FEF348323839683858361
S11318A09087878310820895FC011186108608951D
S11318B0CF93DF939C01FB01DC011196CD91DC9168
S11318C01297D383C2838C819D81958384838C8179
S11318D09D81DC0113967C936E9312977D836C83B8
S11318E031872087F90180818F5F8083DF91CF91D9
S11318F00895CF93DF93EB01488159814F3F2FEF38
S1131900520721F4FC01A781B0850DC0DC011396B8
S113191001C0DF011296ED91FC9113972081318172
S113192042175307B0F71296ED91FC911397FB837E
S1131930EA83D583C483BD83AC831396DC93CE93AF
S1131940129799878887FC0120812F5F2083DF917C
S1131950CF910895CF93DF93FC01A085B185C28117
S1131960D381848195819D838C83C481D581828137
S113197093819B838A8311968D919C911297E8178A
S1131980F90731F48481958112969C938E93119773
S1131990118610868C9181508C93DF91CF9108959C
S11319A0CF93DF93CDB7DEB728970FB6F894DEBF99
S11319B00FBECDBFFE01319688E0DF011D928A95EE
S11319C0E9F70E94571FA12CB12CC12CD12CE12C7A
S11319D0F12C03E020E030E048EC50E06BE076E0EE
S11319E085E295E00E94D221813019F080E090E0F8
S11319F0FCDE0E94601F182F88EE93E00E94892469
S1131A0082E090E026DF1123A1F30E946C1F0F2EC9
S1131A10F9EAEF2EFBE1FF2EF02D01E00F2EFFE09F
S1131A206F2EF6E07F2EF02D0F2EFFE18F2EF6E0C5
S1131A309F2EF02D20E04FEF5FEF60E070E080918B
S1131A40A51B9091A61B0E94A51D813009F0A6C07C
S1131A500E94F2260FB6F8940F92F7011081C1800C
S1131A60D280A380B4800F900FBE0E94F826153058
S1131A7009F485C030F41230B1F0143009F463C0B5
S1131A808DC0173009F483C018F0183049F086C0AF
S1131A900FB6F8940F920093341A0F900FBE7EC0C5
S1131AA00E9475207BC080E090E09FDEB601660F47
S1131AB0771FCC0CDD1CCC0CDD1CCC0CDD1C6C0DA0
S1131AC07D1D072E000C880B990B0E948530162F64
S1131AD0D72EC82E592E862F9D2DAC2DB52D89833A
S1131AE09A83AB83BC83B501BB0C880B990B0E9412
S1131AF085306D837E838F8398875F92CF92DF9248
S1131B001F937F926F920E94382088858F938F81D4
S1131B108F938E818F938D818F939F928F920E944A
S1131B20382020E044E650E0BE016F5F7F4F809193
S1131B303B1A90913C1A0E94391A0FB6F894DEBFF2
S1131B400FBECDBF2BC00FB6F8940F920093331A7B
S1131B500F900FBE19821A821B821C821D821E8264
S1131B601F82188620E044E650E0BE016F5F7F4F7D
S1131B7080913B1A90913C1A0E94391A0FC00FB6FB
S1131B80F8940F921092331A0F900FBE07C00FB63D
S1131B90F8940F921092341A0F900FBE80E090E0E8
S1131BA03EDE48CFCF93DF931F921F92CDB7DEB7AF
S1131BB00E9433289A83898364E170E0CE01019600
S1131BC00E94E622F9CFCF93DF93CDB7DEB76197BA
S1131BD00FB6F894DEBF0FBECDBF1982F12C3324AB
S1131BE0339410E06894DD24D2F86894222422F817
S1131BF00EC00F2EF3E0DF2EF02D09C00F2EF3E000
S1131C00DF2EF02D04C00F2EF3E0DF2EF02D809197
S1131C10341A813009F00AC18091331A811106C146
S1131C200E9433289B838A8320E046E950E0BE016A
S1131C306F5F7F4F8091391A90913A1A0E94A51DC7
S1131C408130D9F48981882319F08330A8F408C03D
S1131C50139D102D1124FF24F394332433940DC0C9
S1131C608DEC189F112D112416951695F12C0F2E1D
S1131C70F5E03F2EF02D01C0F12C139D802D112491
S1131C800E94992068EC70E0CE0102960E94E62240
S1131C9080E06BD9888B81E068D9E82E83E065D930
S1131CA0C82E82E062D9898B20E048E250E060E0EF
S1131CB070E08091A71B9091A81B0E94A51D8091A4
S1131CC02F1A9091301AA091311AB091321A8C8740
S1131CD09D87AE87BF87A0902D1AB0902E1A609072
S1131CE02B1A70902C1A60E070E08091A71B9091E1
S1131CF0A81B0E94091C9AE09F1540F48981811158
S1131D0005C00E941420FF24F39406C0FF2021F094
S1131D108981811101C0F394432C512C149D4001FD
S1131D20159D900C112420E030E044E353E46C85CD
S1131D307D858E859F850E949E312BED3FE049E491
S1131D4050E40E94EA2F0E9452306C877D878E8770
S1131D509F87C3016AE070E00E94FB35FB01C50167
S1131D606AE070E00E94FB35CB01A98808899401E0
S1131D704C855D85BF010E94D21FAFE18A16910494
S1131D8034F0BCE38B169104E4F0A988A88A88890E
S1131D9081508331B0F41C821D821E821F821886FA
S1131DA019861A861B8620E044E650E0BE016C5F6B
S1131DB07F4F80913B1A90913C1A0E94391A0E94DD
S1131DC014208BE5881691049CF494E0D91210C079
S1131DD08981833008F040C01F5F149D4001159D28
S1131DE0900C1124AAE58A1691040CF002CF15C0B8
S1131DF01814190434F5B3E0DB1228C08981833048
S1131E0008F005CF1150149D4001159D900C11242C
S1131E1004C084E0D81609F4F1CE181419040CF4A3
S1131E20F6CE93E0D912F3CED22CF1CE80E00E940C
S1131E30992084E690E00E948924F12C10E0D22CB1
S1131E40E6CEAAE58A16910464F30AC0BAE58B16B5
S1131E5091040CF4DCCEDDCF18141904BCF3F1CFDB
S1131E6084E0D81609F4CFCEDCCFCF93DF93CDB77F
S1131E70DEB7A4970FB6F894DEBF0FBECDBFFE0148
S1131E80319688E0DF011D928A95E9F719861B8651
S1131E901A861D861C861E861F8600E0B1E0BCA340
S1131EA018A219A21AA21BA21C8E1D8E1E8E1F8E92
S1131EB00F2EFFE22F2EF6E03F2EF02D8091341AE4
S1131EC08823E1F3F8944091351A1092351A109151
S1131ED0361A1092361A7894BE01665F7F4F8E854B
S1131EE058D6412FBE01645F7F4F8F8569D620E0AD
S1131EF041E050E060E070E08091A11B9091A21B52
S1131F000E94A51D8A859B859093281A8093271A81
S1131F108C859D8590932A1A8093291A60E070E03D
S1131F208091A11B9091A21B0E94091C20E04FEFFD
S1131F305FEF60E070E080919F1B9091A01B0E9476
S1131F40A51D813009F0BACF20E04FEF5FEF60E0CC
S1131F5070E08091A71B9091A81B0E94A51DC090C2
S1131F602F1AD090301AE090311AF090321A609003
S1131F702D1A70902E1A40902B1A50902C1A60E053
S1131F8070E08091A71B9091A81B0E94091C20E07F
S1131F9040E050E0BE016F5F7F4F80913B1A90910B
S1131FA03C1A0E94A51D8130C9F420E044E150E0B0
S1131FB0BE016F5F7F4F80913B1A90913C1A0E9443
S1131FC0A51D89809A80AB80BC808D819E81AF8164
S1131FD0B885888F998FAA8FBB8F14C0B301072C43
S1131FE0000C880B990B0E9485304B015C01B201F7
S1131FF0052C000C880B990B0E948530688F798F13
S11320008A8F9B8FB301770C880B990B0E948530C4
S11320109B01AC01C501B4010E941C2F6C8B7D8B0C
S11320208E8B9F8BB201550C880B990B0E948530C7
S11320309B01AC01688D798D8A8D9B8D0E941C2F2C
S11320402B013C012C893D894E895F89CA01B90164
S11320500E949E314B015C01A3019201C301B201B4
S11320600E949E31688F798F8A8F9B8F288D398D3E
S11320704A8D5B8DC501B4010E941D2F0E940B3255
S11320804B015C0120E030E046E953E40E94E32F79
S11320908823C4F420E030E04CE452E4C501B401E8
S11320A00E949E3120E030E046E953E40E94EA2F8A
S11320B020E030E040EC51E40E941D2F0E94573094
S11320C0162F01C01BE420E030E040EA50E4C501D3
S11320D0B4010E94933118160CF072C12C893D8909
S11320E04E895F89C301B2010E94902FA701960116
S11320F00E941C2F688B798B8A8B9B8BCE01409618
S11321000E94D807488859886A887B88530142010D
S1132110E894B7F829E134E046E05FE3C501B4018F
S11321200E94933118160CF4ABC022E73AE84EE84B
S11321305CE3C501B4010E94E32F882324F09CA131
S1132140911103C09DC0A1E0ACA320E030E0A9013F
S1132150C301B2010E9493318823D4F1E12EF12C02
S1132160B7010F2C000C880B990B0E9485306C8BE7
S11321707D8B8E8B9F8B20E030E046E154E4C501DB
S1132180B4010E949E319B01AC016C897D898E89CA
S11321909F890E941C2F4B015C0120E030E040E24B
S11321A051E46C8D7D8D8E8D9F8D0E949E319B019F
S11321B0AC01C501B4010E941C2F0E945230E616E6
S11321C0F706E4F18B017723E4F500E010E039C071
S11321D0012F10E0B801012E000C880B990B0E940E
S11321E085306B017C0120E030E046E154E4C50118
S11321F0B4010E949E319B01AC01C701B6010E944B
S11322001C2F6B017C0120E030E040E251E468A126
S113221079A18AA19BA10E949E319B01AC01C701B7
S1132220B6010E941C2F0E9452300617170744F073
S11322307B01772334F4E12CF12C03C0870101C026
S11322407801A30192016C8D7D8D8E8D9F8D0E94EE
S11322501D2F6C8F7D8F8E8F9F8FA301920168A19C
S113226079A18AA19BA10E941C2F68A379A38AA3A8
S11322709BA386E08F87B4E0BE8721E0298770C0E6
S113228020E030E0A901C301B2010E949331882308
S1132290A4F12EEA37E441E65EE3C501B4010E94ED
S11322A09E312AE939E949E95EE30E941D2F6B0159
S11322B07C0120E030E040E252EC0E949E310E941A
S11322C052308B0185E08E8720E030E040E252E41A
S11322D0C701B6010E949E310E9452307B0186E004
S11322E08F8784E089871CA218A219A21AA21BA2B4
S11322F01C8E1D8E1E8E1F8E33C02EEA37E441E6DF
S11323005EE3C501B4010E949E312AE939E949E935
S11323105EE30E941D2F6B017C0120E030E040E26F
S113232052E40E949E310E9452308B0194E09E87B9
S113233020E030E040E252ECC701B6010E949E3139
S11323400E9452307B0185E08F8783E089871CA23D
S113235018A219A21AA21BA21C8E1D8E1E8E1F8EDD
S11323601F930F933F922F920E943820FF92EF9277
S1132370AEE3B6E0BF93AF930E9438208E851F92E0
S11323808F938EE496E09F938F930E9438208F85DD
S11323901F928F9387E696E09F938F930E94382035
S11323A09E01215F3F4FAE01425F5F4FB701C801FD
S11323B0C9D30FB6F894DEBF0FBECDBF00E008C08E
S11323C0011103C00E94142001E0ABD3AED31986DF
S11323D020E040E050E0BE01675F7F4F8091391AF2
S11323E090913A1A0E94391A69CDCF93DF93CDB7F1
S11323F0DEB7A2970FB6F894DEBF0FBECDBF198229
S11324001A821B821C820E9433289E838D831E8E17
S11324101F8E18A219A21B8A1C8A1D8A1E8A1F8657
S1132420188A198A1A8A1B861C861D861E86E12C28
S1132430F12C812C912C412C312C212C512C68E233
S113244070E0CE0105960E94E6228091341A88231A
S113245009F48DC120E04FE050E060E070E080912D
S1132460A11B9091A21B0E94A51D6090271A709039
S1132470281A0091291A10912A1A60E070E08091BC
S1132480A11B9091A21B0E94091CB3016819790930
S1132490072E000C880B990B0E94853028EF33E53A
S11324A043E25FE30E949E314B015C01B8016E1967
S11324B07F09072E000C880B990B0E94853028EFAA
S11324C033E543E25FE30E949E316B017C019B0193
S11324D0AC01C501B4010E941D2F20E030E040E0B2
S11324E05FE30E949E316F8B788F898F9A8FA5014D
S11324F09401C701B6010E941C2F20E030E043E1A3
S113250053E40E94EA2F4B015C0166D92B893C8974
S11325104D895E890E941C2F6B017C019F7720E00E
S113252030E040E251E40E94E32F88234CF081E044
S11325308AA31F821B8E80E48C8F8FE38D8F05C04E
S11325401AA24F823B8E2C8E5D8E2F813B8D4C8D3B
S11325505D8D60E070E080E89FE30E941C2FA50180
S113256094010E949E314B015C0124ED32E047E36B
S11325705AE3C701B6010E949E312F813B8D4C8DD9
S11325805D8D0E949E31A50194010E941D2F4B0177
S11325905C01C980DA80EB80FC8020E030E040E020
S11325A05FE30E949E31A70196010E941D2F6F8355
S11325B0788789879A870E94E72F9B01AC016F89EE
S11325C0788D898D9A8D0E949E319B01AC016B851B
S11325D07C858D859E850E941D2F6B877C878D87CA
S11325E09E876F81788589859A850E9401329B0137
S11325F0AC016F89788D898D9A8D0E949E319B01E3
S1132600AC016F85788989899A890E941D2F6F870B
S1132610788B898B9A8BA7019601C501B4010E941E
S11326201D2F69837A838B839C832FEE3CED4BE2D1
S11326305BE36E8D7F8D88A199A10E941D2F6B0194
S11326407C018AA1811122C0242D332D422D552DC8
S11326506F89788D898D9A8D0E94E32F811116C020
S1132660242D332D422D552DC701B6010E941D2F57
S11326709B01AC01C701B6010E94EA2FB62EA72E1A
S1132680982E892E81E090E0B0D807C081E090E0D8
S1132690C6D8B42CA32C922C852C242D332D422D5A
S11326A0552D6B2D7A2D892D982D0E949E319B01DD
S11326B0AC0169817A818B819C810E941D2F698381
S11326C07A838B839C83CE0101960E94D8072B2D9D
S11326D03A2D492D582D60E070E080E89FE30E9478
S11326E01C2FA70196010E949E316E8F7F8F88A3B5
S11326F099A320E04FE050E060E070E08091A71BD8
S11327009091A81B0E94A51D89819A81AB81BC81EF
S113271080932F1A9093301AA093311AB093321ADF
S11327206B857C858D859E850E94523070932E1A10
S113273060932D1A6F85788989899A890E9452300D
S113274070932C1A60932B1A60E070E08091A71BA1
S11327509091A81B0E94091C60E070E080919F1B6F
S11327609091A01B0E94091C7801430168CE05E6E4
S113277010E0A42CB32CC22CD52C2ED89B01AC0178
S11327806A2D7B2D8C2D9D2D0E941D2FA62EB72EDC
S1132790C82ED92E0150110981F7842D932DA22D15
S11327A0B52D89839A83AB83BC8320E030E04AEC67
S11327B052E46A2D7B2D8C2D9D2D0E94EA2F6B8B6C
S11327C07C8B8D8B9E8B4F86388A298A5A8A4B86BE
S11327D03C862D865E8633CEF89480E090E039D82E
S11327E0FCCF0E94EF0B80E090E00E94F50B0E946A
S11327F0312E54D20E94430185E49FE10E9431218D
S113280080E00E94A9200E94A50708D182E090E000
S11328100E94F50B0E94650A82E090E000D880E0F7
S113282090E00E940F0C40E061E082E04ED490936F
S11328303E1A80933D1A40E068E081E046D49093CC
S11328403C1A80933B1A40E061E081E03ED49093CF
S11328503A1A8093391A40E061E082E036D49093CA
S1132860381A8093371A81E082D49093A81B8093FE
S1132870A71B81E07CD49093A41B8093A31B81E0CD
S113288076D49093A21B8093A11B43E060E081E087
S11328901CD49093A01B80939F1B43E060E081E0D5
S11328A014D49093A61B8093A51BA12CB12CC12CEE
S11328B0D12CE12CF12C04E020E030E04CE251E09A
S11328C061E876E082ED9DE00E94D22103E020E001
S11328D030E04CE251E06AE876E080ED9CE00E9452
S11328E0D22102E020E030E04CE251E06FE876E0F3
S11328F085E39FE00E94D22105E020E030E04CE235
S113290051E067E976E085EF91E10E94D22101E090
S113291020E030E04CE251E06FE976E083EE9DE0A8
S11329200E94D22178940E940E26C5EAD6E0F8943B
S1132930DF93CF930E9438200F900F90F8CF1F920F
S11329400F920FB60F9211248F938091351A8F5FD7
S11329508093351A8F910F900FBE0F901F9018958A
S11329601F920F920FB60F9211248F938091361AF3
S11329708F5F8093361A8F910F900FBE0F901F9028
S113298018951F920F920FB60F9211240BB60F9247
S11329902F933F934F935F936F937F938F939F9363
S11329A0AF93BF93EF93FF93649905C082E090E0E7
S11329B00E94F50B18C01092341A1092331A82E058
S11329C090E00E940F0C81E090E00E940F0C80E0E8
S11329D090E00E940F0C60E070E08091A51B909144
S11329E0A61B0E947A1D60E070E080919F1B90916D
S11329F0A01B0E947A1DFF91EF91BF91AF919F910F
S1132A008F917F916F915F914F913F912F910F9093
S1132A100BBE0F900FBE0F901F901895279A84B18C
S1132A20806384B9269AE1E0F1E080818066808346
S1132A302F982E98E2E0F1E080818F79808385B130
S1132A408F7C85B98AB18AB98BB18C608BB96C984B
S1132A508DB38DBBE9E6F0E08081806F8083EAE688
S1132A60F0E08081816080838CE18CBB8DB38C61CC
S1132A708DBB84B5806884BDE0E8F0E0808180622D
S1132A80808385B585BD84B5836084BDA1E8B0E04D
S1132A908C9188608C9380818160808385B582600D
S1132AA085BD8C9182608C9380818083E0EBF0E023
S1132AB08081808380818083E0EAF0E0808180836C
S1132AC0089587BD2C9A2D9884E0FB018083089596
S1132AD090E090938B0080938A00E2E0F1E08081A3
S1132AE08064808380818F7D808386E0FB01808386
S1132AF0089587BD2C982D9A85E0FB018083089565
S1132B0090E090938B0080938A00E2E0F1E0808172
S1132B108F7B808380818062808385E0FB0180835A
S1132B20089517BC2C982D98089510928B0010923C
S1132B308A00E2E0F1E080818F7B808380818F7D59
S1132B40808308950F931F93CF93DF93EB01890143
S1132B50181619061CF4BA01B4DF07C0992324F42B
S1132B60BA018195C6DF01C0DCDF1C161D0624F402
S1132B70B8018C2FADDF08C0DD232CF4B8018C2FF5
S1132B808195BEDF01C0D1DFDF91CF911F910F91FD
S1132B900895843019F0853051F008954695FB016D
S1132BA080819181840F911D91838083089546953E
S1132BB0FB0180819181841B910991838083089515
S1132BC0853059F0863089F44695FB0180819181E6
S1132BD0840F911D9183808308954695FB01808124
S1132BE09181841B9109918380830895EF92FF92D0
S1132BF00F931F93CF93DF937C018B01CB010E9432
S1132C002708EC01980121503109A701B8010E945D
S1132C100407882349F08091401A8F5F8093401AFB
S1132C20CE010E94310933C0862F972F8C01FE01FB
S1132C30E80FF91F3197F0806FEF680FCE010E9403
S1132C408E07F81649F080913F1A8F5F80933F1AE0
S1132C50CE010E9431091BC08881833021F0CE014E
S1132C600E94310914C0A80144505109BE016D5F8E
S1132C707F4FEA81F0E0EE0FFF1FE953F44E01901D
S1132C80F081E02D89811995CE010E943109DF91EF
S1132C90CF911F910F91FF90EF90089586EF95E1EA
S1132CA00C94AB2E0895823040F4E82FF0E0EE0F40
S1132CB0FF1FE953F44E7183608308958F929F92AE
S1132CC0AF92BF92CF92DF92EF92FF920F931F9336
S1132CD0CF93DF93882E962E5A018901690184E0EF
S1132CE0C80ED11CC6010E942708EC01C801069633
S1132CF00E9427087C01209711F0892B41F4CE0112
S1132D000E943109C7010E94310980E03CC08882D9
S1132D1083E089839A82A801B501CE0103960E94BB
S1132D2014375801E3E0AE0EB11CAC0EBD1E63E0D7
S1132D30600FCE010E948E07F5018083B8016B5F9E
S1132D407F4F9601AE01C7010E949E06882341F081
S1132D50CE010E943109C7010E94310980E013C0ED
S1132D60862F972FF701E80FF91F1082BC016F5FC0
S1132D707F4FC7010E94872ECE010E943109C701EF
S1132D800E94310981E0DF91CF911F910F91FF9053
S1132D90EF90DF90CF90BF90AF909F908F90089569
S1132DA031E1FC013083319722E220833197A3E3A0
S1132DB0A083319760833197708331971082319764
S1132DC01082319760E860833197108231971082C6
S1132DD031971082319762E06083319763E06083BA
S1132DE0319764E06083319765E06083319766E0F2
S1132DF06083319767E06083319768E0608331973F
S1132E0069E06083319760E1608331973083319763
S1132E1032E13083319733E13083319734E13083C9
S1132E20319735E13083319736E13083319737E19B
S1132E303083319738E13083319739E130833197EA
S1132E4030E23083319731E23083319720833197F8
S1132E5023E220833197408331975083319726E2D0
S1132E602083319727E22083319728E2208331970A
S1132E7029E22083319720E32083319721E32083C3
S1132E808997089588EE93E09093DC1B8093DB1B75
S1132E909093DE1B8093DD1B1092990089EF809341
S1132EA098008BE080939100E1E7F0E080818260FC
S1132EB08083A091151BB091161BCD91CDBFDD91E0
S1132EC0DEBFFF91EF91DF91CF91BF91AF919F91C1
S1132ED08F917F916F915F914F913F912F911F91AE
S1132EE00F91FF90EF90DF90CF90BF90AF909F90A5
S1132EF08F907F906F905F904F903F902F901F9096
S1132F000F900CBE0F900BBE0F900FBE0F90089544
S1132F1081E008950F920FB6F8940F920BB60F92BA
S1132F200CB60F921F9211242F923F924F925F92F0
S1132F306F927F928F929F92AF92BF92CF92DF92C5
S1132F40EF92FF920F931F932F933F934F935F93AF
S1132F506F937F938F939F93AF93BF93CF93DF939D
S1132F60EF93FF93A091151BB091161B0DB60D9214
S1132F700EB60D920E94FE28A091151BB091161B4F
S1132F80CD91CDBFDD91DEBFFF91EF91DF91CF9168
S1132F90BF91AF919F918F917F916F915F914F916D
S1132FA03F912F911F910F91FF90EF90DF90CF9061
S1132FB0BF90AF909F908F907F906F905F904F9055
S1132FC03F902F901F900F900CBE0F900BBE0F9050
S1132FD00FBE0F9008950F920FB6F8940F920BB690
S1132FE00F920CB60F921F9211242F923F924F9280
S1132FF05F926F927F928F929F92AF92BF92CF9285
S1133000DF92EF92FF920F931F932F933F934F936F
S11330105F936F937F938F939F93AF93BF93CF935C
S1133020DF93EF93FF93A091151BB091161B0DB680
S11330300D920EB60D9213BE8091DD1B9091DE1B96
S113304001979093DE1B8093DD1B892B41F48091C3
S1133050DB1B9091DC1B9093DE1B8093DD1B0E9495
S11330603D2881110E94FE28A091151BB091161BCA
S1133070CD91CDBFDD91DEBFFF91EF91DF91CF9177
S1133080BF91AF919F918F917F916F915F914F917C
S11330903F912F911F910F91FF90EF90DF90CF9070
S11330A0BF90AF909F908F907F906F905F904F9064
S11330B03F902F901F900F900CBE0F900BBE0F905F
S11330C00FBE0F90089587DF18950F931F93CF932A
S11330D0DF93082F162F662309F43BC0869FC00197
S11330E0112480960E942708EC01009721F439C02E
S11330F0D983C88303C04F96998388830B8F1C8F11
S11331000FB6F8940F92488159812C8D30E06B8D65
S1133110629FC001639F900D1124BA01680F791F4B
S11331207B836A831A8E5D834C83821B930B840F8B
S1133130951F9F838E838FEF8D8F8E8FCE01089680
S11331400E94460CCE0141960E94460C0F900FBE81
S113315008C08FE190E00E942708EC01892B09F058
S1133160C7CFCE01DF91CF911F910F9108959F9208
S1133170AF92BF92CF92DF92EF92FF920F931F9381
S1133180CF93DF9300D01F921F92CDB7DEB78FE1AC
S113319090E00E9427088C01009709F458C1FC01B3
S11331A0138212821182108215821482178216826F
S11331B0128E81E0838F148E8FEF858F868F780136
S11331C0F8E0EF0EF11CC7010E94460C680181E192
S11331D0C80ED11CC6010E94460C1D821C82A12C63
S11331E099249394BB24BA940FB6F8940F92F801DF
S11331F0928D838D9817F0F480819181892B09F049
S11332001DC1828193810E94DA2AF80113821282FD
S1133210928D9F5F928F9189992339F0C6010E9404
S1133220E129813021F476DE02C0811173DE0F9032
S11332300FBE0DC18C819D81892B19F40F900FBE97
S113324006C1A11005C0CE0101960E94292AA92C0D
S11332500F900FBE0E94F2260FB6F8940F92F80159
S1133260858D8F3F09F4158EF801868D8F3F09F403
S1133270168E0F900FBEBE016C5F7F4FCE0101967C
S11332800E94342A811196C00FB6F8940F92F80167
S1133290928D838D0F900FBE98134AC06C817D81EF
S11332A0C7010E9486290FB6F8940F92F801868D03
S11332B01816ACF48189811105C011C0F801818907
S11332C0882369F0C6010E94E12981110E946F2AB6
S11332D0F801868D8150868F868D18167CF3F8014F
S11332E0B68E0F900FBE0FB6F8940F92858D1816F8
S11332F0ACF48085811105C011C0F8018085882354
S113330069F0C7010E94E12981110E946F2AF80126
S1133310858D8150858F858D18167CF3F801B58EC7
S11333200F900FBE0E94F82681115ECFF3DD5CCFB3
S11333300FB6F8940F92F801868D1816ACF48189B3
S1133340811105C011C0F8018189882369F0C60183
S11333500E94E12981110E946F2AF801868D815013
S1133360868F868D18167CF3F801B68E0F900FBEEB
S11333700FB6F8940F92858D1816ACF480858111E0
S113338005C011C0F8018085882369F0C7010E9437
S1133390E12981110E946F2AF801858D8150858F62
S11333A0858D18167CF3F801B58E0F900FBE0E9420
S11333B0F8261ACF0FB6F8940F92F801868D1816D6
S11333C0ACF48189811105C011C0F8018189882379
S11333D069F0C6010E94E12981110E946F2AF80157
S11333E0868D8150868F868D18167CF38FEFF801B9
S11333F0868F0F900FBE0FB6F8940F92858D181616
S1133400ACF48085811105C011C0F8018085882342
S113341069F0C7010E94E12981110E946F2AF80115
S1133420858D8150858F858D18167CF38FEFF8017B
S1133430858F0F900FBE0E94F82609C0F801828D77
S11334408F5F828F8189882309F4F1CEE7CEC8018A
S11334500F900F900F900F900F90DF91CF911F91CD
S11334600F91FF90EF90DF90CF90BF90AF909F901F
S113347008956F927F928F929F92AF92BF92CF9254
S1133480DF92EF92FF920F931F93CF93DF9300D0BD
S11334901F921F92CDB7DEB78C015B015D834C8315
S11334A0722E812C6624639499249A947C0188E07A
S11334B0E80EF11C6801E1E1CE0ED11C0FB6F894C0
S11334C00F92F801928D838D981720F0F2E07F120D
S11334D06EC07DC1F801448D411115C0F801808191
S11334E09181892B09F079C1828193810E94DA2A22
S11334F0F80113821282928D9F5F928F9189992392
S113350009F44FC046C071101AC050E0B501F8016B
S1133510848195810E941437F801248D84819581DA
S1133520820F911D958384832281338182179307AF
S113353008F453C180819181958384834EC150E006
S1133540B501F801868197810E941437F801848DB2
S113355090E091958195910926813781280F391F33
S113356037832683408151812417350730F4228123
S11335703381820F931F97838683F2E07F122DC1DC
S1133580F801828D882309F428C1828D8150828FAD
S113359024C1C80141960E94E129813021F4BADC9A
S11335A002C08111B7DC0F900FBE81E01EC18C8177
S11335B09D81892B21F40F900FBE80E016C18110EC
S11335C005C0CE0101960E94292A862C0F900FBEB9
S11335D00E94F2260FB6F8940F92F801858D8F3F62
S11335E009F4158EF801868D8F3F09F4168E0F901D
S11335F00FBEBE016C5F7F4FCE0101960E94342A3C
S1133600811196C00FB6F8940F92F801928D838DB4
S11336100F900FBE98134AC06C817D81C7010E9430
S113362086290FB6F8940F92F801868D1816ACF41B
S11336308189811105C011C0F8018189882369F04D
S1133640C6010E94E12981110E946F2AF801868D2A
S11336508150868F868D18167CF3F801968E0F9014
S11336600FBE0FB6F8940F92858D1816ACF48085B2
S1133670811105C011C0F8018085882369F0C70154
S11336800E94E12981110E946F2AF801858D8150E1
S1133690858F858D18167CF3F801958E0F900FBEDB
S11336A00E94F82681110ACF35DC08CF0FB6F894B2
S11336B00F92F801868D1816ACF48189811105C02A
S11336C011C0F8018189882369F0C6010E94E129AB
S11336D081110E946F2AF801868D8150868F868D14
S11336E018167CF3F801968E0F900FBE0FB6F8945F
S11336F00F92858D1816ACF48085811105C011C018
S1133700F8018085882369F0C7010E94E1298111AD
S11337100E946F2AF801858D8150858F858D18163A
S11337207CF3F801958E0F900FBE0E94F826C6CE4A
S11337300FB6F8940F92F801868D1816D4F4818987
S1133740811106C016C0F8018189811105C011C01C
S11337507801F1E1EF0EF11CC7010E94E12981110A
S11337600E946F2AF801868D8150868F868D1816E7
S113377054F38FEFF801868F0F900FBE0FB6F894B5
S11337800F92858D1816D4F48085811106C016C059
S1133790F8018085811105C011C07801F8E0EF0EB1
S11337A0F11CC7010E94E12981110E946F2AF801CE
S11337B0858D8150858F858D181654F38FEFF80110
S11337C0858F0F900FBE0E94F82680E00EC0F8018E
S11337D0448D442309F482CEB2CEF801828D8F5FEA
S11337E0828F81898111D5CEDECE0F900F900F90FC
S11337F00F900F90DF91CF911F910F91FF90EF9059
S1133800DF90CF90BF90AF909F908F907F906F90FC
S113381008959F92AF92BF92CF92DF92EF92FF9260
S11338200F931F93CF93DF9300D01F921F92CDB7B6
S1133830DEB78C017D836C83A12C99249394BB24E3
S1133840BA947C0188E0E80EF11C6801E1E1CE0E37
S1133850D11C0FB6F8940F92F801928D838D9817AE
S113386000F580819181892B09F02BC1828193819C
S11338700E94DA2AF80113821282928D9F5F928F3E
S11338809189992341F0C80141960E94E129813030
S113389021F440DB02C081113DDB0F900FBE81E0BB
S11338A018C18C819D81892B21F40F900FBE80E07B
S11338B010C1A11005C0CE0101960E94292AA92C8D
S11338C00F900FBE0E94F2260FB6F8940F92F801E3
S11338D0858D8F3F09F4158EF801868D8F3F09F48D
S11338E0168E0F900FBEBE016C5F7F4FCE01019606
S11338F00E94342A811196C00FB6F8940F92F801F1
S1133900928D838D0F900FBE98134AC06C817D8178
S1133910C7010E9486290FB6F8940F92F801868D8C
S11339201816ACF48189811105C011C0F801818990
S1133930882369F0C6010E94E12981110E946F2A3F
S1133940F801868D8150868F868D18167CF3F801D8
S1133950B68E0F900FBE0FB6F8940F92858D181681
S1133960ACF48085811105C011C0F80180858823DD
S113397069F0C7010E94E12981110E946F2AF801B0
S1133980858D8150858F858D18167CF3F801B58E51
S11339900F900FBE0E94F82681115BCFBBDA59CF7E
S11339A00FB6F8940F92F801868D1816ACF481893D
S11339B0811105C011C0F8018189882369F0C6010D
S11339C00E94E12981110E946F2AF801868D81509D
S11339D0868F868D18167CF3F801B68E0F900FBE75
S11339E00FB6F8940F92858D1816ACF4808581116A
S11339F005C011C0F8018085882369F0C7010E94C1
S1133A00E12981110E946F2AF801858D8150858FEB
S1133A10858D18167CF3F801B58E0F900FBE0E94A9
S1133A20F82617CF0FB6F8940F92F801868D181662
S1133A30D4F48189811106C016C0F80181898111ED
S1133A4005C011C07801F1E1EF0EF11CC7010E941D
S1133A50E12981110E946F2AF801868D8150868F99
S1133A60868D181654F38FEFF801868F0F900FBED2
S1133A700FB6F8940F92858D1816D4F480858111B1
S1133A8006C016C0F8018085811105C011C07801F7
S1133A90F8E0EF0EF11CC7010E94E12981110E9498
S1133AA06F2AF801858D8150858F858D181654F302
S1133AB08FEFF801858F0F900FBE0E94F82680E0EB
S1133AC008C0F801828D8F5F828F81898111DBCEDE
S1133AD0E4CE0F900F900F900F900F90DF91CF9145
S1133AE01F910F91FF90EF90DF90CF90BF90AF9018
S1133AF09F900895CF93DF93FC01928D838D981747
S1133B00D0F4828D8F5F828F868D8F3F79F4818987
S1133B10882399F0EB01CF0141960E94E129882383
S1133B2071F0209771F081E088830CC0868D8F5FDF
S1133B30868F81E007C080E005C081E003C081E09A
S1133B4001C081E0DF91CF9108956F927F928F92AF
S1133B509F92AF92BF92CF92DF92EF92FF920F9318
S1133B601F93CF93DF9300D01F921F92CDB7DEB780
S1133B708C015B015D834C83622E812C77247394CA
S1133B8099249A946C0188E0C80ED11C7801E1E173
S1133B90EE0EF11C0FB6F8940F92F801828D882373
S1133BA009F445C0E680F780448D4423A9F050E031
S1133BB0C701840F951F97838683228133818217DF
S1133BC0930720F08081918197838683F801668131
S1133BD07781C5010E941437611019C0F801828DE4
S1133BE08150828F80819181892B29F40E941A2B24
S1133BF0F80193838283F80180858823A1F0C801AA
S1133C0008960E94E129813071F484D90CC0F8012E
S1133C10F782E6828189882331F0C80141960E94A7
S1133C20E129811177D90F900FBE81E01AC18C81EF
S1133C309D81892B21F40F900FBE80E012C1811069
S1133C4005C0CE0101960E94292A872C0F900FBE31
S1133C500E94F2260FB6F8940F92F801858D8F3FDB
S1133C6009F4158EF801868D8F3F09F4168E0F9096
S1133C700FBEBE016C5F7F4FCE0101960E94342AB5
S1133C808111A2C00FB6F8940F92F801828D0F90A3
S1133C900FBE811157C080819181892B49F40FB6E1
S1133CA0F8940F92828193810E94782A0F900FBE1C
S1133CB06C817D81C7010E9486290FB6F8940F920A
S1133CC0F801868D1816ACF48189811105C011C0E4
S1133CD0F8018189882369F0C7010E94E1298111D3
S1133CE00E946F2AF801868D8150868F868D181662
S1133CF07CF3F801968E0F900FBE0FB6F8940F92D6
S1133D00858D1816ACF48085811105C011C0F801A9
S1133D108085882369F0C6010E94E12981110E94EF
S1133D206F2AF801858D8150858F858D18167CF357
S1133D30F801958E0F900FBE0E94F82681112ACFAC
S1133D40E9D828CF0FB6F8940F92F801868D18168B
S1133D50ACF48189811105C011C0F80181898823DF
S1133D6069F0C7010E94E12981110E946F2AF801BC
S1133D70868D8150868F868D18167CF3F801968E79
S1133D800F900FBE0FB6F8940F92858D1816ACF4F1
S1133D908085811105C011C0F8018085882369F0F0
S1133DA0C6010E94E12981110E946F2AF801858DC4
S1133DB08150858F858D18167CF3F801958E0F90B0
S1133DC00FBE0E94F826E6CE0FB6F8940F92F801C3
S1133DD0868D1816D4F48189811106C016C0F801A5
S1133DE08189811105C011C07801F1E1EF0EF11C48
S1133DF0C7010E94E12981110E946F2AF801868D72
S1133E008150868F868D181654F38FEFF801868FB4
S1133E100F900FBE0FB6F8940F92858D1816D4F438
S1133E208085811106C016C0F8018085811105C006
S1133E3011C07801F8E0EF0EF11CC7010E94E129DE
S1133E4081110E946F2AF801858D8150858F858D9F
S1133E50181654F38FEFF801858F0F900FBEC8D753
S1133E6080E00F900F900F900F900F90DF91CF9103
S1133E701F910F91FF90EF90DF90CF90BF90AF9084
S1133E809F908F907F906F900895AB01009711F4ED
S1133E901092341ABC0189EA9BE10E94143760E055
S1133EA070E08091A51B9091A61BB3CC08958091DE
S1133EB0411A811104C00E9460018093DF1B0895A0
S1133EC028EE33E045E45FE160E08091DF1B0E946F
S1133ED07C018093411A0895CF93DF93CDB7DEB769
S1133EE0EC970FB6F894DEBF0FBECDBF8091411A98
S1133EF0882309F44EC0198287E08A8388E0EFEAB8
S1133F00F6E0DE01139601900D928A95E1F724EB19
S1133F1030E03B872A8785EF90E09D878C8788E394
S1133F20888B8E871F8685E1898B8A8B8B8B8C8B04
S1133F301E8A1D8A8AE590E0988F8F8B3A8F298F8D
S1133F408EE091E09C8F8B8F88EC90E09E8F8D8F1C
S1133F508EE1FE013196DE015F9601900D928A9505
S1133F60E1F780910006882359F04EE150E0BE014C
S1133F70615E7F4F8091DF1B0E94330281E009C0A4
S1133F804EE150E0BE01615E7F4F8091DF1B76D130
S1133F9081E0EC960FB6F894DEBF0FBECDBFDF9183
S1133FA0CF910895AF92CF92EF920F93CF93DF9377
S1133FB0CDB7DEB72D970FB6F894DEBF0FBECDBFD9
S1133FC0E091411AEE2319F1E1E0E9839B838A83AE
S1133FD07D836C835F834E83398728870A87EB86CA
S1133FE0CC86AD8680910106882351F04DE050E0E7
S1133FF0BE016F5F7F4F8091DF1B0E94330207C0B9
S11340004DE050E0BE016F5F7F4F80E037D12D96C9
S11340100FB6F894DEBF0FBECDBFDF91CF910F91E5
S1134020EF90CF90AF900895CF93DF931F92CDB7C9
S1134030DEB78091411A8823B9F083E089838091A7
S11340400306882351F041E050E0BE016F5F7F4FCB
S11340508091DF1B0E94330207C041E050E0BE01A3
S11340606F5F7F4F80E00AD10F90DF91CF91089569
S1134070CF93DF93CDB7DEB7C456D1090FB6F8940A
S1134080DEBF0FBECDBFAE0146595F4FFA0161914D
S11340907191AF018AE08983CE0102960E94643750
S11340A08823C9F020910A06222361F09927AC01E4
S11340B04F5F5F4FBE016F5F7F4F8091DF1B0E9498
S11340C0330209C09927AC014F5F5F4FBE016F5F98
S11340D07F4F80E0D3D0CC59DF4F0FB6F894DEBFCA
S11340E00FBECDBFDF91CF910895CF93DF931F9281
S11340F0CDB7DEB78091411A8823B9F089E089836E
S113410080910906882351F041E050E0BE016F5FC1
S11341107F4F8091DF1B0E94330207C041E050E0D3
S1134120BE016F5F7F4F80E0A9D00F90DF91CF91E8
S113413008958A3508F08AE5E82FF0E0EE0FFF1FB6
S1134140E954F94F808191819093AB008093AA0048
S11341500895A0EAB0E09C9190629C93E1EAF0E0BB
S11341609081986190839C9192609C9390819260DD
S113417090832FE33CE93093A7002093A600E1E06D
S1134180F1E0908190619083D4CF0895EF92FF92F3
S11341900F931F93CF93DF939091431A9F3F11F096
S11341A0981358C0FB018081811105C01092451AF3
S11341B01092441A0CC09091461A891741F0E2E417
S11341C0FAE11482138212828FEF818343C08091BB
S11341D0441A9091451A9C0122503109240F351F2D
S11341E02536310540F0E2E4FAE1138212821482AA
S11341F08FEF81832FC08A01EB010F2EF2E4EF2EA3
S1134200FAE1FF2EF02DF70124812F5F2483425021
S113421051096E5F7F4F895B954E0E941437F701F9
S11342204281538142505109BA01600F711F738357
S113423062839881898198130DC0E091E01BF0910D
S1134240E11B87E49AE11995F70114821382128223
S11342508FEF8183DF91CF911F910F91FF90EF90AA
S113426008959093E11B8093E01B66EC70E280E07C
S11342700E9453168FEF8093431A08955F926F92B2
S11342807F928F929F92AF92BF92CF92DF92EF92E2
S1134290FF920F931F93CF93DF93582E5B018A01F4
S11342A08CE290E00E9427087C01980136952795BE
S11342B0ADE0B3EC0E940E36929582958F708927FB
S11342C09F7089274AE2489F9001499F300D11242D
S11342D041E00217130709F440E098013695279549
S11342E0ADE0B3EC0E940E36929582958F708927CB
S11342F09F708927840F0115110559F190E0C12C95
S1134300D12C66246A94680E470182E0880E911CC1
S1134310E8010B32110510F0CAE2D0E0772473945F
S1134320790EF70190836182B5016C0D7D1DAE019C
S1134330C4010E9414379E012E5F3F4FA70160E025
S1134340852D0E945E16CC0EDD1E0C1B1D0B972DB9
S1134350F9F6C7010E94310981E0DF91CF911F91E5
S11343600F91FF90EF90DF90CF90BF90AF909F9010
S11343708F907F906F905F90089584B1876084B927
S113438023988CB581608CBD8CB58C658CBD8CB547
S11343908F7D8CBD08958EBD00000DB407FEFDCF4A
S11343A08EB508954F925F926F927F928F929F92F3
S11343B0AF92BF92CF92DF92EF92FF920F931F932F
S11343C0CF93DF933C015B014A012901C114D1045D
S11343D039F4CA010E9427086C01892B09F4E4C04E
S11343E088E290E00E942708EC01892B71F0D88EB6
S11343F0CF8A81E0881A9108C80CD91CD5018C9108
S1134400898F8C91811105C018C0C6010E943109A1
S1134410CBC0AE01465E5F4FF5013196B8E0AB0EFE
S1134420B11CCF012191DA012D93AD01DC018C91F6
S1134430882319F0AE16BF06A1F718A2102F063074
S113444008F015E01E8B19A31AA25E01B2E0AB0EB0
S1134450B11CC5010E94540CCE010C960E94540C50
S1134460D987C88786E090E0811B91099D878C8756
S1134470DB8BCA8B1BA21CA21DA21EA21FA2A2011F
S1134480B301C6010E94D01699838883E114F10414
S113449019F0F701D183C0830FB6F8940F9280917D
S11344A0B61A8F5F8093B61A8091151B9091161BD4
S11344B0892BD9F5D093161BC093151B8091B61A7E
S11344C0813009F041C00F2EFFEDEF2EFAE1FF2EEF
S11344D0F02D0F2EF5E1CF2EFBE1DF2EF02DC701DD
S11344E00E94460CF9E0EF0EF11CEC14FD04B9F740
S11344F086ED9AE10E94460C8DEC9AE10E94460CEE
S113450080EC9AE10E94460C87EB9AE10E94460CEB
S113451086ED9AE19093CC1A8093CB1A8DEC9AE1B4
S11345209093CA1A8093C91A0FC08091B21A81114C
S11345300BC0E091151BF091161B8689081720F01B
S1134540D093161BC093151B8091AE1A8F5F809376
S1134550AE1A8E899091B31A981710F48093B31AF7
S113456090E09C01220F331F220F331F220F331FB1
S1134570820F931FB5018152954E0E94580C0F90E3
S11345800FBE8091B21A882359F0E091151BF09167
S1134590161B8689801730F40E948A1781E005C0B3
S11345A081E003C081E001C08FEFDF91CF911F91C3
S11345B00F91FF90EF90DF90CF90BF90AF909F90BE
S11345C08F907F906F905F904F9008959F92AF92DD
S11345D0BF92CF92DF92EF92FF920F931F93CF93EC
S11345E0DF93FC019091AB1A9F5F9093AB1A80917B
S11345F0B41A9091B51A20813181E901C60FD71FF1
S11346008217930758F4C217D30708F06EC1D183F9
S1134610C0838C179D0708F042C009C0C217D30796
S113462008F460C18C179D0708F45CC15EC18091D9
S1134630151B9091161B02960E94AA0CE091151B63
S1134640F091161BD383C2838091B41A9091B51A4A
S1134650C817D90768F46091151B7091161B8091D7
S1134660C91A9091CA1A6E5F7F4F0E94790C17C0C5
S11346706091151B7091161B8091CB1A9091CC1AE6
S11346806E5F7F4F0E94790C8091AC1A9091AD1AA5
S1134690C817D90720F4D093AD1AC093AC1A0FB63B
S11346A0F8940F928091AB1A81508093AB1A809149
S11346B0AB1A81110DC18091B61A811133C00BC19F
S11346C0D7011596ED91FC911697C681D781CE013D
S11346D00C960E94AA0C8E010E5F1F4FC8010E9407
S11346E0AA0C8E899091B31A981710F48093B31A78
S11346F090E09C01220F331F220F331F220F331F20
S1134700820F931FB8018152954E0E94580CE0917C
S1134710151BF091161B9E898689981758F0D09224
S1134720B01A08C00F2EF0ECEF2EFAE1FF2EF02D98
S1134730DD24D394F70180818111C2CF8091B11A15
S1134740882309F4BDC08091B11A882309F4B8C044
S1134750912CBB24B394CC24CA94DC2C8091AB1A46
S1134760811198C08091B41A9091B51A01969093D2
S1134770B51A8093B41AE090B41AF090B51AE11403
S1134780F10489F58091CB1A9091CC1A2091C91A21
S11347903091CA1A3093CC1A2093CB1A9093CA1A28
S11347A08093C91A8091AF1A8F5F8093AF1AE091FA
S11347B0CB1AF091CC1A8081811105C0D092AD1A28
S11347C0C092AC1A10C0E091CB1AF091CC1A0580BB
S11347D0F681E02D0680F781E02D8281938190930C
S11347E0AD1A8093AC1A8091AC1A9091AD1AE81668
S11347F0F90608F47DC0A92CE091CB1AF091CC1AEB
S11348008081811105C0D092AD1AC092AC1A48C003
S1134810E091CB1AF091CC1A0580F681E02DC68187
S1134820D7818A819B81E816F90628F49093AD1A02
S11348308093AC1A35C08E010E5F1F4FC8010E94D1
S1134840AA0C8C899D89892B21F0CE010C960E949B
S1134850AA0C8E899091B31A981710F48093B31A06
S113486090E09C01220F331F220F331F220F331FAE
S1134870820F931FB8018152954E0E94580CE0910B
S1134880151BF091161B9E898689981708F4B4CFDE
S1134890AB2CB2CF8091B11A8F5F8093B11A28C02C
S11348A08091B01A811101C0A110B092B01A809108
S11348B0B11A81508093B11A8091B11A81114ECFEF
S11348C08091B01A813031F40E948A1781E003C0CC
S11348D080E001C080E00F900FBE81110EC00E94E5
S11348E08A170BC0D183C083A2CED183C083D7CE15
S11348F08091B01A8111D9CFDACFDF91CF911F9176
S11349000F91FF90EF90DF90CF90BF90AF909F906A
S113491008959F92AF92BF92CF92DF92EF92FF924F
S11349200F931F93CF93DF93009709F463C12091F2
S1134930AB1A2F5F2093AB1AC091B41AD091B51A59
S1134940C80FD91F8091151B9091161B02960E94C7
S1134950AA0CE091151BF091161BD383C28380919E
S1134960B41A9091B51AC817D90768F46091151B49
S11349707091161B8091C91A9091CA1A6E5F7F4F6D
S11349800E94790C17C06091151B7091161B8091C1
S1134990CB1A9091CC1A6E5F7F4F0E94790C809154
S11349A0AC1A9091AD1AC817D90720F4D093AD1A58
S11349B0C093AC1A0FB6F8940F928091AB1A815041
S11349C08093AB1A8091AB1A81110DC18091B61AF4
S11349D0811133C00BC1D7011596ED91FC91169747
S11349E0C681D781CE010C960E94AA0C8E010E5F5F
S11349F01F4FC8010E94AA0C8E899091B31A981770
S1134A0010F48093B31A90E09C01220F331F220FFD
S1134A10331F220F331F820F931FB8018152954E0B
S1134A200E94580CE091151BF091161B9E898689F3
S1134A30981758F0D092B01A08C00F2EF0ECEF2E51
S1134A40FAE1FF2EF02DDD24D394F701808181114A
S1134A50C2CF8091B11A882309F4BDC08091B11AE4
S1134A60882309F4B8C0912CBB24B394CC24CA94F1
S1134A70DC2C8091AB1A811198C08091B41A90916A
S1134A80B51A01969093B51A8093B41AE090B41AAB
S1134A90F090B51AE114F10489F58091CB1A909144
S1134AA0CC1A2091C91A3091CA1A3093CC1A209387
S1134AB0CB1A9093CA1A8093C91A8091AF1A8F5F48
S1134AC08093AF1AE091CB1AF091CC1A80818111B6
S1134AD005C0D092AD1AC092AC1A10C0E091CB1AA6
S1134AE0F091CC1A0580F681E02D0680F781E02D47
S1134AF0828193819093AD1A8093AC1A8091AC1A01
S1134B009091AD1AE816F90608F477C0A92CE09143
S1134B10CB1AF091CC1A8081811105C0D092AD1AC4
S1134B20C092AC1A48C0E091CB1AF091CC1A05801F
S1134B30F681E02DC681D7818A819B81E816F9062A
S1134B4028F49093AD1A8093AC1A35C08E010E5F91
S1134B501F4FC8010E94AA0C8C899D89892B21F0C2
S1134B60CE010C960E94AA0C8E899091B31A9817C4
S1134B7010F48093B31A90E09C01220F331F220F8C
S1134B80331F220F331F820F931FB8018152954E9A
S1134B900E94580CE091151BF091161B9E89868982
S1134BA0981708F4B4CFAB2CB2CF8091B11A8F5FB1
S1134BB08093B11A22C08091B01A811101C0A11052
S1134BC0B092B01A8091B11A81508093B11A809139
S1134BD0B11A81114ECF8091B01A813031F40E9404
S1134BE08A1781E003C080E001C080E00F900FBE0F
S1134BF0811108C00E948A1705C08091B01A8111E2
S1134C00DFCFE0CFDF91CF911F910F91FF90EF9015
S1134C10DF90CF90BF90AF909F900895CF92DF9296
S1134C20EF92FF920F931F93CF93DF9385E590E06C
S1134C300E9427088C01892B09F4CBC088E290E0FC
S1134C400E942708EC01892B69F0188F0F8B0C5AEE
S1134C501F4F89E4898FEEE6F7E0DE015A9625E7D7
S1134C6037E004C0C8010E943109B3C091919D93FB
S1134C70992319F02E173F07C9F718A21E8A19A203
S1134C801AA27E0182E0E80EF11CC7010E94540CB6
S1134C90CE010C960E94540CD987C88786E090E018
S1134CA09D878C87DB8BCA8B1BA21CA21DA21EA214
S1134CB01FA240E050E069E171E0C8010E94D016F3
S1134CC0998388830FB6F8940F928091B61A8F5FF8
S1134CD08093B61A8091151B9091161B892BA9F508
S1134CE0D093161BC093151B8091B61A8130E1F541
S1134CF00FED1AE10F2EF5E1CF2EFBE1DF2EF02DA3
S1134D00C8010E94460C075F1F4F0C151D05C1F713
S1134D1086ED9AE10E94460C8DEC9AE10E94460CC5
S1134D2080EC9AE10E94460C87EB9AE10E94460CC3
S1134D3086ED9AE19093CC1A8093CB1A8DEC9AE18C
S1134D409093CA1A8093C91A0FC08091B21A811124
S1134D500BC0E091151BF091161B8689811104C0CC
S1134D60D093161BC093151B8091AE1A8F5F80934E
S1134D70AE1A8E899091B31A981710F48093B31ACF
S1134D8090E09C01220F331F220F331F220F331F89
S1134D90820F931FB7018152954E0E94580C0F90B9
S1134DA00FBE8091B21A882321F08091151B909137
S1134DB0161BF8948FEF9FEF9093AD1A8093AC1A63
S1134DC081E08093B21A1092B51A1092B41A0E941C
S1134DD04217DF91CF911F910F91FF90EF90DF90D9
S1134DE0CF9008958091AB1A8F5F8093AB1A08958A
S1134DF09F92AF92BF92CF92DF92EF92FF920F9366
S1134E001F93CF93DF930FB6F8940F928091AB1A50
S1134E1081508093AB1A8091AB1A81110DC180919E
S1134E20B61A811133C00BC1D7011596ED91FC91CF
S1134E301697C681D781CE010C960E94AA0C8E01CA
S1134E400E5F1F4FC8010E94AA0C8E899091B31A5D
S1134E50981710F48093B31A90E09C01220F331F2B
S1134E60220F331F220F331F820F931FB801815269
S1134E70954E0E94580CE091151BF091161B9E89CB
S1134E808689981758F0D092B01A08C00F2EF0EC0B
S1134E90EF2EFAE1FF2EF02DDD24D394F70180816B
S1134EA08111C2CF8091B11A882309F4BDC08091C9
S1134EB0B11A882309F4B8C0912CBB24B394CC2430
S1134EC0CA94DC2C8091AB1A811198C08091B41AD9
S1134ED09091B51A01969093B51A8093B41AE09004
S1134EE0B41AF090B51AE114F10489F58091CB1A43
S1134EF09091CC1A2091C91A3091CA1A3093CC1AC5
S1134F002093CB1A9093CA1A8093C91A8091AF1A2E
S1134F108F5F8093AF1AE091CB1AF091CC1A808105
S1134F20811105C0D092AD1AC092AC1A10C0E091A4
S1134F30CB1AF091CC1A0580F681E02D0680F7811A
S1134F40E02D828193819093AD1A8093AC1A809165
S1134F50AC1A9091AD1AE816F90608F473C0A92C9E
S1134F60E091CB1AF091CC1A8081811105C0D092C6
S1134F70AD1AC092AC1A48C0E091CB1AF091CC1A89
S1134F800580F681E02DC681D7818A819B81E81650
S1134F90F90628F49093AD1A8093AC1A35C08E01AB
S1134FA00E5F1F4FC8010E94AA0C8C899D89892B12
S1134FB021F0CE010C960E94AA0C8E899091B31A0E
S1134FC0981710F48093B31A90E09C01220F331FBA
S1134FD0220F331F220F331F820F931FB8018152F8
S1134FE0954E0E94580CE091151BF091161B9E895A
S1134FF08689981708F4B4CFAB2CB2CF8091B11A3C
S11350008F5F8093B11A1EC08091B01A811101C0C4
S1135010A110B092B01A8091B11A81508093B11A44
S11350208091B11A81114ECF8091B01A813031F440
S11350300E948A1781E003C080E001C080E00F90E5
S11350400FBE05C08091B01A8111E3CFE4CFDF9188
S1135050CF911F910F91FF90EF90DF90CF90BF9071
S1135060AF909F9008950FB6F8940F928091B41A60
S11350709091B51A0F900FBE0895CF92DF92EF92E0
S1135080FF920F931F93CF93DF938091AB1A8111FB
S11350909FC08091B41A9091B51A01969093B51A55
S11350A08093B41AE090B41AF090B51AE114F104A4
S11350B099F58091CB1A9091CC1A2091C91A30910C
S11350C0CA1A3093CC1A2093CB1A9093CA1A80939D
S11350D0C91A8091AF1A8F5F8093AF1AE091CB1AEF
S11350E0F091CC1A8081811107C08FEF9FEF9093CC
S11350F0AD1A8093AC1A10C0E091CB1AF091CC1A7F
S11351000580F681E02D0680F781E02D8281938170
S11351109093AD1A8093AC1A8091AC1A9091AD1A09
S1135120E816F90610F4D12C59C0D12CCC24C39420
S1135130E091CB1AF091CC1A8081811107C08FEFD6
S11351409FEF9093AD1A8093AC1A48C0E091CB1AAC
S1135150F091CC1A0580F681E02DC681D7818A8131
S11351609B81E816F90628F49093AD1A8093AC1A43
S113517035C08E010E5F1F4FC8010E94AA0C8C8996
S11351809D89892B21F0CE010C960E94AA0C8E8950
S11351909091B31A981710F48093B31A90E09C017D
S11351A0220F331F220F331F220F331F820F931F2F
S11351B0B8018152954E0E94580CE091151BF09154
S11351C0161B9E898689981708F4B2CFDC2CB0CFC1
S11351D08091B11A8F5F8093B11AD12C8091B01A4B
S11351E0882311F0DD24D3948D2DDF91CF911F916D
S11351F00F91FF90EF90DF90CF9008958091AB1ABC
S1135200882321F081E08093B01A08951092B01A97
S1135210A091151BB091161BE091151BF091161B64
S11352202D913C918789908D8217930760F060914E
S1135230151B7091161B8091151B9091161B675EB0
S11352407F4F0E94EC138091B31A90E0FC01EE0FA3
S1135250FF1FEE0FFF1FEE0FFF1F8E0F9F1FFC019E
S1135260E152F54E8081811117C08091B31A8150AB
S11352708093B31A8091B31A90E0FC01EE0FFF1FE4
S1135280EE0FFF1FEE0FFF1F8E0F9F1FFC01E15259
S1135290F54E8081882349F38091B31A90E09C01F4
S11352A0220F331F220F331F220F331F280F391FE2
S11352B0D901A152B54E1196ED91FC91129702803D
S11352C0F381E02D1296FC93EE9311972E51354EF7
S11352D0E217F30729F422813381FD01328321830C
S11352E0FC01EE0FFF1FEE0FFF1FEE0FFF1F8E0FCF
S11352F09F1FFC01E152F54E0180F281E02D868171
S113530097819093161B8093151B0895CF93DF9379
S1135310EB016091151B7091161B645F7F4F0E9417
S1135320790C8091151B9091161B02960E94AA0C71
S1135330CF3F8FEFD80759F46091151B7091161B5E
S11353406E5F7F4F87EB9AE10E94580C37C08091C3
S1135350B41A9091B51AC80FD91FE091151BF0919A
S1135360161BD383C2838091B41A9091B51AC817BF
S1135370D90768F46091151B7091161B8091C91AA6
S11353809091CA1A6E5F7F4F0E94790C17C060918A
S1135390151B7091161B8091CB1A9091CC1A6E5FDD
S11353A07F4F0E94790C8091AC1A9091AD1AC81766
S11353B0D90720F4D093AD1AC093AC1ADF91CF91E2
S11353C008950F931F93CF93DF93DC011596ED910E
S11353D0FC911697C681D7818E01045F1F4FC801C7
S11353E00E94AA0C8091AB1A81111CC00A501109A9
S11353F0C8010E94AA0C8E899091B31A981710F4D0
S11354008093B31A90E09C01220F331F220F331FA5
S1135410220F331F820F931FB8018152954E0E94B1
S1135420580C05C0B80180EC9AE10E94580CE09138
S1135430151BF091161B9E898689891720F481E03B
S11354408093B01A01C080E0DF91CF911F910F913A
S113545008952091AF1AFC0120832091B41A309151
S1135460B51A328321830895FC010FB6F8940F9284
S11354702091B41A3091B51ADB018D919C918F3F24
S1135480BFEF9B0721F14091AF1A5081541729F0C7
S11354904181528124173507E0F441815281D901B9
S11354A0A41BB50BA817B907B0F4421B530B840F08
S11354B0951FDB018D939C938091AF1A808380911B
S11354C0B41A9091B51A9283818380E005C080E07C
S11354D003C081E001C081E00F900FBE089581E018
S11354E08093B01A08958091151B9091161B08950E
S11354F00F931F93CF93DF93FC01892B09F455C0BD
S11355002689A091151BB091161B56968C912817CD
S113551008F04BC084859585992364F0A091151BF0
S1135520B091161B56963C9186E090E0831B91093E
S11355309587848730E0C901880F991F880F991FC8
S1135540880F991F280F391F2152354E8285938564
S11355508217930719F58F01EF012296CE010E945D
S1135560AA0CE091151BF091161B8689F801868B15
S11355709091B31A981710F48093B31A90E09C0199
S1135580220F331F220F331F220F331F820F931F4B
S1135590BE018152954E0E94580C07C0A091151B64
S11355A0B091161B56968C91868BDF91CF911F91EB
S11355B00F9108950F931F93CF93DF93FC01892BD1
S11355C079F182A1815082A3268991A1291751F1F1
S11355D081112AC0EF018F010E5F1F4FC8010E9485
S11355E0AA0C89A18E8B26E030E0281B31093D8767
S11355F02C879091B31A981710F48093B31A90E003
S11356009C01220F331F220F331F220F331F820FDF
S1135610931FB8018152954E0E94580C81E005C039
S113562080E003C080E001C080E0DF91CF911F9152
S11356300F9108958091151B9091161B892B39F0B9
S1135640E091151BF091161B82A18F5F82A38091BC
S1135650151B9091161B08950F931F93CF93DF93FF
S1135660182FEB010FB6F8940F92E091151BF091EF
S1135670161B83A194A1A5A1B6A1892B8A2B8B2BE0
S113568009F058C0E091151BF091161B81E087A327
S1135690209709F44FC08091151B9091161B029618
S11356A00E94AA0CCF3F8FEFD80759F46091151BC5
S11356B07091161B6E5F7F4F87EB9AE10E94580C26
S11356C037C08091B41A9091B51AC80FD91FE091D0
S11356D0151BF091161BD383C2838091B41A909149
S11356E0B51AC817D90768F46091151B7091161B79
S11356F08091C91A9091CA1A6E5F7F4F0E94790CEB
S113570017C06091151B7091161B8091CB1A909154
S1135710CC1A6E5F7F4F0E94790C8091AC1A9091E5
S1135720AD1AC817D90720F4D093AD1AC093AC1A98
S11357300E948A170F900FBE0FB6F8940F92E09153
S1135740151BF091161B63A174A185A196A1611587
S1135750710581059105D9F0112349F0E091151BDC
S1135760F091161B13A214A215A216A210C0E09168
S1135770151BF091161B03A114A125A136A10150FC
S113578011092109310903A314A325A336A3E09128
S1135790151BF091161B17A20F900FBEDF91CF912E
S11357A01F910F9108954F925F926F927F928F9203
S11357B09F92AF92BF92EF92FF920F931F93490172
S11357C05A010FB6F8940F92E091151BF091161B35
S11357D027A1223009F46FC0E091151BF091161B2C
S11357E043A054A065A076A0DC01CB0180959095E0
S11357F0A095B09584219521A621B72183A394A3D4
S1135800A5A3B6A3E091151BF091161B81E087A315
S1135810E114F10409F44FC08091151B9091161BFB
S113582002960E94AA0C8FEFE816F80659F46091CC
S1135830151B7091161B6E5F7F4F87EB9AE10E94D8
S1135840580C37C08091B41A9091B51AE80EF91E1D
S1135850E091151BF091161BF382E2828091B41A39
S11358609091B51AE816F90668F46091151B7091C9
S1135870161B8091C91A9091CA1A6E5F7F4F0E94BD
S1135880790C17C06091151B7091161B8091CB1A6F
S11358909091CC1A6E5F7F4F0E94790C8091AC1A64
S11358A09091AD1AE816F90620F4F092AD1AE09240
S11358B0AC1A0E948A170F900FBE0FB6F8940F927D
S11358C00115110569F0E091151BF091161B83A1D8
S11358D094A1A5A1B6A1F80180839183A283B38387
S11358E0E091151BF091161B87A18130B1F0E09176
S11358F0151BF091161B83A194A1A5A1B6A18094B8
S11359009094A094B09488229922AA22BB2283A2C4
S113591094A2A5A2B6A281E001C080E0E091151B8B
S1135920F091161B17A20F900FBE1F910F91FF90BD
S1135930EF90BF90AF909F908F907F906F905F900B
S11359404F9008950F931F93CF93DF93FC010FB6ED
S1135950F8940F920115110549F083A194A1A5A112
S1135960B6A1E80188839983AA83BB8387A192E0C7
S113597097A32230B1F018F4213031F02AC023303B
S1135980E9F0243001F125C003A114A125A136A119
S1135990402B512B622B732B43A354A365A376A3F3
S11359A018C043A154A165A176A14F5F5F4F6F4F0B
S11359B07F4F43A354A365A376A30BC043A354A36F
S11359C065A376A306C0823079F143A354A365A3EB
S11359D076A3813059F5EF018F010E5F1F4FC80187
S11359E00E94AA0C8E899091B31A981710F4809390
S11359F0B31A90E09C01220F331F220F331F220F92
S1135A00331F820F931FB8018152954E0E94580C88
S1135A10E091151BF091161B9E898689891740F425
S1135A200E948A1781E005C080E003C081E001C0C4
S1135A3081E00F900FBEDF91CF911F910F910895D8
S1135A40EF92FF920F931F93CF93DF93FC01011505
S1135A50110549F083A194A1A5A1B6A1E801888309
S1135A609983AA83BB8387A192E097A32230B1F0E4
S1135A7018F4213031F02AC02330E9F0243001F148
S1135A8025C003A114A125A136A1402B512B622BC3
S1135A90732B43A354A365A376A318C043A154A1B5
S1135AA065A176A14F5F5F4F6F4F7F4F43A354A310
S1135AB065A376A30BC043A354A365A376A306C032
S1135AC08230F1F143A354A365A376A38130D1F5C9
S1135AD0EF018091AB1A81111DC08F010E5F1F4F22
S1135AE0C8010E94AA0C8E899091B31A981710F4D9
S1135AF08093B31A90E09C01220F331F220F331FAF
S1135B00220F331F820F931FB8018152954E0E94BA
S1135B10580C07C0BF01645F7F4F80EC9AE10E947C
S1135B20580CE091151BF091161B9E8986898917E4
S1135B3058F4E114F10451F081E0F701808307C0C7
S1135B4080E005C081E003C081E001C081E0DF9115
S1135B50CF911F910F91FF90EF900895009721F43A
S1135B608091151B9091161B0FB6F8940F92FC01AF
S1135B7027A1223019F417A281E001C080E00F9020
S1135B800FBE0895CF93DF9300D01F92CDB7DEB739
S1135B90AADC90937E1B80937D1B19821A821B8240
S1135BA01C82EE24EA94FE2C8E010F5F1F4F2FEF10
S1135BB03FEFA9016FEF7FEFCB01F5DDE091E21B31
S1135BC0F091E31B309769F369817A8184EE9BE15C
S1135BD01995E7CFCF93DF93CDB7DEB7C456D1097C
S1135BE00FB6F894DEBF0FBECDBF00ED10E00F2E50
S1135BF0F6EDEF2EF12CF02D20E04FEF5FEF60E09B
S1135C0070E08091A31B9091A41B0E94A51D24E623
S1135C1030E040E0BE016F5F7F4F88E49CE10E946A
S1135C20A2056C0160E070E08091A31B9091A41B1D
S1135C300E94091CC114D10479F0FE0131969F0120
S1135C402C0D3D1DD8018C9185FFFCCF8191D7018E
S1135C508C932E173F07B1F78AE090E00E948924C5
S1135C60CBCFAF92BF92CF92DF92EF92FF920F937E
S1135C701092D50089E18093D4001092C5008093DE
S1135C80C40086E08093C20098E19093C10090EE36
S1135C909093D00098E99093D100E2EDF0E08083F6
S1135CA08081808384E690E00E94270844E650E0E7
S1135CB0BC0188E49CE10E942C05A12CB12CC12CD0
S1135CC0D12CE12CF12C04E020E030E04CE251E056
S1135CD062E777E082EC9DE20E94D22120E030E08E
S1135CE04CE251E06EE777E08AEE9DE20E94D22119
